:020000040800F2
:10000000F007002059010008A9240008D11D0008AC
:1000100000000000000000000000000000000000E0
:100020000000000000000000000000006B26000837
:10003000000000000000000069260008CD2600082E
:100040006B010008000000006B0100086B01000854
:100050006B0100086B0100086B0100086B010008D0
:10006000000000006B0100086B0100086B01000834
:100070006B010008F12700080128000800000000BB
:10008000692800086B010008000000006B010008EF
:100090006B0100086B0100086B0100086B01000890
:1000A0006B0100086B0100086B0100086B01000880
:1000B0006B01000800F002F800F03EF80CA030C818
:1000C000083824182D18A246671EAB4654465D46D4
:1000D000AC4201D100F030F87E460F3E0FCCB64660
:1000E0000126334200D0FB1AA246AB4633431847E1
:1000F000F02F000010300000103A02D378C878C109
:10010000FAD8520701D330C830C101D504680C6059
:10011000704700000023002400250026103A01D378
:1001200078C1FBD8520700D330C100D50B607047AF
:100130001FB51FBD10B510BD00F0E6F91146FFF761
:10014000F7FF02F0A3FE00F0FEF903B4FFF7F2FFA1
:1001500003BC00F005FA0000074880470748004745
:10016000FEE7FEE7FEE7FEE7FEE7FEE70448054997
:10017000054A064B70470000BB270008B500000881
:10018000F0010020F0070020F0030020F003002021
:1001900010B5202A04DB0846203AD040002110BDCB
:1001A0000B462024D340D040A21A91400843194660
:1001B00010BDFEB5054610460C46184373D0AE463A
:1001C0008C460020AD1A01469C4167D36646002745
:1001D00001243D46B61A9D4102D313463A462124D6
:1001E000654676462F04360C3E432D0CB61A9D41CB
:1001F00004D3150C1B042B431204103465467646B9
:100200002F06360A3E432D0AB61A9D4104D3150E19
:100210001B022B4312020834654676462F07360927
:100220003E432D09B61A9D4104D3150F1B012B43E4
:100230001201241D65467646AF07B6083E43AD0859
:10024000B61A9D4104D3950F9B002B439200A41C2A
:1002500065467646EF0776083E436D08B61A9D411F
:100260001AD392185B41641C16E000187646654666
:100270004941B71A9D410191009009D36046B11AD6
:1002800098418E468446009801990025401C69419A
:10029000DD0752082A435B08641EE6D572466346B2
:1002A00003B0F0BDFFE700200146C046C0462A4625
:1002B0002346F5E701E004C0091F0429FBD28B07A0
:1002C00001D50280801CC90700D002707047002948
:1002D0000BD0C30702D00270401C491E022904D370
:1002E000830702D50280801C891EE3E70022EEE727
:1002F0000022DFE78178C2780378090412061143EF
:1003000042781002184308437047020A08704A7086
:10031000020C8A70020ECA707047002203098B42D9
:100320002CD3030A8B4211D300239C464EE0034694
:100330000B433CD4002243088B4231D303098B4248
:100340001CD3030A8B4201D394463FE0C3098B427E
:1003500001D3CB01C01A524183098B4201D38B01D7
:10036000C01A524143098B4201D34B01C01A52417A
:1003700003098B4201D30B01C01A5241C3088B42BF
:1003800001D3CB00C01A524183088B4201D38B00AA
:10039000C01A524143088B4201D34B00C01A52414C
:1003A000411A00D201465241104670475DE0CA0F23
:1003B00000D04942031000D34042534000229C46E3
:1003C00003098B422DD3030A8B4212D3FC228901ED
:1003D00012BA030A8B420CD3890192118B4208D3C3
:1003E000890192118B4204D389013AD0921100E025
:1003F0008909C3098B4201D3CB01C01A5241830939
:100400008B4201D38B01C01A524143098B4201D365
:100410004B01C01A524103098B4201D30B01C01A90
:100420005241C3088B4201D3CB00C01A524183080A
:100430008B4201D38B00C01A5241D9D243088B4260
:1004400001D34B00C01A5241411A00D20146634603
:1004500052415B10104601D34042002B00D5494267
:10046000704763465B1000D3404201B50020C04690
:10047000C04602BD7047704770470102C21504D0E4
:100480000123DB071943002A0ADB9E239A1A02D4B0
:100490000846D0407047FF2241001206914201D920
:1004A00000207047C017C04370471F22030C02D1C1
:1004B0000F2200041CD0030E01D10002083A030FE2
:1004C00001D10001121F830F01D18000921E00286C
:1004D00001DB4000521ED205511802125118192298
:1004E000904004D3491C002801D14908490008461E
:1004F0007047C10FC90700D0404201229207114343
:10050000D3E701218907D0E7754600F025F8AE460C
:10051000050069465346C008C000854618B020B59E
:10052000FFF724FE60BC00274908B6460026C0C578
:10053000C0C5C0C5C0C5C0C5C0C5C0C5C0C5403D9B
:1005400049008D46704710B50446C046C046204657
:10055000FFF7FBFD10BD0000004870478C01002034
:1005600001491820ABBEFEE72600020070470000DC
:10057000F8B51F4C0746012109266068C905F60633
:10058000884204DAA2688A4201DA002219E04000B7
:10059000000E09D001220821304600F0DCFC38466C
:1005A000616802F021FD6060A5686800000E0CD053
:1005B0003846216802F07AFC0E492060884205DA4C
:1005C00001220821304600F0C6FCF8BD09490A4A5C
:1005D000494241189142D8D308498842F5DB7F212E
:1005E000C905284602F00CFDA06000202060F8BD7F
:1005F00010000020CDCC4C3ECDCC4C009A99993EB9
:1006000070B51849096800290BD0174900244A78A9
:10061000164E174D002A02D00979002902D0346005
:100620002C7070BD316802F041FC7F21C90530603B
:100630008842F6DB2878002812D10E48006800288E
:100640000ED00D480168002902D0491E016007E064
:10065000012028700949042008600A4908480860F8
:10066000346070BD980000207400002070000020ED
:10067000A00000207C000020940000208C000020BE
:10068000000040401800002007480179002909D0E7
:10069000064909680F2905D8054A01211170002172
:1006A0004170017170470000740000208400002038
:1006B0005E00002070B5074C05462078002807D062
:1006C000FFF71FFF294602F09BFCFFF7D6FE2070C4
:1006D00070BD00001C000020F0B51B48012400780C
:1006E0001A49002801D00C7002E00878012829D1AD
:1006F0001748C078002825D1164E17483768036878
:10070000164D174800229F4205D033600668002E20
:1007100000D002606B60134E134B37681B689F421A
:1007200001D03360AB600A4B5B78002B07D00368C5
:10073000002B00D002600D480D4B006818600D487A
:100740000A700470F0BD00001C0000205E00002054
:10075000740000207C000020800000205801002050
:100760008C000020940000209800002084000020CD
:100770009000002060000020F1B5284E284C7078D1
:10078000002582B0012802D0E570A57014E0A168B0
:10079000029802F08BFB3F210906A06088420CDB27
:1007A00020480068002803DDA078C043A07000E066
:1007B000A570E078C043E070A560F778002F03D003
:1007C00019480078002802D06570257023E0E068A1
:1007D00000904000000E1FD06168029802F066FB96
:1007E0003F2109066060884216DB009802F008FC91
:1007F000E060012F02D0022F05D008E06178C943E4
:100800006170257003E065702178C9432170400054
:10081000000E00D1F5706560FEBD00007400002080
:1008200044000020980000201C00002005490868B2
:10083000401C08600A2803D3034A002010600860A7
:1008400070470000880000208400002030B51C485C
:100850004078012819D11B491B481C4A0C680368C1
:1008600003251B481268002C10D0012C13D0022C39
:100870001BD0032C21D0042C07D10368934201D94B
:100880005B1E0360002A00D10D6030BD0260934200
:1008900009D901240C600468944201D2641C0460EC
:1008A0009C42F1D230BD02240C600468944201D90C
:1008B000641E04609A42E7D930BD036030BD000079
:1008C000740000208C0000207C00002084000020A8
:1008D00090000020F3B5054600208DB008900790E9
:1008E0000746069004460590064604905D48407809
:1008F000002835D15C4FBD4208DD791C2846FFF742
:1009000016FD584980B21031085C0890632D0EDD49
:1009100064212846FFF70BFD80B2BD4203DD0A21AA
:10092000FFF7FBFC08464F491031085C0790092D82
:100930000EDD0A212846FFF7FAFC80B2632D03DDA5
:100940000A21FFF7EAFC084646491031085C069088
:100950000A212846FFF7EBFC88B2424910310F5CB0
:1009600042490E98FFF7E3FCC0B2E1210A90090169
:100970000E98FFF7DCFC0D460A21FFF7D8FCC8B241
:100980000B904B212846C900FFF7D1FCC0B2019063
:1009900028463C21FFF7CBFC0A21FFF7C8FCC8B270
:1009A00000903048007800281BD1314800680028AA
:1009B00012DD2C4D0A981035285C05900B980A2101
:1009C0002C5C0198FFF7A9FC685C04900A21009850
:1009D000FFF7A3FC6E5C04E0082004460590064681
:1009E000049020498020CA78002A33D07D066D0EFD
:1009F0008978002932D06406640E7606760E0643A6
:100A000001220020089902F0FFF801220220079934
:100A100002F0FAF801220420069902F0F5F801220A
:100A20002946062002F0F0F801220820059902F07C
:100A3000EBF8012221460A2002F0E6F801220C2000
:100A4000049902F0E1F8012231460E2002F0DCF8B0
:100A50000FB0F0BD7D066D0E0543C9E76406640E58
:100A60000443CAE744000020E7030000A08C000014
:100A70009800002010B50021014800F065FF10BD6E
:100A8000EC00002072B6FEE706490020C861064867
:100A9000016904221143016101694022114301618E
:100AA000704700003801002000200240064A002163
:100AB000D16106490A6902231A430A61486108693B
:100AC0004022104308617047380100200020024096
:100AD00010B5054B0022DA61044A1369012423434F
:100AE0001361018010BD0000380100200020024089
:100AF00010B50B4A0020D168CB060A4904D5C86955
:100B000002231843C8611020D3685B0705D5CB6961
:100B100001242343CB6104210843D06010BD0000B1
:100B2000002002403801002070B5054600F01AFA96
:100B30000646104C0AE0681C08D0002D04D000F0D6
:100B400011FA801BA84201D9032070BDE068C007DC
:100B5000F1D1E068800601D52020E060E068C006A1
:100B600002D4E068400703D5FFF7C2FF012070BD43
:100B7000002070BD0020024078B500220E4B4C1EB4
:100B800015E0551CA5420ADCD5182E886D462E802E
:100B90002D7885546D466D788618757005E0D518EA
:100BA0002E886D462E802D788554921C92B28A42F2
:100BB000E7D3012078BD000000700008F3B585B0D0
:100BC0000D4600F0DDF800200121174F0190039140
:100BD00000900297694601A800F03AF8002818D161
:100BE00000246E1E1AE0601CB042059805DC001956
:100BF000407801020598005D02E0015DFF200002DF
:100C0000081882B20023E119012000F07BF80028C7
:100C100002D0002007B0F0BDA41CA4B2AC42E2D3C5
:100C200000F066F80120F5E70070000870B5044692
:100C300000F098F90546601C02D00448007824189A
:100C400000F090F9401BA042FAD370BD00000020D4
:100C5000F8B5054623480F46017E012601290BD031
:100C6000012101762868204C012807D02046FFF793
:100C70005BFF002813D030E00220F8BD2046FFF7CC
:100C800053FF002829D1FFF7FFFE2046FFF74CFF56
:100C90000646164801690422914301611DE00020C7
:100CA000C04338606C6812E02046FFF7FFFE0E4834
:100CB000FFF73AFF06460D48026902218A430261A6
:100CC000002E01D03C6008E0012080022418A868B2
:100CD000810268680818A042E6D80248002101761F
:100CE0003046F8BD3801002050C30000002002400B
:100CF0000348016980221143016100207047000010
:100D000000200240F0B51FB407461A480024017EB7
:100D100015461E46012907D0012101761648FFF726
:100D200003FF002803D020E0022005B0F0BD012F12
:100D300002D0022F00D00427220128463146FFF7B7
:100D400027FA81B2019862001018FFF7C1FE0A4825
:100D5000FFF7EAFE09490A69520852000A610028B1
:100D600003D1641CE4B2BC42E6D3024900220A76F5
:100D7000DBE700003801002050C3000000200240E3
:100D8000064900200A69120607D5054A4A60054A45
:100D90004A600969090600D5012070470020024019
:100DA00023016745AB89EFCDF8B500230324012566
:100DB000BAE02E469E40B44632407CD00E79B6074B
:100DC000B60F012E01D0022E17D186682746B646EF
:100DD0005E00B74000967646BE43B646CF68009E9A
:100DE000B74076463743876046686746BE430F790B
:100DF000FF06FF0F9F40374347600E79F643B60763
:100E00000ED0C6682746B4465E00B646B740664672
:100E1000BE43B4468F687646B74066463743C760E0
:100E20000E79B607B60F022E14D1DE08B6003618BA
:100E30000096366A5F07B446FE0E0F27B646B740E7
:100E40006646BE43B4460F697646B74066463743AA
:100E5000009E376206682746B4465E00B646B74035
:100E60006646BE430F79B446BF07BF0F7646B7400C
:100E70006646374307604E68B603B60F53D02D4F12
:100E8000BE692E43BE61BE699F08F607F60F2A4E63
:100E9000BF00BE190096B6680F27B4469E07360FEE
:100EA000B646B7406646BE430927FF06B446B84279
:100EB00002D1002710E036E0204FB84201D10127CF
:100EC0000AE01F4FB84201D1022705E01D4FB8428A
:100ED00001D1032700E005277646B7406646374331
:100EE000009EB760184E36684F689643FF0300D5E2
:100EF0001643154F3E607E684F689643BF0300D58A
:100F00001643114F7E60BE684F689643FF0200D5BE
:100F100016430D4FBE60FE684F689643BF0200D572
:100F20001643094AD6605B1C0A681646DE4000D0AC
:100F30003FE7F8BD001002400000014000040048F7
:100F400000080048000C0048000401400069084007
:100F500000D001207047002A01D081617047816272
:100F600070470000014880687047000000000020C2
:100F7000024881680278891881607047000000206B
:100F800010B506480168102211430160032000F0EB
:100F900007F800F027F8002010BD000000200240F4
:100FA00070B504460D4D7D202978C000FFF7B5F9D6
:100FB00001460B480068FFF7B0F900F0BFFA0028BF
:100FC00009D1042C07D200222146401E00F02AF845
:100FD00000206C6070BD012070BD0000000000208A
:100FE0000C00002008B50848816901221143816185
:100FF000816911400091C26901040A43C261C0695C
:101000000840009008BD000000100240002805DBE9
:10101000C106C90E012088400149086070470000E0
:1010200000E100E010B501F009FF10BDF8B50F4672
:10103000060059D03A4D2868C007C00FB84209D2FF
:10104000286840084000384328602868C007C00F5F
:10105000B84249D13068334C81070CD5400704D5DC
:10106000606807210902084360606068F0218843D6
:10107000B168084360603078C00726D070680128E6
:101080000ED0216802280ED0890700292CDA616869
:101090008908890001436160FFF764FF00900DE05B
:1010A00021688903F1E78901EFE7FFF75BFF00990A
:1010B000411A1D48814201D90320F8BD60680C2106
:1010C0000840716889008842EFD12868C007C00FC6
:1010D000B8420BD928684008400038432860286887
:1010E000C007C00FB84201D00120F8BD30784007DA
:1010F00006D56068072109028843F16808436060EB
:1011000000F018F86168094A0906090F515CC840E7
:10111000074908600320FFF743FF0020F8BD0000E7
:10112000002002400010024088130000D030000868
:101130000C00002010B514A30FCB88B06C460FC470
:1011400015A30FCB0FC4184A51680C200B4603405F
:101150001648042B16D0082B14D18B021B0F6C469B
:10116000E45CD26A04AB1207120F9A5CC90305D57E
:1011700000231946FFF71DF8214601E020460C49DF
:1011800001F044FE08B010BD02030405060708097B
:101190000A0B0C0D0E0F10100102030405060708C0
:1011A000090A0B0C0D0E0F100010024000127A00FD
:1011B00000093D00FEB5040070D02078DC4DC0076A
:1011C0004AD068680007800F012807D068680007C8
:1011D000800F022809D16868C00306D528688003FB
:1011E0003AD560680028E7D036E06168012914D05C
:1011F00001208004002901D0052914D02A6801218A
:1012000009048A432A6029688143296060680028AC
:1012100016D0FFF7A7FE06460EE028680121090454
:1012200008432860F2E7296801432960F5E7FFF7E2
:1012300099FE801B64286ED828688003F7D50BE0E0
:10124000FFF790FE064604E0FFF78CFE801B642843
:10125000F1D828688003F7D4207801268007002879
:101260003CDA68680007800F07D068680007800FC5
:10127000022809D16868C00306D42868800716D5FB
:10128000E06801280AD112E0E0680028286816D03A
:1012900030432860FFF766FE074605E043E1FFF7AD
:1012A00061FEC01B0228C6D828688007F7D52868C9
:1012B000F82188432169C900084328600EE04008EE
:1012C00040002860FFF74EFE074604E0FFF74AFEA5
:1012D000C01B0228AFD828688007F7D42078000701
:1012E00022D5E0690028686A0ED030436862FFF7B3
:1012F00039FE074604E0FFF735FEC01B02289AD8E6
:10130000686A8007F7D50FE0400840006862FFF781
:1013100029FE074605E09DE0FFF724FEC01B0228DA
:1013200089D8686A8007F7D4207804274007002806
:1013300060DA00200190E869C00008D4E969B806C5
:101340000143E961E9690140012000910190794878
:101350000168C90511D40168821511430160FFF7C6
:1013600001FE009005E0FFF7FDFD0099401A64289A
:1013700070D870480068C005F5D5A06801280AD06B
:10138000002801D0052810D0286A400840002862B3
:10139000286AB84301E0286A30432862A068002820
:1013A00012D0FFF7DFFD00900AE0286A3843286278
:1013B000F1E7FFF7D7FD0099411A5F48814249D80C
:1013C000286A8007F5D50DE0FFF7CCFD009006E018
:1013D000FFF7C8FD0099411A574881423AD8286A58
:1013E0008007F5D40198002804D0E969012000079E
:1013F0008143E9612078C00635D5606901280CD0A9
:10140000401D686B23D038436863686B4008400018
:101410006863FFF7A7FD064622E0686B3843686300
:10142000686B30436863FFF79DFD064604E0FFF7F5
:1014300099FD801B02285BD8686B8007F7D5686B25
:10144000F8218843A169C900084368630BE0B843E9
:101450006863F4E74CE0FFF785FD801B022847D85E
:10146000686B8007F7D4206A00285ED06968090796
:10147000890F022942D0012636060228286805D0A5
:10148000B0432860FFF76EFD044633E0B0432860A8
:10149000FFF768FD074604E0FFF764FDC01B022864
:1014A00026D828688001F7D4E86AE16A00090001BB
:1014B0000843E862616AA06A084369683D22120431
:1014C000914308436860286830432860FFF74AFD6D
:1014D000044604E0FFF746FD001B022808D82868F0
:1014E0008001F7D521E0FFF73DFD001B022801D95F
:1014F0000320FEBD28688001F5D416E00128F8D04D
:101500006868E96A01221204636A02409A420AD1B9
:101510000907E26A090F914205D10F2189040840A9
:10152000A16A884201D00120FEBD0020FEBD00005E
:10153000001002400070004088130000094910B5F7
:10154000401E884201D9012010BD074C6061032173
:10155000081F01F073FC0020A0610720206100201B
:1015600010BD0000FFFFFF0000E000E07047704783
:1015700030B5034620331A7F012A26D001221A777C
:101580000325CA682D02AA438D6800242A43012539
:10159000AD02AA434D6800682A430125ED02AA4323
:1015A0000D682A4301252D03AA430D692A4301250D
:1015B0006D03AA434D69C9692A430125AD03AA43B6
:1015C0000A4342641C77002030BD022030BD000079
:1015D000F0B502462032137F012B1ED0012515776E
:1015E0000223537706687468B3687027BC430F689A
:1015F0002743776000680A4CA04205D0094CA042FE
:1016000002D0094CA04204D180244968A343194365
:101610008160557700201077F0BD0220F0BD0000FA
:10162000002C0140000400400040014070B504005F
:1016300005D025462035687F002802D006E001202D
:1016400070BD00202877204600F014F8022068774B
:10165000211D206801F010F901204034A071A87705
:10166000E87720706070A070E0702071607168771A
:10167000002070BD10B586B0044614216846FEF700
:1016800037FE14492068884222D11348C2690221DA
:101690000A43C261C2690A40059243694A0413437E
:1016A0004361406901911040059010200090002096
:1016B000029003900120049069460848FFF774FBEC
:1016C000002211461020FFF7ADFC1020FFF79EFC12
:1016D00006B010BD000400400010024000040048A5
:1016E000F8B5054604462035287F0026012817D086
:1016F0000120287702206877226890687727FF23E7
:10170000B8431B02984390600868502838D00EDC1C
:1017100020284FD006DC00284CD010281ED149E0EC
:101720000220F8BD302845D0402817D13AE0602883
:101730002ED0702819D001221203801A0FD09042A7
:101740000CD1CB684A688968206801F0E6F8206807
:101750008168012292031143816000E0012601208B
:101760006877002028773046F8BDCB684A688968DA
:10177000206801F0D2F82168886838438860EEE775
:10178000CA684968206801F0D7F95021206806E04E
:10179000CA684968206801F009FA6021206801F0F0
:1017A000C7F8DCE7CA684968206801F0C5F940213C
:1017B0002068F4E7226801461046F0E710B5054AB4
:1017C0000168914204D1007F012801D101F020F885
:1017D00010BD000000040040F8B504460020264675
:1017E00020360090307F0D4601280ED00120307742
:1017F000002A0CD0042A19D0082A2AD00C2A4ED04C
:101800000090002030770098F8BD0220F8BDEB680A
:1018100006CD083D206801F0A1F9206882690C21FD
:101820008A43826120688169AA680FE0EB6806CD6F
:10183000083D206801F0CDF92068816903229202F9
:101840009143816120688169AA6812021143816114
:10185000D7E788CD287921688446086AFF220132BB
:1018600090430862C8690A6A800880003843F027FC
:10187000B84367463F073F0E0743052040028243B7
:101880000A20034018021043CF6108622068C16932
:101890000C229143C1612068C1692A682CE02B6841
:1018A00020689E466F682B7B016ABC4601221203AA
:1018B00091430162C169026A03273F02B943674647
:1018C0003F020F430F2109038F431907090C05231A
:1018D00039435B039A4373460A273B401B03134378
:1018E000C16103622068C269032189028A43C2611F
:1018F0002068C169AA6812021143C16181E770B50D
:10190000040005D025462035687F002802D006E077
:10191000012070BD00202877204600F014F8022036
:101920006877211D206800F0A7FF01204034A071D6
:10193000A877E87720706070A070E0702071607107
:101940006877002070BD704770B5034604460025D7
:1019500020334030002908D0042909D008290AD0B2
:1019600046784279012E0BD108E09E7F8278F9E714
:10197000DE7FC278F6E706780279F3E7012A01D024
:10198000012070BD0222002909D004290ED00829A7
:1019900012D0427042710C292ED001252AE09A778C
:1019A00082702068C3681343C3600CE0DA77C270AA
:1019B0002068C268042304E0027002712068C268D3
:1019C00008231A43C2600122206800F099FF0C4AE4
:1019D00020680121904205D00A4A904202D00A4A6A
:1019E000904204D182685207520F062A02D0026840
:1019F0000A430260284670BD2068C2681023E0E7F1
:101A0000002C0140000400400040014070B5044635
:101A1000006801690025C9438907002915DBC168F1
:101A2000C943890711D4E91E01610120207720688C
:101A300080698007204602D0FFF7C0FE04E000F076
:101A4000BFF8204600F06CF9257720680169C9438A
:101A5000490717D4C168C943490713D40421C943AE
:101A6000016102202077206880698005800F204670
:101A700002D0FFF7A3FE04E000F0A2F8204600F039
:101A80004FF9257720680169C943090716D4C16851
:101A9000C943090712D40821C943016104202077F2
:101AA0002068C0698007204602D0FFF787FE04E067
:101AB00000F086F8204600F033F9257720680169A8
:101AC000C943C90617D4C168C943C90613D4102134
:101AD000C9430161082020772068C0698005800F14
:101AE000204602D0FFF76AFE04E000F069F82046C5
:101AF00000F016F9257720680169C943C90708D1A4
:101B0000C168C943C90704D1891E0161204600F09C
:101B10005DF920680169C943090609D4C168C94350
:101B2000090605D48021C94301612046FFF71EFD47
:101B300020680169C943490609D4C168C9434906F7
:101B400005D44021C9430161204600F040F92068D6
:101B50000169C943890609D4C168C943890605D406
:101B60002021C94301612046FFF701FD70BD00003F
:101B700010B586B0044614216846FEF7B9FB0E493D
:101B80002068884216D10D484269012149040A4360
:101B90004261406908400590032000020090002047
:101BA0000221029003900191049109206946C00628
:101BB000FFF7FAF806B010BD002C014000100240FB
:101BC0007047F8B5064604462036307F00270D469C
:101BD00001280ED001203077002A0CD0042A1BD017
:101BE000082A2FD00C2A3ED0012700203077384613
:101BF000F8BD0220F8BD206800F0A2FE20688169CF
:101C00000822114381612068826904218A4382612C
:101C1000206881692A6912E0206800F0D5FE2068FA
:101C200082690121C9020A43826120688169012217
:101C3000920291438161206881692A6912021143ED
:101C40008161D2E7206800F0FFFE2068C1690822A8
:101C50001143C1612068C26904218A43C2612068BE
:101C6000C1692A6912E0206800F030FF2068C1696C
:101C70000122D2021143C1612068C2690121890297
:101C80008A43C2612068C1692A6912021143C16195
:101C9000ABE770B5040005D025462035687F0028E5
:101CA00002D006E0012070BD00202877204600F019
:101CB00015F802206877211D206800F0DDFD012065
:101CC0004034A071A877E87720706070A070E07051
:101CD000207160716877002070BD000008B5006851
:101CE0000D49884217D10D488269C1140A438261A7
:101CF000806900220840009011460D20FFF792F9FC
:101D00000D20FFF783F9002211460E20FFF78AF914
:101D10000E20FFF77BF908BD002C014000100240A7
:101D20007047000030B504460222203000290AD056
:101D300004290DD02046403008290ED04378012BCD
:101D400010D0012030BD837F012BFAD182770AE0C9
:101D5000C37F012BF5D1C27705E00378012BF0D1C9
:101D6000027000E042700122206800F0C9FD1249B3
:101D70002068124B884207D0984205D0104A904202
:101D800002D0104A904204D1426C0125ED032A434F
:101D9000426420680122884204D00B49884201D065
:101DA000984204D181684907490F062902D0016889
:101DB00011430160002030BD002C01400040014073
:101DC0000044014000480140000400407047704753
:101DD000FEE70000F1B50421AF48FFF7B7F8002592
:101DE0000126AE4C002802D16079002803D060782B
:101DF000012806D03EE0A168009801F057F8A060E5
:101E000066700421A448FFF7A1F8012812D1FF2031
:101E1000A168800581420ADAA14F7878002813D0A2
:101E2000A0483E7104210160A0499F480860657088
:101E30006571A5609E48A16809189E48814219D223
:101E40006079002811D015E09B499C48FEF75DFAA7
:101E50009B489D4906709B48006808609B498860C4
:101E60007E709048FD700560DEE70120984980078C
:101E70000860667102218848FFF768F8954F0028CE
:101E800003D0A078012806D031E0E168009801F085
:101E90000DF8E060A67002217F48FFF757F8502345
:101EA0008D4901280FD1FF20E2688005824208DABF
:101EB0007B48C078012825D002282BD0844A980678
:101EC0001060A570E5608548E26812188448824277
:101ED0000DD87348C078012827D002282DD00120C2
:101EE0007B4980070860FF20A5708005E060012124
:101EF00089026948FFF72AF800282BD0E0780128EA
:101F00002ED059E077480268521C0260502A08DD42
:101F1000036006E06B4802683C3202608A4200DDE2
:101F20000160714826700760CBE76E4908680A3087
:101F3000086050280ADD0B6008E062484B22036805
:101F4000D2009A1802608A4200DD0160664826705D
:101F50000760C8E72169009800F0A8FF2061E670DB
:101F6000012189024C48FEF7F1FF142201280FD10C
:101F7000FF2021698005814208DA4948C07801289C
:101F800021D0022827D0524910070860E57025614A
:101F9000524821690918524881420DD84048C078FA
:101FA000012823D0022829D0012049498007086050
:101FB000FF20E5708005206101213748FEF7C6FF4C
:101FC000002828D02AE047490868401E08601428E5
:101FD00008DA0A6006E03B4908683C3808603C289B
:101FE00000DA0D60404826700760CFE73D49086879
:101FF0000A38086014280ADA0A6008E031484B21E0
:102000000268C900511A01603C2900DA05603648AF
:1020100026700760CCE7A079002809D02079012834
:1020200039D101211C48FEF791FF012807D024E097
:102030006169009800F03AFF60612671F1E7FF20C6
:1020400061698005814215DA15480179002903D0BC
:10205000012080071E490CE0C178491CC9B2C1703B
:10206000022902D9C570164806701F480F4907603B
:102070000D4808602571A57165610D4861690918F1
:102080000C48814207D2A079002804D101201049D0
:1020900080070860A671F8BD000400481C000020FD
:1020A000740000208C000020CDCCCC3D140000201A
:1020B000FFFF3FC0FFFF7F00740100200040D644B7
:1020C0005E000020980000209400002058010020AD
:1020D000180000200000C0407F510100CCCC0CC093
:1020E00032331300800000205000002010B53C2245
:1020F000FF21002000F088FD10BD10B500213C221A
:10210000084600F081FD10BD70B50122294DD403B1
:1021100021462846FEF71FFF012251032846FEF7FD
:102120001AFF012211032846FEF715FFFF20F530A4
:1021300000F0A6FE002221462846FEF70CFF0A20EA
:1021400000F09EFE002000F00BFE012000F0C6FD16
:10215000032000F0C3FD042000F0C0FD052000F0C6
:10216000BDFD082000F0BAFD182000F0B7FD2920C1
:1021700000F0B4FD802000F0B1FD402000F0AEFD85
:10218000E32000F0ABFD012221462846FEF7E3FEE6
:1021900004210948FFF7C6FD07495F2009688863E5
:1021A000FFF7A4FF7D20C000FEF740FDFFF7A5FF6D
:1021B00070BD000000040048A400002010B50848CD
:1021C0000188491C01804188491C41808188491C43
:1021D0008180C188491CC18000F084FA10BD0000D4
:1021E00068000020F0B587B014216846FEF780F83B
:1021F00021484269012189050A43426142690A4036
:102200000592426949110A43426142690A400592B6
:10221000426949000A434261406909270840FF06B4
:102220000590002208213846FEF795FE0B2636035E
:10223000012231461148FEF78EFE08200090022050
:102240000124002502900194694603953846FEF763
:10225000ABFD0B4800906946019502940748FEF7D4
:10226000A3FD03200390019469460096029403485D
:10227000FEF79AFD07B0F0BD0010024000040048D0
:102280000704000010B592B000240F941C2168468A
:102290001094FEF72DF8202107A8FEF729F826480C
:1022A000244901600B218460416004614461C721BD
:1022B0008461C160FFF7EDFC002801D0FEF7E2FB6E
:1022C0000F940FA91C481094FFF782F9002801D041
:1022D000FEF7D8FB602005940194009002940394CB
:1022E00004940022694606941348FFF76AFC00280C
:1022F00001D0FEF7C7FB042269460F48FFF761FCD7
:10230000002801D0FEF7BEFB01200794400309948A
:102310000C9008940A940B9407A90E940648FFF7B2
:1023200027F9002801D0FEF7ADFB0348FFF720FC9A
:1023300012B010BD002C0140A400002010B58AB0DE
:102340000024049405940694079408942148099461
:102350000094019402941E49039401602F2184602B
:10236000416004611C498461C160FFF75FF9002886
:1023700001D0FEF787FB01200003049004A9154853
:10238000FFF7AEF9002801D0FEF77CFB1148FFF7FC
:10239000B6FA002801D0FEF775FB089408A90D488D
:1023A0000994FFF715F9002801D0FEF76BFB012017
:1023B0000190009402940022694603940548FFF7B7
:1023C0000BFA002801D0FEF75DFB0AB010BD00003B
:1023D00000040040EC000020FFFF0000F1B525489C
:1023E000254E41783468012905D0002060632349D7
:1023F000FDF78BFFF8BD2249204D0968214F0835B4
:10240000002934D0204A1278002A03D01F4A1268CB
:10241000002A2CD00079002817D02846FDF76AFF43
:1024200006464000000E09D03946009800F084FDB1
:10243000314600F0D9FD2946FDF767FF2846FDF734
:1024400059FFFEF71AF86063F8BD11480B4B00887E
:10245000103B84B288B20F4A214600F03FF828466C
:10246000FDF748FFFEF709F831684863F8BD012120
:102470000171D2E774000020A40000207401002044
:102480007C0000200000C040A0000020940000203C
:10249000840000208001002010B500210148FFF7D2
:1024A00041FC10BDA4000020FEE7000010B5074964
:1024B0000748FDF72AFF05490648091DFDF725FFD6
:1024C000024905480831FDF720FF10BD80010020BA
:1024D000FAEDEB3A4260E53B6F12033BFEB51C465A
:1024E0001546401AFEF705F82146FDF70EFF014696
:1024F0002D48814202DD2146FDF707FF2046FDF70A
:10250000F9FE01462948814202D92146FDF7FDFE28
:10251000204610300746FDF7EDFE06462046FDF743
:10252000E9FE3146009000F0C1FC3946FDF7EDFEB2
:102530000190204608300746FDF7DCFE0146009872
:1025400000F05EFD211DFDF7E0FE064639460098CD
:10255000FDF7DBFE28460830FDF7CCFE314600F0E3
:10256000EBFC0746281DFDF7C5FE019900F0E4FCD1
:1025700006462846FDF7BEFE009900F0DDFC314618
:1025800000F094FC394600F091FC214618310C46CD
:10259000FDF7BBFE01467F20C005814202DA2146DD
:1025A000FDF7B3FEFEBD000000000C430000B4C206
:1025B000F8B50C211248FEF7DFFA114A114D1078D8
:1025C000114E0123114F124CAA2802D15078C22873
:1025D00008D000F01FF890682860506830602370C1
:1025E0003B7007E090682860506830603B7020784E
:1025F000002803D000F01AF800202070F8BD000079
:102600005801002098000020800000205E0000207B
:10261000600000200448AA21017078218160142103
:102620004160C221417070475801002010B50C2153
:102630000148FEF7C3FA10BD5801002070B5094CDF
:102640000025217800290BD0616800F02FFC3F2184
:1026500009066060884202DBFFF7E8FF257070BD65
:10266000656070BD6000002070477047F8B5114983
:1026700011484A78114E0068114D124C002A10D0B2
:10268000C978114F01290ED002290ED0FEF7DEF8CD
:1026900038683B3001462060288800B2FEF71AF9FE
:1026A000F8BD286003E02860F2E7FEF7CFF8306855
:1026B000F0E7000074000020800000209800002057
:1026C000900000209C0000209400002010B5FEF730
:1026D0004FFC03480078002801D0FFF76FFD10BDC4
:1026E0007400002070B51B4C002520880A2807D3F1
:1026F000194E3046FFF76EFB3046FDF7EDFF2580A3
:10270000608832280AD3154E3046FDF7BDFF3046AB
:10271000FFF764FE3046FEF789F86580A0886428DC
:102720000DD30F4E3046FDF723FF3046FDF768FF0F
:102730003046FEF721F83046FFF780FFA580E0889D
:10274000FF21F531884204D33F200006FDF7B2FF98
:10275000E58070BD680000200AD7233CCDCC4C3DFD
:10276000CDCCCC3D30B591B030216846FDF7C0FDF1
:1027700000240120009001900E94000409900F9411
:1027800000010D9402250A900C9408950B9468465C
:10279000FEF710FD002801D072B6FEE707200C906E
:1027A0000E9401210D950F940CA8FEF73FFC002814
:1027B00001D072B6FEE711B030BD704710B5094CBC
:1027C00000202070FFF768FEFFF79EFCFEF752F92D
:1027D000FFF76CFEFFF7ECFE044903480860012098
:1027E000207010BD74000020CDCCCC3D1400002022
:1027F00010B50248FFF70AF910BD0000A400002040
:1028000010B50248FFF702F910BD0000A400002037
:1028100070B50F480068456B0E4C6560A068854236
:1028200001D9281A02E00C49081A401920606428CE
:102830000DD381000948FDF770FD1E21FDF76DFDE8
:102840000749A560E060086006490020086070BD87
:10285000EC00002034000020FFFF000000879303FD
:10286000840000208800002010B50248FFF7CEF851
:1028700010BD0000EC000020F0B502681A4B1B4CA4
:10288000984201D0A04203D17025AA434D682A4343
:10289000174D184E184F98420AD0A04208D0174C36
:1028A000A04205D0A84203D0B04201D0B84205D121
:1028B0001446032212029443CA6822438024A2438E
:1028C0004C69224302608A68C2620A688262984246
:1028D00005D0A84203D0B04201D0B84201D1096965
:1028E000016301214161F0BD002C01400004004062
:1028F00000400140004401400048014000200040E9
:1029000010B5CB06DB0E0121046A99408C430462AA
:10291000016A9A401143016210BD30B58468FF25F9
:102920002D021B021343AC430B432343836030BD92
:10293000826870239A430A4307210A4382607047E2
:10294000F0B5026A520852000262056A4368826961
:102950007024A24392080C6892001443022295430B
:102960008A68164E2A43144DA84207D0B04205D0BB
:10297000134FB84202D0134FB84206D10827BA43CA
:10298000CF681743042297433A46A84207D0B04283
:1029900005D00B4DA84202D00A4DA84206D103250E
:1029A0002D02AB434D691D438B692B43436084610A
:1029B000496841630262F0BD002C014000400140C3
:1029C000004401400048014070B5026A10239A4358
:1029D0000262056A4268836973242402A3430C6877
:1029E00024021C4320239D438B681B012B43124D63
:1029F000A84208D11D46CB688026B5431B012B4356
:102A00004025AB4308E00D4DA84205D00C4DA8422F
:102A100002D00C4DA84208D10325AD02AA434D694E
:102A2000AD0015438A6992002A4342608461496877
:102A30008163036270BD0000002C01400040014032
:102A4000004401400048014070B5026AFF23013391
:102A50009A430262056A4368C2697024A2439208DD
:102A60000C68920014430122520295438A681202B4
:102A70002A43124DA84208D11546CA68C614B54368
:102A800012022A430515AA4308E00D4DA84205D0BD
:102A90000C4DA84202D00C4DA84208D103252D03AD
:102AA000AB434D692D011D438B691B012B434360D3
:102AB000C4614968C163026270BD0000002C01401E
:102AC00000400140004401400048014030B5026A26
:102AD00001231B039A430262046A4268C369732597
:102AE0002D02AB430D682D021D4301235B039C4364
:102AF0008B681B0323430C4CA04208D00B4CA04214
:102B000005D00B4CA04202D00A4CA04205D10124B2
:102B1000A403A2434C69A40122434260C5614968F1
:102B20000164036230BD0000002C01400040014000
:102B3000004401400048014030B5036A046A64085B
:102B4000640004628469F025AC43120122430A2424
:102B5000A3430B438261036230BD000070B5046A79
:102B60006408640004628469056A0D4EB04205D0B1
:102B70000C4EB04202D00C4EB04202D1A408A400C8
:102B800000E001221443F02294431A07120E0A2394
:102B900022439D43194029438261016270BD0000B8
:102BA000002C0140000400400040014030B5036AA1
:102BB0001024A34303628469036A0F252D031203C3
:102BC000AC432243A024A34309011943826101625B
:102BD00030BD70B5046A1025AC4304628569046A8F
:102BE00003263602B54312022A430F252D031B0785
:102BF0001B0CAA431343A022090194431140214313
:102C00008361016270BD0000F7B5334E05460121B6
:102C10000022C9033046FEF79EF90A2000F030F981
:102C2000012000F09DF868060024070E01256D03C1
:102C3000002229463046FEF78EF90620001B394651
:102C4000C140C80701D0012200E000220121090390
:102C50003046FEF780F90A2000F012F901222946D9
:102C60003046FEF778F90A2000F00AF9641CE4B255
:102C7000062CDDD300242F4624E0019E00250022EF
:102C800039461548FEF767F90720401B3146C14019
:102C9000C80701D0012200E00022012109030E48EB
:102CA000FEF759F90A2000F0EBF8012239460A48EC
:102CB000FEF751F90A2000F0E3F86D1C082DDEDB69
:102CC000641CE4B202988442D7D30122D1030248A3
:102CD000FEF741F9FEBD000000040048F8B50024ED
:102CE00001251E4E07466D03002229463046FEF799
:102CF00032F90720001B3946C140C80701D0012224
:102D000000E00022012109033046FEF724F90A20E1
:102D100000F0B6F8012229463046FEF71CF90A20D9
:102D200000F0AEF8641CE4B2082CDDD30022294682
:102D30003046FEF710F90A2000F0A2F80121002227
:102D400009033046FEF707F9012229463046FEF70F
:102D500002F90A2000F094F8F8BD000000040048D1
:102D6000F8B507460A2000F08BF80125264E6D03C2
:102D7000002229463046FEF7EEF80A2000F080F8DF
:102D80000122140321463046FEF7E5F801222946C8
:102D90003046FEF7E0F80A2000F072F800222946DB
:102DA0003046FEF7D8F80A2000F06AF800222146E3
:102DB0003046FEF7D0F80A2000F062F801222946DA
:102DC0003046FEF7C8F80A2000F05AF800222946DB
:102DD0003046FEF7C0F80A2000F052F8002F10D05D
:102DE000012221463046FEF7B6F80A2000F048F8E6
:102DF000012229463046FEF7AEF80A2000F040F8DE
:102E0000F8BD0022EDE7000000040048F8B5040C0E
:102E10008BB2264682B25E430D0C1046370C5843E7
:102E2000360480190021794116466E43370C36046A
:102E30008019794126466E438919F8BD8307FF2220
:102E4000DB0E9A408907090E9940002808DB8308A9
:102E500009489B001B181868904308431860704786
:102E60000007000F0838830804489B001B18D86926
:102E700090430843D861704700E400E000ED00E0B3
:102E80006420401E0006000EFBD17047FEF778F864
:102E9000FFF768FCFFF7A6F9FFF7F4F9FFF74EFA22
:102EA000FFF78CFCFFF7E2FBFCE7000070B50125A3
:102EB0000400ED074C4020D4441A01D2001B09192C
:102EC000C60D4B00F2B2FF2A29D01B0E2CD00002F7
:102ED0000C02D31A2C43DC402843051910D2280ACF
:102EE00002D3401C6D0611D0761EF6058019FF2A0C
:102EF00000DA70BDC00DC00570BD694000F086F8F5
:102F000001200543C541521C761CE8E764089C403B
:102F1000C90161408900E7D10124A043E4E71B0E09
:102F2000440200D0034870BD002AFCD1C00FC00786
:102F300070BD00BF0000C07F70B5420064414B000F
:102F40005C41120E39D01B0E38D0FF2A3CD0FF2B2B
:102F50003AD040024902400A490A060045184E4349
:102F6000000A090AD2184843ED017F3A0104731A96
:102F70004019190C4318990F04D001215B08490727
:102F80005B1A521CD80904D3401CF50301D19D06DD
:102F900007D0FF2A08D2D50506D0E4072043401900
:102FA00070BD0125A843F4E7002A01DCE00770BDED
:102FB0002402FF202043C00570BD1B0EFF2A03D052
:102FC000FF2B01D0E00770BDFF2645003606B54255
:102FD00006D84D00B54203D8D218FF2A00D0E7E743
:102FE000004870BD0000C07F70B50125ED07684046
:102FF00004004C4002D5694000F008F8FFF75CFF80
:1030000070B501250400ED074C4022D4441A02D2C9
:103010006C40001B0919C60D4B00F2B2FF2A4BD0C1
:103020001B0E50D000020C02D31A2C43DC40A843E4
:10303000051B05D5AD0019D36D08761E521E37D07D
:10304000F605280A01D2801970BD70416D0603D0C3
:1030500070BD6940FFF730FF9C40090261404900A4
:1030600001D0401E70BD0124A04370BD6D081DD06D
:1030700001202B0C01D12D0410302B0E01D12D027B
:1030800008302B0F01D12D01001DAB0F01D1AD0078
:10309000801CEB0F01D16D00401C6D00361A121A16
:1030A000680AF5054019012A02DB70BD002070BDD9
:1030B000C036300AC00770BD1B0E440201D1FF2B81
:1030C00000D1024870BD002AF0D070BD0000C07F62
:1030D00000000000000000000102030406070809C8
:1030E0000031000800000020A4000000F8000008E3
:1030F000A4310008A40000204C07000014010008BF
:1031000001000000040000000000000000127A002E
:1031100000000000000000000000000000000000AF
:10312000000000000000000000000000000000009F
:10313000000000000000000000000000000000008F
:10314000000000000000000000000000000000007F
:103150000000000077245D6D2E6B7B257F6F0000E3
:10316000000000000000000000000000000000005F
:10317000000000000000000000000000000000004F
:10318000000000000000000000000000000000003F
:10319000000000000000000000000000000000002F
:0431A000000000002B
:04000005080000B53A
:00000001FF
