:020000040800F2
:1000000070080020590100082D3300087B290008E2
:1000100000000000000000000000000000000000E0
:10002000000000000000000000000000D3340008C1
:100030000000000000000000D13400080135000875
:100040006B010008000000006B0100086B01000854
:100050006B0100086B0100086B0100086B010008D0
:10006000000000006B0100086B0100086B01000834
:100070006B010008493600085936000800000000EE
:10008000293700086B010008000000006B01000820
:100090006B0100086B0100086B0100086B01000890
:1000A0006B0100086B0100086B0100086B01000880
:1000B0006B01000800F002F800F03EF80CA030C818
:1000C000083824182D18A246671EAB4654465D46D4
:1000D000AC4201D100F030F87E460F3E0FCCB64660
:1000E0000126334200D0FB1AA246AB4633431847E1
:1000F000C83F0000E83F0000103A02D378C878C13A
:10010000FAD8520701D330C830C101D504680C6059
:10011000704700000023002400250026103A01D378
:1001200078C1FBD8520700D330C100D50B607047AF
:100130001FB51FBD10B510BD00F0D6FD1146FFF76D
:10014000F7FF03F0FFFD00F0EEFD03B4FFF7F2FF51
:1001500003BC00F023FE0000074880470748004723
:10016000FEE7FEE7FEE7FEE7FEE7FEE70448054997
:10017000054A064B7047000013360008B50000081A
:10018000700200207008002070040020700400201D
:1001900010B5202A04DB0846203AD040002110BDCB
:1001A0000B462024D340D040A21A91400843194660
:1001B00010BDFEB5054610460C46184373D0AE463A
:1001C0008C460020AD1A01469C4167D36646002745
:1001D00001243D46B61A9D4102D313463A462124D6
:1001E000654676462F04360C3E432D0CB61A9D41CB
:1001F00004D3150C1B042B431204103465467646B9
:100200002F06360A3E432D0AB61A9D4104D3150E19
:100210001B022B4312020834654676462F07360927
:100220003E432D09B61A9D4104D3150F1B012B43E4
:100230001201241D65467646AF07B6083E43AD0859
:10024000B61A9D4104D3950F9B002B439200A41C2A
:1002500065467646EF0776083E436D08B61A9D411F
:100260001AD392185B41641C16E000187646654666
:100270004941B71A9D410191009009D36046B11AD6
:1002800098418E468446009801990025401C69419A
:10029000DD0752082A435B08641EE6D572466346B2
:1002A00003B0F0BDFFE700200146C046C0462A4625
:1002B0002346F5E701E004C0091F0429FBD28B07A0
:1002C00001D50280801CC90700D002707047002948
:1002D0000BD0C30702D00270401C491E022904D370
:1002E000830702D50280801C891EE3E70022EEE727
:1002F0000022DFE7002203098B422CD3030A8B4242
:1003000011D300239C464EE003460B433CD400220D
:1003100043088B4231D303098B421CD3030A8B421F
:1003200001D394463FE0C3098B4201D3CB01C01AED
:10033000524183098B4201D38B01C01A52414309B8
:100340008B4201D34B01C01A524103098B4201D3A6
:100350000B01C01A5241C3088B4201D3CB00C01A13
:10036000524183088B4201D38B00C01A524143088B
:100370008B4201D34B00C01A5241411A00D20146B0
:100380005241104670475DE0CA0F00D04942031049
:1003900000D34042534000229C4603098B422DD398
:1003A000030A8B4212D3FC22890112BA030A8B4240
:1003B0000CD3890192118B4208D3890192118B428F
:1003C00004D389013AD0921100E08909C3098B4214
:1003D00001D3CB01C01A524183098B4201D38B0157
:1003E000C01A524143098B4201D34B01C01A5241FA
:1003F00003098B4201D30B01C01A5241C3088B423F
:1004000001D3CB00C01A524183088B4201D38B0029
:10041000C01A5241D9D243088B4201D34B00C01AB3
:100420005241411A00D20146634652415B101046C8
:1004300001D34042002B00D54942704763465B1010
:1004400000D3404201B50020C046C04602BD7047FF
:10045000704770470246C80FC00781434B0030B554
:100460004B405B009B0D20D01923DB06C9180123EC
:100470001B05994220DB0324A40704251346AB4047
:100480000BD3002B04D1EB0613409B00E34204D4B2
:1004900001246407002312195941FF231B059942C7
:1004A0000BD2C9000143500F09E0CB0204D5014330
:1004B0000803024305D0054830BDFF21C9050843A4
:1004C00030BD084607210905884330BD0000C07FC4
:1004D000F0B5F94D0C091E092C402E402F468BB06B
:1004E000A7437DD0B543FCD0002E7AD0002CFCD0A1
:1004F0000D465D40ED0F2543AC1BFF25AD0464198F
:100500000894C502440DC9022143500DDC02044386
:100510000120C00701430443D2020191200C110CB9
:1005200000958C46010423468B430A9161460904D9
:10053000E24D8A430991010A7D44491980390978BD
:1005400005464D4301266D18F605751B6943C90C18
:10055000640B891C4C436418B5012C1B250C2E041C
:10056000B4434C434D43210C691889090591009D02
:10057000E90701D00121C90704912C4601996708B8
:10058000CD072F434C08059DE10B4D432D0C29460B
:100590006646754302950D4645432E46029D7D1BDA
:1005A000B44100950D465D4301942C0C2F040D467B
:1005B0005543AE462D0C3D43029503947546049C6D
:1005C0002D04641B049406D2029C039D641C002627
:1005D00075410395029401AC70CC009F7D1B01E036
:1005E0003EE162E1B4410904009507910194059947
:1005F000A4086143090C0C464443650BE7040C4610
:1006000066467443A646640B3C43039502947446C5
:10061000049DE4042C1B049406D2029C039D641CDC
:10062000002675410395029401AC70CC009F7D1BA0
:10063000B44101940C465C430095650FE7000C46FD
:100640005443A646640F3C43039502947446049DAC
:10065000E4002C1B049406D2029C039D641C00261B
:1006600075410395029401AC70CC009F7D1BB44191
:10067000AE09AF06049DC900AD092F43049DA40631
:10068000AD060495079D344369180791059DE10B5C
:100690004D432D0C29466646754302950D4645434C
:1006A0002E46029D7D1BB44100950D465D4301948D
:1006B0002C0C2F040D465543AE462D0C3D430295A0
:1006C00003947546049C2D04641B049406D2029C7A
:1006D000039D641C002675410395029401AC70CC07
:1006E000009F7D1BB44101948C050694079C890AE8
:1006F000611800950791019C0599A4086143090CB4
:100700000D464543680BEF040D46644665436C0B8C
:100710003C43049FED047D1BAC4602D20025641CC3
:100720006841009E019D371B85410846584301954D
:100730000C46460FC5005443600F28436546E4004D
:100740002C1B02D20025401C6E41019D3F1AB54171
:100750002846BD09800628438446A009BF064E02EC
:100760000699A40676180743079D002068410A9958
:10077000079019430020099B00906046FF1913431E
:100780004041E20F64003A43A4460446D71A8C4124
:10079000A04203D90120009020463A46C70F941882
:1007A00040416246D20F2243644664000494009C98
:1007B000BE466400D71AA446044602978C41774689
:1007C000002F01D1A04204D96046401C8446029A01
:1007D0002046C40FA64694184041049A0546D20FFD
:1007E000224364466400D31A8D417146002901D129
:1007F000A84202D928461A46641C10430122002848
:1008000000D0164361020020079B891904465C4111
:100810000223002C02DB491813466441089DCE0ACE
:100820002D145D194B056705E10A2C050D19089972
:100830003E43C9076940002B08D0934006D30022ED
:10084000761C5141002B01D1760876001C4A002D00
:1008500043DB154241D0AA433FD030460BB0F0BD38
:1008600006180D464D41174C7642AC411AD39518E7
:100870001C465C41134A6D42A24113D3012252052A
:100880004C00D4420AD15C00D4420BD04B4002D57C
:1008900092021143E2E749004908DFE75940C90FD6
:1008A000C90718E000200849D8E7054801420DD1E2
:1008B0000342F7D0F2E700000000FF07BC3A000057
:1008C0000000F07F0000E0FF0000F87F1148594071
:1008D0000143C01241400020C0E70123089A9B0653
:1008E0009A4205DC032252078918C90FC907B5E7E8
:1008F000052252078918074A1143D2125140ADE729
:1009000070B515461C4602460B4628462146FFF7A1
:10091000DFFD70BDFFFFFF7F1F22030C02D10F22FE
:10092000000402D0030E03D004E00020014670470B
:100930000002083A030F01D10001121F830F01D1F9
:100940008000921E002801DB4000521E1205511843
:100950004205C012411810467047C10FC90700D0A8
:100960004042012292071143D6E701218907D3E7CC
:100970000121C9050123411842001B06D3185B0E53
:100980000AD0C1100722D206891840075242D1422C
:1009900001D5520089187047090208D50146002A7E
:1009A00003D0C10FC90700207047104670474202AC
:1009B00002D0002002497047072109050143F4E7EE
:1009C0000000F87FF0B5FF252D04C609C209FF27F6
:1009D00004462E400137CB093E4348402A402B4075
:1009E0000746002A6BD0002B69D0AA4267D0AB42E1
:1009F00065D0002800DA32460125ED0529432C4355
:100A000009022002090AD21A4B0C7F24E31A434C34
:100A1000000A7C44E35C7D242404121914145B0056
:100A2000A218884201D3521C00E0400049420C4603
:100A30005C4324115C43DB016415E318040A5C4346
:100A4000C502200D0C4644436419250A5D43230367
:100A5000EC0C0D46654300030019EB184C42A34211
:100A600001D35B18401CD4052018002B07D05B0075
:100A7000C91804D3401C002901D1400840003F217F
:100A800089048A4209D3002A08DC1106090F04D020
:100A9000032149074018C00FC007F0BD01224100E3
:100AA000120689187F2252069142F6D20521490783
:100AB000C84201D59010F0BDFF20C005F0BD002F49
:100AC00000DA32461648AA4207D2AB4205D21902D2
:100AD000090E17D0F80FC007F0BDFF2563002D06E3
:100AE000AB42F9D84900A942F6D8AB4201D1A9429C
:100AF000F2D0A94201D1002101E061004908D005EE
:100B00000843F0BD1102090EFBD0FF200243D005BF
:100B1000F0BD0A460146104654E700006236000068
:100B20000000C07F10B501469E240002CA15A3072D
:100B3000002A02D01843002A04DBA21A002A0CDD86
:100B4000D04010BD1206120E01D140004008A21A7A
:100B500003D4D04040420028F3DDFF2248001206B3
:100B6000904201D9002010BDC817C043584010BDA5
:100B70000102C21504D00123DB071943002A0ADB56
:100B80009E239A1A02D40846D0407047FF224100A3
:100B90001206914201D900207047C017C043704728
:100BA0001F22030C02D10F2200041CD0030E01D11E
:100BB0000002083A030F01D10001121F830F01D177
:100BC0008000921E002801DB4000521ED205511801
:100BD000021251181922904004D3491C002801D157
:100BE0004908490008467047C10FC90700D0404274
:100BF000012292071143D3E701218907D0E70000C2
:100C000010B5FF22C30D134009D05A4007D09142BE
:100C100005DA5C42A14202DDC905081810BDC40F07
:100C2000E407002B06D0002A06D0002902DBFF20B3
:100C3000C0050443204610BD4102FCD0004810BD51
:100C40000000C07F10B5FF231B0644009C421DD846
:100C50004C009C421AD80346124A0B4307D4401A50
:100C600002D3EFF3008010BDEFF3008010BD081A2F
:100C700006D2EFF3008001219043C907084302E048
:100C8000EFF30080904380F3008810BD0D231B0418
:100C90001A4204D01146002000F006F810BD00F002
:100CA0001BF810BD00000090C80212D54803400F89
:100CB000002804D0C803C043012188407047EFF3E7
:100CC00000800001000903210907084380F3008820
:100CD000704700207047000010B5024800F02BF864
:100CE00010BD00000000C07F754600F053F8AE460E
:100CF000050069465346C008C000854618B020B5B7
:100D0000FFF734FA60BC00274908B6460026C0C584
:100D1000C0C5C0C5C0C5C0C5C0C5C0C5C0C5403DB3
:100D200049008D46704710B50446C046C04620466F
:100D3000FFF70BFA10BD10B50C461107090F092972
:100D400004D00A290AD008290CD104E01146082051
:100D5000FFF7AAFF06E0510606D501E0510601D5CE
:100D60000120C007214610BDD10607D501010909A0
:100D7000CC084907000E0006044309E0410F200299
:100D80004907000A0143200E00061D22D1410143FC
:100D90000846E7E700487047100200200149182084
:100DA000ABBEFEE7260002007047FFB585B00846DF
:100DB0001E460F9F0E9C079903F0AEF8E06000906E
:100DC00032680146104603F017F8206005983D464A
:100DD0004000010E0120C007454000291BD07F20A4
:100DE000C0050599FFF7EEFD0290216A079803F010
:100DF00093F8029903F000F801460122B068D20787
:100E0000504002F0F9FFA0612846009903F04CF829
:100E100003D2284609E00020E6E73946E06803F0FF
:100E200043F801D2384600E0E068716802F0E4FF60
:100E3000059902F0E1FF616802F098FFFF21C90502
:100E40006060C84201D3002106E0109903F02CF83D
:100E500001D2109900E061686160206802F086FFAD
:100E6000A16902F083FF60620798206209B0F0BDBB
:100E7000F1B51F4C0121C90560680E131D4F884252
:100E800004DAA2688A4201DA002219E04000000E6A
:100E900009D001223146384600F057FD61680098BC
:100EA00003F02EF86060A5686800000E0CD0216881
:100EB000009802F05BFF10492060884205DA0122A9
:100EC0003146384600F041FDF8BD0B490B4A494216
:100ED00041189142D8D30A498842F5DB7F21C905E0
:100EE000284603F019F8A06000202060F8BD00003B
:100EF0001000002000040048CDCC4C3ECDCC4C006E
:100F00009A99993EF8B51149497800291DD0104F9A
:100F1000F97B032919D10F4D6C68002C15D00E4EAA
:100F2000316802F023FF7F21C905306088420CDB65
:100F3000641E6C6007D10220F8730448012101711E
:100F400007490648086000203060F8BDA000002076
:100F5000F401002004020020980000200000A040BE
:100F60001800002070B50E4E0E4C71790025002936
:100F700014D0216902F0FAFE3F210906206188425F
:100F800003DBA078C043A070256109204021C00682
:100F900000F0D6FC012800D1757170BDA57070BD40
:100FA000A00000203C00002070B50F4D00262979DC
:100FB0000E4C002915D00E4A0221515EFF225532F7
:100FC00091420EDC216802F0D1FE012189072060E8
:100FD000884207DD074901200870074908706E70D4
:100FE0002E71266070BD0000A0000020940000203B
:100FF000F4010020380000208400002070B5074C68
:1010000005462078002807D0FFF7F6FD294602F0B4
:1010100083FFFFF7ADFD207070BD00001C000020B5
:1010200030B5154801240078144A002801D0147006
:1010300002E0107801281BD11148C078002817D190
:10104000104806250021455F415E0F4B8D4204D0BC
:10105000C180807B00280CD0D9600C4822C8083899
:101060008D4201D041605960094804700020107021
:1010700030BD9960F1E700001C00002084000020D2
:10108000A0000020F4010020AC0100200402002098
:101090007C000020F8B51B4F1B4CFE780025002E6D
:1010A0000BD0616900914900090E03D017490978F6
:1010B000002906D06570257021E065702570656196
:1010C000F8BDA16802F052FE3F210906A0608842E7
:1010D000F6DB009802F020FF6061012E02D0022EA4
:1010E00005D008E06178C9436170257003E021787C
:1010F000C943217065704000000E00D1FD70A560ED
:10110000F8BD0000A00000203C0000201C000020D2
:1011100005488188491C09B281800A2902DB002127
:101120004180818070470000F401002070B50F4CB1
:10113000092620780025F60601280DD0002220215E
:10114000304600F002FC4021304600F0F9FB012857
:1011500009D00120607070BD01222021304600F0CE
:10116000F4FB2570EFE7657070BD000038000020CB
:10117000F8B53248324C4078012802D020882081CE
:10118000F8BD2F4AA17B02202E4F105E00290FD000
:10119000FFF72AFD2C49FFF715FC05462B4902F005
:1011A0002BFE294602F028FE294902F025FE01E027
:1011B000FFF71AFDB8610F20205600280ED01F49F6
:1011C00006250E791E4908244D5F0C5F01280CD0BE
:1011D00002281DD00328D3D10D81F8BD0020208125
:1011E0006081A0810120E073F8BDB869FFF79AFC27
:1011F00001B21348A142418102DD8C4201DA641C34
:101200000481002EF0D10821415EA94212DAF8BD16
:10121000B869FFF787FC01B20948A142418102DAAF
:101220008C4201DD641E0481002EF0D10821415E54
:10123000A942ECDC0321C173F8BD0000A00000202E
:10124000F40100203C00002000007A4448E13241D3
:101250009A991941F3B500258DB007460395079576
:101260007C4804950295089540782E462C46002827
:1012700034D1794EB74207DD711C3846FFF744F888
:10128000744980B21C310D5C632F0EDD6421384639
:10129000FFF73AF880B2B74203DD0A21FFF72AF8D8
:1012A00008466C491C31085C0390092F0EDD0A21A9
:1012B0003846FFF729F880B2632F03DD0A21FFF7D4
:1012C00019F8084663491C31085C07900A21384622
:1012D000FFF71AF888B25F491C310E5CE121090161
:1012E0000E98FFF711F808460F464B21C900FFF78B
:1012F0000BF8C0B20A9038463C21FFF705F80A21E6
:10130000FFF702F8C8B20B903C210E98FEF7FCFFE5
:101310000F4638460A21FEF7F7FFC0B20090384664
:101320000A21FEF7F1FFC8B201904A480078002870
:101330001BD14A480068002812DD464F0A981C3726
:101340003C5C0B980A21385C04900098FEF7D2FFB1
:10135000785C02900A210198FEF7CCFF785C03E0EC
:10136000082404942046029408903A4A8020117977
:10137000002947D07606760E6406640ED1780029DF
:1013800004994BD04906490E049102994906490E29
:101390004906490E0143029131490978002946D096
:1013A000917800294DD003986D066D0E47067F0E8B
:1013B00001222946002002F091FB01223946022039
:1013C00002F08CFB01220420079902F087FB012226
:1013D0003146062002F082FB01222146082002F05D
:1013E0007DFB01220A20049902F078FB01220C20E7
:1013F000029902F073FB01220E20089902F06EFBA5
:101400000FB0F0BD1749897B002903D06406640E34
:101410000443B3E77606760E0643AFE74906490E66
:101420000143049102994906490E0143B0E703992B
:101430004F0607997F0E49060743490E014307915E
:10144000B6E76D0603996D0E4F0605437F0E074301
:10145000AEE700003C000020E7030000040200208B
:1014600039000020F401002010B50021014800F0EF
:10147000C5FF10BDA800002072B6FEE70649002097
:10148000C8610648016904221143016101694022D3
:1014900011430161704700008001002000200240DC
:1014A000064A0021D16106490A6902231A430A61EA
:1014B000486108694022104308617047800100209C
:1014C0000020024010B5054B0022DA61044A13697E
:1014D000012423431361018010BD0000800100201E
:1014E0000020024010B50B4A0020D168CB060A4903
:1014F00004D5C86902231843C8611020D3685B076C
:1015000005D5CB6901242343CB6104210843D06076
:1015100010BD0000002002408001002070B505468B
:1015200000F01AFA0646104C0AE0681C08D0002D9C
:1015300004D000F011FA801BA84201D9032070BD2D
:10154000E068C007F1D1E068800601D52020E060A6
:10155000E068C00602D4E068400703D5FFF7C2FF89
:10156000012070BD002070BD0020024078B500222F
:101570000E4B4C1E15E0551CA5420ADCD5182E88D2
:101580006D462E802D7885546D466D788618757061
:1015900005E0D5182E886D462E802D788554921C36
:1015A00092B28A42E7D3012078BD000000700008A3
:1015B000F3B585B00D4600F0DDF800200121174F8E
:1015C0000190039100900297694601A800F03AF853
:1015D000002818D100246E1E1AE0601CB042059845
:1015E00005DC0019407801020598005D02E0015D0C
:1015F000FF200002081882B20023E119012000F048
:101600007BF8002802D0002007B0F0BDA41CA4B2D3
:10161000AC42E2D300F066F80120F5E70070000864
:1016200070B5044600F098F90546601C02D00448E5
:101630000078241800F090F9401BA042FAD370BD46
:1016400000000020F8B5054623480F46017E01261C
:1016500001290BD0012101762868204C012807D0F0
:101660002046FFF75BFF002813D030E00220F8BDD2
:101670002046FFF753FF002829D1FFF7FFFE204641
:10168000FFF74CFF064616480169042291430161A9
:101690001DE00020C04338606C6812E02046FFF770
:1016A000FFFE0E48FFF73AFF06460D480269022189
:1016B0008A430261002E01D03C6008E001208002D4
:1016C0002418A868810268680818A042E6D8024871
:1016D000002101763046F8BD8001002050C3000093
:1016E000002002400348016980221143016100206B
:1016F0007047000000200240F0B51FB407461A48AA
:101700000024017E15461E46012907D001210176DD
:101710001648FFF703FF002803D020E0022005B0A1
:10172000F0BD012F02D0022F00D00427220128464D
:101730003146FEF72DFD81B2019862001018FFF7C7
:10174000C1FE0A48FFF7EAFE09490A695208520039
:101750000A61002803D1641CE4B2BC42E6D302490A
:1017600000220A76DBE700008001002050C3000061
:1017700000200240064900200A69120607D5054AE2
:101780004A60054A4A600969090600D50120704788
:101790000020024023016745AB89EFCDF8B5002357
:1017A00003240125BAE02E469E40B44632407CD048
:1017B0000E79B607B60F012E01D0022E17D186681A
:1017C0002746B6465E00B74000967646BE43B6460C
:1017D000CF68009EB74076463743876046686746C5
:1017E000BE430F79FF06FF0F9F40374347600E79D6
:1017F000F643B6070ED0C6682746B4465E00B64626
:10180000B7406646BE43B4468F687646B7406646E4
:101810003743C7600E79B607B60F022E14D1DE0823
:10182000B60036180096366A5F07B446FE0E0F27DC
:10183000B646B7406646BE43B4460F697646B740E3
:1018400066463743009E376206682746B4465E0008
:10185000B646B7406646BE430F79B446BF07BF0FD2
:101860007646B7406646374307604E68B603B60F04
:1018700053D02D4FBE692E43BE61BE699F08F60747
:10188000F60F2A4EBF00BE190096B6680F27B44661
:101890009E07360FB646B7406646BE430927FF0689
:1018A000B446B84202D1002710E036E0204FB842DB
:1018B00001D101270AE01F4FB84201D1022705E0FC
:1018C0001D4FB84201D1032700E005277646B740F7
:1018D00066463743009EB760184E36684F68964399
:1018E000FF0300D51643154F3E607E684F68964350
:1018F000BF0300D51643114F7E60BE684F68964304
:10190000FF0200D516430D4FBE60FE684F68964338
:10191000BF0200D51643094AD6605B1C0A6816460A
:10192000DE4000D03FE7F8BD00100240000001405B
:101930000004004800080048000C00480004014072
:101940000069084000D001207047002A01D0816161
:10195000704781627047000001488068704700004E
:101960000000002002488168027889188160704771
:101970000000002010B506480168102211430160E4
:10198000032000F007F800F027F8002010BD000049
:101990000020024070B504460D4D7D202978C0001E
:1019A000FEF7A8FC01460B480068FEF7A3FC00F018
:1019B000BFFA002809D1042C07D200222146401E7C
:1019C00000F02AF800206C6070BD012070BD00009E
:1019D000000000200C00002008B5084881690122A1
:1019E00011438161816911400091C26901040A4378
:1019F000C261C0690840009008BD000000100240AC
:101A0000002805DBC106C90E012088400149086095
:101A10007047000000E100E010B502F06BF910BD66
:101A2000F8B50F46060059D03A4D2868C007C00FD8
:101A3000B84209D228684008400038432860286826
:101A4000C007C00FB84249D13068334C81070CD56C
:101A5000400704D560680721090208436060606898
:101A6000F0218843B168084360603078C00726D011
:101A7000706801280ED0216802280ED0890700293D
:101A80002CDA61688908890001436160FFF764FF0F
:101A900000900DE021688903F1E78901EFE7FFF786
:101AA0005BFF0099411A1D48814201D90320F8BD0E
:101AB00060680C210840716889008842EFD128686D
:101AC000C007C00FB8420BD928684008400038430F
:101AD00028602868C007C00FB84201D00120F8BDB7
:101AE0003078400706D56068072109028843F1680D
:101AF0000843606000F018F86168094A0906090F98
:101B0000515CC840074908600320FFF743FF0020ED
:101B1000F8BD0000002002400010024088130000C1
:101B2000E83F00080C00002010B514A30FCB88B0CC
:101B30006C460FC415A30FCB0FC4184A51680C2074
:101B40000B4603401648042B16D0082B14D18B02E9
:101B50001B0F6C46E45CD26A04AB1207120F9A5C4E
:101B6000C90305D500231946FEF723FB214601E0F2
:101B700020460C4902F0A6F808B010BD0203040587
:101B8000060708090A0B0C0D0E0F101001020304C2
:101B900005060708090A0B0C0D0E0F100010024075
:101BA00000127A0000093D00FEB5040070D02078D4
:101BB000DC4DC0074AD068680007800F012807D0B5
:101BC00068680007800F022809D16868C00306D53D
:101BD000286880033AD560680028E7D036E061685D
:101BE000012914D001208004002901D0052914D036
:101BF0002A68012109048A432A60296881432960EF
:101C00006068002816D0FFF7A7FE06460EE0286899
:101C10000121090408432860F2E72968014329608B
:101C2000F5E7FFF799FE801B64286ED828688003CB
:101C3000F7D50BE0FFF790FE064604E0FFF78CFEB9
:101C4000801B6428F1D828688003F7D42078012607
:101C5000800700283CDA68680007800F07D06868B2
:101C60000007800F022809D16868C00306D42868DD
:101C7000800716D5E06801280AD112E0E068002844
:101C8000286816D030432860FFF766FE074605E057
:101C900043E1FFF761FEC01B0228C6D82868800711
:101CA000F7D52868F82188432169C90008432860CE
:101CB0000EE0400840002860FFF74EFE074604E0B3
:101CC000FFF74AFEC01B0228AFD828688007F7D468
:101CD0002078000722D5E0690028686A0ED03043DA
:101CE0006862FFF739FE074604E0FFF735FEC01BC8
:101CF00002289AD8686A8007F7D50FE040084000AC
:101D00006862FFF729FE074605E09DE0FFF724FE25
:101D1000C01B022889D8686A8007F7D42078042776
:101D20004007002860DA00200190E869C00008D46C
:101D3000E969B8060143E961E969014001200091C0
:101D4000019079480168C90511D4016882151143D1
:101D50000160FFF701FE009005E0FFF7FDFD00992F
:101D6000401A642870D870480068C005F5D5A0688E
:101D700001280AD0002801D0052810D0286A400880
:101D800040002862286AB84301E0286A304328628C
:101D9000A068002812D0FFF7DFFD00900AE0286A53
:101DA00038432862F1E7FFF7D7FD0099411A5F48F1
:101DB000814249D8286A8007F5D50DE0FFF7CCFDB0
:101DC000009006E0FFF7C8FD0099411A574881428C
:101DD0003AD8286A8007F5D40198002804D0E96928
:101DE000012000078143E9612078C00635D560698C
:101DF00001280CD0401D686B23D038436863686BA2
:101E0000400840006863FFF7A7FD064622E0686BC4
:101E100038436863686B30436863FFF79DFD06468F
:101E200004E0FFF799FD801B02285BD8686B8007F0
:101E3000F7D5686BF8218843A169C9000843686336
:101E40000BE0B8436863F4E74CE0FFF785FD801BC7
:101E5000022847D8686B8007F7D4206A00285ED034
:101E600069680907890F022942D00126360602282F
:101E7000286805D0B0432860FFF76EFD044633E0C4
:101E8000B0432860FFF768FD074604E0FFF764FDF4
:101E9000C01B022826D828688001F7D4E86AE16AC6
:101EA000000900010843E862616AA06A08436968A2
:101EB0003D2212049143084368602868304328603B
:101EC000FFF74AFD044604E0FFF746FD001B022829
:101ED00008D828688001F7D521E0FFF73DFD001BF9
:101EE000022801D90320FEBD28688001F5D416E040
:101EF0000128F8D06868E96A01221204636A024086
:101F00009A420AD10907E26A090F914205D10F21CD
:101F100089040840A16A884201D00120FEBD00204A
:101F2000FEBD000000100240007000408813000059
:101F3000094910B5401E884201D9012010BD074C47
:101F400060610321081F01F0D5FE0020A061072079
:101F50002061002010BD0000FFFFFF0000E000E056
:101F600070477047F0B502462032137F012B1ED018
:101F7000012515770223537706687468B3687027C4
:101F8000BC430F682743776000680A4CA04205D025
:101F9000094CA04202D0094CA04204D180244968D7
:101FA000A34319438160557700201077F0BD0220CC
:101FB000F0BD0000002C0140000400400040014042
:101FC00070B5040005D025462035687F002802D072
:101FD00006E0012070BD00202877204600F014F8AC
:101FE00002206877211D206801F0A6FB0120403403
:101FF000A071A877E87720706070A070E070207101
:1020000060716877002070BD10B586B00446142159
:102010006846FEF76DF91F481D4B226881159A42EC
:102020002BD18369C21413438361836913400593E1
:1020300043694A021343436140690091104005908F
:102040000020022102900390019104910920694629
:10205000C006FFF7A3FB002211460D20FFF7DCFCB2
:102060000D20FFF7CDFC002211460E20FFF7D4FC17
:102070000E20FFF7C5FC06B010BD074B9A42FAD1FF
:10208000C2690A43C261C06908400590F3E70000D5
:10209000002C014000100240002000400146203189
:1020A0004A7F012A01D00120704702224A77026844
:1020B000D36801210B43D3600068094A904205D0E0
:1020C000084A904202D0084A904204D182685207DE
:1020D000520F062A02D002680A43026000207047AD
:1020E000002C014000040040004001400168CA6823
:1020F00052085200CA6001680A6A084B1A4207D1A6
:102100000A6A9B101A4203D10A68520852000A60F8
:10211000012120304177002070470000111100009C
:10212000F8B5054604462035287F0026012817D03B
:102130000120287702206877226890687727FF239C
:10214000B8431B02984390600868502838D00EDCD2
:1021500020284FD006DC00284CD010281ED149E0A2
:102160000220F8BD302845D0402817D13AE0602839
:102170002ED0702819D001221203801A0FD090425D
:102180000CD1CB684A688968206801F026FB20687A
:102190008168012292031143816000E00126012041
:1021A0006877002028773046F8BDCB684A68896890
:1021B000206801F012FB2168886838438860EEE7E8
:1021C000CA684968206801F017FC5021206806E0C1
:1021D000CA684968206801F049FC6021206801F064
:1021E00007FBDCE7CA684968206801F005FC40216C
:1021F0002068F4E7226801461046F0E770B51F49F1
:10220000064600680968884236D11D4900201D4CE9
:10221000888020781C4D012814D002281DD0032866
:102220002AD10021304600F091FB616832225143EF
:102230004018A8600021304600F042F90F48FFF72F
:1022400055FF16E00021304600F080FB6168322225
:10225000514340182860022009E00021304600F078
:1022600075FB61683222514340186860002001F01C
:102270004BFA2078401C207070BD0000A8000020A0
:10228000F401002064000020A0010020F8B50446FD
:102290000020264620360090307F0D4601280ED0C3
:1022A00001203077002A0CD0042A19D0082A2AD01D
:1022B0000C2A4ED00090002030770098F8BD022004
:1022C000F8BDEB6806CD083D206801F0A7FB20684B
:1022D00082690C218A43826120688169AA680FE0C3
:1022E000EB6806CD083D206801F0D3FB20688169CA
:1022F000032292029143816120688169AA681202D7
:1023000011438161D7E788CD287921688446086A1E
:10231000FF22013290430862C8690A6A800880007F
:102320003843F027B84367463F073F0E0743052071
:10233000400282430A20034018021043CF61086222
:102340002068C1690C229143C1612068C1692A6873
:102350002CE02B6820689E466F682B7B016ABC4688
:102360000122120391430162C169026A03273F02FD
:10237000B94367463F020F430F2109038F431907F3
:10238000090C052339435B039A4373460A273B40F4
:102390001B031343C16103622068C26903218902E0
:1023A0008A43C2612068C169AA6812021143C161EF
:1023B00081E770B5040005D025462035687F0028E8
:1023C00002D006E0012070BD00202877204600F0F2
:1023D00014F802206877211D206801F0ADF9012072
:1023E0004034A071A877E87720706070A070E0702A
:1023F000207160716877002070BD704770B503462A
:102400000446002520334030002908D0042909D093
:1024100008290AD046784279012E0BD108E09E7F28
:102420008278F9E7DE7FC278F6E706780279F3E78B
:10243000012A01D0012070BD0222002909D00429FF
:102440000ED0082912D0427042710C292ED00125DD
:102450002AE09A7782702068C3681343C3600CE057
:10246000DA77C2702068C268042304E00270027147
:102470002068C26808231A43C2600122206801F064
:102480009FF90C4A20680121904205D00A4A9042E7
:1024900002D00A4A904204D182685207520F062A9B
:1024A00002D002680A430260284670BD2068C268F4
:1024B0001023E0E7002C01400004004000400140F0
:1024C00070B500260D460446002907D0042D09D01A
:1024D000082D0BD00C2D0DD001262EE02068C168F0
:1024E00002220AE02068C168042206E02068C16870
:1024F000082202E02068C16810229143C1600022D6
:102500002946206801F05CF92068016A104A1142EE
:1025100007D1016A9210114203D1016849084900AC
:1025200001602146203101204034002D07D0042DC8
:1025300008D0082D09D060706071304670BD887772
:10254000A070FAE7C877E070F7E720702071F4E731
:102550001111000070B50446006801690025C943E7
:102560008907002915DBC168C943890711D4E91E11
:10257000016101202077206880698007204602D011
:10258000FFF73CFE04E000F0D5F8204600F07AF9B1
:10259000257720680169C943490717D4C168C94331
:1025A000490713D40421C943016102202077206820
:1025B00080698005800F204602D0FFF71FFE04E0EF
:1025C00000F0B8F8204600F05DF925772068016931
:1025D000C943090716D4C168C943090712D40821A1
:1025E000C9430161042020772068C0698007204624
:1025F00002D0FFF703FE04E000F09CF8204600F054
:1026000041F9257720680169C943C90617D4C16813
:10261000C943C90613D41021C9430161082020779A
:102620002068C0698005800F204602D0FFF7E6FDD4
:1026300004E000F07FF8204600F024F925772068B8
:102640000169C943C90708D1C168C943C90704D191
:10265000891E0161204600F06BF920680169C943B9
:10266000090609D4C168C943090605D48021C943B4
:1026700001612046FFF774FC20680169C9434906DF
:1026800009D4C168C943490605D44021C943016141
:10269000204600F071F920680169C943890609D410
:1026A000C168C943890605D42021C9430161204678
:1026B000FFF757FC70BD000010B586B0044614212A
:1026C0006846FDF715FE2368164C002216480221C5
:1026D000A3420FD144694B041C43446140690091FB
:1026E00018400590012001910490029203926946DE
:1026F0000E4812E00E4CA34211D144691B011C4349
:10270000446140691840059010206B4607C30420BF
:102710000490092069460392C006FFF73FF806B00F
:1027200010BD0000000400400010024000040048FA
:10273000002000407047F8B5064604462036307F3A
:1027400000270D4601280ED001203077002A0CD03A
:10275000042A1BD0082A2FD00C2A3ED001270020A3
:1027600030773846F8BD0220F8BD206801F048F8FF
:1027700020688169082211438161206882690421EF
:102780008A438261206881692A6912E0206801F029
:102790007BF8206882690121C9020A4382612068AE
:1027A00081690122920291438161206881692A69CD
:1027B000120211438161D2E7206801F0A5F8206878
:1027C000C16908221143C1612068C26904218A439A
:1027D000C2612068C1692A6912E0206801F0D6F858
:1027E0002068C1690122D2021143C1612068C26917
:1027F000012189028A43C2612068C1692A691202E3
:102800001143C161ABE770B5040005D02546203502
:10281000687F002802D006E0012070BD00202877E4
:10282000204600F015F802206877211D206800F08E
:1028300083FF01204034A071A877E8772070607092
:10284000A070E070207160716877002070BD00009A
:1028500008B50068094988420FD10948C2690221B8
:102860000A43C261C069002208400090114610204E
:10287000FFF7D2F81020FFF7C3F808BD00040040AE
:10288000001002407047000030B50446022220309C
:1028900000290AD004290DD02046403008290ED046
:1028A0004378012B10D0012030BD837F012BFAD15A
:1028B00082770AE0C37F012BF5D1C27705E0037868
:1028C000012BF0D1027000E042700122206800F07C
:1028D00077FF12492068124B884207D0984205D0F2
:1028E000104A904202D0104A904204D1426C012515
:1028F000ED032A43426420680122884204D00B4938
:10290000884201D0984204D181684907490F0629BD
:1029100002D0016811430160002030BD002C01404D
:1029200000400140004401400048014000040040D4
:10293000044900680968884203D103484168491C7A
:1029400041607047A800002064000020024600207B
:10295000002908D0042909D008290AD00C2901D15E
:102960001068006C70471068406B70471068806B8F
:1029700070471068C06B70477047FEE770B50C4930
:10298000002549780B4C00290FD0E16801F0EEF9E1
:102990003F210906E060884206DBE078C043E07032
:1029A0002079C0432071E56070BDE570257170BD70
:1029B000A00000203C000020F1B50121092089027F
:1029C000C006FEF7BDFFFD4FFD4E0025FD4C002863
:1029D00003D06078012807D030E0A168009801F0AA
:1029E000C5F9A06001206070012109208902C0069C
:1029F000FEF7A6FF322301280ED1FF20A168800533
:102A0000814207DAF048C078012823D0022836D066
:102A1000580730606570A560EC48A1680918EC485B
:102A200081420BD8E848C078012835D0022848D028
:102A30000120800730606570E648A0600121092010
:102A40000903C006FEF77CFF002847D0A0780128C4
:102A50004BD097E0E048817B0029018806D03239CD
:102A600009B20180322912DA038010E064390AB217
:102A7000FF21F53102808A4209DA018007E0D74858
:102A800001680A3901601E2901DA1E210160022055
:102A90002070D3480760BDE7CF48817B00290188BB
:102AA00006D0643909B20180322912DA038010E0BD
:102AB00064390AB2FF21F53102808A4209DA0180C5
:102AC00007E0C64908683C3808601E2801DA1E2065
:102AD000086002202070C2480760ACE7E1680098F7
:102AE00001F044F9E0600120A070012109200903F0
:102AF000C006FEF725FF01281BD1FF20E1688005F5
:102B0000814213DAB0484178002903D001208007C0
:102B100030600BE0C178491CC9B2C170022900D9EC
:102B2000C570B149AF480860AD480760A570A57190
:102B3000E560AE48E1680918AD48814222D2A0792B
:102B400000281FD1A04B5878002803D0012080070F
:102B5000306015E0A048A74A817B002904D0857326
:102B600011890180012103E0012181739289028092
:102B7000A14801709C49DD709A4808609848076038
:102B80000120A071012109204902C006FEF7D8FEEC
:102B9000002802D1E079002803D0E078012807D08E
:102BA00049E02169009801F0E1F820610120E0701E
:102BB000012109204902C006FEF7C2FE012813D1F7
:102BC000FF202169800581420BDA09204021C006DF
:102BD000FEF7B6FE012811D0884830607A480121FE
:102BE0004171E570E57125618048216909188048C7
:102BF000814220D2E079002818D01CE07248417848
:102C0000002908D00121017173490220C873764957
:102C100074480860E5E77B4A79495160764A0121AA
:102C200011704170C5706C48C573F0E701208007D2
:102C300030600120E07101210920C902C006FEF7C1
:102C40007FFE002803D02079012807D031E0616998
:102C5000009801F08BF860610120207101210920AA
:102C6000C902C006FEF76CFE674B01280FD1FF209A
:102C700061698005814208DA5348C07801282AD06A
:102C8000022840D0012080073060257165614F48DF
:102C9000616909184E4881420BD84B48C078012819
:102CA0003ED0022852D0012080073060257149486B
:102CB00060610127FF0339465448FEF741FE0028B2
:102CC00051D06079012877D139465048FEF738FE57
:102CD000012850D064E04048817B00290AD0018857
:102CE0000246323109B2018049480088814212DD32
:102CF000108010E0018864310AB2028019888A428B
:102D000009DD018007E03548424A01680A31016067
:102D1000914200DD02600220207031480760B4E774
:102D20002D48817B0029018808D064310AB23849D6
:102D3000028009888A4211DD01800FE0643109B206
:102D400001801A88914209DD028007E02348314A58
:102D500001683C310160914200DD02600220207078
:102D60001F480760A2E7A169009800F0FFFFA0617B
:102D700001206071A8E7FF20A169800581420DDA7A
:102D8000114F7878002806D109204021C006FEF7AF
:102D9000D7FD012840D00120800730606571A56112
:102DA0000A48A16909180A48814205D840073060DD
:102DB000FF2065718005A061F8BD00000000C040E3
:102DC000180000201C000020A0000020CCCC0CC06B
:102DD000323313000000E03FF40100200402002021
:102DE00050000020CDCCCC3D14000020FFFF3FC0A0
:102DF000FFFF7F00AC010020840000200000E040C5
:102E00000000C841CC0100209C00002000040048C4
:102E10009E000020060E00000349012008700449AE
:102E2000024808607D70B9E738000020CDCCCC3D69
:102E30001400002010B53C22FF21002000F04EFEBF
:102E400010BD10B500213222084600F047FE10BD2B
:102E500010B5294C012280212046FEF776FD012283
:102E600020212046FEF771FD012210212046FEF7A9
:102E70006CFDFF20F53000F05FFF0022802120462E
:102E8000FEF763FD0A2000F057FF002000F0C8FEA7
:102E9000012000F087FE032000F084FE042000F0F3
:102EA00081FE052000F07EFE082000F07BFE182049
:102EB00000F078FE292000F075FE802000F072FE00
:102EC000402000F06FFEE32000F06CFE0122802124
:102ED0002046FEF73AFD00210848FFF7D5FC0749D8
:102EE000322009684863FFF7A5FF7D20C000FEF788
:102EF00097FBFFF7A6FF10BD000400483801002033
:102F000010B50B480188491C01804188491C41804B
:102F10008188491C8180C188491CC1800189491C64
:102F200001814189491C418100F0F6FA10BD000081
:102F300086000020F0B587B014216846FDF7D8F967
:102F400038484269012189050A43426142690A40C1
:102F50000592426949110A43426142690A40059259
:102F6000426949000A434261406909260840F60661
:102F70000590002220213046FEF7E7FC2A4F002270
:102F8000F1143846FEF7E1FC0122B0213846FEF785
:102F9000DCFC202000240125009002946946019564
:102FA00003943046FEF7FAFB40206A4631C2694678
:102FB0003046FEF7F3FBE8020090022002900195F4
:102FC000694603943846FEF7E9FBE8030090019454
:102FD000694602943846FEF7E1FB0F20400200905C
:102FE0000194694602943046FEF7D8FBC0206A4639
:102FF00031C269460D48FEF7D1FBB0200090032096
:1030000003900195029569463846FEF7C7FB2802F2
:10301000009002946946019503943846FEF7BEFB82
:1030200007B0F0BD00100240000400480014004842
:1030300010B588B01C216846FDF75AF916481549A5
:10304000016000240B21846041600461C721846118
:10305000C160FEF7B5FF002801D0FEF70DFA0E485B
:10306000FFF7D1FB002801D0FEF706FA60200090A0
:10307000019402940022694604940748FFF75BFB21
:10308000002801D0FEF7F8F90348FFF715FB08B058
:1030900010BD0000002000403801002010B58AB0AB
:1030A00000240494059406940794089421480994F4
:1030B0000094019402941E49039401600B218460E2
:1030C000416004614461C8218461C160FEF778FFFA
:1030D000002801D0FEF7D0F901200003049004A9D4
:1030E0001448FFF71DF8002801D0FEF7C5F9114874
:1030F000FFF75FF9002801D0FEF7BEF9089408A990
:103100000C480994FEF72EFF002801D0FEF7B4F911
:10311000012001900094029400226946039405481E
:10312000FFF7B4F8002801D0FEF7A6F90AB010BDE9
:10313000002C0140A800002010B58AB0002407949C
:103140001C2168460894FDF7D3F818481649016019
:10315000172184604160FF21046190318461C16066
:10316000FFF751FB002801D0FEF786F9079407A965
:103170000E480894FEF7F6FE002801D0FEF77CF911
:1031800060200090019402940C2269460494074840
:10319000FFF7D1FA002801D0FEF76EF90348FFF7D8
:1031A0008BFA0AB010BD000000040040F0000020BF
:1031B000F1B5324800254078314F324C84B00128B7
:1031C00004D038680564656005B0F0BD0920402171
:1031D000C006FEF7B5FB012804D0284845703868C2
:1031E0000564F1E7284906268E5F002EECD02348BF
:1031F0000079002818D0666A7000000E12D00221F3
:103200000498FDF7FDFC314600F07AFE6062FF2174
:10321000C905C84200D36562606AFDF7A9FC396838
:103220000864D1E73046F2E7887B184D002818483B
:10323000085E11D0FDF7D8FC03903046FDF78DFBFA
:10324000144A154BFDF744F9FDF704F900F040F876
:10325000124900F0D1FD05E0FDF7C6FC03903046B1
:10326000FDF7C2FC01460E48064B01900C3B02954F
:103270000094039A0498FDF798FDCDE7A000002084
:10328000F0000020CC010020F40100200000C84321
:1032900002000000A145B6F3FDD45A4000007A4474
:1032A0000000AF4310B50C210148FFF7EDFA10BD47
:1032B000F0000020044803490160044941600021F6
:1032C000816070476F12033BC00100200BD7A33C05
:1032D000F8B5FF2600210446B605C943FDF790FC6A
:1032E0000546114960100F1A3946284600F084FD42
:1032F000394600F081FD314600F002FE394600F00B
:103300007BFD07460146284600F076FD394600F071
:1033100073FD314600F0F4FD394600F06DFD0146C5
:10332000204600F069FDF8BDDF59375FFEE7000079
:10333000F8B514214048FEF719F93F4C3F4B20786F
:103340003F4A404DAA2802D16078A3280FD000F050
:103350008BF860681860A87B002801D0A08900E085
:103360002089288001203849107008700AE06068C0
:103370001860A87B002801D0A08900E0208928805F
:1033800001201070012109208902C006FEF7D8FA39
:103390002E4E2F4F002831D101210920C902C0062D
:1033A000FEF7CEFA002829D1207C401CC0B2207440
:1033B000022801D900202074234901200870207CB4
:1033C000002804D0012806D0022813D10DE021489E
:1033D0003080214903E07D20400120493080398040
:1033E000AA7B002A05D0298004E01D4830801D49B1
:1033F000F5E728803088A0603888E060207C0028CD
:1034000004D0012806D0022809D111E011483080EB
:10341000114803E07D2040013080104838800A4880
:103420000178002903D00021017000F033F8F8BDC5
:103430000B4830800B48F1E7AC010020040200206B
:1034400084000020F40100207C0000209C0000206B
:103450009E00002088130000280A0000A406000037
:1034600094110000660800000748AA210170FF219E
:103470002D3141600549C16000210174044981601A
:10348000A321417070470000AC010020A406000099
:103490008813000010B514210148FEF789F810BD0B
:1034A000AC01002070B5094C0025217800290BD013
:1034B000616800F05BFC3F2109066060884202DB26
:1034C000FFF7E8FF257070BD656070BD7C000020CF
:1034D0007047704710B5074841780748002907D062
:1034E0004168064A81600820105EFDF7B3FE10BDFA
:1034F0000168F6E7A000002004020020F40100208B
:1035000010B5FEF72FFA03480078002801D0FFF726
:10351000F7FC10BDA000002070B5224C00252088CB
:103520000A280AD3204E3046FDF722FE3046FFF728
:1035300043FA3046FDF774FD25806088142803D3D4
:103540001A48FDF7F3FD6580A08832280AD3184E8B
:103550003046FFF72DFE3046FDF7DAFD3046FDF729
:1035600087FCA580E08864280AD3124E3046FDF718
:10357000C9FC304600F0A7FA3046FFF793FFE5801C
:103580002089C82803D30C48FDF70EFD25816089EA
:10359000FF21F531884204D33F200006FDF72EFDC0
:1035A000658170BD860000200AD7233C0AD7A33C62
:1035B000CDCC4C3DCDCCCC3DCDCC4C3E30B591B0FE
:1035C00030216846FCF794FE002401200090019011
:1035D0000E94000409900F9400010D9402250A90A6
:1035E0000C9408950B946846FEF7DEFA002801D08B
:1035F00072B6FEE707200C900E9401210D950F94F2
:103600000CA8FEF70DFA002801D072B6FEE711B043
:1036100030BD704710B5094C00202070FFF742FE06
:10362000FDF722FFFFF746FEFFF782FEFFF710FCD3
:103630000449034808600120207010BDA00000204C
:10364000CDCCCC3D1400002010B50248FEF782FF1F
:1036500010BD0000A800002010B50248FEF77AFF58
:1036600010BD0000A800002070B5204C2178002576
:103670001F48002925D0042922D106C8521AA26069
:103680000068401AE060FDF7B7FAFDF771F9002213
:10369000184BFCF71DFF02460B4600201649FCF7AD
:1036A00017FFFCF7D7FE20612570144900F0A4FB3A
:1036B000691EFDF7A5FAFDF75BFA114960614880C4
:1036C00070BD65600F4909684D62056045608560A1
:1036D000002000F019F80B48FEF7E0FC0021094833
:1036E000FEF78CFE2078401C207070BD6400002026
:1036F000A001002080842E410000F03F00007042B5
:10370000F4010020A800002010B5064B19680C6ACF
:103710000A2294430C6219680B6A104003430B623F
:1037200010BD0000A800002010B50248FEF712FFEF
:1037300010BD0000F0000020F0B502681A4B1B4CD1
:10374000984201D0A04203D17025AA434D682A4374
:10375000174D184E184F98420AD0A04208D0174C67
:10376000A04205D0A84203D0B04201D0B84205D152
:103770001446032212029443CA6822438024A243BF
:103780004C69224302608A68C2620A688262984277
:1037900005D0A84203D0B04201D0B84201D1096996
:1037A000016301214161F0BD002C01400004004093
:1037B000004001400044014000480140002000401A
:1037C00010B5CB06DB0E0121046A99408C430462DC
:1037D000016A9A401143016210BD30B58468FF252B
:1037E0002D021B021343AC430B432343836030BDC4
:1037F000826870239A430A4307210A438260704714
:10380000F0B5026A520852000262056A4368826992
:103810007024A24392080C6892001443022295433C
:103820008A68164E2A43144DA84207D0B04205D0EC
:10383000134FB84202D0134FB84206D10827BA43FB
:10384000CF681743042297433A46A84207D0B042B4
:1038500005D00B4DA84202D00A4DA84206D103253F
:103860002D02AB434D691D438B692B43436084613B
:10387000496841630262F0BD002C014000400140F4
:10388000004401400048014070B5026A10239A4389
:103890000262056A4268836973242402A3430C68A8
:1038A00024021C4320239D438B681B012B43124D94
:1038B000A84208D11D46CB688026B5431B012B4387
:1038C0004025AB4308E00D4DA84205D00C4DA84261
:1038D00002D00C4DA84208D10325AD02AA434D6980
:1038E000AD0015438A6992002A43426084614968A9
:1038F0008163036270BD0000002C01400040014064
:10390000004401400048014070B5026AFF230133C2
:103910009A430262056A4368C2697024A24392080E
:103920000C68920014430122520295438A681202E5
:103930002A43124DA84208D11546CA68C614B54399
:1039400012022A430515AA4308E00D4DA84205D0EE
:103950000C4DA84202D00C4DA84208D103252D03DE
:10396000AB434D692D011D438B691B012B43436004
:10397000C4614968C163026270BD0000002C01404F
:1039800000400140004401400048014030B5026A57
:1039900001231B039A430262046A4268C3697325C8
:1039A0002D02AB430D682D021D4301235B039C4395
:1039B0008B681B0323430C4CA04208D00B4CA04245
:1039C00005D00B4CA04202D00A4CA04205D10124E4
:1039D000A403A2434C69A40122434260C561496823
:1039E0000164036230BD0000002C01400040014032
:1039F000004401400048014030B5036A046A64088D
:103A0000640004628469F025AC43120122430A2455
:103A1000A3430B438261036230BD000070B5046AAA
:103A20006408640004628469056A0D4EB04205D0E2
:103A30000C4EB04202D00C4EB04202D1A408A400F9
:103A400000E001221443F02294431A07120E0A23C5
:103A500022439D43194029438261016270BD0000E9
:103A6000002C0140000400400040014030B5036AD2
:103A70001024A34303628469036A0F252D031203F4
:103A8000AC432243A024A34309011943826101628C
:103A900030BD70B5046A1025AC4304628569046AC0
:103AA00003263602B54312022A430F252D031B07B6
:103AB0001B0CAA431343A022090194431140214344
:103AC0008361016270BD10B50446FDF7E3FA20463C
:103AD000FEF754FF2046FDF745FA10BDF7B5304D0F
:103AE0000646002280212846FDF72FFF0A2000F01D
:103AF00023F9012000F094F870060024060E062732
:103B0000002220212846FDF720FF391B3046C840FF
:103B1000C00701D0012200E0002210212846FDF755
:103B200014FF0A2000F008F9012220212846FDF7A1
:103B30000CFF0A2000F000F9641CE4B2062CDFD36D
:103B400000242F4623E0019E002500222021384634
:103B5000FDF7FBFE0720401B3146C140C80701D0DE
:103B6000012200E0002210213846FDF7EEFE0A2077
:103B700000F0E2F8012220213846FDF7E6FE0A2097
:103B800000F0DAF86D1C082DDFDB641CE4B202984B
:103B90008442D8D3012280213846FDF7D6FEFEBDEF
:103BA00000040048F8B500241C4D064607270022F3
:103BB00020212846FDF7C9FE391B3046C840C00702
:103BC00001D0012200E0002210212846FDF7BDFEB1
:103BD0000A2000F0B1F8012220212846FDF7B5FEA9
:103BE0000A2000F0A9F8641CE4B2082CDFD30022FC
:103BF00020212846FDF7A9FE0A2000F09DF80022AA
:103C000010212846FDF7A1FE012220212846FDF7BC
:103C10009CFE0A2000F090F8F8BD00000004004867
:103C200070B504460A2000F087F8254D00222021B7
:103C30002846FDF78AFE0A2000F07EF801221021B6
:103C40002846FDF782FE012220212846FDF77DFE51
:103C50000A2000F071F8002220212846FDF775FEA9
:103C60000A2000F069F8002210212846FDF76DFEB9
:103C70000A2000F061F8012220212846FDF765FEA8
:103C80000A2000F059F8002220212846FDF75DFEA9
:103C90000A2000F051F8002C10D0012210212846F3
:103CA000FDF753FE0A2000F047F8012220212846A4
:103CB000FDF74BFE0A2000F03FF870BD0022EDE753
:103CC00000040048F8B5040C8BB2264682B25E436D
:103CD0000D0C1046370C58433604801900217941E9
:103CE00016466E43370C36048019794126466E43DA
:103CF0008919F8BD8307FF22DB0E9A408907090E58
:103D00009940002808DB830809489B001B181868A5
:103D100090430843186070470007000F0838830875
:103D200004489B001B18D86990430843D86170472A
:103D300000E400E000ED00E06420401E0006000EFC
:103D4000FBD17047FDF716FEFFF738FCFFF7F2F8DE
:103D5000FFF7A4F9FFF7F0F9FFF76AF9FFF75AFC4C
:103D6000FFF782FCFFF7B6FBFAE7000070B501250C
:103D70000400ED074C4020D4441A01D2001B09195D
:103D8000C60D4B00F2B2FF2A29D01B0E2CD0000228
:103D90000C02D31A2C43DC402843051910D2280A00
:103DA00002D3401C6D0611D0761EF6058019FF2A3D
:103DB00000DA70BDC00DC00570BD694000F0B2F8FA
:103DC00001200543C541521C761CE8E764089C406D
:103DD000C90161408900E7D10124A043E4E71B0E3B
:103DE000440200D0034870BD002AFCD1C00FC007B8
:103DF00070BD00BF0000C07F70B5420064414B0041
:103E00005C41120E39D01B0E38D0FF2A3CD0FF2B5C
:103E10003AD040024902400A490A060045184E437A
:103E2000000A090AD2184843ED017F3A0104731AC7
:103E30004019190C4318990F04D001215B08490758
:103E40005B1A521CD80904D3401CF50301D19D060E
:103E500007D0FF2A08D2D50506D0E4072043401931
:103E600070BD0125A843F4E7002A01DCE00770BD1E
:103E70002402FF202043C00570BD1B0EFF2A03D083
:103E8000FF2B01D0E00770BDFF2645003606B54286
:103E900006D84D00B54203D8D218FF2A00D0E7E774
:103EA000004870BD0000C07F01230A00DB0502430B
:103EB0000DD4DA4203D49A4207D481427047D942E2
:103EC00014D4D84212D48142704789427047DA42F2
:103ED00003D59A42F9D5884270475B004A00DA421E
:103EE00004D24200DA4201D2884270474840414041
:103EF00010B5024A4840FCF7A5FE10BD09001604A3
:103F000070B50125ED07684004004C4002D56940BA
:103F100000F008F8FFF730FF70B501250400ED0749
:103F20004C4022D4441A02D26C40001B0919C60D21
:103F30004B00F2B2FF2A4BD01B0E50D000020C02F5
:103F4000D31A2C43DC40A843051B05D5AD0019D37B
:103F50006D08761E521E37D0F605280A01D2801948
:103F600070BD70416D0603D070BD6940FFF704FF5E
:103F70009C4009026140490001D0401E70BD0124EF
:103F8000A04370BD6D081DD001202B0C01D12D0464
:103F900010302B0E01D12D0208302B0F01D12D0135
:103FA000001DAB0F01D1AD00801CEB0F01D16D00E6
:103FB000401C6D00361A121A680AF5054019012ACC
:103FC00002DB70BD002070BDC036300AC00770BD76
:103FD0001B0E440201D1FF2B00D1024870BD002A04
:103FE000F0D070BD0000C07F0000000000000000A5
:103FF000010203040607080980807F7E7D7C7B7AAE
:104000007978777676757473727171706F6E6E6D84
:104010006C6C6B6A6A69686867666665646463632A
:1040200062616160605F5F5E5E5D5D5C5C5B5B5AB0
:104030005A5959585857575656555555545453531D
:1040400052525251515050504F4F4F4E4E4D4D4D78
:104050004C4C4C4B4B4B4A4A4A49494948484847C3
:104060004747474646464545454444444443434301
:10407000434242424241414181828384858687880E
:10408000898B8C8D8E8F919293959697999A9C9D02
:104090009FA0A2A3A5A7A8AAACAEB0B2B3B5B7B96A
:1040A000BCBEC0C2C5C7C9CCCED1D4D7D9DCDFE233
:1040B000E6E9ECF0F3F7FAFED84000080000002033
:1040C000A8000000F800000880410008A8000020B7
:1040D000C8070000140100080100000004000000EF
:1040E0000000000000127A00000000000000000044
:1040F00000000000000000000000000000000000C0
:1041000000000000000000000000000000000000AF
:10411000000000000000000000000000000000009F
:10412000000000000000000000000000000000008F
:1041300077245D6D2E6B7B257F6F000000000000F3
:10414000000000000000000000000000000000006F
:10415000000000000000000000000000000000005F
:10416000000000000000000000000000000000004F
:10417000000000000000000000000000000000003F
:04000005080000B53A
:00000001FF
