:020000040800F2
:10000000380E0020CD00000851330008E329000815
:1000100000000000000000000000000000000000E0
:10002000000000000000000000000000FB3300089A
:100030000000000000000000F93300082D34000823
:10004000DF00000800000000DF000008DF000008FB
:10005000DF000008DF000008DF000008DF00000804
:1000600000000000DF0000084909000859090008E5
:10007000DF000008DF000008DF00000800000000CB
:10008000DF0000083136000800000000DF00000833
:10009000AD350008DF00000821360008DF00000849
:1000A000DF000008DF000008DF000008254300082B
:1000B000DF0000080448854600F0E0FA00480047E9
:1000C00093470008C046C046380E002004488047C9
:1000D00004480047FEE7FEE7FEE7FEE7FEE7FEE72F
:1000E00069350008B500000830B50B460146002010
:1000F0002022012409E00D46D5409D4205D31D462E
:100100009540491B2546954040191546521E002D25
:10011000F1DC30BDF0B51FB40646002082B00546C4
:100120004024019100901BE0019922460F46304681
:1001300000F020F8049A059B801A994110D31046CC
:100140001946224600F0EAF9361A8F4101972246F5
:1001500001200021009F00F0E1F938184D41009086
:100160002046641E0028DFDC019B009829463246A9
:1001700007B0F0BD10B5202A04DB0846203AD04075
:10018000002110BD0B46D340D0402024A21A91403C
:100190000843194610BDD2B201E00270401C491E4E
:1001A000FBD270470022F6E710B513460A46044614
:1001B0001946FFF7F0FF204610BDF8B502464A4049
:1001C000D40F42004B0052085B089A4202D202460A
:1001D000084611464A0023D0C30D4A00DDB2120E74
:1001E000AD1A202D35DA49020126490AF6058A1989
:1001F000002C00D0524220214F1B1146B9402A4109
:100200001018C20D9A4221D0002C17D0012D08DC05
:10021000DA05801AD20F8019D207DBB200F096F906
:10022000F8BDDA05801A012340001B06C0188018AB
:100230005A428018CA0F1043490007E04908C20714
:100240001143DA05801A80194008801800F076F909
:10025000F8BD61000122511A001BF7E70122D20705
:100260005140AAE70122D2075040A6E7024670B5E6
:100270004A40D30FDB0740002DD04A002AD0010EA0
:10028000140E000212020919400A520A8418E501EC
:1002900004465443000A120A2E045043A41942197A
:1002A000200CC543AA18120C0125AD03521C52198B
:1002B00012047F39240400D0521C104301D44000A2
:1002C000491EC2B20C06C0092018401C4008802AF2
:1002D00002D003E0002070BD40084000002900DA91
:1002E0000020184370BD70B502464A40D50F40004B
:1002F0004A00ED0740085208002814D0002A12D006
:10030000C40DD30D41020120C0055202490A520A10
:10031000E41A091812187D34914201D3641C00E0DC
:100320004900002C01DA002070BD0023914201D366
:10033000891A0343400849000028F7D100290AD050
:10034000914202D10121C90705E0914201D2012168
:1003500001E00121C943E005C018401900F0EEF8A2
:1003600070BD0000F0B51FB488B00B990998002447
:1003700048400999C00F490049080991C0070B99E5
:100380000090490049080B9109990898A64608432E
:100390001CD00B990A98084318D0099801244000F2
:1003A000420D4800410D099824050003000B20432D
:1003B00009900B980003000B20430B9050181C4928
:1003C0004018002201901446104605E00020014626
:1003D0000DB0F0BD032801DA034600E003239C467C
:1003E000C11A0AAE0AE05F0008ADED5B4F00F75B93
:1003F0007D430027AA187C41491C5B1E6145F2DD44
:10040000410004AB5A522104120C0A43240C401C34
:100410000828DFDB01980290009970460191009056
:10042000059B049A0799069800F0D6F8D0E70000DB
:100430000DFCFFFFC217C10F504010B54018CA078E
:100440009623002100F082F810BD10B500229623FB
:10045000114600F07BF810BD0EB505490291002150
:1004600000910A460B46019100F0B6F803B000BDBA
:1004700033040000C20F410040020123400ADB05A3
:10048000D207090EC0187F2901DA0020704796298B
:1004900003DC9623591AC84001E096398840002AA7
:1004A000F4D040427047410040020122400AD20588
:1004B000090E80187F2901DA00207047962903DC95
:1004C0009622511AC8407047963988407047CB0F22
:1004D000DB07490010B5490802460A4307D00A0D58
:1004E00007240903E401090B121B002A01DC002088
:1004F00010BDC900440F0C43C100E018D20580189C
:1005000000F01CF810BD00000122D207002800DB1B
:10051000101A002900DB511A8842704710B5202AB2
:1005200004DB0146203A9140002010BD9140202379
:100530009C1A0346E3401943904010BD002904DA99
:10054000401C490001D140084000704770B40024AD
:10055000050C05D11024000402D1002921D011245A
:10056000050E01D100020834050F01D10001241D40
:10057000850F01D18000A41C002801DB4000641C11
:10058000002908D020252E1B0D46F540A14000D0A3
:1005900001212943084301061B1B000ADB1D02D56C
:1005A000002070BC7047DB05181880180029F8DAA5
:1005B000401C4900F5D170BC40084000704710B5A0
:1005C000002B08DA0024401C614192185B411A4359
:1005D00001D14008400010BDF0B51FB482B00546FF
:1005E0000C0003D0084604F073F802E004F070F841
:1005F00020300246009021462846FFF78FFF049BDB
:10060000059A04460F4618431143084314D0184670
:1006100010431BD0009840210A1A18460599FFF78D
:10062000A9FD05460E46009A05990498FFF776FF46
:10063000084305D0012004E02046394607B0F0BD4C
:100640000020C11705430E432C43374300990E98F1
:100650006305401A7905E40A00220C43FD0A0A30BA
:1006600002D500200146E9E70105101969410C9CFB
:100670000D9D00196941FFF7A2FFDFE7064C012538
:10068000064E05E0E36807CC2B430C3C984710343A
:10069000B442F7D3FFF712FD0848000828480008C5
:1006A000FFB585B008461F460E9C0799FFF7D6FD9B
:1006B000E060014600903868FFF7D8FD206005989B
:1006C0000121C9070F9E109D4000000E4E404D4075
:1006D000002804D07F20C0050599FFF704FE029092
:1006E000216A0798FFF7BAFD0299FFF7BFFD01469F
:1006F0000122B868D2075040FFF7B8FDA06130462C
:100700000099FFF701FF01D2304607E0E0680F993A
:10071000FFF7FAFE01D20F9800E0E0687968FFF772
:10072000A5FD0599FFF7A2FD6168FFF746FD0146AB
:1007300060602846FFF7E8FE01D2294607E06068BE
:100740001099FFF7E1FE01D2109900E06168616045
:100750002068FFF732FDA169FFF72FFD606207985F
:10076000206209B0F0BD0000F1B51F4C0121C905A0
:10077000092760680E12FF06884204DAA2688A42DE
:1007800001DA002219E04000000E09D001223146B2
:10079000384600F06CFD61680098FFF763FD60600B
:1007A000A5686800000E0CD021680098FFF705FDD1
:1007B0000E492060884205DA01223146384600F0B1
:1007C00056FDF8BD09490A4A494241189142D8D319
:1007D00008498842F5DB7F21C9052846FFF73EFD21
:1007E000A06000202060F8BD10000020CDCC4C3E61
:1007F000CDCC4C009A99993EF1B520482049027E13
:100800004069204E47180024002A0AD01E4D009847
:100810002968FFF7D2FC19492860B74207D22C603B
:100820000AE01648B74207D20121017604E0174AD0
:10083000904201DB0C76F2E7104D10482035806BBA
:100840000F4A297F871800290BD00F48416800986C
:10085000FFF7B3FC0C49B742486007D20846446032
:10086000F8BDB742FCD201202877F8BD074A0649F7
:100870009042FADB2C774C60F8BD0000AC090020F8
:10088000FF7F44BBFFFF7F002C00002000004040A2
:1008900070B50C4C0646216AFFF78FFC20620546B6
:1008A0003046616CFFF789FC7F22D2050021064BA0
:1008B0006064954201DB63612162904201DBA363C6
:1008C000616470BDAC09002000401C4610B5044CAA
:1008D000A1684A00120E02D0FFF7C4FCA06010BD50
:1008E0003400002010B50C4A1078002812D00B48B4
:1008F00004240021045F415E00238C4206D0084C92
:1009000081806180017B002900D0037305490120AB
:100910000870137010BD000076000020280A002027
:10092000700000206800002010B5064CA168FFF799
:1009300044FC7F21C905A060884202DB0020608062
:10094000A06010BD280A002010B5024800F04CFA43
:1009500010BD00004002002010B5024800F044FA2B
:1009600010BD00008402002010B50446006805494F
:1009700040181421FFF7B8FB800020640248E063B0
:1009800010BD0000F8FFFDBF0000024030B5056C4F
:100990000124AC40C56B6C60046863604368102B35
:1009A000036803D099600068C26030BD9A60006837
:1009B000C16030BD70B5214D2148AA780221415E49
:1009C000012A01D00A2933DD1D4E027B04230324B2
:1009D000F35E002A07D0012A0AD0022A17D0032A80
:1009E00000D1C38070BDC1808B420EDB0122027337
:1009F0000622825E914202DD8A4201DA0A32C28018
:100A00000621415E994211DA70BD0222027306226C
:100A1000825E914202DA8A4201DD0A3AC280E978B6
:100A20000029F1D10621415E9942EDDC047370BDCD
:100A30000188C1800021017370BD00008C0000207E
:100A4000280A002071B5E1229200104C104E009847
:100A500018E0904201D9134600E00346A069302116
:100A60005943451A05D4A169814208DAA942FADA44
:100A700005E0AD19A1698142FCDDA942FADC0098CC
:100A8000C01A00900028E4D178BD000000E000E02A
:100A900080BB000038B57D210446C900FFF724FB68
:100AA0000A21FFF721FB6846017064212046FFF709
:100AB0001BFB0A21FFF718FB684641700A212046FC
:100AC000FFF712FB0C460A21FFF70EFB6846817008
:100AD000C470074C69462078095C03F00DF8207853
:100AE000401CC0B22070032801D90020207038BDFE
:100AF0004C00002010B50924E406012210212046F4
:100B000000F0B5FB01222021204600F0B0FB1420AC
:100B100000F018FA012003F06AF810BD10B50021AA
:100B20000C4801F0ADFB04210A4801F0A9FB0A487A
:100B300001F016F80021084801F06CF9042106487C
:100B400001F068F9054801F00BF8064804494161D5
:100B5000816310BDD80000206801002090000020B3
:100B600000401C46AC09002010B50021044801F0EB
:100B700087FB00220821034800F079FB10BD00002C
:100B8000B00100200004004810B5012202490348CA
:100B900001F0E8FE10BD000057000020C802002050
:100BA00010B5044800F0DCFF0021024801F032F9E2
:100BB00010BD0000F801002072B6FEE706490020D3
:100BC000C86106480169042211430161016940229C
:100BD00011430161704700005003002000200240D3
:100BE000064A0021D16106490A6902231A430A61B3
:100BF0004861086940221043086170475003002093
:100C00000020024010B5054B0022DA61044A136946
:100C1000012423431361018010BD00005003002014
:100C20000020024010B50B4A0020D168CB060A49CB
:100C300004D5C86902231843C8611020D3685B0734
:100C400005D5CB6901242343CB6104210843D0603F
:100C500010BD0000002002405003002070B5054682
:100C600000F00CFB0646104C0AE0681C08D0002D72
:100C700004D000F003FB801BA84201D9032070BD03
:100C8000E068C007F1D1E068800601D52020E0606F
:100C9000E068C00602D4E068400703D5FFF7C2FF52
:100CA000012070BD002070BD0020024078B50022F8
:100CB0000E4B4C1E15E0551CA5420ADCD5182E889B
:100CC0006D462E802D7885546D466D78861875702A
:100CD00005E0D5182E886D462E802D788554921CFF
:100CE00092B28A42E7D3012078BD0000009A000842
:100CF000F3B585B00D4600F0CFF900200121174F64
:100D00000190039100900297694601A800F02CF928
:100D1000002818D100246E1E1AE0601CB04205980D
:100D200005DC0019407801020598005D02E0015DD4
:100D3000FF200002081882B20023E119012000F010
:100D40006DF9002802D0002007B0F0BDA41CA4B2A9
:100D5000AC42E2D300F058F90120F5E7009A000810
:100D600030B5014620314B780022022B04D00423F9
:100D700083630A70012030BD03681C680E25AC43F4
:100D80001C6003681C68640864001C600123056C17
:100D90001C46C06BAC4044604B700A70002030BDF4
:100DA00070B50024014620314A78022A03D004217C
:100DB0008163012416E0026813680E25AB431360BB
:100DC000026813685B085B0013600122056C134620
:100DD000AB40C56B6B604A7000220A70416B002902
:100DE00000D08847204670BDF0B4C16B0D68016823
:100DF0000C680422066C1346B3402B420DD06307E7
:100E00000BD50B689B0602D40B6893430B60016CF7
:100E10008A40C16B4A60C16A19E00227B7400246A6
:100E20002F4001232032002F15D0A70713D50C68BF
:100E3000A40604D40C680A25AC430C605370036C00
:100E400002219940C36B596000211170816A002909
:100E500016D0F0BC08470827B7402F4210D024070F
:100E60000ED50C680E25AC430C60046C1946A140ED
:100E7000C46B61608363537000211170016BE6E7FE
:100E8000F0BC704770B5040021D00221204620300C
:100E900005464170226811680E48A36801406068E9
:100EA00026691843E3683343184363691843A36909
:100EB0001843E3691843084310602046FFF754FDC8
:100EC0000021A163012068702970084670BD0120CF
:100ED00070BD00000FC0FFFFF8B504468C462030FF
:100EE00001780025012909D00126067041780027E4
:100EF000012905D0077002252846F8BD0220F8BD5B
:100F000002214170A7632068016849084900016017
:100F100061462046FFF73AFDE06A00282068016834
:100F200002D00E22114306E00A221143016020681C
:100F30000168042291430160206801683143016027
:100F4000DAE7000070B5044600F098F90546601C29
:100F500002D004480078241800F090F9401BA04209
:100F6000FAD370BD00000020F8B5054623480F46AF
:100F7000017E012601290BD0012101762868204C31
:100F8000012807D02046FFF769FE002813D030E083
:100F90000220F8BD2046FFF761FE002829D1FFF7A7
:100FA0000DFE2046FFF75AFE064616480169042248
:100FB000914301611DE00020C04338606C6812E07D
:100FC0002046FFF70DFE0E48FFF748FE06460D4887
:100FD000026902218A430261002E01D03C6008E0D0
:100FE000012080022418A868810268680818A042BD
:100FF000E6D80248002101763046F8BD50030020B3
:1010000050C30000002002400348016980221143C0
:10101000016100207047000000200240F0B51FB4BD
:1010200007461A480024017E15461E46012907D0AE
:10103000012101761648FFF711FE002803D020E0B9
:10104000022005B0F0BD012F02D0022F00D00427EE
:10105000220128463146FFF78DF881B201986200DF
:101060001018FFF7CFFD0A48FFF7F8FD09490A6994
:10107000520852000A61002803D1641CE4B2BC4249
:10108000E6D3024900220A76DBE700005003002085
:1010900050C3000000200240064900200A691206E1
:1010A00007D5054A4A60054A4A600969090600D51C
:1010B000012070470020024023016745AB89EFCD36
:1010C000F8B5002303240125BAE02E469E40B4461D
:1010D00032407CD00E79B607B60F012E01D0022E19
:1010E00017D186682746B6465E00B740009676461A
:1010F000BE43B646CF68009EB7407646374387600A
:1011000046686746BE430F79FF06FF0F9F4037438F
:1011100047600E79F643B6070ED0C6682746B44638
:101120005E00B646B7406646BE43B4468F68764614
:10113000B74066463743C7600E79B607B60F022E32
:1011400014D1DE08B60036180096366A5F07B4463A
:10115000FE0E0F27B646B7406646BE43B4460F693B
:101160007646B74066463743009E37620668274694
:10117000B4465E00B646B7406646BE430F79B446F5
:10118000BF07BF0F7646B7406646374307604E68D5
:10119000B603B60F53D02D4FBE692E43BE61BE6954
:1011A0009F08F607F60F2A4EBF00BE190096B668D4
:1011B0000F27B4469E07360FB646B7406646BE4375
:1011C0000927FF06B446B84202D1002710E036E0F6
:1011D000204FB84201D101270AE01F4FB84201D188
:1011E000022705E01D4FB84201D1032700E0052783
:1011F0007646B74066463743009EB760184EB668DD
:101200004F689643FF0200D51643154FBE60FE6837
:101210004F689643BF0200D51643114FFE607E68AB
:101220004F689643BF0300D516430D4F7E603E685E
:101230004F689643FF0300D51643094A16605B1CAE
:101240000A681646DE4000D03FE7F8BD00100240B5
:10125000000001400004004800080048000C00485D
:10126000000401400069084000D001207047002AB6
:1012700001D0816170478162704700000148806839
:101280007047000000000020024881680278891839
:10129000816070470000002010B5064801681022E8
:1012A00011430160002000F007F800F027F800204B
:1012B00010BD00000020024070B504460D4D7D2099
:1012C0002978C000FEF710FF01460B480068FEF7C2
:1012D0000BFF00F02DFB002809D1042C07D20022BF
:1012E0002146401E00F02AF800206C6070BD0120ED
:1012F00070BD0000000000200C00002008B5084868
:101300008169012211438161816911400091C269A3
:1013100001040A43C261C0690840009008BD000092
:1013200000100240002805DBC106C90E01208840DC
:10133000014908607047000000E100E010B503F0CB
:10134000F7F910BDF8B505460068354CC00352D515
:10135000E0690026C00007D4E16920040143E1618F
:10136000E1690140012600912E480168C90510D4A9
:101370000168821511430160FFF780FF074604E012
:10138000FFF77CFFC01B642824D826480068C005EE
:10139000F6D5206A03273F02384020D069683940DB
:1013A00081421CD0206A226AB843012109040A4301
:1013B0002262226A8A4322622062C0070FD0FFF7AE
:1013C0005DFF009008E0FFF759FF0099411A1648A9
:1013D000814201D90320F8BD206A8007F3D5206A35
:1013E0006968B84308432062002E04D0E1690120F7
:1013F00000078143E1612878C00705D0206BA96808
:1014000080088000084320632878800605D5206B7B
:1014100010218843E968084320630020F8BD0000DC
:10142000001002400070004088130000F8B50F461D
:10143000060059D03A4D2868C007C00FB84209D2FB
:10144000286840084000384328602868C007C00F5B
:10145000B84249D13068334C81070CD5400704D5D8
:10146000606807210902084360606068F0218843D2
:10147000B168084360603078C00726D070680128E2
:101480000ED0216802280ED0890700292CDA616865
:101490008908890001436160FFF7F0FE00900DE0CC
:1014A00021688903F1E78901EFE7FFF7E7FE00997B
:1014B000411A1D48814201D90320F8BD60680C2102
:1014C0000840716889008842EFD12868C007C00FC2
:1014D000B8420BD928684008400038432860286883
:1014E000C007C00FB84201D00120F8BD30784007D6
:1014F00006D56068072109028843F16808436060E7
:1015000000F028F86168094A0906090F515CC840D3
:10151000074908600020FFF7CFFE0020F8BD00005B
:10152000002002400010024088130000F04700082D
:101530000C0000200448054900684968044A490530
:10154000490F515CC84070470C0000200010024059
:101550000048000810B5104A51680C200B460340A3
:101560000E48042B17D0082B15D18B020C4C1B0FE7
:10157000E45CD26A0A4B1207120F10339A5CC9035B
:1015800005D500231946FEF7C5FD214601E020469A
:10159000044903F0B4F810BD0010024000127A00B4
:1015A000D047000800093D00FEB5040070D0207847
:1015B000DC4DC0074AD068680007800F012807D0BB
:1015C00068680007800F022809D16868C00306D543
:1015D000286880033AD560680028E7D036E0616863
:1015E000012914D001208004002901D0052914D03C
:1015F0002A68012109048A432A60296881432960F5
:101600006068002816D0FFF739FE06460EE028680D
:101610000121090408432860F2E729680143296091
:10162000F5E7FFF72BFE801B64286ED8286880033F
:10163000F7D50BE0FFF722FE064604E0FFF71EFE9B
:10164000801B6428F1D828688003F7D4207801260D
:10165000800700283CDA68680007800F07D06868B8
:101660000007800F022809D16868C00306D42868E3
:10167000800716D5E06801280AD112E0E06800284A
:10168000286816D030432860FFF7F8FD074605E0CC
:1016900043E1FFF7F3FDC01B0228C6D82868800786
:1016A000F7D52868F82188432169C90008432860D4
:1016B0000EE0400840002860FFF7E0FD074604E028
:1016C000FFF7DCFDC01B0228AFD828688007F7D4DD
:1016D0002078000722D5E0690028686A0ED03043E0
:1016E0006862FFF7CBFD074604E0FFF7C7FDC01BAC
:1016F00002289AD8686A8007F7D50FE040084000B2
:101700006862FFF7BBFD074605E09DE0FFF7B6FD09
:10171000C01B022889D8686A8007F7D4207804277C
:101720004007002860DA00200190E869C00008D472
:10173000E969B8060143E961E969014001200091C6
:10174000019079480168C90511D4016882151143D7
:101750000160FFF793FD009005E0FFF78FFD009912
:10176000401A642870D870480068C005F5D5A06894
:1017700001280AD0002801D0052810D0286A400886
:1017800040002862286AB84301E0286A3043286292
:10179000A068002812D0FFF771FD00900AE0286AC7
:1017A00038432862F1E7FFF769FD0099411A5F4865
:1017B000814249D8286A8007F5D50DE0FFF75EFD24
:1017C000009006E0FFF75AFD0099411A5748814200
:1017D0003AD8286A8007F5D40198002804D0E9692E
:1017E000012000078143E9612078C00635D5606992
:1017F00001280CD0401D686B23D038436863686BA8
:10180000400840006863FFF739FD064622E0686B38
:1018100038436863686B30436863FFF72FFD064603
:1018200004E0FFF72BFD801B02285BD8686B800764
:10183000F7D5686BF8218843A169C900084368633C
:101840000BE0B8436863F4E74CE0FFF717FD801B3B
:10185000022847D8686B8007F7D4206A00285ED03A
:1018600069680907890F022942D001263606022835
:10187000286805D0B0432860FFF700FD044633E038
:10188000B0432860FFF7FAFC074604E0FFF7F6FCD8
:10189000C01B022826D828688001F7D4E86AE16ACC
:1018A000000900010843E862616AA06A08436968A8
:1018B0003D22120491430843686028683043286041
:1018C000FFF7DCFC044604E0FFF7D8FC001B02280D
:1018D00008D828688001F7D521E0FFF7CFFC001B6E
:1018E000022801D90320FEBD28688001F5D416E046
:1018F0000128F8D06868E96A01221204636A02408C
:101900009A420AD10907E26A090F914205D10F21D3
:1019100089040840A16A884201D00120FEBD002050
:10192000FEBD00000010024000700040881300005F
:10193000094910B5401E884201D9012010BD074C4D
:1019400060610321081F02F0F3FE0020A061072060
:101950002061002010BD0000FFFFFF0000E000E05C
:101960007047704730B5034620331A7F012A26D0CE
:1019700001221A770325CA682D02AA438D68002424
:101980002A430125AD02AA434D6800682A43012578
:10199000ED02AA430D682A4301252D03AA430D69D0
:1019A0002A4301256D03AA434D69C9692A430125CC
:1019B000AD03AA430A4342641C77002030BD0220D5
:1019C00030BD0000F0B502462032137F012B1ED03F
:1019D000012515770223537706687468B36870276A
:1019E000BC430F682743776000680A4CA04205D0CB
:1019F000094CA04202D0094CA04204D1802449687D
:101A0000A34319438160557700201077F0BD022071
:101A1000F0BD0000002C01400004004000400140E7
:101A200070B5040005D025462035687F002802D017
:101A300006E0012070BD00202877204600F014F851
:101A400002206877211D206801F0FAFD0120403452
:101A5000A071A877E87720706070A070E0702071A6
:101A600060716877002070BD30B587B004461421DE
:101A70006846FEF797FB2468334934488C420DD101
:101A8000C26910210A43C261C06900220840059062
:101A900011461120FFF752FC112024E02C4D0122A9
:101AA000002152040223AC4221D185695410254300
:101AB0008561856925400595446914434461406901
:101AC0000291104005900C20009003910491092090
:101AD00001936946C006FFF7F3FA0022114614206D
:101AE000FFF72CFC1420FFF71DFC07B030BD194D8B
:101AF000AC4206D181691143816180691040059033
:101B0000F3E7154A9442F0D1846901229204144308
:101B100084618469144005944469144344614069B4
:101B2000029110400590501203910090019304938C
:101B300069460A48FFF7C4FA002211461620FFF74B
:101B4000FDFB1620CFE7000000100040001002400F
:101B500000400140004401400048014000040048AA
:101B6000014620314A7F012A01D00120704702221C
:101B70004A770268D36801210B43D3600068094AA1
:101B8000904205D0084A904202D0084A904204D1BF
:101B900082685207520F062A02D002680A43026086
:101BA00000207047002C014000040040004001402C
:101BB000F8B5054604462035287F0026012817D0B1
:101BC0000120287702206877226890687727FF2312
:101BD000B8431B02984390600868502838D00EDC48
:101BE00020284FD006DC00284CD010281ED149E018
:101BF0000220F8BD302845D0402817D13AE06028AF
:101C00002ED0702819D001221203801A0FD09042D2
:101C10000CD1CB684A688968206801F0E3FD206830
:101C20008168012292031143816000E001260120B6
:101C30006877002028773046F8BDCB684A68896805
:101C4000206801F0CFFD2168886838438860EEE79E
:101C5000CA684968206801F0D5FE5021206806E076
:101C6000CA684968206801F007FF6021206801F018
:101C7000C4FDDCE7CA684968206801F0C3FE402162
:101C80002068F4E7226801461046F0E7704710B577
:101C9000044601F0BDFB204600F0A4FE10BDF8B5DF
:101CA00004460020264620360090307F0D4601284D
:101CB0000ED001203077002A0CD0042A19D0082A2F
:101CC0002AD00C2A51D00090002030770098F8BD1F
:101CD0000220F8BDEB6806CD083D206801F0A4FEA7
:101CE000206882690C218A43826120688169AA6820
:101CF0000FE0EB6806CD083D206801F0D0FE2068BB
:101D00008169032292029143816120688169AA68F6
:101D1000120211438161D7E72A6820689646297B21
:101D20006A68036A9C46036AFF270137BB43036264
:101D3000C36909079B089B001343F0229343090ED4
:101D40001943052263465202934372460A273A40DA
:101D500012021A43C16102622068C1690C229143D8
:101D6000C1612068C169AA682CE02B6820689E4682
:101D70006F682B7B026ABC46016A01273F03B943A7
:101D80000162C16903273F02B94367463F020F431F
:101D90000F2109038F431907090C052339435B03FE
:101DA0009A4373460A273B401B031343C1610362F6
:101DB0002068C269032189028A43C2612068C1691F
:101DC000AA6812021143C1617EE770B5040005D014
:101DD00025462035687F002802D006E0012070BD2E
:101DE00000202877204600F014F802206877211D93
:101DF000206801F025FC01204034A071A877E87725
:101E000020706070A070E0702071607168770020B1
:101E100070BD704770B5034604460025203340303E
:101E2000002908D0042909D008290AD04678427927
:101E3000012E0BD108E09E7F8278F9E7DE7FC27821
:101E4000F6E706780279F3E7012A01D0012070BD98
:101E50000222002909D004290ED0082912D042708C
:101E600042710C292ED001252AE09A7782702068D1
:101E7000C3681343C3600CE0DA77C2702068C2689D
:101E8000042304E0027002712068C26808231A4328
:101E9000C2600122206801F01FFC0C4A2068012169
:101EA000904205D00A4A904202D00A4A904204D198
:101EB00082685207520F062A02D002680A43026063
:101EC000284670BD2068C2681023E0E7002C01405E
:101ED0000004004000400140F8B504460068C668B0
:101EE00005690027A907002913DAB10711D5F91EE2
:101EF000016101202077206880698007204602D098
:101F0000FFF7C5FE04E000F0CDF8204600F0B2F97E
:101F10002777680716D5700714D504202168C043B9
:101F2000086102202077206880698005800F2046A4
:101F300002D0FFF7ACFE04E000F0B4F8204600F059
:101F400099F92777280715D5300713D50820216878
:101F5000C0430861042020772068C06980072046BC
:101F600002D0FFF794FE04E000F09CF8204600F059
:101F700081F92777E80616D5F00614D510202168D8
:101F8000C0430861082020772068C0698005800F61
:101F9000204602D0FFF77BFE04E000F083F82046E5
:101FA00000F068F92777E80708D0F00706D001208D
:101FB0002168C0430861204600F0FCFA280608D5D5
:101FC000300606D580202168C04308612046FFF70F
:101FD000C7FC680608D5700606D540202168C043B6
:101FE0000861204600F000FBA80608D5B00606D51B
:101FF00020202168C04308612046FFF7B2FCF8BDED
:1020000070B586B0044614216846FEF7CBF8204E22
:1020100001232568092000221E495B040224C00612
:10202000B5420CD14D691D434D6149690292194079
:102030000591C11401940494039200910FE0164E8F
:10204000B54211D14D691D434D6149690292194054
:102050000591C021009101210194039204916946E8
:10206000FFF72EF806B070BD0C488542FAD14B69D7
:102070000120800403434B614969029201400591AC
:102080008012009001940494039269460448E7E7A3
:10209000002C0140001002400004004000440140B8
:1020A000000400487047F8B5064604462036307FE5
:1020B00000270D4601280ED001203077002A0CD0D1
:1020C000042A1BD0082A2FD00C2A3ED0012700203A
:1020D00030773846F8BD0220F8BD206801F096FB45
:1020E0002068816908221143816120688269042186
:1020F0008A438261206881692A6912E0206801F0C0
:10210000C9FB206882690121C9020A4382612068F3
:1021100081690122920291438161206881692A6963
:10212000120211438161D2E7206801F0F3FB2068BD
:10213000C16908221143C1612068C26904218A4330
:10214000C2612068C1692A6912E0206801F024FC9C
:102150002068C1690122D2021143C1612068C269AD
:10216000012189028A43C2612068C1692A69120279
:102170001143C161ABE770B5040005D02546203599
:10218000687F002802D006E0012070BD002028777B
:10219000204600F015F802206877211D206801F024
:1021A0004FFA01204034A071A877E8772070607062
:1021B000A070E070207160716877002070BD000031
:1021C000F8B50546264A0168264891423CD1826905
:1021D000C1140A4382618069244C0840009022485F
:1021E00000261027A66081C4802060604000A060A7
:1021F00080002661E060800060611C48083CFEF7BA
:1022000041FE002801D0FEF7D7FC6C626562174CD6
:10221000154844342830A66081C4802060604000A6
:10222000A06080002661E060800060612046083880
:10223000083CFEF727FE002801D0FEF7BDFC2C630A
:10224000AC636C636562F8BD094A9142FBD1C26917
:1022500002210A43C261C06908400090F8BD000035
:10226000002C0140001002401C00024040020020EF
:102270000004004010B502F05DF810BD704700008A
:1022800030B504460222203000290AD004290DD09E
:102290002046403008290ED04378012B10D0012071
:1022A00030BD837F012BFAD182770AE0C37F012BF7
:1022B000F5D1C27705E00378012BF0D1027000E080
:1022C00042700122206801F007FA12492068124B7F
:1022D000884207D0984205D0104A904202D0104A56
:1022E000904204D1426C0125ED032A4342642068E8
:1022F0000122884204D00B49884201D0984204D17F
:1023000081684907490F062902D00168114301601D
:10231000002030BD002C014000400140004401403D
:102320000048014000040040F8B5044600200D4676
:10233000009021462046203140309446002D0AD09E
:10234000042D0DD0082D10D04278022A12D04278E8
:10235000012A11D075E08A7F022A0BD08A7FF7E725
:10236000CA7F022A06D0CA7FF2E70278022A01D089
:102370000278EDE70220F8BD6246002A61D0002B0A
:102380005FD00226484F494A002D09D0042D18D0AD
:10239000082D27D046700C2D44D00120009080E0FD
:1023A0008E77606A8762606AC262616A40480863C9
:1023B000226861463432606AFEF78EFD002840D103
:1023C00021E0CE77A06A8762A06AC262A16A38481B
:1023D0000863226861463832A06AFEF77DFD002856
:1023E0002FD115E00670E06A8762E06AC262E16A96
:1023F0002F480863226861463C32E06AFEF76CFDB4
:1024000000281ED109E02068C168012252021EE0A6
:102410002068C1680122920219E02068C168012287
:10242000D20214E0206B8762206BC262216B2048CD
:102430000863226861464032206BFEF74DFD00289C
:1024400001D00120F8BD2068C168012212031143A8
:10245000C16001222946206801F03EF9154A206832
:102460001549904207D0884205D0144B984202D0BB
:10247000134B984204D1436C0125ED032B43436475
:1024800020680123904204D00E4A904201D0884235
:1024900004D181684907490F062902D00168194310
:1024A00001600098F8BD0000F336000859370008B5
:1024B00091370008002C01400040014000440140D9
:1024C0000048014000040040F8B500260D460446CF
:1024D000002907D0042D0DD0082D13D00C2D19D0B4
:1024E000012655E02068C168012252029143C16073
:1024F000606A16E02068C168012292029143C160BF
:10250000A06A0EE02068C1680122D2029143C16036
:10251000E06A06E02068C168012212039143C160AD
:10252000206BFEF73DFC00222946206801F0D4F81C
:102530001C491B4B20688A10984208D01A4B9842BD
:1025400005D01A4B984202D0194B98420AD1036A1F
:102550000B4207D1036A134204D1436C0127FF03E6
:10256000BB4343642068036A0B4206D1016A1142EF
:1025700003D101684908490001602146012020314A
:10258000002D07D0042D07D04034082D06D06070F0
:102590003046F8BD8877FBE7C877F9E72070F7E7A2
:1025A000002C014011110000004001400044014096
:1025B0000048014010B500F0B3FA10BD02460020FB
:1025C000002908D0042909D008290AD00C2901D1F2
:1025D0001068006C70471068406B70471068806B23
:1025E00070471068C06B70477047704770470000B5
:1025F000F8B502680446D069116893689E4D064696
:102600002E4025468035002E71D09C4FDE07F60FF8
:102610000F4037437ED0C70706D0CF0504D501272A
:1026200017626A683A436A60820708D5DA0706D0FB
:10263000276802223A626A6804273A436A604207BE
:1026400008D5DA0706D0236804221A626A680223D2
:102650001A436A60020709D520220A40324305D096
:10266000236808221A626B6813436B60020509D560
:102670004A0107D501222368D2021A626B68202220
:1026800013436B606A68002A39D0800606D5880635
:1026900004D5A16E002901D02046884768682168CA
:1026A0008968490602D4282108422DD0204601F02D
:1026B000FFFB21688868400622D5EFF310800122D5
:1026C00082F310888A6840239A438A6080F31088D6
:1026D000606F002814D06A494163606FFEF760FBA9
:1026E00000280CD0606F416B08E000E012E0830628
:1026F00010D58B060ED5A16EA3E020468847F8BD05
:102700002046FFF773FFF8BD2046FFF76FFF00205C
:102710006860F8BD236E012B7ED1C3067CD5CB0645
:102720007AD5102313622268906826464006403608
:10273000002848DA616F086840680004000CE8D09F
:10274000378B8742E5D970838869202834D0EFF32E
:102750001080012181F3108811681F01B9431160B5
:1027600080F31088EFF31080012181F31088216835
:102770008A68520852008A6080F31088EFF3108054
:10278000012181F3108821688A684027BA438A6052
:1027900080F310882020286000202066EFF310804E
:1027A000012181F3108821680A689A430A6080F346
:1027B0001088606FFEF7D4FA02206066308B718B50
:1027C000401A81B234E0308B718B401A81B2708B29
:1027D00000289ED000299CD0EFF31080012686F3BC
:1027E00010881668FF272137BE43166080F31088D3
:1027F000EFF31080012282F3108822689668760831
:102800007600966080F310882020286000202066E3
:10281000A066EFF3108000E00EE0012282F3108842
:10282000226815689D43156080F310880220606659
:102830002046FFF7DAFEF8BD030606D50B0604D5E1
:10284000E16E002900D058E7F8BD4006FCD54806E7
:10285000FAD52046EFF31081012383F31088146822
:1028600040239C43146081F310882021C16700211C
:10287000C16600F0B5F8F8BD0F08000020010004A3
:102880009D3E000810B5040003D0E06F002802D080
:1028900007E0012010BD002178200155204600F0FE
:1028A00027F82420E0672068016849084900016092
:1028B000606A002802D0204601F028FA204601F084
:1028C000F5FB0128E6D0206841680122D20291433D
:1028D0004160206881680822914381602068016816
:1028E000012211430160204601F076FA10BD00007C
:1028F00010B586B0044614216846FDF753FC17490D
:102900002068884227D116488269012189030A4339
:10291000826182690A4005924269C9000A434261A4
:102920004069084005900320400200900220019079
:1029300000200290032003900120049009206946A2
:10294000C006FEF7BDFB002201211B20FEF7F6FCAE
:102950001B20FEF7E7FC06B010BD00000038014068
:102960000010024070B580231B58202B01D002209C
:1029700070BD00290BD0002A09D0012483682403EC
:10298000A34206D10369002B03D1CB0701D001205C
:1029900070BD00230366046863681B020BD5EFF368
:1029A0001083012585F3108825680126B606354376
:1029B000256083F3108801F011FC70BD10B500682C
:1029C0000449884204D1012203490448FFF7CAFFA1
:1029D00010BD00000038014057000020C802002050
:1029E0007047FEE7F8B5074600684649884262D15D
:1029F000387F454D0026454C01282CD12068002801
:102A00005AD0012857D100212846FFF7D7FD616829
:102A10000A04511A4018E060A168401A2061286831
:102A2000016A0A22914301622868016A01622069F1
:102A3000FDF712FD364A374BFDF794FC0022364B6A
:102A4000FDF790FCFDF743FD34496061884200DDED
:102A5000616126622660387F02282CD1606AA02737
:102A600000283CD0012826D104212748FFF7A6FDE5
:102A7000A16A0A04511A40182063E16A401A60638F
:102A80002868016AB94301622868016A0162606BC3
:102A9000FDF7E2FC1E4A1F4BFDF764FC00221E4BB3
:102AA000FDF760FCFDF713FD1C49A063884200DDC3
:102AB000A16366646662F8BD00211348FFF77EFDDE
:102AC000A0602868016A0A22914301622868016AAD
:102AD000022211430162012041C4083CBBE70421EA
:102AE0000948FFF76BFDE0622868016AB94301629B
:102AF0002868016A2022114301620120A6626062F7
:102B0000F8BD00000040014068010020AC09002031
:102B10008DEDB5A0F7C6B03E804F124100401C4677
:102B200000680549884206D104484168491C416053
:102B3000816A491C8162704700400140AC09002055
:102B4000F1B5012109200903C006FEF78BFB012521
:102B50005F4E604F604C002802D1E07800280BD017
:102B60002078002830D0012109200903C006FEF793
:102B700079FB012807D01CE0E1680098FDF71DFBF8
:102B8000E0602570EFE75548E16809185448814234
:102B90000BD254480188643909B20180642901DAF2
:102BA00064210180504805703E6000202070E07074
:102BB000E0604E48E16809184D48814204D2E0784F
:102BC000002801D13E60E570012189034948FEF7E4
:102BD00049FB002802D1207900280AD0607800281B
:102BE00030D0012189034348FEF73CFB012807D080
:102BF0001DE021690098FDF7E0FA20616570F0E7BB
:102C0000364821690918364881420CD235487D2260
:102C100001885201643109B20180914200DD0280D5
:102C2000314805703E6000206070207120612F489F
:102C3000216909182E48814204D22079002801D147
:102C40003E602571012109032A48FEF70BFB00288D
:102C500002D1607900280AD0A078002836D001215E
:102C600009032448FEF7FEFA012807D023E0616932
:102C70000098FDF7A2FA6061A570F0E71748616956
:102C800009181748814212D21B488178002907D0C1
:102C9000002181701348022101731348057005E07B
:102CA00011490D7085700F49002008733E600020A7
:102CB000A070607160610D48616909180C4881421B
:102CC00004D26079002801D13E606571F8BD000032
:102CD000CDCCCC3D14000020340000203233B3C2F0
:102CE00032337302280A002076000020FFFF3FC025
:102CF000FFFF7F00000400488C00002010B50E4844
:102D00000188491C01804188491C41808188491CF7
:102D10008180C188491CC1800189491C0181418988
:102D2000491C41818189491C8181C189491CC1811A
:102D300000F088FB10BD00007800002008B50C48AA
:102D40004169012211434161406910400022009015
:102D500011460A20FEF7F2FA0A20FEF7E3FA0022F3
:102D600011460B20FEF7EAFA0B20FEF7DBFA08BD4E
:102D700000100240F0B587B014216846FDF712FA42
:102D80002C484269012189050A43426142690A408F
:102D90000592426949110A43426142690A4005921B
:102DA000426949000A434261406909270840FF0619
:102DB0000590012230213846FEF759FA0126F60324
:102DC000002231463846FEF752FA002208211A48FE
:102DD000FEF74DFA30200090012503200390019565
:102DE000029569463846FEF76BF90520000300247A
:102DF00000900194694602940F48FEF761F9280398
:102E000000900194694602943846FEF759F90294FD
:102E100069463846009601950394FEF751F908205B
:102E2000009002946946019503940348FEF748F91F
:102E300007B0F0BD001002400004004810B58AB091
:102E40000024049405940694079408942648099451
:102E50000094019402942349039401602F2184601B
:102E600041600461446121498461C160FEF7D8FD7D
:102E7000002801D0FDF7A0FE01200003049004A962
:102E80001948FEF795FE002801D0FDF795FE16487B
:102E9000FEF79BFF002801D0FDF78EFE089408A9DD
:102EA00011480994FEF78EFD002801D0FDF784FE3D
:102EB00001200190009402940022694603940A487C
:102EC000FEF7EDFE002801D0FDF776FE04226946EC
:102ED0000548FEF7E4FE002801D0FDF76DFE0AB0BC
:102EE00010BD00000040014068010020FFFF00000D
:102EF00010B590B01C2108A8FDF754F920216846B0
:102F0000FDF750F920481F49016000240B2184601F
:102F1000416004614461C7218461C160FEF780FDA6
:102F2000002801D0FDF748FE1748FFF724F90028D4
:102F300001D0FDF741FE60200D94099408900A9499
:102F40000B940C94002208A90E940F48FFF7ABF8DD
:102F5000002801D0FDF730FE0120009440030294C8
:102F60000590019403940494694607940648FEF77B
:102F7000F9FC002801D0FDF71FFE0348FFF740F8D9
:102F800010B010BD00440140B00100201FB5002466
:102F90001648009401940294134903940160144963
:102FA000846041600461446112498461C160FEF73C
:102FB00037FD002801D0FDF7FFFD0C48FEF705FFA7
:102FC000002801D0FDF7F8FD012001900094029443
:102FD0000022694603940548FEF761FE002801D0EF
:102FE000FDF7EAFD1FBD000000480140F801002088
:102FF000BF120000FFFF000010B592B000240F9434
:103000001C2168461094FDF7CDF8202107A8FDF794
:10301000C9F82549254812C004608460C4603B217A
:10302000046141600838FFF7A6F8002801D0FDF7D9
:10303000C3FD0F940FA91D481094FEF7C3FC002890
:1030400001D0FDF7B9FD6020059401940090029431
:10305000039404940022694606941448FFF723F869
:10306000002801D0FDF7A8FD0C2269460F48FFF7A4
:103070001AF8002801D0FDF79FFD012007944003B6
:1030800009940C9008940A940B9407A90E9407488D
:10309000FEF768FC002801D0FDF78EFD0348FEF71F
:1030A000AFFF12B010BD0000002C014090000020C6
:1030B00010B58AB0002407941C2168460894FDF7D7
:1030C00071F81C481A49016007218460416004615D
:1030D0009D218461C160FFF74EF8002801D0FDF703
:1030E0006BFD079407A913480894FEF76BFC0028B2
:1030F00001D0FDF761FD6020009001940294002250
:10310000694604940B48FEF7CEFF002801D0FDF776
:1031100053FD042269460748FEF7C5FF002801D089
:10312000FDF74AFD0348FEF76BFF0AB010BD000033
:1031300000040040D800002010B50948074901608C
:103140002F214160002109228160C2608161FEF768
:1031500067FC002801D0FDF72FFD10BD00100040D6
:103160002001002010B50C480A490160E121490204
:10317000416000218160C16001618161C1610C22F7
:10318000016242614162FFF77DFB002801D0FDF73B
:1031900013FD10BD00380140C8020020F1B54B48B6
:1031A0004C4A81784A48022604250024865F455F00
:1031B000176884B0012905D04748017E4748002997
:1031C00027D121E0002D18D03046FDF733F906460F
:1031D0002846FDF72FF90146424D41482B46019004
:1031E0000C3B32460095029059E0686AFDF75BF9A6
:1031F00038490968486305B0F0BD3B4901200870B3
:10320000324884707C63F6E733492031097F002916
:103210004FD0324801680498FCF7CFFF2F4908606F
:103220000121890788422CDB002D1FD03046FDF795
:1032300001F906462846FDF7FDF801462848294DC4
:1032400001902B4602900C3B324600950498FDF706
:1032500027FAFF20696AC005C14200D36C62686A20
:10326000FDF721F91B490968486305E01E49012063
:103270000870164884707C63012018498007086034
:10328000B9E7002DB9D03046FDF7D4F80246154D08
:1032900013482B46154901900C3B00950290049869
:1032A000FDF7FEF9FF20696AC005C1429DD36C623B
:1032B0009BE70C49046000204C6278630C4848602E
:1032C0000949012008700148847094E78C000020AF
:1032D000280A0020B0010020AC090020880000204E
:1032E00000C07944000A0020760000200000C84297
:1032F0000000A041044803490160044941600021E5
:10330000816070470BD7233DF409002090C2753DC2
:1033100010B500F001F810BD70B50B4C002534223B
:103320002168012809D08A63C820FDF78BFB20683B
:1033300085630648FDF786FB70BD4A63C820FDF72C
:1033400081FB20684563F4E7D8000020B80B00003B
:10335000FEE7000070B506211048FDF7A7FC0F4CF2
:103360000F4E2078234601220E4D083BAA2802D199
:103370002079FF2806D000F017F8608830802A7086
:103380001A7005E0608830802A701878002803D011
:103390000020187000F012F870BD000070000020CE
:1033A000280A0020760000200348AA210170642129
:1033B0004180FF21017170477000002010B5062187
:1033C0000148FDF795FC10BD7000002070B5094C58
:1033D0000025217800290BD06168FCF7EEFE3F2123
:1033E00009066060884202DBFFF7E8FF257070BDC8
:1033F000656070BD680000207047704710B5FDF72C
:10340000D9FA0248C088FDF745FB10BD280A002004
:1034100010B5054A0168914204D1007F012801D10D
:1034200000F0CCF810BD00000048014010B5FDF7D9
:103430002BFF03480078002801D0FFF75FFC10BD88
:103440008C00002070B5274C00252088022800D36E
:10345000258060880A2807D3234E3046FFF770FB8B
:103460003046FDF73FFA6580A088142807D31F4E29
:10347000304600F07FFF3046FFF7C0FFA580E088B0
:1034800032280AD31A4E3046FDF76EF93046FFF760
:1034900085FE3046FDF7FCF9E5802089642803D3DA
:1034A0001448FDF7A9F925816089FF212D31884253
:1034B00000D36581A089FF21F53188420BD33F26D7
:1034C00036063046FDF702FA3046FFF77FFF3046FA
:1034D000FDF72AFAA581E0897D21C900884200D341
:1034E000E58170BD780000200AD7233C0AD7A33CB1
:1034F000CDCC4C3DCDCCCC3D70B594B030216846A0
:10350000FCF750FE002401250E94280413940F9418
:1035100009900D941094009500010C9412940226C9
:1035200001950A90119408960B946846FEF73CF8B2
:10353000002801D072B6FEE707200C900E940121FE
:103540000D960F940CA8FDF771FF002801D072B6FC
:10355000FEE710A810951294FDF7F4FE002801D0A4
:1035600072B6FEE714B070BD7047000010B50C4C89
:1035700000202070FFF7EEFEFDF7F6FAFDF710FBD6
:10358000FDF702FBFDF7CAFAFDF7B4FA00F090FF71
:10359000FFF7B0FE0449034808600120207010BD09
:1035A0008C000020CDCCCC3D1400002010B502488A
:1035B000FEF792FC10BD00006801002070B51148B4
:1035C0000068456B104C6560A068854201D9281AD7
:1035D00002E00E49081A40192060FCF736FF014648
:1035E0000B48FCF780FEA5600A49E060FCF73EFE50
:1035F0000949FCF778FEFCF73DFF084948800020A8
:10360000886070BDF801002058000020FFFF000016
:1036100000401C46000070420000A040280A002024
:1036200010B50248FEF758FC10BD0000F80100205C
:1036300010B50248FEF750FC10BD0000200100202C
:10364000F0B502681E4B1F4C984201D0A04203D136
:103650007025AA434D682A431B4D1C4E1C4F9842AF
:103660000AD0A04208D01B4CA04205D0A84203D0EB
:10367000B04201D0B84205D114460322120294434D
:10368000CA6822438024A2434C69224302608A68AC
:10369000C2620A688262984205D0A84203D0B04252
:1036A00001D0B84201D10969016301214161016979
:1036B000C90703D00169490849000161F0BD000054
:1036C000002C014000040040004001400044014043
:1036D000004801400020004010B5CB06DB0E012160
:1036E000046A99408C430462016A9A401143016262
:1036F00010BD10B5446A0121626A824206D1217769
:103700008069002822D13E2001551FE0A26A824232
:1037100007D1022222778069002817D13F20015566
:1037200014E0E26A824207D10422227780690028ED
:103730000CD14020015509E0226B824206D10822BB
:1037400022778069002801D1412001552046FEF7EB
:1037500091FD0020207710BD10B5446A616A814256
:1037600001D101200DE0A16A814201D1022008E0CF
:10377000E16A814201D1042003E0216B814201D141
:10378000082020772046FEF779FD0020207710BD25
:1037900010B5446A0121626A824203D121773E203A
:1037A000015519E0A26A824204D1022020773F200D
:1037B000015511E0E26A824204D1042020774020C2
:1037C000015509E0226B824204D108202077412074
:1037D000015501E03D2001552046FEF757FA002033
:1037E000207710BD30B58468FF252D021B021343DE
:1037F000AC430B432343836030BD826870239A43FC
:103800000A4307210A43826070470000F0B5056A49
:10381000026A520852000262436882697024A2431D
:1038200092080C6892001443022295438A68164E4F
:103830002A43144DA84207D0B04205D0134FB842D6
:1038400002D0134FB84206D10827BA43CF681743B6
:10385000042297433A46A84207D0B04205D00B4D08
:10386000A84202D00A4DA84206D103252D02AB433F
:103870004D691D438B692B434360846149684163F3
:103880000262F0BD002C01400040014000440140B4
:103890000048014070B5046A026A10239A4302622C
:1038A0004368826973252D02AA430D682D021543D2
:1038B000202294438A6812012243124CA04208D16C
:1038C0001446CA688026B443120122434024A2430E
:1038D00008E00D4CA04205D00C4CA04202D00C4C8C
:1038E000A04208D10324A402A3434C69A4001C43B2
:1038F0008B699B0023434360856149688163026251
:1039000070BD0000002C0140004001400044014017
:103910000048014070B5046A026AFF2301339A43EC
:1039200002624368C2697025AA4392080D6892003A
:1039300015430122520294438A6812022243124C18
:10394000A04208D11446CA68C614B44312022243E6
:103950000415A24308E00D4CA04205D00C4CA04237
:1039600002D00C4CA04208D103242403A3434C6989
:1039700024011C438B691B0123434360C5614968D3
:10398000C163026270BD0000002C01400040014094
:10399000004401400048014030B5046A026A012336
:1039A0001B039A4302624368C26973252D02AA432E
:1039B0000D682D0215430122520394438A681203B5
:1039C00022430C4CA04208D00B4CA04205D00B4C1B
:1039D000A04202D00A4CA04205D10124A403A34373
:1039E0004C69A40123434360C561496801640262D4
:1039F00030BD0000002C0140004001400044014067
:103A00000048014030B5036A046A64086400046237
:103A10008469F025AC43120122430A24A3430B43DB
:103A20008261036230BD000070B5056A046A6408F3
:103A30006400046284690D4EB04205D00C4EB04261
:103A400002D00C4EB04202D1A408A40000E0012232
:103A50001443F02294431A07120E0A2322439D4373
:103A6000194029438261016270BD0000002C0140B1
:103A7000000400400040014030B5046A036A10258C
:103A8000AB43036283690F252D031203AB431A4333
:103A9000A0239C43090121438261016230BD70B5BE
:103AA000056A046A1026B443046284690326360258
:103AB000B443120222430F2424031B071B0CA2430E
:103AC0001343A022090195431140294383610162F8
:103AD00070BD70B50D46044600F091F8204600F028
:103AE00031F800F0DFF8284600F02CF800F0DAF8A2
:103AF00000F0B4F870BD000070B50024002806D0B6
:103B0000012806D0022806D0032807D105E06C243E
:103B100004E06A2402E0682400E06E240848455C62
:103B200000F06DF8204600F00DF800F0BBF82846D4
:103B300000F008F800F0B6F800F090F870BD000052
:103B40004D00002070B586B0064620200090012070
:103B500001900020029003200924E40603906946A6
:103B60002046FDF7ADFA002210212046FDF77FFB2D
:103B7000002220212046FDF77AFB0025002210219B
:103B80002046FDF774FB0220FCF75CFFF00901D032
:103B9000012200E0002220212046FDF768FB0420DE
:103BA000FCF750FF7006060E0420FCF74BFF0122C5
:103BB00010212046FDF75BFB0420FCF743FF0022A9
:103BC00010212046FDF753FB0420FCF73BFF6D1C42
:103BD000EDB2082DD2D3002210212046FDF747FB7D
:103BE000002220212046FDF742FB06B070BD0001F7
:103BF000401D10B5C1B24820FFF76BFF10BD10B5D6
:103C000086B0202000900120019000200290032027
:103C10000924E406039069462046FDF751FA012283
:103C200020212046FDF723FB012210212046FDF72D
:103C30001EFB0420FCF706FF002220212046FDF792
:103C400016FB0420FCF7FEFE002210212046FDF7A3
:103C50000EFB0420FCF7F6FE06B010BD10B586B0D2
:103C600020200090012001900020029003200924D0
:103C7000E406039069462046FDF722FA002220213F
:103C80002046FDF7F4FA012210212046FDF7EFFA55
:103C90000420FCF7D7FE012220212046FDF7E7FA99
:103CA00006B010BD30B50925ED0685B0002401220F
:103CB00020212846FDF7DBFA0420FCF7C3FE202074
:103CC00000900020019069462846FDF7F9F901228D
:103CD00010212846FDF7CBFA0420FCF7B3FE08E0DC
:103CE000641CE4B2FA2C04D9FFF7B8FF012005B038
:103CF00030BD20212846FDF7B5FA0028F0D100227A
:103D000010212846FDF7B3FA0020F0E710B5818CAA
:103D1000090707D501684A680123DB039A43436B0F
:103D20001A434A60818CC90707D001684A68012399
:103D30005B049A43836A1A434A60818C890707D5DA
:103D400001684A6801231B049A43C36A1A434A6004
:103D5000818C490707D501684A6801239B049A436F
:103D6000036B1A434A60818CC90607D502689168C3
:103D700001231B039943836B19439160818C89064E
:103D800007D501688A6801235B039A43C36B1A4312
:103D90008A60818C490612D503685A680121090599
:103DA000046C8A4322435A60026C8A4207D102683B
:103DB000516803235B059943436C19435160818C1F
:103DC000090607D501684A680123DB04806C9A4321
:103DD00002434A6010BD0000FEB50746002580374B
:103DE00004467D60FDF74AFA019020680068264687
:103DF00000076036002819DA2748009001210022C8
:103E000049052046019B00F041FA00280ED0EFF34F
:103E10001080012181F3108821680A6880239A4369
:103E20000A6080F310882020E06729E0206800689D
:103E3000400728D518480090012100228905204616
:103E4000019B00F023FA00281DD0EFF31080012120
:103E500081F3108821680A68FF2321339A430A609E
:103E600080F31088EFF31080012181F3108821681E
:103E70008A68520852008A6080F3108820203860D7
:103E800035760320FEBD2020E06738602566656634
:103E900035760020FEBD0000FFFFFF0110B5406A2F
:103EA0000022014640314A834A82FEF79FFB10BD43
:103EB00010B5EFF31081012282F3108802681368B5
:103EC000FF242134A343136081F31088EFF31081A2
:103ED000012282F31088026893685B085B0093609C
:103EE00081F31088016E01290BD1EFF310810122BB
:103EF00082F31088026813681024A343136081F3CF
:103F00001088202280210A5000210166816610BDA0
:103F100070B501464031034680338C8B1D680268C2
:103F2000222D04D0906908210843906170BD928CC5
:103F3000456D22402A80426D921C42654A8B521E7A
:103F40004A834A8B002AF1D1EFF31082012484F3D3
:103F5000108804682568FF262136B543256082F362
:103F60001088EFF31082012484F310880468A56898
:103F70006D086D00A56082F3108820221A6000236E
:103F8000836643660468626812020BD5EFF3108201
:103F9000012585F3108825680126B606B5432560FE
:103FA00082F31088026E012A02D0FEF707FD70BD71
:103FB0000366EFF31082012383F3108804682568F9
:103FC00010239D43256082F310880268D469E4437E
:103FD000E40600D41362098BFEF707FB70BD70B5D1
:103FE00001464031034680338C8B1D680268222DC8
:103FF00004D0906908210843906170BD928C2240E2
:10400000446D2270426D521C42654A8B521E4A8397
:104010004A8B002AF1D1EFF31082012484F3108837
:1040200004682568FF262136B543256082F3108891
:10403000EFF31082012484F310880468A5686D08EA
:104040006D00A56082F3108820221A600023836629
:1040500043660468626812020BD5EFF310820125F3
:1040600085F3108825680126B606B543256082F3DE
:104070001088026E012A02D0FEF7A0FC70BD036614
:10408000EFF31082012383F310880468256810235E
:104090009D43256082F310880268D469E443E406F6
:1040A00000D41362098BFEF7A0FA70BD70B5044608
:1040B00080682169E269084361690025114322682B
:1040C000084311683F4B194001431160216848685B
:1040D000032212039043E26810434860A169206AFA
:1040E000084321688A680B231B029A4302438A60B3
:1040F00035492068884210D13448006B8007800F12
:104100000ED0012805D0022805D003280AD10221AB
:1041100009E0042107E0082105E02D49884201D18A
:10412000002100E010210120E369C003294A2A4E42
:10413000834222D1002906D0022907D0042907D0C2
:10414000082935D108E0FDF7F5F903E0104603E052
:10415000FDF700FA002830D0616840004A08801856
:10416000FBF7C2FF01461039B14221D81A49491C58
:1041700001400007400F08431DE0002906D0022936
:1041800007D0042907D0082912D108E0FDF7D2F999
:1041900003E0104603E0FDF7DDF900280DD061686B
:1041A0004A081018FBF7A0FF01461039B14201D9A7
:1041B000012502E080B22168C8600020A066E066A8
:1041C000284670BDF369FFFF00380140001002402F
:1041D0000044004000127A00EFFF000030B5416556
:1041E000014640310A834A830023836601228568A1
:1041F0001203FF24954204D10569002D2ED1204CD5
:104200002CE0002D26D08B83014680314B60222389
:104210000B60EFF31081012383F3108803689C681F
:1042200001252C439C6081F310888168914202D162
:104230000169002914D0134981660169002911D050
:10424000EFF31081012282F3108800680268FF23D7
:1042500021330FE00569002D00D07F248C83D3E744
:1042600009498166EFF31081012282F3108800680A
:10427000026820231A43026081F31088002030BDB9
:10428000FF010000DF3F0008113F0008FFB50646B0
:104290008036054681B00F460446603534E00A9802
:1042A000401C31D0FCF7EAFF0499411A0A98814278
:1042B00018D8002816D020680168490724D5802F17
:1042C00022D0402F20D0C169C94309070CD4082748
:1042D00007622046FFF7ECFD77600020287601207A
:1042E00005B0F0BD0320FBE7C069C04300050BD457
:1042F00001202168C00208622046FFF7D9FD202076
:10430000706000202876EDE72068C1693846884350
:1043100005D0002103988142C1D00020E0E70121AF
:10432000F8E7000010B50248FEF762F910BD000082
:10433000C8020020F8B5054600680B49884212D132
:10434000287F0026094F0A4C082804D1FE7003CCB0
:10435000083CFEF7B9F8287F012804D1FE71A16955
:104360006069FEF7B1F8F8BD002C01402400002080
:1043700070030020F8B5464C7F252078ED05002815
:1043800018D060683C2114306060FBF7ADFE182146
:10439000FBF7AAFE0E461720801BC0B2FF236070F9
:1043A0001A461946009500F099F8172E5ED30020A2
:1043B00020705BE0374881783748002908D13749B9
:1043C000097E002904D135492031097F002958D0C0
:1043D000FF2300901A461946184600F07FF830492E
:1043E0000420085EFCF726F82E49FBF77CFF2E49D7
:1043F000FBF73CFF2D49FBF735FFFCF754F8C1B242
:10440000606814306060FBF76FFE1821FBF76CFEEC
:104410000C46172900D90024FF231A4619462046C6
:10442000009500F05BF8641CE4B2172C00D900245E
:10443000FF231A4619462046009500F04FF8641CE9
:10444000E4B2172C00D90024FF231A46194620464F
:10445000009500F043F8641CE0B2172800D9002052
:10446000FF231A461946009500F038F8084808302E
:10447000C178002902D0C079002801D100F002F9EA
:10448000F8BDFF2300901A4619461846ECE70000D5
:104490001C0000208C000020CDCCCC3EAC090020BC
:1044A000280A002000007A450000A0420000C8420F
:1044B00008B5084908480C2206C0C1600021016106
:1044C0007F20C00500900B460A46FF2000F006F84A
:1044D00008BD00009000002070030020F0B5664D7C
:1044E00087B02870654F0390049039727A72BB725E
:1044F000491C0024154608090093FBF7A6FF0C99F8
:10450000FBF7B4FE5E49FBF7B1FEFBF7CCFFC6B28A
:104510006D1CFE722809FBF798FF0C99FBF7A6FEAD
:104520005749FBF7A3FEFBF7BEFFC5B23D73009BE7
:104530005B1C1809FBF789FF0C99FBF797FE5049A4
:10454000FBF794FEFBF7AFFFC2B27A734A4B3946D2
:104550000498083B2831FF280CD00398182854D819
:1045600018246043588000202B4683401B064DD5FD
:1045700029244CE00020588000202B4683401B0655
:1045800001D5292300E014233B4F401C083F7F88BE
:10459000C0B2BC467F00CB53374B6746083B7F1CFD
:1045A0005F800828E9D30020334683401B0601D5ED
:1045B000292300E01423304F401C083F7F88C0B2FD
:1045C000BC467F00CB532C4B6746083B7F1C5F806B
:1045D0000828E9D30020134683401B0601D5292370
:1045E00000E01423244F401C083F7F88C0B2BC4623
:1045F0007F00CB53204B6746083B7F1C5F80082819
:10460000E9D3641CE4B2182CB6D330E014241A4B5E
:10461000401C083B5B88C0B25F00CC53164C5B1C4F
:10462000083C638008289FD30023204634469C40E2
:10463000240601D5292500E0142544885B1C670069
:10464000641CCD53DBB24480082BEFD30023144607
:104650009C40240601D5292500E0142544885B1CD4
:104660006600641C8D53DBB24480082BEFD30248F4
:104670000121817007B0F0BD2400002070030020EC
:1046800000002041F8B50E4C0026A0780D4D012702
:10469000002808D02A4603CD0B4B2832083DFDF7F1
:1046A00043FEE770A670A079002807D08923074A47
:1046B000A9696869FDF738FEE771A671F8BD0000C9
:1046C0002400002070030020810200009A080020CE
:1046D0002021020C01D010211046020A01D0104600
:1046E0000839020901D01046091F820801D010467E
:1046F000891E420801D0881E7047081A7047F8B515
:10470000040C8BB2264682B25E430D0C1046370C69
:104710005843360480190021794116466E43370C00
:1047200036048019794126466E438919F8BD000088
:104730008307FF22DB0E9A408907090E9940002863
:1047400008DB830809489B001B181868904308433E
:10475000186070470007000F0838830804489B0062
:104760001B18D86990430843D861704700E400E003
:1047700000ED00E002E008C8121F08C1002AFAD1CB
:1047800070477047002001E001C1121F002AFBD1D1
:104790007047FCF781FDFEF7AFFEFEF7EBFAFEF780
:1047A000CDFAFEF729FCFEF783FCFEF747FBFEF788
:1047B0009FFBFEF7D7FCFEF7E9FBFEF7BDFCFEF71B
:1047C000D5FE0020FEF7A4FD0120FEF7A1FDF8E7CD
:1047D00002030405060708090A0B0C0D0E0F101042
:1047E0000102030405060708090A0B0C0D0E0F1041
:1047F0000000000000000000010203040607080991
:104800000000000001020304284800080000002006
:104810009000000074470008B8480008900000208D
:10482000A80D0000844700080100000004000000FB
:104830000000000000127A000000000000000000EC
:104840000000000001000000000000000000000067
:104850000000000000000000000000000000000058
:104860000000000000000000000000000000000048
:104870000000000000F584B397C6577785F7D7008E
:104880000000000000000000000000000000000028
:104890000000000000000000000000000000000018
:1048A0000000000000000000000000000000000008
:0848B000000000000000000000
:04000005080000B53A
:00000001FF
