:020000040800F2
:10000000B0150020590100085D5B0008E94E0008AA
:1000100000000000000000000000000000000000E0
:10002000000000000000000000000000415D00082A
:100030000000000000000000A95C0008AD5D0008A1
:100040006B010008000000006B0100086B01000854
:100050006B0100086B0100086B010008812B000890
:1000600000000000F51B0008051C00086B010008DB
:10007000BD1400086B010008E15F000800000000EB
:100080006B0100086B010008000000006B01000814
:100090006D5F00086B0100086B0100086B01000830
:1000A0006B0100086B0100086B0100086B01000880
:1000B0006B01000800F002F800F03EF80CA030C818
:1000C000083824182D18A246671EAB4654465D46D4
:1000D000AC4201D100F030F87E460F3E0FCCB64660
:1000E0000126334200D0FB1AA246AB4633431847E1
:1000F0005C6F00007C6F0000103A02D378C878C1B2
:10010000FAD8520701D330C830C101D504680C6059
:10011000704700000023002400250026103A01D378
:1001200078C1FBD8520700D330C100D50B607047AF
:100130001FB51FBD10B510BD01F05EF91146FFF7E8
:10014000F7FF06F0A3FC01F076F903B4FFF7F2FF26
:1001500003BC01F0ABF9000007488047074800479F
:10016000FEE7FEE7FEE7FEE7FEE7FEE70448054997
:10017000054A064B70470000F35E0008B500000812
:10018000B00F0020B0150020B0110020B0110020E9
:1001900010B5202A04DB0846203AD040002110BDCB
:1001A0000B462024D340D040A21A91400843194660
:1001B00010BDFEB5054610460C46184373D0AE463A
:1001C0008C460020AD1A01469C4167D36646002745
:1001D00001243D46B61A9D4102D313463A462124D6
:1001E000654676462F04360C3E432D0CB61A9D41CB
:1001F00004D3150C1B042B431204103465467646B9
:100200002F06360A3E432D0AB61A9D4104D3150E19
:100210001B022B4312020834654676462F07360927
:100220003E432D09B61A9D4104D3150F1B012B43E4
:100230001201241D65467646AF07B6083E43AD0859
:10024000B61A9D4104D3950F9B002B439200A41C2A
:1002500065467646EF0776083E436D08B61A9D411F
:100260001AD392185B41641C16E000187646654666
:100270004941B71A9D410191009009D36046B11AD6
:1002800098418E468446009801990025401C69419A
:10029000DD0752082A435B08641EE6D572466346B2
:1002A00003B0F0BDFFE700200146C046C0462A4625
:1002B0002346F5E701E004C0091F0429FBD28B07A0
:1002C00001D50280801CC90700D002707047002948
:1002D0000BD0C30702D00270401C491E022904D370
:1002E000830702D50280801C891EE3E70022EEE727
:1002F0000022DFE7002203098B422CD3030A8B4242
:1003000011D300239C464EE003460B433CD400220D
:1003100043088B4231D303098B421CD3030A8B421F
:1003200001D394463FE0C3098B4201D3CB01C01AED
:10033000524183098B4201D38B01C01A52414309B8
:100340008B4201D34B01C01A524103098B4201D3A6
:100350000B01C01A5241C3088B4201D3CB00C01A13
:10036000524183088B4201D38B00C01A524143088B
:100370008B4201D34B00C01A5241411A00D20146B0
:100380005241104670475DE0CA0F00D04942031049
:1003900000D34042534000229C4603098B422DD398
:1003A000030A8B4212D3FC22890112BA030A8B4240
:1003B0000CD3890192118B4208D3890192118B428F
:1003C00004D389013AD0921100E08909C3098B4214
:1003D00001D3CB01C01A524183098B4201D38B0157
:1003E000C01A524143098B4201D34B01C01A5241FA
:1003F00003098B4201D30B01C01A5241C3088B423F
:1004000001D3CB00C01A524183088B4201D38B0029
:10041000C01A5241D9D243088B4201D34B00C01AB3
:100420005241411A00D20146634652415B101046C8
:1004300001D34042002B00D54942704763465B1010
:1004400000D3404201B50020C046C04602BD7047FF
:10045000704770470246C80FC00781434B0030B554
:100460004B405B009B0D20D01923DB06C9180123EC
:100470001B05994220DB0324A40704251346AB4047
:100480000BD3002B04D1EB0613409B00E34204D4B2
:1004900001246407002312195941FF231B059942C7
:1004A0000BD2C9000143500F09E0CB0204D5014330
:1004B0000803024305D0054830BDFF21C9050843A4
:1004C00030BD084607210905884330BD0000C07FC4
:1004D000F0B50C46871A9C410D46861A9D4103D201
:1004E000C01BA141D21963410D0D1F0DC94EEC1B5C
:1004F000AE435CD07F057F0D0026002F51D02D0527
:10050000AC46A943DD020123ED0A1B051D43202350
:100510001B1B24D41746E740381871412F46E7408B
:10052000CC199D402818314661410C0D27D16144FA
:100530009A4013D50023401C594152000ED1400867
:10054000400001224B005205D34207D3052040074B
:10055000C14201D5B04900E0B0493046F0BD6B0062
:10056000002A00D001229A181F23203C1B1B01D512
:10057000002302E0E540281871410C0DD7D001247A
:1005800024050919C407CD0740084908E40F28438A
:100590006144002CD5D00024401C61419A40D0D148
:1005A000CDE76A05520DD9D1C90FC907D5E79C4DD2
:1005B0004E00002801D0012400E0002434195F001F
:1005C000002A01D0012600E00026BE19954FAC425A
:1005D0000CD8AE420AD8B44206D001256D05EC42D3
:1005E000BCD010461946F0BD9942FCD000203946D7
:1005F000F0BDF0B51FB40C460F46811A9F41254649
:10060000861A9D4106D20125ED076F40401ABC4174
:1006100052187B41210D1E0D8D1BAC467D4D8D4327
:100620007ED075056D0D7CD00D05AE46AC431B0329
:100630001B0B794D52429D41202366469B1B14D3D0
:100640001746F740381800260090744160462F4640
:100650000741E41900989D402818664116D4714658
:1006600071189A4025D5012320E093182A466A4143
:100670005200002B00D0521C1E23203E9B1B002B3F
:1006800061DD3541EE1728186641E8D5001876413E
:100690005B1C9A4000D3401C4B05F3181524E34023
:1006A00010D3002B52D071467118D30FC01802D34B
:1006B000491C05B0F0BD0123DB079A42F9D140087F
:1006C0004000F6E701225205B21801D1002853D0AC
:1006D0000123CC0ADB029943891E002A08D1020CAF
:1006E00003D0020C0004103902E002460020203939
:1006F0000023550B05D112020823550B01D15201DD
:100700000D23550C01D112011B1DD50C01D19200F6
:100710009B1C150D01D152005B1C2025EE1A01E037
:100720002CE022E00546F54015439840CA1AE1073F
:1007300069181305C918002ABBDA032040070818F6
:10074000C10FC9070FE071466118B2E7F107400811
:100750000843711071444A000CD001235B059A4292
:10076000A7D2C90FC9070020A3E74905490D26D123
:10077000002001E00028F4D100219AE7284D66000E
:10078000002801D0012100E0002171185F00002A3B
:1007900001D0012600E00026BE19224FA94210D840
:1007A000AE420ED8B14208D001256D05E94206D00F
:1007B0001946A802414010467BE79C4201D02146E1
:1007C00077E70020394674E710B50C465C4005D544
:1007D0000124E4076340FFF70CFF10BDFFF778FE2C
:1007E00010BD30B40C465C4004D50124E4076340DE
:1007F00030BC6DE630BCFCE670B50124E407614016
:100800000D465D4002D4FFF763FE70BD6340FFF705
:10081000F0FE70BDFF0700000000F0FF0000F07F59
:100820000000E0FF0000F87FF0B5F94D0C091E094B
:100830002C402E402F468BB0A7437DD0B543FCD033
:10084000002E7AD0002CFCD00D465D40ED0F2543E4
:10085000AC1BFF25AD0464190894C502440DC90200
:100860002143500DDC0204430120C007014304432F
:10087000D2020191200C110C00958C4601042346F4
:100880008B430A9161460904E24D8A430991010AAA
:100890007D4449198039097805464D4301266D1874
:1008A000F605751B6943C90C640B891C4C4364181D
:1008B000B5012C1B250C2E04B4434C434D43210C95
:1008C000691889090591009DE90701D00121C9072F
:1008D00004912C4601996708CD072F434C08059DCC
:1008E000E10B4D432D0C29466646754302950D4696
:1008F00045432E46029D7D1BB44100950D465D4348
:1009000001942C0C2F040D465543AE462D0C3D434F
:10091000029503947546049C2D04641B049406D22E
:10092000029C039D641C002675410395029401AC52
:1009300070CC009F7D1B01E03EE162E1B4410904FF
:100940000095079101940599A4086143090C0C4690
:100950004443650BE7040C4666467443A646640BA5
:100960003C43039502947446049DE4042C1B0494B8
:1009700006D2029C039D641C0026754103950294D7
:1009800001AC70CC009F7D1BB44101940C465C43CC
:100990000095650FE7000C465443A646640F3C43A0
:1009A000039502947446049DE4002C1B049406D223
:1009B000029C039D641C002675410395029401ACC2
:1009C00070CC009F7D1BB441AE09AF06049DC900E9
:1009D000AD092F43049DA406AD060495079D34433D
:1009E00069180791059DE10B4D432D0C294666467C
:1009F000754302950D4645432E46029D7D1BB4412D
:100A000000950D465D4301942C0C2F040D46554373
:100A1000AE462D0C3D43029503947546049C2D046F
:100A2000641B049406D2029C039D641C002675413D
:100A30000395029401AC70CC009F7D1BB4410194DE
:100A40008C050694079C890A611800950791019C02
:100A50000599A4086143090C0D464543680BEF0452
:100A60000D46644665436C0B3C43049FED047D1BBF
:100A7000AC4602D20025641C6841009E019D371BD4
:100A800085410846584301950C46460FC50054431E
:100A9000600F28436546E4002C1B02D20025401C51
:100AA0006E41019D3F1AB5412846BD098006284385
:100AB0008446A009BF064E020699A406761807438D
:100AC000079D002068410A99079019430020099B5F
:100AD00000906046FF1913434041E20F64003A431F
:100AE000A4460446D71A8C41A04203D901200090A5
:100AF00020463A46C70F941840416246D20F22431F
:100B0000644664000494009CBE466400D71AA44660
:100B1000044602978C417746002F01D1A04204D9A8
:100B20006046401C8446029A2046C40FA64694188C
:100B30004041049A0546D20F224364466400D31A0A
:100B40008D417146002901D1A84202D928461A4692
:100B5000641C10430122002800D0164361020020CB
:100B6000079B891904465C410223002C02DB4918CB
:100B700013466441089DCE0A2D145D194B05670587
:100B8000E10A2C050D1908993E43C9076940002B5D
:100B900008D0934006D30022761C5141002B01D18E
:100BA000760876001C4A002D43DB154241D0AA434B
:100BB0003FD030460BB0F0BD06180D464D41174CE6
:100BC0007642AC411AD395181C465C41134A6D42DB
:100BD000A24113D3012252054C00D4420AD15C0039
:100BE000D4420BD04B4002D592021143E2E74900B8
:100BF0004908DFE75940C90FC90718E00020084934
:100C0000D8E7054801420DD10342F7D0F2E70000D2
:100C10000000FF07F86600000000F07F0000E0FF22
:100C20000000F87F114859400143C01241400020A4
:100C3000C0E70123089A9B069A4205DC032252076B
:100C40008918C90FC907B5E7052252078918074A4D
:100C50001143D2125140ADE770B515461C4602460D
:100C60000B4628462146FFF7DFFD70BDFFFFFF7FE3
:100C700030B50346CA02400D1043164D164C0A15F6
:100C800002D02043002A06DBAA1A002A12DDD04037
:100C9000FF2A0BDC30BD5205520D01D14000400847
:100CA000AA1A07D4D0404042FF2A01DD002030BDFF
:100CB0000028FCDD4A00002B01D0012000E00020CC
:100CC000101801225205D042F0D8C817C043604026
:100CD00030BD00001E040000000000801F22030C35
:100CE00002D10F22000402D0030E03D004E0002042
:100CF000014670470002083A030F01D10001121F9C
:100D0000830F01D18000921E002801DB4000521E9B
:100D1000120551184205C012411810467047C10F04
:100D2000C90700D04042012292071143D6E70121B2
:100D30008907D3E7F0B58B4C0F09254689B0BD4331
:100D40007BD01D092646AE43FAD00E465E402740B2
:100D5000F60F3E43254071D024012142FBD0FF24F1
:100D6000AD19A4042D1B039501252D05DB02DB0A1B
:100D7000C9022B43C90A29431E010901040F130F9D
:100D8000050121431701880B820391432D098C46ED
:100D9000A90B1E438A039543B30B9A0396433F095D
:100DA000BA0B9403A74302962E467E430497B64699
:100DB0004E19D7190C460196544305977E43371BAD
:100DC0007646BF1B3601B646BE0B361900967646F0
:100DD000BC043719009C01D3641C00946400002FEC
:100DE00001D001263443029E049F754366467E432C
:100DF0000496760034196E0034190094029C019E0A
:100E00001C196643751BAE46069465464519059C3C
:100E100005956C43594375460891691A0191049EE2
:100E200001465143A41B0491611A009C0791E106FD
:100E300005D061090122114302E072E06EE0610910
:100E4000089D00272C0A2D066918049D7C412A0A5A
:100E50002D066918019D6241AC0DAD026D1854411B
:100E6000079A910D920255196141029A64465843BE
:100E70005443069B059A5A43121A131B9A0E9B0160
:100E80005B187A41010B0005C3185141220A200664
:100E900044195A419A4200D2491C01204002814221
:100EA00003D315230226F64302E014230326F64358
:100EB0002020C51AA9401746AF40DA400A43204611
:100EC0000399D8400914731819055118039A384327
:100ED000D2075140AC4009D00122944006D30022F1
:100EE000401C5141002C01D1400840001E4A934251
:100EF00012D3012203989206904207DB0520400797
:100F000009181A480143C012414004E00320400779
:100F10000818C10FC907002009B0F0BD0020F10773
:100F2000FAE705180C464C4111486D42A04115D313
:100F300094181A465A410E48644290410ED301203B
:100F40004A004005824209D35A00824206D35940E2
:100F5000C90F084AC90700201143DDE700200649F0
:100F6000DAE700000000FF07FE070000FFFFFF7F39
:100F70000000E0FF0000F07F0000F87F70B505463C
:100F80004800440D124B0020002C0AD0634008D0CA
:100F90009A4206DA6642B24203DD12054019514117
:100FA00070BD002C08D0002B09D0C90FC907002A3A
:100FB000F6DB084A114370BDC90FC90770BD28464A
:100FC0000A03104302D00020034970BD284670BDBB
:100FD000FF0700000000F07F0000F87F0121C90535
:100FE0000123411842001B06D3185B0E0AD0C11022
:100FF0000722D206891840075242D14201D5520039
:1010000089187047090208D50146002A03D0C10F8C
:10101000C9070020704710467047420202D00020E6
:1010200002497047072109050143F4E70000F87FF2
:10103000F0B5FF252D04C609C209FF2704462E403E
:101040000137CB093E4348402A402B400746002A3F
:101050006BD0002B69D0AA4267D0AB4265D0002884
:1010600000DA32460125ED0529432C43090220020E
:10107000090AD21A4B0C7F24E31A434C000A7C4421
:10108000E35C7D242404121914145B00A218884226
:1010900001D3521C00E0400049420C465C4324113D
:1010A0005C43DB016415E318040A5C43C502200DB0
:1010B0000C4644436419250A5D432303EC0C0D469A
:1010C000654300030019EB184C42A34201D35B189F
:1010D000401CD4052018002B07D05B00C91804D38E
:1010E000401C002901D1400840003F2189048A4268
:1010F00009D3002A08DC1106090F04D0032149078F
:101100004018C00FC007F0BD012241001206891827
:101110007F2252069142F6D205214907C84201D5E5
:101120009010F0BDFF20C005F0BD002F00DA324660
:101130001648AA4207D2AB4205D21902090E17D0AF
:10114000F80FC007F0BDFF2563002D06AB42F9D8AC
:101150004900A942F6D8AB4201D1A942F2D0A94236
:1011600001D1002101E061004908D0050843F0BD2C
:101170001102090EFBD0FF200243D005F0BD0A4644
:101180000146104654E700008A5F00000000C07F5F
:1011900010B501469E240002CA15A307002A02D0FA
:1011A0001843002A04DBA21A002A0CDDD04010BD2F
:1011B0001206120E01D140004008A21A03D4D040FA
:1011C00040420028F3DDFF2248001206904201D978
:1011D000002010BDC817C043584010BD0102C21501
:1011E00004D00123DB071943002A0ADB9E239A1A45
:1011F00002D40846D0407047FF22410012069142B7
:1012000001D900207047C017C04370471F22030C4C
:1012100002D10F2200041CD0030E01D10002083AB3
:10122000030F01D10001121F830F01D18000921E14
:10123000002801DB4000521ED2055118021251183D
:101240001922904004D3491C002801D149084900C3
:1012500008467047C10FC90700D0404201229207DB
:101260001143D3E701218907D0E7000010B5FF2221
:10127000C30D134009D05A4007D0914205DA5C42B1
:10128000A14202DDC905081810BDC40FE407002BF8
:1012900006D0002A06D0002902DBFF20C005044347
:1012A000204610BD4102FCD0004810BD0000C07FA8
:1012B000F8B5224C4E00069DA6420AD8A64201D19E
:1012C000002806D15E00A64203D8A6420AD1002A11
:1012D00008D00D24240425422CD02946002000F0FB
:1012E00061F8F8BD0C461C430CD4994202D0EFF3D0
:1012F0000080F8BD904202D0EFF30080F8BDEFF31C
:101300000080F8BD09242407E5008B4206D0EFF3E6
:101310000080A043591A06D2284304E0101A05D3CE
:10132000EFF30080A04380F30088F8BDEFF3008066
:10133000A043F1E7009500F04DF8F8BD0000E0FF94
:1013400010B5FF231B0644009C421DD84C009C4254
:101350001AD80346124A0B4307D4401A02D3EFF3BC
:10136000008010BDEFF3008010BD081A06D2EFF325
:10137000008001219043C907084302E0EFF3008099
:10138000904380F3008810BD0D231B041A4204D043
:101390001146002000F006F810BD00F025F810BD41
:1013A00000000090C80212D54803400F002804D066
:1013B000C803C043012188407047EFF3008000015B
:1013C000000903210907084380F3008870470020C3
:1013D0007047000010B500200249029A00F033F86F
:1013E00010BD00000000F87F10B5024800F02BF897
:1013F00010BD00000000C07F754600F053F8AE46F7
:10140000050069465346C008C000854618B020B59F
:10141000FEF7ACFE60BC00274908B6460026C0C5F2
:10142000C0C5C0C5C0C5C0C5C0C5C0C5C0C5403D9C
:1014300049008D46704710B50446C046C046204658
:10144000FEF783FE10BD10B50C461107090F0929E0
:1014500004D00A290AD008290CD104E0114608203A
:10146000FFF7A0FF06E0510606D501E0510601D5C1
:101470000120C007214610BDD10607D50101090989
:10148000CC084907000E0006044309E0410F200282
:101490004907000A0143200E00061D22D1410143E5
:1014A0000846E7E700487047500F00200149182020
:1014B000ABBEFEE7260002007047000010B50248F0
:1014C00001F09FFD10BD0000D400002070B5114850
:1014D00001F0B0FC104802F057FF02220F490D48FE
:1014E00001F0FEFE0E48007B002812D10B4D0024B7
:1014F0000C4E2D1F012001F0D3FBA860002001F04D
:10150000CFFBE860304604F0D1FB641CE4B2C82C89
:10151000F0D370BDD4000020300200203400002041
:10152000FC0E0020CDCCCC3D10B50146406A826B4C
:1015300050231A420AD1816B012252021143816366
:101540000168CA681205920F05D020E0006B026B9B
:101550000846904710BD827E002A18D10A681207FB
:1015600015D58A6853070122002B09DB4B680C2430
:10157000A3434B60816B130299431143816306E0DF
:10158000816B202319438163C16B1143C16301F057
:1015900035FD10BD10B5406A816B40221143816357
:1015A000C16B04221143C16301F02AFD10BD10B5C7
:1015B000406A01F024FD10BDF8B5044600200090FB
:1015C000206881688907890F012905D10168C90749
:1015D00031D1C16809042ED48168184A10261140FF
:1015E000012500291AD181682943816015481449D1
:1015F0000068FEF77FFE00E0401E00900028FBD14F
:1016000002F012FB074611E002F00EFBC01B02289D
:101610000CD920680068C043C00707D0A06B3043D6
:10162000A063E06B2843E0630120F8BD20680068F8
:10163000C043C007E8D10020F8BD000017000080BB
:1016400040420F000C000020FFB585B008461E4642
:101650000F9F0E9C079905F019FCE060009032681E
:101660000146104605F082FB206005983D4640008B
:10167000010E0120C007454000291BD07F20C00576
:101680000599FFF7D5FC0290216A079805F0FEFB4B
:10169000029905F06BFB01460122B068D207504069
:1016A00005F064FBA0612846009905F0B7FB03D262
:1016B000284609E00020E6E73946E06805F0AEFB81
:1016C00001D2384600E0E068716805F04FFB0599EB
:1016D00005F04CFB616805F003FBFF21C905606064
:1016E000C84201D3002106E0109905F097FB01D212
:1016F000109900E061686160206805F0F1FAA16965
:1017000005F0EEFA60620798206209B0F0BD0000B3
:10171000F1B51F4C0121C90560684E121D4F88426A
:1017200004DAA2688A4201DA002219E04000000EC1
:1017300009D001223146384602F06FFA61680098FC
:1017400005F098FB6060A5686800000E0CD0216869
:10175000009805F0C5FA10492060884205DA012298
:101760003146384602F059FAF8BD0B490B4A494256
:1017700041189142D8D30A498842F5DB7F21C90537
:10178000284605F083FBA06000202060F8BD000023
:101790001000002000080048CDCC4C3ECDCC4C00C1
:1017A0009A99993EF8B5184E717801291ED1194FB2
:1017B0001649174D7A684B882968541E002B02D0B1
:1017C000737B002B0CD0002A10D005F089FA7F2102
:1017D000C9052860884209DB7C60002C0AD006E03D
:1017E000002A03D0094A1278032AEED0F8BD00205F
:1017F0002860F8BD0849022008700120F0700849EF
:1018000006480860F3E70000FC0E00200C0F0020E3
:10181000CC000020400F0020280F00200000A04036
:1018200018000020F1B5184E82B0B068009040005A
:101830003F27000E3F060025144C002810D0216AD7
:10184000029805F04DFA39462062884209DBE079BA
:10185000C043E071009805F019FBB060256200E01C
:10186000E571307B00280BD0616A029805F038FAE8
:101870006062B84203DB207AC04320726562FEBD1D
:1018800065622572FEBD0000FC0E002050000020A5
:10189000F8B5354E8446F078002840D0334D012706
:1018A0002846C28832482B7D00240168002B41D095
:1018B0007378012B0AD0687D002831D001221146AF
:1018C0002C4802F0AAF92C706C7530E0642A26D8F6
:1018D000274D604605F004FA0121890703C505F08C
:1018E0009DFA1CD2214D687D002807D001221146A7
:1018F000204802F092F92C706C7506E0002201215C
:101900001C4802F08AF92C706F751C481A49016056
:10191000F4701C492C751A48486015480460F8BDDD
:1019200000220121134802F078F92C706F75F470D1
:101930002C75F8BD642AFCD80546604605F0D0F940
:101940007F21C90528608842F3DD022070700E48AF
:10195000F47007700D4807700D4807700D48016856
:1019600041602C60F8BD0000FC0E0020280F002014
:10197000C400002000040048CDCCCC3D1400002061
:101980000000D8416C0E0020980000209700002035
:1019900096000020400F002070B50D4C0546A07E3B
:1019A000002807D0FFF75EFC294605F06FFAFFF725
:1019B00015FCA076064C2034A07F002807D0FFF746
:1019C00051FC294605F062FAFFF708FCA07770BDCC
:1019D00070030020F0B52948294940780C2358436A
:1019E000254A441827481678012543780021002EFF
:1019F00014D0254802268788865FB7420DD04788D5
:101A00008780A6600678002E00D001701F48012B49
:101A1000057002D11F4E1E483060117050780028AA
:101A200014D01D4802270426C75F865FB7420CD03A
:101A3000468066600678002E00D001701348012BA6
:101A4000057002D1134E1248306051709078002812
:101A500011D0124887680668B74209D04660866090
:101A60000A48E6600570012B02D10A4B084818604D
:101A7000044891708170F0BD96000020D1000020D4
:101A8000E00D0020FC0E0020280F00209C0000200C
:101A9000CDCCCC3D140000200C0F0020400F0020C6
:101AA000F1B5464C0025E66A82B07000010E44484C
:101AB0000029877F01D0002F01D0657015E02169D2
:101AC000029805F00DF93F210906206188420DDBDF
:101AD000304605F0DBF9E06261784000C94361708F
:101AE000000E02D13749012008702561206B00905B
:101AF0004000010E3448867E01D0002E01D02570B2
:101B000015E06169029805F0EBF83F210906606174
:101B100088420DDB009805F0B9F920632178400078
:101B2000C9432170000E02D1284901200870656167
:101B3000606B00904000000E03D0002F01D1002EFA
:101B400001D0A57015E0A169029805F0C9F83F2100
:101B50000906A06188420DDB009805F097F96063E3
:101B6000A1784000C943A170000E02D1184901209C
:101B70000870A561A76B7800000E01D0002E01D07F
:101B8000E57019E0E169029805F0AAF83F2109061D
:101B9000E061884211DB384605F078F9A063E1780E
:101BA0004000C943E170000E06D1094901200870C8
:101BB0000649087003490870E561FEBD5000002029
:101BC0009003002096000020700300209700002062
:101BD0009800002010B5064C216905F081F87F219E
:101BE000C9052061884202DB0020E080206110BD31
:101BF000280F002010B5024801F0E6FB10BD0000E0
:101C00001401002010B5024801F0DEFB10BD0000F9
:101C10000803002010B50446006805494018142147
:101C2000FEF768FB800020640248E06310BD0000FE
:101C3000F8FFFDBF0000024030B5056C0124AC4048
:101C4000C56B6C60046863604368102B036803D045
:101C500099600068C26030BD9A600068C16030BDA4
:101C600070B52348002441782248012903D004811B
:101C70008481047070BD1F4A8388D1881289002B2B
:101C800030D01B4C06780325E478002E07D0012EB7
:101C900009D0022E10D0032EECD1038170BD9342E7
:101CA00008D301260670818191420CD98A420BD259
:101CB000018109E002260670818191420AD28A429E
:101CC00009D9018107E00281002CE7D101899942FD
:101CD00006D270BD0281002CFBD101899942F8D84F
:101CE000057070BD002A01D0018170BD048170BDF6
:101CF000FC0E0020280F0020F0B5B8498446B84AF1
:101D0000487806240027145F85B000281FD00C25D2
:101D1000555FB4492B460A33896A1BB203932B469D
:101D20000A3B1BB202260093965F012818D00228B6
:101D300014D1604604F0D4FFAA49886201218907C2
:101D4000884277DDA648AC4275DA00992FE1A448B5
:101D50008481078247820770A248876205B0F0BD80
:101D60009F4B002EFAD0A048A04A006802909042F3
:101D700001DA282006E0AF200001864201DA642063
:101D800000E08C2001901A781846002A15D094485B
:101D90001223C35E012A1DD0022A7DD0032ADDD181
:101DA000311B002900DCA11B019A914203DBAF210A
:101DB00009018E4275DB8681D0E7AE4201DD01214B
:101DC00002E0AE4203DA022101705D82C6E7032120
:101DD0001970C3E7824A04829289521C12B200929F
:101DE0009C420BDD7D217E48C9008D4202DD0399B6
:101DF000818101E01146828141823CE0E120800046
:101E000084421DDD7A4886421ADB7D20C00086426E
:101E100016DC764A0298904212DA604604F060FFBF
:101E2000704988627349884225DD6D48642D03DD61
:101E3000039902E0C1E0B7E000998181418218E096
:101E4000AF200001844214DB864212DB674A02980D
:101E500090420EDB634D604604F042FF012189078A
:101E6000A862884207DD5E48039981814182AF62A2
:101E700001E05C4887625A480C22825EB2426EDA08
:101E8000111B002900DCA11A019A3232914293DD24
:101E9000AF2109018C4201E006E002E08CDA8E42BB
:101EA0008ADC0770848159E74D4A9289521E12B22A
:101EB0000392B5421FDD4A4AA5421CD0A5421ADB57
:101EC0007D20C0008542474D1446604608DD04F081
:101ED00007FF01218907A8628842E4DD009806E037
:101EE00004F0FEFE4449A8628842DCDD0398A0812C
:101EF0006082AF6232E73A489C4204820DDA3F4882
:101F0000854237DC3748642D8762354801DD00990A
:101F100000E00399818141823DE0E120800084421C
:101F20001EDD334886421BDB7D20C000864217DC65
:101F30002E4A0298904213DA604604F0D1FE2949F5
:101F400088622C49884226DD7D212548C9008D42C2
:101F500001DD009900E003998181418219E020E0D0
:101F6000AF200001844214DB864212DB1F4A029834
:101F700090420EDB1B4D604604F0B2FE0121890742
:101F8000A862884207DD1648009981814182AF62CC
:101F900001E01448876212480C22825EB24200DDE2
:101FA0006EE7032101706BE7AC4202DD039981818A
:101FB00001E00A4847700B48876209480C21415EDE
:101FC000081B5A30B42895D9AF200001844291DA19
:101FD00086428FDC01484770C0E60000FC0E0020FE
:101FE0000C0F002050000020380000200000164593
:101FF000B603000000002041CDCC4C3F8C0A00000D
:10200000044910B548430921FEF774F900BF401E8A
:10201000FCD210BD80BB0000F3B50746814800220A
:10202000017B814885B0002910D0002401940294DE
:10203000007A26462546002804D06E20CD27009041
:10204000E4208BE000200746009087E040780028DD
:1020500004D000242546264620463BE0002F46DDDE
:102060007148724D3C300678AF4208DD691C384635
:10207000FEF74AF96C4980B23C310C5C00E0344612
:10208000632F0EDD64213846FEF73EF980B2AF4281
:1020900003DD0A21FEF72EF9084663493C310D5C49
:1020A00000E03546092F0DDD0A213846FEF72CF9F0
:1020B00080B2632F03DD0A21FEF71CF908465A4956
:1020C0003C310E5C0A213846FEF71EF988B25649AB
:1020D0003C31085C0190554F0698B8420CDD791CE4
:1020E000FEF712F9504980B23C31085C05E0042447
:1020F000254626462046EDE70020029006986328F4
:1021000020DD6421FEF700F9069980B2B94203DDB3
:102110000A21FEF7EFF8084643493C31085C00907D
:102120000698092810DD0A21FEF7EEF8069980B21C
:10213000632903DD0A21FEF7DDF808463A493C3100
:102140000F5C02E00020EAE700270A210698FEF76C
:10215000DBF888B234493C31085C802202990B09D3
:102160009C460E2319408E462109634609011943F6
:10217000029171468F23194023075B0E0B43039393
:10218000009C0E2300991C402B0909091B010B43DD
:102190008F210C402907490E21439C4600913909A3
:1021A000F1231A400E2334091F40240117430C4326
:1021B0008F210F4031074D0E019A01091609360192
:1021C0000E4318408F21084011073D434F0E07432F
:1021D00001226146162004F03BFB012218200099E1
:1021E00004F036FB012221461A2004F031FB0122C3
:1021F00029461C2004F02CFB012231461E2004F04D
:1022000027FB01223946202004F022FB0122222054
:10221000039904F01DFB01222420029904F018FB0D
:1022200007B0F0BDFC0E002050000020E7030000C6
:10223000F3B507468DB000200590AC48007B002820
:102240005AD00020049003900290019080200690C4
:1022500005900021A64802F059FCA548C821006855
:102260004163A4480827C75FFF20F530874239DD66
:10227000A14CA74207DD3846611CFEF745F89F498F
:1022800080B20E5C00E00026632F0DDD384664212D
:10229000FEF73AF880B2A74203DD0A21FEF72AF8DA
:1022A000084696490D5C00E00025092F0DDD3846F3
:1022B0000A21FEF729F880B2632F03DD0A21FEF719
:1022C00019F808468D490C5C01E08C4804783846C2
:1022D0000A21FEF719F888B28849085C0A90802024
:1022E00005909CE00021824802F034FD8048FF21E7
:1022F00000689031416392E080483C3801783C307E
:1023000000780390002904D0002635463446304634
:102310003EE0002F38DD784CA74207DD611C3846CF
:10232000FDF7F2FF754980B20E5C00E00026632FD6
:102330000DDD64213846FDF7E7FF80B2A74203DDDB
:102340000A21FDF7D7FF08466C490D5C00E0002527
:10235000092F0DDD0A213846FDF7D6FF80B2632F25
:1023600003DD0A21FDF7C6FF084664490C5C00E066
:10237000039C0A213846FDF7C7FF88B25F49085C15
:102380000A908020059004E0042635463446304605
:102390000A90594F0E98B84206DD791CFDF7B4FF3C
:1023A000564980B2085C00E0002001900E98632836
:1023B0007EDD6421FDF7A8FF0E9980B2B94203DDEE
:1023C0000A21FDF797FF08464C49085C02900E98D9
:1023D00009280DDD0A21FDF797FF0E9980B26329C8
:1023E00003DD0A21FDF786FF08464449085C039097
:1023F0000A210E98FDF788FF88B24049085C0490D6
:10240000059801214008400008430590802006906F
:102410003B483C490068884201DA81200690310936
:102420000198019B000909010E22014313408F20EE
:1024300036070340760E1E43029B01962F091E09A4
:1024400013402D0703406D0E1D433F013743039B8F
:1024500002951E09059DF1231D40039B099713401A
:102460002B43250924070340640E1C432D01049BC4
:1024700035431E09069FF1231F40049B13403B4335
:102480000A9A034017093F0110073743460E1E43BF
:102490000122002004F0DCF901220220019904F05D
:1024A000D7F901220420099904F0D2F9012200E0B1
:1024B00019E00620029904F0CBF9012229460820F0
:1024C00004F0C6F9012221460A2004F0C1F90122D4
:1024D00039460C2004F0BCF9012231460E2004F0EC
:1024E000B7F90FB0F0BD002070E70000FC0E00202F
:1024F000A00100200C0F0020E70300008C0000204A
:102500003800002000001645F3B500258DB00746C1
:102510009E4808950595007B2C460A90002804D01B
:10252000002003461A4611468CE0994806689748F1
:10253000002E8078079006D1032804D000200146A1
:102540000246034646E093488078002804D00020E5
:102550000146024603462AE0002E2ED08E49384618
:10256000FDF7D2FEC0B2E1210B9009013846FDF71C
:10257000CBFE0F460A21FDF7C7FEC9B201914B21E0
:102580003846C900FDF7C0FEC2B238463C2102926F
:10259000FDF7BAFE0A21FDF7B7FE7E4BCFB23C3302
:1025A0000B980199029A185C595C9A5CDB5D002ECD
:1025B00008DC079E032E05D00CE0042001460246ED
:1025C0000346F6E7734E012576790824002E01D1E3
:1025D000802605966D4E37790226002F03D06D4F69
:1025E000FF79002F12D0FD273D406A4F3F79002F21
:1025F00010D0FB273D40674FBF79002F0FD0012F30
:1026000010D0022F14D0032F1CD116E0FD273D401F
:102610003543EAE7FB273D4004273D43EBE7FD2731
:10262000032601E0FD2702263C400896022608E02A
:102630000327FD263440089704E001270897FD276B
:102640003C4034431E09B446059EF1273E401B071B
:102650005B0F33439E460E09130909071207490F02
:10266000520F0709099100070B920A99400F872220
:1026700000290ED071461140059161469C46099A89
:10268000F7231A4009926346DF2213400197039310
:1026900020E0424909780029ECD0714611407822A7
:1026A0001143059180226146134311439C46099AC8
:1026B000F7231A4008231A43099280221643F02276
:1026C0001743344A0197D278002A624642D0DF236A
:1026D0001A400392CF2216408F22104011400F461D
:1026E000009001222946102004F0B2F801221220A5
:1026F000089904F0ADF801222146142004F0A8F84E
:1027000001222620059904F0A3F801223946282049
:1027100004F09EF801222A200B9904F099F8012276
:102720002C20039904F094F801222E20099904F03A
:102730008FF801223146302004F08AF8012232203D
:10274000009904F085F801223420019904F080F802
:102750000FB0F0BDDF231A4020231A430392CF228B
:102760001640302216438F221040702318430090E9
:1027700008480E9B3C30C05C0B9F03091B013B4388
:1027800000071140470E0F430B93AAE7FC0E0020F1
:10279000400F002050000020A08C0000D10000203D
:1027A000F8B54B48417B4B4800297CD084780E20FB
:1027B0002509002704400F2601223946102004F085
:1027C00047F801220021122004F042F801220021E2
:1027D000142004F03DF801220021262004F038F8EE
:1027E00001220021282004F033F8012200212A20B0
:1027F00004F02EF8012200212C2004F029F80122F7
:1028000000212E2004F024F801220021302004F0C1
:102810001FF801220021322004F01AF801220021C1
:10282000342004F015F801220021162004F010F8DD
:1028300001220021182004F00BF8012200211A20A7
:1028400004F006F8012200211C2004F001F8012206
:1028500000211E2003F0FCFF01220021202003F0B4
:10286000F7FF01220021222003F0F2FF01220021C4
:10287000242003F0EDFF01223146002003F0E8FFA1
:1028800001223946022003F0E3FF012229460420F9
:1028900003F0DEFF01222146062003F0D9FF0122CA
:1028A0000021082000E011E003F0D2FF0122002106
:1028B0000A2003F0CDFF012200210C2003F0C8FF05
:1028C000012200210E2003F0C3FFF8BD44786EE71B
:1028D000FC0E00208C000020F1B579480189C06809
:1028E00001F096F9764F774C774E01252037002876
:1028F00008D1207B002871D1A07B00286ED1787888
:10290000002803D03878012808D04CE06C48C16911
:10291000009804F0E5F96A49C8613D70684801898A
:10292000C06801F075F901282BD1654A6748D16963
:1029300009186748814220D22079002805D001205B
:10294000644980070860A06017E0607801280DD016
:102950007088002803D160488088002806D0657000
:10296000002030705E495D48486002E0022030700F
:10297000E57056485B494042086000203870787026
:10298000D0614F48C16958480918584881420AD255
:102990007878002807D120794E49002854480860EB
:1029A00000D0A0607D704648818D006B01F030F949
:1029B000434F4037002805D1207B00287FD178790C
:1029C00000280CD03879012879D13D48818D006BE1
:1029D00001F01EF9474B01280AD04CE06FE038485F
:1029E000016C009804F07CF9354908643D71ECE70E
:1029F0003348016C354809183548814236D2207970
:102A0000002804D033493A480860A0602EE0A07B3B
:102A1000002806D00020A0732C48324940420860AC
:102A200024E0607801280DD07088002803D12A485E
:102A30008088002806D0657000203070284927481B
:102A4000486002E002203070E5702B482C49057088
:102A50002A481D700570002008602A49214A086034
:102A600029490860194949421160A0700020387155
:102A70001349787108641248016C1B4809181B48F7
:102A800081421CD27879002819D12079002804D0FD
:102A9000104917480860A06010E0307D002809D177
:102AA00002203070E57035751348B5750570134810
:102AB0001D70057005480B49404208607D71F8BDE6
:102AC00070030020FC0E0020280F0020333333C297
:102AD0003333F301180000200C0F00200000C04128
:102AE0006C0E002014000020FFFF3FC0FFFF7F009E
:102AF0000000004097000020980000209600002071
:102B000084000020800000207C00002001210D486E
:102B100089030180491041800B4901221203416061
:102B20000281C16028210174921082842022C28413
:102B30000922D20608238262838502632030017550
:102B400070470000700300200004004870B50B4C73
:102B50003C21208B48431421FDF7CCFBFEF782FB80
:102B6000002560612583A08F3C2148431421FDF797
:102B7000C1FBFEF777FBA063A58770BD7003002043
:102B800010B50120800200F065FF0120800300F0F5
:102B900061FF10BD10B5044801F0F6FB00210248AA
:102BA00001F088FD10BD00005801002072B6FEE75C
:102BB00006490020C86106480169042211430161E9
:102BC0000169402211430161704700005003002059
:102BD00000200240064A0021D16106490A69022309
:102BE0001A430A614861086940221043086170472E
:102BF000500300200020024010B5054B0022DA618E
:102C0000044A1369012423431361018010BD0000AD
:102C1000500300200020024010B50B4A0020D1686C
:102C2000CB060A4904D5C86902231843C86110209D
:102C3000D3685B0705D5CB6901242343CB6104210D
:102C40000843D06010BD0000002002405003002067
:102C500070B5054600F0E8FF0646104C0AE0681C17
:102C600008D0002D04D000F0DFFF801BA84201D95E
:102C7000032070BDE068C007F1D1E068800601D58F
:102C80002020E060E068C00602D4E068400703D579
:102C9000FFF7C2FF012070BD002070BD0020024080
:102CA000F8B52A4A014640001746105A0C378E00E4
:102CB000BC5900281AD02649884217D8FEF7D2FA04
:102CC0000B21C943FEF7D2FA224904F04FF805461A
:102CD000410021484908814208DB29461D4804F08B
:102CE000D5F841001C484908814201DA2046F8BD68
:102CF0002846FEF773F9194A194BFDF795FD194A55
:102D0000194BFDF791FD194A194BFDF75DFDFDF7D4
:102D1000A1FB054601467F20C00504F0B7F80090EE
:102D20001449284604F022F80099FEF781F9054677
:102D30001149204604F01AF804461049284604F0C8
:102D400015F8214603F0CCFFB851F8BD340000203F
:102D5000FF0F00003333534017B7D138CDCCCCCC64
:102D6000CCCC1840C1CAA145B6F30340771B8AF109
:102D700050CACD3F00803B456666663FCDCCCC3D1A
:102D800078B500220E4B4C1E15E0551CA5420ADCFE
:102D9000D5182E886D462E802D7885546D466D7819
:102DA0008618757005E0D5182E886D462E802D7812
:102DB0008554921C92B28A42E7D3012078BD00006C
:102DC00000900008F3B585B00D4600F055FC0020DA
:102DD0000121174F0190039100900297694601A8C5
:102DE00000F0B2FB002818D100246E1E1AE0601C0F
:102DF000B042059805DC0019407801020598005D95
:102E000002E0015DFF200002081882B20023E119F0
:102E1000012000F0F3FB002802D0002007B0F0BD35
:102E2000A41CA4B2AC42E2D300F0DEFB0120F5E723
:102E300000900008F8B5054604462035287D002698
:102E4000012808D001202875206881688907890F2A
:102E5000012908D101E00220F8BD0168C9073CD171
:102E6000C168090439D4A16BFF22013291430222C7
:102E70001143A163C1688907890F0091C16889085E
:102E80008900C1602068816892071143816000F069
:102E9000CBFE074612E000F0C7FEC01B02280DD98A
:102EA00020688068002809DAA06B0221884310217D
:102EB0000843A063002028750120F8BD20688068C1
:102EC0000028E8DB2068C168009A1143C160A06B4C
:102ED00080088000401CA06304E0A06B2021084310
:102EE000A0630126002028753046F8BDF8B50025FE
:102EF000044620340095227D012A39D00122227512
:102F000003689E68760767D4384F4E68BE424DD03E
:102F10009E6A0F78BA4016439E620123C26A1B075D
:102F20009A421FD0012A1DD0022A1BD0032A19D091
:102F3000042A17D0052A15D0062A13D0072A11D043
:102F400002688B6856697607760FB3420AD05369D8
:102F5000DB08DB005361006842690B7A5B075B0F9B
:102F60001A4342610A68102A04D0112A02D038E0BC
:102F70000220F8BD1E488368102A07D0012292055E
:102F8000134383600868102803D02AE00122D20589
:102F9000F6E7194817490068FDF7ACF90A214843DC
:102FA00000E0401E00900028FBD11AE0986A0E78DD
:102FB000B240904398620968102901D0112910D1BC
:102FC0000B488268102904D0012189058A43826058
:102FD00007E00121C905F9E7816B202211438163D4
:102FE0000125002020752846F8BD000001100000D2
:102FF0000027014040420F000C000020704770473E
:103000007047F8B50446006805684668690701D549
:10301000710703D429072ED531072CD5A16BC9061A
:1030200004D4A16B012252021143A163C1680C2791
:103030000905890F002919D1A17E002916D1290778
:1030400014D581684A070121002A08DB4268BA4387
:103050004260A06B0A0290430843A06306E0A06BA5
:1030600020221043A063E06B0843E0632046FFF793
:10307000C5FF2068076028060CD530060AD5A06B6E
:10308000012109040843A063204600F0D7F8216815
:1030900080200860E80614D5F00612D5A06A102535
:1030A000012803D02068C068C00708D0E06B022167
:1030B0000843E063206805602046FFF7A1FF206811
:1030C0000560F8BDF8B500260446002805D0A06BC1
:1030D00025462035002802D007E00120F8BD002059
:1030E000E0632875204600F0ABF8A06B1022C00604
:1030F000002870DB2068816849076CD4A16B13013C
:10310000994302231943A16381688907890F012923
:1031100005D10168C9070FD1C16809040CD4C16881
:1031200018239943A3681943C16020680169636843
:1031300089008908194301612068C1683D4B194025
:10314000C160207E617E8003C9030843A17E4B03DA
:103150001843A36A012B02D001231B0300E00023C4
:103160001843E36818432369022B09D0002318434E
:103170002B79E57E5B0018430123012D02D00AE084
:103180000423F4E7002927D0A16B20252943A1635C
:10319000E16B1943E163E1690D46FF3DC23D02D099
:1031A000256A294308432168CD680543CD60012580
:1031B000E16A2D07A94213D0012911D002290FD0AD
:1031C00003290DD004290BD0052909D0062907D0E1
:1031D000072905D010E028E0012109040843DAE7B7
:1031E00021684D69ED08ED004D6121684D69A78D9D
:1031F0007F077F0F3D434D612168C9680E4D29400F
:10320000814207D10020E063A06B80088000401C51
:10321000A06308E0A06B022188431043A063E06B29
:103220001843E06301263046F8BDA06B1043A0634D
:10323000F8E700001902FEFFE7FF3F837047000038
:1032400070B586B0054614216846FDF751F820494F
:103250002868884239D11F498A69401502438A612A
:103260008A69024005924A69000202434A6149693B
:1032700000260140059106200090032001900920BE
:1032800069460296C00600F0F1FB1348134C41C496
:103290008020266060604000A0608000E060202008
:1032A0002061000260610D48083C00F0DBF8002856
:1032B00001D0FFF77BFC2C63002211460C206562D5
:1032C00000F012FD0C2000F003FD06B070BD000000
:1032D00000240140001002400800024014010020B8
:1032E000F7B5044600680025806840073DD42646AF
:1032F0002036307D01280AD001273775607E0128ED
:1033000007D02046FEF758F9050002D02EE0022033
:10331000FEBDA06B16490840FF2101310843A063A0
:103320000020E0633075216B12488862216B1248DF
:10333000C862216B1148086321681C20086020685E
:1033400041681022114341602068C1683943C1605F
:103350002168206B4031029B019A00F0ADF8206893
:10336000816804221143816000E002252846FEBDE9
:10337000FEF1FFFF29150008AF150008951500089C
:1033800070B50024014620314A78022A03D0042176
:103390008163012416E0026813680E25AB431360B5
:1033A000026813685B085B0013600122056C13461A
:1033B000AB40C56B6B604A7000220A70416B0029FC
:1033C00000D08847204670BDF0B4C16B0D6801681D
:1033D0000C680422066C1346B3402B420DD06307E1
:1033E0000BD50B689B0602D40B6893430B60016CF2
:1033F0008A40C16B4A60C16A19E00227B7400246A1
:103400002F4001232032002F15D0A70713D50C68B9
:10341000A40604D40C680A25AC430C605370036CFA
:1034200002219940C36B596000211170816A002903
:1034300016D0F0BC08470827B7402F4210D0240709
:103440000ED50C680E25AC430C60046C1946A140E7
:10345000C46B61608363537000211170016BE6E7F8
:10346000F0BC704770B5040021D002212046203006
:1034700005464170226811680E48A36801406068E3
:1034800026691843E3683343184363691843A36903
:103490001843E3691843084310602046FEF7BAFB5F
:1034A0000021A163012068702970084670BD0120C9
:1034B00070BD00000FC0FFFFF8B504468C462030F9
:1034C00001780025012909D00126067041780027DE
:1034D000012905D0077002252846F8BD0220F8BD55
:1034E00002214170A7632068016849084900016012
:1034F00061462046FEF7A0FBE06A002820680168CC
:1035000002D00E22114306E00A2211430160206816
:103510000168042291430160206801683143016021
:10352000DAE7000070B5044600F07EFB0546601C3B
:1035300002D004480078241800F076FB401BA0421B
:10354000FAD370BD00000020F8B5054623480F46A9
:10355000017E012601290BD0012101762868204C2B
:10356000012807D02046FFF773FB002813D030E076
:103570000220F8BD2046FFF76BFB002829D1FFF79A
:1035800017FB2046FFF764FB064616480169042234
:10359000914301611DE00020C04338606C6812E077
:1035A0002046FFF717FB0E48FFF752FB06460D4873
:1035B000026902218A430261002E01D03C6008E0CA
:1035C000012080022418A868810268680818A042B7
:1035D000E6D80248002101763046F8BD50030020AD
:1035E00050C30000002002400348016980221143BB
:1035F000016100207047000000200240F0B51FB4B8
:1036000007461A480024017E15461E46012907D0A8
:10361000012101761648FFF71BFB002803D020E0AC
:10362000022005B0F0BD012F02D0022F00D00427E8
:10363000220128463146FCF7ABFD81B201986200B9
:103640001018FFF7D9FA0A48FFF702FB09490A697F
:10365000520852000A61002803D1641CE4B2BC4243
:10366000E6D3024900220A76DBE70000500300207F
:1036700050C3000000200240064900200A691206DB
:1036800007D5054A4A60054A4A600969090600D516
:10369000012070470020024023016745AB89EFCD30
:1036A000F1B5DD48012601880098B607DB4D81425F
:1036B00022D1DB48017B002978D10179002976D11C
:1036C000D5490A8B521C0A8302228A768078032805
:1036D00002D0D34A01209070CF484188406800F062
:1036E00097FAD04FD04C012807D0CB48418840688A
:1036F00000F08EFA00287DD06FE0CC4800684000D2
:10370000000E0CD0CA484178491CC9B24170092941
:1037100001D9012184E002F023FAC4485CE0C048EA
:10372000817B002905D001214173C248B97701701E
:1037300053E08078012802D0032839D04DE0B64FFD
:10374000387CFDF78FFD796903F068FB13D20427FD
:10375000E75F7D20C000874202DA7F1DA7801AE064
:1037600038460A21FCF7D0FD002901D0781AA08044
:10377000A0880A300EE0A0880A21143000B2A08090
:103780000746FCF7C1FD002905D07D20C000874217
:1037900001DD781AA0801820205E0421615EFF38C8
:1037A000F538814200DDA080A34815E029E025E03E
:1037B000994C207CFDF756FD616903F02FFB2868CA
:1037C00001D23C3001E0FF302D30014628609B489B
:1037D000814200DD28609A4806608F4900988A8CF3
:1037E00082420ED18E48027B002A0AD1827B002AB7
:1037F00007D100E006E00279002A68D091490E6006
:103800008660F8BD894800684000000E0AD08848EC
:103810004178491E0906090E417000D07BE7092155
:10382000417078E77E48817B002906D000214173F2
:10383000B977804901200870CFE7807801280CD043
:103840000328CAD1744C207CFDF70CFD616903F09C
:10385000E5FA286834D23C3834E06F4F387CFDF705
:1038600001FD796903F0DAFA13D20427E75F7D20BE
:10387000C000874202DA7F1FA7801AE038460A217B
:10388000FCF742FD002901D0781AA080A0880A38F0
:103890000EE0A0880A21143800B2A0800746FCF789
:1038A00033FD002905D07D20C000874201DD781A54
:1038B000A0800420205E002800DD75E7002072E76C
:1038C000FF382D382860002885DA002082E78A8FAB
:1038D000514F521C8A87022220375148BA7780788C
:1038E000032801D04E4882704B48C18C806A00F09A
:1038F0008FF9554C002814D04748C18C806A00F0DD
:1039000087F9012800D07CE7484800684000000E95
:1039100053D047484178491E0906090E417049D0E5
:103920000DE0424800684000000E0BD0404841784E
:10393000491CC9B24170092901D901213BE002F0BB
:103940000FF9F8BD3648807802280CD00328F8D14A
:10395000314C207CFDF786FC616903F05FFA286832
:103960001DD23C301DE0387DFDF77CFC2A49896B77
:1039700003F054FA608806D20A3000B260800A2848
:1039800006D1642009E01E3000B260801E28F8D005
:103990000221615E2D48814232DD608030E0FF30DF
:1039A0002D30014628602548814232DD286030E014
:1039B0000660F8BD09214170C1E7194880780228E6
:1039C0000CD00328F5D1144C207CFDF74BFC616929
:1039D00003F024FA286815D23C3815E0387DFDF74D
:1039E00041FC0D49896B03F019FA608801D20A384D
:1039F00000E01E38608000B2322801DA0020CCE7F7
:103A00001348D5E7FF382D382860002801DA002058
:103A1000CCE70B48CCE7000070030020400F0020EB
:103A2000FC0E0020400E00200C0F0020880000201B
:103A3000D10000209C00002080000020C0A80000D1
:103A40008400002018000020280F0020DC05000062
:103A50007C00002010B504494A69024202D0486146
:103A6000FFF71EFE10BD000000040140F8B5002362
:103A700003240125BAE02E469E40B44632407CD055
:103A80000E79B607B60F012E01D0022E17D1866827
:103A90002746B6465E00B74000967646BE43B64619
:103AA000CF68009EB74076463743876046686746D2
:103AB000BE430F79FF06FF0F9F40374347600E79E3
:103AC000F643B6070ED0C6682746B4465E00B64633
:103AD000B7406646BE43B4468F687646B7406646F2
:103AE0003743C7600E79B607B60F022E14D1DE0831
:103AF000B60036180096366A5F07B446FE0E0F27EA
:103B0000B646B7406646BE43B4460F697646B740F0
:103B100066463743009E376206682746B4465E0015
:103B2000B646B7406646BE430F79B446BF07BF0FDF
:103B30007646B7406646374307604E68B603B60F11
:103B400053D02D4FBE692E43BE61BE699F08F60754
:103B5000F60F2A4EBF00BE190096B6680F27B4466E
:103B60009E07360FB646B7406646BE430927FF0696
:103B7000B446B84202D1002710E036E0204FB842E8
:103B800001D101270AE01F4FB84201D1022705E009
:103B90001D4FB84201D1032700E005277646B74004
:103BA00066463743009EB760184EB6684F68964326
:103BB000FF0200D51643154FBE60FE684F6896435E
:103BC000BF0200D51643114FFE607E684F689643D2
:103BD000BF0300D516430D4F7E603E684F68964385
:103BE000FF0300D51643094A16605B1C0A68164697
:103BF000DE4000D03FE7F8BD001002400000014069
:103C00000004004800080048000C0048000401407F
:103C10000069084000D001207047002A01D081616E
:103C2000704781627047000001488068704700005B
:103C3000000000200248816802788918816070477E
:103C40000000002010B506480168102211430160F1
:103C5000032000F007F800F027F8002010BD000056
:103C60000020024070B504460D4D7D202978C0002B
:103C7000FCF740FB01460B480068FCF73BFB00F0FB
:103C8000A9FA002809D1042C07D200222146401E9F
:103C900000F02AF800206C6070BD012070BD0000AB
:103CA000000000200C00002008B5084881690122AE
:103CB00011438161816911400091C26901040A4385
:103CC000C261C0690840009008BD000000100240B9
:103CD000002805DBC106C90E0120884001490860A3
:103CE0007047000000E100E010B502F0ADFE10BD2D
:103CF000F8B50F46060059D03A4D2868C007C00FE6
:103D0000B84209D228684008400038432860286833
:103D1000C007C00FB84249D13068334C81070CD579
:103D2000400704D5606807210902084360606068A5
:103D3000F0218843B168084360603078C00726D01E
:103D4000706801280ED0216802280ED0890700294A
:103D50002CDA61688908890001436160FFF764FF1C
:103D600000900DE021688903F1E78901EFE7FFF793
:103D70005BFF0099411A1D48814201D90320F8BD1B
:103D800060680C210840716889008842EFD128687A
:103D9000C007C00FB8420BD928684008400038431C
:103DA00028602868C007C00FB84201D00120F8BDC4
:103DB0003078400706D56068072109028843F1681A
:103DC0000843606000F018F86168094A0906090FA5
:103DD000515CC840074908600320FFF743FF0020FB
:103DE000F8BD0000002002400010024088130000CF
:103DF0007C6F00080C00002010B5104A51680C20A0
:103E00000B4603400E48042B17D0082B15D18B020C
:103E10000C4C1B0FE45CD26A0A4B1207120F1033D2
:103E20009A5CC90305D500231946FCF7C2F921465F
:103E300001E02046044902F0EFFD10BD00100240F1
:103E400000127A005C6F000800093D00FEB5040016
:103E500070D02078DC4DC0074AD068680007800F1A
:103E6000012807D068680007800F022809D1686818
:103E7000C00306D5286880033AD560680028E7D0DB
:103E800036E06168012914D001208004002901D0A6
:103E9000052914D02A68012109048A432A60296867
:103EA000814329606068002816D0FFF7BDFE0646F2
:103EB0000EE028680121090408432860F2E7296818
:103EC00001432960F5E7FFF7AFFE801B64286ED839
:103ED00028688003F7D50BE0FFF7A6FE064604E04E
:103EE000FFF7A2FE801B6428F1D828688003F7D46E
:103EF00020780126800700283CDA68680007800FD8
:103F000007D068680007800F022809D16868C003DD
:103F100006D42868800716D5E06801280AD112E087
:103F2000E0680028286816D030432860FFF77CFE40
:103F3000074605E043E1FFF777FEC01B0228C6D81D
:103F400028688007F7D52868F82188432169C900C7
:103F5000084328600EE0400840002860FFF764FE38
:103F6000074604E0FFF760FEC01B0228AFD82868B0
:103F70008007F7D42078000722D5E0690028686A16
:103F80000ED030436862FFF74FFE074604E0FFF7AC
:103F90004BFEC01B02289AD8686A8007F7D50FE04D
:103FA000400840006862FFF73FFE074605E09DE0DD
:103FB000FFF73AFEC01B022889D8686A8007F7D449
:103FC000207804274007002860DA00200190E86983
:103FD000C00008D4E969B8060143E961E969014014
:103FE00001200091019079480168C90511D4016848
:103FF000821511430160FFF717FE009005E0FFF7FF
:1040000013FE0099401A642870D870480068C005F3
:10401000F5D5A06801280AD0002801D0052810D0C5
:10402000286A400840002862286AB84301E0286AEC
:1040300030432862A068002812D0FFF7F5FD0090F9
:104040000AE0286A38432862F1E7FFF7EDFD00999E
:10405000411A5F48814249D8286A8007F5D50DE0AA
:10406000FFF7E2FD009006E0FFF7DEFD0099411A40
:10407000574881423AD8286A8007F5D40198002829
:1040800004D0E969012000078143E9612078C00676
:1040900035D5606901280CD0401D686B23D03843AA
:1040A0006863686B400840006863FFF7BDFD064623
:1040B00022E0686B38436863686B30436863FFF7DE
:1040C000B3FD064604E0FFF7AFFD801B02285BD876
:1040D000686B8007F7D5686BF8218843A169C90030
:1040E000084368630BE0B8436863F4E74CE0FFF70C
:1040F0009BFD801B022847D8686B8007F7D4206A95
:1041000000285ED069680907890F022942D001267C
:1041100036060228286805D0B0432860FFF784FDE2
:10412000044633E0B0432860FFF77EFD074604E015
:10413000FFF77AFDC01B022826D828688001F7D433
:10414000E86AE16A000900010843E862616AA06A5E
:10415000084369683D221204914308436860286857
:1041600030432860FFF760FD044604E0FFF75CFD84
:10417000001B022808D828688001F7D521E0FFF746
:1041800053FD001B022801D90320FEBD28688001D1
:10419000F5D416E00128F8D06868E96A0122120413
:1041A000636A02409A420AD10907E26A090F914202
:1041B00005D10F2189040840A16A884201D001205D
:1041C000FEBD0020FEBD0000001002400070004057
:1041D00088130000094910B5401E884201D901200A
:1041E00010BD074C60610321081F02F02DFC002068
:1041F000A06107202061002010BD0000FFFFFF002C
:1042000000E000E07047704730B5034620331A7F66
:10421000012A26D001221A770325CA682D02AA4353
:104220008D6800242A430125AD02AA434D68006829
:104230002A430125ED02AA430D682A4301252D03D7
:10424000AA430D692A4301256D03AA434D69C96933
:104250002A430125AD03AA430A4342641C77002088
:1042600030BD022030BD0000F0B502462032137F81
:10427000012B1ED001251577022353770668746839
:10428000B3687027BC430F682743776000680A4C07
:10429000A04205D0094CA04202D0094CA04204D152
:1042A00080244968A3431943816055770020107723
:1042B000F0BD0220F0BD0000002C014000040040D1
:1042C0000040014070B5040005D025462035687FC8
:1042D000002802D006E0012070BD0020287720468B
:1042E00000F014F802206877211D206801F080FE9C
:1042F00001204034A071A877E87720706070A0702A
:10430000E070207160716877002070BD08B5194AAF
:1043100001681948914205D1C26981150A43C261F9
:10432000C0691AE0154A914210D18269012109043D
:104330000A438261806900220840009011461420DF
:10434000FFF7D2FC1420FFF7C3FC08BD0C4A9142D2
:1043500006D182690121490408E00840009008BDA7
:10436000084A9142FBD18269012189040A43826192
:104370008069F2E700200040001002400040014048
:104380000044014000480140014620314A7F012A93
:1043900001D00120704702224A770268D3680121C8
:1043A0000B43D3600068094A904205D0084A904206
:1043B00002D0084A904204D182685207520F062A5E
:1043C00002D002680A43026000207047002C0140BE
:1043D0000004004000400140F8B505460446203581
:1043E000287F0026012817D001202877022068772F
:1043F000226890687727FF23B8431B029843906098
:104400000868502838D00EDC20284FD006DC002861
:104410004CD010281ED149E00220F8BD302845D0EC
:10442000402817D13AE060282ED0702819D00122F8
:104430001203801A0FD090420CD1CB684A68896869
:10444000206801F0A7FE20688168012292031143D1
:10445000816000E00126012068770020287730463F
:10446000F8BDCB684A688968206801F093FE21682E
:10447000886838438860EEE7CA684968206801F0B8
:1044800099FF5021206806E0CA684968206801F059
:10449000CBFF6021206801F088FEDCE7CA6849682C
:1044A000206801F087FF40212068F4E72268014678
:1044B0001046F0E77047000010B5054A01689142C8
:1044C00004D1007F012801D101F058FD10BD00008A
:1044D000002C0140F8B50446002026462036009006
:1044E000307F0D4601280ED001203077002A0CD0F5
:1044F000042A19D0082A2AD00C2A51D00090002072
:1045000030770098F8BD0220F8BDEB6806CD083D75
:10451000206801F061FF206882690C218A43826172
:1045200020688169AA680FE0EB6806CD083D206825
:1045300001F08DFF2068816903229202914381611D
:1045400020688169AA68120211438161D7E72A684D
:1045500020689646297B6A68036A9C46036AFF279F
:104560000137BB430362C36909079B089B001343E0
:10457000F0229343090E19430522634652029343E6
:1045800072460A273A4012021A43C1610262206849
:10459000C1690C229143C1612068C169AA682CE0FD
:1045A0002B6820689E466F682B7B026ABC46016AB6
:1045B00001273F03B9430162C16903273F02B943A1
:1045C00067463F020F430F2109038F431907090C68
:1045D000052339435B039A4373460A273B401B0379
:1045E0001343C16103622068C269032189028A43BF
:1045F000C2612068C169AA6812021143C1617EE7E5
:1046000070B5040005D025462035687F002802D00B
:1046100006E0012070BD00202877204600F014F845
:1046200002206877211D206801F0E2FC012040345F
:10463000A071A877E87720706070A070E07020719A
:1046400060716877002070BD10B586B004461421F3
:104650006846FBF74DFE15492068884223D114486F
:104660008269C1140A43826182690A4005924269E3
:1046700089010A4342614069084005904812009050
:1046800000200221029003900191049109206946C3
:10469000C006FFF7EBF9002211460E20FFF724FBBE
:1046A0000E20FFF715FB06B010BD0000002C0140E6
:1046B0000010024070B50346044600252033403008
:1046C000002908D0042909D008290AD0467842795F
:1046D000012E0BD108E09E7F8278F9E7DE7FC27859
:1046E000F6E706780279F3E7012A01D0012070BDD0
:1046F0000222002909D004290ED0082912D04270C4
:1047000042710C292ED001252AE09A778270206808
:10471000C3681343C3600CE0DA77C2702068C268D4
:10472000042304E0027002712068C26808231A435F
:10473000C2600122206801F0A7FC0C4A2068012118
:10474000904205D00A4A904202D00A4A904204D1CF
:1047500082685207520F062A02D002680A4302609A
:10476000284670BD2068C2681023E0E7002C014095
:104770000004004000400140F8B504460068C668E7
:1047800005690027A907002913DAB10711D5F91E19
:10479000016101202077206880698007204602D0CF
:1047A000FFF78AFE04E000F0DBF8204600F096F9FF
:1047B0002777680716D5700714D504202168C043F1
:1047C000086102202077206880698005800F2046DC
:1047D00002D0FFF771FE04E000F0C2F8204600F0BE
:1047E0007DF92777280715D5300713D508202168CC
:1047F000C0430861042020772068C06980072046F4
:1048000002D0FFF759FE04E000F0AAF8204600F0BD
:1048100065F92777E80616D5F00614D5102021682B
:10482000C0430861082020772068C0698005800F98
:10483000204602D0FFF740FE04E000F091F8204649
:1048400000F04CF92777E80708D0F00706D00120E0
:104850002168C0430861204600F03CFB280608D5CB
:10486000300606D580202168C04308612046FFF746
:10487000C9FC680608D5700606D540202168C043EB
:104880000861204600F027FBA80608D5B00606D52B
:1048900020202168C04308612046FFF7B4FCF8BD22
:1048A000F0B587B0044614216846FBF721FD264881
:1048B000256800222549022485420FD14B69001347
:1048C00003434B6149690094014001200591049024
:1048D00002920194039269461D4813E01D4E09207F
:1048E0003301C006B54211D14D691D434D6149697F
:1048F0000292194005911021009104210194039224
:1049000004911EE0FFF7B2F807B0F0BD124F052684
:10491000BD4207D14D691D434D614969194005915B
:10492000402109E00D4FBD42EED14D691D434D615F
:1049300049691940059180210292049601940392DD
:1049400000916946DEE700000004004000100240CC
:10495000000400480020004000440140004801409D
:104960007047F8B5064604462036307F00270D46CE
:1049700001280ED001203077002A0CD0042A1BD049
:10498000082A2FD00C2A3ED0012700203077384645
:10499000F8BD0220F8BD206801F010FC2068816994
:1049A0000822114381612068826904218A4382615F
:1049B000206881692A6912E0206801F043FC2068C0
:1049C00082690121C9020A4382612068816901224A
:1049D000920291438161206881692A691202114320
:1049E0008161D2E7206801F06DFC2068C16908226E
:1049F0001143C1612068C26904218A43C2612068F1
:104A0000C1692A6912E0206801F09EFC2068C16932
:104A10000122D2021143C1612068C26901218902C9
:104A20008A43C2612068C1692A6912021143C161C7
:104A3000ABE770B5040005D025462035687F002817
:104A400002D006E0012070BD00202877204600F04B
:104A500015F802206877211D206801F0C9FA0120AD
:104A60004034A071A877E87720706070A070E07083
:104A7000207160716877002070BD000038B5054670
:104A800000681249884220D11148C26902210A43B4
:104A9000C261C069104C084000900E482060102090
:104AA00060608021E1600020A060490021618900F0
:104AB000A0616161E0612046FEF7D4FC002801D0CE
:104AC000FEF774F82C632C62656238BD0004004068
:104AD00000100240300002400803002010B5074AD1
:104AE0000168914209D1007F082806D104490020BD
:104AF000C870044803C800F077F910BD00040040F6
:104B00004A000020B80300207047000030B504467A
:104B10000222203000290AD004290DD0204640303E
:104B200008290ED04378012B10D0012030BD837F9F
:104B3000012BFAD182770AE0C37F012BF5D1C2772E
:104B400005E00378012BF0D1027000E042700122F1
:104B5000206801F099FA12492068124B884207D068
:104B6000984205D0104A904202D0104A904204D197
:104B7000426C0125ED032A434264206801228842E9
:104B800004D00B49884201D0984204D1816849077A
:104B9000490F062902D0016811430160002030BD91
:104BA000002C014000400140004401400048014009
:104BB00000040040F8B5044600200D460090214650
:104BC0002046203140309446002D0AD0042D0DD0CF
:104BD000082D10D04278022A12D04278012A11D032
:104BE00075E08A7F022A0BD08A7FF7E7CA7F022A04
:104BF00006D0CA7FF2E70278022A01D00278EDE7F8
:104C00000220F8BD6246002A61D0002B5FD0022648
:104C1000484F494A002D09D0042D18D0082D27D01F
:104C200046700C2D44D00120009080E08E77606AA1
:104C30008762606AC262616A4048086322686146AE
:104C40003432606AFEF738FC002840D121E0CE778C
:104C5000A06A8762A06AC262A16A384808632268B3
:104C600061463832A06AFEF727FC00282FD115E0F4
:104C70000670E06A8762E06AC262E16A2F480863F0
:104C8000226861463C32E06AFEF716FC00281ED11D
:104C900009E02068C168012252021EE02068C16854
:104CA0000122920219E02068C1680122D20214E0B8
:104CB000206B8762206BC262216B204808632268E8
:104CC00061464032206BFEF7F7FB002801D001203F
:104CD000F8BD2068C168012212031143C16001229E
:104CE0002946206801F0D0F9154A206815499042FC
:104CF00007D0884205D0144B984202D0134B9842FB
:104D000004D1436C0125ED032B4343642068012348
:104D1000904204D00E4A904201D0884204D181686A
:104D20004907490F062902D001681943016000981C
:104D3000F8BD0000A3600008096100084161000897
:104D4000002C014000400140004401400048014067
:104D50000004004070B504460D460068002201F0D2
:104D600093F91D491B4B20688A10984208D01B4BB1
:104D7000984205D01A4B984202D01A4B98420AD159
:104D8000036A0B4207D1036A134204D1436C012624
:104D9000F603B34343642068036A0B4206D1016AF9
:104DA000114203D1016849084900016020462030C2
:104DB0000121002D07D0042D07D04034082D06D046
:104DC0006170002070BD8177FBE7C177F9E7217042
:104DD000F7E70000002C01401111000000400140E5
:104DE0000044014000480140F8B500260D46044645
:104DF000002907D0042D0DD0082D13D00C2D19D06B
:104E0000012655E02068C168012252029143C16029
:104E1000606A16E02068C168012292029143C16075
:104E2000A06A0EE02068C1680122D2029143C160ED
:104E3000E06A06E02068C168012212039143C16064
:104E4000206BFEF79DFA00222946206801F01CF92C
:104E50001C491B4B20688A10984208D01A4B984274
:104E600005D01A4B984202D0194B98420AD1036AD6
:104E70000B4207D1036A134204D1436C0127FF039D
:104E8000BB4343642068036A0B4206D1016A1142A6
:104E900003D1016849084900016021460120203101
:104EA000002D07D0042D07D04034082D06D06070A7
:104EB0003046F8BD8877FBE7C877F9E72070F7E759
:104EC000002C01401111000000400140004401404D
:104ED000004801407047704710B500210148FFF7B6
:104EE00015FE10BDC0020020FEE70000FEB53849E7
:104EF000384C394B4A785B7DE1680193A6790025EF
:104F0000731EDBB20093731CDFB2012A15D0324A44
:104F1000927D002A58D001F0E3FE3F210906E060AF
:104F2000884252DB01992C48002946D0002E3FD000
:104F30000099A17100293ED044E001F0D1FE3F214B
:104F40000906E060884232DB23484088002810D000
:104F50000198002807D0002E03D00098A0710028E7
:104F600008D1032003E0A771032F03D90120A0710A
:104F700000E0A571194A9088002803D02079C04329
:104F8000207100E025711649486800280DD053882B
:104F9000104A002B527902D02379934205D08968B8
:104FA000884202D0D043607100E06571E560FEBDCB
:104FB0000320A07106E0857504E0A771032F01D9D5
:104FC000A571F8E7E56000E0A57125716571FEBD8A
:104FD000FC0E002050000020280F00200C0F0020A5
:104FE000400F0020FFB583B001201F46C0070D9D74
:104FF0000E9E0B4645404640114618460C9C01F05B
:1050000045FF0146E060284601F008FF07D3E0684D
:105010000D9901F003FF01D20D9D00E0E568E56008
:105020002846216901F032FF396801F09FFE2060B7
:105030002946786801F09AFE039901F097FE01462F
:105040006060304601F0EAFE07D360680E9901F017
:10505000E5FE01D20E9E00E0666866600398019648
:105060004000000E29D07F20C0050399FBF7E0FF28
:105070000546206901210090FCF7F8F8E668314602
:1050800001F0F8FE616901F02BFEB96801F06EFED7
:10509000294601F06BFEA06005462068019901F0E9
:1050A0001FFE294601F01CFE616A01F019FE6062D4
:1050B00000982661606107B0F0BD0025D9E70000C7
:1050C000F1B5FF210131B848FEF7A2FDB74C00262B
:1050D0000127B74D002808D1287B00287ED1A87B66
:1050E00000287BD1E078002803D02078012806D062
:1050F00067E0A168009801F0F3FDA0602770FF2130
:105100000131A948FEF784FD012843D1A948A168CF
:105110000918A94881423AD22879002805D00120EF
:10512000A64980070860A86031E0A54801780129F8
:1051300002D0002919D026E0A24909684900090EC9
:105140000CD00670467000F00BFD9F4806609F482B
:1051500006609F4806609B48066014E09D48077003
:105160009D4807709D48077003E00770477000F086
:10517000F7FC954801210660944889070660944829
:105180000660904801608B4895494042086026704F
:10519000E670A6609348A16809189348814210D22E
:1051A000E07800280DD12879002805D00120834916
:1051B00080070860A86003E001218048890701603A
:1051C000E770012149027848FEF722FD00280AD144
:1051D000287B002802D1A87B002800E07EE07DD15A
:1051E0002079002803D06078012806D036E0E168F5
:1051F000009801F075FDE0606770012149026A487E
:10520000FEF706FD012812D16A48E16809186A48CC
:10521000814209D22879002801D02E7100E02F7137
:1052200064486F494042086066702671E6606D48C8
:10523000E16809186C48814210D2207900280DD10C
:105240002879002805D001205C4980070860A86003
:1052500003E00121594889070160277101214903B1
:105260006248FEF7D5FC002808D1287B002835D1FC
:10527000A87B002832D16079002803D0A0780128CB
:1052800006D053E02169009801F02AFD2061A77043
:10529000012149035548FEF7BBFC01282FD14548A1
:1052A000216909184448814226D22879002805D06E
:1052B0000120424980070860A8601DE0A878032803
:1052C0000DD00320A8704048494901603F4806605E
:1052D0003F4806603F4807703F4808E04CE04548BB
:1052E000AE70867620308677374806603B483C496A
:1052F0000770304840420860A670667126613948E0
:10530000216909183848814210D2607900280DD1EE
:105310002879002805D00120284980070860A86066
:1053200003E00121254889070160677104211E48B7
:10533000FEF76EFC012820D0287B01281CD100211B
:105340002D48FFF7E3FB2C49C8200968486300F0AB
:1053500063F87D20C000FCF753FE00F064F81548A8
:105360001F494042086023482E730189C068FEF738
:105370004FFC002800D1AF73F8BD20482F73018B7C
:105380001F4881871F4807700D480670467000F05F
:10539000E7FB2E716878012803D11B4902200870B1
:1053A000EF70AE73F8BD0000000400481C00002040
:1053B000FC0E0020333333C23333F30118000020D6
:1053C000D100002088000020840000208000002000
:1053D0007C0000209600002097000020980000200C
:1053E00014000020FFFF3FC0FFFF7F0000080048BF
:1053F0000000C04070030020A00100200C0F00201E
:10540000200E00209C000020280F00206420401E59
:105410000006000EFBD1704710B53C22FF21002092
:1054200001F016FA10BD10B500213C22084601F02B
:105430000FFA10BD10B5284C012280212046FEF73E
:10544000ECFB012220212046FEF7E7FB0122102180
:105450002046FEF7E2FBFFF7D9FF0022802120461D
:10546000FEF7DBFBFFF7D2FF002001F08BFA0120F3
:1054700001F04EFA032001F04BFA042001F048FA43
:10548000052001F045FA082001F042FA182001F049
:105490003FFA292001F03CFA802001F039FA40203F
:1054A00001F036FAE32001F033FA01228021204690
:1054B000FEF7B3FB00210948FFF728FB0749C82086
:1054C00009684863FFF7A8FF7D20C000FEF72AF8AF
:1054D000FFF7A9FF10BD000000040048780200207B
:1054E00010B50C480188491C01804188491C418045
:1054F0008188491C8180C188491CC1800189491C5F
:1055000001814189491C41818189491C818100F0C7
:1055100059FC10BDB40000203EB500211C4800918C
:1055200001910291416081600124184A0461026086
:10553000C16004224261017641768176C176910193
:10554000C16189000162014620310C718462FDF75E
:10555000B9FD002801D0FDF729FB012000030190CF
:1055600007200290009469460948FDF7BFFC002817
:1055700001D0FDF71BFB0220009069460448FDF7AF
:10558000B5FC002801D0FDF711FB3EBD0024014011
:10559000D400002008B50C48416901221143416143
:1055A000406910400022009011460920FEF79CFB44
:1055B0000920FEF78DFB002211460A20FEF794FB1E
:1055C0000A20FEF785FB08BD00100240F0B587B049
:1055D00014216846FAF78CFE3C4842690121C9044F
:1055E0000A43426142690A4005924269C9000A437E
:1055F000426142690A400592426949110A43426187
:1056000042690A400592426949000A434261406981
:105610002F4E08400D110590002229463046FEF716
:10562000FCFA2C4F002201213846FEF7F6FA01223F
:10563000B0213846FEF7F1FA68100024009001947A
:10564000694602943046FEF711FA0095012502944E
:105650006946304601950394FEF708FA2820009029
:105660000920019469460294C006FEF7FFF90095EF
:1056700002946946384601950394FEF7F7F91648F7
:1056800000900194694602943846FEF7EFF9112024
:105690008002009080010190694602943846FEF72E
:1056A000E5F9B0200090032003900195029569462A
:1056B0003846FEF7DBF9002211460720FEF714FBFF
:1056C0000720FEF705FB07B0F0BD00000010024008
:1056D00000080048000400480433000010B588B0FA
:1056E0001C216846FAF704FE16481549016000249B
:1056F000772184604160FF21046190318461C16041
:10570000FEF7E0FD002801D0FDF750FA0D48FFF745
:1057100090F9002801D0FDF749FA6020009001942B
:1057200002940022694604940648FFF71AF90028FB
:1057300001D0FDF73BFA0348FFF7B2F808B010BDFF
:1057400000200040E801002010B586B0002400943D
:105750001748019402940394049414490594016039
:105760002F21846041600461446112498461C160F9
:10577000FEF7A8FD002801D0FDF718FA012000036C
:10578000009069460A48FEF727FE002801D0FDF781
:105790000DFA202004A911C105480839FEF764FD5F
:1057A000002801D0FDF702FA06B010BD004001400C
:1057B00030020020E703000010B590B01C2108A8BB
:1057C000FAF796FD20216846FAF792FD2148204914
:1057D000016000247721846041600461FF214461FD
:1057E00090318461C160FEF76DFD002801D0FDF7A6
:1057F000DDF91848FFF71DF9002801D0FDF7D6F9AB
:1058000060200D94099408900A940B940C94002243
:1058100008A90E940F48FFF7A4F8002801D0FDF75F
:10582000C5F901200094400302940590019403946B
:105830000494694607940748FEF7E6FC002801D067
:10584000FDF7B4F90348FFF72BF810B010BD0000C6
:10585000004401407802002010B590B01C2108A837
:10586000FAF746FD20216846FAF742FD2148204913
:10587000016000247721846041600461FF2144615C
:1058800090318461C160FEF71DFD002801D0FDF755
:105890008DF91848FFF7CDF8002801D0FDF786F9FB
:1058A00060200D94099408900A940B940C940022A3
:1058B00008A90E940F48FFF754F8002801D0FDF70F
:1058C00075F901200094400302940590019403941B
:1058D0000494694607940748FEF796FC002801D017
:1058E000FDF764F90348FEF7DBFF10B010BD0000C0
:1058F00000480140C002002010B586B00024059485
:10590000184804940094019402941549039401608A
:105910001549846041600461446114498461C16037
:10592000FEF76EFE002801D0FDF740F9049404A9AB
:105930000C480594FEF798FC002801D0FDF736F9D5
:1059400001200190009402940022694603940548C6
:10595000FEF7C0FD002801D0FDF728F906B010BD04
:10596000002C014058010020BF120000FFFF000082
:1059700010B58AB0002407941C2168460894FAF7F1
:10598000B7FC1649164812C0046084603B210461CC
:1059900041600838FFF74DF8002801D0FDF706F9FF
:1059A000079407A90E480894FEF75EFC002801D072
:1059B000FDF7FCF860200090019402940C226946E7
:1059C00004940748FEF7CDFF002801D0FDF7EEF85C
:1059D0000348FEF765FF0AB010BD00000004004058
:1059E000A0010020FEB50D46064616490820085EB7
:1059F000FBF730FC04462846FBF72CFC0146144D0F
:105A00001148124A2B46019202900C3B0095224607
:105A10003046FBF719FE0F493046FBF709FB696A70
:105A200001F05EF9FBF7B4FBFF219031002801DAA9
:105A3000002002E0884200DD084607490968486303
:105A4000FEBD00000C0F0020000096430000C8427D
:105A5000A00E002000007A44C0020020F1B52A4ABE
:105A60002A48517800262A4C056884B0012902D1C1
:105A7000107B002802D00020666218E02448254BE5
:105A8000406A9F884100002F2DD0D278002A11D083
:105A9000090E0AD07F21C90501F0F8F96062FF21E3
:105AA000C905C84229D3666227E0606AF7E76863E0
:105AB00005B0F0BDD888FBF7D5FB05463846FBF7A7
:105AC000D1FB01461448124B019002900C3B2A4630
:105AD00000940498FBF7B8FD606AFBF77FFB0B4965
