:020000040800F2
:100000002811002059010008DD510008C1470008EF
:1000100000000000000000000000000000000000E0
:10002000000000000000000000000000455700082C
:100030000000000000000000C5560008AD57000891
:100040006B010008000000006B0100086B01000854
:100050006B0100086B0100086B010008DD29000836
:1000600000000000091C00086B0100086B0100087B
:10007000CD1300086B010008CD59000800000000F6
:100080006B0100086B010008000000006B01000814
:10009000555900086B0100086B0100086B0100084E
:1000A0006B0100086B0100086B0100086B01000880
:1000B0006B01000800F002F800F03EF80CA030C818
:1000C000083824182D18A246671EAB4654465D46D4
:1000D000AC4201D100F030F87E460F3E0FCCB64660
:1000E0000126334200D0FB1AA246AB4633431847E1
:1000F000D46A0000F46A0000103A02D378C878C1CC
:10010000FAD8520701D330C830C101D504680C6059
:10011000704700000023002400250026103A01D378
:1001200078C1FBD8520700D330C100D50B607047AF
:100130001FB51FBD10B510BD01F0E6F81146FFF761
:10014000F7FF05F0C1FF01F0FEF803B4FFF7F2FF7F
:1001500003BC01F033F90000074880470748004717
:10016000FEE7FEE7FEE7FEE7FEE7FEE70448054997
:10017000054A064B70470000F7580008B500000814
:10018000280B002028110020280D0020280D002019
:1001900010B5202A04DB0846203AD040002110BDCB
:1001A0000B462024D340D040A21A91400843194660
:1001B00010BDFEB5054610460C46184373D0AE463A
:1001C0008C460020AD1A01469C4167D36646002745
:1001D00001243D46B61A9D4102D313463A462124D6
:1001E000654676462F04360C3E432D0CB61A9D41CB
:1001F00004D3150C1B042B431204103465467646B9
:100200002F06360A3E432D0AB61A9D4104D3150E19
:100210001B022B4312020834654676462F07360927
:100220003E432D09B61A9D4104D3150F1B012B43E4
:100230001201241D65467646AF07B6083E43AD0859
:10024000B61A9D4104D3950F9B002B439200A41C2A
:1002500065467646EF0776083E436D08B61A9D411F
:100260001AD392185B41641C16E000187646654666
:100270004941B71A9D410191009009D36046B11AD6
:1002800098418E468446009801990025401C69419A
:10029000DD0752082A435B08641EE6D572466346B2
:1002A00003B0F0BDFFE700200146C046C0462A4625
:1002B0002346F5E701E004C0091F0429FBD28B07A0
:1002C00001D50280801CC90700D002707047002948
:1002D0000BD0C30702D00270401C491E022904D370
:1002E000830702D50280801C891EE3E70022EEE727
:1002F0000022DFE7002203098B422CD3030A8B4242
:1003000011D300239C464EE003460B433CD400220D
:1003100043088B4231D303098B421CD3030A8B421F
:1003200001D394463FE0C3098B4201D3CB01C01AED
:10033000524183098B4201D38B01C01A52414309B8
:100340008B4201D34B01C01A524103098B4201D3A6
:100350000B01C01A5241C3088B4201D3CB00C01A13
:10036000524183088B4201D38B00C01A524143088B
:100370008B4201D34B00C01A5241411A00D20146B0
:100380005241104670475DE0CA0F00D04942031049
:1003900000D34042534000229C4603098B422DD398
:1003A000030A8B4212D3FC22890112BA030A8B4240
:1003B0000CD3890192118B4208D3890192118B428F
:1003C00004D389013AD0921100E08909C3098B4214
:1003D00001D3CB01C01A524183098B4201D38B0157
:1003E000C01A524143098B4201D34B01C01A5241FA
:1003F00003098B4201D30B01C01A5241C3088B423F
:1004000001D3CB00C01A524183088B4201D38B0029
:10041000C01A5241D9D243088B4201D34B00C01AB3
:100420005241411A00D20146634652415B101046C8
:1004300001D34042002B00D54942704763465B1010
:1004400000D3404201B50020C046C04602BD7047FF
:10045000704770470246C80FC00781434B0030B554
:100460004B405B009B0D20D01923DB06C9180123EC
:100470001B05994220DB0324A40704251346AB4047
:100480000BD3002B04D1EB0613409B00E34204D4B2
:1004900001246407002312195941FF231B059942C7
:1004A0000BD2C9000143500F09E0CB0204D5014330
:1004B0000803024305D0054830BDFF21C9050843A4
:1004C00030BD084607210905884330BD0000C07FC4
:1004D000F0B50C46871A9C410D46861A9D4103D201
:1004E000C01BA141D21963410D0D1F0DC94EEC1B5C
:1004F000AE435CD07F057F0D0026002F51D02D0527
:10050000AC46A943DD020123ED0A1B051D43202350
:100510001B1B24D41746E740381871412F46E7408B
:10052000CC199D402818314661410C0D27D16144FA
:100530009A4013D50023401C594152000ED1400867
:10054000400001224B005205D34207D3052040074B
:10055000C14201D5B04900E0B0493046F0BD6B0062
:10056000002A00D001229A181F23203C1B1B01D512
:10057000002302E0E540281871410C0DD7D001247A
:1005800024050919C407CD0740084908E40F28438A
:100590006144002CD5D00024401C61419A40D0D148
:1005A000CDE76A05520DD9D1C90FC907D5E79C4DD2
:1005B0004E00002801D0012400E0002434195F001F
:1005C000002A01D0012600E00026BE19954FAC425A
:1005D0000CD8AE420AD8B44206D001256D05EC42D3
:1005E000BCD010461946F0BD9942FCD000203946D7
:1005F000F0BDF0B51FB40C460F46811A9F41254649
:10060000861A9D4106D20125ED076F40401ABC4174
:1006100052187B41210D1E0D8D1BAC467D4D8D4327
:100620007ED075056D0D7CD00D05AE46AC431B0329
:100630001B0B794D52429D41202366469B1B14D3D0
:100640001746F740381800260090744160462F4640
:100650000741E41900989D402818664116D4714658
:1006600071189A4025D5012320E093182A466A4143
:100670005200002B00D0521C1E23203E9B1B002B3F
:1006800061DD3541EE1728186641E8D5001876413E
:100690005B1C9A4000D3401C4B05F3181524E34023
:1006A00010D3002B52D071467118D30FC01802D34B
:1006B000491C05B0F0BD0123DB079A42F9D140087F
:1006C0004000F6E701225205B21801D1002853D0AC
:1006D0000123CC0ADB029943891E002A08D1020CAF
:1006E00003D0020C0004103902E002460020203939
:1006F0000023550B05D112020823550B01D15201DD
:100700000D23550C01D112011B1DD50C01D19200F6
:100710009B1C150D01D152005B1C2025EE1A01E037
:100720002CE022E00546F54015439840CA1AE1073F
:1007300069181305C918002ABBDA032040070818F6
:10074000C10FC9070FE071466118B2E7F107400811
:100750000843711071444A000CD001235B059A4292
:10076000A7D2C90FC9070020A3E74905490D26D123
:10077000002001E00028F4D100219AE7284D66000E
:10078000002801D0012100E0002171185F00002A3B
:1007900001D0012600E00026BE19224FA94210D840
:1007A000AE420ED8B14208D001256D05E94206D00F
:1007B0001946A802414010467BE79C4201D02146E1
:1007C00077E70020394674E710B50C465C4005D544
:1007D0000124E4076340FFF70CFF10BDFFF778FE2C
:1007E00010BD30B40C465C4004D50124E4076340DE
:1007F00030BC6DE630BCFCE670B50124E407614016
:100800000D465D4002D4FFF763FE70BD6340FFF705
:10081000F0FE70BDFF0700000000F0FF0000F07F59
:100820000000E0FF0000F87FF0B5F94D0C091E094B
:100830002C402E402F468BB0A7437DD0B543FCD033
:10084000002E7AD0002CFCD00D465D40ED0F2543E4
:10085000AC1BFF25AD0464190894C502440DC90200
:100860002143500DDC0204430120C007014304432F
:10087000D2020191200C110C00958C4601042346F4
:100880008B430A9161460904E24D8A430991010AAA
:100890007D4449198039097805464D4301266D1874
:1008A000F605751B6943C90C640B891C4C4364181D
:1008B000B5012C1B250C2E04B4434C434D43210C95
:1008C000691889090591009DE90701D00121C9072F
:1008D00004912C4601996708CD072F434C08059DCC
:1008E000E10B4D432D0C29466646754302950D4696
:1008F00045432E46029D7D1BB44100950D465D4348
:1009000001942C0C2F040D465543AE462D0C3D434F
:10091000029503947546049C2D04641B049406D22E
:10092000029C039D641C002675410395029401AC52
:1009300070CC009F7D1B01E03EE162E1B4410904FF
:100940000095079101940599A4086143090C0C4690
:100950004443650BE7040C4666467443A646640BA5
:100960003C43039502947446049DE4042C1B0494B8
:1009700006D2029C039D641C0026754103950294D7
:1009800001AC70CC009F7D1BB44101940C465C43CC
:100990000095650FE7000C465443A646640F3C43A0
:1009A000039502947446049DE4002C1B049406D223
:1009B000029C039D641C002675410395029401ACC2
:1009C00070CC009F7D1BB441AE09AF06049DC900E9
:1009D000AD092F43049DA406AD060495079D34433D
:1009E00069180791059DE10B4D432D0C294666467C
:1009F000754302950D4645432E46029D7D1BB4412D
:100A000000950D465D4301942C0C2F040D46554373
:100A1000AE462D0C3D43029503947546049C2D046F
:100A2000641B049406D2029C039D641C002675413D
:100A30000395029401AC70CC009F7D1BB4410194DE
:100A40008C050694079C890A611800950791019C02
:100A50000599A4086143090C0D464543680BEF0452
:100A60000D46644665436C0B3C43049FED047D1BBF
:100A7000AC4602D20025641C6841009E019D371BD4
:100A800085410846584301950C46460FC50054431E
:100A9000600F28436546E4002C1B02D20025401C51
:100AA0006E41019D3F1AB5412846BD098006284385
:100AB0008446A009BF064E020699A406761807438D
:100AC000079D002068410A99079019430020099B5F
:100AD00000906046FF1913434041E20F64003A431F
:100AE000A4460446D71A8C41A04203D901200090A5
:100AF00020463A46C70F941840416246D20F22431F
:100B0000644664000494009CBE466400D71AA44660
:100B1000044602978C417746002F01D1A04204D9A8
:100B20006046401C8446029A2046C40FA64694188C
:100B30004041049A0546D20F224364466400D31A0A
:100B40008D417146002901D1A84202D928461A4692
:100B5000641C10430122002800D0164361020020CB
:100B6000079B891904465C410223002C02DB4918CB
:100B700013466441089DCE0A2D145D194B05670587
:100B8000E10A2C050D1908993E43C9076940002B5D
:100B900008D0934006D30022761C5141002B01D18E
:100BA000760876001C4A002D43DB154241D0AA434B
:100BB0003FD030460BB0F0BD06180D464D41174CE6
:100BC0007642AC411AD395181C465C41134A6D42DB
:100BD000A24113D3012252054C00D4420AD15C0039
:100BE000D4420BD04B4002D592021143E2E74900B8
:100BF0004908DFE75940C90FC90718E00020084934
:100C0000D8E7054801420DD10342F7D0F2E70000D2
:100C10000000FF07706200000000F07F0000E0FFAE
:100C20000000F87F114859400143C01241400020A4
:100C3000C0E70123089A9B069A4205DC032252076B
:100C40008918C90FC907B5E7052252078918074A4D
:100C50001143D2125140ADE770B515461C4602460D
:100C60000B4628462146FFF7DFFD70BDFFFFFF7FE3
:100C70001F22030C02D10F22000402D0030E03D066
:100C800004E00020014670470002083A030F01D13A
:100C90000001121F830F01D18000921E002801DB8A
:100CA0004000521E120551184205C012411810464C
:100CB0007047C10FC90700D040420122920711437B
:100CC000D6E701218907D3E7F0B58B4C0F092546FC
:100CD00089B0BD437BD01D092646AE43FAD00E46EF
:100CE0005E402740F60F3E43254071D0240121424B
:100CF000FBD0FF24AD19A4042D1B039501252D0560
:100D0000DB02DB0AC9022B43C90A29431E01090180
:100D1000040F130F050121431701880B8203914330
:100D20002D098C46A90B1E438A039543B30B9A03E6
:100D300096433F09BA0B9403A74302962E467E437F
:100D40000497B6464E19D7190C4601965443059799
:100D50007E43371B7646BF1B3601B646BE0B36199F
:100D600000967646BC043719009C01D3641C00949D
:100D70006400002F01D001263443029E049F754376
:100D800066467E430496760034196E00341900944A
:100D9000029C019E1C196643751BAE46069465466F
:100DA0004519059C05956C43594375460891691A88
:100DB0000191049E01465143A41B0491611A009CB9
:100DC0000791E10605D061090122114302E072E0BA
:100DD0006EE06109089D00272C0A2D066918049D04
:100DE0007C412A0A2D066918019D6241AC0DAD02B5
:100DF0006D185441079A910D920255196141029A5A
:100E0000644658435443069B059A5A43121A131BCF
:100E10009A0E9B015B187A41010B0005C3185141E2
:100E2000220A200644195A419A4200D2491C012044
:100E30004002814203D315230226F64302E0142325
:100E40000326F6432020C51AA9401746AF40DA40D2
:100E50000A4320460399D8400914731819055118FC
:100E6000039A3843D2075140AC4009D00122944044
:100E700006D30022401C5141002C01D14008400003
:100E80001E4A934212D3012203989206904207DB36
:100E90000520400709181A480143C012414004E0E8
:100EA000032040070818C10FC907002009B0F0BD92
:100EB0000020F107FAE705180C464C4111486D4235
:100EC000A04115D394181A465A410E4864429041E5
:100ED0000ED301204A004005824209D35A008242C3
:100EE00006D35940C90F084AC90700201143DDE75E
:100EF00000200649DAE700000000FF07FE070000B7
:100F0000FFFFFF7F0000E0FF0000F07F0000F87FA0
:100F10000121C9050123411842001B06D3185B0EAD
:100F20000AD0C1100722D206891840075242D14286
:100F300001D5520089187047090208D50146002AD8
:100F400003D0C10FC9070020704710467047420206
:100F500002D0002002497047072109050143F4E748
:100F60000000F87FF0B5FF252D04C609C209FF2750
:100F700004462E400137CB093E4348402A402B40CF
:100F80000746002A6BD0002B69D0AA4267D0AB423B
:100F900065D0002800DA32460125ED0529432C43AF
:100FA00009022002090AD21A4B0C7F24E31A434C8F
:100FB000000A7C44E35C7D242404121914145B00B1
:100FC000A218884201D3521C00E0400049420C465E
:100FD0005C4324115C43DB016415E318040A5C43A1
:100FE000C502200D0C4644436419250A5D432303C2
:100FF000EC0C0D46654300030019EB184C42A3426C
:1010000001D35B18401CD4052018002B07D05B00CF
:10101000C91804D3401C002901D1400840003F21D9
:1010200089048A4209D3002A08DC1106090F04D07A
:10103000032149074018C00FC007F0BD012241003D
:10104000120689187F2252069142F6D205214907DD
:10105000C84201D59010F0BDFF20C005F0BD002FA3
:1010600000DA32461648AA4207D2AB4205D219022C
:10107000090E17D0F80FC007F0BDFF2563002D063D
:10108000AB42F9D84900A942F6D8AB4201D1A942F6
:10109000F2D0A94201D1002101E061004908D00548
:1010A0000843F0BD1102090EFBD0FF200243D0051A
:1010B000F0BD0A460146104654E70000CE5B000032
:1010C0000000C07F10B501469E240002CA15A30788
:1010D000002A02D01843002A04DBA21A002A0CDDE1
:1010E000D04010BD1206120E01D140004008A21AD5
:1010F00003D4D04040420028F3DDFF22480012060E
:10110000904201D9002010BDC817C043584010BDFF
:101110000102C21504D00123DB071943002A0ADBB0
:101120009E239A1A02D40846D0407047FF224100FD
:101130001206914201D900207047C017C043704782
:101140001F22030C02D10F2200041CD0030E01D178
:101150000002083A030F01D10001121F830F01D1D1
:101160008000921E002801DB4000521ED20551185B
:10117000021251181922904004D3491C002801D1B1
:101180004908490008467047C10FC90700D04042CE
:10119000012292071143D3E701218907D0E700001C
:1011A00010B5FF22C30D134009D05A4007D0914219
:1011B00005DA5C42A14202DDC905081810BDC40F62
:1011C000E407002B06D0002A06D0002902DBFF200E
:1011D000C0050443204610BD4102FCD0004810BDAC
:1011E0000000C07F10B5FF231B0644009C421DD8A1
:1011F0004C009C421AD80346124A0B4307D4401AAB
:1012000002D3EFF3008010BDEFF3008010BD081A89
:1012100006D2EFF3008001219043C907084302E0A2
:10122000EFF30080904380F3008810BD0D231B0472
:101230001A4204D01146002000F046F810BD00F01C
:101240005BF810BD00000090C10D10B50906090E35
:101250002ED0FF2931D07E292DD319D0962916D230
:10126000024675398A4005D0002402468A4003D3DD
:10127000012302E00124F8E700230222CA41511EA3
:101280008843002B03D08018002C00D0904310BD61
:101290000121420201D1012200E00022C00FC0075B
:1012A0000029F4D0002AF2D17F21C905084310BDDE
:1012B000C00FC00710BD0021EFE74102FAD001487E
:1012C00010BD00000000C07FC80212D54803400FC7
:1012D000002804D0C803C043012188407047EFF3C1
:1012E00000800001000903210907084380F30088FA
:1012F000704700207047000010B5024800F02BF83E
:1013000010BD00000000C07F754600F053F8AE46E7
:10131000050069465346C008C000854618B020B590
:10132000FEF724FF60BC00274908B6460026C0C56A
:10133000C0C5C0C5C0C5C0C5C0C5C0C5C0C5403D8D
:1013400049008D46704710B50446C046C046204649
:10135000FEF7FBFE10BD10B50C461107090F092959
:1013600004D00A290AD008290CD104E0114608202B
:10137000FFF7AAFF06E0510606D501E0510601D5A8
:101380000120C007214610BDD10607D5010109097A
:10139000CC084907000E0006044309E0410F200273
:1013A0004907000A0143200E00061D22D1410143D6
:1013B0000846E7E700487047C80A0020014918209E
:1013C000ABBEFEE7260002007047000010B50248E1
:1013D00001F0F5FC10BD00001401002070B50C48B0
:1013E00001F006FC0B4802F00BFE03220A490848F4
:1013F00001F054FE094D0024284604F065F9641CF0
:10140000E4B2C82CF8D306490020C88070BD0000A3
:101410001401002028020020280000209A99193F7A
:10142000640A002010B50146406A826B50231A42BC
:101430000AD1816B01225202114381630168CA689B
:101440001205920F05D020E0006B026B0846904712
:1014500010BD827E002A18D10A68120715D58A6845
:1014600053070122002B09DB4B680C24A3434B607C
:10147000816B130299431143816306E0816B202342
:1014800019438163C16B1143C16301F095FC10BD29
:1014900010B5406A816B402211438163C16B042205
:1014A0001143C16301F08AFC10BD10B5406A01F020
:1014B00084FC10BDF8B504460020009020688168C7
:1014C0008907890F012905D10168C90731D1C16890
:1014D00009042ED48168184A1026114001250029DC
:1014E0001AD1816829438160154814490068FEF7C4
:1014F00001FF00E0401E00900028FBD102F022FA1C
:10150000074611E002F01EFAC01B02280CD9206821
:101510000068C043C00707D0A06B3043A063E06BF6
:101520002843E0630120F8BD20680068C043C0077D
:10153000E8D10020F8BD00001700008040420F00F5
:101540001001002070B50246082801D3084670BD7E
:10155000D0205043164BD025C3186A431846144D6B
:10156000C030847A52198032002C05D00589D46CA1
:101570006D005D5B641BD464048964001953D36CF3
:101580005918D1640189491C89B20181642904D3A5
:10159000002101810121817202E0807A002802D0BD
:1015A0006421D06C00E0D06CFEF7A4FE70BD00009A
:1015B000D0020020FFB585B008461E460F9F0E9C46
:1015C000079904F0D1FEE0600090326801461046B1
:1015D00004F03AFE206005983D464000010E0120CF
:1015E000C007454000291BD07F20C0050599FFF7A3
:1015F000B9FC0290216A079804F0B6FE029904F043
:1016000023FE01460122B068D207504004F01CFEC0
:10161000A0612846009904F06FFE03D2284609E035
:101620000020E6E73946E06804F066FE01D238465D
:1016300000E0E068716804F007FE059904F004FE1C
:10164000616804F091FDFF21C9056060C84201D3C3
:10165000002106E0109904F04FFE01D2109900E03D
:1016600061686160206804F07FFDA16904F07CFD81
:1016700060620798206209B0F0BD0000F1B51F4C10
:101680000121C90560680E121D4F884204DAA26864
:101690008A4201DA002219E04000000E09D001223E
:1016A0003146384602F047F96168009804F050FE70
:1016B0006060A5686800000E0CD02168009804F0F6
:1016C00053FD10492060884205DA01223146384630
:1016D00002F031F9F8BD0B490B4A494241189142D9
:1016E000D8D30A498842F5DB7F21C905284604F092
:1016F0003BFEA06000202060F8BD0000000000203C
:1017000000040048CDCC4C3ECDCC4C009A99993E7B
:1017100009480A4900684018094988420AD209481C
:10172000007E002806D10849012008707F20074963
:10173000C00508607047000014000020FFFF8ABB4E
:10174000FFFF09005C090020780900200400002048
:10175000F8B52A480078002830D0294801210068CF
:10176000C90588422ADA27482749027801260968EC
:10177000451C041D002A22D0012A1FD12348814282
:101780001CDD2348814219DA6878401CC7B26F70AB
:10179000606804F0E9FC6060322F0FD31D49FFF749
:1017A000E1FB1D4948610020606068700E761349B6
:1017B00008701B48194901601A480670F8BD1A4A9A
:1017C0009142FBDD194A9142F8DA2878401CC7B2F1
:1017D0002F70206804F0C8FC2060322FEED3002761
:1017E0000C49FFF7BFFB0C490861276005482F70C3
:1017F00006700B480E490160F8BD00007809002012
:1018000004000020B4000020140000200080F744F1
:101810000080FC44000048425C0900200000A04019
:10182000080000205C0000200000754400007F4498
:1018300000004040F8B5184E717801291ED1194FAB
:101840001649174D7A684B882968541E002B02D020
:10185000337B002B0CD0002A10D004F085FC7F21B4
:10186000C9052860884209DB7C60002C0AD006E0AC
:10187000002A03D0094A1278032AEED0F8BD0020CE
:101880002860F8BD0849022008700120F07008495E
:1018900006480860F3E70000540A0020640A0020AC
:1018A00000010020940A00207C0A00200000A040D3
:1018B00008000020F8B50D4D0026AF680C4C7900EB
:1018C000090E002910D0A16904F04EFC3F21090641
:1018D000A061884207DBA079C043A071384604F0BC
:1018E00043FDA860A661F8BDA671F8BD540A0020AA
:1018F00068000020F8B5344E8446F078002841D0C6
:10190000324D01272846C28831482B7D00240168CA
:10191000002B43D07378012B0AD0687D002832D089
:10192000012251022B4802F006F82C706C7532E04F
:10193000642A27D8264D604604F016FC0121890749
:1019400003C504F0D9FC1DD2204D687D002807D0C6
:10195000012251021F4801F0EEFF2C706C7507E068
:101960000121002249021B4801F0E5FF2C706F7530
:101970001A4819490160F4701A492C7518484860D2
:1019800013480460F8BD012100224902114801F00A
:10199000D2FF2C706F75F4702C75F8BD642AFCD8DA
:1019A0000546604604F0E0FB7F21C90528608842B7
:1019B000F3DD022070700C48F47007700B4807705C
:1019C0000B4807702C60F8BD540A00207C0A0020E8
:1019D000D000002000040048CDCCCC3D0400002005
:1019E0000000D8419009002066000020650000201A
:1019F0006400002070B50D4C0546A078002807D083
:101A0000FFF7CAFB294604F0AFFCFFF781FBA0708B
:101A1000064C2034A07C002807D0FFF7BDFB2946E8
:101A200004F0A2FCFFF774FBA07470BD90020020CC
:101A3000F0B5274A28481678264C0125437800211E
:101A4000002E14D0254802278688C75FBE420DD0DD
:101A50004688868066800678002E00D00170204877
:101A6000012B057002D1204E1E4830601170507855
:101A7000002816D01D4804274688C75FBE420FD0F5
:101A800086884680A6800678002E00D00170144813
:101A9000012B057002D1144E124830601448416089
:101AA00051709078002811D0124887680668B742B4
:101AB00009D0866046600A48A6600570012B02D1F5
:101AC000094B08481860044891708170F0BD00000F
:101AD000640000205C090020540A00207C0A0020D9
:101AE0005C000020CDCCCC3D04000020640A002026
:101AF0002C0A0020940A0020F1B5364C0025676AB4
:101B000082B07800010E34480029867C01D0002E76
:101B100001D0657015E0E168029804F025FB3F21D3
:101B20000906E06088420DDB384604F01DFC606267
:101B300061784000C9436170000E02D1274901203D
:101B40000870E560A06A00904000010E224820382D
:101B50008778002901D0002F01D0257015E0216978
:101B6000029804F001FB3F210906206188420DDB49
:101B7000009804F0F9FBA06221784000C94321706D
:101B8000000E02D11649012008702561E06A00901C
:101B90004000000E03D0002E01D1002F01D0A5700F
:101BA00015E06169029804F0DFFA3F2109066061DF
:101BB00088420DDB009804F0D7FBE062A17840007A
:101BC000C943A170000E02D1064901200870656169
:101BD000FEBD000068000020B0020020640000206C
:101BE000650000206600002010B5064C216904F055
:101BF000BBFA7F21C9052061884202DB0020E0801A
:101C0000206110BD7C0A002010B5024801F096FA50
:101C100010BD00005401002010B5044600680549BD
:101C200040181421FEF766FB800020640248E06340
:101C300010BD0000F8FFFDBF0000024030B5056C8C
:101C40000124AC40C56B6C60046863604368102B72
:101C5000036803D099600068C26030BD9A60006874
:101C6000C16030BDF0B524480022417823480129E5
:101C700003D0028182810270F0BD204983880989E6
:101C80004C1EA6B2002B31D01C4A1B4D04780327F2
:101C9000D288ED78002C07D0012C09D0022C16D068
:101CA000032CE9D10381F0BD8B420ED301240470D3
:101CB00082818A4202D9914201D2491C0181002DC0
:101CC000F1D1018999420FD2F0BD022404708281C2
:101CD0008A4203D2914202D9068100E00181002D9F
:101CE000F2D101899942EFD80770F0BD002901D0E7
:101CF0000681F0BD0281F0BD540A00207C0A00205C
:101D0000F0B5BC49BC4A4B780025D48885B0002B7F
:101D10001DD01646B289B94917460A32C96992B22E
:101D200004923A460A3A92B201927688012B17D071
:101D3000022B13D104F018FAB049C86101218907B8
:101D400088427DDDAC48BC427BD201993CE1AA4887
:101D50008481058245820570A848C56105B0F0BD43
:101D6000002EFBD0A64A1368A64A9C46934203DB8A
:101D7000AF221201964201D2642200E08C229E4BD7
:101D800000921A78002A21D05B8A03939A4B9B8990
:101D90005B1C9BB20293012A2ED0974B9B895B1E42
:101DA0009BB20493022A6ED0032A6DD09248042A73
:101DB000D4D1311B002900DCA11B009A914203DB26
:101DC000AF2109018E4273D38681C7E7BE4205D990
:101DD000012018708D488C49816005E0BE4205D213
:101DE00002201870894885605F82B7E70320187069
:101DF000864987488860B1E77F4A1482039A9442F3
:101E000009D97D48642F02D90499818101E01946DE
:101E1000838141823BE0E122920094421CD97D4AB9
:101E2000964219D37D22D200964215D8754A944520
:101E300012DA04F099F97149C8617549884201E0E4
:101E4000C8E0BEE023DD6C48642F01D9049900E0AE
:101E500002998181418218E0AF221201944214D389
:101E6000964212D3674B9C450FDB644F04F07CF91C
:101E700001218907F861884209DD5F49049888815A
:101E80004882FD6103E014E077E05C48C5615A4890
:101E900081890A461432B24201D3032202700A1B1E
:101EA000002A00DC621A009932318A425CDC55E774
:101EB00060E0514A1482039A94420ED2564A9442E8
:101EC00032D84E48642FC5614B4802D901998181AF
:101ED00001E019468381418236E0E122920094427A
:101EE00019D94C4A964216D37D22D200964212D876
:101EF000444A94450FDA04F037F94049C86144492F
:101F0000884221DD3C48642F01D9019900E0049901
:101F10008181418216E0AF221201944212D396428F
:101F200010D3384B9C450DDB344F04F01DF90121D3
:101F30008907F861884207DD2F4801998181418234
:101F4000FD6101E02D48C5612B4882891146143995
:101F5000B14201DC03210170111B002900DCA11A30
:101F6000009A32329142A2DDAF2109018C429ED209
:101F70008E429CD805708481F0E6204C216A04F0E2
:101F8000F3F881221C49D2052062B74203D2904265
:101F90008DDB029804E0B74205D9904287DB0498B4
:101FA00088812562DAE6042008701C481C4E4560D2
:101FB0001C49706804F048F970601449144888603E
:101FC000EFE7BC4202D90499818101E009484570DC
:101FD0000A48C56108488089001B5A30B428CBD90B
:101FE000AF2000018442C7D28642C5D8014845705F
:101FF000B4E60000540A0020640A002068000020B3
:1020000010000020008009450000F041B8090020C0
:1020100000002041B60300008C0A0000C409002023
:102020002C0A00209A99193FF3B573488BB0407879
:102030000F46002804D000263546344630463DE0A1
:102040000B98002847DD6C496C4D30310C78A84264
:1020500007DD691CFEF758F9674980B230310E5C24
:1020600000E026460B9863280EDD6421FEF74CF94C
:102070000B9980B2A94203DD0A21FEF73BF908461D
:102080005D4930310D5C00E025460B9809280DDDD7
:102090000A21FEF739F90B9980B2632903DD0A2181
:1020A000FEF728F90846544930310C5C0A210B9898
:1020B000FEF72AF988B250493031085C05904F4844
:1020C00087420DDD411C3846FEF71EF94A4980B2B1
:1020D0003031085C05E00426354634463046EDE7ED
:1020E00000200A90632F21DD64213846FEF70CF9A9
:1020F000424980B28F4203DD0A21FEF7FBF8084611
:102100003D493031085C07900A213846FEF7FCF85B
:102110000191092F0CDD80B2632F03DD0A21FEF748
:10212000E9F80846344930310B5C02E00020EAE768
:10213000002301990E2788B22F4930310A5C0A9991
:102140000A983940370900093F0107438F203607B5
:102150000140760E0E43079908970A960F090E461E
:102160000E210E4029092D0706406D0E35430095BE
:102170001E090E252B4080252B43250924072D0100
:102180000340640E35431C4313090E2632400240BF
:10219000059809013943059E0007470E36093601A7
:1021A00017431E430122162003F070FE012218205F
:1021B000009903F06BFE012229461A2003F066FE07
:1021C000012221461C2003F061FE012231461E201F
:1021D00003F05CFE01223946202003F057FE012265
:1021E00022200A9903F052FE01222420089903F0CC
:1021F0004DFE0DB0F0BD000068000020E7030000B8
:10220000F0B506468BB00020029083480F46017857
:10221000303000780990002910D00020054604468F
:10222000064606907D4887424DDD411C3846FEF744
:102230006BF8794980B23031085C45E0002E3CDD16
:10224000764CA64208DD611C3046FEF75DF8724907
:1022500080B23031085C00E000200690632E0EDD75
:1022600064213046FEF750F880B2A64203DD0A2111
:10227000FEF740F80846684930310D5C00E0002563
:10228000092E0EDD0A213046FEF73EF880B2632E9D
:1022900003DD0A21FEF72EF808465F4930310C5C59
:1022A00000E0099C0A213046FEF72EF888B25A4910
:1022B00030310E5C80200290B4E7042005460446CD
:1022C00006460690AEE700200890632F21DD6421CA
:1022D0003846FEF719F8514980B28F4203DD0A21D2
:1022E000FEF708F808464C493031085C03900A2193
:1022F0003846FEF709F80091092F0CDD80B2632FF4
:1023000003DD0A21FDF7F6FF084643493031085C3A
:1023100002E00020EAE7099800993F4A89B230328A
:10232000515C029A0123520852001A4302923C4A1D
:102330003C4F12688023BA4200DA8123089A089F32
:10234000120996460E221740BC46069F72463F0968
:102350003F011743019767468F221740069A1207DD
:10236000520E3A430892039A039F120996460E2290
:102370001740BC462F0972463F0117430697674630
:102380008F2217402A07520E3A43029DF1270392EB
:102390003D4002090E273840284325092D011543E9
:1023A0008F2210402207540E044308093940F122BD
:1023B000370913403F01074319438F20014030077D
:1023C000460E0E4301220020019903F05FFD012219
:1023D0000220089903F05AFD01220420069903F017
:1023E00055FD01220620039903F050FD01222946E4
:1023F000082003F04BFD012221460A2003F046FD90
:10240000012239460C2003F041FD012231460E2005
:1024100003F03CFD0BB0F0BD68000020E7030000B6
:10242000100000200000FA44F0B5002507468DB0EA
:102430007148049500687149079089782E462C46AA
:102440000691002806D1032904D000231A46194614
:10245000184648E06A488078002804D000231A46CD
:10246000194618462BE0079800282FD065493846B2
:10247000FDF74AFFC1B20B91E12109013846FDF792
:1024800043FF0F460A21FDF73FFFC9B20A914B21D6
:102490003846C900FDF738FFC1B2089138463C21E3
:1024A000FDF732FF0A21FDF72FFFCFB254480B99F9
:1024B0003030435C0A99425C0899415CC05D079FDB
:1024C000002F08DC069F032F05D00CE004231A46DA
:1024D00019461846F6E74A4F01253F790824002F90
:1024E00001D180270497454F3F79002F03D0444FF7
:1024F000BF79002F13D0FD273D40414FFF78002FBB
:1025000012D0FB273D40AC463D4D6D79002D10D0DB
:10251000012D12D0022D16D0032D1DD117E0FD275D
:102520003D4002273D43E8E7FB273D4004273D436C
:10253000E9E7FD250227032602E0FD2502273E46A6
:102540002C403C4308E0FD2503262C4004E0FD25FB
:102550002C40012602252C4305090795049FF125EF
:1025600000072F40400F38430490080906900807E1
:10257000400F0990100908901007400F0A901807A3
:10258000450F1F0901226146102003F07FFC012244
:102590003146122003F07AFC01222146142003F078
:1025A00075FC01222620049903F070FC01222820EA
:1025B000079903F06BFC01222A20099903F066FCBD
:1025C00001222C20069903F061FC01222E200A9999
:1025D00003F05CFC01223020089903F057FC012233
:1025E0002946322003F052FC01223946342003F000
:1025F0004DFC0DB0F0BD0000940A0020540A0020EC
:1026000068000020A08C0000F8B54B48017B4B48C7
:1026100000297CD084780E202509002704400F264D
:1026200001223946102003F031FC01220021122042
:1026300003F02CFC01220021142003F027FC0122CE
:102640000021262003F022FC01220021282003F093
:102650001DFC012200212A2003F018FC0122002188
:102660002C2003F013FC012200212E2003F00EFC8D
:1026700001220021302003F009FC01220021322038
:1026800003F004FC01220021342003F0FFFB0122AF
:102690000021162003F0FAFB01220021182003F08C
:1026A000F5FB012200211A2003F0F0FB012200219A
:1026B0001C2003F0EBFB012200211E2003F0E6FBAF
:1026C00001220021202003F0E1FB01220021222031
:1026D00003F0DCFB01220021242003F0D7FB0122C0
:1026E0003146002003F0D2FB01223946022003F0DC
:1026F000CDFB01222946042003F0C8FB012221461C
:10270000062003F0C3FB01220021082000E011E0B5
:1027100003F0BCFB012200210A2003F0B7FB0122D9
:1027200000210C2003F0B2FB012200210E2003F057
:10273000ADFBF8BD44786EE7540A002098000020F5
:10274000F1B5724C2046218A406901F0EFF8274626
:10275000002501262037002806D16D48407B00283F
:1027600074D1787A002803D0387A012806D058E04E
:10277000616A009803F0F8FC60623E72218A606929
:1027800001F0D4F801283ED16249606A40186249DC
:10279000884235D25E480179002905D001215F4A7F
:1027A0008907116081602BE04178012913D05C49D1
:1027B0004A88002A03D15B4A9288002A0BD04670CF
:1027C0000D705A4A584951605649CA888A825849F8
:1027D0008A684A6003E0524902220A70C67055496D
:1027E0004C4A0E70544952420E7054490E7054496E
:1027F0000D6054490D6054490D6054490A6085705C
:102800003D727D7265625248616A09185148814281
:1028100007D2787A002804D1012040498007086057
:102820007E723A4F606C4037398801F07FF800289B
:1028300002D1787E00280AD0387E012864D13988F8
:10284000606C01F073F8012808D04FE05CE0616D26
:10285000009803F089FC60653E76F0E72D49606DD5
:1028600040182D4988423ED229480179002905D0D7
:1028700001212A4A89071160816034E0417B0029E7
:1028800005D0457323493148494201602BE0417826
:10289000012913D022494A88002A03D1214A92886B
:1028A000002A0BD046700D70204A1F4951601D4907
:1028B000CA888A821E498A684A6003E0184902224F
:1028C0000A70C6701B49134A0E701B4952420E70A3
:1028D0001A490E701A490D601A490D601A490D60A7
:1028E0001A490A6085703D767D7665651848616D88
:1028F00009181848814207D2787E002804D10120A7
:102900000649800708607E76F8BD0000700200204E
:10291000540A0020333333C23333F301080000205C
:102920007C0A0020640A002000002C42900900204C
:10293000940A00206600002065000020640000204A
:1029400094000020900000208C0000200400002053
:10295000FFFF3FC0FFFF7F0010B501210F48890333
:10296000018041800E4901225203416002815210D0
:10297000C160028241616423037610210186418691
:102980000922D206202142630187082401464031F2
:10299000C2630C8042640B7210BD00007002002004
:1029A0000004004870B50C4C3C21208C4843142195
:1029B000FDF7A0FCFEF7F0FB0026E061254626842B
:1029C0004035288A3C2148431421FDF793FCFEF74B
:1029D000E3FBE0642E8270BD7002002010B5102071
:1029E00000F0C6FE0120800300F0C2FE10BD000012
:1029F00010B5044801F004FB0021024801F092FCEC
:102A000010BD00009801002072B6FEE706490020C4
:102A1000C86106480169042211430161016940222D
:102A20001143016170470000A80A00200020024005
:102A3000064A0021D16106490A6902231A430A6144
:102A4000486108694022104308617047A80A0020C5
:102A50000020024010B5054B0022DA61044A1369D8
:102A6000012423431361018010BD0000A80A002047
:102A70000020024010B50B4A0020D168CB060A495D
:102A800004D5C86902231843C8611020D3685B07C6
:102A900005D5CB6901242343CB6104210843D060D1
:102AA00010BD000000200240A80A002070B50546B5
:102AB00000F048FF0646104C0AE0681C08D0002DC4
:102AC00004D000F03FFF801BA84201D9032070BD55
:102AD000E068C007F1D1E068800601D52020E06001
:102AE000E068C00602D4E068400703D5FFF7C2FFE4
:102AF000012070BD002070BD0020024078B500228A
:102B00000E4B4C1E15E0551CA5420ADCD5182E882C
:102B10006D462E802D7885546D466D7886187570BB
:102B200005E0D5182E886D462E802D788554921C90
:102B300092B28A42E7D3012078BD000000900008DD
:102B4000F3B585B00D4600F051FC00200121174F70
:102B50000190039100900297694601A800F0AEFB36
:102B6000002818D100246E1E1AE0601CB04205989F
:102B700005DC0019407801020598005D02E0015D66
:102B8000FF200002081882B20023E119012000F0A2
:102B9000EFFB002802D0002007B0F0BDA41CA4B2B7
:102BA000AC42E2D300F0DAFB0120F5E70090000828
:102BB00070B50C488068FEF7ABFA00040A4D000CB3
:102BC0000DD0FEF7E9FA04460848408BFEF7E4FA18
:102BD0002146FEF7C7F9294603F036FB70BD2846AB
:102BE00070BD00005009002033335340A0F7FF1F91
:102BF000F8B5054604462035287D0026012808D072
:102C000001202875206881688907890F012908D16A
:102C100001E00220F8BD0168C9073CD1C168090480
:102C200039D4A16BFF220132914302221143A163E7
:102C3000C1688907890F0091C16889088900C1604E
:102C40002068816892071143816000F07BFE07468F
:102C500012E000F077FEC01B02280DD920688068C2
:102C6000002809DAA06B0221884310210843A063E1
:102C7000002028750120F8BD206880680028E8DB66
:102C80002068C168009A1143C160A06B8008800071
:102C9000401CA06304E0A06B20210843A063012630
:102CA000002028753046F8BDF8B5002504462034CC
:102CB0000095227D012A39D00122227503689E6881
:102CC000760767D4384F4E68BE424DD09E6A0F7863
:102CD000BA4016439E620123C26A1B079A421FD064
:102CE000012A1DD0022A1BD0032A19D0042A17D08A
:102CF000052A15D0062A13D0072A11D002688B683E
:102D000056697607760FB3420AD05369DB08DB00B9
:102D10005361006842690B7A5B075B0F1A4342619B
:102D20000A68102A04D0112A02D038E00220F8BD27
:102D30001E488368102A07D001229205134383603E
:102D40000868102803D02AE00122D205F6E71948C6
:102D500017490068FDF7CEFA0A21484300E0401EFB
:102D600000900028FBD11AE0986A0E78B240904398
:102D700098620968102901D0112910D10B48826886
:102D8000102904D0012189058A43826007E00121CE
:102D9000C905F9E7816B20221143816301250020D9
:102DA00020752846F8BD00000110000000270140F2
:102DB00040420F0010010020704770477047F8B57F
:102DC0000446006805684668690701D5710703D4A1
:102DD00029072ED531072CD5A16BC90604D4A16BC8
:102DE000012252021143A163C1680C270905890F12
:102DF000002919D1A17E002916D1290714D581688F
:102E00004A070121002A08DB4268BA434260A06BEE
:102E10000A0290430843A06306E0A06B20221043FF
:102E2000A063E06B0843E0632046FFF7C5FF20681E
:102E3000076028060CD530060AD5A06B01210904CD
:102E40000843A063204600F0D7F82168802008607E
:102E5000E80614D5F00612D5A06A1025012803D083
:102E60002068C068C00708D0E06B02210843E06317
:102E7000206805602046FFF7A1FF20680560F8BDC7
:102E8000F8B500260446002805D0A06B254620355D
:102E9000002802D007E00120F8BD0020E06328757B
:102EA000204600F0ABF8A06B1022C006002870DBB3
:102EB0002068816849076CD4A16B130199430223F0
:102EC0001943A16381688907890F012905D1016828
:102ED000C9070FD1C16809040CD4C16818239943EC
:102EE000A3681943C1602068016963688900890883
:102EF000194301612068C1683D4B1940C160207EC3
:102F0000617E8003C9030843A17E4B031843A36A73
:102F1000012B02D001231B0300E000231843E368C8
:102F200018432369022B09D0002318432B79E57E2F
:102F30005B0018430123012D02D00AE00423F4E7CB
:102F4000002927D0A16B20252943A163E16B1943F8
:102F5000E163E1690D46FF3DC23D02D0256A294388
:102F600008432168CD680543CD600125E16A2D073E
:102F7000A94213D0012911D002290FD003290DD065
:102F800004290BD0052909D0062907D0072905D027
:102F900010E028E0012109040843DAE721684D69BF
:102FA000ED08ED004D6121684D69A78D7F077F0F0A
:102FB0003D434D612168C9680E4D2940814207D1CA
:102FC0000020E063A06B80088000401CA06308E044
:102FD000A06B022188431043A063E06B1843E063B9
:102FE00001263046F8BDA06B1043A063F8E700004F
:102FF0001902FEFFE7FF3F837047000070B586B0FF
:10300000054614216846FDF773F92049286888426F
:1030100039D11F498A69401502438A618A69024091
:1030200005924A69000202434A614969002601404B
:103030000591062000900320019009206946029620
:10304000C00600F0A1FB1348134C41C48020266049
:1030500060604000A0608000E060202020610002ED
:1030600060610D48083C00F0B7F8002801D0FFF778
:10307000CBFC2C63002211460C20656200F0C2FCE0
:103080000C2000F0B3FC06B070BD0000002401402D
:10309000001002400800024054010020F7B5044629
:1030A00000680025806840073DD426462036307DE4
:1030B00001280AD001273775607E012807D02046F5
:1030C000FEF7F8F9050002D02EE00220FEBDA06B4D
:1030D00016490840FF2101310843A0630020E06346
:1030E0003075216B12488862216B1248C862216BCF
:1030F0001148086321681C2008602068416810227C
:10310000114341602068C1683943C1602168206B68
:103110004031029B019A00F089F8206881680422FE
:103120001143816000E002252846FEBDFEF1FFFF4D
:1031300025140008AB14000891140008F0B4C16B0A
:103140000D6801680C680422066C1346B3402B42DC
:103150000DD063070BD50B689B0602D40B68934315
:103160000B60016C8A40C16B4A60C16A19E002279A
:10317000B74002462F4001232032002F15D0A70769
:1031800013D50C68A40604D40C680A25AC430C6063
:103190005370036C02219940C36B59600021117078
:1031A000816A002916D0F0BC08470827B7402F4293
:1031B00010D024070ED50C680E25AC430C60046CAF
:1031C0001946A140C46B6160836353700021117084
:1031D000016BE6E7F0BC704770B5040021D0022116
:1031E0002046203005464170226811680E48A368C9
:1031F0000140606826691843E368334318436369F4
:103200001843A3691843E369184308431060204634
:10321000FEF702FD0021A1630120687029700846B5
:1032200070BD012070BD00000FC0FFFFF8B504465F
:103230008C46203001780025012909D0012606702E
:1032400041780027012905D0077002252846F8BDDE
:103250000220F8BD02214170A76320680168490877
:103260004900016061462046FEF7E8FCE06A00285C
:103270002068016802D00E22114306E00A221143A1
:1032800001602068016804229143016020680168A0
:1032900031430160DAE7000070B5044600F052FBEC
:1032A0000546601C02D004480078241800F04AFB50
:1032B000401BA042FAD370BD04010020F8B50546BA
:1032C00023480F46017E012601290BD001210176FA
:1032D0002868204C012807D02046FFF7E7FB00288C
:1032E00013D030E00220F8BD2046FFF7DFFB0028B6
:1032F00029D1FFF78BFB2046FFF7D8FB064616487F
:1033000001690422914301611DE00020C04338603F
:103310006C6812E02046FFF78BFB0E48FFF7C6FBF8
:1033200006460D48026902218A430261002E01D03F
:103330003C6008E0012080022418A86881026868C7
:103340000818A042E6D80248002101763046F8BDB0
:10335000A80A002050C30000002002400348016971
:1033600080221143016100207047000000200240CC
:10337000F0B51FB407461A480024017E15461E46C4
:10338000012907D0012101761648FFF78FFB00289D
:1033900003D020E0022005B0F0BD012F02D0022FA3
:1033A00000D00427220128463146FCF7F1FE81B205
:1033B000019862001018FFF74DFB0A48FFF776FBF3
:1033C00009490A69520852000A61002803D1641CA5
:1033D000E4B2BC42E6D3024900220A76DBE70000F1
:1033E000A80A002050C30000002002400649002027
:1033F0000A69120607D5054A4A60054A4A60096902
:10340000090600D5012070470020024023016745CE
:10341000AB89EFCDF1B5C548012601880098B60704
:10342000C34C81420FD1C14F7988786800F07EFA91
:103430003D462035002807D038464188406800F0D6
:1034400075FA01280DD0C4E0A87A401CA8720120AA
:10345000E8723989F86800F069FA0028F3D1E87257
:10346000B7E0A87A0128EED10027B048AF720189F1
:10347000C06800F05BFAAF4B287302461879002849
:1034800003D0AD4806609E60F8BDA848018C491C79
:1034900001840221A97019469B78032B01D00123D6
:1034A0008B70EB7AA54D012B02D0002B4FD090E012
:1034B000002A08D14A7B002A06D001200873A049BF
:1034C0000873A049087084E08978012902D0032993
:1034D00029D07EE00746007EFDF75EFEF96902F026
:1034E0000BFF994F9948EF5F0DD2874201DA7F1D9C
:1034F00012E038460A21FCF707FF002901D0934863
:103500000FE00A3708E08742FBDB38460A21FCF768
:10351000FBFE0029F3D114378D4839B2AF808142C8
:103520003DDDA8803BE00546007EFDF735FEE969FC
:1035300002F0E2FE206801D23C3001E0FF302D3085
:10354000014620608348814240DD20603EE0012A40
:103550003FD14A7B002A06D079480F730773794818
:103560000121017035E08978012902D003291CD09E
:103570002FE06E48007EFDF70FFE6C49C96902F02E
:10358000BBFE0FD20420285E7049884201DA401F3A
:1035900000E00A38A88000B2002800DCAF806E4846
:1035A000066016E0A8881438F4E70546007EFDF7AB
:1035B000F3FDE96902F0A0FE206801D23C3801E089
:1035C000FF382D382060002800DA276064496348FE
:1035D0000860564F0098398E814200D054E7798EAA
:1035E000786B00F0A3F93D46403500281BD0798E5A
:1035F000786B00F09BF90128F0D1A87E0128EDD16D
:103600000020A8763846018FC06B00F08FF9494939
:1036100028774A7B002AE1D10A79002A10D046484F
:1036200006608E60F8BDA87E401CA8760120E87672
:10363000398FF86B00F07AF90028F3D1E876F8BDFD
:103640002A8A521C2A820222AA748B78032B00D069
:103650008A70EA7E434F012A13D0002AEFD1012855
:10366000EDD18878022848D00328E8D1287AFDF7E0
:1036700093FD2E49C96C02F03FFE20684FD23C38C2
:103680004FE00028DBD1887802280CD00328D6D15F
:10369000287AFDF781FD2549C96C02F02DFE2068CE
:1036A0001FD23C301FE0287AFDF776FD1F49C96C18
:1036B00002F022FE788806D20A3000B278800A280A
:1036C00006D1642009E01E3000B278801E28F8D0B0
:1036D0000221795E2448814200DD7880234806601B
:1036E000F8BDFF302D30014620601A48814200DDD0
:1036F00020601B4919480860F8BD287AFDF74CFD89
:103700000A49C96C02F0F8FD788801D20A3800E055
:103710001E38788000B23228E0DA0020DDE7FF387A
:103720002D3820600028E4DA0020E1E77002002054
:10373000940A0020540A002008000020640A002097
:103740005C0900205C00002004000000E803000089
:10375000C4090000C0A80000900000200000C04084
:10376000940000207C0A0020DC0500008C00002072
:1037700010B504494A69024202D04861FFF74AFE87
:1037800010BD000000040140F8B50023032401250A
:10379000BAE02E469E40B44632407CD00E79B60741
:1037A000B60F012E01D0022E17D186682746B646E5
:1037B0005E00B74000967646BE43B646CF68009E90
:1037C000B74076463743876046686746BE430F7901
:1037D000FF06FF0F9F40374347600E79F643B60759
:1037E0000ED0C6682746B4465E00B646B740664669
:1037F000BE43B4468F687646B74066463743C760D7
:103800000E79B607B60F022E14D1DE08B6003618B0
:103810000096366A5F07B446FE0E0F27B646B740DD
:103820006646BE43B4460F697646B74066463743A0
:10383000009E376206682746B4465E00B646B7402B
:103840006646BE430F79B446BF07BF0F7646B74002
:103850006646374307604E68B603B60F53D02D4F08
:10386000BE692E43BE61BE699F08F607F60F2A4E59
:10387000BF00BE190096B6680F27B4469E07360FE4
:10388000B646B7406646BE430927FF06B446B8426F
:1038900002D1002710E036E0204FB84201D10127C5
:1038A0000AE01F4FB84201D1022705E01D4FB84280
:1038B00001D1032700E005277646B7406646374327
:1038C000009EB760184EB6684F689643FF0200D559
:1038D0001643154FBE60FE684F689643BF0200D581
:1038E0001643114FFE607E684F689643BF0300D5B4
:1038F00016430D4F7E603E684F689643FF0300D528
:103900001643094A16605B1C0A681646DE4000D062
:103910003FE7F8BD001002400000014000040048ED
:1039200000080048000C00480004014000690840FD
:1039300000D001207047002A01D081617047816268
:1039400070470000014880687047000004010020B3
:10395000024881680278891881607047040100205C
:1039600010B506480168102211430160002000F0E4
:1039700007F800F027F8002010BD000000200240EA
:1039800070B504460D4D7D202978C000FCF7B2FCCF
:1039900001460B480068FCF7ADFC00F0A9FA0028CE
:1039A00009D1042C07D200222146401E00F02AF83B
:1039B00000206C6070BD012070BD0000040100207B
:1039C0001001002008B50848816901221143816176
:1039D000816911400091C26901040A43C261C06952
:1039E0000840009008BD000000100240002805DBE0
:1039F000C106C90E012088400149086070470000D7
:103A000000E100E010B502F03DFB10BDF8B50F4637
:103A1000060059D03A4D2868C007C00FB84209D2F5
:103A2000286840084000384328602868C007C00F55
:103A3000B84249D13068334C81070CD5400704D5D2
:103A4000606807210902084360606068F0218843CC
:103A5000B168084360603078C00726D070680128DC
:103A60000ED0216802280ED0890700292CDA61685F
:103A70008908890001436160FFF764FF00900DE051
:103A800021688903F1E78901EFE7FFF75BFF009900
:103A9000411A1D48814201D90320F8BD60680C21FC
:103AA0000840716889008842EFD12868C007C00FBC
:103AB000B8420BD92868400840003843286028687D
:103AC000C007C00FB84201D00120F8BD30784007D0
:103AD00006D56068072109028843F16808436060E1
:103AE00000F018F86168094A0906090F515CC840DE
:103AF000074908600020FFF743FF0020F8BD0000E1
:103B0000002002400010024088130000F46A000800
:103B10001001002010B5104A51680C200B460340DC
:103B20000E48042B17D0082B15D18B020C4C1B0F01
:103B3000E45CD26A0A4B1207120F10339A5CC90375
:103B400005D500231946FCF734FB214601E0204649
:103B5000044902F07FFA10BD0010024000127A0002
:103B6000D46A000800093D00FEB5040070D020783A
:103B7000DC4DC0074AD068680007800F012807D0D5
:103B800068680007800F022809D16868C00306D55D
:103B9000286880033AD560680028E7D036E061687D
:103BA000012914D001208004002901D0052914D056
:103BB0002A68012109048A432A602968814329600F
:103BC0006068002816D0FFF7BDFE06460EE02868A4
:103BD0000121090408432860F2E7296801432960AC
:103BE000F5E7FFF7AFFE801B64286ED828688003D6
:103BF000F7D50BE0FFF7A6FE064604E0FFF7A2FEAE
:103C0000801B6428F1D828688003F7D42078012627
:103C1000800700283CDA68680007800F07D06868D2
:103C20000007800F022809D16868C00306D42868FD
:103C3000800716D5E06801280AD112E0E068002864
:103C4000286816D030432860FFF77CFE074605E061
:103C500043E1FFF777FEC01B0228C6D8286880071B
:103C6000F7D52868F82188432169C90008432860EE
:103C70000EE0400840002860FFF764FE074604E0BD
:103C8000FFF760FEC01B0228AFD828688007F7D472
:103C90002078000722D5E0690028686A0ED03043FA
:103CA0006862FFF74FFE074604E0FFF74BFEC01BBC
:103CB00002289AD8686A8007F7D50FE040084000CC
:103CC0006862FFF73FFE074605E09DE0FFF73AFE1A
:103CD000C01B022889D8686A8007F7D42078042797
:103CE0004007002860DA00200190E869C00008D48D
:103CF000E969B8060143E961E969014001200091E1
:103D0000019079480168C90511D4016882151143F1
:103D10000160FFF717FE009005E0FFF713FE009922
:103D2000401A642870D870480068C005F5D5A068AE
:103D300001280AD0002801D0052810D0286A4008A0
:103D400040002862286AB84301E0286A30432862AC
:103D5000A068002812D0FFF7F5FD00900AE0286A5D
:103D600038432862F1E7FFF7EDFD0099411A5F48FB
:103D7000814249D8286A8007F5D50DE0FFF7E2FDBA
:103D8000009006E0FFF7DEFD0099411A5748814296
:103D90003AD8286A8007F5D40198002804D0E96948
:103DA000012000078143E9612078C00635D56069AC
:103DB00001280CD0401D686B23D038436863686BC2
:103DC000400840006863FFF7BDFD064622E0686BCF
:103DD00038436863686B30436863FFF7B3FD06469A
:103DE00004E0FFF7AFFD801B02285BD8686B8007FB
:103DF000F7D5686BF8218843A169C9000843686357
:103E00000BE0B8436863F4E74CE0FFF79BFD801BD1
:103E1000022847D8686B8007F7D4206A00285ED054
:103E200069680907890F022942D00126360602284F
:103E3000286805D0B0432860FFF784FD044633E0CE
:103E4000B0432860FFF77EFD074604E0FFF77AFDE8
:103E5000C01B022826D828688001F7D4E86AE16AE6
:103E6000000900010843E862616AA06A08436968C2
:103E70003D2212049143084368602868304328605B
:103E8000FFF760FD044604E0FFF75CFD001B02281D
:103E900008D828688001F7D521E0FFF753FD001B03
:103EA000022801D90320FEBD28688001F5D416E060
:103EB0000128F8D06868E96A01221204636A0240A6
:103EC0009A420AD10907E26A090F914205D10F21EE
:103ED00089040840A16A884201D00120FEBD00206B
:103EE000FEBD00000010024000700040881300007A
:103EF000094910B5401E884201D9012010BD074C68
:103F000060610321081F02F0BDF80020A0610720B6
:103F10002061002010BD0000FFFFFF0000E000E076
:103F200070477047F0B502462032137F012B1ED038
:103F3000012515770223537706687468B3687027E4
:103F4000BC430F682743776000680A4CA04205D045
:103F5000094CA04202D0094CA04204D180244968F7
:103F6000A34319438160557700201077F0BD0220EC
:103F7000F0BD0000002C0140000400400040014062
:103F800070B5040005D025462035687F002802D092
:103F900006E0012070BD00202877204600F014F8CC
:103FA00002206877211D206801F018FD01204034AF
:103FB000A071A877E87720706070A070E070207121
:103FC00060716877002070BD08B500680A498842B2
:103FD00010D10A488269012109040A43826180697B
:103FE00000220840009011461420FFF70BFD14201A
:103FF000FFF7FCFC08BD000000400140001002403B
:10400000014620314A7F012A01D001207047022257
:104010004A770268D36801210B43D3600068094ADC
:10402000904205D0084A904202D0084A904204D1FA
:1040300082685207520F062A02D002680A430260C1
:1040400000207047002C0140000400400040014067
:10405000F8B5054604462035287F0026012817D0EC
:104060000120287702206877226890687727FF234D
:10407000B8431B02984390600868502838D00EDC83
:1040800020284FD006DC00284CD010281ED149E053
:104090000220F8BD302845D0402817D13AE06028EA
:1040A0002ED0702819D001221203801A0FD090420E
:1040B0000CD1CB684A688968206801F0E0FC206870
:1040C0008168012292031143816000E001260120F2
:1040D0006877002028773046F8BDCB684A68896841
:1040E000206801F0CCFC2168886838438860EEE7DE
:1040F000CA684968206801F0D1FD5021206806E0B7
:10410000CA684968206801F003FE6021206801F058
:10411000C1FCDCE7CA684968206801F0BFFD4021A6
:104120002068F4E7226801461046F0E710B5054A1A
:104130000168914204D1007F012801D101F012FCF5
:1041400010BD0000002C0140F8B5044600202646B2
:1041500020360090307F0D4601280ED001203077A8
:10416000002A0CD0042A19D0082A2AD00C2A4ED0B2
:104170000090002030770098F8BD0220F8BDEB6871
:1041800006CD083D206801F09BFD206882690C2166
:104190008A43826120688169AA680FE0EB6806CDD6
:1041A000083D206801F0C7FD206881690322920262
:1041B0009143816120688169AA681202114381617B
:1041C000D7E788CD287921688446086AFF22013222
:1041D00090430862C8690A6A800880003843F02763
:1041E000B84367463F073F0E07430520400282431E
:1041F0000A20034018021043CF6108622068C16999
:104200000C229143C1612068C1692A682CE02B68A7
:1042100020689E466F682B7B016ABC460122120310
:1042200091430162C169026A03273F02B9436746AD
:104230003F020F430F2109038F431907090C052380
:1042400039435B039A4373460A273B401B031343DE
:10425000C16103622068C269032189028A43C26185
:104260002068C169AA6812021143C16181E770B573
:10427000040005D025462035687F002802D006E0DE
:10428000012070BD00202877204600F015F802209C
:104290006877211D206801F0A1FB01204034A07146
:1042A000A877E87720706070A070E070207160716E
:1042B0006877002070BD000010B586B00446142158
:1042C0006846FCF715F815492068884223D1144840
:1042D0008269C1140A43826182690A400592426977
:1042E00089010A43426140690840059048120090E4
:1042F0000020022102900390019104910920694657
:10430000C006FFF741FA002211460E20FFF77AFBA4
:104310000E20FFF76BFB06B010BD0000002C014023
:104320000010024070B5034604460025203340309B
:10433000002908D0042909D008290AD046784279F2
:10434000012E0BD108E09E7F8278F9E7DE7FC278EC
:10435000F6E706780279F3E7012A01D0012070BD63
:104360000222002909D004290ED0082912D0427057
:1043700042710C292ED001252AE09A77827020689C
:10438000C3681343C3600CE0DA77C2702068C26868
:10439000042304E0027002712068C26808231A43F3
:1043A000C2600122206801F05DFB0C4A20680121F7
:1043B000904205D00A4A904202D00A4A904204D163
:1043C00082685207520F062A02D002680A4302602E
:1043D000284670BD2068C2681023E0E7002C014029
:1043E000000400400040014070B5044600680169C7
:1043F0000025C9438907002915DBC168C94389071E
:1044000011D4E91E016101202077206880698007AE
:10441000204602D0FFF78AFE04E000F0D1F82046E3
:1044200000F06EF9257720680169C943490717D460
:10443000C168C943490713D40421C943016102205B
:104440002077206880698005800F204602D0FFF722
:104450006DFE04E000F0B4F8204600F051F9257735
:1044600020680169C943090716D4C168C94309070F
:1044700012D40821C9430161042020772068C06953
:104480008007204602D0FFF751FE04E000F098F8C4
:10449000204600F035F9257720680169C943C9062F
:1044A00017D4C168C943C90613D41021C943016197
:1044B000082020772068C0698005800F204602D040
:1044C000FFF734FE04E000F07BF8204600F018F916
:1044D000257720680169C943C90708D1C168C94364
:1044E000C90704D1891E0161204600F05FF92068E8
:1044F0000169C943090609D4C168C943090605D43D
:104500008021C94301612046FFF70AFD2068016947
:10451000C943490609D4C168C943490605D44021A5
:10452000C9430161204600F042F920680169C9438E
:10453000890609D4C168C943890605D42021C94325
:1045400001612046FFF7EDFC70BD000070B586B03C
:10455000044614216846FBF7CBFE164920688842C2
:1045600025D11548426949130A43426142690A400C
:104570000592426949000A434261406900240840AB
:104580000590C0200090022501260920029469466A
:10459000049601950394C006FFF7F6F8009502947F
:1045A00069460648049601950394FFF7EDF806B0B6
:1045B00070BD0000000400400010024000040048EC
:1045C0007047F8B5064604462036307F00270D4672
:1045D00001280ED001203077002A0CD0042A1BD0ED
:1045E000082A2FD00C2A3ED00127002030773846E9
:1045F000F8BD0220F8BD206801F054FA20688169F6
:104600000822114381612068826904218A43826102
:10461000206881692A6912E0206801F087FA206821
:1046200082690121C9020A438261206881690122ED
:10463000920291438161206881692A6912021143C3
:104640008161D2E7206801F0B1FA2068C1690822CF
:104650001143C1612068C26904218A43C261206894
:10466000C1692A6912E0206801F0E2FA2068C16994
:104670000122D2021143C1612068C269012189026D
:104680008A43C2612068C1692A6912021143C1616B
:10469000ABE770B5040005D025462035687F0028BB
:1046A00002D006E0012070BD00202877204600F0EF
:1046B00015F802206877211D206801F08FF901208C
:1046C0004034A071A877E87720706070A070E07027
:1046D000207160716877002070BD000008B5006827
:1046E0000549884207D10548C26902210A43C261CF
:1046F000C0690840009008BD00040040001002405E
:104700007047000030B504460222203000290AD04C
:1047100004290DD02046403008290ED04378012BC3
:1047200010D0012030BD837F012BFAD182770AE0BF
:10473000C37F012BF5D1C27705E00378012BF0D1BF
:10474000027000E042700122206801F08BF91249EA
:104750002068124B884207D0984205D0104A9042F8
:1047600002D0104A904204D1426C0125ED032A4345
:10477000426420680122884204D00B49884201D05B
:10478000984204D181684907490F062902D001687F
:1047900011430160002030BD002C01400040014069
:1047A0000044014000480140000400407047704749
:1047B00010B504210148FFF7A5FF10BDE00100205E
:1047C000FEE70000FEB53849384C394B4A785B7D2E
:1047D000A168019366790025731EDBB20093731CF8
:1047E000DFB2012A15D0324A927D002A58D001F05A
:1047F000BBFC3F210906A060884252DB01992C488E
:10480000002946D0002E3FD00099617100293ED08A
:1048100044E001F0A9FC3F210906A060884232DB98
:1048200023484088002810D00198002807D0002E87
:1048300003D000986071002808D1032003E067715D
:10484000032F03D90120607100E06571194A908837
:10485000002803D0E078C043E07000E0E57016491E
:10486000486800280DD05388104A002B127902D0D6
:10487000E378934205D08968884202D0D043207102
:1048800000E02571A560FEBD0320607106E085751E
:1048900004E06771032F01D96571F8E7A56000E0B6
:1048A0006571E5702571FEBD540A00206800002086
:1048B0007C0A0020640A0020940A0020F1B501213E
:1048C00009204902C006FFF731F80025834E012771
:1048D000834C002805D1707B00287DD1E07800282A
:1048E00003D02078012806D04BE0A168009801F0A1
:1048F0003BFCA0602770012109204902C006FFF798
:1049000015F8012812D17748A16809187648814224
:1049100009D23079002801D0357100E03771714833
:104920007249404208602570E570A5607048A16832
:1049300009187048814224D2E078002821D13079CA
:10494000002805D001206C4980070860B06017E09E
:104950006A486B49006840186A4988420CD26A4824
:104960006B4907706948057601616A4941617F2199
:104970005E48C905016003E001205F4980070860C7
:10498000E770012109208902C006FEF7CFFF002849
:1049900005D1707B00281FD12079002803D06078D2
:1049A000012806D048E0E168009801F0DDFBE060F6
:1049B0006770012109208902C006FEF7B7FF0128B0
:1049C0002CD14848E16809184748814223D2307900
:1049D000002807D0012000E07EE0474980070860FA
:1049E000B06018E0B0784C49032808D00320B070BC
:1049F0004A4808604A4805604A48056007E04A4856
:104A0000B57085702030857448480D600770354852
:104A100036494042086065702571E5603448E168B8
:104A200009183448814207D22079002804D1012096
:104A3000314980070860277104213D48FEF776FF61
:104A4000002805D1707B002846D16079002809D064
:104A5000A078012840D104213548FEF767FF0128DE
:104A600007D02BE02169009801F07EFB2061A77040
:104A7000F1E71C48216909181B4881421BD2307993
:104A8000002805D001201C4980070860B06012E0B2
:104A90002848017D00290AD102210170F7700775AD
:104AA00087752248077024480770244807700D480E
:104AB0000E4940420860A570657125610C48216966
:104AC00009180C48814207D26079002804D10120DE
:104AD0000949800708606771F8BD0000540A00208A
:104AE00048000020333333C23333F3010400002085
:104AF000FFFF3FC0FFFF7F000800002014000020E0
:104B0000FFFF9EBBFF7F1B00780900205C0900208F
:104B100000007A440000FA44940000200000C040E5
:104B2000900000208C0000209002002066000020F1
:104B3000000400487C0A002065000020640000207A
:104B40006420401E0006000EFBD1704710B53C22C9
:104B5000FF21002001F09AF910BD10B500213C2280
:104B6000084601F093F910BD10B5284C01228021B0
:104B70002046FEF7E0FE012220212046FEF7DBFE64
:104B8000012210212046FEF7D6FEFFF7D9FF0022B2
:104B900080212046FEF7CFFEFFF7D2FF002001F074
:104BA0000FFA012001F0D2F9032001F0CFF904201F
:104BB00001F0CCF9052001F0C9F9082001F0C6F98F
:104BC000182001F0C3F9802001F0C0F9402001F065
:104BD000BDF9A62001F0BAF9E32001F0B7F90122EE
:104BE00080212046FEF7A7FE00210948FFF78AFD35
:104BF0000749012009684863FFF7A8FF7D20C0002E
:104C0000FEF74AFBFFF7A9FF10BD000000040048B3
:104C1000E001002010B50C480188491C0180418842
:104C2000491C41808188491C8180C188491CC18000
:104C30000189491C01814189491C41818189491CA3
:104C4000818100F0BFFD10BDC00000203EB50021F5
:104C500021480091019102914160816001241D4A27
:104C600004610260C160042242610176417681766E
:104C7000C1769101C16189000162014620310C7148
:104C80008462FEF7FDF8002801D0FDF7BDFE01208B
:104C90000003019007200290009469460E48FEF739
:104CA00003F8002801D0FDF7AFFE0220009069460E
:104CB0000948FDF7F9FF002801D0FDF7A5FE1120F6
:104CC000009069460448FDF7EFFF002801D0FDF78A
:104CD0009BFE3EBD002401401401002008B5084899
:104CE0004169012211434161406910400022009056
:104CF00011460920FEF786FE0920FEF777FE08BD63
:104D000000100240F0B587B014216846FBF7F0FAB6
:104D100033484269012189050A43426142690A40D8
:104D20000592426949110A43426142690A4005926B
:104D3000426949000A4342614069412608407602BF
:104D40000590002231462748FEF7F5FD0122B021EB
:104D50002448FEF7F0FDC520C00000240927FF0607
:104D600000900194694602943846FEF70DFD10202C
:104D700031252D0400906946019502943846FEF7CE
:104D800003FD194800900194694602941548FEF706
:104D9000FBFC0120800300906946019502941148B4
:104DA000FEF7F2FC0125029469460E480096019533
:104DB0000394FEF7E9FCB0200090032003900195D6
:104DC000029569460748FEF7DFFC00220121072013
:104DD000FEF718FE0720FEF709FE07B0F0BD000041
:104DE00000100240000400480430000010B586B0F6
:104DF00000240094174801940294039404941449E5
:104E0000059401602F21846041600461446112496E
:104E10008461C160FFF7B4F8002801D0FDF7F4FD0C
:104E200001200003009069460A48FFF711F90028A5
:104E300001D0FDF7E9FD202004A911C1054808397A
:104E4000FFF770F8002801D0FDF7DEFD06B010BDB9
:104E50000040014028020020E703000010B586B0A2
:104E60000024059418480494009401940294154970
:104E700003940160154984604160046144611449F0
:104E80008461C160FFF7F3F9002801D0FDF7BCFD94
:104E9000049404A90C480594FFF744F8002801D0B5
:104EA000FDF7B2FD012001900094029400226946B2
:104EB00003940548FFF748F9002801D0FDF7A4FD49
:104EC00006B010BD002C014098010020BF12000068
:104ED000FFFF000010B58AB0002407941C2168462B
:104EE0000894FBF705FA21481F4901600B218460F3
:104EF0004160FF21046190318461C160FFF7C9FB0B
:104F0000002801D0FDF780FD079407A917480894F1
:104F1000FFF708F8002801D0FDF776FD602000902B
:104F2000019402940022694604941048FFF749FB5B
:104F3000002801D0FDF768FD042269460B48FFF701
:104F400040FB002801D0FDF75FFD0C2269460748B1
:104F5000FFF737FB002801D0FDF756FD0348FFF7A8
:104F6000F5FA0AB010BD000000040040E001002086
:104F7000F3B5564885B00C46814200DD04465449DD
:104F800020460F89FF2296389032524D874202DA2E
:104F90002A6207B0F0BD7D231B0100269C4219DC6C
:104FA00020466438874215DA6969059801F0DCF813
:104FB00049496861884202DAFA202862E9E74649ED
:104FC0004942401803214905884201D22E62E0E798
:104FD0006E61DEE79C4201DDA742D9DBE01B313088
:104FE000632802D20120687000E06E706878642146
:104FF0004843FCF7D1F800903846FCF7CDF8039011
:105000002046FCF7C1F80146354F0098334A3B462D
:105010000097019202900C3B039A0598FCF7CAFA9C
:10502000FF20796AC005C14201D37E6203E02B48AC
:10503000814200DD786226480089A04219DA2448BE
:10504000C08AFCF7A9F82649264B34310293264A38
:1050500000910B46019202463F210C3B0906059840
:10506000FCF7A8FA1E483430426AFF20C005C2424D
:1050700003D31B483430466205E019491A483431DD
:10508000824200DD486212480089A04201DD2E62A2
:1050900019E0A969059801F067F80446A861786AE3
:1050A000124F3946FBF75EFF214601F025F906D87D
:1050B0000B483430406AFCF705F8286200E02E62A5
:1050C000A869B84285DDAE6163E700001C0C0000F2
:1050D000640A0020D8000020000040400000C842C0
:1050E000C40900200000484200007A43000020412B
:1050F000F1B5264C244B626A254D5F787F2100264E
:10510000C90550002D6884B0012F06D1214FBF88FA
:10511000002F29D0DB78002B0BD0000E03D01046D7
:1051200001F022F96062FF20616AC005C14224D209
:1051300024E01848C088FCF72FF805463846FCF7ED
:105140002BF801461448114B019002900C3B2A4663
:1051500000940498FCF72EFA606AFBF7D9FF0C491B
:105160000968086405B0F0BD000E104602D001F0D9
:10517000FBF860620949884200DA6662606AFBF700
:10518000C7FF2864EEE70000540A002090090020C1
:10519000E00100207C0A00200000C8430000A0417C
:1051A00010B50C210448FFF7ADFA01225102034863
:1051B000FEF7C1FB10BD0000E00100200004004824
:1051C000044803490160044941600021816070473F
:1051D0000BD7233D8409002090C2753DFEE70000F7
:1051E000F3B54A4885B0408901900F46081AFBF78D
:1051F000CBFF064646480025464C864206DB38462D
:10520000FBF7C2FF0121FBF7CBFF13E042488642C8
:1052100006DD3846FBF7B8FF404901F015F809E014
:105220003F48864203DAFF20C005C64204D2384612
:10523000FBF7AAFFE06000E0E5603A4831183A4821
:1052400081421FD27F21C905A06800F08DFF009028
:105250000198FBF7A1FF009901F04EF807D22B4807
:105260006560C088FBF798FFA060257039E0616831
:10527000059800F079FF2D496060884204DD012027
:10528000207004E06560F0E72078002829D019211B
:10529000490127488F4201DA264900E0264941604A
:1052A0003846FBF706FD0022244BFBF70DFDFBF70C
:1052B000D1F8009015484089FBF76EFF03903846FF
:1052C000FBF762FF01461A4F00981D4A0C37009702
:1052D00001920290164B039A0598FCF76BF9786AD5
:1052E00020612169E06800F03FFF60620120C00595
:1052F000864202DA656025706562606AFBF7E2FE4D
:1053000001460598FFF734FE07B0F0BD640A00209F
:1053100000001643D80000200000C842CDCC8C3FCE
:105320000000A040FFFF5FBEFFFF270100002041FB
:10533000200A00206F12833B0BD7233D000004405E
:1053400000401C45FEB507463448874201DA00207C
:10535000FEBD3348874202DD7D204001FEBD314E57
:105360000024A5007159384600F0C6FF05D8A819D9
:105370004168384600F03EFF05D3641CFF20A4B20C
:10538000A7308442EDD32046FBF706FF264900F004
:10539000EBFE7F210546C90500F0E6FE0290A00065
:1053A000315880190091406800F0DEFF41001F4A2B
:1053B00049081F4C1F4E914210DAA54206DA3146C9
:1053C000284600F041FFFBF7A3FE24E0284600F04A
:1053D00090FEFBF79DFE0A2148431CE00190294600
:1053E000029800F0C1FF02903846009900F0BCFF1F
:1053F000029900F029FF0199FBF7B4FD294600F05E
:10540000B3FEA04201DB00F074FE314600F01CFF49
:10541000FBF77EFE0A3080B2FEBD0000B86E644429
:10542000B86E1A45386400080000B0C16F12833AA4
:105430000000C84200002041F0B5564D85B02988D3
:105440000020FCF77FF8FBF79FFE534C2060698833
:105450000120FCF777F8FBF797FE6060FDF7A8FBEB
:105460002E461C3E054670614C4807694069394626
:1054700000F07AFF01464A48FBF774FD494988600D
:1054800001460090384600F0DFFE454900F060FF1D
:105490004449486002900B21C9432068FBF780FE15
:1054A000294600F0D1FEB169019100F0CDFE3146F0
:1054B0002431086007460B21C9436068FBF770FE82
:1054C000294600F0C1FE019900F0BEFE31462431AC
:1054D00048600390F0683449019000F0B5FEFBF796
:1054E00017FD04460D463846FBF712FD2F4A304B98
:1054F000FBF79AF922462B46FBF766F9FAF7AAFF63
:1055000031462C31074608600398FBF701FD274A16
:10551000274BFBF789F922462B46FBF755F9FAF79B
:1055200099FF31462C31486004463946019800F015
:105530001BFF05461F49384600F086FE2946FBF74B
:1055400011FD174900F080FE3746343705463860B4
:105550002146019800F008FF01901649204600F00E
:1055600073FE0199FBF7FEFC0D4900F06DFE7860BB
:10557000009900F069FE029900F0F6FD706028467F
:10558000009900F061FE029900F0EEFDB06005B0F8
:10559000F0BD000028000020500900205C09002018
:1055A00000007A44780900207F526E3E3333333353
:1055B00033331B4000004040F8B51C211C48FDF768
:1055C0009DFA1B4B1B4E18781B4F01241B4DAA281C
:1055D00002D1587EC42813D000F03CF8588870805F
:1055E0009888B8801648996801601648197B01733D
:1055F0001548047015480470154804702C7012E0AA
:10560000588870809888B8800D48996801600D4866
:10561000197B01730C4804700C4804700C4804702A
:105620002878002803D00020287000F02DF8F8BD5D
:105630005C0900207C0A0020640A00205C00002035
:10564000940A0020540A0020660000206500002013
:10565000640000200948AA21017064214180FF21D3
:10566000F5318180002181600173054A0261054A9C
:1056700042610176C4214176704700005C09002038
:1056800000007A440000FA4410B51C210148FDF7DF
:1056900057FA10BD5C09002070B5094C002521782F
:1056A00000290BD0616800F05FFD3F2109066060B2
:1056B000884202DBFFF7E8FF257070BD656070BDB2
:1056C0005C0000207047000070B5194C216800F0A4
:1056D0004BFD206020461C3081880220FBF732FF02
:1056E000FBF752FD054620611248408BFBF754FD45
:1056F0002946FBF737FCA0610F48E060FFF79CFEEE
:105700007F212068C905884210DB6068FFF71AFE18
:105710000A4D6881A068FFF715FE2881084A616874
:10572000914200DA6889E8800020206070BD0000A6
:105730000C000020A0F7FF1F8B6C1F40640A0020A4
:10574000008009457047000070B5144A144D9088D8
:10575000D081688868811348134C43782168012BF5
:1057600004D18378032B01D061683B31E160407B39
:10577000002802D0FCF748FF70BD0C210E20515EBE
:10578000105EFCF73DFD08210A20695E285EFCF7EB
:105790004BFCE068FCF748FE70BD0000640A002086
:1057A0007C0A0020540A0020940A002010B5FEF75D
:1057B000CFF803480078002801D0FFF72BFA10BD7E
:1057C000540A0020F8B5304C00252088022800D368
:1057D000258060882D4E0A280CD33046FFF76EF8DE
:1057E0003046FCF7ADFF3046FFF76EFF3046FCF762
:1057F0001FF96580A08832280DD3254F3846FFF762
:1058000077FC3846FCF7F0F93846FBF737FF3846A7
:10581000FBF79EFFA580E08864280DD31D4F384616
:1058200000F0A4FA3846FCF705F8384600F022FBF1
:105830003846FCF75FF8E58020890A2806D3304611
:10584000FCF710FA3046FCF75BFA25816089FF21EE
:10585000F531884208D33F2636063046FCF7CAF8B1
:105860003046FFF719FF6581A0897D21C900884274
:1058700008D37F26F605304600F0E2FA3046FDF701
:1058800091F8A581F8BD0000C00000200AD7233C94
:10589000CDCC4C3DCDCCCC3D30B591B0302168461F
:1058A000FAF726FD002411200F94009001200190AA
:1058B0000590102006900E940003099000010D94AD
:1058C00002250A900C9408950B946846FEF74CF953
:1058D000002801D072B6FEE707200C900E9401213B
:1058E0000D950F940CA8FEF791F8002801D072B620
:1058F000FEE711B030BD704770B5134C002020702A
:10590000FFF75AFEFFF730F9FDF772F8FFF748FC92
:10591000FEF74EFFFFF754FC00F06AFAFDF71CF8A3
:10592000FBF75CFD0A49094808600121092089024A
:10593000C006FDF7FBFF0125002800D16573FBF7CA
:10594000E7FE257070BD0000540A0020CDCCCC3D90
:105950000400002010B50248FEF746FD10BD00000F
:105960002802002070B513480068456B124C656032
:10597000A068854201D9281A02E01049081A401986
:105980002060642814D3FBF707FC01460C48FBF7A2
:10599000E9FAA5600B49E06000F056FC0021C9431C
:1059A000FBF7FEFBFBF7B4FB0749C880002008614A
:1059B00070BD000098010020A4000020FFFF00003F
:1059C00000401C46000070427C0A002010B50248CE
:1059D000FEF70AFD10BD000098010020F0B5026836
:1059E0001A4B1B4C984201D0A04203D17025AA4308
:1059F0004D682A43174D184E184F98420AD0A042BE
:105A000008D0174CA04205D0A84203D0B04201D024
:105A1000B84205D11446032212029443CA682243B5
:105A20008024A2434C69224302608A68C2620A68E9
:105A30008262984205D0A84203D0B04201D0B84259
:105A400001D10969016301214161F0BD002C0140D0
:105A50000004004000400140004401400048014073
:105A60000020004010B5CB06DB0E0121046A9940EE
:105A70008C430462016A9A401143016210BD30B543
:105A80008468FF252D021B021343AC430B432343C1
:105A9000836030BD826870239A430A4307210A431A
:105AA00082607047F0B5026A520852000262056ACD
:105AB000436882697024A24392080C6892001443E0
:105AC000022295438A68164E2A43144DA84207D0F5
:105AD000B04205D0134FB84202D0134FB84206D19E
