:020000040800F2
:1000000088100020890100085D5F0008B5550008D0
:10001000295E0008710300085D660008000000000A
:100020000000000000000000000000006B600008FD
:1000300015080008000000006960000871610008F0
:10004000A3010008A3010008A3010008A301000800
:10005000A3010008A3010008A3010008A3010008F0
:10006000A3010008A3010008A3010008A3010008E0
:10007000A301000839070008A3010008A301000834
:10008000A3010008A3010008A3010008A3010008C0
:10009000A3010008A3010008A3010008F13A000829
:1000A000A3010008A3010008A3010008A3010008A0
:1000B000A3010008D5620008A3010008A3010008FD
:1000C000A3010008A3010008A3010008A301000880
:1000D000A3010008A3010008A3010008A301000870
:1000E000E93A0008A3010008A301000800F002F8A3
:1000F00000F03AF80AA090E8000C82448344AAF188
:100100000107DA4501D100F02FF8AFF2090EBAE885
:100110000F0013F0010F18BFFB1A43F0010318473B
:10012000B4720000D4720000103A24BF78C878C1BD
:10013000FAD8520724BF30C830C144BF04680C60ED
:10014000704700000023002400250026103A28BF35
:1001500078C1FBD8520728BF30C148BF0B60704739
:100160001FB51FBD10B510BD00F06BF81146FFF7AD
:10017000F7FF06F0BFFD00F089F803B4FFF7F2FFC8
:1001800003BC00F091F80000094880470948004787
:10019000FEE7FEE7FEE7FEE7FEE7FEE7FEE7FEE737
:1001A000FEE7FEE704480549054A064B7047000094
:1001B00097620008ED000008880A002088100020DF
:1001C000880C0020880C0020B2F120030AD5C2F16F
:1001D000200320FA02F001FA03F321FA02F140EAC7
:1001E0000300704721FA03F04FF0000170474FF011
:1001F000000200B5134694469646203922BFA0E877
:100200000C50A0E80C50B1F12001BFF4F7AF090782
:1002100028BFA0E80C5048BF0CC05DF804EB890073
:1002200028BF40F8042B08BF704748BF20F8022BB6
:1002300011F0804F18BF00F8012B704770477047CE
:100240007047754600F02CF8AE46050069465346E7
:1002500020F00700854618B020B5FFF7A3FFBDE8E2
:1002600020404FF000064FF000074FF000084FF01D
:10027000000B21F00701AC46ACE8C009ACE8C009AE
:10028000ACE8C009ACE8C0098D46704710B504461B
:10029000AFF300802046BDE81040FFF76EBF0000BE
:1002A00000487047240A002001491820ABBEFEE731
:1002B0002600020070472DE9F05F92460A46DDE90C
:1002C0000A4783461E465146104606F0FDFFE06091
:1002D000326881460146104606F0EEFE20601BF0B3
:1002E000FF4087F0004504D059464FF07E5006F09D
:1002F00085FD80465046216A06F0E6FF414606F03D
:10030000DBFE0146B06880F0004006F0D5FEA0613B
:100310002846494606F09CFF01D2284607E03946A8
:10032000E06806F095FF01D2384600E0E0687168A9
:1003300006F0C2FE594606F0BFFE616806F0F0FC0A
:10034000606010F1FF4F01D3002106E00C9906F028
:100350007FFF01D20C9900E061686160206806F0BF
:10036000DFFCA16906F0DCFCC4E908A0BDE8F09F51
:10037000FEE700002DE9F041204C80464FF40001DB
:1003800060688E121E4F884204DAA2688A4201DA3F
:10039000002219E010F0FF4F09D001223146384603
:1003A00004F02DF84046616806F083FF6060A568A0
:1003B00015F0FF4F1FD04046216806F0B1FC1149EF
:1003C0002060884206DA012231463846BDE8F04115
:1003D00004F015B80B490C4A494201449142D7D365
:1003E0000A49884207DB4FF07E51284606F06CFF31
:1003F000A06000202060BDE8F08100001000002017
:1004000000100140CDCC4C3ECDCC4C009A99993E89
:1004100070B50446174800F1100650F8245056F8FD
:100420002400A6F12001854201D9281A03E04FF6E5
:10043000FF72101A284441F8240006F0F5FD014629
:100440000D4806F0DBFC0B49203141F8240046F84A
:1004500024500A4906F030FE094906F0CFFC06F0A8
:100460008FFD084904EB440201EB0211C880002013
:10047000086170BD5C08002000401C46000070420E
:100480000000A040640900202DE9F047154FDFF877
:1004900058808146002400BF04EB440007EB0015A0
:1004A0006878C8B1EE69002E16DD58F82410484669
:1004B00006F036FC48F82400B0F17E5F0CDB761EB7
:1004C000EE6106D1022028750120094928700748ED
:1004D0000860002148F82410641CE4B2042CDBD32B
:1004E000BDE8F08764090020480900200000A04012
:1004F000180000202DE9F0470024244D244E8146A9
:10050000A04600BF04EB440005EB00173878B0B3F9
:10051000B7F90600642832DC56F82410484606F085
:10052000FFFB46F82400B0F17E5F28DD194987F80B
:10053000018087F80080184A81F80180012111703C
:1005400016494046C1F800806978012915D095F810
:100550003110012911D095F8611001290DD095F8BD
:100560009110012909D0A969E961A96CE964A96F11
:10057000E967D5F8A810C5F8AC1046F82400641C4B
:10058000E4B2042CBED3BDE8F0870000640900206B
:100590008C08002058090020500000204400002052
:1005A00070B5094C4FF400050646E169A94202DB2B
:1005B00006F07FFEE061616CA94203DB304606F085
:1005C00078FE606470BD0000E8010020F0B51F48AF
:1005D0004FF400010125406C1D4B884201DB1D706A
:1005E00002E01878012830D11A48006888422CDAD5
:1005F00019494978002928D110F0FF4F25D1174C0F
:10060000174E0F4601EB410004EB0010B0F9042037
:10061000B0F908C0624507D006EB410C0281ACF886
:100620000220027D02B10775D0F820C082696245C0
:1006300004D00262C26106EB8100C260491CC9B2EB
:100640000429DFD3074805701F70F0BDE8010020C2
:1006500050000020440000205809002064090020B8
:1006600030080020480000202DE9F047204C1F4FA3
:100670008246A0687E78002500F0FF416EB189B304
:100680001C49496CB1F5000F2CDA61684FF07C58B9
:10069000894611F0FF4F05D01DE00029F0D12570EB
:1006A00065701FE0414606F00FFE1149A060097811
:1006B000C943C9B226B1012E02D0022E03D006E0F2
:1006C0002170657003E025706178C943617010F096
:1006D000FF4F00D17D704946504606F021FB606017
:1006E000404500DB6560BDE8F08700005809002048
:1006F0003C000020E80100202DE9F04700240D4EC9
:1007000081464FF07E57A04604EB440006EB0015EF
:100710004846296906F004FB2861B84203DBA5F8C6
:100720000680C5F81080641CE4B2042CECD3BDE84C
:10073000F087000064090020014803F023BB00009B
:100740008401002030B590F840500124AC40C56BC6
:100750006C60046863604368102B036803D0996081
:100760000068C26030BD9A600068C16030BD0000A2
:1007700000EB4001264810B500EB0110417871B341
:10078000B0F9081061B3027D03233AB1012A0BD0FE
:10079000022A13D0032A00D1818110BDB0F90C20A8
:1007A000914209DB01220275B0F90640B0F90C2034
:1007B00094420BDD84810AE002220275B0F9064002
:1007C000B0F90C2094420CDA84810BE0828102782B
:1007D000002AE2D1B0F90C208A420ADA10BD12E0F8
:1007E00009E082810278002AF8D1B0F90C208A420F
:1007F000F4DC0375F2E7B0F90620B0F90C108A4278
:10080000CADA8281EAE7002181810175E6E700000A
:100810006409002070470000044948430921B0FBE7
:10082000F1F000BF401EFCD27047000040190100EB
:1008300071B54FF461754FF0E023104E009819E048
:100840002C46A04200D804469869614201EBC101E0
:1008500010EBC10105D49A69824208DA8A42FADAB9
:1008600005E08A1999698142FCDD9142FADC009821
:10087000001B00900028E3D178BD00004019010062
:100880002DE9F05F0446B0F99C000A25B0F57A7FA7
:100890005EDB4FF47A7190FBF1F090FBF5F105FB14
:1008A0001100C0B20A283ED2DFE800F052050C1356
:1008B0001A21232A3133502270210E2006F00EFA1D
:1008C00000222CE0602270210E2006F007FAB022F0
:1008D00025E0702211460E2006F000FA90221EE05C
:1008E000702211460E2006F0F9F9402217E030225E
:1008F00010E0302270210E2006F0F0F9F0220EE018
:10090000502270210E2006F0E9F9802207E07022C3
:10091000F0E7702270210E2006F0E0F9D022F021DD
:100920000F2006F0DBF9B4F99C00642763285DDD35
:1009300090FBF7F090FBF5F105FB1100C0B20A281F
:1009400040D2DFE800F053070E151C23252C333569
:100950005022CFE7502270210C2006F0BFF9002270
:100960002CE0602270210C2006F0B8F9B02225E0BE
:10097000702211460C2006F0B1F990221EE0702280
:1009800011460C2006F0AAF9402217E0302210E0B0
:10099000302270210C2006F0A1F9F0220EE0502246
:1009A00070210C2006F09AF9802207E07022F0E70F
:1009B000702270210C2006F091F9D022F0210D2038
:1009C00006F08CF9B4F99C0009285BDD90FBF5F08A
:1009D00090FBF5F105FB1100C0B20A2840D2DFE818
:1009E00000F051070E151C23252C33355022D0E77B
:1009F000502270210A2006F071F900222CE06022BA
:100A000070210A2006F06AF9B02225E07022114612
:100A10000A2006F063F990221EE0702211460A2097
:100A200006F05CF9402217E0302210E030227021FD
:100A30000A2006F053F9F0220EE0502270210A201D
:100A400006F04CF9802207E07022F0E77022702156
:100A50000A2006F043F9D022F0210B2006F03EF9DF
:100A6000B4F99C00002849DB90FBF5F105FB11006F
:100A7000C0B20A2842D2DFE800F0070910171E258D
:100A8000272E35375022D2E750221EE05022702107
:100A9000082006F023F900222CE0602270210820B3
:100AA00006F01CF9B02225E070221146082006F05D
:100AB00015F990221EE070221146082006F00EF96A
:100AC000402217E0302210E030227021082006F08A
:100AD00005F9F0220EE050227021082006F0FEF801
:100AE000802207E07022F0E770227021082006F0D3
:100AF000F5F8D022F021092006F0F0F8F748DFF8E9
:100B0000E083007840B1D8F84400B0F5000F03DA74
:100B1000F4488078032816D0B4F99A0098B34FF4BB
:100B20007A71884271DB90FBF1F090FBF5F105FBE7
:100B30001100C0B20A2869D2DFE800F0994B52597F
:100B400060696B72797B00227021062006F0C6F87E
:100B50000022F021072006F0C1F8002270210420B5
:100B600006F0BCF80022F021052006F0B7F80022BC
:100B70007021022006F0B2F80022F021032006F0D6
:100B8000ADF800221FE0FFE720227021062006F0CA
:100B9000A5F80022F021072006F0A0F820227021FD
:100BA000042006F09BF80022F021052006F096F8BC
:100BB00020227021022006F091F80022F02103206B
:100BC00006F08CF820227021002006F087F8002221
:100BD0001AE150227021062006F080F800222EE053
:100BE00060227021062006F079F8B02227E07022FA
:100BF0001146062006F072F8902220E0702211467D
:100C0000062006F06BF8402219E030E01BE03022AD
:100C100010E030227021062006F060F8F0220EE08D
:100C200050227021062006F059F8802207E0702239
:100C3000F0E770227021062006F050F8D022F02153
:100C4000072006F04BF8B4F99A0063285DDD90FBAD
:100C5000F7F090FBF5F105FB1100C0B20A2840D275
:100C6000DFE800F053070E151C23252C33355022E6
:100C7000D0E750227021042006F030F800222CE04A
:100C800060227021042006F029F8B02225E07022AD
:100C90001146042006F022F890221EE07022114630
:100CA000042006F01BF8402217E0302210E030222A
:100CB0007021042006F012F8F0220EE0502270217C
:100CC000042006F00BF8802207E07022F0E7702283
:100CD0007021042006F002F8D022F021052005F052
:100CE000FDFFB4F99A0009285BDD90FBF5F090FB5D
:100CF000F5F105FB1100C0B20A2840D2DFE800F090
:100D000051070E151C23252C33355022D0E75022D5
:100D10007021022005F0E2FF00222CE06022702109
:100D2000022005F0DBFFB02225E0702211460220F0
:100D300005F0D4FF90221EE070221146022005F03B
:100D4000CDFF402217E0302210E030227021022037
:100D500005F0C4FFF0220EE050227021022005F0C1
:100D6000BDFF802207E07022F0E770227021022090
:100D700005F0B4FFD022F021032005F0AFFFB4F955
:100D80009A00002844DB90FBF5F105FB1100C0B28E
:100D90000A283DD2DFE800F007090B1219202229AA
:100DA00030325022D2E7502219E050220BE7602265
:100DB0007021002005F092FFB02225E0702211463C
:100DC000002005F08BFF90221EE0702211460020CB
:100DD00005F084FF402217E0302210E0302270211D
:100DE000002005F07BFFF0220EE050227021002051
:100DF00005F074FF802207E07022F0E77022702176
:100E0000002005F06BFFD022F021012005F066FFE5
:100E1000D4F8AC0048F6A0494FF4167A4FF03C0BDA
:100E20004FF4616668B1D4F8B81091FBF9F0C0B224
:100E30000A2832D2DFE800F02527434A585F616371
:100E40006A710E210422084605F048FF0F21002296
:100E5000084605F043FF04220E210C2005F03EFF5A
:100E600000220F210D2005F039FF04220E210A2057
:100E700005F034FF00220F210B2005F02FFF042284
:100E8000F1E00A2243E00E210A22084605F026FF7F
:100E900000220F21084605F021FFD4F8B80090FB8E
:100EA000F6F090FBF5F105FB1100C0B20A2847D21D
:100EB000DFE800F03A3C585F666D6F71787F0E2175
:100EC0000C22084605F00AFF0B22E2E70E2211462B
:100ED000104605F003FF0922DBE700003C0000207C
:100EE000E8010020580900200E221146104605F0A6
:100EF000F5FE0422CDE7062210E0062207E00E21CF
:100F00000A22084605F0EAFE0822C2E70E220E2158
:100F1000084605F0E3FE0F22BBE70E220E2108462D
:100F200005F0DCFE0D22B4E70A223CE00A220E2185
:100F30000C2005F0D3FE00220F210D2005F0CEFE7F
:100F4000D4F8B80090FBF6F106FB110191FBFAF022
:100F5000C0B20A2840D2DFE800F03335555C636A3E
:100F60006C6E757C0C220E21104605F0B7FE0B222C
:100F7000E2E70E2211460C2005F0B0FE0922DBE765
:100F80000E2211460C2005F0A9FE0422D4E7062209
:100F900010E0062207E00A220E210C2005F09EFE3A
:100FA0000822C9E70E220E210C2005F097FE0F2221
:100FB000C2E70E220E210C2005F090FE0D22BBE7A9
:100FC0000A2240E00A220E21104605F087FE002288
:100FD0000F210B2005F082FED4F8B80090FBF6F14B
:100FE00006FB110191FBFBF090FBF5F105FB1100F5
:100FF000C0B20A286ED2DFE800F033353C434A51D4
:10100000535A61630C220E210A2005F067FE0B2261
:10101000DEE70E2211460A2005F060FE0922D7E71E
:101020000E2211460A2005F059FE0422D0E70622BE
:1010300010E0062207E00A220E21104605F04EFEBF
:101040000822C5E70E220E210A2005F047FE0F22D6
:10105000BEE70E220E210A2005F040FE0D22B7E762
:101060000A221EE00A220E21082005F037FE002287
:101070002CE00C220E21082005F030FE0B2225E08A
:101080000E221146082005F029FE09221EE00E223C
:101090001146082005F022FE042217E0062210E087
:1010A00006220E21082005F019FE0F220EE00A226A
:1010B0000E21082005F012FE082207E00E22F0E7BC
:1010C0000E220E21082005F009FE0D220F21092015
:1010D00005F004FEFA48407840B1D8F84400B0F575
:1010E000000F03DAF7488078032810D0D4F8A8005E
:1010F00068B3D4F8B41091FBF9F0C0B20A2857D203
:10110000DFE800F04A4C686F767D7F81888F00228F
:101110000E21062005F0E2FD00220F21072005F038
:10112000DDFD00220E21042005F0D8FD00220F2154
:10113000052005F0D3FD00220E21022005F0CEFD92
:1011400000220F21032005F0C9FD00221EE0042229
:101150000E21062005F0C2FD00220F21072005F018
:10116000BDFD04220E21104605F0B8FD00220F211E
:10117000052005F0B3FD04220E21022005F0AEFD8E
:1011800000220F21032005F0A9FD04220E210020DA
:1011900005F0A4FD002218E10A223CE00A220E21FB
:1011A000062005F09BFD00220F21072005F096FD8B
:1011B000D4F8B40090FBF6F090FBF5F105FB1100BC
:1011C000C0B20A2840D2DFE800F0333551585F66DC
:1011D000686A71780C220E21062005F07FFD0B2233
:1011E000E2E70E221146062005F078FD0922DBE732
:1011F0000E221146062005F071FD0422D4E70622D6
:1012000010E0062207E00A220E21062005F066FD06
:101210000822C9E70E220E21062005F05FFD0F22ED
:10122000C2E70E220E21062005F058FD0D22BBE775
:101230000A223CE00A220E21042005F04FFD002284
:101240000F21052005F04AFDD4F8B40090FBF6F11B
:1012500006FB110191FBFAF0C0B20A2840D2DFE888
:1012600000F03335555C636A6C6E757C0C220E2180
:10127000042005F033FD0B22E2E70E221146042084
:1012800005F02CFD0922DBE70E221146042005F0B3
:1012900025FD0422D4E7062210E0062207E00A22F8
:1012A0000E21042005F01AFD0822C9E70E220E21A6
:1012B000042005F013FD0F22C2E70E220E210420A8
:1012C00005F00CFD0D22BBE70A2240E00A220E21A8
:1012D000022005F003FD00220F21032005F0FEFC93
:1012E000D4F8B40090FBF6F106FB110191FBFBF082
:1012F00090FBF5F105FB1100C0B20A2869D2DFE8C6
:1013000000F03335373E454C4E555C5E0C220E21C5
:10131000022005F0E3FC0B22DEE70E22114602203C
:1013200005F0DCFC0922D7E70E221146022005F069
:10133000D5FC0422D0E7062210E0062207E00A22AC
:101340000E21022005F0CAFC0822C5E70E220E215C
:10135000022005F0C3FC0F22BEE70E220E21022060
:1013600005F0BCFC0D22B7E70A2219E00A220DE7BE
:101370000C220E21002005F0B1FC0B2225E00E22EC
:101380001146002005F0AAFC09221EE00E2211469B
:10139000002005F0A3FC042217E0062210E006223C
:1013A0000E21002005F09AFC0F220EE00A220E21E9
:1013B000002005F093FC082207E00E22F0E70E2241
:1013C0000E21002005F08AFC0D220F21012005F0DE
:1013D00085FCB4F96C00B0F57A7F70DB4FF47A715C
:1013E00090FBF1F090FBF5F105FB1100C0B20A286B
:1013F00057D2DFE800F08F050718293542707C834B
:10140000002269E081221146162005F067FC802247
:101410008121182005F062FC802211461C2005F075
:101420005DFC012239E081221146162005F056FCB0
:1014300081221146182005F051FC802280211C20B9
:1014400005F04CFC002228E001228121162005F045
:1014500045FC81221146182005F040FC002206E0E0
:1014600081221146162005F039FC01224CE0802132
:101470001C2005F033FC80220FE08122114616204B
:1014800005F02CFC01228121182005F027FC802288
:1014900011461C2005F022FC812281211D2005F02F
:1014A0001DFCB4F96C0063287CDD90FBF7F090FB29
:1014B000F5F105FB1100C0B20A2865D204E029E06D
:1014C0003C00002058090020DFE800F074262D348D
:1014D0003B42444B525480228121162005F0FEFBF2
:1014E00081221146182005F0F9FB0022A6E781228F
:1014F0008121162005F0F2FB8122C4E781221146EA
:10150000162005F0EBFB81228121182005F0E6FB77
:101510008022ACE78022EBE7502270211C2005F0EE
:10152000DDFB00222CE0602270211C2005F0D6FBA0
:10153000B02225E0702211461C2005F0CFFB90223E
:101540001EE0702211461C2005F0C8FB402217E067
:10155000302210E0302270211C2005F0BFFBF02269
:101560000EE0502270211C2005F0B8FB802207E01D
:101570007022F0E7702270211C2005F0AFFBD02212
:10158000F0211A2005F0AAFBB4F96C0009285DDDF2
:1015900090FBF5F090FBF5F105FB1100C0B20A28B5
:1015A00042D200E006E0DFE800F051070E151C23F0
:1015B000252C33355022CEE750227021182005F01B
:1015C0008DFB00222CE060227021182005F086FBA4
:1015D000B02225E070221146182005F07FFB9022F2
:1015E0001EE070221146182005F078FB402217E01B
:1015F000302210E030227021182005F06FFBF0221D
:101600000EE050227021182005F068FB802207E0D0
:101610007022F0E770227021182005F05FFBD022C5
:10162000F021192005F05AFBB4F96C00002849DBC1
:1016300090FBF5F105FB1100C0B20A2842D2DFE8A9
:1016400000F0070910171E25272E35375022D2E744
:1016500050221EE050227021162005F03FFB002290
:101660002CE060227021162005F038FBB02225E026
:1016700070221146162005F031FB90221EE07022E8
:101680001146162005F02AFB402217E0302210E018
:1016900030227021162005F021FBF0220EE05022AE
:1016A0007021162005F01AFB802207E07022F0E777
:1016B00070227021162005F011FBD022F021172096
:1016C00005F00CFBF948007840B1D8F84400B0F5BB
:1016D000000F03DAF6488078022816D0B4F96A00C1
:1016E00098B34FF47A71884271DB90FBF1F090FB74
:1016F000F5F105FB1100C0B20A2869D2DFE800F05D
:10170000994B525960696B72797B002270211D20C0
:1017100005F0E4FA0022F021152005F0DFFA00229E
:101720007021132005F0DAFA0022F021142005F0D0
:10173000D5FA002270211E2005F0D0FA0022F021F7
:10174000122005F0CBFA00221FE0FFE720227021D3
:101750001D2005F0C3FA0022F021152005F0BEFA85
:1017600020227021132005F0B9FA0022F021142064
:1017700005F0B4FA202270211E2005F0AFFA0022F5
:10178000F021122005F0AAFA20227021102005F085
:10179000A5FA00221AE1502270211D2005F09EFAC0
:1017A00000222EE0602270211D2005F097FAB02261
:1017B00027E0702211461D2005F090FA902220E0CB
:1017C000702211461D2005F089FA402219E030E010
:1017D0001BE0302210E0302270211D2005F07EFA3F
:1017E000F0220EE0502270211D2005F077FA8022B1
:1017F00007E07022F0E7702270211D2005F06EFADC
:10180000D022F021152005F069FAB4F96A006328A6
:101810005DDD90FBF7F090FBF5F105FB1100C0B228
:101820000A2840D2DFE800F053070E151C23252CB0
:1018300033355022D0E750227021132005F04EFAA4
:1018400000222CE060227021132005F047FAB0221C
:1018500025E070221146132005F040FA90221EE088
:1018600070221146132005F039FA402217E0302289
:1018700010E030227021132005F030FAF0220EE043
:1018800050227021132005F029FA802207E07022EF
:10189000F0E770227021132005F020FAD022F02109
:1018A000142005F01BFAB4F96A0009285BDD90FBEF
:1018B000F5F090FBF5F105FB1100C0B20A2840D20B
:1018C000DFE800F051070E151C23252C333550227C
:1018D000D0E7502270211E2005F000FA00222CE0F3
:1018E000602270211E2005F0F9F9B02225E0702257
:1018F00011461E2005F0F2F990221EE070221146DA
:101900001E2005F0EBF9402217E0302210E03022D3
:1019100070211E2005F0E2F9F0220EE05022702125
:101920001E2005F0DBF9802207E07022F0E770222C
:1019300070211E2005F0D2F9D022F021122005F0EE
:10194000CDF9B4F96A00002844DB90FBF5F105FB02
:101950001100C0B20A283DD2DFE800F007090B12DF
:101960001920222930325022D2E7502219E0502289
:101970000BE760227021102005F0B0F9B02225E0BD
:1019800070221146102005F0A9F990221EE0702265
:101990001146102005F0A2F9402217E0302210E095
:1019A00030227021102005F099F9F0220EE050222B
:1019B0007021102005F092F9802207E07022F0E7F4
:1019C00070227021102005F089F9D022F021112019
:1019D00005F084F9E06F68B1D4F8881091FBF9F054
:1019E000C0B20A2828D2DFE800F02022393B3D3F70
:1019F0004143454708227F211B2005F06FF904224F
:101A00000E211C2005F06AF900220F211A2005F092
:101A100065F904220E21182005F060F900220F213B
:101A2000192005F05BF90422CCE0772200E01222B5
:101A30007F211B2005F052F9D4F8880090FBF6F0C6
:101A400090FBF5F105FB1100C0B20A2822D2DFE8B5
:101A500000F01517383F464D4F51585F5D22E7E7BC
:101A60005B22E5E73A22E3E76B22E1E76F22DFE75B
:101A70005222DDE77F22DBE77B22D9E70A2241E021
:101A80000A220E211C2005F029F900220F211A201C
:101A900005F024F9D4F8880090FBF6F106FB11015B
:101AA00091FBFAF0C0B20A2845D203E03C000020C6
:101AB00058090020DFE800F03335555C636A6C6E2E
:101AC000757C0C220E211C2005F008F90B22DDE7A5
:101AD0000E2211461C2005F001F90922D6E70E223C
:101AE00011461C2005F0FAF80422CFE7062210E088
:101AF000062207E00A220E211C2005F0EFF808223A
:101B0000C4E70E220E211C2005F0E8F80F22BDE7E5
:101B10000E220E211C2005F0E1F80D22B6E70A2264
:101B200040E00A220E21182005F0D8F800220F21EB
:101B3000192005F0D3F8D4F8880090FBF6F106FBE5
:101B4000110191FBFBF090FBF5F105FB1100C0B218
:101B50000A286ED2DFE800F033353C434A51535A2D
:101B600061630C220E21182005F0B8F80B22DEE785
:101B70000E221146182005F0B1F80922D7E70E22EF
:101B80001146182005F0AAF80422D0E7062210E03A
:101B9000062207E00A220E21182005F09FF80822ED
:101BA000C5E70E220E21182005F098F80F22BEE797
:101BB0000E220E21182005F091F80D22B7E70A2217
:101BC0001EE00A220E21162005F088F800222CE0E3
:101BD0000C220E21162005F081F80B2225E00E22A2
:101BE0001146162005F07AF809221EE00E22114651
:101BF000162005F073F8042217E0062210E00622F2
:101C00000E21162005F06AF80F220EE00A220E219E
:101C1000162005F063F8082207E00E22F0E70E22F6
:101C20000E21162005F05AF80D220F21172005F07D
:101C300055F8FC48407840B1D8F84400B0F5000FA2
:101C400003DAF948807802280FD0A06F68B3D4F87F
:101C5000841091FBF9F0C0B20A2857D2DFE800F0F7
:101C60004A4C686F767D7F81888F00220E211D206F
:101C700005F034F800220F21152005F02FF800227E
:101C80000E21132005F02AF800220F21142005F060
:101C900025F800220E211E2005F020F800220F2139
:101CA000122005F01BF800221EE004220E211D2048
:101CB00005F014F800220F21152005F00FF804227A
:101CC0000E21132005F00AF800220F21142005F040
:101CD00005F804220E211E2005F000F800220F2135
:101CE000122004F0FBFF04220E21102004F0F6FF66
:101CF000002218E10A223CE00A220E211D2004F0F5
:101D0000EDFF00220F21152004F0E8FFD4F8840035
:101D100090FBF6F090FBF5F105FB1100C0B20A282C
:101D200040D2DFE800F0333551585F66686A717859
:101D30000C220E211D2004F0D1FF0B22E2E70E221F
:101D400011461D2004F0CAFF0922DBE70E221146CE
:101D50001D2004F0C3FF0422D4E7062210E006226F
:101D600007E00A220E211D2004F0B8FF0822C9E76F
:101D70000E220E211D2004F0B1FF0F22C2E70E2219
:101D80000E211D2004F0AAFF0D22BBE70A223CE031
:101D90000A220E21132004F0A1FF00220F2114209B
:101DA00004F09CFFD4F8840090FBF6F106FB1101CF
:101DB00091FBFAF0C0B20A2840D2DFE800F03335D8
:101DC000555C636A6C6E757C0C220E21132004F046
:101DD00085FF0B22E2E70E221146132004F07EFF5E
:101DE0000922DBE70E221146132004F077FF0422BC
:101DF000D4E7062210E0062207E00A220E21132073
:101E000004F06CFF0822C9E70E220E21132004F013
:101E100065FF0F22C2E70E220E21132004F05EFFA1
:101E20000D22BBE70A2240E00A220E211E2004F008
:101E300055FF00220F21122004F050FFD4F8840037
:101E400090FBF6F106FB110191FBFBF090FBF5F125
:101E500005FB1100C0B20A2869D2DFE800F0333573
:101E6000373E454C4E555C5E0C220E211E2004F080
:101E700035FF0B22DEE70E2211461E2004F02EFF56
:101E80000922D7E70E2211461E2004F027FF042264
:101E9000D0E7062210E0062207E00A220E211E20CB
:101EA00004F01CFF0822C5E70E220E211E2004F0BC
:101EB00015FF0F22BEE70E220E211E2004F00EFF9A
:101EC0000D22B7E70A2219E00A220DE70C220E21A3
:101ED000102004F003FF0B2225E00E2211461020F3
:101EE00004F0FCFE09221EE00E221146102004F030
:101EF000F5FE042217E0062210E006220E21102033
:101F000004F0ECFE0F220EE00A220E21102004F055
:101F1000E5FE082207E00E22F0E70E220E21102037
:101F200004F0DCFE0D220F21112004F0D7FE8022E8
:101F30001146002004F0D2FE01221146002004F0D8
:101F4000CDFE01221146042004F0C8FE36488078F8
:101F500001280BD0032809D000228021062004F09C
:101F6000BDFE3248007818B1012202E08022F4E779
:101F700000220121062004F0B1FE2D4890F99E00B8
:101F800030B1012806D0022854D0032811D158E0DE
:101F9000802200E0002280210A2004F09FFE80229F
:101FA0008021082004F09AFE01220121082004F07B
:101FB00095FE1D488078A0B302284FD00022012151
:101FC0000A2004F08BFE18488078022848D00328A5
:101FD00046D0002280210C2004F080FE0122114610
:101FE0000C2004F07BFE124890F8BC00A8B300223D
:101FF00080210E2004F072FE80221146102004F091
:102000006DFE01221146102004F068FE084890F988
:102010006E0048B3012829D0022860D0032834D1AB
:1020200064E01BE03C00002058090020260000204E
:1020300064090020802211460A2004F04FFE00228D
:10204000AEE7802211460A2004F048FE80221146A5
:10205000082004F043FE0022A7E703E00122AEE7D8
:102060008022B7E78022C3E7802200E0002280219F
:102070001E2004F033FE012201211E2004F02EFE5A
:1020800080228021132004F029FE01221146132012
:1020900004F024FEF94890F88C0098B300228021C7
:1020A0001B2004F01BFE012211461C2004F016FE2A
:1020B000B4F93C00B0F57A7F73DB4FF47A7190FB92
:1020C000F1F090FBF5F105FB1100C0B20A2854D2E3
:1020D000DFE800F0671B222930373940474980226A
:1020E00011461E2004F0FAFD0022C5E780221146A9
:1020F0001E2004F0F3FD012211461E2004F0EEFD27
:102100000022BEE7FFE78022C9E70A220E212D2028
:1021100004F0E4FD00222CE006220E212D2004F024
:10212000DDFD0D2225E00E2211462D2004F0D6FD06
:1021300009221EE00E2211462D2004F0CFFD0222BE
:1021400017E00C2210E00C220E212D2004F0C6FD19
:102150000F220EE00A220E212D2004F0BFFD0122E5
:1021600007E00E22F0E70E220E212D2004F0B6FD2E
:102170000B220F212E2004F0B1FDB4F93C0063289E
:102180005DDD90FBF7F090FBF5F105FB1100C0B2AF
:102190000A2840D2DFE800F053070E151C23252C37
:1021A00033350A22D0E70A220E212B2004F096FDB7
:1021B00000222CE006220E212B2004F08FFD0D22A0
:1021C00025E00E2211462B2004F088FD09221EE096
:1021D0000E2211462B2004F081FD022217E00C2272
:1021E00010E00C220E212B2004F078FD0F220EE0CF
:1021F0000A220E212B2004F071FD012207E00E229D
:10220000F0E70E220E212B2004F068FD0B220F2197
:102210002C2004F063FDB4F93C0009285BDD90FB41
:10222000F5F090FBF5F105FB1100C0B20A2840D291
:10223000DFE800F051070E151C23252C33350A2248
:10224000D0E70A220E21292004F048FD00222CE0CC
:1022500006220E21292004F041FD0D2225E00E2248
:102260001146292004F03AFD09221EE00E221146F3
:10227000292004F033FD022217E00C2210E00C228A
:102280000E21292004F02AFD0F220EE00A220E2141
:10229000292004F023FD012207E00E22F0E70E22A0
:1022A0000E21292004F01AFD0B220F212A2004F010
:1022B00015FDB4F93C00002849DB90FBF5F105FB66
:1022C0001100C0B20A2842D2DFE800F00709101757
:1022D0001E25272E35370A22D2E70A221EE00A22BF
:1022E0000E21272004F0FAFC00222CE006220E2109
:1022F000272004F0F3FC0D2225E00E2211462720B2
:1023000004F0ECFC09221EE00E221146272004F006
:10231000E5FC022217E00C2210E00C220E212720FF
:1023200004F0DCFC0F220EE00A220E21272004F02C
:10233000D5FC012207E00E22F0E70E220E21272015
:1023400004F0CCFC0B220F21282004F0C7FC4C48E1
:10235000007840B1D8F84400B0F5000F03DA4948DE
:102360008078012816D0B4F93A0098B34FF47A7106
:10237000884271DB90FBF1F090FBF5F105FB110059
:10238000C0B20A2869D2DFE800F09F4B5259606959
:102390006B727F8100220E21252004F09FFC002219
:1023A0000F21262004F09AFC00220E21232004F0A5
:1023B00095FC00220F21242004F090FC00220E2125
:1023C000212004F08BFC00220F21222004F086FC47
:1023D00000221FE0FFE704220E21252004F07EFCEE
:1023E00000220F21262004F079FC04220E21232054
:1023F00004F074FC00220F21242004F06FFC04225E
:102400000E21212004F06AFC00220F21222004F07A
:1024100065FC04220E211F2004F060FC002220E154
:102420000A220E21252004F059FC002234E0062265
:102430000E21252004F052FC0D222DE00E22114623
:10244000252004F04BFC092226E00E22114625200F
:1024500004F044FC02221FE036E021E00C2216E0EA
:102460000C220E21252004F039FC0F2214E00A2250
:102470000E21252004F032FC01220DE06409002029
:102480003C000020580900200E22EAE70E220E210F
:10249000252004F023FC0B220F21262004F01EFC33
:1024A000B4F93A0063285DDD90FBF7F090FBF5F19D
:1024B00005FB1100C0B20A2840D2DFE800F0530744
:1024C0000E151C23252C33350A22CAE70A220E21B9
:1024D000232004F003FC00222CE006220E212320FE
:1024E00004F0FCFB0D2225E00E221146232004F00F
:1024F000F5FB09221EE00E221146232004F0EEFB1C
:10250000022217E00C2210E00C220E21232004F0FE
:10251000E5FB0F220EE00A220E21232004F0DEFB51
:10252000012207E00E22F0E70E220E21232004F004
:10253000D5FB0B220F21242004F0D0FBB4F93A0084
:1025400009285BDD90FBF5F090FBF5F105FB110030
:10255000C0B20A2840D2DFE800F051070E151C2354
:10256000252C33350A22D0E70A220E21212004F03F
:10257000B5FB00222CE006220E21212004F0AEFB48
:102580000D2225E00E221146212004F0A7FB09228E
:102590001EE00E221146212004F0A0FB022217E0CB
:1025A0000C2210E00C220E21212004F097FB0F22B8
:1025B0000EE00A220E21212004F090FB012207E008
:1025C0000E22F0E70E220E21212004F087FB0B22C1
:1025D0000F21222004F082FBB4F93A00002844DBEA
:1025E00090FBF5F105FB1100C0B20A283DD2DFE8EF
:1025F00000F007090B121920222930320A22D2E7F3
:102600000A2219E00A2205E706220E211F2004F003
:1026100065FB0D2225E00E2211461F2004F05EFB13
:1026200009221EE00E2211461F2004F057FB022251
:1026300017E00C2210E00C220E211F2004F04EFBAC
:102640000F220EE00A220E211F2004F047FB012278
:1026500007E00E22F0E70E220E211F2004F03EFBC1
:102660000B220F21202004F039FBE06C60B1A16D3A
:1026700091FBF9F0C0B20A2832D2DFE800F025273A
:1026800042495057595B6269202270212D2004F085
:1026900025FB0022F0212E2004F020FB20227021B7
:1026A0002B2004F01BFB0022F0212C2004F016FB51
:1026B00020227021292004F011FB0022F0212A2081
:1026C00004F00CFB2022E7E050223BE05022702176
:1026D0002D2004F003FB0022F0212E2004F0FEFA4E
:1026E000A06D90FBF6F090FBF5F105FB1100C0B278
:1026F0000A2840D2DFE800F0333550575E6567693D
:102700007077302270212D2004F0E8FAD022E3E720
:10271000702211462D2004F0E1FA9022DCE77022AD
:1027200011462D2004F0DAFA2022D5E7602210E0CD
:10273000602207E0502270212D2004F0CFFA1022F1
:10274000CAE7702270212D2004F0C8FAF022C3E7F6
:10275000702270212D2004F0C1FAB022BCE7502273
:102760003BE0502270212B2004F0B8FA0022F02127
:102770002C2004F0B3FAA06D90FBF6F106FB1101DA
:1027800091FBFAF0C0B20A2840D2DFE800F03335FE
:10279000545B62696B6D747B302270212B2004F0D6
:1027A0009DFAD022E3E7702211462B2004F096FA1E
:1027B0009022DCE7702211462B2004F08FFA2022B1
:1027C000D5E7602210E0602207E0502270212B2024
:1027D00004F084FA1022CAE7702270212B2004F042
:1027E0007DFAF022C3E7702270212B2004F076FAE4
:1027F000B022BCE750223FE050227021292004F093
:102800006DFA0022F0212A2004F068FAA06D90FBF6
:10281000F6F106FB110191FBFBF090FBF5F105FBD6
:102820001100C0B20A286ED2DFE800F033353C4315
:102830004A51535A616330227021292004F04EFA24
:10284000D022DFE770221146292004F047FA9022B7
:10285000D8E770221146292004F040FA2022D1E75F
:10286000602210E0602207E050227021292004F04D
:1028700035FA1022C6E770227021292004F02EFAC2
:10288000F022BFE770227021292004F027FAB0223D
:10289000B8E750221EE050227021272004F01EFAD3
:1028A00000222CE030227021272004F017FAD022D9
:1028B00025E070221146272004F010FA90221EE035
:1028C00070221146272004F009FA202217E0602226
:1028D00010E060227021272004F000FAF0220EE0C0
:1028E00050227021272004F0F9F9102207E070220D
:1028F000F0E770227021272004F0F0F9B022F021D7
:10290000282004F0EBF9FE48407840B1D8F84400A4
:10291000B0F5000F03DAFB48807801280ED0A06CD8
:1029200060B3616D91FBF9F0C0B20A2857D2DFE8BD
:1029300000F04A4C676E757C7E80878E0022702185
:10294000252004F0CBF90022F021262004F0C6F95E
:1029500000227021232004F0C1F90022F02124205C
:1029600004F0BCF900227021212004F0B7F9002204
:10297000F021222004F0B2F900221EE02022702172
:10298000252004F0ABF90022F021262004F0A6F95E
:1029900020227021232004F0A1F90022F02124201C
:1029A00004F09CF920227021212004F097F90022E4
:1029B000F021222004F092F9202270211F2004F03F
:1029C0008DF9002215E150223BE050227021252094
:1029D00004F084F90022F021262004F07FF9606DD4
:1029E00090FBF6F090FBF5F105FB1100C0B20A2850
:1029F00040D2DFE800F0333550575E656769707785
:102A000030227021252004F069F9D022E3E77022FA
:102A10001146252004F062F99022DCE7702211466D
:102A2000252004F05BF92022D5E7602210E0602227
:102A300007E050227021252004F050F91022CAE747
:102A400070227021252004F049F9F022C3E770229A
:102A50007021252004F042F9B022BCE750223BE06F
:102A600050227021232004F039F90022F021242083
:102A700004F034F9606D90FBF6F106FB110191FB57
:102A8000FAF0C0B20A2840D2DFE800F03335545BD8
:102A900062696B6D747B30227021232004F01EF973
:102AA000D022E3E770221146232004F017F9902288
:102AB000DCE770221146232004F010F92022D5E72C
:102AC000602210E0602207E050227021232004F0F1
:102AD00005F91022CAE770227021232004F0FEF8C5
:102AE000F022C3E770227021232004F0F7F8B0220F
:102AF000BCE750223FE050227021212004F0EEF884
:102B00000022F021222004F0E9F8606D90FBF6F13C
:102B100006FB110191FBFBF090FBF5F105FB1100A9
:102B2000C0B20A2869D2DFE800F03335373E454CA1
:102B30004E555C5E30227021212004F0CFF8D02267
:102B4000DFE770221146212004F0C8F89022D8E770
:102B500070221146212004F0C1F82022D1E7602222
:102B600010E0602207E050227021212004F0B6F826
:102B70001022C6E770227021212004F0AFF8F02265
:102B8000BFE770227021212004F0A8F8B022B8E736
:102B9000502219E0502210E7302270211F2004F04B
:102BA0009DF8D02225E0702211461F2004F096F8EF
:102BB00090221EE0702211461F2004F08FF8202280
:102BC00017E0602210E0602270211F2004F086F8D8
:102BD000F0220EE0502270211F2004F07FF8102216
:102BE00007E07022F0E7702270211F2004F076F8D1
:102BF000B022F021202004F071F8B4F90C00B0F5F7
:102C00007A7F3ADB4FF47A7190FBF1F090FBF5F1AB
:102C100005FB1100C0B20A281BD2DFE800F02E0528
:102C200007090B0D0F11131524220EE05D220CE095
:102C30006D220AE02E2208E06B2206E07B2204E0EF
:102C4000252202E07F2200E06F227F213D2004F058
:102C500045F8B4F90C00632862DD90FBF7F090FBB7
:102C6000F5F105FB1100C0B20A2840D2DFE800F000
:102C700058070E151C23252C33357722E5E70A2249
:102C80000E213B2004F02AF800222CE006220E211F
:102C90003B2004F023F80D2225E00E2211463B20B4
:102CA00004F01CF809221EE00E2211463B2004F01D
:102CB00015F8022217E00C2210E00C220E213B2016
:102CC00004F00CF80F220EE00A220E213B2004F043
:102CD00005F8012207E00E22F0E70E220E213B202C
:102CE00003F0FCFF0B220F213C2003F0F7FFB4F9A7
:102CF0000C00092860DD90FBF5F090FBF5F103E096
:102D00003C0000205809002005FB1100C0B20A2831
:102D100040D2DFE800F051070E151C23252C333577
:102D20000A22CBE70A220E21392003F0D7FF002226
:102D30002CE006220E21392003F0D0FF0D2225E0E1
:102D40000E221146392003F0C9FF09221EE00E228F
:102D50001146392003F0C2FF022217E00C2210E0D6
:102D60000C220E21392003F0B9FF0F220EE00A22B7
:102D70000E21392003F0B2FF012207E00E22F0E716
:102D80000E220E21392003F0A9FF0B220F213A2039
:102D900003F0A4FFB4F90C00002849DB90FBF5F127
:102DA00005FB1100C0B20A2842D2DFE800F0070993
:102DB00010171E25272E35370A22D2E70A221EE0D9
:102DC0000A220E21372003F089FF00222CE0062280
:102DD0000E21372003F082FF0D2225E00E2211463E
:102DE000372003F07BFF09221EE00E221146372018
:102DF00003F074FF022217E00C2210E00C220E21D7
:102E0000372003F06BFF0F220EE00A220E2137203D
:102E100003F064FF012207E00E22F0E70E220E21EC
:102E2000372003F05BFF0B220F21382003F056FF01
:102E3000F748007838B1D8F84400B0F5000F02DA4E
:102E4000F4488078B0B1B4F90A0098B34FF47A71BD
:102E5000884271DB90FBF1F090FBF5F105FB11006E
:102E6000C0B20A2869D2DFE800F0994B5259606974
:102E70006B72797B00220E21352003F02FFF002298
:102E80000F21362003F02AFF00220E21332003F009
:102E900025FF00220F21342003F020FF00220E2105
:102EA000312003F01BFF00220F21322003F016FF18
:102EB00000221FE0FFE704220E21352003F00EFF61
:102EC00000220F21362003F009FF04220E213320B7
:102ED00003F004FF00220F21342003F0FFFE042240
:102EE0000E21312003F0FAFE00220F21322003F0E0
:102EF000F5FE04220E212F2003F0F0FE00221AE13D
:102F00000A220E21352003F0E9FE00222EE00622DF
:102F10000E21352003F0E2FE0D2227E00E2211469D
:102F2000352003F0DBFE092220E00E221146352079
:102F300003F0D4FE022219E030E01BE00C2210E086
:102F40000C220E21352003F0C9FE0F220EE00A22CA
:102F50000E21352003F0C2FE012207E00E22F0E729
:102F60000E220E21352003F0B9FE0B220F21362050
:102F700003F0B4FEB4F90A0063285DDD90FBF7F0BE
:102F800090FBF5F105FB1100C0B20A2840D2DFE842
:102F900000F053070E151C23252C33350A22D0E7E9
:102FA0000A220E21332003F099FE00222CE0062293
:102FB0000E21332003F092FE0D2225E00E22114651
:102FC000332003F08BFE09221EE00E22114633202F
:102FD00003F084FE022217E00C2210E00C220E21E6
:102FE000332003F07BFE0F220EE00A220E21332055
:102FF00003F074FE012207E00E22F0E70E220E21FC
:10300000332003F06BFE0B220F21342003F066FE09
:10301000B4F90A0009285BDD90FBF5F090FBF5F1AF
:1030200005FB1100C0B20A2840D2DFE800F05107CA
:103030000E151C23252C33350A22D0E70A220E2137
:10304000312003F04BFE00222CE006220E2131201D
:1030500003F044FE0D2225E00E221146312003F03C
:103060003DFE09221EE00E221146312003F036FEFD
:10307000022217E00C2210E00C220E21312003F076
:103080002DFE0F220EE00A220E21312003F026FE33
:10309000012207E00E22F0E70E220E21312003F07C
:1030A0001DFE0B220F21322003F018FEB4F90A0096
:1030B000002844DB90FBF5F105FB1100C0B20A28A3
:1030C0003DD2DFE800F007090B1219202229303227
:1030D0000A22D2E70A2219E00A220BE706220E2171
:1030E0002F2003F0FBFD0D2225E00E2211462F209C
:1030F00003F0F4FD09221EE00E2211462F2003F0FA
:10310000EDFD022217E00C2210E00C220E212F20F0
:1031100003F0E4FD0F220EE00A220E212F2003F01F
:10312000DDFD012207E00E22F0E70E220E212F2006
:1031300003F0D4FD0B220F21302003F0CFFDE06916
:1031400060B1A16A91FBF9F0C0B20A283BD2DFE876
:1031500000F08E2F4B57637476878E950022812165
:10316000352003F0BBFD01228121372003F0B6FD9D
:1031700000228121392003F0B1FD002201213B20F2
:1031800003F0ACFD202270213B2003F0A7FD0022BC
:10319000F0213C2003F0A2FD20227021392003F011
:1031A0009DFD0022F0213A2003F098FD202209E144
:1031B00000228121352003F091FD002232E001211F
:1031C0003B2003F08BFDA06A90FBF6F090FBF5F13D
:1031D00005FB1100C0B20A2863D2DFE800F05658A0
:1031E000737A81888A8C939A80228121352003F01A
:1031F00075FD81221146372003F070FD012229E080
:1032000000223CE08121372003F068FD812221E08B
:103210003C0000205809002001228121352003F0C4
:103220005DFD01228121372003F058FD81221146E6
:10323000392003F053FD0022C1E7012200E0812282
:103240008121352003F04AFD81221146372003F009
:1032500045FD80228121392003F040FD0122AEE7A7
:1032600000228121352003F039FD0022CAE78122A6
:103270001146352003F032FD8022C3E7012281216F
:10328000352003F02BFD8122BCE750223BE0502289
:1032900070213B2003F022FD0022F0213C2003F0AE
:1032A0001DFDA06A90FBF6F106FB110191FBFAF0FF
:1032B000C0B20A2840D2DFE800F03335545B6269BF
:1032C0006B6D747B302270213B2003F007FDD02210
:1032D000E3E7702211463B2003F000FD9022DCE77B
:1032E000702211463B2003F0F9FC2022D5E7602232
:1032F00010E0602207E0502270213B2003F0EEFC3A
:103300001022CAE7702270213B2003F0E7FCF02274
:10331000C3E7702270213B2003F0E0FCB022BCE741
:1033200050223FE050227021392003F0D7FC0022C8
:10333000F0213A2003F0D2FCA06A90FBF6F106FBE4
:10334000110191FBFBF090FBF5F105FB1100C0B200
:103350000A286ED2DFE800F033353C434A51535A15
:10336000616330227021392003F0B8FCD022DFE7FE
:1033700070221146392003F0B1FC9022D8E7702268
:103380001146392003F0AAFC2022D1E7602210E088
:10339000602207E050227021392003F09FFC1022A8
:1033A000C6E770227021392003F098FCF022BFE7B5
:1033B00070227021392003F091FCB022B8E750222E
:1033C0001EE050227021372003F088FC00222CE000
:1033D00030227021372003F081FCD02225E07022BA
:1033E0001146372003F07AFC90221EE0702211462D
:1033F000372003F073FC202217E0602210E06022E7
:103400007021372003F06AFCF0220EE05022702178
:10341000372003F063FC102207E07022F0E77022EF
:103420007021372003F05AFCB022F021382003F03D
:1034300055FCFE48407838B1D8F84400B0F5000F8C
:1034400002DAFB48807870B1A06960B3616A91FBD1
:10345000F9F0C0B20A2857D2DFE800F04A4C676E94
:10346000757C7E80878E00227021352003F036FC2B
:103470000022F021362003F031FC0022702133209D
:1034800003F02CFC0022F021342003F027FC002262
:103490007021312003F022FC0022F021322003F0C1
:1034A0001DFC00221EE020227021352003F016FCB6
:1034B0000022F021362003F011FC2022702133205D
:1034C00003F00CFC0022F021342003F007FC202242
:1034D0007021312003F002FC0022F021322003F0A1
:1034E000FDFB202270212F2003F0F8FB002215E1C4
:1034F00050223BE050227021352003F0EFFB0022E8
:10350000F021362003F0EAFB606A90FBF6F090FBB6
:10351000F5F105FB1100C0B20A2840D2DFE800F047
:10352000333550575E6567697077302270213520DA
:1035300003F0D4FBD022E3E770221146352003F0DC
:10354000CDFB9022DCE770221146352003F0C6FB4C
:103550002022D5E7602210E0602207E0502270218F
:10356000352003F0BBFB1022CAE770227021352002
:1035700003F0B4FBF022C3E770227021352003F082
:10358000ADFBB022BCE750223BE05022702133203B
:1035900003F0A4FB0022F021342003F09FFB606ABB
:1035A00090FBF6F106FB110191FBFAF0C0B20A287C
:1035B00040D2DFE800F03335545B62696B6D747B99
:1035C00030227021332003F089FBD022E3E7702200
:1035D0001146332003F082FB9022DCE77022114673
:1035E000332003F07BFB2022D5E7602210E060222D
:1035F00007E050227021332003F070FB1022CAE74D
:1036000070227021332003F069FBF022C3E770229F
:103610007021332003F062FBB022BCE750223FE070
:1036200050227021312003F059FB0022F02132207A
:1036300003F054FB606A90FBF6F106FB110191FB6D
:10364000FBF090FBF5F105FB1100C0B20A2869D22E
:10365000DFE800F03335373E454C4E555C5E302296
:103660007021312003F03AFBD022DFE770221146AF
:10367000312003F033FB9022D8E77022114631202D
:1036800003F02CFB2022D1E7602210E0602207E04B
:1036900050227021312003F021FB1022C6E7702256
:1036A0007021312003F01AFBF022BFE77022702155
:1036B000312003F013FBB022B8E7502219E050226A
:1036C00010E7302270212F2003F008FBD02225E0E4
:1036D000702211462F2003F001FB90221EE0702281
:1036E00011462F2003F0FAFA202217E0602210E0A2
:1036F000602270212F2003F0F1FAF0220EE0502218
:1037000070212F2003F0EAFA102207E07022F0E780
:10371000702270212F2003F0E1FAB022F021302036
:1037200003F0DCFA434C94F85C0070B10022802175
:10373000292003F0D3FA94F93E0040B1012808D0C3
:10374000022827D0032813D130E08022EFE701229E
:1037500000E0002201212B2003F0C0FA0122012108
:103760002D2003F0BBFA802280212D2003F0B6FA31
:1037700094F82C0008B300220121332003F0AEFAA4
:1037800094F90E00D8B101281BD002287FD003285D
:1037900026D183E0012211462B2003F09FFA01225B
:1037A00011462D2003F09AFA0022DDE7012211468E
:1037B0002B2003F093FA0022D1E70122DCE701225B
:1037C00000E000220121312003F088FA80228021CC
:1037D0003D2003F083FA80228021312003F07EFA1D
:1037E0001348807840B3012864D0002201212920A9
:1037F00003F074FA012211461F2003F06FFA8022B1
:1038000011461F2003F06AFA80221146232003F09C
:1038100065FA802211462B2003F060FA012211463E
:103820002F2003F05BFA8022114606E03C000020C6
:1038300058090020640900203CE02F2003F04EFAD4
:1038400080221146332003F049FA802211463B20A2
:1038500003F044FA184D00246006010E01232A5D8E
:10386000184603F043F8641CE4B21F2CF4D3002480
:1038700028190123C27F6006010E002003F036F8EC
:10388000641CE4B21F2CF3D3BDE8F09FFFE70122D4
:103890001146312003F022FA002298E70122114656
:1038A000312003F01BFA802211463D2003F016FA66
:1038B000002291E7012299E7E007002010B50021DE
:1038C000134801F0FBFC0421114801F0F7FC08212A
:1038D0000F4801F0F3FC0C210D4801F0EFFC0D4CFA
:1038E00001222021204600F08AFD012210212046DD
:1038F00000F085FD084C01229102204600F07FFD7A
:1039000020460122BDE81040042100F078BD0000EF
:10391000AC00002000080140000C01402DE9F14FEF
:10392000504C2189E06800F065FDDFF83C91DFF83C
:103930003CB10025DFF83881DFF838A10127BE0748
:1039400010B994F8250020B194F82400012807D07C
:103950003CE0216A009803F0E3F9206284F82470C7
:103960002189E06800F046FD012821D1216A4944FF
:10397000594518D24048007810B1C8F8006012E0EC
:103980009AF802105046491CC9B28AF8021003295D
:1039900000D9857039488AF80150394905603248A4
:1039A000E6614042086084F8245084F8255025627E
:1039B000216A6FF07F5001443248814206D294F868
:1039C000250018B9C8F8006084F82570218E606B56
:1039D00000F010FD10B994F84D0050B194F84C006F
:1039E00001283CD1218E606B00F004FD012808D035
:1039F00026E0A16C009803F093F9A06484F84C7061
:103A0000F0E7A16C4944594515D21B48007810B124
:103A1000C8F800600FE09AF80110491CC9B28AF892
:103A20000110022901D98AF801700F481449404257
:103A300008601248066084F84C5084F84D50A56424
:103A4000A16C6FF07F5001440E48814207D294F878
:103A50004D00002803D1C8F8006084F84D70BDE81F
:103A6000F88F0000E8010020333333C23333F30111
:103A700018000020580900202600002044000020E3
:103A800014000020FFFF7F000948402180220180B0
:103A9000202141800749416002814A14C1600285AA
:103AA0008A144285CA14C1620286416370470000CD
:103AB000E8010020000C014010B5094C216803F01A
:103AC0002FF92060B0F17E5F08DB06488169416113
:103AD00000218161026CC0E90F21216010BD00004E
:103AE0001C000020E80100204FF4005000F086BBCD
:103AF000402000F083BB000010B50A4801F02EF80A
:103B00000021084801F092F90421064801F08EF9DD
:103B10000821044801F08AF9BDE810400C21014851
:103B200001F084B9F400002072B6FEE706490020D7
:103B3000C8610648016941F004010161016941F071
:103B40004001016170470000C801002000200240D0
:103B5000064A0021D16106490A6942F002020A615F
:103B60004861086940F0400008617047C8010020C2
:103B700000200240044B0022DA61044A136943F03A
:103B80000103136101807047C8010020002002403A
:103B900014480022C168CB06134904D5CA6942F013
:103BA0000202CA611022C3685B0705D5CB6943F0E6
:103BB0000103CB6142F00402C369DB0707D0CB6984
:103BC00043F00403CB61C16921F00101C161A2F599
:103BD0008071013901D0C2607047C16921F00101D3
:103BE000C161704700200240C801002070B5054641
:103BF00000F00AFC0646114C09E0681C07D025B10C
:103C000000F002FC801BA84201D9032070BDE068CF
:103C1000C007F2D1E068800601D52020E060E068AE
:103C2000C00605D4E069C00702D1E068400703D5AB
:103C3000FFF7AEFF012070BD002070BD00200240E4
:103C400078B500220B4B4C1E10E0551CA54202EB30
:103C500003052D88ADF800509DF80050855403DC15
:103C600086189DF801507570921C92B28A42ECD36E
:103C7000012078BD000001082DE9F04186B00D4615
:103C8000804600F02DFA002001900090164F01218F
:103C9000CDE90371694601A800F084F9C0B9002498
:103CA0006E1E1BE0601CB04207DC08EB040018F835
:103CB0000410407801EB002003E018F8040000F540
:103CC0007F4082B20023E119012000F0C9F918B148
:103CD000002006B0BDE8F081A41CA4B2AC42E1D340
:103CE00000F0B4F90120F4E70000010810B590F8E5
:103CF00021100024022903D00421816301243DE026
:103D000001680A6822F00E020A6001680A6822F05F
:103D100001020A601A4A0168914201D1012121E0A1
:103D2000174A1432914201D110211BE0144A283263
:103D3000914201D1891515E0114A3C32914201D1DD
:103D400089140FE00E4A5032914202D14FF4803173
:103D500008E00B4A6432914202D14FF4801101E035
:103D60004FF08071064A083A5160012180F8211015
:103D7000002180F82010416B01B18847204610BD1A
:103D8000080002402DE9F05FC16B0C6801680B6808
:103D9000D0F840C0042202FA0CF2494DDFF824A109
:103DA000494E4A4FDFF828B1DFF828E122422CD0F3
:103DB0005A072AD50A68920603D40A6822F0040238
:103DC0000A600168A94201D1042219E0514501D1DC
:103DD000402215E0B14202D14FF4806210E0B942B6
:103DE00002D14FF480420BE0594502D14FF48022BA
:103DF00006E0714502D14FF4800201E04FF080628D
:103E00002F4908394A60C16A3BE04FF0020808FABE
:103E10000CF818EA040F4FF000094FF0010235D0FA
:103E20005FEA837832D50B689B0605D40B6823F0D4
:103E30000A030B6080F821200168A94201D1022207
:103E400019E0514501D1202215E0B14202D14FF4D1
:103E5000007210E0B94202D14FF400520BE0594514
:103E600002D14FF4003206E0714502D14FF4001246
:103E700001E04FF00072124908394A6080F8209042
:103E8000816A00291AD0BDE8F05F0847082505FAC5
:103E90000CF5254212D01B0710D50B6823F00E033A
:103EA0000B6090F84010C36B02FA01F15960826315
:103EB00080F8212080F82090016BE2E7BDE8F09FB8
:103EC000080002401C000240300002404400024052
:103ED000580002406C00024030B528B308C81349AE
:103EE00014221944B1FBF2F18900C16310498163C6
:103EF000022141771A6843F6F0718A43D0E9001431
:103F00002143D0E902452C432143046921434469FC
:103F10002143846921431143196000214163012237
:103F200042770177084630BD012030BDF8FFFDBF64
:103F30000000024070B5044690F8200000250128DA
:103F40000CD0012084F8200094F821600020012E7C
:103F500006D084F820000225284670BD022070BDDE
:103F6000022684F82160A0632068066826F0010616
:103F700006602046FCF7E6FBE06A0028206801683E
:103F800002D041F00E0106E021F00401016020683A
:103F9000016841F00A0101602068016841F00101F7
:103FA0000160D9E72DE9F047054626480F4601266E
:103FB000017E01290FD00121814601762868DFF8B2
:103FC00088804CF25034022808D0A2462046FFF7E1
:103FD0000DFEA8B131E00220BDE8F0872046FFF7D2
:103FE00005FE08BB0120FFF7A1FD2046FFF7FEFDFF
:103FF000D8F81010064621F00401C8F810101CE093
:104000004FF0FF303860AC6811E02046FFF7A0FDAC
:104010005046FFF7EBFDD8F81010060021F0020122
:10402000C8F8101001D03C6007E004F58064D5E9C1
:10403000020100EB8120A042E7D8002189F8181086
:104040003046C9E7C801002000200240034801694A
:1040500041F0800101610020704700000020024013
:104060002DE9F05F07461C4888460024017E15466E
:104070001E46012909D00121814601764CF2503AB1
:104080005046FFF7B3FD18B122E00220BDE8F09FD3
:10409000012F02D0022F00D00427D346DFF83CA026
:1040A000220128463146FCF78FF881B208EB440024
:1040B000FFF760FD5846FFF799FDDAF8102022F06F
:1040C0000102CAF8102018B9641CE4B2BC42E7D35C
:1040D000002289F81820D9E7C801002000200240FA
:1040E000064900200A69120607D5054A4A60054AB2
:1040F0004A600969090600D5012070470020024086
:1041000023016745AB89EFCD2DE9F05F344C804644
:10411000DFF8D0902188DFF8D0A00026334D4FF093
:1041200080474FF07E5B414529D19AF8000060BB83
:104130005946A06902F0F4FDC4E906076188606889
:1041400000F058F930B16188606800F053F9012837
:1041500008D00EE0A878401CC0B2A870032808D987
:10416000AE7006E0A87808B90420A870C0B2401E5E
:10417000A8701F486E70204906601E480860218D97
:10418000414504D19AF8000018B1C9F80070BDE8A3
:10419000F09F5F465946206C02F0C2FDC4E910074B
:1041A000EE70618DE06A00F025F980B1618DE06A02
:1041B00000F020F90128EAD1E06B02F0FDFEC3B265
:1041C0006A78A9780120BDE8F05F01F04FBFE06B8D
:1041D00002F0F2FEC3B26A78A9780020F3E700008B
:1041E000E8010020180000202600002058090020C7
:1041F00044000020CDCCCC3D14000020044910B573
:104200000A68024202D00860FFF77EFF10BD00007E
:10421000140401402DE9F84FDFF8B8910024A9F10A
:10422000040B23460F2709F1040AABF1040EC9E081
:104230000125A5402A40AA427DD1674ED1F804C08D
:10424000ACEB0608B44532D014DCBCF1030F3AD015
:1042500009DCBCF1000F2AD0BCF1010F1CD0BCF16D
:10426000020F31D11DE0BCF1110F17D0BCF1120FBC
:104270002AD119E0B8F5881F19D006DCB8F5803FBF
:1042800015D0B8F5801F1FD111E0B8F5001F0ED072
:10429000B8F5041F18D10AE0CB6815E0CB681B1DE8
:1042A00012E0CB6808330FE0CB680C330CE08B686E
:1042B0002BB1012B4FF0080303D0456104E0042328
:1042C00002E0056100E00023FF2A01D8064601E074
:1042D00000F104064FEA840501D9A5F12005D6F8BE
:1042E000008007FA05FC28EA0C0803FA05F548EAFD
:1042F0000508C6F800804D68ED0062D5374DAE69FF
:1043000046F00106AE61AD6924F0030605F0010533
:104310000095334D06EB050CDCF80850A607360F68
:1043200007FA06F825EA0805DFF8B880404503D10A
:104330004FF0000817E044E0DFF8AC80404502D1C0
:104340004FF001080FE0DFF8A480404502D14FF0A4
:10435000020808E0DFF89880404502D14FF00308DA
:1043600001E04FF0040808FA06F848EA0508CCF81E
:1043700008804D68D9F80060ED024D4601D516431E
:1043800000E096432E604D68DAF80060AD025546B5
:1043900001D5164300E096432E604D68DBF80060BF
:1043A000AD035D4601D5164300E096432E604D688F
:1043B000DEF80060ED03754601D5164300E0964334
:1043C0002E60641C0D682A46E5407FF431AFBDE8DD
:1043D000F88F000008040140000011100010024096
:1043E0000000014000080140000C014000100140A5
:1043F000001401408068084000D0012070470AB1D5
:10440000016170470904FBE70148806870470000BC
:1044100000000020024881680278114481607047E2
:1044200000000020074810B5016841F0100101604C
:10443000032000F075F80F2000F006F800F024F8D3
:10444000002010BD0020024070B50D4D04464FF411
:104450007A712878B1FBF0F00A490968B1FBF0F0F5
:1044600000F0BCFA48B9102C07D200222146501E99
:1044700000F036F800206C6070BD012070BD0000B7
:10448000000000200C0000200C4808B5816941F0B4
:1044900001018161816901F001010091C16941F06F
:1044A0008051C161C06900F08050009004484168AB
:1044B00021F0E06141F00071416008BD0010024050
:1044C00000000140002809DB00F01F02012191409B
:1044D0004009800000F1E020C0F8001170470000A2
:1044E000F0B40E4B1B680C46C3F30223C3F107055F
:1044F000042D00D90425191D072901D2002300E04D
:10450000DB1E012606FA05F1491E214099409E4016
:10451000761E16403143F0BC02F0D0BB0CED00E03B
:10452000064900F0070208684FF6FF03184040EA0A
:104530000220034A10430860704700000CED00E0C1
:104540000000FA052DE9F0470F46050061D0434E03
:10455000306800F00700B84209D2306820F0070048
:1045600038433060306800F00700B84251D1286805
:104570003B4C810712D5400703D5606840F4E060EA
:1045800060602878000703D5606840F46050606080
:104590006068A96820F0F000084360602878C007D0
:1045A00028D06868012810D02168022810D0890717
:1045B00000292EDA616821F0030101436160FFF7F1
:1045C00023FF804641F288390DE021688903EFE737
:1045D0008901EDE7FFF718FFA0EB0801494502D973
:1045E0000320BDE8F0876068696800F00C00B0EB5C
:1045F000810FEFD1306800F00700B8420BD9306866
:1046000020F0070038433060306800F00700B842FF
:1046100001D00120E5E72878400705D56068E96802
:1046200020F4E060084360602878000706D56068E1
:10463000296920F4605040EAC100606000F018F879
:104640006168084AC1F30311515CC840064908601B
:1046500006480068FFF7F8FE0020C2E7002002408D
:1046600000100240C47300080C0000200400002069
:104670000E4A51680E4801F00C03042B11D0082B90
:104680000FD10C48C1F38343C903C05C0AD55168FC
:10469000084AC1F34041921E515C054A5043B0FBA9
:1046A000F1F0704704494843704700000010024091
:1046B00000127A00B473000800093D002DE9F84F9C
:1046C000040070D02078C04DC00749D06868C0F39E
:1046D0008100012807D06868C0F38100022809D151
:1046E0006868C00306D52868800339D5606800284B
:1046F000E7D035E06068B0F5803F0BD010B1B0F581
:10470000A02F11D0286820F480302860286820F479
:10471000802002E0286840F480302860606890B112
:10472000FFF772FE06460AE0286840F48020286001
:10473000F0E700BFFFF768FE801B642873D8286885
:104740008003F7D50CE0FFF75FFE064605E000BFEB
:10475000FFF75AFE801B6428F0D828688003F7D43E
:1047600020789A4E80074FF001094FF0000839D5A4
:10477000686810F00C0F07D06868C0F38100022849
:1047800009D16868C00306D42868800714D5206959
:10479000012808D110E02069B0B1C6F80090FFF7F9
:1047A00033FE074605E00AE1FFF72EFEC01B022894
:1047B000C4D828688007F7D52868616920F0F80018
:1047C00040EAC10028600DE0C6F80080FFF71CFE3B
:1047D000074604E0FFF718FEC01B022823D828680C
:1047E0008007F7D4207800072CD57948A169D9B182
:1047F000C0F80090FFF708FE074604E0FFF704FE4C
:10480000C01B02280FD8686A8007F7D571484FF49B
:10481000FA510068B0FBF1F0009000BF0098411E13
:104820000091FAD20EE080E0C0F80080FFF7ECFDC6
:10483000074604E0FFF7E8FDC01B022875D8686A48
:104840008007F7D42078400760D5E8690027C000CA
:1048500008D4E86940F08050E861E869012700F079
:10486000805000905C480168C90513D401688346F4
:1048700041F480710160FFF7C7FD824606E000BF8A
:10488000FFF7C2FDA0EB0A0064284ED8DBF8000059
:10489000C005F5D5E06801280AD008B1052813D075
:1048A000286A20F001002862286A20F0040002E053
:1048B000286A40F001002862E06841F2883B98B124
:1048C000FFF7A2FD82460BE0286A40F00400286250
:1048D000EEE700BFFFF798FDA0EB0A0159455AD853
:1048E000286A8007F6D50CE0FFF78EFD824605E0CA
:1048F000FFF78AFDA0EB0A0159454CD8286A8007CA
:10490000F6D41FB1E86920F08050E861E06988B30F
:104910006968C1F38101022944D00228C6F8608089
:1049200004D0FFF771FD044638E034E0FFF76CFD7A
:10493000074604E0FFF768FDC01B02282BD8286853
:104940008001F7D4206AB0F5803F05D16868A1687E
:1049500020F4003008436860D4E90801084369681E
:1049600021F4741108436860C6F86090FFF74CFDAD
:10497000044606E025E000BFFFF746FD001B0228C5
:1049800009D828688001F7D51BE000BFFFF73CFD80
:10499000001B022802D90320BDE8F88F2868800197
:1049A000F4D40EE00128F7D06868226A00F4803160
:1049B000914204D1616A00F47010884201D0012054
:1049C000EAE70020E8E70000001002400000424251
:1049D000800442420C0000200070004010B5401ED0
:1049E000B0F1807F01D3012010BD4FF0E024606161
:1049F0000F21601702F062F90020A06107202061FA
:104A0000002010BD7047704710B590F83C20012A77
:104A100022D0012280F83C20CA688C6822F44072BF
:104A200022434C6822F4806222430C6822F4006224
:104A300022430C6922F4805222434C6922F4005232
:104A40002243C969002322F480420A4301684A6470
:104A500080F83C30002010BD022010BD70B590F8E9
:104A60003C20012A26D0012480F83C40022280F814
:104A70003D2003685A689D6822F070060A68324338
:104A80005A600D4B02689A4208D0B2F1804F05D0AF
:104A90000A4B9A4202D00A4B9A4204D1496825F047
:104AA00080031943916080F83D40002180F83C105C
:104AB000084670BD022070BD002C0140000400407B
:104AC0000008004010B50446022249B104290ED066
:104AD000082913D094F84500012816D0012010BDF4
:104AE00094F842000128F9D184F842200FE094F8AC
:104AF00043000128F2D184F8432008E094F84400F0
:104B00000128EBD184F8442001E084F845200422F8
:104B1000206801F02EFC2068416C41F400414164A2
:104B20000B492068884208D0B0F1804F05D0094970
:104B3000884202D00849884204D1816801F0070107
:104B4000062903D0016841F001010160002010BD79
:104B5000002C0140000400400008004090F83D1087
:104B6000012901D001207047022180F83D10016821
:104B7000CA6842F00102CA6000680B49884208D046
:104B8000B0F1804F05D00949884202D008498842D7
:104B900004D1816801F00701062903D0016841F0C2
:104BA0000101016000207047002C0140000400401A
:104BB000000800407047000070B5044600681649C0
:104BC000884227D1207F154E154D012805D1306828
:104BD000406BE8600320FBF71BFC207F022805D117
:104BE0003068806B68600120FBF712FC207F04288E
:104BF00005D13068C06BA8600220FBF709FC207F5C
:104C0000082807D13068006C2860BDE8704000209B
:104C1000FBF7FEBB70BD000000040040F400002064
:104C20005C0800202DE9F041054690F83C00002684
:104C30000C46012810D0012085F83C0072B1042AEE
:104C40001CD0082A2CD00C2A50D00126002085F830
:104C50003C003046BDE8F0810220FBE7D4E90012B9
:104C6000E368286801F0AAFC2868816921F00C013A
:104C7000816128688169A26811430FE0D4E90012BC
:104C8000E368286801F0C6FC2868816921F4406166
:104C9000816128688169A26841EA02218161D5E7C2
:104CA0002868D4E9002C277B036A016A21F480710B
:104CB0000162C16923F4007321F0030141EA0C0190
:104CC00021F0F00C39074FF400774CEA116107EA44
:104CD00002221A43C16102622868C16921F00C01F5
:104CE000C1612868C169A26811432BE02868D4E932
:104CF0000021E768036AD0F820C02CF4805CC0F87B
:104D000020C0D0F81CC023F400532CF4407C4CEAA3
:104D1000012121F4704C4FF6FF7101EA07314FF485
:104D2000005741EA0C0107EA02321A43C1610262EC
:104D30002868C16921F44061C1612868C169A2681D
:104D400041EA0221C16181E710B5040003D094F863
:104D50003D0010B107E0012010BD002084F83C00A8
:104D6000204600F01FF8022084F83D00211D206835
:104D700001F0B6FA012084F8460084F83E0084F879
:104D80003F0084F8400084F8410084F8420084F831
:104D9000430084F8440084F8450084F83D00002076
:104DA00010BD000010B586B0002400940194029458
:104DB00003940068194988422ED11948C16941F00D
:104DC0000201C161C16901F002010491816941F0F0
:104DD00004018161816901F004010491816941F05C
:104DE000080181618069694600F008000490C020D4
:104DF00000900C48FFF70EFA0320CDE90004694645
:104E000009480294FFF706FA002211461D20FFF719
:104E100067FB1D20FFF756FB06B010BD00040040E5
:104E20000010024000080140000C014030B504466B
:104E3000002551B104290DD0082910D094F8410063
:104E400094F84520012811D10EE094F83E0094F822
:104E50004220F7E794F83F0094F84320F2E794F8F3
:104E6000400094F84420EDE7012A01D0012030BD34
:104E7000022059B1042912D0082919D084F8410020
:104E800084F845000C2938D0012534E084F83E0030
:104E900084F842002068C26842F0020210E084F800
:104EA0003F0084F843002068C26842F0040207E033
:104EB00084F8400084F844002068C26842F0080288
:104EC000C2600122206801F047FA0E49206888423A
:104ED00008D0B0F1804F05D00B49884202D00B4971
:104EE000884204D1816801F00701062903D00168D6
:104EF00041F001010160284630BD2068C26842F0DF
:104F00001002DDE7002C01400004004000080040D2
:104F10002DE9F04104460068C66805694FF00007B6
:104F2000A90713D5B10711D5F91E0161012020771A
:104F3000206880698007204602D0FFF73DFE04E02C
:104F400000F0C6F8204600F0A1F92777680716D5CB
:104F5000700714D521686FF00400086102202077E3
:104F60002068806910F4407F204602D0FFF724FEBD
:104F700004E000F0ADF8204600F088F92777280714
:104F800015D5300713D521686FF00800086104209B
:104F900020772068C0698007204602D0FFF70CFE0A
:104FA00004E000F095F8204600F070F92777E80655
:104FB00016D5F00614D521686FF01000086108209E
:104FC00020772068C06910F4407F204602D0FFF7A8
:104FD000F3FD04E000F07CF8204600F057F9277755
:104FE000E80708D0F00706D021686FF001000861DB
:104FF000204600F0DDFA280608D5300606D52168DF
:105000006FF0800008612046FFF7FCFC680608D5B9
:10501000700606D521686FF040000861204600F058
:10502000C8FAA8060AD5B00608D521686FF0200096
:1050300008612046BDE8F041FFF7E5BCBDE8F0811E
:1050400010B586B0002100910191029103911B4C93
:1050500003681B4A02211B48A34209D1936943F00C
:1050600008039361926902F0080204924A030EE079
:10507000B3F1804F10D0144CA3421DD1936943F07B
:1050800008039361926902F008020492A215CDE927
:105090000021039169460DE0906940F004009061A1
:1050A0009069039100F0040004900F20CDE9000105
:1050B00069460648FFF7AEF806B010BD002C014067
:1050C00000100240000C01400008004000080140B0
:1050D000704770B5044690F83C0000260D46012844
:1050E0000FD0012084F83C006AB1042A1DD0082AA0
:1050F0002FD00C2A3FD00126002084F83C003046F7
:1051000070BD022070BD206801F0B6F92068816989
:1051100041F0080181612068816921F00401816109
:10512000206881692A69114311E0206801F0CCF9F7
:105130002068816941F4006181612068816921F4FE
:1051400080618161206881692A6941EA0221816167
:10515000D2E7206801F0E4F92068C16941F0080154
:10516000C1612068C16921F00401C1612068C16981
:105170002A69114311E0206801F0FEF92068C16935
:1051800041F40061C1612068C16921F48061C1619D
:105190002068C1692A6941EA0221C161ACE710B502
:1051A000040003D094F83D0010B107E0012010BDC9
:1051B000002084F83C00204600F01EF8022084F80D
:1051C0003D00211D206801F08BF8012084F8460085
:1051D00084F83E0084F83F0084F8400084F84100E1
:1051E00084F8420084F8430084F8440084F84500C1
:1051F00084F83D00002010BD38B5054600681E4A01
:105200001E49904220D1886940F400608861886915
:105210001C4C00F400600090194820601020606071
:1052200000208021C4E90201490021618900C4E90C
:1052300005108800E0612046FEF74EFE08B1FEF73B
:1052400073FCAC62656238BDB0F1804F0BD00E4A82
:105250009042F8D1C86940F00400C861C86900F004
:105260000400009038BDC86940F00100C861C869F9
:1052700000F00100F5E70000002C014000100240A2
:10528000300002408401002000080040074A016805
:10529000914209D1007F022806D105490020C8703B
:1052A000044803C800F022B970470000002C0140F8
:1052B00036000020380200207047000010B5044678
:1052C000022249B104290ED0082913D094F84100D4
:1052D000012816D0012010BD94F83E000128F9D114
:1052E00084F83E200FE094F83F000128F2D184F8C2
:1052F0003F2008E094F840000128EBD184F84020DA
:1053000001E084F841200122206801F025F80F49CE
:105310002068884203D1426C42F400424264206813
:10532000884208D0B0F1804F05D00949884202D0A8
:105330000849884204D1816801F00701062903D099
:10534000016841F001010160002010BD002C014006
:1053500000040040000800402DE9F04117460D0010
:1053600004464FF000060CD0042D11D0082D16D0A5
:1053700094F84100022819D094F84100012818D06F
:105380007CE094F83E00022810D094F83E00F5E747
:1053900094F83F00022809D094F83F00EEE794F813
:1053A0004000022802D094F84000E7E70220BDE860
:1053B000F081002F62D0002B60D04649464ADFF8CA
:1053C0001CC102204DB1042D18D0082D27D084F81F
:1053D00041000C2D44D0012679E084F83E00606A3B
:1053E0008162606A3946C262606AC0F830C0226871
:1053F000606A3432FEF79EFD88BB21E084F83F00EE
:10540000A06A8162A06A3946C262A06AC0F830C050
:105410002268A06A3832FEF78DFD00BB15E084F8E3
:105420004000E06A8162E06A3946C262E06AC0F820
:1054300030C02268E06A3C32FEF77CFD78B909E0B2
:105440002068C16841F400711EE02068C16841F421
:10545000806119E02068C16841F4006114E00DE04A
:10546000206B8162206B3946C262206BC0F830C06D
:105470002268206B4032FEF75DFD08B1012096E7FF
:105480002068C16841F48051C1600122294620682A
:1054900000F062FF12492068884203D1426C42F456
:1054A000004242642068884208D0B0F1804F05D0A5
:1054B0000C49884202D00C49884204D1816801F02D
:1054C0000701062903D0016841F00101016030465F
:1054D0006DE700008D630008EB630008236400089B
:1054E000002C0140000400400008004070B50D0091
:1054F00004464FF0000607D0042D0CD0082D11D023
:105500000C2D16D0012645E02068C16821F40071F9
:10551000C160606A13E02068C16821F48061C160E5
:10552000A06A0CE02068C16821F40061C160E06AF3
:1055300005E02068C16821F48051C160206BFEF74E
:10554000D5FB00222946206800F006FF174B41F2E8
:10555000111120688A10984209D1036A0B4206D1C2
:10556000036A134203D1436C23F40043436420686D
:10557000036A0B4206D1016A114203D1016821F08E
:105580000101016001203DB1042D08D0082D09D092
:1055900084F84100304670BD84F83E00FAE784F894
:1055A0003F00F7E784F84000F4E70000002C0140DA
:1055B00070477047FEE700002DE9F0470025DFF84F
:1055C00068801A4F81462E4605EB450108EB011411
:1055D000607830B357F82510484601F0A1FB47F832
:1055E0002500B0F17C5F16DBA08840B1A07B401C99
:1055F00040B2A073032803DD0120A07300E0A6736E
:10560000E06920B114F82C0FC043207001E084F849
:105610002C6047F825606D1CEDB2042DD4D3BDE895
:10562000F087A673F3E7000064090020200800203B
:105630002DE9F14F4FF4004841468748FEF7DAFE66
:10564000DFF818B20025DFF81892DFF818A2864CB0
:105650004FF08047012608B9E07818B1207801287A
:1056600006D05EE0A168009801F05AFBA0602670A9
:1056700041467948FEF7BEFE012846D1A1687B4825
:10568000594481423ED2A07910B1C9F8007039E086
:10569000DFF8DCE1774B00209EF8021001EB4102BD
:1056A0000AEB021200EB40080AEB0811B2F804C042
:1056B00003EB4008A1F808C0A8F802C0A1F804C094
:1056C000D2F818C003EB8008C1F820C0C8F80CC09D
:1056D000C1F818C0C1F81CC092F801C0BCF1000F9D
:1056E00000D04E70401CC0B20428DBD362488EF854
:1056F00003608EF8015005606048614906705748A4
:10570000404208602570E570A560A1686FF07F5089
:1057100001445C48814204D2E07810B9C9F80070B5
:10572000E670DFF864814FF480714046FEF762FE58
:1057300008B9207918B16078012806D029E0E1681D
:10574000009801F0EDFAE06066704FF48071404619
:10575000FEF750FE012810D1E168444859448142C7
:1057600008D2A07908B1A57100E0A6713B48444970
:105770004042086065702571E560E1686FF07F5018
:1057800001444048814204D2207910B9C9F8007020
:1057900026714FF400714046FEF72CFE08B960797F
:1057A00050B1A078012855D14FF400714046FEF762
:1057B00021FE012807D040E02169009801F0B0FAED
:1057C0002061A670F0E7216928485944814231D20E
:1057D000A07910B1C9F800702CE09AF80110504679
:1057E000012917D090F83110012913D090F86110D9
:1057F00001290FD090F8911001290BD05FF0000122
:1058000001EB410200EB0212491CC9B25670042997
:10581000F6D30BE00021022301EB410200EB021260
:10582000491C1375C9B216700429F5D30B481449E5
:1058300040420860A5706571256121696FF07F5055
:1058400001441048814205D26079002802D1C9F88C
:1058500000706671BDE8F88F000C0140333333C22D
:105860001800002064090020200000203333F301D9
:105870005809002030080020440000204800002083
:1058800014000020FFFF7F00000801403C23FF229E
:10589000002101F02BB83C230022114601F026B86C
:1058A00070B55A4D012251022846FEF7A8FD082185
:1058B0005748FFF703FD012210212846FEF79FFD00
:1058C000012208212846FEF79AFD524C0122D103FD
:1058D0002046FEF794FD0420FAF7AAFF00221021CB
:1058E0002846FEF78CFD0420FAF7A2FF00210846A7
:1058F00001F040F90121002001F080F8032100208F
:1059000001F07CF80421002001F078F80521002046
:1059100001F074F80821002001F070F8182100202F
:1059200001F06CF82921002001F068F880210020A6
:1059300001F064F84021002001F060F8E32100202C
:1059400001F05CF8012210212846FEF758FD0122E3
:10595000150329462046FEF752FD0122D1022046BA
:10596000FEF74DFD012291022046FEF748FD04207E
:10597000FAF75EFF002229462046FEF740FD04208C
:10598000FAF756FF0021012001F0F4F80121084642
:1059900001F034F80321012001F030F80421012046
:1059A00001F02CF80521012001F028F80821012040
:1059B00001F024F81821012001F020F8292101200C
:1059C00001F01CF88021012001F018F8402101208D
:1059D00001F014F8E321012001F010F8012229461A
:1059E0002046FEF70CFD0020FFF750FF0120FFF7D7
:1059F0004DFF4FF4FA70FAF70FFF0020FFF74BFF4F
:105A0000BDE870400120FFF746BF0000000C0140D8
:105A10003C010020000801400B480188491C01801E
:105A20004188491C41808188491C8180C188491C6A
:105A3000C1800189491C01814189491C41818189B9
:105A4000491C818100F0A2BB52000020094808B522
:105A5000416941F0010141614069002200F001000B
:105A6000009011460D20FEF73BFDBDE808400D20DB
:105A7000FEF728BD001002402DE9F04F85B000244C
:105A800052480094019402940394816941F01001FA
:105A90008161816901F010010491816941F0200167
:105AA0008161816901F020010491816941F0040163
:105AB0008161816901F004010491816941F008016B
:105AC00081618069DFF8089100F008004FF400550B
:105AD0000490002229464846FEF791FCDFF8F4A026
