:100000000201B002000A43AA20223202000E32325C
:1000100032323202000F32323232320200103232C9
:0E00200032323202001132323232320200121B
:03003300020016B2
:03003B00020017A9
:03004300020018A0
:10004B0002001912017A7F0512006612000653BADC
:07005B00DF43BA20D2AF22FF
:1000630002001A538E1FEFC43354E0428E22E597E9
:0B0073007F0030E3027F012202001E2C
:0300830002001F59
:03008B0002002050
:0300930002002147
:03009B000200223E
:0300A3000200DE7A
:0300AB000200262A
:0300B30002002721
:0300CB0002002808
:0300D300020029FF
:1000DB0002002AC0E0C0F0C083C082C0D075D0003F
:1000EB00C000C001C002C003C004C005C006C007E9
:1000FB00120071EF6005B290120195D007D006D0B7
:10010B0005D004D003D002D001D000D0D0D082D003
:10011B0083D0F0D0E03290F010E4F043A101C29014
:10012B0090F005F0439A20C28512004E12015F7FBA
:10013B00FAEFD39400748094804014B2857EFAEE6B
:10014B00D394007480948040031E80F31F80E212CE
:10015B00017A80DB30AF0EC2AF7596AA7596554308
:10016B009702D2AF227596AA759655439702223005
:10017B00AF0EC2AF7596AA759655439701D2AF22B3
:10018B007596AA7596554397012230AF0EC2AF757F
:10019B0096AA7596555397F7D2AF227596AA759670
:1001AB00555397F72278FFE4F6D8FD9000007F00B7
:0F01BB007E04E4F0A3DFFCDEFA75810702012168
:00000001FF
