:020000040800F2
:100000007008002059010008B53200087329000863
:1000100000000000000000000000000000000000E0
:100020000000000000000000000000008F33000806
:1000300000000000000000008D330008BD33000800
:100040006B010008000000006B0100086B01000854
:100050006B0100086B0100086B0100086B010008D0
:10006000000000006B0100086B0100086B01000834
:100070006B01000805350008153500080000000078
:10008000E53500086B010008000000006B01000866
:100090006B0100086B0100086B0100086B01000890
:1000A0006B0100086B0100086B0100086B01000880
:1000B0006B01000800F002F800F03EF80CA030C818
:1000C000083824182D18A246671EAB4654465D46D4
:1000D000AC4201D100F030F87E460F3E0FCCB64660
:1000E0000126334200D0FB1AA246AB4633431847E1
:1000F000843E0000A43E0000103A02D378C878C1C4
:10010000FAD8520701D330C830C101D504680C6059
:10011000704700000023002400250026103A01D378
:1001200078C1FBD8520700D330C100D50B607047AF
:100130001FB51FBD10B510BD00F0D6FD1146FFF76D
:10014000F7FF03F05DFD00F0EEFD03B4FFF7F2FFF3
:1001500003BC00F023FE0000074880470748004723
:10016000FEE7FEE7FEE7FEE7FEE7FEE70448054997
:10017000054A064B70470000CF340008B500000860
:10018000700200207008002070040020700400201D
:1001900010B5202A04DB0846203AD040002110BDCB
:1001A0000B462024D340D040A21A91400843194660
:1001B00010BDFEB5054610460C46184373D0AE463A
:1001C0008C460020AD1A01469C4167D36646002745
:1001D00001243D46B61A9D4102D313463A462124D6
:1001E000654676462F04360C3E432D0CB61A9D41CB
:1001F00004D3150C1B042B431204103465467646B9
:100200002F06360A3E432D0AB61A9D4104D3150E19
:100210001B022B4312020834654676462F07360927
:100220003E432D09B61A9D4104D3150F1B012B43E4
:100230001201241D65467646AF07B6083E43AD0859
:10024000B61A9D4104D3950F9B002B439200A41C2A
:1002500065467646EF0776083E436D08B61A9D411F
:100260001AD392185B41641C16E000187646654666
:100270004941B71A9D410191009009D36046B11AD6
:1002800098418E468446009801990025401C69419A
:10029000DD0752082A435B08641EE6D572466346B2
:1002A00003B0F0BDFFE700200146C046C0462A4625
:1002B0002346F5E701E004C0091F0429FBD28B07A0
:1002C00001D50280801CC90700D002707047002948
:1002D0000BD0C30702D00270401C491E022904D370
:1002E000830702D50280801C891EE3E70022EEE727
:1002F0000022DFE7002203098B422CD3030A8B4242
:1003000011D300239C464EE003460B433CD400220D
:1003100043088B4231D303098B421CD3030A8B421F
:1003200001D394463FE0C3098B4201D3CB01C01AED
:10033000524183098B4201D38B01C01A52414309B8
:100340008B4201D34B01C01A524103098B4201D3A6
:100350000B01C01A5241C3088B4201D3CB00C01A13
:10036000524183088B4201D38B00C01A524143088B
:100370008B4201D34B00C01A5241411A00D20146B0
:100380005241104670475DE0CA0F00D04942031049
:1003900000D34042534000229C4603098B422DD398
:1003A000030A8B4212D3FC22890112BA030A8B4240
:1003B0000CD3890192118B4208D3890192118B428F
:1003C00004D389013AD0921100E08909C3098B4214
:1003D00001D3CB01C01A524183098B4201D38B0157
:1003E000C01A524143098B4201D34B01C01A5241FA
:1003F00003098B4201D30B01C01A5241C3088B423F
:1004000001D3CB00C01A524183088B4201D38B0029
:10041000C01A5241D9D243088B4201D34B00C01AB3
:100420005241411A00D20146634652415B101046C8
:1004300001D34042002B00D54942704763465B1010
:1004400000D3404201B50020C046C04602BD7047FF
:10045000704770470246C80FC00781434B0030B554
:100460004B405B009B0D20D01923DB06C9180123EC
:100470001B05994220DB0324A40704251346AB4047
:100480000BD3002B04D1EB0613409B00E34204D4B2
:1004900001246407002312195941FF231B059942C7
:1004A0000BD2C9000143500F09E0CB0204D5014330
:1004B0000803024305D0054830BDFF21C9050843A4
:1004C00030BD084607210905884330BD0000C07FC4
:1004D000F0B5F94D0C091E092C402E402F468BB06B
:1004E000A7437DD0B543FCD0002E7AD0002CFCD0A1
:1004F0000D465D40ED0F2543AC1BFF25AD0464198F
:100500000894C502440DC9022143500DDC02044386
:100510000120C00701430443D2020191200C110CB9
:1005200000958C46010423468B430A9161460904D9
:10053000E24D8A430991010A7D44491980390978BD
:1005400005464D4301266D18F605751B6943C90C18
:10055000640B891C4C436418B5012C1B250C2E041C
:10056000B4434C434D43210C691889090591009D02
:10057000E90701D00121C90704912C4601996708B8
:10058000CD072F434C08059DE10B4D432D0C29460B
:100590006646754302950D4645432E46029D7D1BDA
:1005A000B44100950D465D4301942C0C2F040D467B
:1005B0005543AE462D0C3D43029503947546049C6D
:1005C0002D04641B049406D2029C039D641C002627
:1005D00075410395029401AC70CC009F7D1B01E036
:1005E0003EE162E1B4410904009507910194059947
:1005F000A4086143090C0C464443650BE7040C4610
:1006000066467443A646640B3C43039502947446C5
:10061000049DE4042C1B049406D2029C039D641CDC
:10062000002675410395029401AC70CC009F7D1BA0
:10063000B44101940C465C430095650FE7000C46FD
:100640005443A646640F3C43039502947446049DAC
:10065000E4002C1B049406D2029C039D641C00261B
:1006600075410395029401AC70CC009F7D1BB44191
:10067000AE09AF06049DC900AD092F43049DA40631
:10068000AD060495079D344369180791059DE10B5C
:100690004D432D0C29466646754302950D4645434C
:1006A0002E46029D7D1BB44100950D465D4301948D
:1006B0002C0C2F040D465543AE462D0C3D430295A0
:1006C00003947546049C2D04641B049406D2029C7A
:1006D000039D641C002675410395029401AC70CC07
:1006E000009F7D1BB44101948C050694079C890AE8
:1006F000611800950791019C0599A4086143090CB4
:100700000D464543680BEF040D46644665436C0B8C
:100710003C43049FED047D1BAC4602D20025641CC3
:100720006841009E019D371B85410846584301954D
:100730000C46460FC5005443600F28436546E4004D
:100740002C1B02D20025401C6E41019D3F1AB54171
:100750002846BD09800628438446A009BF064E02EC
:100760000699A40676180743079D002068410A9958
:10077000079019430020099B00906046FF1913431E
:100780004041E20F64003A43A4460446D71A8C4124
:10079000A04203D90120009020463A46C70F941882
:1007A00040416246D20F2243644664000494009C98
:1007B000BE466400D71AA446044602978C41774689
:1007C000002F01D1A04204D96046401C8446029A01
:1007D0002046C40FA64694184041049A0546D20FFD
:1007E000224364466400D31A8D417146002901D129
:1007F000A84202D928461A46641C10430122002848
:1008000000D0164361020020079B891904465C4111
:100810000223002C02DB491813466441089DCE0ACE
:100820002D145D194B056705E10A2C050D19089972
:100830003E43C9076940002B08D0934006D30022ED
:10084000761C5141002B01D1760876001C4A002D00
:1008500043DB154241D0AA433FD030460BB0F0BD38
:1008600006180D464D41174C7642AC411AD39518E7
:100870001C465C41134A6D42A24113D3012252052A
:100880004C00D4420AD15C00D4420BD04B4002D57C
:1008900092021143E2E749004908DFE75940C90FD6
:1008A000C90718E000200849D8E7054801420DD1E2
:1008B0000342F7D0F2E700000000FF07783900009C
:1008C0000000F07F0000E0FF0000F87F1148594071
:1008D0000143C01241400020C0E70123089A9B0653
:1008E0009A4205DC032252078918C90FC907B5E7E8
:1008F000052252078918074A1143D2125140ADE729
:1009000070B515461C4602460B4628462146FFF7A1
:10091000DFFD70BDFFFFFF7F1F22030C02D10F22FE
:10092000000402D0030E03D004E00020014670470B
:100930000002083A030F01D10001121F830F01D1F9
:100940008000921E002801DB4000521E1205511843
:100950004205C012411810467047C10FC90700D0A8
:100960004042012292071143D6E701218907D3E7CC
:100970000121C9050123411842001B06D3185B0E53
:100980000AD0C1100722D206891840075242D1422C
:1009900001D5520089187047090208D50146002A7E
:1009A00003D0C10FC90700207047104670474202AC
:1009B00002D0002002497047072109050143F4E7EE
:1009C0000000F87FF0B5FF252D04C609C209FF27F6
:1009D00004462E400137CB093E4348402A402B4075
:1009E0000746002A6BD0002B69D0AA4267D0AB42E1
:1009F00065D0002800DA32460125ED0529432C4355
:100A000009022002090AD21A4B0C7F24E31A434C34
:100A1000000A7C44E35C7D242404121914145B0056
:100A2000A218884201D3521C00E0400049420C4603
:100A30005C4324115C43DB016415E318040A5C4346
:100A4000C502200D0C4644436419250A5D43230367
:100A5000EC0C0D46654300030019EB184C42A34211
:100A600001D35B18401CD4052018002B07D05B0075
:100A7000C91804D3401C002901D1400840003F217F
:100A800089048A4209D3002A08DC1106090F04D020
:100A9000032149074018C00FC007F0BD01224100E3
:100AA000120689187F2252069142F6D20521490783
:100AB000C84201D59010F0BDFF20C005F0BD002F49
:100AC00000DA32461648AA4207D2AB4205D21902D2
:100AD000090E17D0F80FC007F0BDFF2563002D06E3
:100AE000AB42F9D84900A942F6D8AB4201D1A9429C
:100AF000F2D0A94201D1002101E061004908D005EE
:100B00000843F0BD1102090EFBD0FF200243D005BF
:100B1000F0BD0A460146104654E700001E350000AD
:100B20000000C07F10B501469E240002CA15A3072D
:100B3000002A02D01843002A04DBA21A002A0CDD86
:100B4000D04010BD1206120E01D140004008A21A7A
:100B500003D4D04040420028F3DDFF2248001206B3
:100B6000904201D9002010BDC817C043584010BDA5
:100B70000102C21504D00123DB071943002A0ADB56
:100B80009E239A1A02D40846D0407047FF224100A3
:100B90001206914201D900207047C017C043704728
:100BA0001F22030C02D10F2200041CD0030E01D11E
:100BB0000002083A030F01D10001121F830F01D177
:100BC0008000921E002801DB4000521ED205511801
:100BD000021251181922904004D3491C002801D157
:100BE0004908490008467047C10FC90700D0404274
:100BF000012292071143D3E701218907D0E70000C2
:100C000010B5FF22C30D134009D05A4007D09142BE
:100C100005DA5C42A14202DDC905081810BDC40F07
:100C2000E407002B06D0002A06D0002902DBFF20B3
:100C3000C0050443204610BD4102FCD0004810BD51
:100C40000000C07F10B5FF231B0644009C421DD846
:100C50004C009C421AD80346124A0B4307D4401A50
:100C600002D3EFF3008010BDEFF3008010BD081A2F
:100C700006D2EFF3008001219043C907084302E048
:100C8000EFF30080904380F3008810BD0D231B0418
:100C90001A4204D01146002000F006F810BD00F002
:100CA0001BF810BD00000090C80212D54803400F89
:100CB000002804D0C803C043012188407047EFF3E7
:100CC00000800001000903210907084380F3008820
:100CD000704700207047000010B5024800F02BF864
:100CE00010BD00000000C07F754600F053F8AE460E
:100CF000050069465346C008C000854618B020B5B7
:100D0000FFF734FA60BC00274908B6460026C0C584
:100D1000C0C5C0C5C0C5C0C5C0C5C0C5C0C5403DB3
:100D200049008D46704710B50446C046C04620466F
:100D3000FFF70BFA10BD10B50C461107090F092972
:100D400004D00A290AD008290CD104E01146082051
:100D5000FFF7AAFF06E0510606D501E0510601D5CE
:100D60000120C007214610BDD10607D501010909A0
:100D7000CC084907000E0006044309E0410F200299
:100D80004907000A0143200E00061D22D1410143FC
:100D90000846E7E7004870470C0200200149182088
:100DA000ABBEFEE7260002007047FFB585B00846DF
:100DB0001E460F9F0E9C079903F00CF8E060009010
:100DC00032680146104602F075FF206005983D46E6
:100DD0004000010E0120C007454000291BD07F20A4
:100DE000C0050599FFF7EEFD0290216A079802F011
:100DF000F1FF029902F05EFF01460122B068D207BE
:100E0000504002F057FFA0612846009902F0AAFF67
:100E100003D2284609E00020E6E73946E06802F000
:100E2000A1FF01D2384600E0E068716802F042FF9D
:100E3000059902F03FFF616802F0F6FEFF21C90547
:100E40006060C84201D3002106E0109902F08AFFD9
:100E500001D2109900E061686160206802F0E4FE50
:100E6000A16902F0E1FE60620798206209B0F0BD5E
:100E7000F1B51F4C0121C90560680E131D4F884252
:100E800004DAA2688A4201DA002219E04000000E6A
:100E900009D001223146384600F053FD61680098C0
:100EA00002F08CFF6060A5686800000E0CD021681D
:100EB000009802F0B9FE10492060884205DA01224C
:100EC0003146384600F03DFDF8BD0B490B4A49421A
:100ED00041189142D8D30A498842F5DB7F21C905E0
:100EE000284602F077FFA06000202060F8BD0000D7
:100EF0001000002000040048CDCC4C3ECDCC4C006E
:100F00009A99993EF8B50F4F7978002919D00E4E6D
:100F10007468002C15D00D4D296802F085FE7F21E4
:100F2000C905286088420CDB641E746007D108493B
:100F30000220C87301203871074906480860002064
:100F40002860F8BD9C0000200002002098000020CE
:100F5000F00100200000A0401800002070B50E4EE7
:100F60000E4C71790025002914D0216902F05CFE35
:100F70003F2109062061884203DBA078C043A070AE
:100F8000256109204021C00600F0D6FC012800D1CF
:100F9000757170BDA57070BD9C0000203C000020E4
:100FA00070B50F4D002629790E4C002915D00E4A38
:100FB0000221515EFF22553291420EDC216802F07F
:100FC00033FE012189072060884207DD074901209F
:100FD0000870074908706E702E71266070BD0000A1
:100FE0009C00002094000020F00100203800002028
:100FF0008400002070B5074C05462078002807D0F3
:10100000FFF7FAFD294602F0E5FEFFF7B1FD20707B
:1010100070BD00001C00002030B515480124007888
:10102000144A002801D0147002E0107801281BD166
:101030001148C078002817D1104806250021455FC7
:10104000415E0F4B8D4204D0C180807B00280CD0C4
:10105000D9600C4822C808388D4201D041605960DF
:10106000094804700020107030BD9960F1E700005D
:101070001C000020840000209C000020F0010020C3
:10108000AC010020000200207C000020F8B51B4FBE
:101090001B4CFE780025002E0BD0616900914900A1
:1010A000090E03D017490978002906D0657025700C
:1010B00021E0657025706561F8BDA16802F0B4FD9E
:1010C0003F210906A0608842F6DB009802F082FE0C
:1010D0006061012E02D0022E05D008E06178C9437C
:1010E0006170257003E02178C9432170657040006C
:1010F000000E00D1FD70A560F8BD00009C0000202E
:101100003C0000201C00002005488188491C09B2D1
:1011100081800A2902DB0021418081807047000024
:10112000F001002070B50F4C092620780025F60646
:1011300001280DD000222021304600F002FC402181
:10114000304600F0F9FB012809D00120607070BD25
:1011500001222021304600F0F4FB2570EFE7657096
:1011600070BD000038000020F8B53248324C40789D
:10117000012802D020882081F8BD2F4AA17B0220BF
:101180002E4F105E00290FD0FFF72EFD2C49FFF7E0
:1011900019FC05462B4902F08DFD294602F08AFD17
:1011A000294902F087FD01E0FFF71EFDB8610F201D
:1011B000205600280ED01F4906250E791E49082406
:1011C0004D5F0C5F01280CD002281DD00328D3D11D
:1011D0000D81F8BD002020816081A0810120E07395
:1011E000F8BDB869FFF79EFC01B21348A1424181E6
:1011F00002DD8C4201DA641C0481002EF0D108214A
:10120000415EA94212DAF8BDB869FFF78BFC01B262
:101210000948A142418102DA8C4201DD641E048149
:10122000002EF0D10821415EA942ECDC0321C173FC
:10123000F8BD00009C000020F00100203C000020D0
:1012400000007A4448E132419A991941F3B50025EA
:101250008DB00746039507957C480495029508953F
:1012600040782E462C46002834D1794EB74207DD0F
:10127000711C3846FFF748F8744980B21C310D5C88
:10128000632F0EDD64213846FFF73EF880B2B74287
:1012900003DD0A21FFF72EF808466C491C31085C73
:1012A0000390092F0EDD0A213846FFF72DF880B292
:1012B000632F03DD0A21FFF71DF8084663491C313F
:1012C000085C07900A213846FFF71EF888B25F498C
:1012D0001C310E5CE12109010E98FFF715F8084654
:1012E0000F464B21C900FFF70FF8C0B20A903846ED
:1012F0003C21FFF709F80A21FFF706F8C8B20B9066
:101300003C210E98FFF700F80F4638460A21FEF7F9
:10131000FBFFC0B2009038460A21FEF7F5FFC8B2C5
:1013200001904A48007800281BD14A4800680028EC
:1013300012DD464F0A981C373C5C0B980A21385C3A
:1013400004900098FEF7D6FF785C02900A2101987D
:10135000FEF7D0FF785C03E0082404942046029452
:1013600008903A4A80201179002947D07606760EF7
:101370006406640ED178002904994BD04906490EC1
:10138000049102994906490E4906490E014302910A
:1013900031490978002946D0917800294DD0039829
:1013A0006D066D0E47067F0E01222946002002F0D1
:1013B000F3FA01223946022002F0EEFA012204205B
:1013C000079902F0E9FA01223146062002F0E4FA18
:1013D00001222146082002F0DFFA01220A200499A6
:1013E00002F0DAFA01220C20029902F0D5FA012269
:1013F0000E20089902F0D0FA0FB0F0BD1749897B92
:10140000002903D06406640E0443B3E77606760E23
:101410000643AFE74906490E014304910299490684
:10142000490E0143B0E703994F0607997F0E49061D
:101430000743490E01430791B6E76D0603996D0E08
:101440004F0605437F0E0743AEE700003C00002037
:10145000E70300000002002039000020F001002016
:1014600010B50021014800F0C5FF10BDA400002008
:1014700072B6FEE706490020C861064801690422E9
:10148000114301610169402211430161704700006D
:101490008001002000200240064A0021D161064957
:1014A0000A6902231A430A6148610869402210430D
:1014B00008617047800100200020024010B5054BF4
:1014C0000022DA61044A1369012423431361018075
:1014D00010BD0000800100200020024010B50B4A22
:1014E0000020D168CB060A4904D5C86902231843F5
:1014F000C8611020D3685B0705D5CB69012423435D
:10150000CB6104210843D06010BD000000200240E0
:101510008001002070B5054600F01AFA0646104C0E
:101520000AE0681C08D0002D04D000F011FA801BDE
:10153000A84201D9032070BDE068C007F1D1E0687E
:10154000800601D52020E060E068C00602D4E06893
:10155000400703D5FFF7C2FF012070BD002070BD1A
:101560000020024078B500220E4B4C1E15E0551CA1
:10157000A5420ADCD5182E886D462E802D7885541C
:101580006D466D788618757005E0D5182E886D4605
:101590002E802D788554921C92B28A42E7D3012086
:1015A00078BD000000700008F3B585B00D4600F06E
:1015B000DDF800200121174F019003910090029760
:1015C000694601A800F03AF8002818D100246E1EE0
:1015D0001AE0601CB042059805DC00194078010251
:1015E0000598005D02E0015DFF200002081882B24C
:1015F0000023E119012000F07BF8002802D0002030
:1016000007B0F0BDA41CA4B2AC42E2D300F066F86F
:101610000120F5E70070000870B5044600F098F965
:101620000546601C02D004480078241800F090F9A8
:10163000401BA042FAD370BD00000020F8B505465B
:1016400023480F46017E012601290BD00121017696
:101650002868204C012807D02046FFF75BFF0028B0
:1016600013D030E00220F8BD2046FFF753FF0028DA
:1016700029D1FFF7FFFE2046FFF74CFF064616482C
:1016800001690422914301611DE00020C0433860DC
:101690006C6812E02046FFF7FFFE0E48FFF73AFFA6
:1016A00006460D48026902218A430261002E01D0DC
:1016B0003C6008E0012080022418A8688102686864
:1016C0000818A042E6D80248002101763046F8BD4D
:1016D0008001002050C3000000200240034801693F
:1016E0008022114301610020704700000020024069
:1016F000F0B51FB407461A480024017E15461E4661
:10170000012907D0012101761648FFF703FF0028C1
:1017100003D020E0022005B0F0BD012F02D0022F3F
:1017200000D00427220128463146FEF731FD81B260
:10173000019862001018FFF7C1FE0A48FFF7EAFEA1
:1017400009490A69520852000A61002803D1641C41
:10175000E4B2BC42E6D3024900220A76DBE700008D
:101760008001002050C300000020024006490020F4
:101770000A69120607D5054A4A60054A4A6009699E
:10178000090600D50120704700200240230167456B
:10179000AB89EFCDF8B5002303240125BAE02E462E
:1017A0009E40B44632407CD00E79B607B60F012E6B
:1017B00001D0022E17D186682746B6465E00B74094
:1017C00000967646BE43B646CF68009EB740764642
:1017D0003743876046686746BE430F79FF06FF0FB1
:1017E0009F40374347600E79F643B6070ED0C66870
:1017F0002746B4465E00B646B7406646BE43B4468A
:101800008F687646B74066463743C7600E79B6079D
:10181000B60F022E14D1DE08B60036180096366ACE
:101820005F07B446FE0E0F27B646B7406646BE4376
:10183000B4460F697646B74066463743009E376226
:1018400006682746B4465E00B646B7406646BE43C5
:101850000F79B446BF07BF0F7646B7406646374399
:1018600007604E68B603B60F53D02D4FBE692E43A6
:10187000BE61BE699F08F607F60F2A4EBF00BE196B
:101880000096B6680F27B4469E07360FB646B74097
:101890006646BE430927FF06B446B84202D1002778
:1018A00010E036E0204FB84201D101270AE01F4F77
:1018B000B84201D1022705E01D4FB84201D10327EC
:1018C00000E005277646B74066463743009EB7607E
:1018D000184E36684F689643FF0300D51643154FE0
:1018E0003E607E684F689643BF0300D51643114F94
:1018F0007E60BE684F689643FF0200D516430D4FC9
:10190000BE60FE684F689643BF0200D51643094A81
:10191000D6605B1C0A681646DE4000D03FE7F8BD83
:101920000010024000000140000400480008004888
:10193000000C0048000401400069084000D001206C
:101940007047002A01D081617047816270470000B2
:10195000014880687047000000000020024881684C
:1019600002788918816070470000002010B5064891
:101970000168102211430160032000F007F800F015
:1019800027F8002010BD00000020024070B504467A
:101990000D4D7D202978C000FEF7ACFC01460B48B8
:1019A0000068FEF7A7FC00F0BFFA002809D1042C5C
:1019B00007D200222146401E00F02AF800206C6069
:1019C00070BD012070BD0000000000200C00002050
:1019D00008B508488169012211438161816911407C
:1019E0000091C26901040A43C261C06908400090C5
:1019F00008BD000000100240002805DBC106C90E2A
:101A000001208840014908607047000000E100E0C3
:101A100010B502F0CDF810BDF8B50F46060059D04C
:101A20003A4D2868C007C00FB84209D2286840085C
:101A30004000384328602868C007C00FB84249D129
:101A40003068334C81070CD5400704D56068072106
:101A50000902084360606068F0218843B168084368
:101A600060603078C00726D0706801280ED02168E9
:101A700002280ED0890700292CDA616889088900BC
:101A800001436160FFF764FF00900DE02168890366
:101A9000F1E78901EFE7FFF75BFF0099411A1D4865
:101AA000814201D90320F8BD60680C2108407168AB
:101AB00089008842EFD12868C007C00FB8420BD90F
:101AC000286840084000384328602868C007C00FD5
:101AD000B84201D00120F8BD3078400706D56068D3
:101AE000072109028843F1680843606000F018F894
:101AF0006168094A0906090F515CC8400749086036
:101B00000320FFF743FF0020F8BD00000020024043
:101B10000010024088130000A43E00080C000020C2
:101B200010B514A30FCB88B06C460FC415A30FCB10
:101B30000FC4184A51680C200B4603401648042B6A
:101B400016D0082B14D18B021B0F6C46E45CD26AB2
:101B500004AB1207120F9A5CC90305D5002319467E
:101B6000FEF727FB214601E020460C4902F008F869
:101B700008B010BD02030405060708090A0B0C0D86
:101B80000E0F10100102030405060708090A0B0CCA
:101B90000D0E0F100010024000127A0000093D00E7
:101BA000FEB5040070D02078DC4DC0074AD06868CC
:101BB0000007800F012807D068680007800F0228FF
:101BC00009D16868C00306D5286880033AD56068E3
:101BD0000028E7D036E06168012914D00120800494
:101BE000002901D0052914D02A68012109048A435B
:101BF0002A602968814329606068002816D0FFF7B1
:101C0000A7FE06460EE02868012109040843286063
:101C1000F2E7296801432960F5E7FFF799FE801B89
:101C200064286ED828688003F7D50BE0FFF790FE94
:101C3000064604E0FFF78CFE801B6428F1D8286874
:101C40008003F7D420780126800700283CDA6868F2
:101C50000007800F07D068680007800F022809D1AD
:101C60006868C00306D42868800716D5E068012894
:101C70000AD112E0E0680028286816D030432860B6
:101C8000FFF766FE074605E043E1FFF761FEC01B74
:101C90000228C6D828688007F7D52868F821884325
:101CA0002169C900084328600EE040084000286010
:101CB000FFF74EFE074604E0FFF74AFEC01B02286E
:101CC000AFD828688007F7D42078000722D5E069CC
:101CD0000028686A0ED030436862FFF739FE074675
:101CE00004E0FFF735FEC01B02289AD8686A800717
:101CF000F7D50FE0400840006862FFF729FE07466D
:101D000005E09DE0FFF724FEC01B022889D8686A21
:101D10008007F7D4207804274007002860DA0020E5
:101D20000190E869C00008D4E969B8060143E96197
:101D3000E969014001200091019079480168C905D5
:101D400011D40168821511430160FFF701FE009074
:101D500005E0FFF7FDFD0099401A642870D870482F
:101D60000068C005F5D5A06801280AD0002801D078
:101D7000052810D0286A400840002862286AB84325
:101D800001E0286A30432862A068002812D0FFF7DB
:101D9000DFFD00900AE0286A38432862F1E7FFF788
:101DA000D7FD0099411A5F48814249D8286A8007C7
:101DB000F5D50DE0FFF7CCFD009006E0FFF7C8FD7C
:101DC0000099411A574881423AD8286A8007F5D4C9
:101DD0000198002804D0E969012000078143E961E6
:101DE0002078C00635D5606901280CD0401D686B8D
:101DF00023D038436863686B400840006863FFF78E
:101E0000A7FD064622E0686B38436863686B304381
:101E10006863FFF79DFD064604E0FFF799FD801B10
:101E200002285BD8686B8007F7D5686BF821884378
:101E3000A169C900084368630BE0B8436863F4E72D
:101E40004CE0FFF785FD801B022847D8686B8007B0
:101E5000F7D4206A00285ED069680907890F022933
:101E600042D0012636060228286805D0B0432860F3
:101E7000FFF76EFD044633E0B0432860FFF768FDCE
:101E8000074604E0FFF764FDC01B022826D8286837
:101E90008001F7D4E86AE16A000900010843E862BA
:101EA000616AA06A084369683D22120491430843AD
:101EB0006860286830432860FFF74AFD044604E064
:101EC000FFF746FD001B022808D828688001F7D5D7
:101ED00021E0FFF73DFD001B022801D90320FEBDD4
:101EE00028688001F5D416E00128F8D06868E96A0E
:101EF00001221204636A02409A420AD10907E26A87
:101F0000090F914205D10F2189040840A16A884236
:101F100001D00120FEBD0020FEBD000000100240E7
:101F20000070004088130000094910B5401E884227
:101F300001D9012010BD074C60610321081F01F089
:101F400037FE0020A06107202061002010BD0000A6
:101F5000FFFFFF0000E000E070477047F0B5024669
:101F60002032137F012B1ED00125157702235377D2
:101F700006687468B3687027BC430F6827437760AE
:101F800000680A4CA04205D0094CA04202D0094C7E
:101F9000A04204D180244968A34319438160557746
:101FA00000201077F0BD0220F0BD0000002C0140A1
:101FB000000400400040014070B5040005D02546F3
:101FC0002035687F002802D006E0012070BD002087
:101FD0002877204600F014F802206877211D206839
:101FE00001F008FB01204034A071A877E877207049
:101FF0006070A070E070207160716877002070BD23
:1020000010B586B0044614216846FEF771F91F48E2
:102010001D4B226881159A422BD18369C214134348
:10202000836183691340059343694A021343436103
:102030004069009110400590002002210290039019
:102040000191049109206946C006FFF7A3FB002215
:1020500011460D20FFF7DCFC0D20FFF7CDFC002220
:1020600011460E20FFF7D4FC0E20FFF7C5FC06B08A
:1020700010BD074B9A42FAD1C2690A43C261C069D6
:1020800008400590F3E70000002C014000100240DA
:1020900000200040014620314A7F012A01D0012062
:1020A000704702224A770268D36801210B43D3604C
:1020B0000068094A904205D0084A904202D0084A76
:1020C000904204D182685207520F062A02D0026859
:1020D0000A43026000207047002C014000040040C9
:1020E000004001400168CA6852085200CA60016895
:1020F0000A6A084B1A4207D10A6A9B101A4203D196
:102100000A68520852000A600121203041770020FD
:102110007047000011110000F8B50546044620354F
:10212000287F0026012817D0012028770220687711
:10213000226890687727FF23B8431B02984390607A
:102140000868502838D00EDC20284FD006DC002844
:102150004CD010281ED149E00220F8BD302845D0CF
:10216000402817D13AE060282ED0702819D00122DB
:102170001203801A0FD090420CD1CB684A6889684C
:10218000206801F088FA20688168012292031143D7
:10219000816000E001260120687700202877304622
:1021A000F8BDCB684A688968206801F074FA216834
:1021B000886838438860EEE7CA684968206801F09B
:1021C00079FB5021206806E0CA684968206801F060
:1021D000ABFB6021206801F069FADCE7CA68496856
:1021E000206801F067FB40212068F4E7226801467F
:1021F0001046F0E770B51F49064600680968884236
:1022000036D11D4900201D4C888020781C4D0128A6
:1022100014D002281DD003282AD10021304600F016
:1022200091FB6168322251434018A860002130467A
:1022300000F042F90F48FFF755FF16E00021304645
:1022400000F080FB61683222514340182860022070
:1022500009E00021304600F075FB616832225143ED
:1022600040186860002001F0ADF92078401C207013
:1022700070BD0000A4000020F001002064000020D8
:10228000A0010020F8B50446002026462036009024
:10229000307F0D4601280ED001203077002A0CD067
:1022A000042A19D0082A2AD00C2A4ED000900020E7
:1022B00030770098F8BD0220F8BDEB6806CD083DE8
:1022C000206801F009FB206882690C218A43826141
:1022D00020688169AA680FE0EB6806CD083D206898
:1022E00001F035FB206881690322920291438161EC
:1022F00020688169AA68120211438161D7E788CDFD
:10230000287921688446086AFF22013290430862D6
:10231000C8690A6A800880003843F027B8436746D6
:102320003F073F0E07430520400282430A20034037
:1023300018021043CF6108622068C1690C229143E2
:10234000C1612068C1692A682CE02B6820689E461C
:102350006F682B7B016ABC46012212039143016224
:10236000C169026A03273F02B94367463F020F4330
:102370000F2109038F431907090C052339435B0318
:102380009A4373460A273B401B031343C161036210
:102390002068C269032189028A43C2612068C16939
:1023A000AA6812021143C16181E770B5040005D02B
:1023B00025462035687F002802D006E0012070BD48
:1023C00000202877204600F014F802206877211DAD
:1023D000206801F00FF901204034A071A877E87758
:1023E00020706070A070E0702071607168770020CC
:1023F00070BD704770B50346044600252033403059
:10240000002908D0042909D008290AD04678427941
:10241000012E0BD108E09E7F8278F9E7DE7FC2783B
:10242000F6E706780279F3E7012A01D0012070BDB2
:102430000222002909D004290ED0082912D04270A6
:1024400042710C292ED001252AE09A7782702068EB
:10245000C3681343C3600CE0DA77C2702068C268B7
:10246000042304E0027002712068C26808231A4342
:10247000C2600122206801F001F90C4A20680121A4
:10248000904205D00A4A904202D00A4A904204D1B2
:1024900082685207520F062A02D002680A4302607D
:1024A000284670BD2068C2681023E0E7002C014078
:1024B000000400400040014070B500260D4604466F
:1024C000002907D0042D09D0082D0BD00C2D0DD0DC
:1024D00001262EE02068C16802220AE02068C16857
:1024E000042206E02068C168082202E02068C16872
:1024F00010229143C16000222946206801F0BEF8F5
:102500002068016A104A114207D1016A92101142F3
:1025100003D10168490849000160214620310120AA
:102520004034002D07D0042D08D0082D09D060704C
:102530006071304670BD8877A070FAE7C877E070A8
:10254000F7E720702071F4E71111000070B5044620
:10255000006801690025C9438907002915DBC168A6
:10256000C943890711D4E91E016101202077206841
:1025700080698007204602D0FFF73CFE04E000F0AF
:10258000D5F8204600F07AF9257720680169C9431B
:10259000490717D4C168C943490713D40421C94363
:1025A000016102202077206880698005800F204625
:1025B00002D0FFF71FFE04E000F0B8F8204600F05C
:1025C0005DF9257720680169C943090716D4C168F8
:1025D000C943090712D40821C943016104202077A7
:1025E0002068C0698007204602D0FFF703FE04E0A0
:1025F00000F09CF8204600F041F925772068016939
:10260000C943C90617D4C168C943C90613D41021E8
:10261000C9430161082020772068C0698005800FC8
:10262000204602D0FFF7E6FD04E000F07FF82046E8
:1026300000F024F9257720680169C943C90708D14A
:10264000C168C943C90704D1891E0161204600F051
:102650006BF920680169C943090609D4C168C943F7
:10266000090605D48021C94301612046FFF774FCA7
:1026700020680169C943490609D4C168C9434906AC
:1026800005D44021C9430161204600F071F920685A
:102690000169C943890609D4C168C943890605D4BB
:1026A0002021C94301612046FFF757FC70BD00009F
:1026B00010B586B0044614216846FDF719FE23685C
:1026C000164C002216480221A3420FD144694B0444
:1026D0001C4344614069009118400590012001911C
:1026E00004900292039269460E4812E00E4CA342F7
:1026F00011D144691B011C43446140691840059095
:1027000010206B4607C304200490092069460392F9
:10271000C006FFF73FF806B010BD000000040040FF
:102720000010024000040048002000407047F8B547
:10273000064604462036307F00270D4601280ED07D
:1027400001203077002A0CD0042A1BD0082A2FD071
:102750000C2A3ED00127002030773846F8BD0220F1
:10276000F8BD206800F0AAFF2068816908221143A3
:1027700081612068826904218A43826120688169BD
:102780002A6912E0206800F0DDFF206882690121DB
:10279000C9020A4382612068816901229202914341
:1027A0008161206881692A69120211438161D2E73F
:1027B000206801F007F82068C16908221143C1614F
:1027C0002068C26904218A43C2612068C1692A69FC
:1027D00012E0206801F038F82068C1690122D202B5
:1027E0001143C1612068C269012189028A43C26123
:1027F0002068C1692A6912021143C161ABE770B553
:10280000040005D025462035687F002802D006E068
:10281000012070BD00202877204600F015F8022026
:102820006877211D206800F0E5FE01204034A0718A
:10283000A877E87720706070A070E07020716071F8
:102840006877002070BD000008B50068094988421B
:102850000FD10948C26902210A43C261C06900223E
:102860000840009011461020FFF7D2F81020FFF723
:10287000C3F808BD0004004000100240704700008B
:1028800030B504460222203000290AD004290DD098
:102890002046403008290ED04378012B10D001206B
:1028A00030BD837F012BFAD182770AE0C37F012BF1
:1028B000F5D1C27705E00378012BF0D1027000E07A
:1028C00042700122206800F0D9FE12492068124BA4
:1028D000884207D0984205D0104A904202D0104A50
:1028E000904204D1426C0125ED032A4342642068E2
:1028F0000122884204D00B49884201D0984204D179
:1029000081684907490F062902D001681143016017
:10291000002030BD002C0140004001400044014037
:1029200000480140000400400449006809688842EA
:1029300003D103484168491C41607047A40000204E
:102940006400002002460020002908D0042909D094
:1029500008290AD00C2901D11068006C7047106852
:10296000406B70471068806B70471068C06B704791
:102970007047FEE770B50C49002549780B4C0029DB
:102980000FD0E16801F050F93F210906E06088426C
:1029900006DBE078C043E0702079C0432071E56039
:1029A00070BDE570257170BD9C0000203C000020CA
:1029B000F1B5012109208902C006FEF7BDFFE84EEE
:1029C00001270025E74C002803D06078012809D0B2
:1029D0006FE07078002878D1A168009801F024F9A0
:1029E000A0606770012109208902C006FEF7A4FFDC
:1029F000FF211E23F53101282CD1FF20A26880057C
:102A0000824225DAF078012802D0022814D01AE098
:102A1000D548827B002A028807D0323A12B202805F
:102A2000322A10DA322202800DE0643A12B20280B9
:102A30008A4208DA018006E0CC4802680A3A02605D
:102A40001E2A00DA036002202070CA4AC8481060BB
:102A50006570A560C848A2681218C848824228D884
:102A6000F078012802D0022814D01AE0BE48827BF8
:102A7000002A07D00188643909B20180322910DAAE
:102A8000322105E00288643A12B202808A4208DAF2
:102A9000018006E0B54908683C3808601E2800DA65
:102AA0000B6002202070B349B14808606570B448DB
:102AB000A060012109200903C006FEF73DFF0028A0
:102AC00004D0A07801280AD044E07DE07078002886
:102AD0007AD1E168009801F0A7F8E060A7700121C1
:102AE00009200903C006FEF727FF012814D1FF20A3
:102AF000E168800581420CDAF078401CC0B2F070C9
:102B0000022800D9F570A0499E4808609949984864
:102B10000860A570A571E5609C48E16809189C48AB
:102B2000814217D2A079002814D18F489949827B1D
:102B3000002A02D08573098901E0877389890180A1
:102B4000954891490770F5708E4808608949884812
:102B50000860A771012109204902C006FEF7ECFEBA
:102B6000002802D1E079002803D0E078012806D0BF
:102B700041E02169009801F057F82061E7700121D8
:102B800009204902C006FEF7D7FE012812D1FF2016
:102B90002169800581420ADA09204021C006FEF73A
:102BA000CBFE012811D07E497C4808607771E57022
:102BB000E5712561754821690918754881421AD265
:102BC000E079002816D016E0A0E07078002807D041
:102BD000654937710220C8736B496A480860E6E7A7
:102BE0007149704848606C48077077705E48F570AE
:102BF000C573F1E7E77101210920C902C006FEF79C
:102C00009BFE002803D02079012809D06CE0707861
:102C100000287BD16169009801F006F86061277196
:102C200001210920C902C006FEF786FE5F4B01287C
:102C30002CD1FF2061698005814220DAF0780128DB
:102C400002D0022814D01AE04748817B002901886D
:102C500006D032310AB20280554906E001800EE00A
:102C600064310AB27D21028049018A42F6DC06E025
:102C70003E4908680A300860984200DD0B60022077
:102C800020703C493A480860257165613A4861699D
:102C900009183A48814227D8F078012802D0022842
:102CA00013D019E03048817B0029018804D06431B9
:102CB0000AB202803E4904E064310AB27D210280FA
:102CC00049018A4208DD018006E0284908683C3055
:102CD0000860984200DD0B600220207025492448DE
:102CE00008602571264860610121C9033148FEF75B
:102CF00023FE00280BD06079012830D10121C903BF
:102D00002C48FEF719FE01280BD01EE027E0707852
:102D1000002824D1A169009800F086FFA0616771A6
:102D2000ECE7FF20A169800581420CDA09204021EF
:102D3000C006FEF701FE012805D11F4812490770A1
:102D40001048086075706571A5610B48A169091884
:102D50000A48814203D8FF2065718005A061F8BD53
:102D60009C0000201C000020F00100200002002038
:102D70000000C04050000020CCCC0CC03233130007
:102D80000000E03FCDCCCC3D14000020FFFF3FC051
:102D9000FFFF7F00AC010020840000200000E04025
:102DA000180000200000C841C8010020060E0000E5
:102DB000A4060000000400483800002010B53C22A2
:102DC000FF21002000F0E8FD10BD10B500213222E7
:102DD000084600F0E1FD10BD10B5294C012280210C
:102DE0002046FEF7AEFD012220212046FEF7A9FD78
:102DF000012210212046FEF7A4FDFF20F53000F04F
:102E0000F9FE002280212046FEF79BFD0A2000F0FB
:102E1000F1FE002000F062FE012000F021FE032000
:102E200000F01EFE042000F01BFE052000F018FE3E
:102E3000082000F015FE182000F012FE292000F0F6
:102E40000FFE802000F00CFE402000F009FEE32081
:102E500000F006FE012280212046FEF772FD0021CF
:102E60000848FFF70DFD0749322009684863FFF75E
:102E7000A5FF7D20C000FEF7CFFBFFF7A6FF10BD2A
:102E8000000400483401002010B50B480188491C9B
:102E900001804188491C41808188491C8180C1880A
:102EA000491CC1800189491C01814189491C41811A
:102EB00000F090FA10BD000086000020F0B587B049
:102EC00014216846FDF714FA384842690121890542
:102ED0000A43426142690A400592426949110A4324
:102EE000426142690A400592426949000A434261CF
:102EF000406909260840F606059000222021304648
:102F0000FEF71FFD2A4F0022F1143846FEF719FD87
:102F10000122B0213846FEF714FD202000240125AF
:102F2000009002946946019503943046FEF732FC06
:102F300040206A4631C269463046FEF72BFCE80263
:102F40000090022002900195694603943846FEF7EE
:102F500021FCE80300900194694602943846FEF78C
:102F600019FC0F20400200900194694602943046FB
:102F7000FEF710FCC0206A4631C269460D48FEF7D4
:102F800009FCB0200090032003900195029569464A
:102F90003846FEF7FFFB280200900294694601952F
:102FA00003943846FEF7F6FB07B0F0BD0010024070
:102FB000000400480014004810B588B01C21684681
:102FC000FDF796F916481549016000240B2184602D
:102FD00041600461C7218461C160FEF7EDFF0028F4
:102FE00001D0FEF745FA0E48FFF709FC002801D092
:102FF000FEF73EFA60200090019402940022694698
:1030000004940748FFF793FB002801D0FEF730FA3D
:103010000348FFF74DFB08B010BD00000020004042
:103020003401002010B58AB000240494059406945D
:1030300007940894214809940094019402941E492D
:10304000039401600B218460416004614461C821E4
:103050008461C160FEF7B0FF002801D0FEF708FAD6
:1030600001200003049004A91448FFF755F8002834
:1030700001D0FEF7FDF91148FFF797F9002801D0BC
:10308000FEF7F6F9089408A90C480994FEF766FFC4
:10309000002801D0FEF7ECF9012001900094029481
:1030A0000022694603940548FFF7ECF8002801D098
:1030B000FEF7DEF90AB010BD002C0140A40000208C
:1030C00010B58AB0002407941C2168460894FDF7C7
:1030D0000FF9184816490160172184604160FF21EB
:1030E000046190318461C160FFF789FB002801D041
:1030F000FEF7BEF9079407A90E480894FEF72EFFC5
:10310000002801D0FEF7B4F96020009001940294E9
:103110000C22694604940748FFF709FB002801D0F8
:10312000FEF7A6F90348FFF7C3FA0AB010BD000086
:1031300000040040EC000020F1B532480025407842
:10314000314F324C84B0012804D038680564656082
:1031500005B0F0BD09204021C006FEF7EDFB0128B7
:1031600004D02848457038680564F1E728490626E8
:103170008E5F002EECD023480079002818D0666AB4
:103180007000000E12D002210498FDF739FD31467F
:1031900000F014FE6062FF21C905C84200D36562D9
:1031A000606AFDF7E5FC39680864D1E73046F2E76C
:1031B000887B184D00281848085E11D0FDF714FDD3
:1031C00003903046FDF7C9FB144A154BFDF780F913
:1031D000FDF740F900F040F8124900F06BFD05E002
:1031E000FDF702FD03903046FDF7FEFC01460E4858
:1031F000064B01900C3B02950094039A0498FDF74E
:10320000D4FDCDE79C000020EC000020C801002088
:10321000F00100200000C84302000000A145B6F301
:10322000FDD45A4000007A440000AF4310B50C2191
:103230000148FFF725FB10BDEC00002004480349BE
:103240000160044941600021816070476F12033BB7
:10325000BC0100200BD7A33CF8B5FF260021044693
:10326000B605C943FDF7CCFC0546114960100F1A9D
:103270003946284600F01EFD394600F01BFD314658
:1032800000F09CFD394600F015FD07460146284632
:1032900000F010FD394600F00DFD314600F08EFDC6
:1032A000394600F007FD0146204600F003FDF8BD59
:1032B000DF59375FFEE70000F8B510211748FEF729
:1032C00051F9164A164E10780124164F164B174D19
:1032D000AA2802D15078BB280DD000F029F85068F8
:1032E0003060987B002801D0908900E01089188018
:1032F0003C702C700CE050683060987B002801D046
:10330000908900E0108918803C702878002803D04C
:103310000020287000F01CF8F8BD0000AC0100206F
:103320000002002084000020F00100207C0000202A
:103330000648AA210170FF212D3141607D214901FC
:1033400081606421C160BB2141707047AC010020E5
:1033500010B510210148FEF727F910BDAC0100207F
:1033600070B5094C0025217800290BD0616800F068
:103370005BFC3F2109066060884202DBFFF7E8FF43
:10338000257070BD656070BD7C000020704770477F
:1033900010B5074841780748002907D04168064A18
:1033A00081600820105EFDF751FF10BD0168F6E74F
:1033B0009C00002000020020F001002010B5FEF764
:1033C000CDFA03480078002801D0FFF75DFD10BD5D
:1033D0009C00002070B5224C002520880A280AD3C2
:1033E000204E3046FDF7C0FE3046FFF7E1FA30468A
:1033F000FDF712FE25806088142803D31A48FDF7D4
:1034000091FE6580A08832280AD3184E3046FFF717
:1034100093FE3046FDF778FE3046FDF729FDA58086
:10342000E08864280AD3124E3046FDF76BFD304623
:1034300000F0A7FA3046FFF793FFE5802089C828FF
:1034400003D30C48FDF7ACFD25816089FF21F531E0
:10345000884204D33F200006FDF7CCFD658170BD96
:10346000860000200AD7233C0AD7A33CCDCC4C3D94
:10347000CDCCCC3DCDCC4C3E30B591B03021684662
:10348000FCF736FF00240120009001900E94000408
:1034900009900F9400010D9402250A900C94089550
:1034A0000B946846FEF77CFB002801D072B6FEE75D
:1034B00007200C900E9401210D950F940CA8FEF797
:1034C000ABFA002801D072B6FEE711B030BD7047EC
:1034D00010B5094C00202070FFF7A8FEFFF77CFC18
:1034E000FDF7BEFFFFF7AAFEFFF7E6FE044903481B
:1034F00008600120207010BD9C000020CDCCCC3D88
:103500001400002010B50248FFF720F810BD00009D
:10351000A400002010B50248FFF718F810BD000005
:10352000A400002070B5204C217800251F480029F8
:1035300025D0042922D106C8521AA2600068401A78
:10354000E060FDF759FBFDF713FA0022184BFCF77A
:10355000BFFF02460B4600201649FCF7B9FFFCF7F7
:1035600079FF20612570144900F0A4FB691EFDF766
:1035700047FBFDF7FDFA11496061488070BD656049
:103580000F4909684D62056045608560002000F0C4
:1035900019F80B48FEF77EFD00210948FEF72AFFC7
:1035A0002078401C207070BD64000020A001002025
:1035B00080842E410000F03F00007042F0010020A6
:1035C000A400002010B5064B19680C6A0A22944327
:1035D0000C6219680B6A104003430B6210BD0000B7
:1035E000A400002010B50248FEF7B0FF10BD000097
:1035F000EC000020F0B502681A4B1B4C984201D039
:10360000A04203D17025AA434D682A43174D184E96
:10361000184F98420AD0A04208D0174CA04205D0BB
:10362000A84203D0B04201D0B84205D114460322CB
:1036300012029443CA6822438024A2434C69224365
:1036400002608A68C2620A688262984205D0A84213
:1036500003D0B04201D0B84201D109690163012110
:103660004161F0BD002C01400004004000400140D9
:1036700000440140004801400020004010B5CB0646
:10368000DB0E0121046A99408C430462016A9A406E
:103690001143016210BD30B58468FF252D021B0265
:1036A0001343AC430B432343836030BD82687023D4
:1036B0009A430A4307210A4382607047F0B5026AC1
:1036C000520852000262056A436882697024A2436C
:1036D00092080C6892001443022295438A68164EA1
:1036E0002A43144DA84207D0B04205D0134FB84228
:1036F00002D0134FB84206D10827BA43CF68174308
:10370000042297433A46A84207D0B04205D00B4D59
:10371000A84202D00A4DA84206D103252D02AB4390
:103720004D691D438B692B43436084614968416344
:103730000262F0BD002C0140004001400044014005
:103740000048014070B5026A10239A430262056A7C
:103750004268836973242402A3430C6824021C4337
:1037600020239D438B681B012B43124DA84208D197
:103770001D46CB688026B5431B012B434025AB4338
:1037800008E00D4DA84205D00C4DA84202D00C4DCA
:10379000A84208D10325AD02AA434D69AD001543E7
:1037A0008A6992002A4342608461496881630362A6
:1037B00070BD0000002C0140004001400044014069
:1037C0000048014070B5026AFF2301339A43026248
:1037D000056A4368C2697024A24392080C6892008B
:1037E00014430122520295438A6812022A43124D61
:1037F000A84208D11546CA68C614B54312022A4326
:103800000515AA4308E00D4DA84205D00C4DA8426D
:1038100002D00C4DA84208D103252D03AB434D69BE
:103820002D011D438B691B012B434360C461496813
:10383000C163026270BD0000002C014000400140E5
:10384000004401400048014030B5026A01231B03D7
:103850009A430262046A4268C36973252D02AB432E
:103860000D682D021D4301235B039C438B681B03E2
:1038700023430C4CA04208D00B4CA04205D00B4C6B
:10388000A04202D00A4CA04205D10124A403A243C5
:103890004C69A40122434260C56149680164036226
:1038A00030BD0000002C01400040014000440140B8
:1038B0000048014030B5036A046A64086400046289
:1038C0008469F025AC43120122430A24A3430B432D
:1038D0008261036230BD000070B5046A6408640050
:1038E00004628469056A0D4EB04205D00C4EB042A8
:1038F00002D00C4EB04202D1A408A40000E0012284
:103900001443F02294431A07120E0A2322439D43C4
:10391000194029438261016270BD0000002C014002
:10392000000400400040014030B5036A1024A34366
:1039300003628469036A0F252D031203AC432243FB
:10394000A024A343090119438261016230BD70B50F
:10395000046A1025AC4304628569046A03263602B2
:10396000B54312022A430F252D031B071B0CAA4344
:103970001343A02209019443114021438361016252
:1039800070BD10B50446FDF781FB2046FEF7F2FF3F
:103990002046FDF7E3FA10BDF7B5304D064600228C
:1039A00080212846FDF7CDFF0A2000F023F90120F1
:1039B00000F094F870060024060E0627002220214D
:1039C0002846FDF7BEFF391B3046C840C00701D06E
:1039D000012200E0002210212846FDF7B2FF0A2054
:1039E00000F008F9012220212846FDF7AAFF0A204D
:1039F00000F000F9641CE4B2062CDFD300242F464B
:103A000023E0019E0025002220213846FDF799FF82
:103A10000720401B3146C140C80701D0012200E009
:103A2000002210213846FDF78CFF0A2000F0E2F852
:103A3000012220213846FDF784FF0A2000F0DAF841
:103A40006D1C082DDFDB641CE4B202988442D8D3DD
:103A5000012280213846FDF774FFFEBD00040048B6
:103A6000F8B500241C4D06460727002220212846D1
:103A7000FDF767FF391B3046C840C00701D001225F
:103A800000E0002210212846FDF75BFF0A2000F02D
:103A9000B1F8012220212846FDF753FF0A2000F04B
:103AA000A9F8641CE4B2082CDFD3002220212846A8
:103AB000FDF747FF0A2000F09DF80022102128465C
:103AC000FDF73FFF012220212846FDF73AFF0A209B
:103AD00000F090F8F8BD00000004004870B50446FE
:103AE0000A2000F087F8254D002220212846FDF706
:103AF00028FF0A2000F07EF8012210212846FDF759
:103B000020FF012220212846FDF71BFF0A2000F09C
:103B100071F8002220212846FDF713FF0A2000F04B
:103B200069F8002210212846FDF70BFF0A2000F05B
:103B300061F8012220212846FDF703FF0A2000F04A
:103B400059F8002220212846FDF7FBFE0A2000F04C
:103B500051F8002C10D0012210212846FDF7F1FE6B
:103B60000A2000F047F8012220212846FDF7E9FE4F
:103B70000A2000F03FF870BD0022EDE70004004885
:103B8000F8B5040C8BB2264682B25E430D0C10468B
:103B9000370C5843360480190021794116466E438C
:103BA000370C36048019794126466E438919F8BDD1
:103BB0008307FF22DB0E9A408907090E99400028EF
:103BC00008DB830809489B001B18186890430843CA
:103BD000186070470007000F0838830804489B00EE
:103BE0001B18D86990430843D861704700E400E08F
:103BF00000ED00E06420401E0006000EFBD170477F
:103C0000FDF7B4FEFFF738FCFFF758F9FFF70AFAA3
:103C1000FFF756FAFFF7D0F9FFF75AFCFFF782FCDF
:103C2000FFF7B6FBFAE7000070B501250400ED07C9
:103C30004C4020D4441A01D2001B0919C60D4B0078
:103C4000F2B2FF2A29D01B0E2CD000020C02D31A8C
:103C50002C43DC402843051910D2280A02D3401C0B
:103C60006D0611D0761EF6058019FF2A00DA70BDA8
:103C7000C00DC00570BD694000F0B2F801200543D9
:103C8000C541521C761CE8E764089C40C9016140AC
:103C90008900E7D10124A043E4E71B0E440200D0D1
:103CA000034870BD002AFCD1C00FC00770BD00BF23
:103CB0000000C07F70B5420064414B005C41120EB1
:103CC00039D01B0E38D0FF2A3CD0FF2B3AD040020F
:103CD0004902400A490A060045184E43000A090AEB
:103CE000D2184843ED017F3A0104731A4019190CA8
:103CF0004318990F04D001215B0849075B1A521C35
:103D0000D80904D3401CF50301D19D0607D0FF2A32
:103D100008D2D50506D0E4072043401970BD01251F
:103D2000A843F4E7002A01DCE00770BD2402FF206D
:103D30002043C00570BD1B0EFF2A03D0FF2B01D00E
:103D4000E00770BDFF2645003606B54206D84D0097
:103D5000B54203D8D218FF2A00D0E7E7004870BD6B
:103D60000000C07F01230A00DB0502430DD4DA42C4
:103D700003D49A4207D481427047D94214D4D8421E
:103D800012D48142704789427047DA4203D59A4281
:103D9000F9D5884270475B004A00DA4204D24200FB
:103DA000DA4201D2884270474840414010B5024A89
:103DB0004840FCF747FF10BD0900160470B5012507
:103DC000ED07684004004C4002D5694000F008F857
:103DD000FFF730FF70B501250400ED074C4022D4F9
:103DE000441A02D26C40001B0919C60D4B00F2B2F6
:103DF000FF2A4BD01B0E50D000020C02D31A2C43CA
:103E0000DC40A843051B05D5AD0019D36D08761E0F
:103E1000521E37D0F605280A01D2801970BD7041B4
:103E20006D0603D070BD6940FFF704FF9C40090296
:103E30006140490001D0401E70BD0124A04370BD07
:103E40006D081DD001202B0C01D12D0410302B0E3C
:103E500001D12D0208302B0F01D12D01001DAB0F18
:103E600001D1AD00801CEB0F01D16D00401C6D0035
:103E7000361A121A680AF5054019012A02DB70BDCC
:103E8000002070BDC036300AC00770BD1B0E440252
:103E900001D1FF2B00D1024870BD002AF0D070BDC7
:103EA0000000C07F000000000000000001020304C9
:103EB0000607080980807F7E7D7C7B7A797877761B
:103EC00076757473727171706F6E6E6D6C6C6B6AF7
:103ED0006A69686867666665646463636261616095
:103EE000605F5F5E5E5D5D5C5C5B5B5A5A59595812
:103EF000585757565655555554545353525252517C
:103F0000515050504F4F4F4E4E4D4D4D4C4C4C4BD1
:103F10004B4B4A4A4A494949484848474747474618
:103F20004646454545444444444343434342424254
:103F3000424141418182838485868788898B8C8D2B
:103F40008E8F919293959697999A9C9D9FA0A2A3EC
:103F5000A5A7A8AAACAEB0B2B3B5B7B9BCBEC0C233
:103F6000C5C7C9CCCED1D4D7D9DCDFE2E6E9ECF0C5
:103F7000F3F7FAFE943F000800000020A4000000C0
:103F8000F800000838400008A4000020CC0700001A
:103F900014010008010000000400000000000000FF
:103FA00000127A0000000000000000000000000085
:103FB0000000000000000000000000000000000001
:103FC00000000000000000000000000000000000F1
:103FD00000000000000000000000000000000000E1
:103FE00000000000000000000000000077245D6D6C
:103FF0002E6B7B257F6F000000000000000000009A
:1040000000000000000000000000000000000000B0
:1040100000000000000000000000000000000000A0
:104020000000000000000000000000000000000090
:08403000000000000000000088
:04000005080000B53A
:00000001FF
