:020000040800F2
:100000009011002059010008296F000809620008BA
:1000100000000000000000000000000000000000E0
:100020000000000000000000000000005571000802
:1000300000000000000000009D700008957100089D
:100040006B010008000000006B0100086B01000854
:100050006B0100086B0100086B010008D53B00082C
:1000600000000000751A0008851A00086B010008DE
:10007000751000086B010008B9730008000000004B
:100080006B0100086B010008000000006B01000814
:10009000457300086B0100086B0100086B01000844
:1000A0006B0100086B0100086B0100086B01000880
:1000B0006B01000800F002F800F03EF80CA030C818
:1000C000083824182D18A246671EAB4654465D46D4
:1000D000AC4201D100F030F87E460F3E0FCCB64660
:1000E0000126334200D0FB1AA246AB4633431847E1
:1000F0003884000058840000103A02D378C878C1D0
:10010000FAD8520701D330C830C101D504680C6059
:10011000704700000023002400250026103A01D378
:1001200078C1FBD8520700D330C100D50B607047AF
:100130001FB51FBD10B510BD00F03AFF1146FFF707
:10014000F7FF07F0D5FF00F052FF03B4FFF7F2FF0F
:1001500003BC00F087FF00000748804707480047BE
:10016000FEE7FEE7FEE7FEE7FEE7FEE70448054997
:10017000054A064B70470000DB720008B500000816
:10018000900B002090110020900D0020900D002079
:1001900010B5202A04DB0846203AD040002110BDCB
:1001A0000B462024D340D040A21A91400843194660
:1001B00010BDFEB5054610460C46184373D0AE463A
:1001C0008C460020AD1A01469C4167D36646002745
:1001D00001243D46B61A9D4102D313463A462124D6
:1001E000654676462F04360C3E432D0CB61A9D41CB
:1001F00004D3150C1B042B431204103465467646B9
:100200002F06360A3E432D0AB61A9D4104D3150E19
:100210001B022B4312020834654676462F07360927
:100220003E432D09B61A9D4104D3150F1B012B43E4
:100230001201241D65467646AF07B6083E43AD0859
:10024000B61A9D4104D3950F9B002B439200A41C2A
:1002500065467646EF0776083E436D08B61A9D411F
:100260001AD392185B41641C16E000187646654666
:100270004941B71A9D410191009009D36046B11AD6
:1002800098418E468446009801990025401C69419A
:10029000DD0752082A435B08641EE6D572466346B2
:1002A00003B0F0BDFFE700200146C046C0462A4625
:1002B0002346F5E701E004C0091F0429FBD28B07A0
:1002C00001D50280801CC90700D002707047002948
:1002D0000BD0C30702D00270401C491E022904D370
:1002E000830702D50280801C891EE3E70022EEE727
:1002F0000022DFE7002203098B422CD3030A8B4242
:1003000011D300239C464EE003460B433CD400220D
:1003100043088B4231D303098B421CD3030A8B421F
:1003200001D394463FE0C3098B4201D3CB01C01AED
:10033000524183098B4201D38B01C01A52414309B8
:100340008B4201D34B01C01A524103098B4201D3A6
:100350000B01C01A5241C3088B4201D3CB00C01A13
:10036000524183088B4201D38B00C01A524143088B
:100370008B4201D34B00C01A5241411A00D20146B0
:100380005241104670475DE0CA0F00D04942031049
:1003900000D34042534000229C4603098B422DD398
:1003A000030A8B4212D3FC22890112BA030A8B4240
:1003B0000CD3890192118B4208D3890192118B428F
:1003C00004D389013AD0921100E08909C3098B4214
:1003D00001D3CB01C01A524183098B4201D38B0157
:1003E000C01A524143098B4201D34B01C01A5241FA
:1003F00003098B4201D30B01C01A5241C3088B423F
:1004000001D3CB00C01A524183088B4201D38B0029
:10041000C01A5241D9D243088B4201D34B00C01AB3
:100420005241411A00D20146634652415B101046C8
:1004300001D34042002B00D54942704763465B1010
:1004400000D3404201B50020C046C04602BD7047FF
:10045000704770470246C80FC00781434B0030B554
:100460004B405B009B0D20D01923DB06C9180123EC
:100470001B05994220DB0324A40704251346AB4047
:100480000BD3002B04D1EB0613409B00E34204D4B2
:1004900001246407002312195941FF231B059942C7
:1004A0000BD2C9000143500F09E0CB0204D5014330
:1004B0000803024305D0054830BDFF21C9050843A4
:1004C00030BD084607210905884330BD0000C07FC4
:1004D000F0B50C46871A9C410D46861A9D4103D201
:1004E000C01BA141D21963410D0D1F0DC94EEC1B5C
:1004F000AE435CD07F057F0D0026002F51D02D0527
:10050000AC46A943DD020123ED0A1B051D43202350
:100510001B1B24D41746E740381871412F46E7408B
:10052000CC199D402818314661410C0D27D16144FA
:100530009A4013D50023401C594152000ED1400867
:10054000400001224B005205D34207D3052040074B
:10055000C14201D5B04900E0B0493046F0BD6B0062
:10056000002A00D001229A181F23203C1B1B01D512
:10057000002302E0E540281871410C0DD7D001247A
:1005800024050919C407CD0740084908E40F28438A
:100590006144002CD5D00024401C61419A40D0D148
:1005A000CDE76A05520DD9D1C90FC907D5E79C4DD2
:1005B0004E00002801D0012400E0002434195F001F
:1005C000002A01D0012600E00026BE19954FAC425A
:1005D0000CD8AE420AD8B44206D001256D05EC42D3
:1005E000BCD010461946F0BD9942FCD000203946D7
:1005F000F0BDF0B51FB40C460F46811A9F41254649
:10060000861A9D4106D20125ED076F40401ABC4174
:1006100052187B41210D1E0D8D1BAC467D4D8D4327
:100620007ED075056D0D7CD00D05AE46AC431B0329
:100630001B0B794D52429D41202366469B1B14D3D0
:100640001746F740381800260090744160462F4640
:100650000741E41900989D402818664116D4714658
:1006600071189A4025D5012320E093182A466A4143
:100670005200002B00D0521C1E23203E9B1B002B3F
:1006800061DD3541EE1728186641E8D5001876413E
:100690005B1C9A4000D3401C4B05F3181524E34023
:1006A00010D3002B52D071467118D30FC01802D34B
:1006B000491C05B0F0BD0123DB079A42F9D140087F
:1006C0004000F6E701225205B21801D1002853D0AC
:1006D0000123CC0ADB029943891E002A08D1020CAF
:1006E00003D0020C0004103902E002460020203939
:1006F0000023550B05D112020823550B01D15201DD
:100700000D23550C01D112011B1DD50C01D19200F6
:100710009B1C150D01D152005B1C2025EE1A01E037
:100720002CE022E00546F54015439840CA1AE1073F
:1007300069181305C918002ABBDA032040070818F6
:10074000C10FC9070FE071466118B2E7F107400811
:100750000843711071444A000CD001235B059A4292
:10076000A7D2C90FC9070020A3E74905490D26D123
:10077000002001E00028F4D100219AE7284D66000E
:10078000002801D0012100E0002171185F00002A3B
:1007900001D0012600E00026BE19224FA94210D840
:1007A000AE420ED8B14208D001256D05E94206D00F
:1007B0001946A802414010467BE79C4201D02146E1
:1007C00077E70020394674E710B50C465C4005D544
:1007D0000124E4076340FFF70CFF10BDFFF778FE2C
:1007E00010BD30B40C465C4004D50124E4076340DE
:1007F00030BC6DE630BCFCE670B50124E407614016
:100800000D465D4002D4FFF763FE70BD6340FFF705
:10081000F0FE70BDFF0700000000F0FF0000F07F59
:100820000000E0FF0000F87F30B50346CA02400D2B
:100830001043164D164C0A1502D02043002A06DB41
:10084000AA1A002A12DDD040FF2A0BDC30BD520567
:10085000520D01D140004008AA1A07D4D0404042AE
:10086000FF2A01DD002030BD0028FCDD4A00002BFE
:1008700001D0012000E00020101801225205D042D2
:10088000F0D8C817C043604030BD00001E0400000F
:10089000000000801F22030C02D10F22000402D0AE
:1008A000030E03D004E00020014670470002083A1E
:1008B000030F01D10001121F830F01D18000921E8E
:1008C000002801DB4000521E120551184205C012DB
:1008D000411810467047C10FC90700D0404201229D
:1008E00092071143D6E701218907D3E7F0B58B4C76
:1008F0000F09254689B0BD437BD01D092646AE436E
:10090000FAD00E465E402740F60F3E43254071D098
:1009100024012142FBD0FF24AD19A4042D1B039513
:1009200001252D05DB02DB0AC9022B43C90A294335
:100930001E010901040F130F050121431701880B44
:10094000820391432D098C46A90B1E438A039543CC
:10095000B30B9A0396433F09BA0B9403A74302963D
:100960002E467E430497B6464E19D7190C4601967B
:10097000544305977E43371B7646BF1B3601B64668
:10098000BE0B361900967646BC043719009C01D37D
:10099000641C00946400002F01D001263443029EA1
:1009A000049F754366467E430496760034196E00B4
:1009B00034190094029C019E1C196643751BAE46B7
:1009C000069465464519059C05956C435943754643
:1009D0000891691A0191049E01465143A41B049198
:1009E000611A009C0791E10605D0610901221143BB
:1009F00002E072E06EE06109089D00272C0A2D06D6
:100A00006918049D7C412A0A2D066918019D6241DE
:100A1000AC0DAD026D185441079A910D9202551913
:100A20006141029A644658435443069B059A5A43CF
:100A3000121A131B9A0E9B015B187A41010B0005D9
:100A4000C3185141220A200644195A419A4200D241
:100A5000491C01204002814203D315230226F6439C
:100A600002E014230326F6432020C51AA9401746A6
:100A7000AF40DA400A4320460399D840091473185E
:100A800019055118039A3843D2075140AC4009D098
:100A90000122944006D30022401C5141002C01D178
:100AA000400840001E4A934212D301220398920646
:100AB000904207DB0520400709181A480143C0127D
:100AC000414004E0032040070818C10FC907002077
:100AD00009B0F0BD0020F107FAE705180C464C41BB
:100AE00011486D42A04115D394181A465A410E4838
:100AF000644290410ED301204A004005824209D34E
:100B00005A00824206D35940C90F084AC90700203B
:100B10001143DDE700200649DAE700000000FF0787
:100B2000FE070000FFFFFF7F0000E0FF0000F07FF6
:100B30000000F87F70B505464800440D124B0020B8
:100B4000002C0AD0634008D09A4206DA6642B242CC
:100B500003DD12054019514170BD002C08D0002B57
:100B600009D0C90FC907002AF6DB084A114370BD36
:100B7000C90FC90770BD28460A03104302D00020E0
:100B8000034970BD284670BDFF0700000000F07FDC
:100B90000000F87F0121C9050123411842001B060E
:100BA000D3185B0E0AD0C1100722D206891840075D
:100BB0005242D14201D5520089187047090208D526
:100BC0000146002A03D0C10FC90700207047104614
:100BD0007047420202D000200249704707210905F0
:100BE0000143F4E70000F87FF0B5FF252D04C609A6
:100BF000C209FF2704462E400137CB093E43484037
:100C00002A402B400746002A6BD0002B69D0AA420D
:100C100067D0AB4265D0002800DA32460125ED05E9
:100C200029432C4309022002090AD21A4B0C7F24C3
:100C3000E31A434C000A7C44E35C7D24240412192B
:100C400014145B00A218884201D3521C00E040003B
:100C500049420C465C4324115C43DB016415E318F4
:100C6000040A5C43C502200D0C4644436419250A5E
:100C70005D432303EC0C0D46654300030019EB189C
:100C80004C42A34201D35B18401CD4052018002B12
:100C900007D05B00C91804D3401C002901D14008CB
:100CA00040003F2189048A4209D3002A08DC11064A
:100CB000090F04D0032149074018C00FC007F0BD39
:100CC00001224100120689187F2252069142F6D273
:100CD00005214907C84201D59010F0BDFF20C0058D
:100CE000F0BD002F00DA32461648AA4207D2AB42C6
:100CF00005D21902090E17D0F80FC007F0BDFF2565
:100D000063002D06AB42F9D84900A942F6D8AB42A0
:100D100001D1A942F2D0A94201D1002101E0610034
:100D20004908D0050843F0BD1102090EFBD0FF2091
:100D30000243D005F0BD0A460146104654E70000C4
:100D4000AE7800000000C07F10B501469E2400026E
:100D5000CA15A307002A02D01843002A04DBA21AEE
:100D6000002A0CDDD04010BD1206120E01D1400049
:100D70004008A21A03D4D04040420028F3DDFF22ED
:100D800048001206904201D9002010BDC817C04388
:100D9000584010BD0102C21504D00123DB071943DE
:100DA000002A0ADB9E239A1A02D40846D0407047D4
:100DB000FF2241001206914201D900207047C0175E
:100DC000C04370471F22030C02D10F2200041CD025
:100DD000030E01D10002083A030F01D10001121FD6
:100DE000830F01D18000921E002801DB4000521EBB
:100DF000D2055118021251181922904004D3491CEF
:100E0000002801D14908490008467047C10FC907A9
:100E100000D04042012292071143D3E70121890704
:100E2000D0E7000010B5FF22C30D134009D05A408F
:100E300007D0914205DA5C42A14202DDC9050818DB
:100E400010BDC40FE407002B06D0002A06D00029ED
:100E500002DBFF20C0050443204610BD4102FCD048
:100E6000004810BD0000C07FF8B5224C4E00069D22
:100E7000A6420AD8A64201D1002806D15E00A642A9
:100E800003D8A6420AD1002A08D00D242404254202
:100E90002CD02946002000F061F8F8BD0C461C4318
:100EA0000CD4994202D0EFF30080F8BD904202D0FA
:100EB000EFF30080F8BDEFF30080F8BD09242407AC
:100EC000E5008B4206D0EFF30080A043591A06D20A
:100ED000284304E0101A05D3EFF30080A04380F309
:100EE0000088F8BDEFF30080A043F1E7009500F023
:100EF0004DF8F8BD0000E0FF10B5FF231B064400CD
:100F00009C421DD84C009C421AD80346124A0B43FF
:100F100007D4401A02D3EFF3008010BDEFF3008036
:100F200010BD081A06D2EFF3008001219043C907D3
:100F3000084302E0EFF30080904380F3008810BD87
:100F40000D231B041A4204D01146002000F006F8BD
:100F500010BD00F025F810BD00000090C80212D5A9
:100F60004803400F002804D0C803C0430121884033
:100F70007047EFF3008000010009032109070843CF
:100F800080F30088704700207047000010B50020F3
:100F90000249029A00F033F810BD00000000F87F0B
:100FA00010B5024800F02BF810BD00000000C07F13
:100FB000754600F053F8AE46050069465346C00832
:100FC000C000854618B020B5FFF7D0F860BC0027F8
:100FD0004908B6460026C0C5C0C5C0C5C0C5C0C505
:100FE000C0C5C0C5C0C5403D49008D46704710B55D
:100FF0000446C046C0462046FFF7A7F810BD10B50E
:101000000C461107090F092904D00A290AD008291A
:101010000CD104E011460820FFF7A0FF06E05106BE
:1010200006D501E0510601D50120C007214610BDBB
:10103000D10607D501010909CC084907000E0006B1
:10104000044309E0410F20024907000A0143200E32
:1010500000061D22D14101430846E7E700487047DA
:10106000300B002001491820ABBEFEE7260002002D
:101070007047000010B5024802F0E9FF10BD000003
:10108000FC00002070B50C4802F0FAFE0B4804F09A
:101090000BFB04220A49084803F048F90948007B81
:1010A000002808D1084D0024284605F0F9FF641CEB
:1010B000E4B2C82CF8D370BDFC0000205802002018
:1010C00050000020CC0A0020CDCCCC3D10B501460C
:1010D000406A826B50231A420AD1816B012252026C
:1010E000114381630168CA681205920F05D020E0A0
:1010F000006B026B0846904710BD827E002A18D113
:101100000A68120715D58A6853070122002B09DBEC
:101110004B680C24A3434B60816B1302994311432A
:10112000816306E0816B202319438163C16B114306
:10113000C16302F089FF10BD10B5406A816B402287
:1011400011438163C16B04221143C16302F07EFF2E
:1011500010BD10B5406A02F078FF10BDF8B5044626
:1011600000200090206881688907890F012905D136
:101170000168C90731D1C16809042ED48168184AB1
:1011800010261140012500291AD181682943816068
:10119000154814490068FFF7ADF800E0401E0090C4
:1011A0000028FBD103F0C2FE074611E003F0BEFEAB
:1011B000C01B02280CD920680068C043C00707D0B4
:1011C000A06B3043A063E06B2843E0630120F8BDCF
:1011D00020680068C043C007E8D10020F8BD0000C7
:1011E0001700008040420F000C000020FFB585B0C2
:1011F00008461E460F9F0E9C079907F0F5F8E06021
:10120000009032680146104607F05EF820600598AD
:101210003D464000010E0120C007454000291BD07B
:101220007F20C0050599FFF7DFFC0290216A07982F
:1012300007F0DAF8029907F047F801460122B06892
:10124000D207504007F040F8A0612846009907F007
:1012500093F803D2284609E00020E6E73946E06823
:1012600007F08AF801D2384600E0E068716807F0BC
:101270002BF8059907F028F8616806F0DFFFFF21D9
:10128000C9056060C84201D3002106E0109907F04B
:1012900073F801D2109900E061686160206806F07F
:1012A000CDFFA16906F0CAFF60620798206209B00D
:1012B000F0BD0000F1B51F4C0121C90560684E1258
:1012C0001D4F884204DAA2688A4201DA002219E03E
:1012D0004000000E09D001223146384603F01FFEBF
:1012E0006168009807F074F86060A5686800000EF7
:1012F0000CD02168009806F0A1FF104920608842B8
:1013000005DA01223146384603F009FEF8BD0B49E3
:101310000B4A494241189142D8D30A498842F5DB29
:101320007F21C905284607F05FF8A06000202060F3
:10133000F8BD00001000002000080048CDCC4C3E55
:10134000CDCC4C009A99993E70B5144D2878002860
:1013500022D0134801210068C90588421CDA2C46B6
:10136000083C2078401CC6B20E48267001686068B0
:1013700006F064FF6060322E0ED30B49FFF734FC99
:101380000A494860002060602070287009490848B8
:10139000086009490120087070BD0000D4000020D9
:1013A000140000203C00002000004842240A0020D5
:1013B0000000A04018000020B400002010B5044632
:1013C0000846FFF723FD002C08D0054906F07CFFF6
:1013D0000449FFF709FC044906F030FF10BD000086
:1013E0000000B442000048420000A043F8B5184E87
:1013F000717801291ED1194F1649174D7A684B880B
:101400002968541E002B02D0F37B002B0CD0002A3D
:1014100010D006F013FF7F21C9052860884209DB40
:101420007C60002C0AD006E0002A03D0094A12781A
:10143000032AEED0F8BD00202860F8BD084902203C
:1014400008700120F070084906480860F3E70000C2
:10145000CC0A0020E00A0020F4000020140B002039
:10146000FC0A00200000A04018000020F8B50D4D37
:101470000026AF680C4C7900090E002910D0216BB2
:1014800006F0DCFE3F2109062063884207DBE07995
:10149000C043E071384606F0A7FFA8602663F8BD98
:1014A000E671F8BDCC0A002058000020F8B5354E92
:1014B0008446F078002840D0334D01272846C28862
:1014C00032482B7D00240168002B41D07378012B1A
:1014D0000AD0687D002831D0002201212C4803F079
:1014E0001EFD2C706C7530E0642A26D8274D6046AE
:1014F00006F0A4FE0121890703C506F03DFF1CD2BA
:10150000214D687D002807D000220121204803F0EA
:1015100006FD2C706C7506E0012211461C4803F094
:10152000FEFC2C706F751C481A490160F4701C4950
:101530002C751A48486015480460F8BD0122114610
:10154000134803F0ECFC2C706F75F4702C75F8BD2B
:10155000642AFCD80546604606F070FE7F21C90566
:1015600028608842F3DD0F48446274700E48F470BE
:10157000816841600D4807700D4807700D4807707D
:101580002C60F8BDCC0A0020FC0A0020EC000020F2
:1015900000040048CDCCCC3D140000200000D84110
:1015A0003C0A0020A40A0020140B0020B2000020F6
:1015B000B1000020B0000020F8B50F4D6978022975
:1015C00008D10E490026497801270D4C012902D087
:1015D000A6622F70F8BDA16A06F030FE01218907CE
:1015E000A062884206DD8121C9052F708842F1DBA7
:1015F000A662F8BD2E70F8BD240B0020CC0A002096
:101600005800002070B50D4C0546A07E002807D07C
:10161000FFF704FC294606F0E7FEFFF7BBFBA076C8
:10162000064C2034A07F002807D0FFF7F7FB29469F
:1016300006F0DAFEFFF7AEFBA07770BD980300203E
:10164000F0B529482949007A0C235843254A441803
:1016500027481678012543780021002E14D025480C
:1016600002268788865FB7420DD047888780A660AC
:101670000678002E00D001701F48012B057002D1A2
:101680001F4E1E48306011705078002814D01D483D
:1016900002270426C75F865FB7420CD0468066608B
:1016A0000678002E00D001701348012B057002D17E
:1016B000134E1248306051709078002811D01248B3
:1016C00087680668B74209D0866046600A48E660C7
:1016D0000570012B02D10A4B08481860044891702C
:1016E0008170F0BDB0000020240B0020A409002070
:1016F000CC0A0020FC0A0020B4000020CDCCCC3D58
:1017000014000020E00A0020140B0020F1B5144F53
:101710003F26787B36060025124C00280BD0616BE3
:10172000009806F08BFD6063B04206DBA07AC043F0
:10173000A072656301E06563A572387B00280BD059
:10174000A16B009806F07AFDA063B04203DBE07A5B
:10175000C043E072A563F8BDA563E572F8BD000063
:10176000CC0A002058000020F1B57C4D82B0686C96
:1017700000904000010E7A483F26877F00243606FD
:10178000002901D0002F01D0AC7014E0E968029864
:1017900006F054FD3146E86088420DDB009806F003
:1017A00023FE6864A9784000C943A970000E02D1E5
:1017B0006C4901200870EC606848806C0090400023
:1017C000010E6948857E01D0002D02D06348447027
:1017D00019E062480169029806F030FD5F4908612E
:1017E0003146884210DB009806F0FEFD5B495B4AFB
:1017F000886449784000C9435170000E02D15B49AA
:1018000001200870554804615448C06C00904000A5
:10181000000E03D0002F01D1002D02D04F48C4701C
:1018200019E04E484169029806F008FD4B494861AD
:101830003146884210DB009806F0D6FD4749474AFA
:10184000C864C9784000C943D170000E02D148492C
:1018500001200870414844614048006C00904000FD
:10186000000E03D0002F01D1002D02D03B480470A0
:101870001DE03A488169029806F0E0FC374988612A
:101880003146884214DB009806F0AEFD3349334AF6
:10189000086409784000C9431170000E06D134492C
:1018A00001200870314908702E4908702B48846166
:1018B0002A48006D01904000010E2E4800780090EB
:1018C00001D0002D0CD025480472C461234D686DF1
:1018D00001904000000E01D0002F1AD06C7236E04B
:1018E000002811D01D4D0298E96906F0A7FC314689
:1018F000E8618842EADB019806F076FD2865287ADF
:10190000C0432872EC61E1E71448C46104650472C5
:10191000DCE70098174F00281BD0296A029806F0D0
:101920008DFC31462862884212DB019806F05CFD8E
:101930000121C9056865884206DA7878022803D152
:10194000B878387205F0F2FA687AC04368722C628F
:10195000FEBD2C626C656C72FEBD0000580000205C
:10196000B8030020B000002098030020B100002040
:10197000B2000020240B002010B5064C216906F0AF
:101980005DFC7F21C9052061884202DB0020E080E8
:10199000206110BDFC0A0020F8B52F4A00255178BF
:1019A0002E4C002955D02E4B2E4E5B78012B01D1A9
:1019B000022901D0D6804AE0616A4B001B0E3FD15C
:1019C00013795B1CDBB21371112B01D90623137140
:1019D000DFB23B0006F050FB120A0C0E1012141678
:1019E000181A1C1F2225282B2E303234D68027E0CF
:1019F000012324E0032322E0072320E00F231EE03D
:101A00001F231CE03F231AE07E2318E0FC2316E08E
:101A1000FF23F93313E03F231B0110E03F235B0159
:101A20000DE03F239B010AE00E4B7E3B07E00D4B90
:101A3000FC3B04E00C4B02E00C4B00E00C4BD38071
:101A400006F0FCFB3F2109066062884200DB65620C
:101A5000F8BDD580FBE70000240B002058000020D3
:101A6000CC0A0020FF0F0000070E00000F0C000042
:101A70001F08000010B5024802F0CCFC10BD0000A9
:101A80003C01002010B5024802F0C4FC10BD00006B
:101A90003003002010B504460068054940181421A1
:101AA000FEF728FC800020640248E06310BD0000BF
:101AB000F8FFFDBF0000024030B5056C0124AC40CA
:101AC000C56B6C60046863604368102B036803D0C7
:101AD00099600068C26030BD9A600068C16030BD26
:101AE00070B52348002441782248012903D004819D
:101AF0008481047070BD1F4A8388D1881289002BAD
:101B000030D01B4C06780325E478002E07D0012E38
:101B100009D0022E10D0032EECD1038170BD934268
:101B200008D301260670818191420CD98A420BD2DA
:101B3000018109E002260670818191420AD28A421F
:101B400009D9018107E00281002CE7D1018999427E
:101B500006D270BD0281002CFBD101899942F8D8D0
:101B6000057070BD002A01D0018170BD048170BD77
:101B7000CC0A0020FC0A0020F8B584464A48062119
:101B800042784A480025415E002A6ED00224045F54
:101B9000002C6AD0464A474B12689A4201DA282341
:101BA00006E0AF221201944201DA642300E08C23A4
:101BB000621A002A00DC0A1B9A426BDA03787D263F
:101BC00036013D4F002B0AD038481222825E012B8D
:101BD0001ED0022B4AD0032B00D18481F8BD8C4249
:101BE00007DD01220270B44201DA344ABA60418250
:101BF000F8BD8C4205DA02220270B442F7DABD6009
:101C0000F5E703210170B442F2DA2D48B860F8BD5F
:101C10000182914202DD254881811EE07D20C000C5
:101C2000844216D121480C21415E009191420ED18F
:101C30002448C16B604606F001FB2249C863204975
:101C4000884206DD00981949401C888148821D4859
:101C5000C5631648418A818101821448018A418204
:101C60000C21415EA1420EDAF8BD16E001829142DC
:101C700001DA818101E082810282018A41820C21A4
:101C8000415EA142F0DC03210170B442ECDA0E485F
:101C90004560BAE705708181E6E78181058245826A
:101CA00005700848C563DFE7CC0A0020E00A002081
:101CB0003C00002000800945640A00200000F0413B
:101CC0000000204158000020700A0020F8B5FF4DA8
:101CD0000C210024695E287EFFF770FBFFF734F8C3
:101CE00006B20E21695E287EFFF768FBFFF72CF82D
:101CF00005B2F748F74F017B002978D01B21F64841
:101D0000FEF7F4FA0021F54804F090F8F34DC820EE
:101D100029684863ED4E0820305EFF21F531884286
:101D20007ADDEF48C07A002823D006220F210B204D
:101D300006F0D2F90E2211460C2006F0CDF90C2245
:101D40000F210D2006F0C8F90E210C22084606F0DE
:101D5000C3F90F210E22084606F0BEF904220E2117
:101D6000102006F0B9F90825755F002D1CDB284608
:101D70001FE000220F210B2006F0AEF900220E21F9
:101D80000C2006F0A9F900220F210D2006F0A4F97D
:101D90000E210022084606F09FF90F210022084676
:101DA00006F09AF90022DAE728466330632811D258
:101DB00068427D21C900FEF7A7FA0A21FEF7A4FABE
:101DC000CCB2230006F058F90A14292B32343638E5
:101DD0003F46480CBF48E9196438814208D80A24B4
:101DE00000220F21104606F077F904220AE05BE199
:101DF000BD4201DD0F2227E000220F21104606F030
:101E00006BF900220E21012006F066F90825755FA6
:101E1000002D28DB284632E031E1002214E00D22BB
:101E20000F21002006F058F90622EBE7092214E002
:101E3000022212E00B2200E00F220F21002006F008
:101E40004BF90C22DEE701220F21002006F044F9B5
:101E50000A22D7E70F2200E00B220F21002006F014
:101E60003BF90E22CEE728466330632801D20A24CC
:101E70004EE09848E9196438814207D868426421E5
:101E8000FEF742FA0A21FEF73FFACCB2230006F031
:101E9000F3F80A06191B222426282F36383F632D13
:101EA00001DD0F2225E000220F21022006F014F9A7
:101EB00000220E21032006F00FF90820305E0028D2
:101EC0002DDA34E0002214E00D220F21022006F06A
:101ED00003F90622EDE7092214E0022212E00B22A8
:101EE00000E00F220F21022006F0F6F80C22E0E7B6
:101EF00001220F21022006F0EFF80A22D9E70F2273
:101F000000E00B220F21022006F0E6F80E22D0E7B7
:101F100000220F21022006F0DFF80422C9E70A217F
:101F2000FEF7F2F90A21FEF7EFF9CCB20AE001461A
:101F30006331632904D36749C21964398A4201D8DD
:101F40004042ECE7230006F097F80A0608171E2027
:101F500022242B2D2F360F2200E000220F210420F7
:101F600006F0BAF80A220E21052006F0B5F808207E
:101F7000305E002826DA2AE00D220F21042006F028
:101F8000ABF80622EFE709220FE002220DE00B2258
:101F900000E00F220F21042006F09EF80C22E2E759
:101FA0000122DBE70F2200E00B220F21042006F0C4
:101FB00093F80E22D7E700220F21042006F08CF8B8
:101FC0000422D0E70A21FEF79FF9CCB20AE00146CD
:101FD0006331632904D33F49C21964398A4201D865
:101FE0004042EFE7230006F047F80A0608202729B9
:101FF0002B2D3436383F0F2200E000220F2106201F
:1020000006F06AF80A220E21072006F065F8307EF5
:10201000002830D008210022084606F05DF8012291
:102020001146052006F058F831E00D220F21062058
:1020300006F052F80622E6E709220FE002220DE040
:102040000B2200E00F220F21062006F045F80C229B
:10205000D9E70122D2E70F2200E00B220F21062050
:1020600006F03AF80E22CEE700220F21062006F0F5
:1020700033F80422C7E7802211460720CDE700216C
:10208000164803F0F7FFFF20296890304863124D8F
:1020900000246006295D000E012205F0F1FE641C9B
:1020A000E4B21B2CF5D3F8BD0948407B002875D05D
:1020B00000210A4803F0BAFE0849C82009684863AD
:1020C0001B210548FEF712F9004E0BE0E00A002044
:1020D000CC0A0020E703000086090020A0020020AF
:1020E00058000020707E002804D0012824D0022847
:1020F00030D018E0F748807A00280AD0F648807B74
:10210000002806D100220121082005F0E5FF002269
:1021100005E001221146082005F0DEFF022202211F
:10212000082005F0D9FFED48C07D002822D0012805
:102130004AD0022856D041E0E648807A002803D0F1
:10214000E548807B002803D00422042108200CE00D
:102150000022FAE7DF48807A002803D0DE48807B3F
:10216000002805D002220221092005F0B5FFD0E7A2
:102170000022F8E7D748807A002810D0D648807B24
:1021800001280CD100220121112005F0A5FF002219
:1021900002210A2005F0A0FF00220BE01DE201222F
:1021A0001146112005F098FF022211460A2005F081
:1021B00093FF012201210A2005F08EFF307E0028C6
:1021C00020D0012831D042E0C248807A002803D0D4
:1021D000C148807B012803D00822082109200CE097
:1021E0000022FAE7BB48807A002803D0BA48807BF7
:1021F000012805D0042204210A2005F06DFFCEE756
:102200000022F8E7B348807A002803D0B248807BE8
:10221000042808D080228021072005F05DFF0022DD
:102220000821084611E00022F5E7AA48807A002834
:1022300003D0A948807B04283BD008220821084607
:1022400005F04AFF00228021072005F045FFA14D3F
:10225000A87A002803D0A048807B03282BD0012235
:102260000121084605F038FFA87A002803D09A48D3
:10227000807B022821D00F221146122005F02CFF6E
:1022800000220E21112005F027FF9348C07B002873
:102290002ED00D220F210B2005F01EFF06220E214D
:1022A0000C2005F019FF1A25755F002D27DB284645
:1022B0002AE00022C2E70022D2E700220F211220EA
:1022C00005F00AFF00220E21112005F005FF002273
:1022D0000F210B2005F000FF00220E210C2005F03D
:1022E000FBFE00220F210B2005F0F6FE0022D6E7B0
:1022F00000220F210B2005F0EFFE0A22CFE728462F
:102300006330632811D268427D21C900FDF7FCFFCC
:102310000A21FDF7F9FFCCB2230005F0ADFE0A1249
:1023200026282F3133353C43450B6D48E91981424E
:1023300007D80A240022F021104605F0CDFE202205
:1023400009E0BD4201DDF02226E00022F021104626
:1023500005F0C2FE00227021012005F0BDFE1A2505
:10236000755F002D27DB284630E0002214E0D022E4
:10237000F021002005F0B0FE3022ECE7902214E0BE
:10238000202212E0B02200E0F022F021002005F02F
:10239000A3FE6022DFE71022F021002005F09CFE62
:1023A0005022D8E7F02200E0B022F021002005F012
:1023B00093FE7022CFE728466330632801D20A24B7
:1023C0004DE04748E919814207D868426421FDF78A
:1023D0009BFF0A21FDF798FFCCB2230005F04CFECD
:1023E0000A06191B222426282F36383F632D01DDCB
:1023F000F02225E00022F021022005F06DFE0022EF
:102400007021032005F068FE1A20305E00282DDAC6
:1024100034E0002214E0D022F021022005F05CFE1E
:102420003022EDE7902214E0202212E0B02200E0FA
:10243000F022F021022005F04FFE6022E0E710229A
:10244000F021022005F048FE5022D9E7F02200E0FA
:10245000B022F021022005F03FFE7022D0E70022DA
:10246000F021022005F038FE2022C9E70A21FDF7FD
:102470004BFF0A21FDF748FFCCB209E0014663316A
:10248000632903D31649C2198A4201D84042EDE7B5
:10249000230005F0F1FD0A06081727292B2D3436F5
:1024A000383FF02200E00022F021042005F014FE65
:1024B00050227021052005F00FFE1A20305E002802
:1024C0002FDA33E0D022F021042005F005FE30227F
:1024D000EFE7000058000020CC0A0020FC0A002092
:1024E0008303000090220FE020220DE0B02200E0E4
:1024F000F022F021042005F0EFFD6022D9E7102240
:10250000D2E7F02200E0B022F021042005F0E4FD43
:102510007022CEE70022F021042005F0DDFD20220C
:10252000C7E70A21FDF7F0FECCB209E001466331AE
:10253000632903D3FE49C2198A4201D84042F0E719
:10254000230005F099FD0A0608242B2D2F31383A77
:102550003C43F02200E00022F021062005F0BCFD03
:1025600050227021072005F0B7FD8022114605207A
:1025700005F0B2FDEF4D00246006295D000E01223A
:1025800005F07EFC641CE4B21B2CF5D3F8BDD02210
:10259000F021062005F0A0FD3022E2E790220FE0B6
:1025A00020220DE0B02200E0F022F021062005F00C
:1025B00093FD6022D5E71022CEE7F02200E0B022A2
:1025C000F021062005F088FD7022CAE70022F021E4
:1025D000062005F081FD2022C3E70021D64803F044
:1025E00025FCD549C820096848631B21D148FDF75F
:1025F0007DFE002E03DB7D21C900304606E030461B
:102600006330632811D27D217042C900FDF77CFE42
:102610000A21FDF779FECCB2230005F02DFD0A0E4C
:1026200015262D2F31333A3C3E070A2400220F2174
:10263000104605F051FD04220EE0BE4206DD0F22D9
:102640000F21002005F048FD0A2205E000220F219D
:10265000104605F041FD00220E21012005F03CFD51
:10266000002E21DB642130462AE00D220F210020BC
:1026700005F032FD0622EFE709220FE002220DE00D
:102680000B2200E00F220F21002005F025FD0C2277
:10269000E2E70122D4E70F2200E00B220F21002005
:1026A00005F01AFD0E22D7E730466330632801D2C9
:1026B0000A2456E09E48F119814207D870426421ED
:1026C000FDF722FE0A21FDF71FFECCB2230005F024
:1026D000D3FC0A0622242B2D2F31383F4148632E8C
:1026E0000ADD0F221146022005F0F6FC0A220E2117
:1026F000032005F0F1FC0BE000220F21022005F081
:10270000EBFC00220E21032005F0E6FC002E2FDB5F
:102710000A21304636E0002214E00D220F2102206B
:1027200005F0DAFC0622EDE7092214E0022212E0AD
:102730000B2200E00F220F21022005F0CDFC0C221D
:10274000E0E701220F21022005F0C6FC0A22D9E7AA
:102750000F2200E00B220F21022005F0BDFC0E220B
:10276000D0E700220F21022005F0B6FC0422C9E7C1
:1027700030466330632803D36D48F119814207D88E
:1027800070420A21FDF7C0FD0A21FDF7BDFDCCB264
:10279000230005F071FC0A0608171E2022242B2DA9
:1027A0002F360F2200E000220F21042005F094FCB8
:1027B0000A220E21052005F08FFC002E28DB0A21BD
:1027C00030462FE00D220F21042005F085FC062263
:1027D000EFE709220FE002220DE00B2200E00F22BA
:1027E0000F21042005F078FC0C22E2E70122DBE750
:1027F0000F2200E00B220F21042005F06DFC0E22B9
:10280000D7E700220F21042005F066FC0422D0E760
:1028100030466330632803D34548F119814204D818
:1028200070420A21FDF770FDCCB2230005F024FCB4
:102830000A06083B424446484F51535A0F2200E0D3
:1028400000220F21062005F047FC0A220E21072056
:1028500005F042FC394E707800284AD00022F02161
:10286000104605F039FC00227021012005F034FCEF
:102870000022F021022005F02FFC0022702103200D
:1028800005F02AFC0022F021042005F025FC00229E
:102890007021052005F020FC0022F021062005F023
:1028A0001BFC0022A3E10D220F21062005F014FCE1
:1028B0000622CBE709220FE002220DE00B2200E006
:1028C0000F220F21062005F007FC0C22BEE7012293
:1028D000B7E70F2200E00B220F21062005F0FCFBDA
:1028E0000E22B3E700220F21062005F0F5FB04229B
:1028F000ACE7002D04D02BDB7D21C90028462EE05B
:102900000022F021104605F0E7FB20227021012073
:1029100005F0E2FB0022F021022005F0DDFB202281
:102920007021032005F0D8FB0022F021042007E0ED
:102930008303000086090020A00200205800002028
:1029400005F0CAFB20227021052005F0C5FB66E1D9
:1029500028466330632809D27D216842C900FDF70B
:10296000D3FC0A21FDF7D0FCCCB205E0F848E91908
:10297000814201D80A2441E0230005F07DFB0A06CC
:10298000191B222426282F36383FBD4201DDF022B4
:1029900025E00022F021104605F09EFB0022702168
:1029A000012005F099FB002D2FDB6421284638E03B
:1029B000002214E0D022F021002005F08DFB30220F
:1029C000EDE7902214E0202212E0B02200E0F02295
:1029D000F021002005F080FB6022E0E71022F021CA
:1029E000002005F079FB5022D9E7F02200E0B02268
:1029F000F021002005F070FB7022D0E70022F021CA
:102A0000104605F069FB2022C9E728466330632899
:102A100001D20A2456E0CE48E919814207D868421B
:102A20006421FDF771FC0A21FDF76EFCCCB2230096
:102A300005F022FB0A0622242B2D2F31383F414876
:102A4000632D0ADDF0221146022005F045FB5022DD
:102A50007021032005F040FB0BE00022F021022052
:102A600005F03AFB00227021032005F035FB002D14
:102A70002FDB0A21284636E0002214E0D022F02184
:102A8000022005F029FB3022EDE7902214E02022FD
:102A900012E0B02200E0F022F021022005F01CFB41
:102AA0006022E0E71022F021022005F015FB502201
:102AB000D9E7F02200E0B022F021022005F00CFB63
:102AC0007022D0E70022F021022005F005FB202231
:102AD000C9E728466330632803D39D48E91981423A
:102AE00007D868420A21FDF70FFC0A21FDF70CFC0C
:102AF000CCB2230005F0C0FA0A0608171E202224D3
:102B00002B2D2F36F02200E00022F021042005F0CA
:102B1000E3FA50227021052005F0DEFA002D28DBB3
:102B20000A2128462FE0D022F021042005F0D4FA13
:102B30003022EFE790220FE020220DE0B02200E0EB
:102B4000F022F021042005F0C7FA6022E2E710220B
:102B5000DBE7F02200E0B022F021042005F0BCFA0F
:102B60007022D7E70022F021042005F0B5FA2022D8
:102B7000D0E728466330632803D37548E9198142BA
:102B800004D868420A21FDF7BFFBCCB2230005F050
:102B900073FA0A06080F16181F21282A2C46F0225D
:102BA00000E00022F021062005F096FA50221EE0F7
:102BB000D022F021062005F08FFA302217E0902273
:102BC00000E02022F021062005F086FA70220EE0B7
:102BD000B02200E0F022F021062005F07DFA60220C
:102BE00005E01022DEE7F022ECE7B022EAE77021F0
:102BF000072005F071FA574C2089B84259D97D2138
:102C0000C900FDF777FB0A21FDF774FB0B0005F007
:102C100033FA0A500D141B1D24262D2F3149002292
:102C2000F021062005F058FA2022E0E700220F21CB
:102C3000122005F051FA0A221EE00D220F21122067
:102C400005F04AFA062217E0092200E002220F21CD
:102C5000122005F041FA0E220EE00B2200E00F22B6
:102C60000F21122005F038FA0C2205E00122DEE7E0
:102C70000F22ECE70B22EAE70E21112005F02CFAD7
:102C8000208963285AD96421FDF734FB0A21FDF716
:102C900031FB0B0005F0F0F90A520F161D1F262814
:102CA0002F31334B00220F21122005F015FA042298
:102CB000E2E70F22BBE700220F210B2005F00CFA00
:102CC0000A221EE00D220F210B2005F005FA062234
:102CD00017E0092200E002220F210B2005F0FCF989
:102CE0000E220EE00B2200E00F220F210B2005F038
:102CF000F3F90C2205E00122DEE70F22ECE70B22BC
:102D0000EAE70E210C2005F0E7F9208909285AD9B5
:102D10000A21FDF7EFFA0A21FDF7ECFA0B0005F0A6
:102D2000ABF90A520F1B22242B2D3436384B0022CC
:102D30000F210B2005F0D0F90422E2E70F22BBE7B8
:102D400000220F210D2005F0C7F90A2223E0000020
:102D500083030000FC0A00200D220F21104605F01D
:102D6000BBF9062217E0092200E002220F210D2004
:102D700005F0B2F90E220EE00B2200E00F220F2127
:102D80000D2005F0A9F90C2205E00122D9E70F2258
:102D9000ECE70B22EAE70E21084605F09DF92089B1
:102DA0000A21FDF7A7FA0B0005F066F90A0F114397
:102DB0004A4C4E5057595B6200220F210D2005F0FE
:102DC0008BF90422E7E70F22BBE70F2200E0002285
:102DD0000F21084605F080F90A220E21102005F087
:102DE0007BF9B07800284AD00022F021122005F0AB
:102DF00073F900227021112005F06EF90022F021F4
:102E00000B2005F069F9002270210C2005F064F90F
:102E10000022F0210D2005F05FF9002270210E2024
:102E200005F05AF90022F0210F2005F055F9002293
:102E30004CE10F210D22084605F04EF90622CCE7A1
:102E400009220FE002220DE00B2200E00F220F21E9
:102E5000084605F041F90C22BFE70122B8E70F222E
:102E600000E00B220F21084605F036F90E22B4E7E8
:102E70000F210022084605F02FF90422ADE76089F2
:102E8000002811D0B84272D97D21C900FDF732FA6D
:102E90000A21FDF72FFA0B0005F0EEF80A69252C40
:102EA00033353C3E454749610022F021122005F0B0
:102EB00013F920227021112005F00EF90022F021D3
:102EC0000B2005F009F9202270210C2005F004F9EF
:102ED0000022F0210D2005F0FFF8202270210E20A5
:102EE00005F0FAF8FBE00022F021122005F0F4F8DA
:102EF00050221EE0D022F021122005F0EDF8302201
:102F000017E0902200E02022F021122005F0E4F8E2
:102F100070220EE0B02200E0F022F021122005F035
:102F2000DBF8602205E01022DEE7F022ECE7B022B9
:102F3000EAE77021112005F0CFF8608963285BD99A
:102F40006421FDF7D7F90A21FDF7D4F90B0005F04C
:102F500093F80A5310171E2027293032344C0022D0
:102F6000F021122005F0B8F82022E2E7FFE7F02276
:102F7000BAE70022F0210B2005F0AEF850221EE047
:102F8000D022F0210B2005F0A7F8302217E0902284
:102F900000E02022F0210B2005F09EF870220EE0C8
:102FA000B02200E0F022F0210B2005F095F860221D
:102FB00005E01022DEE7F022ECE7B022EAE770211C
:102FC0000C2005F089F86089092855D90A21FDF7F8
:102FD00091F90A21FDF78EF90B0005F04DF80A4D25
:102FE0000F161D1F26282F3133460022F0210B20FB
:102FF00005F072F82022E2E7F022BBE70022F02180
:103000000D2005F069F850221EE0D022F0210D209D
:1030100005F062F8302217E0902200E02022F02133
:103020000D2005F059F870220EE0B02200E0F022E9
:10303000F0210D2005F050F8602205E01022DEE7B7
:10304000F022ECE7B022EAE770210E2005F044F808
:1030500060890A21FDF74EF90B0005F00DF80A0F03
:1030600011181F21282A313335400022F0210D206C
:1030700005F032F82022E7E7F022C0E7F02200E076
:103080000022F0210F2005F027F850221EE0D02268
:10309000F0210F2005F020F8302217E0902200E008
:1030A0002022F0210F2005F017F870220EE0B02248
:1030B00000E0F022F0210F2005F00EF8602205E07C
:1030C0001022DEE7F022ECE7B022EAE770211020C0
:1030D00005F002F8FA4D286800283FD106E00022EA
:1030E000F0210F2004F0F8FF2022EFE7F54989785E
:1030F000032933D000220F211A2004F0EDFF002213
:103100000721192004F0E8FF00220F21182004F005
:10311000E3FF00220721172004F0DEFF00220F2129
:10312000162004F0D9FF00220721152004F0D4FF57
:1031300000220F21142004F0CFFF002207211320CA
:1031400004F0CAFF00220121092004F0C5FF00227B
:103150008021132004F0C0FF00228CE1F178E127E8
:103160003F01002924D000220F211A2004F0B4FFCF
:1031700000220721192004F0AFFF00220F211820A0
:1031800004F0AAFF00220721172004F0A5FF002267
:103190000F21162004F0A0FF00220721152004F0C3
:1031A0009BFF00220F21142004F096FF00224DE126
:1031B000002804D0E868B84220D3C34922E00022A6
:1031C0000F211A2004F088FF02220721192004F0A1
:1031D00083FF00220F21182004F07EFF0222072126
:1031E000172004F079FF00220F21162004F074FF4D
:1031F00002220721152004F06FFF42E13B280DD980
:103200004B21C900FDF776F8C0B2030004F034FF8B
:103210000A080A19202224262D2F313800282FD001
:103220000F2200E000220F211A2004F055FF052292
:103230000721192004F050FFE868B84227D3394627
:1032400028E00D220F211A2004F046FF0322EFE7A9
:1032500009220FE002220DE00B2200E00F220F21D5
:103260001A2004F039FF0622E2E70122DBE70F22F1
:1032700000E00B220F211A2004F02EFF0722D7E7CF
:1032800000220F211A2004F027FF0222D0E73B285A
:103290000ED93C21FDF72EF80A21FDF72BF80B0083
:1032A00004F0EAFE0A080A21282A2C2E3537394074
:1032B000002837D00F2200E000220F21182004F050
:1032C0000BFF05220721172004F006FFE868B8422B
:1032D0002FD33946FDF70EF808464B21C900FDF7FC
:1032E00009F8C0B230E00D220F21182004F0F4FEDE
:1032F0000322E7E709220FE002220DE00B2200E0A3
:103300000F220F21182004F0E7FE0622DAE701223F
:10331000D3E70F2200E00B220F21182004F0DCFE7F
:103320000722CFE700220F21182004F0D5FE022249
:10333000C8E73B2801D8002845D03C21FCF7DAFF3C
:1033400008460A21FCF7D6FF030004F095FE0A06A2
:10335000081D2426282A3133353C0F2200E00022A4
:103360000F21162004F0B8FE05220721152004F0D5
:10337000B3FEE868394688422CD3FCF7BBFF084609
:103380003C21FCF7B7FF2DE00D220F21162004F0A1
:10339000A3FE0322E9E709220FE002220DE00B223F
:1033A00000E00F220F21162004F096FE0622DCE733
:1033B0000122D5E70F2200E00B220F21162004F096
:1033C0008BFE0722D1E700220F21162004F084FE95
:1033D0000222CAE73B2801D8002852D03C21FCF742
:1033E00089FF08460A21FCF785FF0B0004F044FE24
:1033F0000A06080F16181F21282A2C490F2200E060
:1034000000220F21142004F067FE05221EE00D2289
:103410000F21142004F060FE032217E0092200E0CF
:1034200002220F21142004F057FE07220EE00B2287
:1034300000E00F220F21142004F04EFE062205E0CA
:103440000122DEE70F22ECE70B22EAE70721132037
:1034500004F042FE01221146092004F03DFE70797D
:10346000002815D000228021132004F035FEE868E2
:10347000B8420FD2082208210A2004F02DFE0022B3
:103480000EE000220F21142004F026FE0222DDE7C8
:103490008022E8E7002208210A2004F01DFE102205
:1034A00010210A2004F018FE084D287E00280FD0B5
:1034B00008221146104604F00FFE00220EE0000024
:1034C000140B0020CC0A0020A08C0000E00A002091
:1034D00008210022084604F0FFFD802280210720F9
:1034E00004F0FAFD307900280FD0002201210820D5
:1034F00004F0F2FD00220221082004F0EDFD687EB8
:10350000012809D002280BD00FE001221146082023
:1035100004F0E2FD0222EEE704221146082002E058
:1035200002221146092004F0D7FD01221146052090
:1035300004F0D2FD80221146052004F0CDFDDA48CA
:10354000DA490068884201DA012200E00022012104
:10355000072004F0C1FDD6480079002802D0F07998
:1035600000280ED000220421092004F0B5FDB07916
:10357000002808D0012808D0022820D0032813D121
:1035800029E00422EFE7012200E0002201211120BE
:1035900004F0A2FD022202210A2004F09DFD012276
:1035A00001210A2004F098FD802211460E2004F02B
:1035B00093FDE07D012815D0022817D01BE00122E1
:1035C0001146112004F088FD022211460A2004F061
:1035D00083FD0022E4E701221146112004F07CFD66
:1035E0000022D8E708221146092002E004221146F1
:1035F0000A2004F071FDAF4CA079C00701D0102261
:1036000000E0002210211A2004F066FDA079800756
:1036100001D5082200E000220821172004F05CFDFB
:10362000A079400701D5082200E0002208211320DC
:1036300004F052FDA079000701D5102200E000221D
:103640001021132004F048FDA079C00601D52022E6
:1036500000E000222021132004F03EFDA079800626
:1036600001D5402200E000224021132004F034FD67
:10367000A079400601D5802200E00022802114209C
:1036800004F02AFDA079000601D5802200E0002286
:103690008021162004F020FDE088C00501D580229D
:1036A00000E000228021182004F016FDE08880054B
:1036B00001D5802200E0002280211A2004F00CFDB8
:1036C000E088400501D5402200E0002240211A2078
:1036D00004F002FDE088000501D5202200E0002270
:1036E00020211A2004F0F8FC607800280FD0207800
:1036F000002809D0307A00285CD00022F02119205F
:1037000004F0EAFC002280E03078002814D0002287
:10371000F021192004F0E0FC00227021182004F0B0
:10372000DBFC0022F021172004F0D6FC00227021DF
:10373000162004F0D1FC79E07022F021192004F069
:10374000CBFC30227021182004F0C6FC0022F021AE
:10375000172004F0C1FC20227021162004F0BCFCCC
:10376000207A030004F088FC0A8D8F0C91939597C2
:10377000999B9D1FF021152004F0AEFC50225BE0C8
:10378000D022F021152004F0A7FC302254E0F021D3
:10379000152004F0A1FC70224EE0F021152004F069
:1037A0009BFC602248E00022F021152004F094FCEC
:1037B000202241E0A078030004F05EFC0A06080F16
:1037C00016181F214F515355F02200E00022F0211E
:1037D000192004F081FC502217E0D022F02119209A
:1037E00004F07AFC302210E0902200E02022F02148
:1037F000192004F071FC702207E0B02200E0F022F2
:10380000F021192004F068FC60227021182004F0D7
:1038100063FC0022F021172004F05EFC20227021BE
:10382000162004F059FC707A00281ED00022F021E6
:10383000152004F051FC00227021142004F04CFCEF
:103840001D4D00246006295D000E012204F018FBC6
:10385000641CE4B21B2CF5D3F8BD1022B7E7F022AC
:10386000C5E7B022C3E77022B8E7E078030004F0B0
:1038700003FC0A080A070C0E10121416180692E729
:103880007EE7F02276E7002274E790227FE720228D
:103890007DE7B02281E7F0227FE710226AE7F0227D
:1038A00075E7B02273E700003C0000200080094566
:1038B000CC0A0020240B002086090020F1B5914895
:1038C0000189C06801F026FB8E4F00258E4C012631
:1038D0002037002805D1207B00287DD1787800286A
:1038E00003D03878012808D082E08648C169009862
:1038F00004F0A4FC8349C8613E7082480189C06815
:1039000001F008FB01283ED17E4A8048D1690918A0
:103910007F48814234D22079002805D001207D499A
:1039200080070860A0602BE0607B012807D06078EA
:1039300001281DD07848418800290CD107E0A07BE0
:10394000401CC0B2A073042816D9A57314E07349B3
:10395000898800290CD066700570C07D012801D0CF
:10396000022801D06E4800E06E486F49486003E0CD
:10397000694902200870E67064486C49404208605A
:103980003D707D70D5615F486949C06940186949DB
:1039900088422DD2787800282AD12079002805D0B5
:1039A00001205C4980070860A06020E0607B01285E
:1039B00002D0002815D016E065735849A5735E48FB
:1039C0000A7E02774A7E4277534AD27D8277498BBC
:1039D00020300180E17B00E093E081705748067061
:1039E00001E06673A57349485049404208607E7003
:1039F0004448818D006B01F08DFA424F403700281A
:103A000005D1207B00287CD1787900280BD038792B
:103A1000012876D13B48818D006B01F07BFA484A42
:103A2000012809D047E03748016C009804F006FCF3
:103A3000344908643E71EDE7324B3448196C09187B
:103A40003348814234D22079002805D00120314901
:103A500080070860A0602BE06078012814D02E4811
:103A60004188002903D12D49898800290CD066702E
:103A70000570C07D012801D0022801D0284800E04F
:103A800028482949486003E0234902200870E6706D
:103A90002C48167006702C48244906702B48056087
:103AA0002B4805602B480560184840420860A57007
:103AB0003D717D711D6413482749006C40182749EA
:103AC00088421ED2787900281BD12079002805D0A1
:103AD0000120104980070860A06011E00E48017DB8
:103AE000002909D102210170E67006758675154816
:103AF000167006701448067004480C49404208606D
:103B00007E71F8BD98030020CC0A0020333333C205
:103B10003333F30118000020FC0A0020E00A0020E3
:103B20000000F041000020423C0A00201400002068
:103B3000FFFFBFBFFFFF3F00040A0020B4000020CA
:103B4000B2000020B1000020B0000020A40000203E
:103B5000A00000209C000020FFFF3FC0FFFF7F006F
:103B600001210D4889030180491041800B49012240
:103B70001203416002812822C160012302749B026A
:103B800083845B00C3848162082181850921C90681
:103B9000016320300275704798030020000400483C
:103BA00070B50B4C3C21208B48431421FCF7A2FB41
:103BB000FDF734F9002560612583A08F3C2148433F
:103BC0001421FCF797FBFDF729F9A063A58770BDC9
:103BD0009803002010B50120800201F0BDF80120FB
:103BE000800301F0B9F810BD10B5044801F05CFD88
:103BF0000021024801F0EEFE10BD0000800100200F
:103C000072B6FEE706490020C86106480169042231
:103C100011430161016940221143016170470000B5
:103C20007803002000200240064A0021D1610649A5
:103C30000A6902231A430A61486108694022104355
:103C400008617047780300200020024010B5054B42
:103C50000022DA61044A13690124234313610180BD
:103C600010BD0000780300200020024010B50B4A70
:103C70000020D168CB060A4904D5C869022318433D
:103C8000C8611020D3685B0705D5CB6901242343A5
:103C9000CB6104210843D06010BD00000020024029
:103CA0007803002070B5054601F040F90646104C37
:103CB0000AE0681C08D0002D04D001F037F9801B01
:103CC000A84201D9032070BDE068C007F1D1E068C7
:103CD000800601D52020E060E068C00602D4E068DC
:103CE000400703D5FFF7C2FF012070BD002070BD63
:103CF00000200240F8B50C46FDF74CF8284FA6000E
:103D000080B2BC5900281AD02649884217D8FDF73E
:103D100085F80B21C943FDF785F8234904F0D4FA4F
:103D20000546410021484908814208DB29462048D0
:103D300004F05AFB41001D484908814201DA20463F
:103D4000F8BD1C492846FCF74FFF054614481A49A0
:103D50001038C068009004F0B7FA294604F06EFAF3
:103D600005460146009804F03FFB009013492846A1
:103D700004F0AAFA0099FCF737FF114904F0A4FAFD
:103D800005461049204604F09FFA04460E4928468D
:103D900004F09AFA214604F051FAB851F8BD000037
:103DA00048000020FF0F00003333534017B7D138CD
:103DB0009A99993F9A99D9407F526E3E00004040AF
:103DC00000007A446666663FCDCCCC3D78B50022D3
:103DD0000E4B4C1E15E0551CA5420ADCD5182E884A
:103DE0006D462E802D7885546D466D7886187570D9
:103DF00005E0D5182E886D462E802D788554921CAE
:103E000092B28A42E7D3012078BD000000900008FA
:103E1000F3B585B00D4600F055FC00200121174F89
:103E20000190039100900297694601A800F0B2FB4F
:103E3000002818D100246E1E1AE0601CB0420598BC
:103E400005DC0019407801020598005D02E0015D83
:103E5000FF200002081882B20023E119012000F0BF
:103E6000F3FB002802D0002007B0F0BDA41CA4B2D0
:103E7000AC42E2D300F0DEFB0120F5E70090000841
:103E8000F8B5054604462035287D0026012808D0CF
:103E900001202875206881688907890F012908D1C8
:103EA00001E00220F8BD0168C9073CD1C1680904DE
:103EB00039D4A16BFF220132914302221143A16345
:103EC000C1688907890F0091C16889088900C160AC
:103ED0002068816892071143816001F027F8074646
:103EE00012E001F023F8C01B02280DD92068806879
:103EF000002809DAA06B0221884310210843A0633F
:103F0000002028750120F8BD206880680028E8DBC3
:103F10002068C168009A1143C160A06B80088000CE
:103F2000401CA06304E0A06B20210843A06301268D
:103F3000002028753046F8BDF8B500250446203429
:103F40000095227D012A39D00122227503689E68DE
:103F5000760767D4384F4E68BE424DD09E6A0F78C0
:103F6000BA4016439E620123C26A1B079A421FD0C1
:103F7000012A1DD0022A1BD0032A19D0042A17D0E7
:103F8000052A15D0062A13D0072A11D002688B689B
:103F900056697607760FB3420AD05369DB08DB0017
:103FA0005361006842690B7A5B075B0F1A434261F9
:103FB0000A68102A04D0112A02D038E00220F8BD85
:103FC0001E488368102A07D001229205134383609C
:103FD0000868102803D02AE00122D205F6E7194824
:103FE00017490068FCF786F90A21484300E0401EA3
:103FF00000900028FBD11AE0986A0E78B2409043F6
:1040000098620968102901D0112910D10B488268E3
:10401000102904D0012189058A43826007E001212B
:10402000C905F9E7816B2022114381630125002036
:1040300020752846F8BD000001100000002701404F
:1040400040420F000C000020704770477047F8B5E1
:104050000446006805684668690701D5710703D4FE
:1040600029072ED531072CD5A16BC90604D4A16B25
:10407000012252021143A163C1680C270905890F6F
:10408000002919D1A17E002916D1290714D58168EC
:104090004A070121002A08DB4268BA434260A06B4C
:1040A0000A0290430843A06306E0A06B202210435D
:1040B000A063E06B0843E0632046FFF7C5FF20687C
:1040C000076028060CD530060AD5A06B012109042B
:1040D0000843A063204600F0D7F8216880200860DC
:1040E000E80614D5F00612D5A06A1025012803D0E1
:1040F0002068C068C00708D0E06B02210843E06375
:10410000206805602046FFF7A1FF20680560F8BD24
:10411000F8B500260446002805D0A06B25462035BA
:10412000002802D007E00120F8BD0020E0632875D8
:10413000204600F0ABF8A06B1022C006002870DB10
:104140002068816849076CD4A16B1301994302234D
:104150001943A16381688907890F012905D1016885
:10416000C9070FD1C16809040CD4C1681823994349
:10417000A3681943C16020680169636889008908E0
:10418000194301612068C1683D4B1940C160207E20
:10419000617E8003C9030843A17E4B031843A36AD1
:1041A000012B02D001231B0300E000231843E36826
:1041B00018432369022B09D0002318432B79E57E8D
:1041C0005B0018430123012D02D00AE00423F4E729
:1041D000002927D0A16B20252943A163E16B194356
:1041E000E163E1690D46FF3DC23D02D0256A2943E6
:1041F00008432168CD680543CD600125E16A2D079C
:10420000A94213D0012911D002290FD003290DD0C2
:1042100004290BD0052909D0062907D0072905D084
:1042200010E028E0012109040843DAE721684D691C
:10423000ED08ED004D6121684D69A78D7F077F0F67
:104240003D434D612168C9680E4D2940814207D127
:104250000020E063A06B80088000401CA06308E0A1
:10426000A06B022188431043A063E06B1843E06316
:1042700001263046F8BDA06B1043A063F8E70000AC
:104280001902FEFFE7FF3F837047000070B586B05C
:10429000054614216846FCF72BF820492868884217
:1042A00039D11F498A69401502438A618A690240EF
:1042B00005924A69000202434A61496900260140A9
:1042C000059106200090032001900920694602967E
:1042D000C00600F04DFD1348134C41C480202660F9
:1042E00060604000A0608000E0602020206100024B
:1042F00060610D48083C00F0DBF8002801D0FFF7B2
:104300007FFC2C63002211460C20656200F06EFEDB
:104310000C2000F05FFE06B070BD000000240140DC
:1043200000100240080002403C010020F7B504469E
:1043300000680025806840073DD426462036307D41
:1043400001280AD001273775607E012807D0204652
:10435000FCF704FF050002D02EE00220FEBDA06B9A
:1043600016490840FF2101310843A0630020E063A3
:104370003075216B12488862216B1248C862216B2C
:104380001148086321681C200860206841681022D9
:10439000114341602068C1683943C1602168206BC6
:1043A0004031029B019A00F0ADF820688168042238
:1043B0001143816000E002252846FEBDFEF1FFFFAB
:1043C000CD100008531100083911000870B5002401
:1043D000014620314A78022A03D004218163012456
:1043E00016E0026813680E25AB4313600268136879
:1043F0005B085B0013600122056C1346AB40C56B84
:104400006B604A7000220A70416B002900D0884717
:10441000204670BDF0B4C16B0D6801680C680422C1
:10442000066C1346B3402B420DD063070BD50B68C7
:104430009B0602D40B6893430B60016C8A40C16BEE
:104440004A60C16A19E00227B74002462F400123A3
:104450002032002F15D0A70713D50C68A40604D46A
:104460000C680A25AC430C605370036C0221994020
:10447000C36B596000211170816A002916D0F0BC0D
:1044800008470827B7402F4210D024070ED50C68E4
:104490000E25AC430C60046C1946A140C46B6160EE
:1044A0008363537000211170016BE6E7F0BC704725
:1044B00070B5040021D0022120462030054641700D
:1044C000226811680E48A368014060682669184395
:1044D000E3683343184363691843A3691843E369E6
:1044E0001843084310602046FDF7D4FA0021A16369
:1044F000012068702970084670BD012070BD000061
:104500000FC0FFFFF8B504468C4620300178002527
:10451000012909D00126067041780027012905D01C
:10452000077002252846F8BD0220F8BD022141701F
:10453000A763206801684908490001606146204678
:10454000FDF7BAFAE06A00282068016802D00E225E
:10455000114306E00A221143016020680168042229
:10456000914301602068016831430160DAE700008F
:1045700070B5044600F0DAFC0546601C02D0044821
:104580000078241800F0D2FC401BA042FAD370BD82
:1045900000000020F8B5054623480F46017E01269D
:1045A00001290BD0012101762868204C012807D071
:1045B0002046FFF777FB002813D030E00220F8BD3B
:1045C0002046FFF76FFB002829D1FFF71BFB204691
:1045D000FFF768FB06461648016904229143016112
:1045E0001DE00020C04338606C6812E02046FFF7F1
:1045F0001BFB0E48FFF756FB06460D4802690221D9
:104600008A430261002E01D03C6008E00120800254
:104610002418A868810268680818A042E6D80248F1
:10462000002101763046F8BD7803002050C3000019
:1046300000200240034801698022114301610020EB
:104640007047000000200240F0B51FB407461A482A
:104650000024017E15461E46012907D0012101765E
:104660001648FFF71FFB002803D020E0022005B00A
:10467000F0BD012F02D0022F00D0042722012846CE
:104680003146FBF785FD81B2019862001018FFF7F3
:10469000DDFA0A48FFF706FB09490A695208520089
:1046A0000A61002803D1641CE4B2BC42E6D302498B
:1046B00000220A76DBE700007803002050C30000E8
:1046C00000200240064900200A69120607D5054A63
:1046D0004A60054A4A600969090600D50120704709
:1046E0000020024023016745AB89EFCDF1B5F848C2
:1046F00082B00188E1273F010298BE06F54D814254
:1047000026D1F549087B002805D10879002803D077
:10471000F24806608E60FEBDED48EF49028B521CE8
:104720000283022282768978032902D0EA4A012193
:104730009170E7484188406800F0ECFBE84C0028A5
:1047400007D0E3484188406800F0E4FB012872D0BC
:1047500056E1E148417B00294DD0817B002908D0FA
:1047600001290DD0022913D003291AD004293BD0E6
:1047700046E1607E002801D0401EDCE00220DAE045
:10478000D848C17D002901D0491EDEE00221DCE0CD
:10479000C17B002901D10221C173C9B2491EC17375
:1047A0002EE1608B643801B2FF20F53061838142D5
:1047B00000DA60831A21615E0420205EFF39F5393A
:1047C000814203DAC84AA18001201070C74A002044
:1047D0000C2343439B185C68A14200DA5960401CDB
:1047E000C0B20928F4D90BE1207E002801D0401E78
:1047F000DEE00120DCE0BE4909684900090E0CD06A
:10480000BC48017A491E0906090E017201D109212D
:10481000DEE002F08BFBB648F1E0B6490A78002AE8
:104820000AD08878401E0006000E887001D108204A
:1048300088700872E0E067E08078012802D00328E1
:1048400036D0DDE0A248007CFCF7E8FAA0494969CF
:1048500003F092FD13D20420205E7D21C900009058
:10486000884201DA401F1AE00A21FBF74DFD0029BA
:1048700002D00098401AA080A0880A380FE0A088D3
:104880000A21143800B2A0800090FBF73DFD0029FA
:1048900006D07D220098D200904201DD401AA0800F
:1048A0000420205E002801DC002003E19248A6E0FD
:1048B000874C207CFCF7B2FA616903F05DFD2C683F
:1048C0000BD2BC4201DC641F16E03C212046FBF702
:1048D0001BFD00290BD13C3C0EE0BC4201DC1E3C20
:1048E0000AE03C212046FBF70FFD002902D0601AA8
:1048F000286003E0FF3C2D3C20462C60002801DAB4
:10490000002011E17D487AE07349487B002851D0AE
:10491000887B002808D001280FD0022817D0032850
:104920001ED004283DD06BE0607E401CC0B2607693
:10493000022865D90020607662E06A48C17D491C82
:10494000C9B2C17502295BD90021C17558E0C87B85
:10495000401CC0B2C873012852D90020C8734FE070
:10496000608B643000B26083B84200DD67831A2137
:10497000615E0420205EFF39F539814203DA5A4A2C
:10498000A18001201070594A00200C2343439B183A
:104990005C68A14200DA5960401CC0B20928F4D911
:1049A0002EE0207E401CC0B22076012828D90020AD
:1049B000207625E04E4800684000000E4D4809D0A2
:1049C000017A491CC9B20172092900D821E70121E5
:1049D00001721EE70278002A23D08178491CC9B2EF
:1049E0008170082901D901218170CAB2C1788A4237
:1049F00001D3511CC170027202F098FA404806605F
:104A0000334902988A8C824200D084E63248027B85
:104A1000002AFAD10279002A74D030490E608660EB
:104A2000FEBD887801280ED00328E9D1284C207CCF
:104A3000FCF7F4F9616903F09FFC2C6844D2BC4296
:104A40003ADA641D6AE02248007CFCF7E7F9204965
:104A5000496903F091FC13D20420205E7D21C90036
:104A60000090884201DA401D1AE00A21FBF74CFC55
:104A7000002902D00098401AA080A0880A300FE0D8
:104A8000A0880A21143000B2A0800090FBF73CFC03
:104A9000002906D07D220098D200904201DD401A04
:104AA000A0801A20205E0421615EFF38F538814223
:104AB00000DCFBE6A080F9E63C212046FBF724FC65
:104AC000002926D13C3429E0BC421CDA1E3425E002
:104AD00098030020140B0020CC0A002018000020AE
:104AE000E00A0020FC0A0020B1000020A4090020F8
:104AF00098000020240B0020A0000020A40000202B
:104B0000A800002012E03C212046FBF7FDFB002915
:104B100002D0601A286002E0FF342D342C608448F3
:104B20002968814200DCEDE62860EBE68A8F814C43
:104B3000521C8A8702228048A2778078032802D0FC
:104B40007D4A022090707B482038C18C806A00F03A
:104B5000E1F9002815D077482038C18C806A00F030
:104B6000D9F9012800D05BE7744800684000000EC6
:104B7000734876D0017A491E0906090E01727DD06C
:104B80000DE06E4800684000000E6D480AD0017AC2
:104B9000491CC9B20172092901D901216FE002F053
:104BA000C5F9FEBD0178002913D0C178491CC9B2EE
:104BB000C170092901D902216DE0CAB281788A4207
:104BC00001D8491CC170C178017202F0AFF95D488B
:104BD00052E05948807802280FD00328E1D1207D87
:104BE000FCF71CF953492039896B03F0C5FB2C688D
:104BF0002AD2BC4220DA641D37E0207DFCF70EF992
:104C00004C492039896B03F0B7FB4F48418806D2E5
:104C10000A3109B241800A2906D164210AE01E3115
:104C200009B241801E29F8D047480222825E4749D6
:104C30008A425CDD41805AE03C212046FBF764FB60
:104C400000290BD13C3410E0BC4201DA1E340CE0E8
:104C50003C212046FBF758FB002904D0601A28604D
:104C600004E00EE00AE0FF342D342C60304829685F
:104C700081425BDD286059E00660FEBD09210172BA
:104C80008DE70178002908D0C178491EC9B2C170EA
:104C9000022992D20921C1708FE727488078022823
:104CA0000FD00328E9D1207DFCF7B8F8214920393D
:104CB000896B03F061FB2C6823D2BC4219DC641FB2
:104CC0002EE0207DFCF7AAF81A492039896B03F001
:104CD00053FB1D48418801D20A3900E01E3941804A
:104CE00019480221415E322901DA0021A2E7184861
:104CF000C2E73C212046FBF707FB00290BD13C3CD7
:104D00000EE0BC4201DC1E3C0AE03C212046FBF7E1
:104D1000FBFA002902D0601A286003E0FF3C2D3C1A
:104D200020462C60002801DA0020A3E70948A3E709
:104D3000C0A80000B8030020CC0A00209800002082
:104D4000240B0020AC000020FC0A0020DC05000041
:104D50009C000020A400002010B504494A690242CA
:104D600002D04861FFF7C2FC10BD00000004014002
:104D7000F8B5002303240125BAE02E469E40B44630
:104D800032407CD00E79B607B60F012E01D0022E2C
:104D900017D186682746B6465E00B740009676462D
:104DA000BE43B646CF68009EB7407646374387601D
:104DB00046686746BE430F79FF06FF0F9F403743A3
:104DC00047600E79F643B6070ED0C6682746B4464C
:104DD0005E00B646B7406646BE43B4468F68764628
:104DE000B74066463743C7600E79B607B60F022E46
:104DF00014D1DE08B60036180096366A5F07B4464E
:104E0000FE0E0F27B646B7406646BE43B4460F694E
:104E10007646B74066463743009E376206682746A7
:104E2000B4465E00B646B7406646BE430F79B44608
:104E3000BF07BF0F7646B7406646374307604E68E8
:104E4000B603B60F53D02D4FBE692E43BE61BE6967
:104E50009F08F607F60F2A4EBF00BE190096B668E7
:104E60000F27B4469E07360FB646B7406646BE4388
:104E70000927FF06B446B84202D1002710E036E009
:104E8000204FB84201D101270AE01F4FB84201D19B
:104E9000022705E01D4FB84201D1032700E0052796
:104EA0007646B74066463743009EB760184EB668F0
:104EB0004F689643FF0200D51643154FBE60FE684B
:104EC0004F689643BF0200D51643114FFE607E68BF
:104ED0004F689643BF0300D516430D4F7E603E6872
:104EE0004F689643FF0300D51643094A16605B1CC2
:104EF0000A681646DE4000D03FE7F8BD00100240C9
:104F0000000001400004004800080048000C004870
:104F1000000401400069084000D001207047002AC9
:104F200001D081617047816270470000014880684C
:104F3000704700000000002002488168027889184C
:104F4000816070470000002010B5064801681022FB
:104F500011430160032000F007F800F027F800205B
:104F600010BD00000020024070B504460D4D7D20AC
:104F70002978C000FBF7BEF901460B480068FBF733
:104F8000B9F900F0B7FA002809D1042C07D20022A1
:104F90002146401E00F02AF800206C6070BD012000
:104FA00070BD0000000000200C00002008B508487B
:104FB0008169012211438161816911400091C269B7
:104FC00001040A43C261C0690840009008BD0000A6
:104FD00000100240002805DBC106C90E01208840F0
:104FE000014908607047000000E100E010B503F0DF
:104FF00051F810BDBFF34F8F04490348C860BFF399
:105000004F8F00BFFDE700000400FA0500ED00E04F
:10501000F8B50F46060059D03A4D2868C007C00FB2
:10502000B84209D228684008400038432860286800
:10503000C007C00FB84249D13068334C81070CD546
:10504000400704D560680721090208436060606872
:10505000F0218843B168084360603078C00726D0EB
:10506000706801280ED0216802280ED08907002917
:105070002CDA61688908890001436160FFF756FFF7
:1050800000900DE021688903F1E78901EFE7FFF760
:105090004DFF0099411A1D48814201D90320F8BDF6
:1050A00060680C210840716889008842EFD1286847
:1050B000C007C00FB8420BD92868400840003843E9
:1050C00028602868C007C00FB84201D00120F8BD91
:1050D0003078400706D56068072109028843F168E7
:1050E0000843606000F018F86168094A0906090F72
:1050F000515CC840074908600320FFF735FF0020D6
:10510000F8BD00000020024000100240881300009B
:10511000D88400080C00002010B5104A51680C20FB
:105120000B4603400E48042B17D0082B15D18B02D9
:105130000C4C1B0FE45CD26A0A4B1207120F10339F
:105140009A5CC90305D500231946FBF732F82146BE
:1051500001E02046044902F077FF10BD0010024034
:1051600000127A00B884000800093D00FEB5040072
:1051700070D02078DC4DC0074AD068680007800FE7
:10518000012807D068680007800F022809D16868E5
:10519000C00306D5286880033AD560680028E7D0A8
:1051A00036E06168012914D001208004002901D073
:1051B000052914D02A68012109048A432A60296834
:1051C000814329606068002816D0FFF7AFFE0646CD
:1051D0000EE028680121090408432860F2E72968E5
:1051E00001432960F5E7FFF7A1FE801B64286ED814
:1051F00028688003F7D50BE0FFF798FE064604E029
:10520000FFF794FE801B6428F1D828688003F7D448
:1052100020780126800700283CDA68680007800FA4
:1052200007D068680007800F022809D16868C003AA
:1052300006D42868800716D5E06801280AD112E054
:10524000E0680028286816D030432860FFF76EFE1B
:10525000074605E043E1FFF769FEC01B0228C6D8F8
:1052600028688007F7D52868F82188432169C90094
:10527000084328600EE0400840002860FFF756FE13
:10528000074604E0FFF752FEC01B0228AFD828688B
:105290008007F7D42078000722D5E0690028686AE3
:1052A0000ED030436862FFF741FE074604E0FFF787
:1052B0003DFEC01B02289AD8686A8007F7D50FE028
:1052C000400840006862FFF731FE074605E09DE0B8
:1052D000FFF72CFEC01B022889D8686A8007F7D424
:1052E000207804274007002860DA00200190E86950
:1052F000C00008D4E969B8060143E961E9690140E1
:1053000001200091019079480168C90511D4016814
:10531000821511430160FFF709FE009005E0FFF7D9
:1053200005FE0099401A642870D870480068C005CE
:10533000F5D5A06801280AD0002801D0052810D092
:10534000286A400840002862286AB84301E0286AB9
:1053500030432862A068002812D0FFF7E7FD0090D4
:105360000AE0286A38432862F1E7FFF7DFFD009979
:10537000411A5F48814249D8286A8007F5D50DE077
:10538000FFF7D4FD009006E0FFF7D0FD0099411A29
:10539000574881423AD8286A8007F5D401980028F6
:1053A00004D0E969012000078143E9612078C00643
:1053B00035D5606901280CD0401D686B23D0384377
:1053C0006863686B400840006863FFF7AFFD0646FE
:1053D00022E0686B38436863686B30436863FFF7AB
:1053E000A5FD064604E0FFF7A1FD801B02285BD85F
:1053F000686B8007F7D5686BF8218843A169C900FD
:10540000084368630BE0B8436863F4E74CE0FFF7D8
:105410008DFD801B022847D8686B8007F7D4206A6F
:1054200000285ED069680907890F022942D0012649
:1054300036060228286805D0B0432860FFF776FDBD
:10544000044633E0B0432860FFF770FD074604E0F0
:10545000FFF76CFDC01B022826D828688001F7D40E
:10546000E86AE16A000900010843E862616AA06A2B
:10547000084369683D221204914308436860286824
:1054800030432860FFF752FD044604E0FFF74EFD6D
:10549000001B022808D828688001F7D521E0FFF713
:1054A00045FD001B022801D90320FEBD28688001AC
:1054B000F5D416E00128F8D06868E96A01221204E0
:1054C000636A02409A420AD10907E26A090F9142CF
:1054D00005D10F2189040840A16A884201D001202A
:1054E000FEBD0020FEBD0000001002400070004024
:1054F00088130000094910B5401E884201D90120D7
:1055000010BD074C60610321081F02F0C3FD00209D
:10551000A06107202061002010BD0000FFFFFF00F8
:1055200000E000E07047704730B5034620331A7F33
:10553000012A26D001221A770325CA682D02AA4320
:105540008D6800242A430125AD02AA434D680068F6
:105550002A430125ED02AA430D682A4301252D03A4
:10556000AA430D692A4301256D03AA434D69C96900
:105570002A430125AD03AA430A4342641C77002055
:1055800030BD022030BD0000F0B502462032137F4E
:10559000012B1ED001251577022353770668746806
:1055A000B3687027BC430F682743776000680A4CD4
:1055B000A04205D0094CA04202D0094CA04204D11F
:1055C00080244968A34319438160557700201077F0
:1055D000F0BD0220F0BD0000002C0140000400409E
:1055E0000040014070B5040005D025462035687F95
:1055F000002802D006E0012070BD00202877204658
:1056000000F014F802206877211D206801F0DCFE0C
:1056100001204034A071A877E87720706070A070F6
:10562000E070207160716877002070BD08B5194A7C
:1056300001681948914205D1C26981150A43C261C6
:10564000C0691AE0154A914210D18269012109040A
:105650000A438261806900220840009011461420AC
:10566000FFF7C4FC1420FFF7B5FC08BD0C4A9142BB
:1056700006D182690121490408E00840009008BD74
:10568000084A9142FBD18269012189040A4382615F
:105690008069F2E700200040001002400040014015
:1056A0000044014000480140014620314A7F012A60
:1056B00001D00120704702224A770268D368012195
:1056C0000B43D3600068094A904205D0084A9042D3
:1056D00002D0084A904204D182685207520F062A2B
:1056E00002D002680A43026000207047002C01408B
:1056F0000004004000400140F8B50546044620354E
:10570000287F0026012817D00120287702206877FB
:10571000226890687727FF23B8431B029843906064
:105720000868502838D00EDC20284FD006DC00282E
:105730004CD010281ED149E00220F8BD302845D0B9
:10574000402817D13AE060282ED0702819D00122C5
:105750001203801A0FD090420CD1CB684A68896836
:10576000206801F003FF2068816801229203114341
:10577000816000E00126012068770020287730460C
:10578000F8BDCB684A688968206801F0EFFE21689F
:10579000886838438860EEE7CA684968206801F085
:1057A000F5FF5021206806E0CA684968206802F0C9
:1057B00027F86021206801F0E4FEDCE7CA68496848
:1057C000206801F0E3FF40212068F4E722680146E9
:1057D0001046F0E77047000010B5054A0168914295
:1057E00004D1007F012801D101F0B4FD10BD0000FB
:1057F000002C0140F8B504460020264620360090D3
:10580000307F0D4601280ED001203077002A0CD0C1
:10581000042A19D0082A2AD00C2A51D0009000203E
:1058200030770098F8BD0220F8BDEB6806CD083D42
:10583000206801F0BDFF206882690C218A438261E3
:1058400020688169AA680FE0EB6806CD083D2068F2
:1058500001F0E9FF2068816903229202914381618E
:1058600020688169AA68120211438161D7E72A681A
:1058700020689646297B6A68036A9C46036AFF276C
:105880000137BB430362C36909079B089B001343AD
:10589000F0229343090E19430522634652029343B3
:1058A00072460A273A4012021A43C1610262206816
:1058B000C1690C229143C1612068C169AA682CE0CA
:1058C0002B6820689E466F682B7B026ABC46016A83
:1058D00001273F03B9430162C16903273F02B9436E
:1058E00067463F020F430F2109038F431907090C35
:1058F000052339435B039A4373460A273B401B0346
:105900001343C16103622068C269032189028A438B
:10591000C2612068C169AA6812021143C1617EE7B1
:1059200070B5040005D025462035687F002802D0D8
:1059300006E0012070BD00202877204600F014F812
:1059400002206877211D206801F03EFD01204034CF
:10595000A071A877E87720706070A070E070207167
:1059600060716877002070BD10B586B004461421C0
:105970006846FAF7BDFC15492068884223D11448CF
:105980008269C1140A43826182690A4005924269B0
:1059900089010A434261406908400590481200901D
:1059A0000020022102900390019104910920694690
:1059B000C006FFF7DDF9002211460E20FFF716FBA7
:1059C0000E20FFF707FB06B010BD0000002C0140C1
:1059D0000010024070B503460446002520334030D5
:1059E000002908D0042909D008290AD0467842792C
:1059F000012E0BD108E09E7F8278F9E7DE7FC27826
:105A0000F6E706780279F3E7012A01D0012070BD9C
:105A10000222002909D004290ED0082912D0427090
:105A200042710C292ED001252AE09A7782702068D5
:105A3000C3681343C3600CE0DA77C2702068C268A1
:105A4000042304E0027002712068C26808231A432C
:105A5000C2600122206801F003FD0C4A2068012188
:105A6000904205D00A4A904202D00A4A904204D19C
:105A700082685207520F062A02D002680A43026067
:105A8000284670BD2068C2681023E0E7002C014062
:105A90000004004000400140F8B504460068C668B4
:105AA00005690027A907002913DAB10711D5F91EE6
:105AB000016101202077206880698007204602D09C
:105AC000FFF78AFE04E000F0DBF8204600F096F9CC
:105AD0002777680716D5700714D504202168C043BE
