:020000040800F2
:100000001008002059010008692B0008BB270008D0
:1000100000000000000000000000000000000000E0
:10002000000000000000000000000000732C000829
:100030000000000000000000712C0008752C000872
:100040006B010008000000006B0100086B01000854
:100050006B0100086B0100086B0100081D1500080A
:10006000000000006B0100086B0100086B01000834
:100070006B0100086B010008692E000800000000F9
:10008000792E00086B010008000000006B010008D9
:100090006B010008D52D00086B0100086B010008FA
:1000A0006B0100086B0100086B0100086B01000880
:1000B0006B01000800F002F800F03EF80CA030C818
:1000C000083824182D18A246671EAB4654465D46D4
:1000D000AC4201D100F030F87E460F3E0FCCB64660
:1000E0000126334200D0FB1AA246AB4633431847E1
:1000F0000035000020350000103A02D378C878C1DE
:10010000FAD8520701D330C830C101D504680C6059
:10011000704700000023002400250026103A01D378
:1001200078C1FBD8520700D330C100D50B607047AF
:100130001FB51FBD10B510BD00F024FC1146FFF720
:10014000F7FF03F0FFF800F03CFC03B4FFF7F2FF09
:1001500003BC00F071FC00000748804707480047D7
:10016000FEE7FEE7FEE7FEE7FEE7FEE70448054997
:10017000054A064B70470000772D0008B5000008BF
:10018000100200201008002010040020100400209D
:10019000FEB5054610460C46184373D0AE468C4655
:1001A0000020AD1A01469C4167D366460027012412
:1001B0003D46B61A9D4102D313463A462124654670
:1001C00076462F04360C3E432D0CB61A9D4104D3BF
:1001D000150C1B042B4312041034654676462F067B
:1001E000360A3E432D0AB61A9D4104D3150E1B0252
:1001F0002B4312020834654676462F0736093E43E4
:100200002D09B61A9D4104D3150F1B012B43120172
:10021000241D65467646AF07B6083E43AD08B61ABC
:100220009D4104D3950F9B002B439200A41C65466F
:100230007646EF0776083E436D08B61A9D411AD3FD
:1002400092185B41641C16E00018764665464941E9
:10025000B71A9D410191009009D36046B11A9841A7
:100260008E468446009801990025401C6941DD07AF
:1002700052082A435B08641EE6D57246634603B003
:10028000F0BDFFE700200146C046C0462A4623468F
:10029000F5E701E004C0091F0429FBD28B0701D553
:1002A0000280801CC90700D00270704700290BD063
:1002B000C30702D00270401C491E022904D38307E1
:1002C00002D50280801C891EE3E70022EEE70022AF
:1002D000DFE78178C2780378090412061143427877
:1002E0001002184308437047020A08704A70020C53
:1002F0008A70020ECA707047002203098B422CD309
:10030000030A8B4211D300239C464EE003460B4365
:100310003CD4002243088B4231D303098B421CD3C7
:10032000030A8B4201D394463FE0C3098B4201D3B9
:10033000CB01C01A524183098B4201D38B01C01AF1
:10034000524143098B4201D34B01C01A5241030968
:100350008B4201D30B01C01A5241C3088B4201D317
:10036000CB00C01A524183088B4201D38B00C01AC4
:10037000524143088B4201D34B00C01A5241411AEB
:1003800000D201465241104670475DE0CA0F00D0CE
:100390004942031000D34042534000229C460309C7
:1003A0008B422DD3030A8B4212D3FC22890112BA4D
:1003B000030A8B420CD3890192118B4208D3890125
:1003C00092118B4204D389013AD0921100E089093D
:1003D000C3098B4201D3CB01C01A524183098B421E
:1003E00001D38B01C01A524143098B4201D34B0107
:1003F000C01A524103098B4201D30B01C01A52416A
:10040000C3088B4201D3CB00C01A524183088B42F0
:1004100001D38B00C01A5241D9D243088B4201D379
:100420004B00C01A5241411A00D201466346524164
:100430005B10104601D34042002B00D54942704763
:1004400063465B1000D3404201B50020C046C04661
:1004500002BD704770477047F0B50C46871A9C4143
:100460000D46861A9D4103D2C01BA141D21963419A
:100470000D0D1F0DC94EEC1BAE435CD07F057F0DEB
:100480000026002F51D02D05AC46A943DD020123E3
:10049000ED0A1B051D4320231B1B24D41746E740F0
:1004A000381871412F46E740CC199D402818314635
:1004B00061410C0D27D161449A4013D50023401CA3
:1004C000594152000ED14008400001224B00520514
:1004D000D34207D305204007C14201D5B04900E00F
:1004E000B0493046F0BD6B00002A00D001229A18B6
:1004F0001F23203C1B1B01D5002302E0E5402818E8
:1005000071410C0DD7D0012424050919C407CD076A
:1005100040084908E40F28436144002CD5D000244A
:10052000401C61419A40D0D1CDE76A05520DD9D126
:10053000C90FC907D5E79C4D4E00002801D0012402
:1005400000E0002434195F00002A01D0012600E0F9
:100550000026BE19954FAC420CD8AE420AD8B44220
:1005600006D001256D05EC42BCD010461946F0BD01
:100570009942FCD000203946F0BDF0B51FB40C46BE
:100580000F46811A9F412546861A9D4106D20125B4
:10059000ED076F40401ABC4152187B41210D1E0DE2
:1005A0008D1BAC467D4D8D437ED075056D0D7CD089
:1005B0000D05AE46AC431B031B0B794D52429D41CA
:1005C000202366469B1B14D31746F7403818002695
:1005D0000090744160462F460741E41900989D4001
:1005E0002818664116D4714671189A4025D5012302
:1005F00020E093182A466A415200002B00D0521C7A
:100600001E23203E9B1B002B61DD3541EE17281871
:100610006641E8D5001876415B1C9A4000D3401C27
:100620004B05F3181524E34010D3002B52D071462C
:100630007118D30FC01802D3491C05B0F0BD0123B7
:10064000DB079A42F9D140084000F6E70122520543
:10065000B21801D1002853D00123CC0ADB02994300
:10066000891E002A08D1020C03D0020C00041039A4
:1006700002E00246002020390023550B05D112026A
:100680000823550B01D152010D23550C01D1120144
:100690001B1DD50C01D192009B1C150D01D15200E0
:1006A0005B1C2025EE1A01E02CE022E00546F54017
:1006B00015439840CA1AE10769181305C918002A9A
:1006C000BBDA032040070818C10FC9070FE07146C5
:1006D0006118B2E7F10740080843711071444A00FD
:1006E0000CD001235B059A42A7D2C90FC90700208D
:1006F000A3E74905490D26D1002001E00028F4D1E7
:1007000000219AE7284D6600002801D0012100E071
:10071000002171185F00002A01D0012600E00026A8
:10072000BE19224FA94210D8AE420ED8B14208D00D
:1007300001256D05E94206D01946A8024140104640
:100740007BE79C4201D0214677E70020394674E7D9
:1007500010B50C465C4005D50124E4076340FFF763
:100760000CFF10BDFFF778FE10BD30B40C465C40A6
:1007700004D50124E407634030BC6DE630BCFCE6E0
:1007800070B50124E40761400D465D4002D4FFF7D7
:1007900063FE70BD6340FFF7F0FE70BDFF07000011
:1007A0000000F0FF0000F07F0000E0FF0000F87F95
:1007B0000346CA02400D10B510430A1504D00124A7
:1007C000E4072043002A05DB0A4CA21A04D4D040D7
:1007D000FF2A00DD002010BD4A00002B01D00120BF
:1007E00000E00020101801225205D042F2D8C817AC
:1007F000C04310BD1E0400001F22030C02D10F22B3
:10080000000402D0030E03D004E00020014670472C
:100810000002083A030F01D10001121F830F01D11A
:100820008000921E002801DB4000521E1205511864
:100830004205C012411810467047C10FC90700D0C9
:100840004042012292071143D6E701218907D3E7ED
:100850000102C21504D00123DB071943002A0ADB79
:100860009E239A1A02D40846D0407047FF224100C6
:100870001206914201D900207047C017C04370474B
:100880001F22030C02D10F2200041CD0030E01D141
:100890000002083A030F01D10001121F830F01D19A
:1008A0008000921E002801DB4000521ED205511824
:1008B000021251181922904004D3491C002801D17A
:1008C0004908490008467047C10FC90700D0404297
:1008D000012292071143D3E701218907D0E70000E5
:1008E00010B5FF231B0644009C421DD84C009C42BF
:1008F0001AD80346124A0B4307D4401A02D3EFF327
:10090000008010BDEFF3008010BD081A06D2EFF38F
:10091000008001219043C907084302E0EFF3008003
:10092000904380F3008810BD0D231B041A4204D0AD
:100930001146002000F006F810BD00F01BF810BDB5
:1009400000000090C80212D54803400F002804D0D0
:10095000C803C043012188407047EFF300800001C5
:10096000000903210907084380F30088704700202D
:100970007047000010B5024800F02BF810BD0000D1
:100980000000C07F754600F053F8AE46050069468A
:100990005346C008C000854618B020B5FFF7E6FBF7
:1009A00060BC00274908B6460026C0C5C0C5C0C502
:1009B000C0C5C0C5C0C5C0C5C0C5403D49008D4605
:1009C000704710B50446C046C0462046FFF7BDFB41
:1009D00010BD10B50C461107090F092904D00A29CA
:1009E0000AD008290CD104E011460820FFF7AAFF1D
:1009F00006E0510606D501E0510601D50120C007E9
:100A0000214610BDD10607D501010909CC084907C7
:100A1000000E0006044309E0410F20024907000AC6
:100A20000143200E00061D22D14101430846E7E79D
:100A300000487047B001002001491820ABBEFEE716
:100A40002600020070470000F1B51E4C0125092761
:100A50006068ED05FF06A84204DAA168A94201DA40
:100A6000002219E04000000E09D00122114638464C
:100A700000F045FF6168009802F03EFD6060A668E6
:100A80007000000E0CD02168009802F06BFC0E493B
:100A90002060884205DA01220121384600F02FFF4C
:100AA000F8BD094949424118A942D9D307498842AA
:100AB000F6DB7F21C905304602F02AFDA060002048
:100AC0002060F8BD30000020CDCCCC3DCDCC4C3EDC
:100AD000F0B51B4900240E7801251A4B1A4A012E45
:100AE0000AD11A4E0C70366816601A4F184E3E60C6
:100AF000194FDD7002263E705E78002E02D0DB7842
:100B0000002B01D00C70F0BD144B1E88301880B241
:100B10007D26F6001880B042F5D111480E78007895
:100B200030430AD10F480088002806D010680028FA
:100B300002D0401E106000E00D701C80F0BD00006F
:100B40008400002060000020780000207400002055
:100B50000000A040380000206F0000205800002056
:100B60007C0000206A00002070B50E490E4D897F80
:100B70000E4C002906D10E494978002902D161891D
:100B8000002903D000202061287070BD216902F087
:100B9000E9FB084920618842F7DD012028702161C6
:100BA00070BD0000600100208500002010000020C2
:100BB000600000200000964370B50C4E0025F178CF
:100BC0000B4C002910D00B49098800290CD1216851
:100BD00002F0C8FB7F21C9052060884205DD064878
:100BE000006845637570F570256070BD6000002079
:100BF0005C00002066000020D000002070B5164880
:100C0000174C4178154DA07F002918D0002815D029
:100C1000FFF71BFE00222B46FFF7A7FDFFF7C8FDDD
:100C20000006000EA07709D10E480F490088088001
:100C30000E49002008700F490D48086070BD00285B
:100C4000FCD0FFF702FE00222B46FFF78EFDFFF7D8
:100C5000AFFDA07770BD0000600000200000E03F05
:100C600060010020680000206A0000206F00002062
:100C7000CDCCCC3D3400002070B5174A17495378CD
:100C8000002B05D08B78DB438B70CB78DB43CB70AC
:100C900094780023002C0ED04D89002D0ED0104EDC
:100CA000B67F002E0AD1281A80B24881012C06D0C6
:100CB000022C09D00CE00B704B704B8170BD0C788E
:100CC000E4430C704B7003E00B704C78E4434C70C1
:100CD0000028F3D1937070BD600000201000002048
:100CE0006001002005490878401CC0B208700A283D
:100CF00002D3034900200880704700006E000020E6
:100D000066000020F8B509260024F60601270546EE
:100D10003F032846A040000621D5230002F0E2FA56
:100D2000080507090D0F191B1D14002221E00022E0
:100D300022E0002223E0304604E0002222E00022EC
:100D400023E0184800F0DBFD641CE4B2082CE0D37B
:100D5000F8BD00221CE000221EE000221FE023005C
:100D600002F0C0FA0806090C0F1215191C05EBE772
:100D700001220121E5E701228021DCE7012208218F
:100D8000D9E701220221D6E701223946D9E701221B
:100D90000121C902D5E701220421D2E70122022163
:100DA000CFE700000004004870B5164C0122114640
:100DB000204600F0A4FD0925ED06012280212846E9
:100DC00000F09DFD01220821284600F098FD012237
:100DD0000221284600F093FD01221103204600F075
:100DE0008EFD0122D102204600F089FD012204215E
:100DF000204600F084FD01220221204600F07FFD04
:100E000070BD00000004004870B51E481E494078BF
:100E1000012802D00020087070BD1A481D4AC4780D
:100E20001A4812880E780388032519489208002E64
:100E300007D0012E0CD0022E18D0032EECD1038047
:100E400070BD154E9A42368806800DD201260E706E
:100E50000026865FB24201DD761C0680002CEFD1B1
:100E60009A42EDD30D7070BD02260E700026865F8B
:100E7000B24201DA761E0680002CF4D19A42F1D9F2
:100E800070BD0000600000206F0000206A0000209C
:100E90006C0000206600002064000020F8B5354C8E
:100EA0000925207A344E0027ED06092802D00A28A9
:100EB00019D04EE01820A07102F0AEF9FFF774FFD0
:100EC000A078002806D07078012803D12B4800783C
:100ED000002806D000222021284600F010FD012223
:100EE00032E00122F7E76079401CC0B260710A2845
:100EF00016D32079401CC0B22071042801D10120F2
:100F00002071C1B21B480C30012904D0022904D041
:100F1000032904D108E0007800E04078E0716771AF
:100F20007078002802D003E08078F7E7FC20E071B9
:100F3000E079A07102F070F9FFF736FF012220215D
:100F4000284600F0DCFC0022FF210131284600F099
:100F5000D6FC207A0B280CD1FFF726FF0122202196
:100F6000284600F0CCFC01221102284600F0C7FC04
:100F70002772F8BD10000020600000207C000020D7
:100F800070B51E481E4C0078002810D0FFF70CFFEB
:100F90000925ED0601222021284600F0B0FC01229F
:100FA0001102284600F0ABFC0020207270BD207AB0
:100FB0001549401C20721348144C42780020085EEA
:100FC000134D002A05D01349897F002905D02080C0
:100FD00005E020801048006804E0FFF715FF0F4887
:100FE00000683B302860208880B200F019F828683B
:100FF00000F0F0F8FFF752FF70BD00008500002000
:101000001000002060000020680000206C0000201C
:101010008000002060010020740000207800002083
:10102000F0B5694D06462846143089B0297A04780F
:101030004278079282780692C278059202790492E9
:101040004279039282790292C2790192027A0092E5
:10105000477A012912D0022944D003297BD00429E0
:101060003ED12046AC7102F0D7F82878002803D092
:101070005648807F00286DD010202FE054488642CB
:1010800068D9411C3046FFF737F9C0B2030002F0BF
:1010900029F90A06080A0D0F11131517191AAC7150
:1010A00011E0079800E00698A8710CE00598FBE7AE
:1010B0000498F9E70398F7E70298F5E70198F3E752
:1010C0000098F1E7AF71A87902F0A6F82878002817
:1010D00003D03E48807F002873D08020FFF712FEA7
:1010E00009B0F0BD632E6CD964213046FFF704F9D6
:1010F0003749C0B28E4203D90A21FFF7FDF80846EE
:10110000030002F0EFF80A06080A0D0F1113151775
:10111000191AAC7111E0079800E00698A8710CE06C
:101120000598FBE70498F9E70398F7E70298F5E7D5
:101130000198F3E70098F1E7AF71A87902F06CF835
:101140002878002803D02148807F002839D040200B
:10115000C4E700E035E0092E33D90A213046FFF715
:10116000CBF8C0B2632E03D90A21FFF7C5F80846B1
:10117000030002F0B7F80A06080A0D0F111315173D
:10118000191AAC7111E0079800E00698A8710CE0FC
:101190000598FBE70498F9E70398F7E70298F5E765
:1011A0000198F3E70098F1E7AF71A87902F034F8FD
:1011B0002878002803D00548807F002801D020200F
:1011C0008CE700208AE7000010000020600100206A
:1011D000E7030000F0B591B004467949FFF796F8AF
:1011E000C0B2E121039009012046FFF78FF80C46B9
:1011F0000A21FFF78BF8C8B202904B212046C900A4
:10120000FFF784F8C0B2019020463C21FFF77EF83A
:101210000A21FFF77BF86B4CCFB221461431237AB9
:101220000A780D924A780C928A780B92CA780A92C0
:101230000A7909924A79089263488E79CD790A7AB7
:10124000497A0078052B0ED0062B3BD0072B65D0B2
:10125000082B33D13B0002F045F80A8D8F9294960B
:10126000989A9C9F90A0039F3B0002F03BF80A06CF
:10127000080B0D0F1113151709180D9900E00C99A3
:10128000A1710CE00B99FBE70A99F9E70999F7E7D7
:101290000899F5E7A67102E0A57100E0A2710128A6
:1012A0000ED0A07901F0B8FF6078002803D047483D
:1012B000807F00286FD00820FFF724FD11B0F0BD1B
:1012C0000220EFE7029F3B0002F00CF80A06080B31
:1012D0000D0F1113151709180D9900E00C99A17144
:1012E0000CE00B99FBE70A99F9E70999F7E70899E8
:1012F000F5E7A67102E0A57100E0A27101280BD00C
:10130000A07901F089FF6078002803D02F48807F02
:10131000002852D00420CFE70220F2E7019F3B00D3
:1013200001F0E0FF0A06080B0D0F1113151709183D
:101330000D9900E00C99A1710CE00B99FBE70A995B
:10134000F9E70999F7E70899F5E7A67102E0A571B1
:1013500000E0A27101280BD0A07901F05DFF607858
:10136000002803D01948807F002826D00220A3E758
:101370000220F2E70D9900E00C99A1710DE00B99A4
:10138000FBE70A99F9E70999F7E70899F5E7A671E4
:1013900003E0A57101E010E0A27101280BD0A07953
:1013A00001F03AFF6078002803D00848807F0028C9
:1013B00003D0012080E70220F2E700207CE7000054
:1013C000A08C0000100000207C00002060010020A4
:1013D000F8B5314C05462189E06800F08BFA2646C5
:1013E00001272036002802D1707900280CD03079EE
:1013F00001283AD12189E06800F07CFA274A0025CB
:101400002749012807D01CE02846216A01F0AAFFDD
:1014100020623771EEE7234B206AC018224B9842B6
:101420000CD24878002821D0CF70022010701D48BF
:101430001E4BC04318601F481D4B038035717571EA
:1014400025621D4B206AC0181C4B98420DD2707942
:1014500000280AD14878002810D0CF7002201070E0
:1014600010481249C04308607771F8BD8878401C65
:10147000C0B288700328DAD18D70D8E74F708D70B4
:1014800015700F490F48FEF72FFF0A4805800E48D8
:10149000A5770580E4E70000600100206F000020D0
:1014A00060000020323333C23233F30134000020B5
:1014B000701700001A000020FFFF3FC0FFFF7F00F1
:1014C0009801002000881046640000200848402150
:1014D0000180890141800921C90641608021018183
:1014E0000449C16004490161282101757047000069
:1014F00060010020001400481801002010B5064CBF
:101500003C21A08B48431421FEF7F6FEFFF7E4F9D7
:10151000A0610020A08310BD6001002010B5402014
:1015200000F00AF910BD000010B50421014800F0D8
:1015300015FF10BD8800002072B6FEE7F8B5714CAB
:1015400005462088A84274D1206900F091FD2188C9
:10155000E07FCEE0A942FCD1206900F0B1FD00207F
:10156000E077A08B401CA0836188606800F0C2F91E
:10157000654D0127654E002806D06188606800F03F
:10158000B9F9012860D0B7E06148407801281CD142
:101590005F48C078002818D15E48008881085E48FE
:1015A0000180207DFFF798F9A16901F079FF288873
:1015B00001D20A3000E01E30288001B24B20000129
:1015C000814200DB28800220A077514880780128E2
:1015D00015D1207DFFF780F9A16901F061FF28880E
:1015E00001D20A3000E01E30288001B24B200001F9
:1015F000814200DB2880494928880880A777444831
:10160000807802281CD1207DFFF766F9A16901F0DE
:1016100047FF306801D23C3001E0FF302D303060B0
:101620003F49002008703F483168814202DA08468D
:1016300001E066E030603C4908603C49086056E0E3
:101640003C493B48088057E03148407801281BD18D
:101650002F48C078002817D12E48008881082E48CE
:101660000180207DFFF738F9A16901F019FF288872
:1016700001D20A3800E01E38288000B2322801DC8E
:10168000322028800220A07721488078012814D1B8
:10169000207DFFF721F9A16901F002FF288801D21E
:1016A0000A3800E01E38288000B2322801DC3220DF
:1016B00028801A4928880880A7771548807802284A
:1016C000BED1207DFFF708F9A16901F0E9FE30687D
:1016D00001D23C3801E0FF382D383060002803DCAF
:1016E0000F4807700020306001460F480160A7775F
:1016F000A6E7022800D82DE7206900F0E1FC0020D1
:10170000E077F8BD60010020680000207400002030
:101710006000002066000020640000206A000020B5
:101720007C00002080510100700000207800002023
:10173000701700001A00002010B504494A690242DF
:1017400002D04861FFF7FAFE10BD0000000401401E
:10175000F8B5002303240125BAE02E469E40B44686
:1017600032407CD00E79B607B60F012E01D0022E82
:1017700017D186682746B6465E00B7400096764683
:10178000BE43B646CF68009EB74076463743876073
:1017900046686746BE430F79FF06FF0F9F403743F9
:1017A00047600E79F643B6070ED0C6682746B446A2
:1017B0005E00B646B7406646BE43B4468F6876467E
:1017C000B74066463743C7600E79B607B60F022E9C
:1017D00014D1DE08B60036180096366A5F07B446A4
:1017E000FE0E0F27B646B7406646BE43B4460F69A5
:1017F0007646B74066463743009E376206682746FE
:10180000B4465E00B646B7406646BE430F79B4465E
:10181000BF07BF0F7646B7406646374307604E683E
:10182000B603B60F53D02D4FBE692E43BE61BE69BD
:101830009F08F607F60F2A4EBF00BE190096B6683D
:101840000F27B4469E07360FB646B7406646BE43DE
:101850000927FF06B446B84202D1002710E036E05F
:10186000204FB84201D101270AE01F4FB84201D1F1
:10187000022705E01D4FB84201D1032700E00527EC
:101880007646B74066463743009EB760184E3668C6
:101890004F689643FF0300D51643154F3E607E68A0
:1018A0004F689643BF0300D51643114F7E60BE6854
:1018B0004F689643FF0200D516430D4FBE60FE6889
:1018C0004F689643BF0200D51643094AD6605B1C99
:1018D0000A681646DE4000D03FE7F8BD001002401F
:1018E000000001400004004800080048000C0048C7
:1018F000000401400069084000D001207047002A20
:1019000001D08161704781627047000001488068A2
:1019100070470000000000200248816802788918A2
:10192000816070470000002010B506480168102251
:1019300011430160012000F007F800F027F80020B3
:1019400010BD00000020024070B504460D4D7D2002
:101950002978C000FEF7D0FC01460B480068FEF76E
:10196000CBFC00F0BFFA002809D1042C07D20022DA
:101970002146401E00F02AF800206C6070BD012056
:1019800070BD0000000000200C00002008B50848D1
:101990008169012211438161816911400091C2690D
:1019A00001040A43C261C0690840009008BD0000FC
:1019B00000100240002805DBC106C90E0120884046
:1019C000014908607047000000E100E010B501F037
:1019D00097FC10BDF8B50F46060059D03A4D28685F
:1019E000C007C00FB84209D22868400840003843F9
:1019F00028602868C007C00FB84249D13068334C0E
:101A000081070CD5400704D5606807210902084307
:101A100060606068F0218843B16808436060307896
:101A2000C00726D0706801280ED0216802280ED089
:101A3000890700292CDA61688908890001436160FF
:101A4000FFF764FF00900DE021688903F1E7890149
:101A5000EFE7FFF75BFF0099411A1D48814201D96A
:101A60000320F8BD60680C21084071688900884235
:101A7000EFD12868C007C00FB8420BD928684008CA
:101A80004000384328602868C007C00FB84201D022
:101A90000120F8BD3078400706D5606807210902AB
:101AA0008843F1680843606000F018F86168094AEB
:101AB0000906090F515CC840074908600120FFF77B
:101AC00043FF0020F8BD000000200240001002404B
:101AD00088130000E03500080C00002010B514A3A6
:101AE0000FCB88B06C460FC415A30FCB0FC4184A98
:101AF00051680C200B4603401648042B16D0082BC7
:101B000014D18B021B0F6C46E45CD26A04AB120743
:101B1000120F9A5CC90305D500231946FEF738FB5E
:101B2000214601E020460C4901F0C4FB08B010BD7D
:101B300002030405060708090A0B0C0D0E0F10100E
:101B40000102030405060708090A0B0C0D0E0F100D
:101B50000010024000127A0000093D00FEB50400AA
:101B600070D02078DC4DC0074AD068680007800F2D
:101B7000012807D068680007800F022809D168682B
:101B8000C00306D5286880033AD560680028E7D0EE
:101B900036E06168012914D001208004002901D0B9
:101BA000052914D02A68012109048A432A6029687A
:101BB000814329606068002816D0FFF7A7FE06461B
:101BC0000EE028680121090408432860F2E729682B
:101BD00001432960F5E7FFF799FE801B64286ED862
:101BE00028688003F7D50BE0FFF790FE064604E077
:101BF000FFF78CFE801B6428F1D828688003F7D497
:101C000020780126800700283CDA68680007800FEA
:101C100007D068680007800F022809D16868C003F0
:101C200006D42868800716D5E06801280AD112E09A
:101C3000E0680028286816D030432860FFF766FE69
:101C4000074605E043E1FFF761FEC01B0228C6D846
:101C500028688007F7D52868F82188432169C900DA
:101C6000084328600EE0400840002860FFF74EFE61
:101C7000074604E0FFF74AFEC01B0228AFD82868D9
:101C80008007F7D42078000722D5E0690028686A29
:101C90000ED030436862FFF739FE074604E0FFF7D5
:101CA00035FEC01B02289AD8686A8007F7D50FE076
:101CB000400840006862FFF729FE074605E09DE006
:101CC000FFF724FEC01B022889D8686A8007F7D472
:101CD000207804274007002860DA00200190E86996
:101CE000C00008D4E969B8060143E961E969014027
:101CF00001200091019079480168C90511D401685B
:101D0000821511430160FFF701FE009005E0FFF727
:101D1000FDFD0099401A642870D870480068C0051D
:101D2000F5D5A06801280AD0002801D0052810D0D8
:101D3000286A400840002862286AB84301E0286AFF
:101D400030432862A068002812D0FFF7DFFD009022
:101D50000AE0286A38432862F1E7FFF7D7FD0099C7
:101D6000411A5F48814249D8286A8007F5D50DE0BD
:101D7000FFF7CCFD009006E0FFF7C8FD0099411A7F
:101D8000574881423AD8286A8007F5D4019800283C
:101D900004D0E969012000078143E9612078C00689
:101DA00035D5606901280CD0401D686B23D03843BD
:101DB0006863686B400840006863FFF7A7FD06464C
:101DC00022E0686B38436863686B30436863FFF7F1
:101DD0009DFD064604E0FFF799FD801B02285BD8B5
:101DE000686B8007F7D5686BF8218843A169C90043
:101DF000084368630BE0B8436863F4E74CE0FFF71F
:101E000085FD801B022847D8686B8007F7D4206ABD
:101E100000285ED069680907890F022942D001268F
:101E200036060228286805D0B0432860FFF76EFD0B
:101E3000044633E0B0432860FFF768FD074604E03E
:101E4000FFF764FDC01B022826D828688001F7D45C
:101E5000E86AE16A000900010843E862616AA06A71
:101E6000084369683D22120491430843686028686A
:101E700030432860FFF74AFD044604E0FFF746FDC3
:101E8000001B022808D828688001F7D521E0FFF759
:101E90003DFD001B022801D90320FEBD28688001FA
:101EA000F5D416E00128F8D06868E96A0122120426
:101EB000636A02409A420AD10907E26A090F914215
:101EC00005D10F2189040840A16A884201D0012070
:101ED000FEBD0020FEBD000000100240007000406A
:101EE00088130000094910B5401E884201D901201D
:101EF00010BD074C60610321081F01F001FA0020AA
:101F0000A06107202061002010BD0000FFFFFF003E
:101F100000E000E070477047F0B502462032137FC2
:101F2000012B1ED0012515770223537706687468AC
:101F3000B3687027BC430F682743776000680A4C7A
:101F4000A04205D0094CA04202D0094CA04204D1C5
:101F500080244968A3431943816055770020107796
:101F6000F0BD0220F0BD0000002C01400004004044
:101F70000040014070B5040005D025462035687F3B
:101F8000002802D006E0012070BD002028772046FE
:101F900000F014F802206877211D206800F074FF1B
:101FA00001204034A071A877E87720706070A0709D
:101FB000E070207160716877002070BD10B586B048
:101FC000044614216846FEF782F92368244C012256
:101FD000244852040221A3421FD18469C3141C4324
:101FE000846184691C4005944369134343614069DB
:101FF000019110400590080200900020029003908B
:10200000049109206946C006FFF7A2FB0022114691
:102010000E20FFF7DBFC0E200EE0134CA3420FD185
:10202000C2690A43C261C069002208400590114696
:102030001020FFF7CBFC1020FFF7BCFC06B010BD52
:102040000A498B42FAD18169114381618069022179
:102050001040059000221520FFF7B8FC1520EBE793
:10206000002C0140001002400004004000440140E8
:10207000014620314A7F012A01D001207047022207
:102080004A770268D36801210B43D3600068094A8C
:10209000904205D0084A904202D0084A904204D1AA
:1020A00082685207520F062A02D002680A43026071
:1020B00000207047002C0140000400400040014017
:1020C0000168CA6852085200CA6001680A6A084B6F
:1020D0001A4207D10A6A9B101A4203D10A685208B1
:1020E00052000A6001212030417700207047000033
:1020F00011110000F8B5054604462035287F00265A
:10210000012817D00120287702206877226890687C
:102110007727FF23B8431B02984390600868502834
:1021200038D00EDC20284FD006DC00284CD01028F8
:102130001ED149E00220F8BD302845D0402817D1F3
:102140003AE060282ED0702819D001221203801A9C
:102150000FD090420CD1CB684A688968206800F0A3
:10216000E4FE20688168012292031143816000E04F
:10217000012601206877002028773046F8BDCB681B
:102180004A688968206800F0D0FE21688868384372
:102190008860EEE7CA684968206800F0D5FF5021E2
:1021A000206806E0CA684968206801F007F86021E5
:1021B000206800F0C5FEDCE7CA684968206800F0C6
:1021C000C3FF40212068F4E7226801461046F0E78B
:1021D00010B5054A0168914204D1007F022801D15F
:1021E00000F000FE10BD0000002C0140F8B50446D0
:1021F0000020264620360090307F0D4601280ED064
:1022000001203077002A0CD0042A19D0082A2AD0BD
:102210000C2A4ED00090002030770098F8BD0220A4
:10222000F8BDEB6806CD083D206800F09FFF2068F0
:1022300082690C218A43826120688169AA680FE063
:10224000EB6806CD083D206800F0CBFF206881696F
:10225000032292029143816120688169AA68120277
:1022600011438161D7E788CD287921688446086ABF
:10227000FF22013290430862C8690A6A8008800020
:102280003843F027B84367463F073F0E0743052012
:10229000400282430A20034018021043CF610862C3
:1022A0002068C1690C229143C1612068C1692A6814
:1022B0002CE02B6820689E466F682B7B016ABC4629
:1022C0000122120391430162C169026A03273F029E
:1022D000B94367463F020F430F2109038F43190794
:1022E000090C052339435B039A4373460A273B4095
:1022F0001B031343C16103622068C2690321890281
:102300008A43C2612068C169AA6812021143C1618F
:1023100081E770B5040005D025462035687F002888
:1023200002D006E0012070BD00202877204600F092
:1023300014F802206877211D206800F0A5FD012017
:102340004034A071A877E87720706070A070E070CA
:10235000207160716877002070BD704770B50346CA
:102360000446002520334030002908D0042909D034
:1023700008290AD046784279012E0BD108E09E7FC9
:102380008278F9E7DE7FC278F6E706780279F3E72C
:10239000012A01D0012070BD0222002909D00429A0
:1023A0000ED0082912D0427042710C292ED001257E
:1023B0002AE09A7782702068C3681343C3600CE0F8
:1023C000DA77C2702068C268042304E002700271E8
:1023D0002068C26808231A43C2600122206800F006
:1023E00097FD0C4A20680121904205D00A4A90428C
:1023F00002D00A4A904204D182685207520F062A3C
:1024000002D002680A430260284670BD2068C26894
:102410001023E0E7002C0140000400400040014090
:1024200070B50446006801690025C9438907002981
:1024300015DBC168C943890711D4E91E0161012078
:102440002077206880698007204602D0FFF7C0FE11
:1024500004E000F0BFF8204600F04AF92577206834
:102460000169C943490717D4C168C943490713D44F
:102470000421C9430161022020772068806980051A
:10248000800F204602D0FFF7A3FE04E000F0A2F880
:10249000204600F02DF9257720680169C943090716
:1024A00016D4C168C943090712D40821C943016180
:1024B000042020772068C0698007204602D0FFF7FB
:1024C00087FE04E000F086F8204600F011F9257739
:1024D00020680169C943C90617D4C168C943C90640
:1024E00013D41021C9430161082020772068C069F6
:1024F0008005800F204602D0FFF76AFE04E000F05E
:1025000069F8204600F0F4F8257720680169C9438E
:10251000C90708D1C168C943C90704D1891E01612F
:10252000204600F03BF920680169C943090609D437
:10253000C168C943090605D48021C9430161204609
:10254000FFF7E8FC20680169C943490609D4C1685E
:10255000C943490605D44021C9430161204600F022
:102560002BF920680169C943890609D4C168C943A8
:10257000890605D42021C94301612046FFF7CBFC21
:1025800070BD000010B586B0044614216846FDF702
:102590009EFE0D492068884214D10C4842690913F7
:1025A0000A434261406908400590102000900220D3
:1025B0000190002002900390012004906946044895
:1025C000FFF7C6F806B010BD00040040001002403E
:1025D000000400487047F8B5064604462036307FB0
:1025E00000270D4601280ED001203077002A0CD09C
:1025F000042A1BD0082A2FD00C2A3ED00127002005
:1026000030773846F8BD0220F8BD206800F0A0FC05
:102610002068816908221143816120688269042150
:102620008A438261206881692A6912E0206800F08B
:10263000D3FC206882690121C9020A4382612068B3
:1026400081690122920291438161206881692A692E
:10265000120211438161D2E7206800F0FDFC20687E
:10266000C16908221143C1612068C26904218A43FB
:10267000C2612068C1692A6912E0206800F02EFD5D
:102680002068C1690122D2021143C1612068C26978
:10269000012189028A43C2612068C1692A69120244
:1026A0001143C161ABE770B5040005D02546203564
:1026B000687F002802D006E0012070BD0020287746
:1026C000204600F014F802206877211D206800F0F1
:1026D000DBFB01204034A071A877E87720706070A0
:1026E000A070E070207160716877002070BD704745
:1026F0007047000030B504460222203000290AD07D
:1027000004290DD02046403008290ED04378012BF3
:1027100010D0012030BD837F012BFAD182770AE0EF
:10272000C37F012BF5D1C27705E00378012BF0D1EF
:10273000027000E042700122206800F0E9FB1249BB
:102740002068124B884207D0984205D0104A904228
:1027500002D0104A904204D1426C0125ED032A4375
:10276000426420680122884204D00B49884201D08B
:10277000984204D181684907490F062902D00168AF
:1027800011430160002030BD002C01400040014099
:102790000044014000480140000400400449006832
:1027A0000968884203D10349C87F401CC877704735
:1027B00018010020600100207047FEE710B50B48AB
:1027C0000188491C01804188491C41808188491C3D
:1027D0008180C188491CC1800189491C01814189CE
:1027E000491C418100F052FA10BD00004C0000204D
:1027F000F0B587B014216846FDF769FD3448426999
:10280000012189050A43426142690A4005924269F1
:1028100049110A43426142690A40059242694900EE
:102820000A434261406909260840F60605900022E5
:1028300028493046FFF763F8FF210122AB313046CB
:10284000FFF75DF8254F012223493846FFF757F877
:102850003921002289023846FFF751F82048002428
:102860000125009002946946019503943046FEF7D5
:102870006FFF1C4800900294694601950394384606
:10288000FEF766FF280300900194694602943046E3
:10289000FEF75EFF4020009011200004124D0190D1
:1028A000694602942846FEF753FF80200090019469
:1028B000694602942846FEF74BFF002202210720BA
:1028C000FFF784F80720FFF775F807B0F0BD0000A8
:1028D00000100240550C00000718000000040048DA
:1028E000FF0D000007FC00000014004810B50B4865
:1028F00009490160FF21E0314160002181606322CC
:102900000161C260416180218161FFF733FB0028D2
:1029100001D0FEF711FE10BD004401401801002057
:1029200010B58AB000240494059406940794089482
:10293000214809940094019402941E490394016073
:102940002F2184604160046144611C498461C1603D
:10295000FFF710FB002801D0FEF7EEFD0120000379
:10296000049004A91448FFF7C5FB002801D0FEF726
:10297000E3FD1148FFF7CDFC002801D0FEF7DCFD98
:10298000089408A90C480994FFF7C6FA002801D05A
:10299000FEF7D2FD012001900094029404226946C2
:1029A00003940548FFF722FC002801D0FEF7C4FD80
:1029B0000AB010BD002C014088000020FFFF00007D
:1029C00010B58EB000240794089409940A940B94CF
:1029D0001C2168460C94FDF77AFC21481F490160D0
:1029E000062184604160FF21046190318461C160EF
:1029F000FFF7C0FA002801D0FEF79EFD012000037A
:102A0000079007A91648FFF775FB002801D0FEF7CD
:102A100093FD1348FFF747FE002801D0FEF78CFD19
:102A20000B940BA90E480C94FFF776FA002801D0FE
:102A3000FEF782FD60200090019402940022694616
:102A400004940748FFF7C7FD002801D0FEF774FD86
:102A50000348FFF797FD0EB010BD000000040040D2
:102A6000D0000020F8B52D4D01216A780920C90257
:102A7000C0062B4C012A0AD00022FEF740FF216835
:102A800000204863E8702749FDF72EFCF8BD264E6C
:102A9000244A33880832254F0092002B3AD0244A2A
:102AA0001278002A03D0234A1268002A32D0EA782A
:102AB000002A21D00122FEF722FF0098FDF709FC31
:102AC00001463846814202DD0099FDF70DFC009871
:102AD000FDF7FFFB4100090E06D07F21C90500F07C
:102AE00017FD0099FDF700FC0098FDF7F2FBFDF7DC
:102AF000AFFE21684863F8BD0122FEF700FF308871
:102B0000084B0E498004000C103B0B4A098800F06A
:102B100045F8E9E70122EA70CCE7000060000020F8
:102B2000D0000020980100206A0000200000C84367
:102B30008400002078000020A4010020660000200E
:102B400010B500210748FFF7D5FD09240122E4064E
:102B5000D1022046FEF7D3FE012291022046FEF765
:102B6000CEFE10BDD0000020FEE7000010B50749E2
:102B70000748FDF7B9FB05490648091DFDF7B4FBF9
:102B8000024905480831FDF7AFFB10BDA401002044
:102B900082A8FB386F12833B17B7513AFEB51C462B
:102BA0001546401AFDF790FE2146FDF79DFB0146B4
:102BB0002D48814202DD2146FDF796FB2046FDF7B8
:102BC00088FB01462948814202D92146FDF78CFB4A
:102BD000204610300746FDF77CFB06462046FDF7F1
:102BE00078FB3146009000F0BDFB3946FDF77CFBD9
:102BF0000190204608300746FDF76BFB0146009820
:102C000000F086FC211DFDF76FFB06463946009853
:102C1000FDF76AFB28460830FDF75BFB314600F004
:102C2000E7FB0746281DFDF754FB019900F0E0FB88
:102C300006462846FDF74DFB009900F0D9FB3146CA
:102C400000F090FB394600F08DFB214618310C4610
:102C5000FDF74AFB01467F20C005814202DA21468A
:102C6000FDF742FBFEBD000000001643000048C314
:102C70007047704710B5FEF74FFE034800780028F4
:102C800001D0FFF79BFD10BD6000002070B5204C07
:102C900000252088022802D3FEF772F9258060887B
:102CA0000A2803D31B48FEF793FB6580A0883228CF
:102CB00007D31948FDF7C8FEFEF714F8FFF7D2FE58
:102CC000A580E08864280AD36420FDF701FF134E35
:102CD0003046FDF771FF3046FDF746FFE58020895D
:102CE000FF26F536B04207D33F200006FDF786FFEA
:102CF0003046FDF7C1FF258160897D21C9008842EA
:102D000004D37F20C005FEF7F9FB658170BD00008C
:102D10004C0000200AD7233CCDCC4C3DCDCCCC3D43
:102D200030B591B030216846FDF7D1FA002401207A
:102D3000009001900E94000409900F9400010D94EE
:102D400002250A900C9408950B946846FEF706FF3E
:102D5000002801D072B6FEE707200C900E940121E6
:102D60000D950F940CA8FEF735FE002801D072B621
:102D7000FEE711B030BD704770B50E4C00252570D0
:102D8000FFF7DEFEFEF7D0FBFEF7A0FBFFF7EEFE3F
:102D90000949C820088009490D4A088008480A499D
:102DA000056008480560012008700849116020701E
:102DB00070BD000060000020680000206A00002054
:102DC00074000020780000207C000020CDCCCC3D99
:102DD0003400002010B50248FFF722FB10BD0000B0
:102DE00018010020F8B5194800264078184C012831
:102DF00003D06660A660E660F8BD16480068856B83
:102E00006560A068854201D9281A02E01249081AB3
:102E10004019014620606428EED31048FDF76CFA93
:102E20000521FDF769FA0E49E0600A88FF23871A39
:102E3000F4337F1E9F4203D3121A521E9A4200D2CD
:102E400008800848A5600670F8BD000060000020FA
:102E50003C00002088000020FFFF00000087930353
:102E6000660000206E00002010B50248FFF7D8FA77
:102E700010BD00008800002010B50248FFF7D0FA0E
:102E800010BD0000D0000020F0B502681A4B1B4CAA
:102E9000984201D0A04203D17025AA434D682A432D
:102EA000174D184E184F98420AD0A04208D0174C20
:102EB000A04205D0A84203D0B04201D0B84205D10B
:102EC0001446032212029443CA6822438024A24378
:102ED0004C69224302608A68C2620A688262984230
:102EE00005D0A84203D0B04201D0B84201D109694F
:102EF000016301214161F0BD002C0140000400404C
:102F000000400140004401400048014000200040D2
:102F100010B5CB06DB0E0121046A99408C43046294
:102F2000016A9A401143016210BD30B58468FF25E3
:102F30002D021B021343AC430B432343836030BD7C
:102F4000826870239A430A4307210A4382607047CC
:102F5000F0B5026A520852000262056A436882694B
:102F60007024A24392080C689200144302229543F5
:102F70008A68164E2A43144DA84207D0B04205D0A5
:102F8000134FB84202D0134FB84206D10827BA43B4
:102F9000CF681743042297433A46A84207D0B0426D
:102FA00005D00B4DA84202D00A4DA84206D10325F8
:102FB0002D02AB434D691D438B692B4343608461F4
:102FC000496841630262F0BD002C014000400140AD
:102FD000004401400048014070B5026A10239A4342
:102FE0000262056A4268836973242402A3430C6861
:102FF00024021C4320239D438B681B012B43124D4D
:10300000A84208D11D46CB688026B5431B012B433F
:103010004025AB4308E00D4DA84205D00C4DA84219
:1030200002D00C4DA84208D10325AD02AA434D6938
:10303000AD0015438A6992002A4342608461496861
:103040008163036270BD0000002C0140004001401C
:10305000004401400048014070B5026AFF2301337B
:103060009A430262056A4368C2697024A2439208C7
:103070000C68920014430122520295438A6812029E
:103080002A43124DA84208D11546CA68C614B54352
:1030900012022A430515AA4308E00D4DA84205D0A7
:1030A0000C4DA84202D00C4DA84208D103252D0397
:1030B000AB434D692D011D438B691B012B434360BD
:1030C000C4614968C163026270BD0000002C014008
:1030D00000400140004401400048014030B5026A10
:1030E00001231B039A430262046A4268C369732581
:1030F0002D02AB430D682D021D4301235B039C434E
:103100008B681B0323430C4CA04208D00B4CA042FD
:1031100005D00B4CA04202D00A4CA04205D101249C
:10312000A403A2434C69A40122434260C5614968DB
:103130000164036230BD0000002C014000400140EA
:10314000004401400048014030B5036A046A640845
:10315000640004628469F025AC43120122430A240E
:10316000A3430B438261036230BD000070B5046A63
:103170006408640004628469056A0D4EB04205D09B
:103180000C4EB04202D00C4EB04202D1A408A400B2
:1031900000E001221443F02294431A07120E0A237E
:1031A00022439D43194029438261016270BD0000A2
:1031B000002C0140000400400040014030B5036A8B
:1031C0001024A34303628469036A0F252D031203AD
:1031D000AC432243A024A343090119438261016245
:1031E00030BD70B5046A1025AC4304628569046A79
:1031F00003263602B54312022A430F252D031B076F
:103200001B0CAA431343A0220901944311402143FC
:103210008361016270BD0000F8B509260024F6063E
:1032200001270546BF022846A04000061FD52300FF
:1032300000F058F80705070B0D0F191B14000122A9
:103240001FE0012220E0304606E001221FE00122BB
:1032500020E0012221E01648FEF751FB641CE4B295
:10326000072CE0D3F8BD01221BE001221DE0230062
:1032700000F038F80706090C0F12161A0500EDE7E2
:1032800000224021DFE700221021DCE70022042198
:10329000D9E700223946DEE7002201214903DAE7B7
:1032A000002201218903D6E700220121C903D2E7C8
:1032B00000040048F8B5040C8BB2264682B25E4387
:1032C0000D0C1046370C5843360480190021794103
:1032D00016466E43370C36048019794126466E43F4
:1032E0008919F8BD30B47446641E2578641CAB425D
:1032F00000D21D46635D5B00E31830BC1847000038
:103300008307FF22DB0E9A408907090E99400028A7
:1033100008DB830809489B001B1818689043084382
:10332000186070470007000F0838830804489B00A6
:103330001B18D86990430843D861704700E400E047
:1033400000ED00E0FEF7F0FAFFF7EAFCFFF750FAB5
:10335000FFF7E6FAFFF734FBFFF7C8FAFFF70CFDBB
:10336000FEE7000070B501250400ED074C4020D4B5
:10337000441A01D2001B0919C60D4B00F2B2FF2AF4
:1033800029D01B0E2CD000020C02D31A2C43DC4097
:103390002843051910D2280A02D3401C6D0611D00B
:1033A000761EF6058019FF2A00DA70BDC00DC00533
:1033B00070BD694000F0B2F801200543C541521CC0
:1033C000761CE8E764089C40C90161408900E7D1A8
:1033D0000124A043E4E71B0E440200D0034870BD63
:1033E000002AFCD1C00FC00770BD00BF0000C07F25
:1033F00070B5420064414B005C41120E39D01B0E87
:1034000038D0FF2A3CD0FF2B3AD040024902400A74
:10341000490A060045184E43000A090AD2184843D3
:10342000ED017F3A0104731A4019190C4318990FE2
:1034300004D001215B0849075B1A521CD80904D348
:10344000401CF50301D19D0607D0FF2A08D2D505FF
:1034500006D0E4072043401970BD0125A843F4E7D6
:10346000002A01DCE00770BD2402FF202043C005D4
:1034700070BD1B0EFF2A03D0FF2B01D0E00770BDEB
:10348000FF2645003606B54206D84D00B54203D8A2
:10349000D218FF2A00D0E7E7004870BD0000C07FC7
:1034A00001230A00DB0502430DD4DA4203D49A4219
:1034B00007D481427047D94214D4D84212D48142F1
:1034C000704789427047DA4203D59A42F9D588425B
:1034D00070475B004A00DA4204D24200DA4201D26D
:1034E000884270474840414010B5024A4840FDF7C5
:1034F000F7F910BD0900160470B50125ED07684005
:1035000004004C4002D5694000F008F8FFF730FF96
:1035100070B501250400ED074C4022D4441A02D2B4
:103520006C40001B0919C60D4B00F2B2FF2A4BD0AC
:103530001B0E50D000020C02D31A2C43DC40A843CF
:10354000051B05D5AD0019D36D08761E521E37D068
:10355000F605280A01D2801970BD70416D0603D0AE
:1035600070BD6940FFF704FF9C40090261404900BB
:1035700001D0401E70BD0124A04370BD6D081DD058
:1035800001202B0C01D12D0410302B0E01D12D0266
:1035900008302B0F01D12D01001DAB0F01D1AD0063
:1035A000801CEB0F01D16D00401C6D00361A121A01
:1035B000680AF5054019012A02DB70BD002070BDC4
:1035C000C036300AC00770BD1B0E440201D1FF2B6C
:1035D00000D1024870BD002AF0D070BD0000C07F4D
:1035E00000000000000000000102030406070809B3
:1035F000103600080000002088000000F8000008D5
:103600009836000888000020880700001401000890
:1036100001000000040000000000000000127A0019
:10362000000000000000000000000000B4D86C00A2
:1036300000000000FC60DAF266B6BEE0FEF60000B4
:10364000000000000000000000000000000000007A
:10365000000000000000000000000000000000006A
:10366000000000000000000000000000000000005A
:10367000000000000000000000000000000000004A
:10368000000000000000000000000000000000003A
:08369000000000000000000032
:04000005080000B53A
:00000001FF
