:100000000200DE02000880FE323232020009323283
:1000100032323202000A323232323202000E3232D0
:0A00200032323202000F3232323267
:03002B00020010C0
:03003300020011B7
:03003B00020012AE
:03004300020016A2
:0B004B00020017440000016E360000A8
:0300630002001880
:03007B0002001967
:0300830002001A5E
:03008B0002001E52
:0300930002001F49
:03009B0002002040
:0300A30002002137
:0300AB000200222E
:0300B30002002622
:0300CB0002002709
:0300D30002002800
:1000DB0002002978FFE4F6D8FD9000007F007E0433
:1000EB00E4F0A3DFFCDEFA758107020133020006A0
:1000FB00E493A3F8E493A34003F68001F208DFF442
:10010B008029E493A3F85407240CC8C333C4540FB9
:10011B004420C8834004F456800146F6DFE4800B8C
:10012B00010204081020408090004EE47E01936091
:10013B00BCA3FF543F30E509541FFEE493A36001B9
:10014B000ECF54C025E060A840B8E493A3FAE49323
:10015B00A3F8E493A3C8C582C8CAC583CAF0A3C8D1
:10016B00C582C8CAC583CADFE9DEE780BEA3F8E053
:10017B00C5F025F0F0E582158270021583E0C838D2
:10018B00F0E822A8828583F0D083D0821201A512D9
:10019B0001A51201A51201A5E473E493A3C583C5C0
:1001AB00F0C583C8C582C8F0A3C583C5F0C583C895
:0401BB00C582C8220F
:00000001FF
