:020000040800F2
:1000000068100020CD010008C54B0008A34300087C
:10001000B1490008B5030008755100080000000050
:10002000000000000000000000000000D34C0008A9
:100030007508000800000000D14C0008DD4D0008E4
:10004000E7010008E7010008E7010008E7010008F0
:10005000E7010008E7010008E7010008012C00089B
:10006000E7010008E7010008072C0008E701000885
:10007000E7010008E7010008E7010008E7010008C0
:10008000E7010008E7010008E7010008E7010008B0
:10009000E7010008E7010008E7010008E7010008A0
:1000A000E70100082D4F0008E7010008E7010008FC
:1000B000394F0008454F0008514F0008E70100087C
:1000C000E7010008E7010008E7010008E701000870
:1000D000E7010008E7010008E7010008E701000860
:1000E000E7010008E7010008E7010008E701000850
:1000F000E7010008E7010008694F0008E701000870
:10010000E7010008E7010008E7010008E70100082F
:10011000E7010008E70100085D4F0008E70100085B
:10012000E7010008E7010008E7010008E70100080F
:1001300000F002F800F03AF80AA090E8000C8244BF
:100140008344AAF10107DA4501D100F02FF8AFF29C
:10015000090EBAE80F0013F0010F18BFFB1A43F0A5
:1001600001031847F858000018590000103A24BF3E
:1001700078C878C1FAD8520724BF30C830C144BF0C
:1001800004680C607047000000230024002500264E
:10019000103A28BF78C1FBD8520728BF30C148BFEA
:1001A0000B6070471FB51FBD10B510BD00F06BF898
:1001B0001146FFF7F7FF05F0DFF800F089F803B408
:1001C000FFF7F2FF03BC00F091F8000009488047F8
:1001D00009480047FEE7FEE7FEE7FEE7FEE7FEE729
:1001E000FEE7FEE7FEE7FEE704480549054A064B41
:1001F00070470000F34E000831010008680A002033
:1002000068100020680C0020680C0020B2F1200368
:100210000AD5C2F1200320FA02F001FA03F321FA11
:1002200002F140EA0300704721FA03F04FF00001A9
:1002300070474FF0000200B51346944696462039A9
:1002400022BFA0E80C50A0E80C50B1F12001BFF48F
:10025000F7AF090728BFA0E80C5048BF0CC05DF8F5
:1002600004EB890028BF40F8042B08BF704748BF43
:1002700020F8022B11F0804F18BF00F8012B7047B7
:10028000704770477047754600F02CF8AE46050081
:100290006946534620F00700854618B020B5FFF7A1
:1002A000A3FFBDE820404FF000064FF000074FF0DD
:1002B00000084FF0000B21F00701AC46ACE8C00984
:1002C000ACE8C009ACE8C009ACE8C0098D4670478D
:1002D00010B50446AFF300802046BDE81040FFF79C
:1002E0006EBF000000487047040A00200149182032
:1002F000ABBEFEE72600020070472DE9F05F924694
:100300000A46DDE90A4783461E465146104605F077
:100310001FFBE060326881460146104605F010FA86
:1003200020601BF0FF4087F0004504D059464FF095
:100330007E5005F0A7F880465046216A05F008FB7C
:10034000414605F0FDF90146B06880F0004005F037
:10035000F7F9A0612846494605F0BEFA01D22846C1
:1003600007E03946E06805F0B7FA01D2384600E008
:10037000E068716805F0E4F9594605F0E1F9616853
:1003800005F012F8606010F1FF4F01D3002106E084
:100390000C9905F0A1FA01D20C9900E06168616046
:1003A000206805F001F8A16904F0FEFFC4E908A087
:1003B000BDE8F09FFEE700002DE9F041204C8046AB
:1003C0004FF4000160688E131E4F884204DAA26861
:1003D0008A4201DA002219E010F0FF4F09D0012211
:1003E0003146384602F07FFF4046616805F0A5FAC5
:1003F0006060A56815F0FF4F1FD04046216804F0EB
:10040000D3FF11492060884206DA0122314638467E
:10041000BDE8F04102F067BF0B490C4A4942014474
:100420009142D7D30A49884207DB4FF07E512846D4
:1004300005F08EFAA06000202060BDE8F081000089
:1004400010000020000C0140CDCC4C3ECDCC4C0027
:100450009A99993E70B50446174800F13C0650F849
:10046000245056F82400A6F17801854201D9281AB3
:1004700003E04FF6FF72101A284441F8240005F0FB
:1004800017F901460D4804F0FDFF0B49783141F89A
:10049000240046F824500A4905F052F9094904F0AD
:1004A000F1FF05F0B1F8084904EB440201EB021139
:1004B000C8800020086170BD9403002000401C46E5
:1004C000000070420000A040340700202DE9F047F2
:1004D000154FDFF858808146002400BF04EB44002C
:1004E00007EB00156878C8B1EE69002E16DD58F8E4
:1004F0002410484604F058FF48F82400B0F17E5F0D
:100500000CDB761EEE6106D1022028750120094918
:10051000287007480860002148F82410641CE4B2E1
:100520000F2CDBD3BDE8F08734070020F80600204D
:100530000000A040180000202DE9F0470024394DAC
:10054000394E8146A04600BF04EB440005EB00177E
:100550003878E8B3B7F9060064285DDC56F8241053
:10056000484604F021FF46F82400B0F17E5F53DDD9
:100570002E4887F8018087F800802D4980F8018097
:10058000012008702B484246C0F800806878012896
:1005900040D095F8310001283CD095F86100012841
:1005A00038D095F89100012834D095F8C100012881
:1005B00030D095F8F10001282CD095F821010128C0
:1005C00028D095F85101012824D095F8810100E048
:1005D00022E001281ED095F8B10101281AD095F823
:1005E000E101012816D095F81102012812D095F8E2
:1005F000410201280ED095F8A10201280AD000205E
:1006000000EB400105EB0111401C8B69C0B2CB61CE
:100610000F28F5D346F82420641CE4B20F2C93D3A2
:10062000BDE8F08734070020480400204C0000207B
:100630003C0000203000002070B5094C4FF400054C
:100640000646E169A94202DB05F077F9E061616CD9
:10065000A94203DB304605F070F9606470BD00000C
:1006600040020020F0B51F484FF400010125406C06
:100670001D4B884201DB1D7002E01878012830D143
:100680001A48006888422CDA19494978002928D18B
:1006900010F0FF4F25D1174C174E0F4601EB4100CC
:1006A00004EB0010B0F90420B0F908C0624507D08F
:1006B00006EB410C0281ACF80220027D02B1077505
:1006C000D0F820C08269624504D00262C26106EBA4
:1006D00081000262491CC9B20F29DFD307480570A7
:1006E0001F70F0BD400200203C00002030000020C0
:1006F0004C00002034070020FC02002034000020C1
:100700002DE9F047204C1F4F8246E0687E78002597
:1007100000F0FF416EB189B31C49496CB1F5000F7F
:100720002CDAA1684FF07C58894611F0FF4F05D0B4
:100730001DE00029F0D1257065701FE0414605F0ED
:1007400007F91149E0600978C943C9B226B1012E01
:1007500002D0022E03D006E02170657003E0257000
:100760006178C943617010F0FF4F00D17D70494638
:10077000504604F019FEA060404500DBA560BDE8CE
:10078000F08700004C0000202400002040020020E0
:100790002DE9F04700240D4E81464FF07E57A046CC
:1007A00004EB440006EB00154846296904F0FCFD03
:1007B0002861B84203DBA5F80680C5F81080641CE8
:1007C000E4B20F2CECD3BDE8F08700003407002022
:1007D00000EB4001264810B500EB0110417871B3E1
:1007E000B0F9081061B3027D03233AB1012A0BD09E
:1007F000022A13D0032A00D1818110BDB0F90C2048
:10080000914209DB01220275B0F90640B0F90C20D3
:1008100094420BDD84810AE002220275B0F90640A1
:10082000B0F90C2094420CDA84810BE082810278CA
:10083000002AE2D1B0F90C208A420ADA10BD12E097
:1008400009E082810278002AF8D1B0F90C208A42AE
:10085000F4DC0375F2E7B0F90620B0F90C108A4217
:10086000CADA8281EAE7002181810175E6E70000AA
:1008700034070020704700002DE9F05F0446B0F90E
:1008800008004FF47A760A25B04222DB90FBF6F09E
:1008900090FBF5F105FB110010F0FF0F19D00422B9
:1008A0000C21002004F05CFDB4F9080064276328E3
:1008B0004EDD90FBF7F090FBF5F105FB1100C0B2A7
:1008C0000A282BD2DFE800F044070E15171E203E41
:1008D00040420C22E4E700220F21012004F040FDF9
:1008E000052217E00D220F21012004F039FD03221B
:1008F00010E0092200E002220F21012004F030FD67
:10090000072207E00B2200E00F220F21012004F054
:1009100027FD06220721022004F022FDB4F9080079
:1009200009286BDD90FBF5F090FBF5F105FB11005C
:10093000C0B20A2831D2DFE800F0610D141B1D247B
:10094000265B5D5F0122C7E70F22D5E70B22D3E7C5
:100950000F22C1E700220F21032004F001FD052230
:1009600017E00D220F21032004F0FAFC032210E00F
:10097000092200E002220F21032004F0F1FC0722EB
:1009800007E00B2200E00F220F21032004F0E8FC17
:1009900006220721042004F0E3FC0822114604206B
:1009A00004F0DEFCB4F93800B04229DB90FBF6F02D
:1009B00090FBF5F105FB110010F0FF0F20D0042291
:1009C0000C21052004F0CCFCB4F93800632856DD76
:1009D00090FBF7F090FBF5F105FB1100C0B20A287F
:1009E00033D2DFE800F04C0F161D1F262846484A78
:1009F0000122B0E70F22BEE70B22BCE70F22AAE7D5
:100A00000C22DDE700220F21062004F0A9FC0522BC
:100A100017E00D220F21062004F0A2FC032210E0B3
:100A2000092200E002220F21062004F099FC07228F
:100A300007E00B2200E00F220F21062004F090FCBB
:100A400006220721084604F08BFCB4F93800092877
:100A50006BDD90FBF5F090FBF5F105FB1100C0B2EA
:100A60000A2831D2DFE800F0610D141B1D24265B3B
:100A70005D5F0122C7E70F22D5E70B22D3E70F22E4
:100A8000C1E700220F21082004F06AFC052217E0CC
:100A90000D220F21082004F063FC032210E009223C
:100AA00000E002220F21082004F05AFC072207E090
:100AB0000B2200E00F220F21082004F051FC062237
:100AC0000721092004F04CFC08221146092004F0FB
:100AD00047FCB4F96800B04229DB90FBF6F090FBCC
:100AE000F5F105FB110010F0FF0F20D004220C21BE
:100AF0000A2004F035FCB4F96800632856DD90FB49
:100B0000F7F090FBF5F105FB1100C0B20A2833D2D3
:100B1000DFE800F04C0F161D1F262846484A012228
:100B2000B0E70F22BEE70B22BCE70F22AAE70C2298
:100B3000DDE700220F210B2004F012FC052217E054
:100B40000D220F210B2004F00BFC032210E00922E0
:100B500000E002220F210B2004F002FC072207E034
:100B60000B2200E00F220F210B2004F0F9FB0622DC
:100B700007210C2004F0F4FBB4F9680009286BDDB0
:100B800090FBF5F090FBF5F105FB1100C0B20A28CF
:100B900031D2DFE800F0610D141B1D24265B5D5F80
:100BA0000122C7E70F22D5E70B22D3E70F22C1E7C7
:100BB00000220F210D2004F0D3FB052217E00D22A7
:100BC0000F21104604F0CCFB032210E0092200E0C4
:100BD00002220F210D2004F0C3FB072207E00B22A5
:100BE00000E00F220F210D2004F0BAFB062207219E
:100BF0000E2004F0B5FB082211460E2004F0B0FBD5
:100C0000B4F99800B04229DB90FBF6F090FBF5F1C7
:100C100005FB110010F0FF0F20D020223021002012
:100C200004F09EFBB4F99800632856DD90FBF7F0C2
:100C300090FBF5F105FB1100C0B20A2833D2DFE8C2
:100C400000F04C0F161D1F262846484A0122B0E727
:100C50000F22BEE70B22BCE70F22AAE73022DDE716
:100C60000022F021012004F07BFB502217E0D0226B
:100C7000F021012004F074FB302210E0902200E00B
:100C80002022F021012004F06BFB702207E0B0224B
:100C900000E0F022F021012004F062FB60227021CC
:100CA000022004F05DFBB4F9980009286BDD90FB8D
:100CB000F5F090FBF5F105FB1100C0B20A2831D226
:100CC000DFE800F0610D141B1D24265B5D5F102220
:100CD000C7E7F022D5E7B022D3E7F022C1E7002230
:100CE000F021032004F03CFB502217E0D022F02139
:100CF000032004F035FB302210E0902200E0202297
:100D0000F021032004F02CFB702207E0B02200E069
:100D1000F022F021032004F023FB60227021042044
:100D200004F01EFB40221146052004F019FBB4F923
:100D3000C800B04229DB90FBF6F090FBF5F105FB13
:100D4000110010F0FF0F20D010223021052004F0F8
:100D500007FBB4F9C800632856DD90FBF7F090FB61
:100D6000F5F105FB1100C0B20A2833D2DFE800F02C
:100D70004C0F161D1F262846484A1022B0E7F022C5
:100D8000BEE7B022BCE7F022AAE73022DDE700226E
:100D9000F021062004F0E4FA502217E0D022F021DE
:100DA000062004F0DDFA302210E0902200E020223C
:100DB000F021062004F0D4FA702207E0B02200E00F
:100DC000F022F021062004F0CBFA602270210720E7
:100DD00004F0C6FAB4F9C80009286BDD90FBF5F001
:100DE00090FBF5F105FB1100C0B20A2831D2DFE813
:100DF00000F0610D141B1D24265B5D5F1022C7E708
:100E0000F022D5E7B022D3E7F022C1E70022F0219B
:100E1000082004F0A5FA502217E0D022F021082083
:100E200004F09EFA302210E0902200E02022F0210F
:100E3000082004F095FA702207E0B02200E0F022CA
:100E4000F021082004F08CFA60227021092004F0BF
:100E500087FA80221146092004F082FAB4F9F800DA
:100E6000B04229DB90FBF6F090FBF5F105FB110099
:100E700010F0FF0F20D0102230210A2004F070FA69
:100E8000B4F9F800632856DD90FBF7F090FBF5F11C
:100E900005FB1100C0B20A2833D2DFE800F04C0F86
:100EA000161D1F262846484A1022B0E7F022BEE74A
:100EB000B022BCE7F022AAE73022DDE70022F021D1
:100EC0000B2004F04DFA502217E0D022F0210B2025
:100ED00004F046FA302210E0902200E02022F021B7
:100EE0000B2004F03DFA702207E0B02200E0F0226F
:100EF000F0210B2004F034FA602270210C2004F061
:100F00002FFAB4F9F80009286BDD90FBF5F090FB9F
:100F1000F5F105FB1100C0B20A2831D2DFE800F07C
:100F2000610D141B1D24265B5D5F1022C7E7F022B4
:100F3000D5E7B022D3E7F022C1E70022F0210D204F
:100F400004F00EFA502217E0D022F0210D2004F018
:100F500007FA302210E0902200E02022F0210D203C
:100F600004F0FEF9702207E0B02200E0F022F02148
:100F70000D2004F0F5F9602270210E2004F0F0F944
:100F8000402211460F2004F0EBF9B4F92801B042D9
:100F900029DB90FBF6F090FBF5F105FB110010F05A
:100FA000FF0F20D08022C0212D2004F0D9F9B4F900
:100FB0002801632874DD90FBF7F090FBF5F105FB49
:100FC0001100C0B20A2849D2DFE800F09E0F1127B5
:100FD000335C636B7C8D1022B0E7F022BEE7B02259
:100FE000BCE7F022AAE7C022DDE701225AE0822214
:100FF0008321002004F0B4F980221146022004F07D
:10100000AFF9012211461A2004F0AAF980228021AA
:101010001E2004F0A5F900221CE0832211460020C6
:1010200004F09EF980221146022004F099F9012271
:1010300042E003228321002004F092F9802211462D
:10104000022004F08DF9002258E080211E2004F0D7
:1010500087F901220121242004F082F9B4F9280142
:1010600009286EDD90FBF5F090FBF5F105FB110012
:10107000C0B20A2872D2DFE800F0CD49505C657238
:1010800079B8BFC683221146002004F069F9002216
:101090002FE083221146002004F062F9002217E0BD
:1010A00032E081228321002004F05AF98022114687
:1010B000022004F055F9002201211A2004F050F911
:1010C0000022A4E783228321002004F049F9802232
:1010D0008021022004F044F9012211461A2004F074
:1010E0003FF98022B1E783221146002004F038F94D
:1010F00080228021022004F033F9012201211A20EC
:1011000004F02EF90022A0E78122DCE700228021F2
:10111000042004F025F900221AE000228021042096
:1011200004F01EF983221146052004F019F98122EA
:1011300027E0002268E08321052004F011F98322D2
:101140001FE067E080221146042004F009F9022222
:101150008321052004F004F9822212E015E08022A8
:101160001146042004F0FCF8822205E0802211469A
:10117000042004F0F5F883228321052004F0F0F820
:10118000032283210A2004F0EBF8802211460C2070
:1011900004F0E6F8B4F95801B04242DB90FBF6F0F7
:1011A00090FBF5F105FB110010F0FF0F39D0002284
:1011B00080210E2004F0D4F8802211460F2004F084
:1011C000CFF8B4F9580163286ADD90FBF7F090FB83
:1011D000F5F105FB1100C0B20A2847D2DFE800F0A4
:1011E00060232A31333A3C5A5C5E0022802104207D
:1011F00004F0B6F88022ABE780221146042004F008
:10120000AFF8832297E780228021042004F0A8F819
:10121000822290E780221146042004F0A1F8812266
:1012200089E78022C4E70022F021142004F098F816
:10123000502217E0D022F021142004F091F830223F
:1012400010E0902200E02022F021142004F088F821
:10125000702207E0B02200E0F022F021142004F018
:101260007FF860227021152004F07AF8B4F9580153
:10127000092871DD90FBF5F090FBF5F105FB1100FD
:10128000C0B20A2831D2DFE800F0670D141B1D241C
:10129000266062651022C7E7F022D5E7B022D3E7C7
:1012A000F022C1E70022F021162004F059F8502264
:1012B00017E0D022F021162004F052F8302210E07E
:1012C000902200E02022F021162004F049F870223C
:1012D00007E0B02200E0F022F021162004F040F8F0
:1012E00060227021172004F03BF88022114617205D
:1012F00004F036F8B4F98801B0422FDB90FBF6F029
:1013000090FBF5F105FB110010F0FF0F26D08022B5
:101310001146182004F024F8002280211A2004F03D
:101320001FF8B4F9880163286BDD90FBF7F090FBA0
:10133000F5F105FB1100C0B20A284ED2DFE800F03B
:1013400061151C232A31333A41431022ABE7F022C6
:10135000B9E701E0B022B6E7F022A4E78022114607
:10136000182003F0FDFF8022D7E70A220E21162065
:1013700003F0F6FF00222CE00C220E21162003F0D1
:10138000EFFF0B2225E00E221146162003F0E8FFA6
:1013900009221EE00E221146162003F0E1FF04226E
:1013A00017E0062210E006220E21162003F0D8FFD7
:1013B0000F220EE00A220E21162003F0D1FF082290
:1013C00007E00E22F0E70E220E21162003F0C8FFE0
:1013D0000D220F21172003F0C3FFB4F9880109285B
:1013E00074DD90FBF5F090FBF5F105FB1100C0B248
:1013F0000A2840D2DFE800F06A070E151C23252CCE
:1014000033350A22D0E70A220E21142003F0A8FF68
:1014100000222CE00C220E21142003F0A1FF0B224D
:1014200025E00E221146142003F09AFF09221EE047
:101430000E221146142003F093FF042217E0062227
:1014400010E006220E21142003F08AFF0F220EE086
:101450000A220E21142003F083FF082207E00E2247
:10146000F0E70E220E21142003F07AFF0D220F2147
:10147000152003F075FF01221146142003F070FFC0
:10148000B4F9B801B04223DB90FBF6F090FBF5F124
:1014900005FB110010F0FF0F1AD0202230212D2063
:1014A00003F05EFFB4F9B80163285FDD90FBF7F04D
:1014B00090FBF5F105FB1100C0B20A2842D2DFE82B
:1014C00000F0550910171E25272E35370A22B9E7D7
:1014D0003022E3E7A022E0212B2003F041FF00228D
:1014E0002CE0C022E0212B2003F03AFFB02225E0BF
:1014F000E02211462B2003F033FF90221EE0E02271
:1015000011462B2003F02CFF402217E0602210E050
:101510006022E0212B2003F023FFF0220EE0A02226
:10152000E0212B2003F01CFF802207E0E022F0E7FF
:10153000E022E0212B2003F013FFD022F0212C2009
:1015400003F00EFFB4F9B80109287BDD90FBF5F03C
:1015500090FBF5F105FB1100C0B20A2840D2DFE88C
:1015600000F071070E151C23252C3335A022D0E77F
:10157000A022E021292003F0F3FE00222CE0C0226B
:10158000E021292003F0ECFEB02225E0E022114604
:10159000292003F0E5FE90221EE0E02211462920DA
:1015A00003F0DEFE402217E0602210E06022E0211E
:1015B000292003F0D5FEF0220EE0A022E021292010
:1015C00003F0CEFE802207E0E022F0E7E022E021F7
:1015D000292003F0C5FED022F0212A2003F0C0FE0E
:1015E00010221146292003F0BBFEB4F9E801B042F5
:1015F0002ADB90FBF6F090FBF5F105FB110010F0F3
:10160000FF0F21D000228021252003F0A9FE802297
:101610001146272003F0A4FEB4F9E801632861DD38
:1016200090FBF7F090FBF5F105FB1100C0B20A2822
:1016300044D200E006E0DFE800F0550910171E254F
:10164000272E3537A022B2E78022DCE75022702116
:10165000272003F085FE00222CE060227021272045
:1016600003F07EFEB02225E070221146272003F011
:1016700077FE90221EE070221146272003F070FEB4
:10168000402217E0302210E030227021272003F0A2
:1016900067FEF0220EE050227021272003F060FE4A
:1016A000802207E07022F0E770227021272003F0EB
:1016B00057FED022F021282003F052FEB4F9E801B1
:1016C000092874DD90FBF5F090FBF5F105FB1100A6
:1016D000C0B20A2840D2DFE800F06A070E151C23CA
:1016E000252C33355022D0E750227021252003F0DD
:1016F00037FE00222CE060227021252003F030FE0E
:10170000B02225E070221146252003F029FE902208
:101710001EE070221146252003F022FE402217E031
:10172000302210E030227021252003F019FEF02233
:101730000EE050227021252003F012FE802207E0E7
:101740007022F0E770227021252003F009FED022DC
:10175000F021262003F004FE10221146242003F07D
:10176000FFFDB4F91802B04223DB90FBF6F090FBCA
:10177000F5F105FB110010F0FF0F1AD04022602197
:10178000242003F0EDFDB4F9180263285FDD90FB1F
:10179000F7F090FBF5F105FB1100C0B20A2842D228
:1017A000DFE800F0550910171E25272E3537502287
:1017B000B9E76022E3E7A022E021222003F0D0FD78
:1017C00000222CE0C022E021222003F0C9FDB0223B
:1017D00025E0E0221146222003F0C2FD90221EE007
:1017E000E0221146222003F0BBFD402217E06022D8
:1017F00010E06022E021222003F0B2FDF0220EE092
:10180000A022E021222003F0ABFD802207E0E022AD
:10181000F0E7E022E021222003F0A2FDD022F02117
:10182000232003F09DFDB4F91802092874DD90FB14
:10183000F5F090FBF5F105FB1100C0B20A2840D28B
:10184000DFE800F06A070E151C23252C3335A02293
:10185000D0E7A022E021202003F082FD00222CE02E
:10186000C022E021202003F07BFDB02225E0E02211
:101870001146202003F074FD90221EE0E022114664
:10188000202003F06DFD402217E0602210E060226E
:10189000E021202003F064FDF0220EE0A022E021F0
:1018A000202003F05DFD802207E0E022F0E7E02247
:1018B000E021202003F054FDD022F021212003F06C
:1018C0004FFD10221146202003F04AFDB4F94802D2
:1018D000B04223DB90FBF6F090FBF5F105FB110025
:1018E00010F0FF0F1AD008220C212D2003F038FD34
:1018F000B4F9480263285FDD90FBF7F090FBF5F147
:1019000005FB1100C0B20A2842D2DFE800F05509F9
:1019100010171E25272E3537A022B9E70C22E3E742
:101920000A220E212B2003F01BFD00222CE00C22AA
:101930000E212B2003F014FD0B2225E00E22114670
:101940002B2003F00DFD09221EE00E2211462B2054
:1019500003F006FD042217E0062210E006220E2105
:101960002B2003F0FDFC0F220EE00A220E212B207B
:1019700003F0F6FC082207E00E22F0E70E220E210B
:101980002B2003F0EDFC0D220F212C2003F0E8FCAE
:10199000B4F94802092874DD90FBF5F090FBF5F1ED
:1019A00005FB1100C0B20A2840D2DFE800F06A0748
:1019B0000E151C23252C33350A22D0E70A220E21CE
:1019C000292003F0CDFC00222CE00C220E2129203E
:1019D00003F0C6FC0B2225E00E221146292003F05D
:1019E000BFFC09221EE00E221146292003F0B8FC9C
:1019F000042217E0062210E006220E21292003F01F
:101A0000AFFC0F220EE00A220E21292003F0A8FCD1
:101A1000082207E00E22F0E70E220E21292003F013
:101A20009FFC0D220F212A2003F09AFC012211466F
:101A3000292003F095FCB4F97802B04223DB90FB37
:101A4000F6F090FBF5F105FB110010F0FF0F1AD036
:101A5000022203212D2003F083FCB4F978026328CD
:101A60005FDD90FBF7F090FBF5F105FB1100C0B2D4
:101A70000A2842D2DFE800F0550910171E25272E4C
:101A800035370A22B9E70322E3E705220721272099
:101A900003F066FC00222CE006220721272003F039
:101AA0005FFC0B2225E007221146272003F058FC9B
:101AB00009221EE007221146272003F051FC0422D0
:101AC00017E0032210E003220721272003F048FC3F
:101AD0000F220EE005220721272003F041FC0822F7
:101AE00007E00722F0E707220721272003F038FC50
:101AF0000D220F21282003F033FCB4F978020928C5
:101B000074DD90FBF5F090FBF5F105FB1100C0B220
:101B10000A2840D2DFE800F06A070E151C23252CA6
:101B200033350522D0E70A220E21252003F018FCC8
:101B300000222CE00C220E21252003F011FC0B22A8
:101B400025E00E221146252003F00AFC09221EE0A2
:101B50000E221146252003F003FC042217E0062282
:101B600010E006220E21252003F0FAFB0F220EE0E2
:101B70000A220E21252003F0F3FB082207E00E22A3
:101B8000F0E70E220E21252003F0EAFB0D220F21A3
:101B9000262003F0E5FB02221146242003F0E0FB9F
:101BA000B4F9A802B04223DB90FBF6F090FBF5F10C
:101BB00005FB110010F0FF0F1AD008220C21242081
:101BC00003F0CEFBB4F9A80263285FDD90FBF7F0C9
:101BD00090FBF5F105FB1100C0B20A2842D2DFE804
:101BE00000F0550910171E25272E35370A22B9E7B0
:101BF0000C22E3E70A220E21222003F0B1FB00228F
:101C00002CE00C220E21222003F0AAFB0B2225E05F
:101C10000E221146222003F0A3FB09221EE00E2211
:101C20001146222003F09CFB042217E0062210E05C
:101C300006220E21222003F093FB0F220EE00A223F
:101C40000E21222003F08CFB082207E00E22F0E791
:101C50000E220E21222003F083FB0D220F212320D0
:101C600003F07EFBB4F9A80209287DDD90FBF5F0B6
:101C700090FBF5F105FB1100C0B20A2840D2DFE865
:101C800000F07C070E151C23252C33350A22D0E7E3
:101C90000A220E21202003F063FB00222CE00C22FC
:101CA0000E21202003F05CFB0B2225E00E221146C2
:101CB000202003F055FB09221EE00E2211462020B1
:101CC00003F04EFB042217E0062210E006220E214C
:101CD000202003F045FB0F220EE00A220E212020D7
:101CE00003F03EFB082207E00E22F0E70E220E2151
:101CF000202003F035FB0D220F21212003F030FBC3
:101D000001221146202003F02BFBDFF83895B04666
:101D100099F8020000EB400004EB0010B0F90C0051
:101D200040452CDB90FBF8F090FBF5F105FB110032
:101D300010F0FF0F23D0012203210F2003F010FB2E
:101D400099F802004E4600EB400004EB0010B0F999
:101D50000C0063285CDD90FBF7F090FBF5F105FBD0
:101D60001100C0B20A2800E007E034D2DFE800F03A
:101D700050090B12192022294C4E0A22A7E70322F0
:101D8000DAE700220EE006220721102003F0E8FA2D
:101D90000B221CE002220721102003F0E1FA0F229F
:101DA00015E003220721102003F0DAFA06220EE0E4
:101DB000032200E007220721102003F0D1FA0D22B0
:101DC00005E000220721102003F0CAFA07220F21A4
:101DD000112003F0C5FAB07800EB400004EB0010CE
:101DE000B0F90C00092861DD90FBF5F090FBF5F1EE
:101DF00005FB1100C0B20A282FD2DFE800F0570B14
:101E000012191B22245153550722C4E70322C2E7AB
:101E10000522C0E700220F21122003F0A1FA0522BB
:101E200017E00D220F21122003F09AFA032210E08E
:101E3000092200E002220F21122003F091FA07226A
:101E400007E00B2200E00F220F21122003F088FA96
:101E500006220721132003F083FA082211461320DB
:101E600003F07EFAF848007810B3F848406CB0F5FB
:101E7000000F1DDA002230210F2003F071FA00223A
:101E8000F021102003F06CFA00227021112003F0E1
:101E900067FA0022F021122003F062FA00224DE0DE
:101EA0000122B8E70F22C6E70B22C4E70F22B2E7F0
:101EB000B07800EB400004EB0010B0F90A0040B32A
:101EC000404541DB90FBF8F090FBF5F105FB11007C
:101ED00010F0FF0F38D0102230210F2003F040FA0D
:101EE000B07800EB400004EB0010B0F90A00632862
:101EF0006EDD90FBF7F090FBF5F105FB1100C0B231
:101F00000A2846D2DFE800F06422293032393B5EED
:101F10006062002230210F2003F022FA0022F0211B
:101F2000102003F01DFA20227021112003F018FA6E
:101F30000022F021122003F013FA20227021132036
:101F400003F00EFA002269E03022C5E70022F021FA
:101F5000102003F005FA502217E0D022F0211020C3
:101F600003F0FEF9302210E0902200E02022F02160
:101F7000102003F0F5F9702207E0B02200E0F02213
:101F8000F021102003F0ECF960227021112003F001
:101F9000E7F9B07800EB400004EB0010B0F90A005C
:101FA000092859DD90FBF5F191FBF5F005FB1010C8
:101FB000C0B20A2831D2DFE800F04F0D141B1D24F7
:101FC00026494B4D1022C2E7F022D0E7B022CEE7DF
:101FD000F022BCE70022F021122003F0C1F95022C8
:101FE00017E0D022F021122003F0BAF9302210E0DD
:101FF000902200E02022F021122003F0B1F970229B
:1020000007E0B02200E0F022F021122003F0A8F94E
:1020100060227021132003F0A3F980228021132075
:1020200003F09EF9B07848F6A04A00EB400004EBBC
:102030000010816A91FBFAF0C0B20A281AD2DFE8D8
:1020400000F00D0F31383F46484A51581022C2E780
:10205000F022D0E7B022CEE7F022BCE7502242E0E7
:10206000502270211E2003F07BF90022F0211F2056
:1020700003F076F9B0784FF4616700EB400004EBB1
:102080000010806A90FBF7F090FBF5F105FB110062
:10209000C0B20A2840D2DFE800F03335575E656CE5
:1020A0006E70777E602270211E2003F059F9B022F5
:1020B000DCE7702211461E2003F052F99022D5E78A
:1020C000702211461E2003F04BF94022CEE7302249
:1020D00010E0302207E0502270211E2003F040F96A
:1020E0008022C3E7702270211E2003F039F9F0220C
:1020F000BCE7702270211E2003F032F9D022B5E730
:10210000502242E0502270211C2003F029F90022C5
:10211000F0211D2003F024F9B0784FF4167B00EB7A
:10212000400004EB0010806A90FBF7F107FB1101FF
:1021300091FBFBF0C0B20A2840D2DFE800F0333553
:102140005B62697072747B89602270211C2003F0CD
:1021500007F9B022DCE7702211461C2003F000F9D9
:102160009022D5E7702211461C2003F0F9F8402296
:10217000CEE7302210E0302207E0502270211C20F0
:1021800003F0EEF88022C3E7702270211C2003F0D8
:10219000E7F8F022BCE7702270211C2003F0E0F881
:1021A000D022B5E7502246E0502270211A2003F0D9
:1021B000D7F80022F0211B2003F0D2F8B0784FF0BE
:1021C0003C0900EB400004EB0010806A90FBF7F143
:1021D00007FB110191FBF9F090FBF5F105FB1100F4
:1021E000C0B20A2847D2DFE800F03A3C70777F8619
:1021F000888A9198602270211A2003F0B1F8B022E9
:10220000D8E7702211461A2003F0AAF89022D1E7ED
:10221000702211461A2003F0A3F84022CAE73022A8
:1022200017E0302207E0502270211A2003F098F8BE
:102230008022BFE7702270211A2003F091F8F0226B
:10224000B8E700004C0000202400002040020020DD
:10225000702270211A2003F083F8D022AAE75022BE
:1022600055E050227021182003F07AF80022F02166
:10227000192003F075F8DFF8008498F8010090B396
:10228000FE48406CB0F5000F4EDA002207211E20F8
:1022900003F066F800220F211F2003F061F80022EE
:1022A0000E211C2003F05CF800220F211D2003F0FA
:1022B00057F800220E211A2003F052F800220F21B5
:1022C0001B2003F04DF8002260E0602270211820EE
:1022D00003F046F8B022CAE770221146182003F036
:1022E0003FF89022C3E71FE070221146182003F048
:1022F00037F84022BBE7302210E0302207E05022BE
:102300007021182003F02CF88022B0E77022702191
:10231000182003F025F8F022A9E770227021182078
:1023200003F01EF8D022A2E7B07800EB400004EBE7
:102330000010406A58B190FBFAF0C0B20A2837D2B8
:10234000DFE800F02A2C4C535A6163656C7302225B
:1023500007211E2003F004F800220F211F2002F0A5
:10236000FFFF04220E211C2002F0FAFF00220F21A1
:102370001D2002F0F5FF04220E211A2002F0F0FFCA
:1023800000220F211B2002F0EBFF04220E21182057
:1023900002F0E6FF002224E1052240E005220721A9
:1023A0001E2002F0DDFF00220F211F2002F0D8FFC7
:1023B000B07800EB400004EB0010406A90FBF7F0AF
:1023C00090FBF5F105FB1100C0B20A2840D2DFE80E
:1023D00000F03335555C636A6C6E757C062207210C
:1023E0001E2002F0BDFF0B22DEE7072211461E2051
:1023F00002F0B6FF0922D7E7072211461E2002F09D
:10240000AFFF0422D0E7032210E0032207E00522F9
:1024100007211E2002F0A4FF0822C5E7072207219A
:102420001E2002F09DFF0F22BEE7072207211E207B
:1024300002F096FF0D22B7E70A2240E00A220E21A1
:102440001C2002F08DFF00220F211D2002F088FFCA
:10245000B07800EB400004EB0010406A90FBF7F10D
:1024600007FB110191FBFBF0C0B20A2840D2DFE864
:1024700000F033355960676E707279800C220E213E
:102480001C2002F06DFF0B22DEE70E2211461C20FD
:1024900002F066FF0922D7E70E2211461C2002F047
:1024A0005FFF0422D0E7062210E0062207E00A229E
:1024B0000E211C2002F054FF0822C5E70E220E2137
:1024C0001C2002F04DFF0F22BEE70E220E211C2021
:1024D00002F046FF0D22B7E70A2244E00A220E214D
:1024E0001A2002F03DFF00220F211B2002F038FFCE
:1024F000B07800EB400004EB0010406A90FBF7F16D
:1025000007FB110191FBF9F090FBF5F105FB1100C0
:10251000C0B20A2869D2DFE800F03335373E454CB7
:102520004E555C5E0C220E211A2002F019FF0B2280
:10253000DAE70E2211461A2002F012FF0922D3E731
:102540000E2211461A2002F00BFF0422CCE70622CD
:1025500010E0062207E00A220E211A2002F000FFF6
:102560000822C1E70E220E211A2002F0F9FE0F22E6
:10257000BAE70E220E211A2002F0F2FE0D22B3E776
:102580000A2219E00A2201E70C220E21182002F08B
:10259000E7FE0B2225E00E221146182002F0E0FE95
:1025A00009221EE00E221146182002F0D9FE042254
:1025B00017E0062210E006220E21182002F0D0FEBD
:1025C0000F220EE00A220E21182002F0C9FE082276
:1025D00007E00E22F0E70E220E21182002F0C0FEC6
:1025E0000D220F21192002F0BBFE0022082102203B
:1025F00002F0B6FE00220821072002F0B1FE002200
:1026000008210C2002F0ACFE00224021104602F00E
:10261000A7FE00228021072002F0A2FE0022402116
:102620000A2002F09DFE00228021242002F098FE64
:1026300000228021152002F093FE002201211620A5
:1026400002F08EFE002210212B2002F089FE0022D3
:102650000821272002F084FE00221021222002F00F
:102660007FFE002201212B2002F07AFE00220121B0
:10267000252002F075FE03E0240000204002002027
:1026800000220121222002F06BFEB0780F2812D226
:10269000DFE800F0080C15191D2125292D313438EB
:1026A0003B3F430008221146022002E00822114667
:1026B0000FE002F055FEF078012832D0C7E0082282
:1026C00011460C20F5E7402211460020F1E7802258
:1026D00011460720EDE7402211460A20E9E7802253
:1026E00011462420E5E7802211461520E1E701226A
:1026F00011461620DDE71022114608E00822114697
:102700002720D6E71022114609E0012211462B208E
:10271000CFE7012211462520CBE7012211462220D6
:10272000C7E708221146022002F01AFE08221146CD
:10273000072002F015FE082211460C2002F010FEC0
:1027400040221146002002F00BFE80221146072095
:1027500002F006FE402211460A2002F001FE80220D
:102760001146242002F0FCFD80221146152002F0C3
:10277000F7FD01221146162002F0F2FD102211464B
:102780002B2002F0EDFD08221146272002F0E8FD83
:1027900010221146222002F0E3FD012211462B20D7
:1027A00002F0DEFD01221146252002F0D9FD0122B2
:1027B0001146222002F0D4FD98F8020078B3B078D8
:1027C0000F2844D2DFE800F0080C0F13171B1F235B
:1027D000272C2F33363A3E0000220821022034E015
:1027E0000022082109E0002208210C202DE000220F
:1027F0004021104629E000228021072025E0002208
:1028000040210A2021E00022802124201DE0002216
:102810008021152019E000220121162015E016E084
:102820000022102108E00022082127200DE00022CC
:10283000102109E0002201212B2006E000220121C5
:10284000252002E000220121222002F089FDB0783B
:1028500000EB400004EB0010314C8089F0B394F998
:102860000E00D8B3012804D002280ED0032822D1AC
:1028700012E0002204210F2002F072FD082208213C
:102880000F2002F06DFD082211E0042211460F20F6
:1028900002F066FD0022F2E7042211460F2002F04A
:1028A0005FFD082211460F2002F05AFD0022082188
:1028B000102002F055FD80221146112002F050FD3B
:1028C000B07800EB400004EB001090F82C0028B327
:1028D000002208211E2002F043FD00E01CE001223E
:1028E0001146182002F03CFD012211461C2002F086
:1028F00037FD802211461C2002F032FD094D0024D4
:10290000A01C295DC0B2012202F036FC641CE4B2B6
:102910002E2CF5D3BDE8F09F0422ABE70822D8E7C0
:10292000340700209002002010B502F043F804485C
:1029300001F07CF8BDE81040024801F077B80000D3
:1029400050000020700100202DE9F14F8A4C2189B0
:10295000E06800F0C3FCDFF824B20025DFF8209225
:10296000DFF820A2DFF82082012610B994F82500B4
:1029700020B194F82400012807D063E0216A009870
:1029800002F012FD206284F824602189E06800F0E2
:10299000A5FC01281ED17A48216A404201447B48A7
:1029A000814212D29BF802105846491CC9B28BF8DA
:1029B00002100E2900D9857075488BF8015005600A
:1029C0004FF08040E061CAF8009084F8245084F809
:1029D00025502562216A6FF07F5001446D48814285
:1029E00030D294F8250068BB9BF802106A4B01EBCB
:1029F0004101002008EB011200EB400108EB01113E
:102A0000978803EB400C0F81ACF802708F809769B8
:102A100003EB800C0F62CCF820708F61CF61577888
:102A200007B14E70401CC0B20F28E5D358488BF850
:102A300003608BF80150056058480670CAF8009092
:102A400084F82560218E606B00F048FC10B994F882
:102A50004D0050B194F84C00012879D1218E606B63
:102A600000F03CFC012808D023E0A16C009802F0A3
:102A70009BFCA06484F84C60F0E74148A16C4042A4
:102A80000144424881420FD29BF80110491CC9B24F
:102A90008BF80110022901D98BF801503C494FF005
:102AA0008040CAF80090086084F84C5084F84D507B
:102AB000A564A16C6FF07F5001443648814259D221
:102AC00094F84D00002855D198F80110404601298E
:102AD0003FD090F8311001293BD090F861100129C6
:102AE00037D090F89110012933D090F8C110012906
:102AF0002FD090F8F11001292BD090F82111012945
:102B000027D090F85111012923D090F88111012983
:102B10001FD090F8B11101291BD090F8E1110129C3
:102B200017D090F81112012913D090F84112012901
:102B30000FD090F8A11201290BD0002101EB410226
:102B400000EB0212491CC9B256700F29F6D30DE0F2
:102B500010E000215FF0020301EB410200EB0212E2
:102B6000491C1375C9B216700F29F5D3CAF8009025
:102B700084F84D60BDE8F88F400200204C00002032
:102B8000CDCCCC3D14000020340700203333F301BA
:102B900030000020FFFF7F00FC02002034000020F6
:102BA0000948102108220180202141800749416005
:102BB00002810222C1600285042242850122C16293
:102BC000028641637047000040020020001401406B
:102BD00010B5094C216802F0E7FB2060B0F17E5F80
:102BE00008DB06488169416100218161026CC0E90E
:102BF0000F21216010BD00002000002040020020B5
:102C0000022000F063BA102000F060BA10B5254829
:102C100000F00CFF0021234801F0CEF904212148E7
:102C200001F0CAF908211F4801F0C6F90C211D481E
:102C300001F0C2F91C4800F0F9FE00211A4801F029
:102C4000BBF90421184801F0B7F90821164801F032
:102C5000B3F90C21144801F0AFF9144800F0E6FE76
:102C60000021124801F0A8F90421104801F0A4F94C
:102C700008210E4801F0A0F90D4800F0D7FE002110
:102C80000B4801F099F90421094801F095F9082150
:102C9000074801F091F9BDE810400C21044801F00B
:102CA0008BB90000E00000209800002028010020DF
:102CB000B801002072B6FEE706490020C861064848
:102CC000016941F004010161016941F040010161C4
:102CD000704700000002002000200240064A002148
:102CE000D16106490A6942F002020A614861086935
:102CF00040F04000086170470002002000200240C0
:102D0000044B0022DA61044A136943F001031361A2
:102D10000180704700020020002002401448002279
:102D2000C168CB06134904D5CA6942F00202CA61E0
:102D30001022C3685B0705D5CB6943F00103CB6163
:102D400042F00402C369DB0707D0CB6943F00403F8
:102D5000CB61C16921F00101C161A2F58071013926
:102D600001D0C2607047C16921F00101C1617047A3
:102D7000002002400002002070B5054600F0B8FABD
:102D80000646114C09E0681C07D025B100F0B0FAE6
:102D9000801BA84201D9032070BDE068C007F2D1B2
:102DA000E068800601D52020E060E068C00605D418
:102DB000E069C00702D1E068400703D5FFF7AEFF26
:102DC000012070BD002070BD0020024078B50022B7
:102DD0000B4B4C1E10E0551CA54202EB03052D8841
:102DE000ADF800509DF80050855403DC86189DF81E
:102DF00001507570921C92B28A42ECD3012078BDCA
:102E0000000001082DE9F04186B00D46804600F033
:102E1000E3F8002001900090164F0121CDE90371E5
:102E2000694601A800F03AF8C0B900246E1E1BE004
:102E3000601CB04207DC08EB040018F8041040786E
:102E400001EB002003E018F8040000F57F4082B297
:102E50000023E119012000F07FF818B1002006B02E
:102E6000BDE8F081A41CA4B2AC42E1D300F06AF842
:102E70000120F4E70000010870B5044600F038FABC
:102E80000546601C02D004480078044400F030FA83
:102E9000401BA042FAD370BD000000202DE9F0478E
:102EA000054626480F460126017E01290FD0012143
:102EB000814601762868DFF888804CF25034022879
:102EC00008D0A2462046FFF757FFA8B131E0022004
:102ED000BDE8F0872046FFF74FFF08BB0120FFF752
:102EE000EBFE2046FFF748FFD8F81010064621F009
:102EF0000401C8F810101CE04FF0FF303860AC68D7
:102F000011E02046FFF7EAFE5046FFF735FFD8F8FC
:102F10001010060021F00201C8F8101001D03C602A
:102F200007E004F50064D5E9020100EBC120A042EE
:102F3000E7D8002189F818103046C9E700020020C0
:102F4000002002400348016941F080010161002036
:102F500070470000002002402DE9F05F07461C4842
:102F600088460024017E15461E46012909D001210C
:102F7000814601764CF2503A5046FFF7FDFE18B1FB
:102F800022E00220BDE8F09F012F02D0022F00D0E6
:102F90000427D346DFF83CA0220128463146FDF73E
:102FA00035F981B208EB4400FFF7AAFE5846FFF757
:102FB000E3FEDAF8102022F00102CAF8102018B956
:102FC000641CE4B2BC42E7D3002289F81820D9E798
:102FD0000002002000200240064900200A69120673
:102FE00007D5054A4A60054A4A600969090600D5BD
:102FF000012070470020024023016745AB89EFCDD7
:103000002DE9F0412C4D07460026288D2B4C4FF022
:103010007E58B84223D14146286C02F0C5F9C5E973
:103020001008E670698DE86A00F058F930B1698DD2
:10303000E86A00F053F9012808D010E0E86B02F0CC
:10304000FFFAC3B26278A178012006E0E86B02F0D3
:10305000F7FAC3B26278A178002001F03BFE28881D
:10306000B84227D147464146A86902F09DF9C5E913
:1030700006076988686800F031F930B169886868C6
:1030800000F02CF9012808D00EE0A07808B90F2034
:10309000A070C0B2401EA07006E0A078401CC0B274
:1030A000A0700E2800D9A670054866700649066013
:1030B00004480860BDE8F081400200204C00002078
:1030C00030000020CDCCCC3D14000020044910B5C8
:1030D0000A68024202D00860FFF792FF10BD0000AC
:1030E000140401402DE9F84FDFF8C8910024A9F13C
:1030F000040B23460F2709F1040AABF1040ED1E0BB
:103100000125A54006EA0502AA4276D1DFF8A8C14A
:103110004E68A6EB0C0866452BD00DDC032E34D090
:1031200005DC36B3012E19D0022E2FD11BE0112E53
:1031300016D0122E2AD119E0B8F5881F19D006DC56
:10314000B8F5803F15D0B8F5801F1FD111E0B8F554
:10315000001F0ED0B8F5041F18D10AE0CB6815E0A7
:10316000CB681B1D12E0CB6808330FE0CB680C3333
:103170000CE08B682BB1012B4FF0080303D04561A5
:1031800004E0042302E0056100E00023FF2A01D8E7
:10319000064601E000F104064FEA840501D9A5F1D5
:1031A0002005D6F8008007FA05FC28EA0C0803FA87
:1031B00005F548EA0508C6F800804D68ED0070D5B1
:1031C0003E4DAE6946F00106AE61AD6924F00306DE
:1031D00005F0010500953A4D06EB050CDCF80850AA
:1031E000A607360F07FA06F825EA0805DFF8D480A7
:1031F000404503D14FF0000825E052E0DFF8C880D9
:10320000404502D14FF001081DE0DFF8C080404585
:1032100002D14FF0020816E0DFF8B480404502D139
:103220004FF003080FE0DFF8AC80404502D14FF0CB
:10323000040808E0DFF8A080404502D14FF00508FF
:1032400001E04FF0060808FA06F848EA0508CCF84D
:1032500008804D68D9F80060ED024D4601D516434F
:1032600000E096432E604D68DAF80060AD025546E6
:1032700001D5164300E096432E604D68DBF80060F0
:10328000AD035D4601D5164300E096432E604D68C0
:10329000DEF80060ED03754601D5164300E0964365
:1032A0002E60641C0A681646E2407FF429AFBDE830
:1032B000F88F0000080401400000111000100240C7
:1032C0000000014000080140000C014000100140D6
:1032D0000014014000180140001C014080680840B3
:1032E00000D0012070470AB1016170470904FBE773
:1032F0000148806870470000000000200248816893
:10330000027811448160704700000020074810B522
:10331000016841F010010160032000F075F80F20F2
:1033200000F006F800F024F8002010BD0020024054
:1033300070B50D4D04464FF47A712878B1FBF0F06A
:103340000A490968B1FBF0F000F0BCFA48B9102C4A
:1033500007D200222146501E00F036F800206C6093
:1033600070BD012070BD0000000000200C00002096
:103370000C4808B5816941F001018161816901F062
:1033800001010091C16941F08051C161C06900F043
:10339000805000900448416821F0E06141F00071E4
:1033A000416008BD0010024000000140002809DB18
:1033B00000F01F02012191404009800000F1E0204F
:1033C000C0F8001170470000F0B40E4B1B680C46AB
:1033D000C3F30223C3F10705042D00D90425191DE9
:1033E000072901D2002300E0DB1E012606FA05F1C1
:1033F000491E214099409E40761E16403143F0BC44
:1034000001F09EBF0CED00E0064900F007020868DD
:103410004FF6FF03184040EA0220034A10430860B9
:10342000704700000CED00E00000FA052DE9F047C0
:103430000F46050061D0434E306800F00700B842E7
:1034400009D2306820F0070038433060306800F05F
:103450000700B84251D128683B4C810712D540077C
:1034600003D5606840F4E06060602878000703D509
:10347000606840F4605060606068A96820F0F00007
:10348000084360602878C00728D06868012810D0F9
:103490002168022810D0890700292EDA616821F0FE
:1034A000030101436160FFF723FF804641F2883941
:1034B0000DE021688903EFE78901EDE7FFF718FFC9
:1034C000A0EB0801494502D90320BDE8F0876068F8
:1034D000696800F00C00B0EB810FEFD1306800F0AC
:1034E0000700B8420BD9306820F00700384330603D
:1034F000306800F00700B84201D00120E5E72878E5
:10350000400705D56068E96820F4E0600843606022
:103510002878000706D56068296920F4605040EAE1
:10352000C100606000F018F86168084AC1F3031137
:10353000515CC8400649086006480068FFF7F8FE7D
:103540000020C2E700200240001002404C5A000850
:103550000C000020040000200E4A51680E4801F0C3
:103560000C03042B11D0082B0FD10C48C1F383435B
:10357000C903C05C0AD55168084AC1F34041921E94
:10358000515C054A5043B0FBF1F070470449484391
:10359000704700000010024000127A003C5A0008F8
:1035A00000093D002DE9F84F040070D02078C04D8F
:1035B000C00749D06868C0F38100012807D0686857
:1035C000C0F38100022809D16868C00306D52868C5
:1035D000800339D560680028E7D035E06068B0F531
:1035E000803F0BD010B1B0F5A02F11D0286820F487
:1035F00080302860286820F4802002E0286840F4A9
:1036000080302860606890B1FFF772FE06460AE0DD
:10361000286840F480202860F0E700BFFFF768FECC
:10362000801B642873D828688003F7D50CE0FFF767
:103630005FFE064605E000BFFFF75AFE801B6428C8
:10364000F0D828688003F7D420789A4E80074FF08E
:1036500001094FF0000839D5686810F00C0F07D049
:103660006868C0F38100022809D16868C00306D4E5
:103670002868800714D52069012808D110E0206946
:10368000B0B1C6F80090FFF733FE074605E00AE147
:10369000FFF72EFEC01B0228C4D828688007F7D584
:1036A0002868616920F0F80040EAC10028600DE058
:1036B000C6F80080FFF71CFE074604E0FFF718FE7F
:1036C000C01B022823D828688007F7D42078000779
:1036D0002CD57948A169D9B1C0F80090FFF708FE50
:1036E000074604E0FFF704FEC01B02280FD8686AF3
:1036F0008007F7D571484FF4FA510068B0FBF1F03C
:10370000009000BF0098411E0091FAD20EE080E0C8
:10371000C0F80080FFF7ECFD074604E0FFF7E8FD86
:10372000C01B022875D8686A8007F7D42078400744
:1037300060D5E8690027C00008D4E86940F08050EF
:10374000E861E869012700F0805000905C4801685A
:10375000C90513D40168834641F480710160FFF705
:10376000C7FD824606E000BFFFF7C2FDA0EB0A00DE
:1037700064284ED8DBF80000C005F5D5E0680128C4
:103780000AD008B1052813D0286A20F00100286269
:10379000286A20F0040002E0286A40F00100286254
:1037A000E06841F2883B98B1FFF7A2FD82460BE04A
:1037B000286A40F004002862EEE700BFFFF798FD9A
:1037C000A0EB0A0159455AD8286A8007F6D50CE0C3
:1037D000FFF78EFD824605E0FFF78AFDA0EB0A01A8
:1037E00059454CD8286A8007F6D41FB1E86920F003
:1037F0008050E861E06988B36968C1F381010229FA
:1038000044D00228C6F8608004D0FFF771FD04465A
:1038100038E034E0FFF76CFD074604E0FFF768FD91
:10382000C01B02282BD828688001F7D4206AB0F585
:10383000803F05D16868A16820F4003008436860C3
:10384000D4E908010843696821F4741108436860E9
:10385000C6F86090FFF74CFD044606E025E000BF87
:10386000FFF746FD001B022809D828688001F7D51C
:103870001BE000BFFFF73CFD001B022802D903201C
:10388000BDE8F88F28688001F4D40EE00128F7D055
:103890006868226A00F48031914204D1616A00F4C0
:1038A0007010884201D00120EAE70020E8E700001C
:1038B0000010024000004242800442420C000020FE
:1038C0000070004010B5401EB0F1807F01D3012090
:1038D00010BD4FF0E02460610F21601701F030FD52
:1038E0000020A06107202061002010BD70477047B4
:1038F00070B590F83C20012A2CD0012480F83C407F
:10390000022280F83D2003685A689D6822F0700604
:103910000A6832435A60104B02689A420ED00F4B2D
:103920009A420BD0B2F1804F08D00D4B9A4205D08D
:103930000C4B9A4202D00C4B9A4204D1496825F0B4
:1039400080031943916080F83D40002180F83C10CD
:10395000084670BD022070BD002C014000340140BB
:103960000004004000080040000C004010B50400B6
:1039700003D094F83D0010B107E0012010BD0020F5
:1039800084F83C00204600F01FF8022084F83D0037
:10399000211D206801F0EEFA012084F8460084F829
:1039A0003E0084F83F0084F8400084F8410084F829
:1039B000420084F8430084F8440084F8450084F809
:1039C0003D00002010BD000008B5154A01681548EB
:1039D00091420ED1816941F40061816180690022C8
:1039E00000F40060009003211920FFF7EDFC19207E
:1039F00010E00D4A914211D1C16941F01001C1613D
:103A0000C069002200F01000009002213620FFF76C
:103A1000DBFC3620BDE80840FFF7C8BC08BD00004D
:103A2000002C0140001002400010004090F83D10B2
:103A3000012901D001207047022180F83D10016862
:103A4000CA6842F00102CA6000680E4988420ED07E
:103A50000D4988420BD0B0F1804F08D00B49884205
:103A600005D00B49884202D00A49884204D18168B6
:103A700001F00701062903D0016841F0010101604E
:103A800000207047002C0140003401400004004039
:103A900000080040000C004070B5044690F83C005F
:103AA0000025012817D0012684F83C60022084F804
:103AB0003D002068826822F0770222F47F42826013
:103AC0000868502838D00DDC20284FD005DC90B392
:103AD000102811D14AE0022070BD302846D040287D
:103AE0000AD13BE060282FD070280DD0B0F5805F60
:103AF00003D0B0F5005F12D0012584F83D600020AE
:103B000084F83C00284670BDCB68D1E901212068CB
:103B100001F08BFA2068816841F0770109E0CB68F9
:103B2000D1E90121206801F080FA2068816841F420
:103B300080418160E1E719E0CA684968206801F0C6
:103B400086FA5021206806E0CA684968206801F0BA
:103B5000C5FA6021206801F072FACEE7CA684968A8
:103B6000206801F074FA40212068F4E722680146D9
:103B70001046F0E770B5044600684F494F4D884243
:103B800024D1207F4E4E012805D13068406B286239
:103B90000820FCF75FFC207F022805D13068806B8D
:103BA000E8610720FCF756FC207F042805D1306827
:103BB000C06BE8620B20FCF74DFC207F082805D184
:103BC0003068006CA8620A20FCF744FC2068B0F161
:103BD000804F24D1207F3B4E012805D13068406BB7
:103BE000A8600220FCF736FC207F022805D130684F
:103BF000806B68600120FCF72DFC207F042805D134
:103C00003068C06B68610520FCF724FC207F082821
:103C100005D13068006C28610420FCF71BFC2A49A0
:103C2000206888421BD1207F284E012805D13068AA
:103C3000406BA8610620FCF70DFC207F022805D10F
:103C40003068806B68620920FCF704FC207F042840
:103C500005D13068C06B28630C20FCF7FBFB1C49C6
:103C60002068884226D1207F1A4E012805D130686D
:103C7000406BA8630E20FCF7EDFB207F022805D1E6
:103C80003068806B68630D20FCF7E4FB207F04281C
:103C900005D13068C06B28600020FCF7DBFB207F7B
:103CA000082807D13068006CE860BDE87040032048
:103CB000FCF7D0BB70BD000000040040940300205E
:103CC000E0000020980000200008004028010020AB
:103CD00000340140B80100202DE9F041054690F87C
:103CE0003C0000260C46012810D0012085F83C003D
:103CF00072B1042A1CD0082A2CD00C2A50D00126DC
:103D0000002085F83C003046BDE8F0810220FBE74A
:103D1000D4E90012E368286801F0AAF928688169EB
:103D200021F00C01816128688169A26811430FE0CC
:103D3000D4E90012E368286801F0E2F92868816993
:103D400021F44061816128688169A26841EA022109
:103D50008161D5E72868D4E9002C277B036A016AD2
:103D600021F480710162C16923F4007321F0030121
:103D700041EA0C0121F0F00C39074FF400774CEACE
:103D8000116107EA02221A43C16102622868C1690F
:103D900021F00C01C1612868C169A26811432BE0C0
:103DA0002868D4E90021E768036AD0F820C02CF421
:103DB000805CC0F820C0D0F81CC023F400532CF461
:103DC000407C4CEA012121F4704C4FF6FF7101EA6E
:103DD00007314FF4005741EA0C0107EA02321A4357
:103DE000C16102622868C16921F44061C16128682B
:103DF000C169A26841EA0221C16181E710B50400EE
:103E000003D094F83D0010B107E0012010BD002060
:103E100084F83C00204600F01FF8022084F83D00A2
:103E2000211D206801F0A6F8012084F8460084F8DE
:103E30003E0084F83F0084F8400084F8410084F894
:103E4000420084F8430084F8440084F8450084F874
:103E50003D00002010BD000030B585B00024009466
:103E600001940294039400684C494D4AB0F1804F8C
:103E700034D04C4B4C4D98424DD1C86940F00200B3
:103E8000C861C86900F002000490886940F004002D
:103E90008861886900F004000490886940F0080097
:103EA00088618869694600F008000490C02000908D
:103EB0001046FFF717F90320CDE9000469462846AC
:103EC0000294FFF70FF9002211461D20FFF77CFA3C
:103ED0005FF01D00FFF76AFA05B030BDC86940F019
:103EE0000100C861C86900F001000490886940F0D1
:103EF000040088618869694600F0040004900F207E
:103F000000901046FFF7EEF8002211461C20FFF744
:103F10005BFA1C20DEE7254A90421DD1C86940F0BB
:103F20000400C861C86900F004000490886940F08A
:103F3000080088618869694600F0080004904FF421
:103F4000E07000902846FFF7CDF8002211461E20B1
:103F5000FFF73AFA1E20BDE7154A9042BCD18869A6
:103F600040F400508861886900F40050049088692A
:103F700040F0100088618869694600F010000490E4
:103F80004FF4707000900B48FFF7ACF80022114618
:103F90002E20FFF719FA2E209CE7000000100240A7
:103FA0000008014000040040000C014000080040EF
:103FB000003401400010014030B50446002551B1E5
:103FC00004290DD0082910D094F8412094F8450018
:103FD000012A11D10EE094F83E2094F84200F7E750
:103FE00094F83F2094F84300F2E794F8402094F8C6
:103FF0004400EDE7012801D0012030BD022059B175
:10400000042912D0082919D084F8410084F8450009
:104010000C293ED001253AE084F83E0084F84200A5
:104020002068C26842F0020210E084F83F0084F881
:1040300043002068C26842F0040207E084F84000B0
:1040400084F844002068C26842F00802C26001227D
:10405000206800F0DDFF1149206888420ED0104929
:1040600088420BD0B0F1804F08D00E49884205D06D
:104070000D49884202D00D49884204D1816801F07F
:104080000701062903D0016841F0010101602846BB
:1040900030BD2068C26842F01002D7E7002C014012
:1040A000003401400004004000080040000C0040C3
:1040B0002DE9F04104460068C66805694FF0000725
:1040C000A90713D5B10711D5F91E01610120207789
:1040D000206880698007204602D0FFF74BFD04E08E
:1040E00000F07EF8204600F07CF82777680716D5A8
:1040F000700714D521686FF0040008610220207752
:104100002068806910F4407F204602D0FFF732FD1E
:1041100004E000F065F8204600F063F827772807F0
:1041200015D5300713D521686FF008000861042009
:1041300020772068C0698007204602D0FFF71AFD6B
:1041400004E000F04DF8204600F04BF82777E80631
:1041500016D5F00614D521686FF01000086108200C
:1041600020772068C06910F4407F204602D0FFF716
:1041700001FD04E000F034F8204600F032F8277723
:10418000E80708D0F00706D021686FF00100086149
:10419000204600F027F8280608D5300606D5216805
:1041A0006FF0800008612046FFF7A0FB680608D585
:1041B000700606D521686FF040000861204600F0C7
:1041C000EFF8A8060AD5B00608D521686FF02000E0
:1041D00008612046BDE8F041FFF789BBBDE8F081EA
:1041E000704770472DE9F05F00686449644C88426D
:1041F00007D12188491C89B22180C82901D3002117
:1042000021806049884276D15F4D21885F4EA88821
:10421000884201D2002200E0012204213046FFF74B
:1042200062F868882188884201D2002200E00122D9
:1042300010215748FFF757F8288821884FF4806BE2
:10424000884201D2002200E0012259465148FFF77E
:104250004AF868892188884201D2002200E00122C0
:1042600010213046FFF73FF8288922884A4E4FF444
:104270000071904201D2002200E001223046FFF797
:1042800032F8E88821884FF4805A884201D200220F
:1042900000E0012251463F48FFF725F8288A21888F
:1042A0004FF40068884201D2002200E0012241461A
:1042B0003046FFF718F8E88921884FF40059884202
:1042C00001D2002200E0012249463046FFF70BF8F8
:1042D000A88921884FF40047884201D2002200E0DB
:1042E000012239462B48FEF7FEFFE88A21888842E2
:1042F00002D2002201E03FE0012239463046FEF7BB
:10430000F2FFA88A2188254E884201D2002200E0CF
:10431000012241463046FEF7E6FF688A218888423E
:1043200001D2002200E0012259461948FEF7DBFFC6
:10433000A88B2188884201D2002200E00122494650
:104340003046FEF7D0FF688B22884FF48071904290
:1043500001D2002200E001220E48FEF7C4FF288BA4
:104360002188884201D2002200E001225146BDE8A6
:10437000F05F0748FEF7B7BFBDE8F09F002C014093
:104380001C0000200010004020020020001001400E
:10439000000801400014014000180140000C0140D9
:1043A0007047FEE72DE9F0470025DFF868801A4FD7
:1043B00081462E4605EB450108EB0114607830B3C9
:1043C00057F82510484600F0EFFF47F82500B0F1F8
:1043D0007C5F16DBA08840B1A07B401C40B2A0737C
:1043E000032803DD0120A07300E0A673E06920B17B
:1043F00014F82C0FC043207001E084F82C6047F8BB
:1044000025606D1CEDB20F2DD4D3BDE8F087A673E7
:10441000F3E7000034070020C00200206420401EA3
:1044200010F0FF00FBD170476222FF21002000F056
:10443000A3BE62220021084600F09EBE10B5244CA7
:10444000012220212046FEF74EFF012208212046AE
:10445000FEF749FF012204212046FEF744FFFFF743
:10446000DDFF002220212046FEF73DFFFFF7D6FFAB
:10447000002000F01BFF012000F0DEFE032000F012
:10448000DBFE042000F0D8FE052000F0D5FE082059
:1044900000F0D2FE182000F0CFFE292000F0CCFE64
:1044A000802000F0C9FE402000F0C6FEE32000F0AE
:1044B000C3FE012220212046FEF715FFFFF7B4FFBF
:1044C0004FF47A70FEF7D8FCBDE81040FFF7B1BF9B
:1044D000001801400B480188491C01804188491C93
:1044E00041808188491C8180C188491CC180018923
:1044F000491C01814189491C41818189491C818173
:1045000000F07ABC3E0000202DE9F04F85B0002479
:1045100058480094019402940394816941F0400149
:104520008161816901F040010491816941F01001CC
:104530008161816901F010010491816941F00401F8
:104540008161816901F004010491816941F00801F0
:104550008161816901F008010491816941F02001C4
:1045600081618069012200F0200004902C214248E2
:10457000FEF7B9FEDFF804B100223E215846FEF7EF
:10458000B2FE41F63067002239463D48FEF7ABFEE9
:104590004FF60268002241463748FEF7A4FE4FF46A
:1045A0007E49002249463748FEF79DFE4FF45F4A98
:1045B000002251463448FEF796FE2C200125CDE915
:1045C00000050320CDE9025069462B48FEF78AFD1D
:1045D0003E200226CDE90005CDE90246694658464F
:1045E000FEF780FD00970396CDE901546946244803
:1045F000FEF778FDCDF800800396CDE901546946B9
:104600001D48FEF76FFDCDF800900396CDE90154EB
:1046100069461C48FEF766FDCDF800A00396CDE97B
:10462000015469461848FEF75DFD2D20CDE90004D0
:10463000694615480294FEF755FD12200090134874
:10464000CDE9010469461048FEF74CFD00221146F1
:104650000720FEF7B9FE0720FEF7A8FE002211464C
:104660000A20FEF7B1FE0A20FEF7A0FE05B0BDE865
:10467000F08F0000001002400018014000100140BF
:1046800000080140000C014000140140000011101E
:1046900010B586B000241748009401940294039446
:1046A00004941349059401604721C0E901140F21C6
:1046B000C0E9031444618461FFF758F908B1FEF7BB
:1046C000F9FA4FF48050009069460A48FFF7E4F980
:1046D00008B1FEF7EFFA049404A906480594FFF721
:1046E00007F9002801D0FEF7E5FA06B010BD00007A
:1046F000002C01405000002010B586B00024254851
:10470000059404940094019402944FF08041039422
:10471000016041F61F41C0E901144FF6FF71C0E985
:1047200003148461FFF76AFB08B1FEF7C3FA04942F
:1047300004A918480594FFF7DBF808B1FEF7BAFAA8
:104740000120CDE900400820CDE902400022694661
:104750001048FFF7C1FA08B1FEF7ACFA0422694627
:104760000C48FFF7B9FA08B1FEF7A4FA0822694627
:104770000848FFF7B1FA08B1FEF79CFA0C22694627
:104780000448FFF7A9FA002801D0FEF793FA06B013
:1047900010BD00009800002010B586B00024254808
:1047A00005940494009401940294214903940160B7
:1047B00041F61F41C0E901144FF6FF71C0E903142F
:1047C0008461FFF71BFB08B1FEF774FA049404A997
:1047D00018480594FFF78CF808B1FEF76BFA012032
:1047E000CDE900400820CDE9024000226946114889
:1047F000FFF772FA08B1FEF75DFA042269460D4828
:10480000FFF76AFA08B1FEF755FA08226946094827
:10481000FFF762FA08B1FEF74DFA0C226946054827
:10482000FFF75AFA002801D0FEF744FA06B010BD8F
:1048300000040040E000002010B586B000242148AC
:10484000059404940094019402941D49039401601A
:1048500041F61F41C0E901144FF6FF71C0E903148E
:104860008461FFF7CBFA08B1FEF724FA049404A997
:1048700014480594FFF73CF808B1FEF71BFA012035
:10488000CDE900400820CDE90240002269460D48EC
:10489000FFF722FA08B1FEF70DFA0422694609482B
:1048A000FFF71AFA08B1FEF705FA0822694605482B
:1048B000FFF712FA002801D0FEF7FCF906B010BD90
:1048C00000080040280100201CB500240E48009478
:1048D0000C49019401604721C0E901140F21846152
:1048E000C160FFF743F808B1FEF7E4F900946946A8
:1048F00005480194FEF7FCFF002801D0FEF7DAF925
:104900001CBD0000001000407001002010B586B0F2
:1049100000242648059404940094019402942249AA
:104920000394016041F61F41C0E901144FF6FF7185
:10493000C0E9031444618461FFF760FA08B1FEF72F
:10494000B9F9049404A919480594FEF7D1FF08B1F8
:10495000FEF7B0F90120CDE900400820CDE9024082
:10496000002269461148FFF7B7F908B1FEF7A2F92E
:10497000042269460D48FFF7AFF908B1FEF79AF92E
:10498000082269460948FFF7A7F908B1FEF792F92E
:104990000C2269460548FFF79FF9002801D0FEF771
:1049A00089F906B010BD000000340140B8010020B4
:1049B000FEE700002DE9F0412B4C012202212046A8
:1049C000FEF791FC012208212046FEF78CFCDFF85F
:1049D0009C80012220214046FEF785FC01222021F7
:1049E0002046FEF780FC0122214D940221462846F4
:1049F000FEF779FC0122160331462846FEF773FCC8
:104A00000122970339462846FEF76DFC2146194CD2
:104A100001222046FEF767FC012231462046FEF7C0
:104A200062FC012239462046FEF75DFC0122124D50
:104A3000540221462846FEF756FC0122D602314692
:104A40002846FEF750FC012239462846FEF74BFC6B
:104A5000012221464046FEF746FC31464046BDE86D
:104A6000F0410122FEF73FBC001001400008014068
:104A700000180140000C0140001401402DE9F14FE5
:104A80003E4D0024DFF8E880DFF8E8A0DFF8E8B06A
:104A900084B0A14605F5167704EB440108EB01103C
:104AA0004178A9B3B0F908609EB3017899B104EBDD
:104AB000840005EBC006706A10F0FF4F04D04FF081
:104AC0007E5100F045FF706210F1FF4F3AD3484627
:104AD000C6F8249036E0B0F9060000F0D1FD03904E
:104AE000304600F0CDFD0146254804EB840205EB7D
:104AF000C206CDE900600290204BDDE903200C3BAB
:104B0000FBF7FBFB716A514504DDC6F824A005E004
:104B10001CE005E0594501DAC6F824B0706A11E0DE
:104B200004EB840005EBC006706A10F0FF4F04D060
:104B30004FF07E5100F00CFF706201461148814237
:104B4000C5DB084600F07CFD385507E004EB840027
:104B500005EBC0000C49416007F80490641CE4B206
:104B60000F2C99D305B00948BDE8F04F00F010B8FC
:104B7000340700200000474300002041900400203B
:104B8000000048430000A04100007041E8060020FA
:104B9000044A0021435C22F81130491CC9B20F2994
:104BA000F8D37047200200200448034901600449FB
:104BB00041600021816070470BD7233D84040020B1
:104BC00090C2753DFEE700002DE9F0415C212348CD
:104BD000FEF7FCF8214C0126DFF884802078214D77
:104BE000214FAA2802D16078C12817D000F03EF8E2
:104BF0005FF0000004EB40014A8800EB400105EB48
:104C000001118A8004EB8002401C126AC0B28A61E2
:104C10000F28EFD388F800603E7016E05FF00000C8
:104C200004EB40014A8800EB400105EB01118A804A
:104C300004EB8002401C126AC0B28A610F28EFD3D5
:104C400088F800603878002805D000203870BDE86A
:104C5000F04100F023B8BDE8F0810000FC02002024
:104C60003C00002034070020340000200A4910B521
:104C7000AA2008700020024640F2DC5301EB4004F9
:104C8000638001EB8004401CC0B222620F28F5D380
:104C9000C120487010BD0000FC0200205C210148CA
:104CA000FEF7B0B8FC02002070B5084C0025217852
:104CB00051B1616800F078FB6060B0F17C5F02DBAD
:104CC000FFF7ECFF257070BD656070BD34000020FB
:104CD0007047704730B52F4C01EB410104EB0111D7
:104CE00040B10020142B3BD29AB3012A32D0022AC1
:104CF0004BD132E06425284C40F2DC50142B0FD20B
:104D000022B1012A02D0022A3FD106E08A880A3263
:104D100012B28A800A2A12D00EE088693C3013E071
:104D200022B1012A02D0022A2FD10AE08A881E323B
:104D300012B28A801E2A02D082421DDC25E08D80BC
:104D400023E0886900F596708861A0421DDD8C61C2
:104D50001BE0FFE78A880A3A0AE08A693C3A10E0D9
:104D600022B1012A02D0022A0FD107E08A881E3A16
:104D700012B28A80322A08DA888006E08A69A2F5AF
:104D800096728A61002A00DC886104494FF08040F5
:104D9000086030BD34070020805101003000002041
:104DA00070B50D4E002400BF04EB440006EB001567
:104DB000A88868812046FBF70BFDA8696862E8694E
:104DC000641C3B30E4B2A8620F2CEDD3BDE8704008
:104DD0000148FBF751BD00003407002010B5FEF775
:104DE0008DFA04480078002803D0BDE81040FFF792
:104DF00071BB10BD4C00002070B5224C00252088EE
:104E0000022800D3258060880A280AD31E4E304627
:104E1000FDF79AFD3046FDF7DBFE3046FBF70CFC54
:104E20006580A08832280DD3184E3046FBF7C4FAAF
:104E30003046FBF7ADFC3046FFF720FE3046FBF76F
:104E40007BFBA580E08864280DD3114E304600F02E
:104E500073F93046FBF706FC3046FFF725FF304676
:104E6000FBF734FBE5802089C82800D325816089C1
:104E7000B0F5FA7F00D36581A089B0F57A7F00D3C1
:104E8000A58170BD3E0000200AD7233CCDCC4C3D0F
:104E9000CDCCCC3D30B58FB028216846FBF7C9F9A1
:104EA00014210AA8FBF7C5F901210804CDE9001077
:104EB0000024029402250491CDE907504FF4E0103C
:104EC00009906846FEF76EFB08B172B6FEE70F2048
:104ED000CDE90A054FF48060CDE90C4002210AA813
:104EE0000E94FEF7A3FA002801D072B6FEE70FB0C9
:104EF00030BD704710B50A4C00202070FDF750FE01
:104F0000FFF762FEFDF782FEFFF798FAFFF74CFE0F
:104F1000FDF70AFD0449034808600120207010BD18
:104F20004C000020CDCCCC3D140000200148FFF700
:104F3000BFB80000500000200148FFF7B9B80000DA
:104F4000980000200148FFF7B3B80000E0000020FF
:104F50000148FFF7ADB80000280100200148FFF725
:104F6000A7B80000700100200148FFF7A1B80000B9
:104F7000B8010020F0B50268204C214D214E224F8F
:104F8000224B4FF0804CA04209D0984207D0604598
:104F900005D0A84203D0B04201D0B84204D122F0DB
:104FA000700E4A6842EA0E02A04209D0984207D029
:104FB000604505D0A84203D0B04201D0B84203D129
:104FC00022F44075CA682A434D6922F080022A43C0
:104FD00002608A68C2620A688262A04201D0984276
:104FE00001D109690163012141610169C90703D048
:104FF000016921F001010161F0BD0000002C0140B8
:105000000004004000080040000C00400034014053
:1050100010B501F01F030121046A99408C4304621A
:10502000016A9A401143016210BD10B5846842EADA
:10503000032224F47F440A432243826010BD826825
:1050400022F070020A4342F007018160704710B5F8
:10505000036A046A24F001040462846924F0F00401
:1050600044EA021423F00A020A438461026210BD7A
:1050700070B5056A046A24F0010404628469124E62
:10508000B0420ED0114EB0420BD0B0F1804F08D0DC
:105090000F4EB04205D00F4EB04202D00E4EB0427D
:1050A00003D124F00304144301E044F001041A077F
:1050B00024F0F00444EA126225F00A0301F00A0128
:1050C00019438261016270BD002C0140003401402F
:1050D0000004004000080040000C004010B5036AC6
:1050E000046A24F010040462846923F0A00324F409
:1050F000704444EA023243EA01118261016210BD48
:1051000030B5046A056A25F010050562856925F445
:10511000407545EA022222F470454FF6FF7202EA1A
:10512000033224F0A0032A43A02404EA0111194306
:105130008261016230BD000070B50546FBF7E0FA00
:105140002846FFF72FF9094C2846616800F02CF932
:105150006060B0F17C5F07DB0548C07810B1A078D3
:10516000C043A0700020606070BD000024000020DB
:105170004C000020FEE700002DE9F0412D4D904647
:105180000F460646002220212846FEF7ACF8FFF71E
:1051900045F9012000F08AF800247006060E00226E
:1051A00008212846FEF79FF8C4F1060026FA00F011
:1051B000C00701D0012200E0002204212846FEF7AA
:1051C00092F8FFF72BF9012208212846FEF78BF809
:1051D000FFF724F9641CE4B2072CE0D3002620E09A
:1051E0000024002208212846FEF77DF8C4F10701BB
:1051F00027FA01F0C00701D0012200E000220421BB
:105200002846FEF770F8FFF709F901220821284621
:10521000FEF769F8FFF702F9641C082CE1DB761C45
:10522000F6B24645DCD32846BDE8F04101222021F4
:10523000FEF759B80018014070B51B4E0546002412
:10524000002208213046FEF74EF8C4F1070025FA87
:1052500000F0C00701D0012200E000220421304606
:10526000FEF741F8FFF7DAF8012208213046FEF791
:105270003AF8FFF7D3F8641CE4B2082CE0D300221C
:1052800008213046FEF72FF8FFF7C8F80022042166
:105290003046FEF728F8012208213046FEF723F8B1
:1052A000BDE87040FFF7BAB80018014070B5044679
:1052B000FFF7B4F8214D002208212846FEF713F825
:1052C000FFF7ACF8012204212846FEF70CF8012272
:1052D00008212846FEF707F8FFF7A0F8002208216A
:1052E0002846FEF700F8FFF799F800220421284627
:1052F000FDF7F9FFFFF792F8012208212846FDF794
:10530000F2FFFFF78BF8002208212846FDF7EBFF9C
:10531000FFF784F87CB1012204212846FDF7E3FF62
:10532000FFF77CF8012208212846FDF7DCFFBDE8E5
:105330007040FFF773B80022EEE70000001801404C
:105340000907090E002804DB00F1E02080F80014B2
:10535000704700F00F0000F1E02080F8141D704746
:1053600010B5044CC1F1FF01235C0B4013432354DF
:1053700010BD000090020020FDF7C8FFFFF78AFD76
:10538000FFF7C2F8FFF784F9FFF7B6F9FFF704FA61
:10539000FFF752FAFFF7BAFAFFF796FAFFF7AAFDFE
:1053A000FFF7FEFCFCE7000090EA010F48BF81F028
:1053B000004100F1D482421A3CBF801A89184FEA9A
:1053C000D0524FF07F4C1CEA410FA2EBD15318BFD3
:1053D0009CEA026F00F03B804FF0004C4CEA00204A
:1053E0004CEA012121FA03FC10EB0C0C1ED202F155
:1053F000FF325FEA1C2040EBC25038BF70471CF000
:105400007F0F4FEA400C18BFBCF17F4F38BF704789
:10541000C3F12003994008BF20F00100BCF17F4F89
:1054200038BF7047A0F1C04000F051BA4FEA3C00CD
:10543000000A40EBC25028BF1CF0FF0F4FEA400C9F
:10544000E6D018BFBCF17F4F38BF7047EAE79CEA4F
:10545000026F05D010EA5C0F08BF00F000407047F3
:1054600010B500F0EEF900BF64FBBE3E401058BF1F
:10547000C0F14040491058BFC1F140418142EFF3B3
:10548000008070474FF47F0C1CEAD0121EBF1CEA4C
:10549000D11392EA0C0F93EA0C0F00F0858090EA8A
:1054A000010F48BF42F4807240F4000C41F4000048
:1054B0002CF07F4120F07F4000B58142A2EB030237
:1054C0000FF2081CACEB504EC0F100009EF800E05B
:1054D0004FEA4E0E00FB0EFC38BF49004FEA2C1C71
:1054E00002F5FA020CFB0EF34FEACE1E4FEA112C26
:1054F0004FEAC1210EEB635E42EB22420EFB0CFC35
:105500004FEA1C5300FB03114FEA112C4FEA013103
:105510000EFB0CFC4FEADC4C00FB0C11C14228BF17
:1055200009184CEB03335DF804EB10EB410143EB3E
:10553000C250B2F57C0F38BF704729D512F0F00F7A
:105540001CBF00F1C04000F0004070470081828322
:105550008485868788898B8C8D8E8F919293959682
:1055600097999A9C9D9FA0A2A3A5A7A8AAACAEB00C
:10557000B2B3B5B7B9BCBEC0C2C5C7C9CCCED1D411
:10558000D7D9DCDFE2E6E9ECF0F3F7FAFE00000041
:105590004FEA400C0CF1807CBCF17E4F28BF704775
:1055A000B0F1C04000F093B990EA010F0CEAD113BA
:1055B00048BF42F48072624538BF634507D213F496
:1055C0007F0F16D080EA010000F00040704710B550
:1055D00000F037F9097EFC3E00F005B880EA0100D2
:1055E00000F00040704780EA010000F0004000F049
:1055F0006EB912F47F0F04BF0248704780EA0100C1
:1056000000F065B90000C07F41000B0ED3F19E028F
:1056100008D950F400034FEA032323FA02F048BFED
:105620004042704710B500F00CF900BF4992248049
:10563000002070476FF0004282EA200070470000AF
:10564000C10DD1F19E0206DB4FEA002343F0004377
:1056500023FA02F07047004207D54FEA4001B1F14A
:10566000FE4F02D24FF00000704710B500F0E9F88D
:1056700049922480002070476FEA200070470000A4
:1056800010F0004148BF4042B0FA80F310FA03F234
:10569000C3F19D030BD051EAC35101EB1220530615
:1056A00038BF704700F1010008BF20F001007047CB
:1056B000B0FA80F310FA03F2C3F19D030AD0D905C2
:1056C00001EB1220530638BF704700F1010008BFFC
:1056D00020F001007047000050EA010C00F1138037
:1056E0001CF5000F58BFBCF5000F01D4884270476D
:1056F00007D710F5000F58BF11F5000F15D48842D9
:105700007047894270471CF5000F04D5BCF5000FA7
:10571000F7D5814270474FF0807C1CEB400F38BFBB
:105720001CEB410F01D28142704710B500F089F89F
:10573000922449004FF000504FF08051FFF796BE81
:105740004FF47F0C1CEAD0121EBF1CEAD11392EA60
:105750000C0F93EA0C0F00F0478090EA010F48BF4E
:1057600042F480724FF0004C4CEA00204CEA0121D8
:1057700002EB0302A0FB0113A2F50002002918BFEF
:1057800043F001035B0028BF4FEA330342EB2242A0
:105790005FEA132C4CEBC2502EBFBCEB436FB2F54B
:1057A0007C0F70474FEA036CBCF1004F08BF20F03C
:1057B0000100B2F57C0F38BF70470BD582F0FF02B5
:1057C00012F5803FC8BF704700F1C040D8BF00F05D
:1057D0000040704700F5000C5FEA4C0C48BF704772
:1057E000B0F1C04000F073B890EA010F0CEAD11399
:1057F00048BF42F48072624538BF634504D280EAF4
:10580000010000F00040704710B500F01AF800BF2A
:105810008900013E00F007B800F009B85FEA410CCA
:105820005FEA1C6C08D080EA010000F050B85FEA23
:10583000400C5FEA1C6CF6D14FF00040A0F58000F0
:1058400070470EF1020E2EF0030E5EF8044B244258
:1058500004D44FEA4102B2F17F4F11D84FEA40031E
:10586000B3F17F4F0CD80ED14FEAD07CB2F17F4F0D
:105870000CEB4C0C0CF1020C08BF4CEBD17C04E09F
:105880004FF0080C01E04FEAD17C0CEB4C0324FAFA
:1058900003F404F00704B4F1040C06D20EEB840CFC
:1058A000BDE810404CF0010C6047DFE80CF0070841
:1058B00002024FF00040A0F5800010BD08464200F3
:1058C00018BFD2F1807288BF00F0004010BDFF21E8
:1058D00041EAD050C005704751EA000C00F1138036
:1058E0001CF5000F58BFBCF5000F01D48142704772
:1058F00007D711F5000F58BF10F5000F15D48142DE
:105900007047894270471CF5000F04D5BCF5000FA5
:10591000F7D5884270474FF0807C1CEB410F38BFB1
:105920001CEB400F01D28842704780EA010081EAF7
:10593000000180EA0100FFF7F8BE80F0004090EA25
:10594000010F7FF538AD81F0004100F008B800008C
:1059500090EA010F48BF81F000413FF52CAD421A9B
:1059600004D882F00042A0EB020011444FEAD0526A
:105970004FF07F4C1CEA410FA2EBD15318BF9CEAB9
:10598000026F4AD04FF0004C4CEA00204CEA012153
:1059900021FA03FCB0EB0C0C0FD412F0FE0F36D042
:1059A0005FEA4C001DD5001240EBC25038BF704773
:1059B0001CF03F0F18BF70470BE0A2F101025FEA35
:1059C0001C2040EBC25038BF70471CF07F0F18BF3F
:1059D0007047C3F12003994014BF401E20F001001E
:1059E000704780084FEA122308BF7047B0FA80FC66
:1059F000A2EB0C02CCF1280C60FA0CF093EA122F07
:105A000004BF00EBC25070474FEAC3707047130ADF
:105A10005FEADC1008BF7047F6E79CEA026F04D02B
:105A200010EA5C0F08BF0020704710B5FFF709FFB0
:105A300040DFF63E81F0004070470102020304059A
:105A4000060708090A0B0C0D0E0F101000000000CD
:105A50000000000001020304060708097C5A000840
:105A600000000020500000006C010008CC5A000823
:105A700050000020181000008801000801000000FC
:105A8000100000000000000000127A00000000007A
:105A90000000000000000000000000000000000006
:105AA00000000000000000000000000000000000F6
:105AB00000000000000000000000000000000000E6
:0C5AC000000000000000000000000000DA
:0400000508000131BD
:00000001FF
