:020000040800F2
:10000000380B002059010008E5690008B95E0008B6
:1000100000000000000000000000000000000000E0
:10002000000000000000000000000000D56B000888
:1000300000000000000000003D6B0008056C000897
:100040006B010008000000006B0100086B01000854
:100050006B0100086B0100086B0100080D3C0008F3
:1000600000000000411D0008511D00086B01000840
:10007000651400086B010008116E00080000000004
:100080006B0100086B010008000000006B01000814
:100090009D6D00086B0100086B0100086B010008F2
:1000A0006B0100086B0100086B0100086B01000880
:1000B0006B01000800F002F800F03EF80CA030C818
:1000C000083824182D18A246671EAB4654465D46D4
:1000D000AC4201D100F030F87E460F3E0FCCB64660
:1000E0000126334200D0FB1AA246AB4633431847E1
:1000F0005C7B00007C7B0000103A02D378C878C19A
:10010000FAD8520701D330C830C101D504680C6059
:10011000704700000023002400250026103A01D378
:1001200078C1FBD8520700D330C100D50B607047AF
:100130001FB51FBD10B510BD01F032F91146FFF714
:10014000F7FF07F0F5F901F04AF903B4FFF7F2FF02
:1001500003BC01F07FF900000748804707480047CB
:10016000FEE7FEE7FEE7FEE7FEE7FEE70448054997
:10017000054A064B70470000376D0008B5000008BF
:1001800038050020380B00203807002038070020F1
:1001900010B5202A04DB0846203AD040002110BDCB
:1001A0000B462024D340D040A21A91400843194660
:1001B00010BDFEB5054610460C46184373D0AE463A
:1001C0008C460020AD1A01469C4167D36646002745
:1001D00001243D46B61A9D4102D313463A462124D6
:1001E000654676462F04360C3E432D0CB61A9D41CB
:1001F00004D3150C1B042B431204103465467646B9
:100200002F06360A3E432D0AB61A9D4104D3150E19
:100210001B022B4312020834654676462F07360927
:100220003E432D09B61A9D4104D3150F1B012B43E4
:100230001201241D65467646AF07B6083E43AD0859
:10024000B61A9D4104D3950F9B002B439200A41C2A
:1002500065467646EF0776083E436D08B61A9D411F
:100260001AD392185B41641C16E000187646654666
:100270004941B71A9D410191009009D36046B11AD6
:1002800098418E468446009801990025401C69419A
:10029000DD0752082A435B08641EE6D572466346B2
:1002A00003B0F0BDFFE700200146C046C0462A4625
:1002B0002346F5E701E004C0091F0429FBD28B07A0
:1002C00001D50280801CC90700D002707047002948
:1002D0000BD0C30702D00270401C491E022904D370
:1002E000830702D50280801C891EE3E70022EEE727
:1002F0000022DFE7002203098B422CD3030A8B4242
:1003000011D300239C464EE003460B433CD400220D
:1003100043088B4231D303098B421CD3030A8B421F
:1003200001D394463FE0C3098B4201D3CB01C01AED
:10033000524183098B4201D38B01C01A52414309B8
:100340008B4201D34B01C01A524103098B4201D3A6
:100350000B01C01A5241C3088B4201D3CB00C01A13
:10036000524183088B4201D38B00C01A524143088B
:100370008B4201D34B00C01A5241411A00D20146B0
:100380005241104670475DE0CA0F00D04942031049
:1003900000D34042534000229C4603098B422DD398
:1003A000030A8B4212D3FC22890112BA030A8B4240
:1003B0000CD3890192118B4208D3890192118B428F
:1003C00004D389013AD0921100E08909C3098B4214
:1003D00001D3CB01C01A524183098B4201D38B0157
:1003E000C01A524143098B4201D34B01C01A5241FA
:1003F00003098B4201D30B01C01A5241C3088B423F
:1004000001D3CB00C01A524183088B4201D38B0029
:10041000C01A5241D9D243088B4201D34B00C01AB3
:100420005241411A00D20146634652415B101046C8
:1004300001D34042002B00D54942704763465B1010
:1004400000D3404201B50020C046C04602BD7047FF
:10045000704770470246C80FC00781434B0030B554
:100460004B405B009B0D20D01923DB06C9180123EC
:100470001B05994220DB0324A40704251346AB4047
:100480000BD3002B04D1EB0613409B00E34204D4B2
:1004900001246407002312195941FF231B059942C7
:1004A0000BD2C9000143500F09E0CB0204D5014330
:1004B0000803024305D0054830BDFF21C9050843A4
:1004C00030BD084607210905884330BD0000C07FC4
:1004D000F0B50C46871A9C410D46861A9D4103D201
:1004E000C01BA141D21963410D0D1F0DC94EEC1B5C
:1004F000AE435CD07F057F0D0026002F51D02D0527
:10050000AC46A943DD020123ED0A1B051D43202350
:100510001B1B24D41746E740381871412F46E7408B
:10052000CC199D402818314661410C0D27D16144FA
:100530009A4013D50023401C594152000ED1400867
:10054000400001224B005205D34207D3052040074B
:10055000C14201D5B04900E0B0493046F0BD6B0062
:10056000002A00D001229A181F23203C1B1B01D512
:10057000002302E0E540281871410C0DD7D001247A
:1005800024050919C407CD0740084908E40F28438A
:100590006144002CD5D00024401C61419A40D0D148
:1005A000CDE76A05520DD9D1C90FC907D5E79C4DD2
:1005B0004E00002801D0012400E0002434195F001F
:1005C000002A01D0012600E00026BE19954FAC425A
:1005D0000CD8AE420AD8B44206D001256D05EC42D3
:1005E000BCD010461946F0BD9942FCD000203946D7
:1005F000F0BDF0B51FB40C460F46811A9F41254649
:10060000861A9D4106D20125ED076F40401ABC4174
:1006100052187B41210D1E0D8D1BAC467D4D8D4327
:100620007ED075056D0D7CD00D05AE46AC431B0329
:100630001B0B794D52429D41202366469B1B14D3D0
:100640001746F740381800260090744160462F4640
:100650000741E41900989D402818664116D4714658
:1006600071189A4025D5012320E093182A466A4143
:100670005200002B00D0521C1E23203E9B1B002B3F
:1006800061DD3541EE1728186641E8D5001876413E
:100690005B1C9A4000D3401C4B05F3181524E34023
:1006A00010D3002B52D071467118D30FC01802D34B
:1006B000491C05B0F0BD0123DB079A42F9D140087F
:1006C0004000F6E701225205B21801D1002853D0AC
:1006D0000123CC0ADB029943891E002A08D1020CAF
:1006E00003D0020C0004103902E002460020203939
:1006F0000023550B05D112020823550B01D15201DD
:100700000D23550C01D112011B1DD50C01D19200F6
:100710009B1C150D01D152005B1C2025EE1A01E037
:100720002CE022E00546F54015439840CA1AE1073F
:1007300069181305C918002ABBDA032040070818F6
:10074000C10FC9070FE071466118B2E7F107400811
:100750000843711071444A000CD001235B059A4292
:10076000A7D2C90FC9070020A3E74905490D26D123
:10077000002001E00028F4D100219AE7284D66000E
:10078000002801D0012100E0002171185F00002A3B
:1007900001D0012600E00026BE19224FA94210D840
:1007A000AE420ED8B14208D001256D05E94206D00F
:1007B0001946A802414010467BE79C4201D02146E1
:1007C00077E70020394674E710B50C465C4005D544
:1007D0000124E4076340FFF70CFF10BDFFF778FE2C
:1007E00010BD30B40C465C4004D50124E4076340DE
:1007F00030BC6DE630BCFCE670B50124E407614016
:100800000D465D4002D4FFF763FE70BD6340FFF705
:10081000F0FE70BDFF0700000000F0FF0000F07F59
:100820000000E0FF0000F87FF0B5F94D0C091E094B
:100830002C402E402F468BB0A7437DD0B543FCD033
:10084000002E7AD0002CFCD00D465D40ED0F2543E4
:10085000AC1BFF25AD0464190894C502440DC90200
:100860002143500DDC0204430120C007014304432F
:10087000D2020191200C110C00958C4601042346F4
:100880008B430A9161460904E24D8A430991010AAA
:100890007D4449198039097805464D4301266D1874
:1008A000F605751B6943C90C640B891C4C4364181D
:1008B000B5012C1B250C2E04B4434C434D43210C95
:1008C000691889090591009DE90701D00121C9072F
:1008D00004912C4601996708CD072F434C08059DCC
:1008E000E10B4D432D0C29466646754302950D4696
:1008F00045432E46029D7D1BB44100950D465D4348
:1009000001942C0C2F040D465543AE462D0C3D434F
:10091000029503947546049C2D04641B049406D22E
:10092000029C039D641C002675410395029401AC52
:1009300070CC009F7D1B01E03EE162E1B4410904FF
:100940000095079101940599A4086143090C0C4690
:100950004443650BE7040C4666467443A646640BA5
:100960003C43039502947446049DE4042C1B0494B8
:1009700006D2029C039D641C0026754103950294D7
:1009800001AC70CC009F7D1BB44101940C465C43CC
:100990000095650FE7000C465443A646640F3C43A0
:1009A000039502947446049DE4002C1B049406D223
:1009B000029C039D641C002675410395029401ACC2
:1009C00070CC009F7D1BB441AE09AF06049DC900E9
:1009D000AD092F43049DA406AD060495079D34433D
:1009E00069180791059DE10B4D432D0C294666467C
:1009F000754302950D4645432E46029D7D1BB4412D
:100A000000950D465D4301942C0C2F040D46554373
:100A1000AE462D0C3D43029503947546049C2D046F
:100A2000641B049406D2029C039D641C002675413D
:100A30000395029401AC70CC009F7D1BB4410194DE
:100A40008C050694079C890A611800950791019C02
:100A50000599A4086143090C0D464543680BEF0452
:100A60000D46644665436C0B3C43049FED047D1BBF
:100A7000AC4602D20025641C6841009E019D371BD4
:100A800085410846584301950C46460FC50054431E
:100A9000600F28436546E4002C1B02D20025401C51
:100AA0006E41019D3F1AB5412846BD098006284385
:100AB0008446A009BF064E020699A406761807438D
:100AC000079D002068410A99079019430020099B5F
:100AD00000906046FF1913434041E20F64003A431F
:100AE000A4460446D71A8C41A04203D901200090A5
:100AF00020463A46C70F941840416246D20F22431F
:100B0000644664000494009CBE466400D71AA44660
:100B1000044602978C417746002F01D1A04204D9A8
:100B20006046401C8446029A2046C40FA64694188C
:100B30004041049A0546D20F224364466400D31A0A
:100B40008D417146002901D1A84202D928461A4692
:100B5000641C10430122002800D0164361020020CB
:100B6000079B891904465C410223002C02DB4918CB
:100B700013466441089DCE0A2D145D194B05670587
:100B8000E10A2C050D1908993E43C9076940002B5D
:100B900008D0934006D30022761C5141002B01D18E
:100BA000760876001C4A002D43DB154241D0AA434B
:100BB0003FD030460BB0F0BD06180D464D41174CE6
:100BC0007642AC411AD395181C465C41134A6D42DB
:100BD000A24113D3012252054C00D4420AD15C0039
:100BE000D4420BD04B4002D592021143E2E74900B8
:100BF0004908DFE75940C90FC90718E00020084934
:100C0000D8E7054801420DD10342F7D0F2E70000D2
:100C10000000FF07F87200000000F07F0000E0FF16
:100C20000000F87F114859400143C01241400020A4
:100C3000C0E70123089A9B069A4205DC032252076B
:100C40008918C90FC907B5E7052252078918074A4D
:100C50001143D2125140ADE770B515461C4602460D
:100C60000B4628462146FFF7DFFD70BDFFFFFF7FE3
:100C700030B50346CA02400D1043164D164C0A15F6
:100C800002D02043002A06DBAA1A002A12DDD04037
:100C9000FF2A0BDC30BD5205520D01D14000400847
:100CA000AA1A07D4D0404042FF2A01DD002030BDFF
:100CB0000028FCDD4A00002B01D0012000E00020CC
:100CC000101801225205D042F0D8C817C043604026
:100CD00030BD00001E04000000000080F0B58B4C09
:100CE0000F09254689B0BD437BD01D092646AE437A
:100CF000FAD00E465E402740F60F3E43254071D0A5
:100D000024012142FBD0FF24AD19A4042D1B03951F
:100D100001252D05DB02DB0AC9022B43C90A294341
:100D20001E010901040F130F050121431701880B50
:100D3000820391432D098C46A90B1E438A039543D8
:100D4000B30B9A0396433F09BA0B9403A743029649
:100D50002E467E430497B6464E19D7190C46019687
:100D6000544305977E43371B7646BF1B3601B64674
:100D7000BE0B361900967646BC043719009C01D389
:100D8000641C00946400002F01D001263443029EAD
:100D9000049F754366467E430496760034196E00C0
:100DA00034190094029C019E1C196643751BAE46C3
:100DB000069465464519059C05956C43594375464F
:100DC0000891691A0191049E01465143A41B0491A4
:100DD000611A009C0791E10605D0610901221143C7
:100DE00002E072E06EE06109089D00272C0A2D06E2
:100DF0006918049D7C412A0A2D066918019D6241EB
:100E0000AC0DAD026D185441079A910D920255191F
:100E10006141029A644658435443069B059A5A43DB
:100E2000121A131B9A0E9B015B187A41010B0005E5
:100E3000C3185141220A200644195A419A4200D24D
:100E4000491C01204002814203D315230226F643A8
:100E500002E014230326F6432020C51AA9401746B2
:100E6000AF40DA400A4320460399D840091473186A
:100E700019055118039A3843D2075140AC4009D0A4
:100E80000122944006D30022401C5141002C01D184
:100E9000400840001E4A934212D301220398920652
:100EA000904207DB0520400709181A480143C01289
:100EB000414004E0032040070818C10FC907002083
:100EC00009B0F0BD0020F107FAE705180C464C41C7
:100ED00011486D42A04115D394181A465A410E4844
:100EE000644290410ED301204A004005824209D35A
:100EF0005A00824206D35940C90F084AC907002048
:100F00001143DDE700200649DAE700000000FF0793
:100F1000FE070000FFFFFF7F0000E0FF0000F07F02
:100F20000000F87F70B505464800440D124B0020C4
:100F3000002C0AD0634008D09A4206DA6642B242D8
:100F400003DD12054019514170BD002C08D0002B63
:100F500009D0C90FC907002AF6DB084A114370BD42
:100F6000C90FC90770BD28460A03104302D00020EC
:100F7000034970BD284670BDFF0700000000F07FE8
:100F80000000F87F0121C9050123411842001B061A
:100F9000D3185B0E0AD0C1100722D2068918400769
:100FA0005242D14201D5520089187047090208D532
:100FB0000146002A03D0C10FC90700207047104620
:100FC0007047420202D000200249704707210905FC
:100FD0000143F4E70000F87FF0B5FF252D04C609B2
:100FE000C209FF2704462E400137CB093E43484043
:100FF0002A402B400746002A6BD0002B69D0AA421A
:1010000067D0AB4265D0002800DA32460125ED05F5
:1010100029432C4309022002090AD21A4B0C7F24CF
:10102000E31A434C000A7C44E35C7D242404121937
:1010300014145B00A218884201D3521C00E0400047
:1010400049420C465C4324115C43DB016415E31800
:10105000040A5C43C502200D0C4644436419250A6A
:101060005D432303EC0C0D46654300030019EB18A8
:101070004C42A34201D35B18401CD4052018002B1E
:1010800007D05B00C91804D3401C002901D14008D7
:1010900040003F2189048A4209D3002A08DC110656
:1010A000090F04D0032149074018C00FC007F0BD45
:1010B00001224100120689187F2252069142F6D27F
:1010C00005214907C84201D59010F0BDFF20C00599
:1010D000F0BD002F00DA32461648AA4207D2AB42D2
:1010E00005D21902090E17D0F80FC007F0BDFF2571
:1010F00063002D06AB42F9D84900A942F6D8AB42AD
:1011000001D1A942F2D0A94201D1002101E0610040
:101110004908D0050843F0BD1102090EFBD0FF209D
:101120000243D005F0BD0A460146104654E70000D0
:10113000E26B00000000C07F10B501469E24000253
:10114000CA15A307002A02D01843002A04DBA21AFA
:10115000002A0CDDD04010BD1206120E01D1400055
:101160004008A21A03D4D04040420028F3DDFF22F9
:1011700048001206904201D9002010BDC817C04394
:10118000584010BD0102C21504D00123DB071943EA
:10119000002A0ADB9E239A1A02D40846D0407047E0
:1011A000FF2241001206914201D900207047C0176A
:1011B000C04370471F22030C02D10F2200041CD031
:1011C000030E01D10002083A030F01D10001121FE2
:1011D000830F01D18000921E002801DB4000521EC7
:1011E000D2055118021251181922904004D3491CFB
:1011F000002801D14908490008467047C10FC907B6
:1012000000D04042012292071143D3E70121890710
:10121000D0E7000010B5FF22C30D134009D05A409B
:1012200007D0914205DA5C42A14202DDC9050818E7
:1012300010BDC40FE407002B06D0002A06D00029F9
:1012400002DBFF20C0050443204610BD4102FCD054
:10125000004810BD0000C07FF8B5224C4E00069D2E
:10126000A6420AD8A64201D1002806D15E00A642B5
:1012700003D8A6420AD1002A08D00D24240425420E
:101280002CD02946002000F061F8F8BD0C461C4324
:101290000CD4994202D0EFF30080F8BD904202D006
:1012A000EFF30080F8BDEFF30080F8BD09242407B8
:1012B000E5008B4206D0EFF30080A043591A06D216
:1012C000284304E0101A05D3EFF30080A04380F315
:1012D0000088F8BDEFF30080A043F1E7009500F02F
:1012E0004DF8F8BD0000E0FF10B5FF231B064400D9
:1012F0009C421DD84C009C421AD80346124A0B430C
:1013000007D4401A02D3EFF3008010BDEFF3008042
:1013100010BD081A06D2EFF3008001219043C907DF
:10132000084302E0EFF30080904380F3008810BD93
:101330000D231B041A4204D01146002000F006F8C9
:1013400010BD00F025F810BD00000090C80212D5B5
:101350004803400F002804D0C803C043012188403F
:101360007047EFF3008000010009032109070843DB
:1013700080F30088704700207047000010B50020FF
:101380000249029A00F033F810BD00000000F87F17
:1013900010B5024800F02BF810BD00000000C07F1F
:1013A000754600F053F8AE46050069465346C0083E
:1013B000C000854618B020B5FEF7D8FE60BC0027F7
:1013C0004908B6460026C0C5C0C5C0C5C0C5C0C511
:1013D000C0C5C0C5C0C5403D49008D46704710B569
:1013E0000446C046C0462046FEF7AFFE10BD10B50D
:1013F0000C461107090F092904D00A290AD0082927
:101400000CD104E011460820FFF7A0FF06E05106CA
:1014100006D501E0510601D50120C007214610BDC7
:10142000D10607D501010909CC084907000E0006BD
:10143000044309E0410F20024907000A0143200E3E
:1014400000061D22D14101430846E7E700487047E6
:10145000D404002001491820ABBEFEE7260002009C
:101460007047000010B5024802F011FE10BD0000E8
:10147000D800002070B5114802F022FD104804F099
:10148000DFF802220F490D4802F070FF0E48007B82
:10149000002812D10B4D00240C4E2D1F002002F00D
:1014A00045FCA860012002F041FCE860304605F0F0
:1014B00047FB641CE4B2C82CF0D370BDD8000020F8
:1014C000340200203400002078040020CDCCCC3D34
:1014D00010B50146406A826B50231A420AD1816BD3
:1014E00001225202114381630168CA681205920FFA
:1014F00005D020E0006B026B0846904710BD827E4D
:10150000002A18D10A68120715D58A6853070122E4
:10151000002B09DB4B680C24A3434B60816B130247
:1015200099431143816306E0816B20231943816352
:10153000C16B1143C16302F0A7FD10BD10B5406A35
:10154000816B402211438163C16B04221143C1634B
:1015500002F09CFD10BD10B5406A02F096FD10BD72
:10156000F8B5044600200090206881688907890F3B
:10157000012905D10168C90731D1C16809042ED4F8
:101580008168184A10261140012500291AD1816866
:1015900029438160154814490068FEF7ABFE00E05E
:1015A000401E00900028FBD103F07EFC074611E0AE
:1015B00003F07AFCC01B02280CD920680068C043E5
:1015C000C00707D0A06B3043A063E06B2843E06303
:1015D0000120F8BD20680068C043C007E8D10020A2
:1015E000F8BD00001700008040420F000C000020F2
:1015F000FFB585B008461E460F9F0E9C079906F062
:1016000045FAE060009032680146104606F0AEF9F7
:10161000206005983D464000010E0120C00745406E
:1016200000291BD07F20C0050599FFF7D5FC02904B
:10163000216A079806F02AFA029906F097F90146FE
:101640000122B068D207504006F090F9A061284608
:10165000009906F0E3F903D2284609E00020E6E706
:101660003946E06806F0DAF901D2384600E0E06871
:10167000716806F07BF9059906F078F9616806F063
:101680002FF9FF21C9056060C84201D3002106E09F
:10169000109906F0C3F901D2109900E06168616009
:1016A000206806F01DF9A16906F01AF96062079832
:1016B000206209B0F0BD0000F1B51F4C0121C90541
:1016C000092760688E13FF06884204DAA2688A42FE
:1016D00001DA002219E04000000E09D00122314653
:1016E000384603F0DAFB6168009806F0C3F96060E1
:1016F000A5686800000E0CD02168009806F0F0F88C
:101700000E492060884205DA01223146384603F04E
:10171000C4FBF8BD09490A4A494241189142D8D34D
:1017200008498842F5DB7F21C905284606F0AEF955
:10173000A06000202060F8BD10000020CDCC4C3E01
:10174000CDCC4C009A99993EF8B50D4D0026AF6866
:101750000C4C7900090E002910D0216B06F0C0F85E
:101760003F2109062063884207DBE079C043E0712E
:10177000384606F08BF9A8602663F8BDE671F8BD1F
:101780007804002048000020F8B5334E8446F078F5
:10179000002835D0314D01272846C28830482B7D9E
:1017A00000240168002B42D07378002B29D0642AD2
:1017B00026D80546604606F093F8B90703C506F03B
:1017C0002DF91DD2254D687D002807D00122D102B8
:1017D000244803F062FB2C706C7507E001210022A5
:1017E000C902204803F059FB2C706F751F481E4931
:1017F0000160F4701F492C751D484860184804604A
:10180000F8BD687D002807D00122D102154803F0F9
:1018100044FB2C706C7507E001210022C9021148BD
:1018200003F03BFB2C706F75F4702C75F8BD642AC7
:10183000FCD80546604606F053F87F21C9052860AC
:101840008842F3DD74700C48F47007700B48077021
:101850000B4807702C60F8BD78040020A404002019
:10186000C800002000040048CDCCCC3D140000206E
:101870000000D8411C0400209E0000209D00002094
:101880009C000020F8B50F4D6978022908D10E4957
:101890000026497801270D4C012902D0A6622F703D
:1018A000F8BDA16A06F01CF801218907A0628842F0
:1018B00006DD8121C9052F708842F1DBA662F8BDE3
:1018C0002E70F8BDC80400207804002048000020D5
:1018D00070B50D4C0546A07E002807D0FFF796FC9A
:1018E000294606F0D3F8FFF74DFCA076064C2034CD
:1018F000A07F002807D0FFF789FC294606F0C6F82C
:10190000FFF740FCA07770BD28030020F0B5294800
:10191000294A007A0C2358432549841827480E7811
:10192000012543780022002E14D0254802268788FE
:10193000865FB7420DD047888780A6600678002E64
:1019400000D002701F48002B057002D01F4E1E48A9
:1019500030600A704878002814D01D4802270426F9
:10196000C75F865FB7420CD0468066600678002E5F
:1019700000D002701348002B057002D0134E12489D
:1019800030604A708878002810D01248C0C80838E3
:10199000B74208D046600B48E6600570002B02D0C5
:1019A0000A4B0948186005488A708270F0BD000033
:1019B0009C000020C80400208C0300207804002034
:1019C000A4040020B0000020CDCCCC3D14000020A9
:1019D00088040020BC040020F1B5144F3F26787B1A
:1019E00036060025124C00280BD0616B009805F0DC
:1019F00077FF6063B04206DBA07AC043A0726563E4
:101A000001E06563A572387B00280BD0A16B0098BC
:101A100005F066FFA063B04203DBE07AC043E072EA
:101A2000A563F8BDA563E572F8BD00007804002049
:101A300048000020F1B57C4D82B0286C0090400039
:101A4000010E7A483F26877F00243606002901D000
:101A5000002F01D0AC7014E0E968029805F040FF57
:101A60003146E86088420DDB009806F00FF82864E4
:101A7000A9784000C943A970000E02D16C49012029
:101A80000870EC606848406C00904000010E6948A6
:101A9000857E01D0002D02D06348447019E0624871
:101AA0000169029805F01CFF5F49086131468842D0
:101AB00010DB009805F0EAFF5B495B4A486449780F
:101AC0004000C9435170000E02D15B4901200870EB
:101AD000554804615448806C00904000000E03D0CB
:101AE000002F01D1002D02D04F48C47019E04E489C
:101AF0004169029805F0F4FE4B494861314688423D
:101B000010DB009805F0C2FF4749474A8864C9784E
:101B10004000C943D170000E02D14849012008702D
:101B2000414844614048C06B00904000000E03D023
:101B3000002F01D1002D02D03B4804701DE03A482F
:101B40008169029805F0CCFE3749886131468842A8
:101B500014DB009805F09AFF3349334AC8630978CB
:101B60004000C9431170000E06D1344901200870AD
:101B7000314908702E4908702B4884612A48C06C8E
:101B800001904000010E2E480078009001D0002DF9
:101B90000CD025480472C461234D286D019040008B
:101BA000000E01D0002F1AD06C7236E0002811D040
:101BB0001D4D0298E96905F093FE3146E8618842BF
:101BC000EADB019805F062FFE864287AC0432872D6
:101BD000EC61E1E71448C461C4640472DCE7009876
:101BE000174F00281BD0296A029805F079FE31466C
:101BF0002862884212DB019805F048FF0121C905DF
:101C00002865884206DA7878022803D1B8783872D5
:101C100004F0EAFE687AC04368722C62FEBD2C6252
:101C20002C656C72FEBD00004800002048030020B7
:101C30009C000020280300209D0000209E00002022
:101C4000C804002010B5064C216905F049FE7F212B
:101C5000C9052061884202DB0020E080206110BDC0
:101C6000A4040020F8B52F4A002551782E4C0029F5
:101C700055D02E4B2E4E5B78012B01D1022901D07D
:101C8000D6804AE0616A4B001B0E3FD113795B1C82
:101C9000DBB21371112B01D906231371DFB23B00A4
:101CA00005F0D0FB120A0C0E10121416181A1C1F85
:101CB0002225282B2E303234D68027E0012324E041
:101CC000032322E0072320E00F231EE01F231CE054
:101CD0003F231AE07E2318E0FC2316E0FF23F933AC
:101CE00013E03F231B0110E03F235B010DE03F2386
:101CF0009B010AE00E4B7E3B07E00D4BFC3B04E0F2
:101D00000C4B02E00C4B00E00C4BD38005F0E8FDDF
:101D10003F2109066062884200DB6562F8BDD5801C
:101D2000FBE70000C80400204800002078040020E1
:101D3000FF0F0000070E00000F0C00001F0800003E
:101D400010B5024802F062FB10BD0000180100202F
:101D500010B5024802F05AFB10BD0000C40200207A
:101D600010B504460068054940181421FEF7C2FA70
:101D7000800020640248E06310BD0000F8FFFDBF52
:101D80000000024030B5056C0124AC40C56B6C60AE
:101D9000046863604368102B036803D0996000688F
:101DA000C26030BD9A600068C16030BD70B5234824
:101DB00000244178224800293CD002468388D188FB
:101DC0001289002B30D01D4C06780325E478002EB4
:101DD00007D0012E09D0022E10D0032E00D103818E
:101DE00070BD934208D301260670818191420CD9BF
:101DF0008A420BD2018109E002260670818191425C
:101E00000AD28A4209D9018107E00281002CE7D178
:101E10000189994206D270BD0281002CFBD1018953
:101E20009942F8D8057070BD002A01D0018170BDBB
:101E3000048170BD04818481047070BD7804002029
:101E4000A4040020044910B548430921FEF752FAC2
:101E500000BF401EFCD210BD80BB0000F8B5F748A3
:101E6000F74D017BF64E6435F64F002975D01B21E6
:101E7000F548FEF73BFA0021F44803F075FFF349FB
:101E8000C820096848630620385EFF21F531884282
:101E900075DDEF48C07A002824D006220F210B20E0
:101EA00005F000FB0E2211460C2005F0FBFA0C2277
:101EB0000F210D2005F0F6FA0E210C22084605F040
:101EC000F1FA0F210E22084605F0ECFA04220E2149
:101ED000102005F0E7FADB480C27C75F002F1CDB5A
:101EE00038461FE000220F210B2005F0DBFA00220C
:101EF0000E210C2005F0D6FA00220F210D2005F04E
:101F0000D1FA0E210022084605F0CCFA0F2100225A
:101F1000084605F0C7FA0022D9E73846633063283F
:101F200009D278427D21C900FEF7EEF90A21FEF7B9
:101F3000EBF9CCB204E07819B04201D80A2445E0AC
:101F4000230005F07FFA0A061D1F26282A2C333AA3
:101F50003C43AF4202DD0F2229E056E100220F216F
:101F6000104605F09FFA00220E21012005F09AFA92
:101F7000B4480C27C75F002F2FDB384637E02EE12F
:101F8000002214E00D220F21002005F08BFA06221A
:101F9000EAE7092214E0022212E00B2200E00F22FD
:101FA0000F21002005F07EFA0C22DDE701220F212F
:101FB000002005F077FA0A22D6E70F2200E00B2274
:101FC0000F21002005F06EFA0E22CDE700220F212E
:101FD000104605F067FA0422C6E7384663306328E6
:101FE00001D20A244DE07819B04207D87842642122
:101FF000FEF78AF90A21FEF787F9CCB2230005F033
:1020000021FA0A061A1C2325272930373940632F65
:1020100001DD0F2226E000220F21022005F042FA06
:1020200000220E21032005F03DFA864F0C20385E79
:1020300000282DDA34E0002214E00D220F210220C6
:1020400005F030FA0622ECE7092214E0022212E041
:102050000B2200E00F220F21022005F023FA0C22B0
:10206000DFE701220F21022005F01CFA0A22D8E73F
:102070000F2200E00B220F21022005F013FA0E229E
:10208000CFE700220F21022005F00CFA0422C8E756
:102090000A21FEF739F90A21FEF736F9CCB208E039
:1020A00001466331632902D34119B14201D840424C
:1020B000EEE7230005F0C6F90A0608171E202224C1
:1020C0002B2D2F360F2200E000220F21042005F0D7
:1020D000E9F90A220E21052005F0E4F90C20385E0A
:1020E000002826DA2AE00D220F21042005F0DAF973
:1020F0000622EFE709220FE002220DE00B2200E0AA
:102100000F220F21042005F0CDF90C22E2E7012275
:10211000DBE70F2200E00B220F21042005F0C2F9BB
:102120000E22D7E700220F21042005F0BBF904227C
:10213000D0E70A21FEF7E8F8CCB208E001466331A7
:10214000632902D34119B14201D84042F1E723008B
:1021500005F078F90A06081B222426282F31333A85
:102160000F2200E000220F21062005F09BF90A2231
:102170000E21072005F096F9387E00282BD0082183
:102180000022084605F08EF932E00D220F210620CC
:1021900005F088F90622EBE709220FE002220DE0A4
:1021A0000B2200E00F220F21062005F07BF90C2204
:1021B000DEE70122D7E70F2200E00B220F210620E5
:1021C00005F070F90E22D3E700220F21062005F05A
:1021D00069F90422CCE7802211460720D2E70021CA
:1021E0001A4803F015FE1948FF2100689031416339
:1021F000154D00246006295D000E012205F01CF833
:10220000641CE4B21B2CF5D3F8BD0C48407B0028BD
:1022100074D000210D4803F0A7FD0C49C8200968BF
:1022200048631B210848FEF761F8787E002811D02A
:10223000012831D002283DD025E00000780400209C
:10224000830300008804002070030020A401002004
:1022500048000020FE48807A00280AD0FD48807B94
:10226000002806D100220221082005F01BF90022D7
:1022700005E002221146082005F014F9012201218F
:10228000032005F00FF9F448C07D002822D0012872
:102290004AD0022856D041E0ED48807A002803D089
:1022A000EC48807B002803D00422042108200CE0A5
:1022B0000022FAE7E648807A002803D0E548807BD0
:1022C000002805D002220221092005F0EBF8D0E712
:1022D0000022F8E7DE48807A002810D0DD48807BB5
:1022E00001280CD1002201210C2005F0DBF800228E
:1022F00001210A2005F0D6F800220BE0DFE10122DF
:1023000011460C2005F0CEF8012211460A2005F0F6
:10231000C9F8022202210A2005F0C4F8387E0028FC
:1023200020D0012831D042E0C948807A002803D06B
:10233000C848807B012803D00822082109200CE02E
:102340000022FAE7C248807A002803D0C148807B87
:10235000012805D001220121112005F0A3F8CEE7C4
:102360000022F8E7BA48807A002803D0B948807B79
:10237000032808D080228021072005F093F800224E
:102380000821084611E00022F5E7B148807A0028CC
:1023900003D0B048807B03281DD0082208210846BE
:1023A00005F080F800228021072005F07BF8A8487E
:1023B000807A002803D0A748807B02280DD0802295
:1023C0008021012005F06EF8A4481A27C75F002F6E
:1023D00005DB384608E00022E0E70022F0E7384657
:1023E0006330632809D278427D21C900FDF78CFF54
:1023F0000A21FDF789FFCCB204E07819B04201D878
:102400000A2443E0230005F01DF80A061B1D2426BC
:10241000282A31383A41AF4201DDF02227E000227C
:10242000F021104605F03EF800227021012005F051
:1024300039F88A481A27C75F002F2EDB384636E066
:10244000002214E0D022F021002005F02BF83022E9
:10245000EBE7902214E0202212E0B02200E0F0220C
:10246000F021002005F01EF86022DEE71022F021A6
:10247000002005F017F85022D7E7F02200E0B02244
:10248000F021002005F00EF87022CEE70022F021A6
:10249000104605F007F82022C7E738466330632866
:1024A00001D20A244DE07819B04207D8784264215D
:1024B000FDF72AFF0A21FDF727FFCCB2230004F025
:1024C000C1FF0A061A1C2325272930373940632FFC
:1024D00001DDF02226E00022F021022004F0E2FFDC
:1024E00000227021032004F0DDFF5C4F1A20385ECB
:1024F00000282DDA34E0002214E0D022F02102205E
:1025000004F0D0FF3022ECE7902214E0202212E009
:10251000B02200E0F022F021022004F0C3FF60228C
:10252000DFE71022F021022004F0BCFF5022D8E7A0
:10253000F02200E0B022F021022004F0B3FF70226C
:10254000CFE70022F021022004F0ACFF2022C8E7F0
:102550000A21FDF7D9FE0A21FDF7D6FECCB208E02C
:1025600001466331632902D34119B14201D8404287
:10257000EEE7230004F066FF0A0608171E20222457
:102580002B2D2F36F02200E00022F021042004F051
:1025900089FF50227021052004F084FF1A20385E44
:1025A000002826DA2AE0D022F021042004F07AFF65
:1025B0003022EFE790220FE020220DE0B02200E071
:1025C000F022F021042004F06DFF6022E2E71022E7
:1025D000DBE7F02200E0B022F021042004F062FFEB
:1025E0007022D7E70022F021042004F05BFF2022B4
:1025F000D0E70A21FDF788FECCB208E0014663313E
:10260000632902D34119B14201D84042F1E72300C6
:1026100004F018FF0A06082F36383A3C4345474E67
:10262000F02200E00022F021062004F03BFF5022BF
:102630007021072004F036FF80221146052004F0A7
:1026400031FF074D00246006000E295D012209E0DC
:102650004800002078040020A40400208804002002
:102660007003002004F0E8FD641CE4B21B2CEAD3E4
:10267000F8BDD022F021062004F014FF3022D7E765
:1026800090220FE020220DE0B02200E0F022F021A5
:10269000062004F007FF6022CAE71022C3E7F022F9
:1026A00000E0B022F021062004F0FCFE7022BFE71B
:1026B0000022F021062004F0F5FE2022B8E70021D8
:1026C000F74803F051FBF649C820096848631B210D
:1026D000F448FDF70BFEF4480C27C75F002F01DB21
:1026E000384604E038466330632809D278427D21B9
:1026F000C900FDF709FE0A21FDF706FECCB204E091
:102700007819B04201D80A2443E0230004F09AFE6D
:102710000A061B1D2426282A31383A41AF4201DD22
:102720000F2227E000220F21104604F0BBFE0022FA
:102730000E21012004F0B6FEDB480C27C75F002FF6
:102740002EDB384636E0002214E00D220F21002057
:1027500004F0A8FE0622EBE7092214E0022212E0B0
:102760000B2200E00F220F21002004F09BFE0C2220
:10277000DEE701220F21002004F094FE0A22D7E7B1
:102780000F2200E00B220F21002004F08BFE0E220E
:10279000CEE700220F21104604F084FE0422C7E792
:1027A00038466330632801D20A244DE07819B042DC
:1027B00007D878426421FDF7A7FD0A21FDF7A4FDA3
:1027C000CCB2230004F03EFE0A061A1C232527295A
:1027D00030373940632F01DD0F2226E000220F2120
:1027E000022004F05FFE00220E21032004F05AFEB6
:1027F000AD4F0C20385E00282DDA34E0002214E0C2
:102800000D220F21022004F04DFE0622ECE70922E2
:1028100014E0022212E00B2200E00F220F2102201E
:1028200004F040FE0C22DFE701220F21022004F019
:1028300039FE0A22D8E70F2200E00B220F210220E6
:1028400004F030FE0E22CFE700220F21022004F018
:1028500029FE0422C8E70A21FDF756FD0A21FDF7EB
:1028600053FDCCB208E001466331632902D341191C
:10287000B14201D84042EEE7230004F0E3FD0A062E
:1028800008181F2123252C2E30370F2200E00022AC
:102890000F21042004F006FE0A220E21052004F078
:1028A00001FE81490C20085E002826DA2AE00D226C
:1028B0000F21042004F0F6FD0622EEE709220FE0C6
:1028C00002220DE00B2200E00F220F21042004F071
:1028D000E9FD0C22E1E70122DAE70F2200E00B22FA
:1028E0000F21042004F0DEFD0E22D6E700220F2186
:1028F000042004F0D7FD0422CFE70A21FDF704FDF0
:10290000CCB208E001466331632902D34119B142D8
:1029100001D84042F1E7230004F094FD0A06083B89
:10292000424446484F51535A0F2200E000220F21E3
:10293000062004F0B7FD0A220E21072004F0B2FDA4
:102940005A48407800284AD00022F021104604F06E
:10295000A9FD00227021012004F0A4FD0022F02135
:10296000022004F09FFD00227021032004F09AFD54
:102970000022F021042004F095FD002270210520A2
:1029800004F090FD0022F021062004F08BFD0022CF
:102990009DE10D220F21062004F084FD0622CBE7E5
:1029A00009220FE002220DE00B2200E00F220F218E
:1029B000062004F077FD0C22BEE70122B7E70F22C4
:1029C00000E00B220F21062004F06CFD0E22B3E77D
:1029D00000220F21062004F065FD0422ACE73248F6
:1029E0000E27C75F002F02D020DB384623E00022ED
:1029F000F021104604F056FD20227021012004F041
:102A000051FD0022F021022004F04CFD2022702113
:102A1000032004F047FD0022F021042004F042FDD1
:102A200020227021052004F03DFD68E13846633026
:102A3000632809D278427D21C900FDF765FC0A218F
:102A4000FDF762FCCCB204E07819B04201D80A2448
:102A50004BE0230004F0F6FC0A061B1D2C2E30323E
:102A600039404249AF4201DDF0222FE00022F0213F
:102A7000104604F017FD00227021012004F012FD21
:102A800009480E27C75F002F36DB38463EE000229C
:102A90001CE0D022F021002004F004FD3022EBE7FE
:102AA000A4010020700300208804002048000020BA
:102AB000902214E0202212E0B02200E0F022F02167
:102AC000002004F0EFFC6022D6E71022F021002065
:102AD00004F0E8FC5022CFE7F02200E0B022F02121
:102AE000002004F0DFFC7022C6E70022F02110462F
:102AF00004F0D8FC2022BFE738466330632801D2B7
:102B00000A244DE07819B04207D878426421FDF7D5
:102B1000FBFB0A21FDF7F8FBCCB2230004F092FC8A
:102B20000A061A1C2325272930373940632F01DD77
:102B3000F02226E00022F021022004F0B3FC002263
:102B40007021032004F0AEFCFA4F0E20385E0028FE
:102B50002DDA34E0002214E0D022F021022004F02B
:102B6000A1FC3022ECE7902214E0202212E0B022F7
:102B700000E0F022F021022004F094FC6022DFE764
:102B80001022F021022004F08DFC5022D8E7F02220
:102B900000E0B022F021022004F084FC7022CFE794
:102BA0000022F021022004F07DFC2022C8E70A2147
:102BB000FDF7AAFB0A21FDF7A7FBCCB208E001460E
:102BC0006331632902D34119B14201D84042EEE793
:102BD000230004F037FC0A0608171E2022242B2DA0
:102BE0002F36F02200E00022F021042004F05AFCED
:102BF00050227021052004F055FC0E20385E00287C
:102C000026DA2AE0D022F021042004F04BFC302206
:102C1000EFE790220FE020220DE0B02200E0F0224A
:102C2000F021042004F03EFC6022E2E71022DBE702
:102C3000F02200E0B022F021042004F033FC7022E6
:102C4000D7E70022F021042004F02CFC2022D0E75A
:102C50000A21FDF759FBCCB208E001466331632934
:102C600002D34119B14201D84042F1E7230004F0F8
:102C7000E9FB0A06080F16181F21282A2C46F02205
:102C800000E00022F021062004F00CFC50221EE09F
:102C9000D022F021062004F005FC302217E090221B
:102CA00000E02022F021062004F0FCFB70220EE060
:102CB000B02200E0F022F021062004F0F3FB6022B5
:102CC00005E01022DEE7F022ECE7B022EAE770210F
:102CD000072004F0E7FB984C2089A84259D97D21B0
:102CE000C900FDF707FB0A21FDF704FB0B0004F008
:102CF000A9FB0A500D141B1D24262D2F314900223B
:102D0000F021062004F0CEFB2022E0E700220F2174
:102D1000122004F0C7FB0A221EE00D220F21122010
:102D200004F0C0FB062217E0092200E002220F2176
:102D3000122004F0B7FB0E220EE00B2200E00F225F
:102D40000F21122004F0AEFB0C2205E00122DEE789
:102D50000F22ECE70B22EAE70E21112004F0A2FB80
:102D6000208963285AD96421FDF7C4FA0A21FDF7A6
:102D7000C1FA0B0004F066FB0A520F161D1F26282D
:102D80002F31334B00220F21122004F08BFB042241
:102D9000E2E70F22BBE700220F210B2004F082FBA9
:102DA0000A221EE00D220F210B2004F07BFB0622DD
:102DB00017E0092200E002220F210B2004F072FB31
:102DC0000E220EE00B2200E00F220F210B2004F058
:102DD00069FB0C2205E00122DEE70F22ECE70B2263
:102DE000EAE70E210C2004F05DFB2089092855D963
:102DF0000A21FDF77FFA0A21FDF77CFA0B0004F0A7
:102E000021FB0A4D0F161D1F26282F3133460022A5
:102E10000F210B2004F046FB0422E2E70F22BBE760
:102E200000220F210D2004F03DFB0A221EE00D229E
:102E30000F21104604F036FB062217E0092200E0BD
:102E400002220F210D2004F02DFB0E220EE00B229A
:102E500000E00F220F210D2004F024FB0C2205E0DE
:102E60000122DEE70F22ECE70B22EAE70E210846FB
:102E700004F018FB20890A21FDF73CFA0B0004F04E
:102E8000E1FA0A0F11444B4D4F515F61636A002212
:102E90000F210D2004F006FB0422E7E70F22C0E714
:102EA0000F2200E000220F21084604F0FBFA0A225C
:102EB0000E21102004F0F6FA204EB078002851D0F0
:102EC0000022F021122004F0EDFA002270211120DE
:102ED00004F0E8FA0022F0210B2004F0E3FA0022CB
:102EE00070210C2004F0DEFA0022F0210D2004F005
:102EF000D9FA002270210E2004F0D4FA0022F02129
:102F00000F2004F0CFFA002253E10F210D220846D2
:102F100004F0C8FA0622CBE7092216E0022214E0E8
:102F20000B2200E00F220F21084604F0BBFA0C220E
:102F3000BEE7000088040020A40400204800002010
:102F40000122B0E70F2200E00B220F21084604F017
:102F5000A9FA0E22ACE70F210022084604F0A2FADB
:102F60000422A5E76089002811D0A84272D97D21EA
:102F7000C900FDF7BFF90A21FDF7BCF90B0004F009
:102F800061FA0A69252C33353C3E454749610022E8
:102F9000F021122004F086FA20227021112004F082
:102FA00081FA0022F0210B2004F07CFA202270210B
:102FB0000C2004F077FA0022F0210D2004F072FAC0
:102FC000202270210E2004F06DFAFBE00022F02197
:102FD000122004F067FA50221EE0D022F0211220C5
:102FE00004F060FA302217E0902200E02022F02165
:102FF000122004F057FA70220EE0B02200E0F02216
:10300000F021122004F04EFA602205E01022DEE7E3
:10301000F022ECE7B022EAE77021112004F042FA36
:10302000608963285BD96421FDF764F90A21FDF703
:1030300061F90B0004F006FA0A5310171E20272925
:103040003032344C0022F021122004F02BFA2022DE
:10305000E2E7FFE7F022BAE70022F0210B2004F0BC
:1030600021FA50221EE0D022F0210B2004F01AFA9F
:10307000302217E0902200E02022F0210B2004F003
:1030800011FA70220EE0B02200E0F022F0210B20B5
:1030900004F008FA602205E01022DEE7F022ECE7F7
:1030A000B022EAE770210C2004F0FCF960890928BD
:1030B00055D90A21FDF71EF90A21FDF71BF90B006E
:1030C00004F0C0F90A4D0F161D1F26282F31334674
:1030D0000022F0210B2004F0E5F92022E2E7F022A3
:1030E000BBE70022F0210D2004F0DCF950221EE0A5
:1030F000D022F0210D2004F0D5F9302217E09022E3
:1031000000E02022F0210D2004F0CCF970220EE026
:10311000B02200E0F022F0210D2004F0C3F960227B
:1031200005E01022DEE7F022ECE7B022EAE77021AA
:103130000E2004F0B7F960890A21FDF7DBF80B00D7
:1031400004F080F90A0F11181F21282A3133354065
:103150000022F0210D2004F0A5F92022E7E7F0225B
:10316000C0E7F02200E00022F0210F2004F09AF9DD
:1031700050221EE0D022F0210F2004F093F93022DB
:1031800017E0902200E02022F0210F2004F08AF9BD
:1031900070220EE0B02200E0F022F0210F2004F0B7
:1031A00081F9602205E01022DEE7F022ECE7B02290
:1031B000EAE77021102004F075F9FA4D286800281C
:1031C0003FD106E00022F0210F2004F06BF920220D
:1031D000EFE7F5498978032933D000220F211A201F
:1031E00004F060F900220721192004F05BF90022A5
:1031F0000F21182004F056F900220721172004F0AF
:1032000051F900220F21162004F04CF90022072169
:10321000152004F047F900220F21142004F042F990
:1032200000220721132004F03DF90022012108208B
:1032300004F038F900228021132004F033F9002231
:103240008CE1F178E1273F01002924D000220F21F1
:103250001A2004F027F900220721192004F022F98E
:1032600000220F21182004F01DF900220721172049
:1032700004F018F900220F21162004F013F900229F
:103280000721152004F00EF900220F21142004F06C
:1032900009F900224DE1002804D0A868B84220D3E3
:1032A000C24922E000220F211A2004F0FBF802227A
:1032B0000721192004F0F6F800220F21182004F04D
:1032C000F1F802220721172004F0ECF800220F2168
:1032D000162004F0E7F802220721152004F0E2F896
:1032E00042E13B280DD94B21C900FDF703F8C0B2DC
:1032F000030004F0A7F80A080A19202224262D2F1B
:10330000313800282FD00F2200E000220F211A2090
:1033100004F0C8F805220721192004F0C3F8A868B2
:10332000B84227D3394628E00D220F211A2004F095
:10333000B9F80322EFE709220FE002220DE00B2289
:1033400000E00F220F211A2004F0ACF80622E2E779
:103350000122DBE70F2200E00B220F211A2004F0EC
:10336000A1F80722D7E700220F211A2004F09AF8CB
:103370000222D0E73B280ED93C21FCF7BBFF0A21F3
:10338000FCF7B8FF0B0004F05DF80A080A21282AB0
:103390002C2E35373940002837D00F2200E000228C
:1033A0000F21182004F07EF805220721172004F0D1
:1033B00079F8A868B8422FD33946FCF79BFF084636
:1033C0004B21C900FCF796FFC0B230E00D220F215F
:1033D000182004F067F80322E7E709220FE0022231
:1033E0000DE00B2200E00F220F21182004F05AF804
:1033F0000622DAE70122D3E70F2200E00B220F2199
:10340000182004F04FF80722CFE700220F211820E0
:1034100004F048F80222C8E73B2801D8002845D02C
:103420003C21FCF767FF08460A21FCF763FF030015
:1034300004F008F80A06081D2426282A3133353CF2
:103440000F2200E000220F21162004F02BF80522A5
:103450000721152004F026F8A868394688422CD3A5
:10346000FCF748FF08463C21FCF744FF2DE00D2205
:103470000F21162004F016F80322E9E709220FE0D5
:1034800002220DE00B2200E00F220F21162004F093
:1034900009F80622DCE70122D5E70F2200E00B2223
:1034A0000F21162003F0FEFF0722D1E700220F2193
:1034B000162003F0F7FF0222CAE73B2801D80028B4
:1034C00052D03C21FCF716FF08460A21FCF712FFF8
:1034D0000B0003F0B7FF0A06080F16181F21282A51
:1034E0002C490F2200E000220F21142003F0DAFF04
:1034F00005221EE00D220F21142003F0D3FF03222A
:1035000017E0092200E002220F21142003F0CAFF75
:1035100007220EE00B2200E00F220F21142003F0FF
:10352000C1FF062205E00122DEE70F22ECE70B22B5
:10353000EAE70721132003F0B5FF01221146082016
:1035400003F0B0FF7079002815D0002280211320ED
:1035500003F0A8FFA868B8420FD2042204210A2071
:1035600003F0A0FF00220EE000220F21142003F040
:1035700099FF0222DDE78022E8E7002204210A20E9
:1035800003F090FF082208210A2003F08BFF084D6A
:10359000287E00280ED008221146104603F082FF34
:1035A00000220DE0BC04002078040020A08C000064
:1035B0008804002008210022084603F073FF8022BF
:1035C0008021072003F06EFF307900280FD0002201
:1035D0000221082003F066FF00220121032003F0EE
:1035E00061FF687E012809D002280BD00FE002227B
:1035F0001146082003F056FF0122EEE7042211468F
:10360000082002E002221146092003F04BFF0122AC
:103610001146052003F046FF80221146052003F0E5
:1036200041FFDA4801210068C905884201DB012217
:1036300000E000220121072003F034FFD448007984
:10364000002802D0F07900280ED0002204210920A1
:1036500003F028FFB079002808D0012808D00228FC
:1036600020D0032813D129E00422EFE7012200E053
:10367000002201210C2003F015FF012201210A2064
:1036800003F010FF022202210A2003F00BFF802228
:1036900011460E2003F006FFE07D012815D0022818
:1036A00017D01BE0012211460C2003F0FBFE012283
:1036B00011460A2003F0F6FE0022E4E7012211463B
:1036C0000C2003F0EFFE0022D8E708221146092063
:1036D00002E001221146112003F0E4FEAD4CA07976
:1036E000C00701D0102200E0002210211A2003F0B0
:1036F000D9FEA079800701D5082200E00022082128
:10370000172003F0CFFEA079400701D5082200E082
:1037100000220821132003F0C5FEA079000701D57F
:10372000102200E000221021132003F0BBFEA0793C
:10373000C00601D5202200E000222021132003F042
:10374000B1FEA079800601D5402200E00022402190
:10375000132003F0A7FEA079400601D5802200E0E7
:1037600000228021142003F09DFEA079000601D5DF
:10377000802200E000228021162003F093FEE088E2
:10378000C00501D5802200E000228021182003F02E
:1037900089FEE088800501D5802200E0002280219A
:1037A0001A2003F07FFEE088400501D5402200E0AA
:1037B000002240211A2003F075FEE088000501D5A3
:1037C000202200E0002220211A2003F06BFE607806
:1037D00000280FD02078002809D0307A00285CD04B
:1037E0000022F021192003F05DFE002280E03078F5
:1037F000002814D00022F021192003F053FE0022EB
:103800007021182003F04EFE0022F021172003F053
:1038100049FE00227021162003F044FE79E0702258
:10382000F021192003F03EFE30227021182003F011
:1038300039FE0022F021172003F034FE20227021EF
:10384000162003F02FFE207A030003F0FBFD0A8D03
:103850008F0C91939597999B9D1FF021152003F054
:1038600021FE50225BE0D022F021152003F01AFE49
:10387000302254E0F021152003F014FE70224EE0B7
:10388000F021152003F00EFE602248E00022F02116
:10389000152003F007FE202241E0A078030003F08A
:1038A000D1FD0A06080F16181F214F515355F0225B
:1038B00000E00022F021192003F0F4FD502217E06F
:1038C000D022F021192003F0EDFD302210E09022EB
:1038D00000E02022F021192003F0E4FD702207E02F
:1038E000B02200E0F022F021192003F0DBFD60227D
:1038F0007021182003F0D6FD0022F021172003F0DC
:10390000D1FD20227021162003F0CCFD707A002812
:103910001ED00022F021152003F0C4FD00227021EA
:10392000142003F0BFFD1C4D00246006295D000E2D
:10393000012203F081FC641CE4B21B2CF5D3F8BD1A
:103940001022B7E7F022C5E7B022C3E77022B8E73C
:10395000E078030003F076FD0A080A070C0E101247
:103960001416180692E77EE7F02276E7002274E745
:1039700090227FE720227DE7B02281E7F0227FE7D7
:1039800010226AE7F02275E7B02273E738000020C2
:1039900078040020C804002070030020F1B5684CB2
:1039A0002189E06801F074FA2746002501262037B6
:1039B000002802D17878002803D03878012806D072
:1039C0004BE0E169009803F08BFFE0613E702189D4
:1039D000E06801F05DFA012817D15A48E169091839
:1039E000594881420ED25948417B012906D1817B39
:1039F000491CC9B28173032900D9857351485449C0
:103A0000404208603D707D70E5615249E0694018B0
:103A10005149884221D2787800281ED14B48417BF9
:103A2000012902D0002911D012E0457385734B495A
:103A30004B480A7E02774A7E42774A4AD27D827795
:103A4000498B203001804848067001E04673857339
:103A50003C483F49404208607E70A18D206B01F0D8
:103A600017FA374F4037002802D17879002809D05B
:103A70003879012863D1A18D206B01F009FA012862
:103A800007D03EE0216C009803F02AFF20643E71CD
:103A9000F1E72C48216C09182B4881422ED22B4883
:103AA0004178012915D02F494A88002A03D12B4A91
:103AB0009288002A0DD046700D70CA7D2B4B2C4980
:103AC000012A01D0022A01D04B6006E0294A4A604F
:103AD00003E0244A02211170C67027491C4A0E7067
:103AE00026490E7026490E7026490D6026490D6044
:103AF00026490D6013494942116085703D717D7101
:103B000025642349206C40182249884217D27879CD
:103B1000002814D11348017D00290BD10221017026
:103B20000A49CE70067586751348067013480670EC
:103B30001348067003480649404208607E71F8BD8C
:103B400028030020333333C23333F30178040020D9
:103B500014000020FFFFBFBFFFFF3F0088040020CC
:103B6000EC030020A4040020B00000200000F0417D
:103B70001C040020000020429E0000209D00002028
:103B80009C000020900000208C0000208800002075
:103B9000FFFF3FC0FFFF7F0001210D4809030180A7
:103BA000491041800921C906012292024160028127
:103BB000C16028210174D20082845200C284054A67
:103BC0000123DB0382628385026320300175704725
:103BD000280300200008004870B50B4C3C21208BC6
:103BE00048431421FCF786FBFDF710FB00256061BC
:103BF0002583A08F3C2148431421FCF77BFBFDF774
:103C000005FBA063A58770BD2803002010B5012027
:103C1000000301F05FF80120400301F05BF810BDE4
:103C200010B5044801F00CFD0021024801F09AFE95
:103C300010BD00005C01002072B6FEE706490020BE
:103C4000C8610648016904221143016101694022EB
:103C5000114301617047000008030020002002406A
:103C6000064A0021D16106490A6902231A430A6102
:103C7000486108694022104308617047080300202A
:103C80000020024010B5054B0022DA61044A136996
:103C9000012423431361018010BD000008030020AC
:103CA0000020024010B50B4A0020D168CB060A491B
:103CB00004D5C86902231843C8611020D3685B0784
:103CC00005D5CB6901242343CB6104210843D0608F
:103CD00010BD0000002002400803002070B505461A
:103CE00001F0E2F80646104C0AE0681C08D0002DEE
:103CF00004D001F0D9F8801BA84201D9032070BD7F
:103D0000E068C007F1D1E068800601D52020E060BE
:103D1000E068C00602D4E068400703D5FFF7C2FFA1
:103D2000012070BD002070BD00200240F8B52A4A75
:103D3000014640001746105A0C378E00BC59002827
:103D40001AD02649884217D2FDF760FA0B21C943E1
:103D5000FDF760FA224903F009FE054641002148BB
:103D60004908814208DB29461D4803F08FFE4100C7
:103D70001C484908814201DA2046F8BD2846FDF773
:103D800001F9194A194BFCF74FFD194A194BFCF779
:103D90004BFD194A194BFCF717FDFCF75BFB054679
:103DA00001467F20C00503F071FE009014492846AB
:103DB00003F0DCFD0099FDF70FF905461149204697
:103DC00003F0D4FD04461049284603F0CFFD2146F8
:103DD00003F086FDB851F8BD34000020FF0F00004D
:103DE0003333534017B7D138CDCCCCCCCCCC1840E2
:103DF000C1CAA145B6F30340771B8AF150CACD3F33
:103E000000803B456666663FCDCCCC3D78B5002250
:103E10000E4B4C1E15E0551CA5420ADCD5182E8809
:103E20006D462E802D7885546D466D788618757098
:103E300005E0D5182E886D462E802D788554921C6D
:103E400092B28A42E7D3012078BD000000920008B8
:103E5000F3B585B00D4600F031FC00200121174F6D
:103E60000190039100900297694601A800F08EFB33
:103E7000002818D100246E1E1AE0601CB04205987C
:103E800005DC0019407801020598005D02E0015D43
:103E9000FF200002081882B20023E119012000F07F
:103EA000CFFB002802D0002007B0F0BDA41CA4B2B4
:103EB000AC42E2D300F0BAFB0120F5E70092000823
:103EC000F8B5054604462035287D0026012808D08F
:103ED00001202875206881688907890F012908D188
:103EE00001E00220F8BD0168C9073CD1C16809049E
:103EF00039D4A16BFF220132914302221143A16305
:103F0000C1688907890F0091C16889088900C1606B
:103F10002068816892071143816000F0C5FF074661
:103F200012E000F0C1FFC01B02280DD92068806894
:103F3000002809DAA06B0221884310210843A063FE
:103F4000002028750120F8BD206880680028E8DB83
:103F50002068C168009A1143C160A06B800880008E
:103F6000401CA06304E0A06B20210843A06301264D
:103F7000002028753046F8BDF8B5002504462034E9
:103F80000095227D012A39D00122227503689E689E
:103F9000760767D4384F4E68BE424DD09E6A0F7880
:103FA000BA4016439E620123C26A1B079A421FD081
:103FB000012A1DD0022A1BD0032A19D0042A17D0A7
:103FC000052A15D0062A13D0072A11D002688B685B
:103FD00056697607760FB3420AD05369DB08DB00D7
:103FE0005361006842690B7A5B075B0F1A434261B9
:103FF0000A68102A04D0112A02D038E00220F8BD45
:104000001E488368102A07D001229205134383605B
:104010000868102803D02AE00122D205F6E71948E3
:1040200017490068FCF766F90A21484300E0401E82
:1040300000900028FBD11AE0986A0E78B2409043B5
:1040400098620968102901D0112910D10B488268A3
:10405000102904D0012189058A43826007E00121EB
:10406000C905F9E7816B20221143816301250020F6
:1040700020752846F8BD000001100000002701400F
:1040800040420F000C000020704770477047F8B5A1
:104090000446006805684668690701D5710703D4BE
:1040A00029072ED531072CD5A16BC90604D4A16BE5
:1040B000012252021143A163C1680C270905890F2F
:1040C000002919D1A17E002916D1290714D58168AC
:1040D0004A070121002A08DB4268BA434260A06B0C
:1040E0000A0290430843A06306E0A06B202210431D
:1040F000A063E06B0843E0632046FFF7C5FF20683C
:10410000076028060CD530060AD5A06B01210904EA
:104110000843A063204600F0D7F82168802008609B
:10412000E80614D5F00612D5A06A1025012803D0A0
:104130002068C068C00708D0E06B02210843E06334
:10414000206805602046FFF7A1FF20680560F8BDE4
:10415000F8B500260446002805D0A06B254620357A
:10416000002802D007E00120F8BD0020E063287598
:10417000204600F0ABF8A06B1022C006002870DBD0
:104180002068816849076CD4A16B1301994302230D
:104190001943A16381688907890F012905D1016845
:1041A000C9070FD1C16809040CD4C1681823994309
:1041B000A3681943C16020680169636889008908A0
:1041C000194301612068C1683D4B1940C160207EE0
:1041D000617E8003C9030843A17E4B031843A36A91
:1041E000012B02D001231B0300E000231843E368E6
:1041F00018432369022B09D0002318432B79E57E4D
:104200005B0018430123012D02D00AE00423F4E7E8
:10421000002927D0A16B20252943A163E16B194315
:10422000E163E1690D46FF3DC23D02D0256A2943A5
:1042300008432168CD680543CD600125E16A2D075B
:10424000A94213D0012911D002290FD003290DD082
:1042500004290BD0052909D0062907D0072905D044
:1042600010E028E0012109040843DAE721684D69DC
:10427000ED08ED004D6121684D69A78D7F077F0F27
:104280003D434D612168C9680E4D2940814207D1E7
:104290000020E063A06B80088000401CA06308E061
:1042A000A06B022188431043A063E06B1843E063D6
:1042B00001263046F8BDA06B1043A063F8E700006C
:1042C0001902FEFFE7FF3F837047000070B586B01C
:1042D000054614216846FCF70BF8204928688842F7
:1042E00039D11F498A69401502438A618A690240AF
:1042F00005924A69000202434A6149690026014069
:10430000059106200090032001900920694602963D
:10431000C00600F0EBFC1348134C41C4802026601B
:1043200060604000A0608000E0602020206100020A
:1043300060610D48083C00F0B7F8002801D0FFF795
:104340007BFC2C63002211460C20656200F00CFE01
:104350000C2000F0FDFD06B070BD000000240140FF
:10436000001002400800024018010020F7B5044682
:1043700000680025806840073DD426462036307D01
:1043800001280AD001273775607E012807D0204612
:10439000FDF7E6F8050002D02EE00220FEBDA06B7E
:1043A00016490840FF2101310843A0630020E06363
:1043B0003075216B12488862216B1248C862216BEC
:1043C0001148086321681C20086020684168102299
:1043D000114341602068C1683943C1602168206B86
:1043E0004031029B019A00F089F82068816804221C
:1043F0001143816000E002252846FEBDFEF1FFFF6B
:10440000D1140008571500083D150008F0B4C16B21
:104410000D6801680C680422066C1346B3402B42F9
:104420000DD063070BD50B689B0602D40B68934332
:104430000B60016C8A40C16B4A60C16A19E00227B7
:10444000B74002462F4001232032002F15D0A70786
:1044500013D50C68A40604D40C680A25AC430C6080
:104460005370036C02219940C36B59600021117095
:10447000816A002916D0F0BC08470827B7402F42B0
:1044800010D024070ED50C680E25AC430C60046CCC
:104490001946A140C46B61608363537000211170A1
:1044A000016BE6E7F0BC704770B5040021D0022133
:1044B0002046203005464170226811680E48A368E6
:1044C0000140606826691843E36833431843636911
:1044D0001843A3691843E369184308431060204652
:1044E000FDF73EFC0021A163012068702970084699
:1044F00070BD012070BD00000FC0FFFFF8B504467D
:104500008C46203001780025012909D0012606704B
:1045100041780027012905D0077002252846F8BDFB
:104520000220F8BD02214170A76320680168490894
:104530004900016061462046FDF724FCE06A00283E
:104540002068016802D00E22114306E00A221143BE
:1045500001602068016804229143016020680168BD
:1045600031430160DAE7000070B5044600F09CFCBE
:104570000546601C02D004480078241800F094FC22
:10458000401BA042FAD370BD00000020F8B50546DC
:1045900023480F46017E012601290BD00121017617
:1045A0002868204C012807D02046FFF797FB0028F9
:1045B00013D030E00220F8BD2046FFF78FFB002823
:1045C00029D1FFF73BFB2046FFF788FB064616483C
:1045D00001690422914301611DE00020C04338605D
:1045E0006C6812E02046FFF73BFB0E48FFF776FBB6
:1045F00006460D48026902218A430261002E01D05D
:104600003C6008E0012080022418A86881026868E4
:104610000818A042E6D80248002101763046F8BDCD
:104620000803002050C30000002002400348016935
:1046300080221143016100207047000000200240E9
:10464000F0B51FB407461A480024017E15461E46E1
:10465000012907D0012101761648FFF73FFB00280A
:1046600003D020E0022005B0F0BD012F02D0022FC0
:1046700000D00427220128463146FBF789FD81B28C
:10468000019862001018FFF7FDFA0A48FFF726FBB1
:1046900009490A69520852000A61002803D1641CC2
:1046A000E4B2BC42E6D3024900220A76DBE700000E
:1046B0000803002050C300000020024006490020EB
:1046C0000A69120607D5054A4A60054A4A6009691F
:1046D000090600D5012070470020024023016745EC
:1046E000AB89EFCDF1B5F848012701880098BE07E6
:1046F000F64D81421AD1F448018B491C01830221F5
:104700008176F3498978032901D0F1498F70EE4809
:104710004188406800F0BCFBEE4C002807D0EA4816
:104720004188406800F0B4FB01286ED03DE1E848C4
:10473000417B002945D0807B002806D001280CD081
:10474000022813D0032834D02FE1607E401CC0B271
:1047500060760228EAD90020CCE0DF48C17D491C00
:10476000C9B2C1750229E1D90021CCE0608B7D215D
:10477000643000B249016083884200DD61831A2100
:10478000615E0420205EFF39F539814202DAD348A8
:10479000A1800770D24A00200C24034663439B1873
:1047A0005C68A14200DA5960401CC0B20928F3D904
:1047B000CFE0207E401CC0B220760128B6D9002070
:1047C000CFE0C84909684900090E0BD0C648017AF4
:1047D000491CC9B20172092900D9077202F004F913
:1047E000C048E1E0C0490A78002A0FD08878401C10
:1047F000C0B28870082800D98F708878CA78904233
:1048000001D3421CCA700872CBE061E080780128B5
:1048100002D0032832D0C8E0AB48007CFCF7F6FC9D
:10482000A949496903F0FAF812D20420205E7D21DB
:10483000C900884201DA401D15E00A21FBF764FD3A
:10484000002902D07D20C000A080A0880A300AE0A4
:10485000A0880A21143000B2A080FBF755FD002982
:1048600002D07D20C000A0801A20205E0421615E5D
:10487000FF38F53881426FDC9C4895E0924C207CF3
:10488000FCF7C4FC616903F0C9F899482C680DD2A3
:10489000844201DA641D15E03C212046FBF734FD1B
:1048A000002901D092482EE13C340BE0844201DA29
:1048B0001E3407E03C212046FBF726FD0029F1D1FC
:1048C000FF342D348B482C608442ECDC8A486BE04A
:1048D0007F49487B002848D0887B002806D00128E3
:1048E0000CD0022813D0032837D05EE0607E002869
:1048F00002D0401E607658E00220FBE77648C17D7A
:10490000002902D0491EC1754FE00221FBE7608BF0
:10491000643801B2FF20F5306183814200DA6083A0
:104920001A21615E0420205EFF39F539814202DAE6
:104930006A48A18007706A4A00200C24034663433A
:104940009B185C68A14200DA5960401CC0B209287B
:10495000F3D96A48077028E097E0207E002802D04B
:10496000401E207621E027761FE05E480068400068
:10497000000E5D4809D0017A491E0906090E017230
:1049800000D02BE70921017228E70278002A3AD0EB
:104990008178491E0906090E817001D108218170B4
:1049A000017202F021F85648066047480099828C4F
:1049B0008A4273D1818F0446491C818702212034A9
:1049C000A17743498978032902D0414A0221917095
:1049D0003D48C18C806A00F05BFA002871D03A4FE4
:1049E000F98CB86A00F054FA012857D13D480068A4
:1049F0004000000E3C4865D0017A491E0906090EA8
:104A0000017260D08EE0887801280FD00328CCD1C5
:104A10002D4C207CFCF7FAFB616902F0FFFF344863
:104A20002C683ED2844232DC641F46E02648007C7B
:104A3000FCF7ECFB2449496902F0F0FF13D2042093
:104A4000205E7D21C900884201DA401F09E00A2169
:104A5000FBF75AFC002902D07D20C000A080A0886E
:104A60000A38A0800BE0A0880A21143800B2A08088
:104A7000FBF74AFC002902D07D20C00005E004209D
:104A8000205E002800DDF7E60020A080F4E63C214F
:104A90002046FBF739FC002901D003E744E03C3C09
:104AA0000BE0844201DC1E3C07E03C212046FBF782
:104AB0002BFC0029F1D1FF3C2D3C2C60002C21DB8C
:104AC00004E722E0A0E09CE028030020BC040020D2
:104AD0007804002088040020A40400209D00002009
:104AE0008C03002084000020C80400208C000020DB
:104AF000100E0000C0A8000090000020B0000020B0
:104B00009400002000202860E0E66748006840002C
:104B1000000E664809D0017A491CC9B20172092900
:104B200000D9077201F060FFF8BD0178002913D0A9
:104B3000C178491CC9B2C170092901D902216DE0AF
:104B4000CAB281788A4201D8491CC170C178017209
:104B500001F04AFF564852E0564864278078022800
:104B60000FD00328E0D1207DFCF750FB5249896B20
:104B700002F054FF514F2C682FD2BC4223DA641D3F
:104B800037E0207DFCF742FB4B49896B02F046FF82
:104B900008D24B4841880A3109B241800A2908D11C
:104BA000478064E0464948881E3000B248801E288D
:104BB00007D043480222825E42498A4257DD418043
:104BC00055E04F8053E03C212046FBF79DFB002938
:104BD00001D02F6066E03C340BE0BC4201DA1E34A9
:104BE00007E03C212046FBF78FFB0029F1D1FF3481
:104BF0002D3435482C60844254DD286052E0066034
:104C0000F8BD092101728DE70178002908D0C1782B
:104C1000491EC9B2C170022992D20921C1708FE721
:104C20002448807802280ED00328E9D1207DFCF7A3
:104C3000EDFAB96B02F0F2FE204F2C6821D2BC4293
:104C400017DC641F29E0207DFCF7E0FAB96B02F065
:104C5000E5FE1B48418801D20A3900E01E39418037
:104C600017480221415E322901DA0021A7E71748DF
:104C7000C5E73C212046FBF747FB0029A9D13C3C76
:104C80000BE0BC4201DC1E3C07E03C212046FBF768
:104C90003BFB00299DD1FF3C2D3C2C60002C01DA10
:104CA0000020AAE70A48AAE784000020C8040020E0
:104CB000980000207804002028030020100E000037
:104CC000A4040020DC050000C0A80000880000202B
:104CD0009000002010B504494A69024202D04861A0
:104CE000FFF700FD10BD000000040140F8B50023EF
:104CF00003240125BAE02E469E40B44632407CD0C3
:104D00000E79B607B60F012E01D0022E17D1866894
:104D10002746B6465E00B74000967646BE43B64686
:104D2000CF68009EB740764637438760466867463F
:104D3000BE430F79FF06FF0F9F40374347600E7950
:104D4000F643B6070ED0C6682746B4465E00B646A0
:104D5000B7406646BE43B4468F687646B74066465F
:104D60003743C7600E79B607B60F022E14D1DE089E
:104D7000B60036180096366A5F07B446FE0E0F2757
:104D8000B646B7406646BE43B4460F697646B7405E
:104D900066463743009E376206682746B4465E0083
:104DA000B646B7406646BE430F79B446BF07BF0F4D
:104DB0007646B7406646374307604E68B603B60F7F
:104DC00053D02D4FBE692E43BE61BE699F08F607C2
:104DD000F60F2A4EBF00BE190096B6680F27B446DC
:104DE0009E07360FB646B7406646BE430927FF0604
:104DF000B446B84202D1002710E036E0204FB84256
:104E000001D101270AE01F4FB84201D1022705E076
:104E10001D4FB84201D1032700E005277646B74071
:104E200066463743009EB760184EB6684F68964393
:104E3000FF0200D51643154FBE60FE684F689643CB
:104E4000BF0200D51643114FFE607E684F6896433F
:104E5000BF0300D516430D4F7E603E684F689643F2
:104E6000FF0300D51643094A16605B1C0A68164604
:104E7000DE4000D03FE7F8BD0010024000000140D6
:104E80000004004800080048000C004800040140ED
:104E90000069084000D001207047002A01D08161DC
:104EA00070478162704700000148806870470000C9
:104EB00000000020024881680278891881607047EC
:104EC0000000002010B5064801681022114301605F
:104ED000002000F007F800F027F8002010BD0000C7
:104EE0000020024070B504460D4D7D202978C00099
:104EF000FBF700FA01460B480068FBF7FBF900F0EE
:104F0000A9FA002809D1042C07D200222146401E0C
:104F100000F02AF800206C6070BD012070BD000018
:104F2000000000200C00002008B50848816901221B
:104F300011438161816911400091C26901040A43F2
:104F4000C261C0690840009008BD00000010024026
:104F5000002805DBC106C90E012088400149086010
:104F60007047000000E100E010B502F079FA10BDD2
:104F7000F8B50F46060059D03A4D2868C007C00F53
:104F8000B84209D2286840084000384328602868A1
:104F9000C007C00FB84249D13068334C81070CD5E7
:104FA000400704D560680721090208436060606813
:104FB000F0218843B168084360603078C00726D08C
:104FC000706801280ED0216802280ED089070029B8
:104FD0002CDA61688908890001436160FFF764FF8A
:104FE00000900DE021688903F1E78901EFE7FFF701
:104FF0005BFF0099411A1D48814201D90320F8BD89
:1050000060680C210840716889008842EFD12868E7
:10501000C007C00FB8420BD9286840084000384389
:1050200028602868C007C00FB84201D00120F8BD31
:105030003078400706D56068072109028843F16887
:105040000843606000F018F86168094A0906090F12
:10505000515CC840074908600020FFF743FF00206B
:10506000F8BD00000020024000100240881300003C
:105070007C7B00080C00002010B5104A51680C2001
:105080000B4603400E48042B17D0082B15D18B027A
:105090000C4C1B0FE45CD26A0A4B1207120F103340
:1050A0009A5CC90305D500231946FBF782F821460F
:1050B00001E02046044902F0ADF910BD00100240A5
:1050C00000127A005C7B000800093D00FEB5040078
:1050D00070D02078DC4DC0074AD068680007800F88
:1050E000012807D068680007800F022809D1686886
:1050F000C00306D5286880033AD560680028E7D049
:1051000036E06168012914D001208004002901D013
:10511000052914D02A68012109048A432A602968D4
:10512000814329606068002816D0FFF7BDFE06465F
:105130000EE028680121090408432860F2E7296885
:1051400001432960F5E7FFF7AFFE801B64286ED8A6
:1051500028688003F7D50BE0FFF7A6FE064604E0BB
:10516000FFF7A2FE801B6428F1D828688003F7D4DB
:1051700020780126800700283CDA68680007800F45
:1051800007D068680007800F022809D16868C0034B
:1051900006D42868800716D5E06801280AD112E0F5
:1051A000E0680028286816D030432860FFF77CFEAE
:1051B000074605E043E1FFF777FEC01B0228C6D88B
:1051C00028688007F7D52868F82188432169C90035
:1051D000084328600EE0400840002860FFF764FEA6
:1051E000074604E0FFF760FEC01B0228AFD828681E
:1051F0008007F7D42078000722D5E0690028686A84
:105200000ED030436862FFF74FFE074604E0FFF719
:105210004BFEC01B02289AD8686A8007F7D50FE0BA
:10522000400840006862FFF73FFE074605E09DE04A
:10523000FFF73AFEC01B022889D8686A8007F7D4B6
:10524000207804274007002860DA00200190E869F0
:10525000C00008D4E969B8060143E961E969014081
:1052600001200091019079480168C90511D40168B5
:10527000821511430160FFF717FE009005E0FFF76C
:1052800013FE0099401A642870D870480068C00561
:10529000F5D5A06801280AD0002801D0052810D033
:1052A000286A400840002862286AB84301E0286A5A
:1052B00030432862A068002812D0FFF7F5FD009067
:1052C0000AE0286A38432862F1E7FFF7EDFD00990C
:1052D000411A5F48814249D8286A8007F5D50DE018
:1052E000FFF7E2FD009006E0FFF7DEFD0099411AAE
:1052F000574881423AD8286A8007F5D40198002897
:1053000004D0E969012000078143E9612078C006E3
:1053100035D5606901280CD0401D686B23D0384317
:105320006863686B400840006863FFF7BDFD064690
:1053300022E0686B38436863686B30436863FFF74B
:10534000B3FD064604E0FFF7AFFD801B02285BD8E3
:10535000686B8007F7D5686BF8218843A169C9009D
:10536000084368630BE0B8436863F4E74CE0FFF779
:105370009BFD801B022847D8686B8007F7D4206A02
:1053800000285ED069680907890F022942D00126EA
:1053900036060228286805D0B0432860FFF784FD50
:1053A000044633E0B0432860FFF77EFD074604E083
:1053B000FFF77AFDC01B022826D828688001F7D4A1
:1053C000E86AE16A000900010843E862616AA06ACC
:1053D000084369683D2212049143084368602868C5
:1053E00030432860FFF760FD044604E0FFF75CFDF2
:1053F000001B022808D828688001F7D521E0FFF7B4
:1054000053FD001B022801D90320FEBD286880013E
:10541000F5D416E00128F8D06868E96A0122120480
:10542000636A02409A420AD10907E26A090F91426F
:1054300005D10F2189040840A16A884201D00120CA
:10544000FEBD0020FEBD00000010024000700040C4
:1054500088130000094910B5401E884201D9012077
:1054600010BD074C60610321081F01F0F9FF002007
:10547000A06107202061002010BD0000FFFFFF0099
:1054800000E000E07047704730B5034620331A7FD4
:10549000012A26D001221A770325CA682D02AA43C1
:1054A0008D6800242A430125AD02AA434D68006897
:1054B0002A430125ED02AA430D682A4301252D0345
:1054C000AA430D692A4301256D03AA434D69C969A1
:1054D0002A430125AD03AA430A4342641C770020F6
:1054E00030BD022030BD0000F0B502462032137FEF
:1054F000012B1ED0012515770223537706687468A7
:10550000B3687027BC430F682743776000680A4C74
:10551000A04205D0094CA04202D0094CA04204D1BF
:1055200080244968A3431943816055770020107790
:10553000F0BD0220F0BD0000002C0140000400403E
:105540000040014070B5040005D025462035687F35
:10555000002802D006E0012070BD002028772046F8
:1055600000F014F802206877211D206801F058FC33
:1055700001204034A071A877E87720706070A07097
:10558000E070207160716877002070BDF8B5054645
:1055900025490068234B8A15984206D1C8691043F3
:1055A000C861C86910400090F8BD204B984210D1E6
:1055B0008A690120000402438A618969002201404E
:1055C000009111461420FFF7CFFC1420FFF7C0FC18
:1055D000F8BD174B9842FBD18B690120800403432F
:1055E0008B618969144C01400091124820601020A1
:1055F0006060234600208021083307C3C9008E0065
:10560000E6616161A0612046FEF74EFF002801D0EF
:10561000FEF712FB09480168314301606C622C629D
:105620006562F8BD002000400010024000400140CB
:10563000004801401C000240C4020020000001405C
:10564000014620314A7F012A01D001207047022201
:105650004A770268D36801210B43D3600068094A86
:10566000904205D0084A904202D0084A904204D1A4
:1056700082685207520F062A02D002680A4302606B
:1056800000207047002C0140000400400040014011
:10569000F8B5054604462035287F0026012817D096
:1056A0000120287702206877226890687727FF23F7
:1056B000B8431B02984390600868502838D00EDC2D
:1056C00020284FD006DC00284CD010281ED149E0FD
:1056D0000220F8BD302845D0402817D13AE0602894
:1056E0002ED0702819D001221203801A0FD09042B8
:1056F0000CD1CB684A688968206801F0E2FB206819
:105700008168012292031143816000E0012601209B
:105710006877002028773046F8BDCB684A688968EA
:10572000206801F0CEFB2168886838438860EEE786
:10573000CA684968206801F0D3FC5021206806E05F
:10574000CA684968206801F005FD6021206801F001
:10575000C3FBDCE7CA684968206801F0C1FC40214E
:105760002068F4E7226801461046F0E710B5054AC4
:105770000168914204D1007F012801D101F016FB9C
:1057800010BD0000002C0140F8B50446002026465C
:1057900020360090307F0D4601280ED00120307752
:1057A000002A0CD0042A19D0082A2AD00C2A4ED05C
:1057B0000090002030770098F8BD0220F8BDEB681B
:1057C00006CD083D206801F09DFC206882690C210F
:1057D0008A43826120688169AA680FE0EB6806CD80
:1057E000083D206801F0C9FC20688169032292020B
:1057F0009143816120688169AA6812021143816125
:10580000D7E788CD287921688446086AFF220132CB
:1058100090430862C8690A6A800880003843F0270C
:10582000B84367463F073F0E0743052040028243C7
:105830000A20034018021043CF6108622068C16942
:105840000C229143C1612068C1692A682CE02B6851
:1058500020689E466F682B7B016ABC4601221203BA
:1058600091430162C169026A03273F02B943674657
:105870003F020F430F2109038F431907090C05232A
:1058800039435B039A4373460A273B401B03134388
:10589000C16103622068C269032189028A43C2612F
:1058A0002068C169AA6812021143C16181E770B51D
:1058B000040005D025462035687F002802D006E088
:1058C000012070BD00202877204600F015F8022046
:1058D0006877211D206801F0A3FA01204034A071EF
:1058E000A877E87720706070A070E0702071607118
:1058F0006877002070BD000010B586B00446142102
:105900006846FAF7F5FC15492068884223D1144807
:105910008269C1140A43826182690A400592426920
:1059200089010A434261406908400590481200908D
:105930000020022102900390019104910920694600
:10594000C006FFF7D3F9002211460E20FFF70CFB2B
:105950000E20FFF7FDFA06B010BD0000002C01403C
:105960000010024070B50346044600252033403045
:10597000002908D0042909D008290AD0467842799C
:10598000012E0BD108E09E7F8278F9E7DE7FC27896
:10599000F6E706780279F3E7012A01D0012070BD0D
:1059A0000222002909D004290ED0082912D0427001
:1059B00042710C292ED001252AE09A778270206846
:1059C000C3681343C3600CE0DA77C2702068C26812
:1059D000042304E0027002712068C26808231A439D
:1059E000C2600122206801F05FFA0C4A20680121A0
:1059F000904205D00A4A904202D00A4A904204D10D
:105A000082685207520F062A02D002680A430260D7
:105A1000284670BD2068C2681023E0E7002C0140D2
:105A2000000400400040014070B504460068016970
:105A30000025C9438907002915DBC168C9438907C7
:105A400011D4E91E01610120207720688069800758
:105A5000204602D0FFF78AFE04E000F0E3F820467B
:105A600000F080F9257720680169C943490717D4F8
:105A7000C168C943490713D40421C9430161022005
:105A80002077206880698005800F204602D0FFF7CC
:105A90006DFE04E000F0C6F8204600F063F92577BB
:105AA00020680169C943090716D4C168C9430907B9
:105AB00012D40821C9430161042020772068C069FD
:105AC0008007204602D0FFF751FE04E000F0AAF85C
:105AD000204600F047F9257720680169C943C906C7
