:020000040800F2
:10000000100E002059010008055900087150000821
:1000100000000000000000000000000000000000E0
:10002000000000000000000000000000755A0008F9
:100030000000000000000000255A0008A55A000832
:100040006B010008000000006B0100086B01000854
:100050006B0100086B0100086B01000819310008F2
:1000600000000000F51B0008051C00086B010008DB
:10007000C51200086B010008995C00080000000030
:100080006B0100086B010008000000006B01000814
:10009000215C00086B0100086B0100086B0100087F
:1000A0006B0100086B0100086B0100086B01000880
:1000B0006B01000800F002F800F03EF80CA030C818
:1000C000083824182D18A246671EAB4654465D46D4
:1000D000AC4201D100F030F87E460F3E0FCCB64660
:1000E0000126334200D0FB1AA246AB4633431847E1
:1000F0000C7E00002C7E0000103A02D378C878C134
:10010000FAD8520701D330C830C101D504680C6059
:10011000704700000023002400250026103A01D378
:1001200078C1FBD8520700D330C100D50B607047AF
:100130001FB51FBD10B510BD01F062F81146FFF7E5
:10014000F7FF06F0C3F801F07AF803B4FFF7F2FF07
:1001500003BC01F0AFF8000007488047074800479C
:10016000FEE7FEE7FEE7FEE7FEE7FEE70448054997
:10017000054A064B70470000CF5B0008B500000839
:1001800010080020100E0020100A0020100A002085
:1001900010B5202A04DB0846203AD040002110BDCB
:1001A0000B462024D340D040A21A91400843194660
:1001B00010BDFEB5054610460C46184373D0AE463A
:1001C0008C460020AD1A01469C4167D36646002745
:1001D00001243D46B61A9D4102D313463A462124D6
:1001E000654676462F04360C3E432D0CB61A9D41CB
:1001F00004D3150C1B042B431204103465467646B9
:100200002F06360A3E432D0AB61A9D4104D3150E19
:100210001B022B4312020834654676462F07360927
:100220003E432D09B61A9D4104D3150F1B012B43E4
:100230001201241D65467646AF07B6083E43AD0859
:10024000B61A9D4104D3950F9B002B439200A41C2A
:1002500065467646EF0776083E436D08B61A9D411F
:100260001AD392185B41641C16E000187646654666
:100270004941B71A9D410191009009D36046B11AD6
:1002800098418E468446009801990025401C69419A
:10029000DD0752082A435B08641EE6D572466346B2
:1002A00003B0F0BDFFE700200146C046C0462A4625
:1002B0002346F5E701E004C0091F0429FBD28B07A0
:1002C00001D50280801CC90700D002707047002948
:1002D0000BD0C30702D00270401C491E022904D370
:1002E000830702D50280801C891EE3E70022EEE727
:1002F0000022DFE7002203098B422CD3030A8B4242
:1003000011D300239C464EE003460B433CD400220D
:1003100043088B4231D303098B421CD3030A8B421F
:1003200001D394463FE0C3098B4201D3CB01C01AED
:10033000524183098B4201D38B01C01A52414309B8
:100340008B4201D34B01C01A524103098B4201D3A6
:100350000B01C01A5241C3088B4201D3CB00C01A13
:10036000524183088B4201D38B00C01A524143088B
:100370008B4201D34B00C01A5241411A00D20146B0
:100380005241104670475DE0CA0F00D04942031049
:1003900000D34042534000229C4603098B422DD398
:1003A000030A8B4212D3FC22890112BA030A8B4240
:1003B0000CD3890192118B4208D3890192118B428F
:1003C00004D389013AD0921100E08909C3098B4214
:1003D00001D3CB01C01A524183098B4201D38B0157
:1003E000C01A524143098B4201D34B01C01A5241FA
:1003F00003098B4201D30B01C01A5241C3088B423F
:1004000001D3CB00C01A524183088B4201D38B0029
:10041000C01A5241D9D243088B4201D34B00C01AB3
:100420005241411A00D20146634652415B101046C8
:1004300001D34042002B00D54942704763465B1010
:1004400000D3404201B50020C046C04602BD7047FF
:10045000704770470246C80FC00781434B0030B554
:100460004B405B009B0D20D01923DB06C9180123EC
:100470001B05994220DB0324A40704251346AB4047
:100480000BD3002B04D1EB0613409B00E34204D4B2
:1004900001246407002312195941FF231B059942C7
:1004A0000BD2C9000143500F09E0CB0204D5014330
:1004B0000803024305D0054830BDFF21C9050843A4
:1004C00030BD084607210905884330BD0000C07FC4
:1004D000F0B50C46871A9C410D46861A9D4103D201
:1004E000C01BA141D21963410D0D1F0DC94EEC1B5C
:1004F000AE435CD07F057F0D0026002F51D02D0527
:10050000AC46A943DD020123ED0A1B051D43202350
:100510001B1B24D41746E740381871412F46E7408B
:10052000CC199D402818314661410C0D27D16144FA
:100530009A4013D50023401C594152000ED1400867
:10054000400001224B005205D34207D3052040074B
:10055000C14201D5B04900E0B0493046F0BD6B0062
:10056000002A00D001229A181F23203C1B1B01D512
:10057000002302E0E540281871410C0DD7D001247A
:1005800024050919C407CD0740084908E40F28438A
:100590006144002CD5D00024401C61419A40D0D148
:1005A000CDE76A05520DD9D1C90FC907D5E79C4DD2
:1005B0004E00002801D0012400E0002434195F001F
:1005C000002A01D0012600E00026BE19954FAC425A
:1005D0000CD8AE420AD8B44206D001256D05EC42D3
:1005E000BCD010461946F0BD9942FCD000203946D7
:1005F000F0BDF0B51FB40C460F46811A9F41254649
:10060000861A9D4106D20125ED076F40401ABC4174
:1006100052187B41210D1E0D8D1BAC467D4D8D4327
:100620007ED075056D0D7CD00D05AE46AC431B0329
:100630001B0B794D52429D41202366469B1B14D3D0
:100640001746F740381800260090744160462F4640
:100650000741E41900989D402818664116D4714658
:1006600071189A4025D5012320E093182A466A4143
:100670005200002B00D0521C1E23203E9B1B002B3F
:1006800061DD3541EE1728186641E8D5001876413E
:100690005B1C9A4000D3401C4B05F3181524E34023
:1006A00010D3002B52D071467118D30FC01802D34B
:1006B000491C05B0F0BD0123DB079A42F9D140087F
:1006C0004000F6E701225205B21801D1002853D0AC
:1006D0000123CC0ADB029943891E002A08D1020CAF
:1006E00003D0020C0004103902E002460020203939
:1006F0000023550B05D112020823550B01D15201DD
:100700000D23550C01D112011B1DD50C01D19200F6
:100710009B1C150D01D152005B1C2025EE1A01E037
:100720002CE022E00546F54015439840CA1AE1073F
:1007300069181305C918002ABBDA032040070818F6
:10074000C10FC9070FE071466118B2E7F107400811
:100750000843711071444A000CD001235B059A4292
:10076000A7D2C90FC9070020A3E74905490D26D123
:10077000002001E00028F4D100219AE7284D66000E
:10078000002801D0012100E0002171185F00002A3B
:1007900001D0012600E00026BE19224FA94210D840
:1007A000AE420ED8B14208D001256D05E94206D00F
:1007B0001946A802414010467BE79C4201D02146E1
:1007C00077E70020394674E710B50C465C4005D544
:1007D0000124E4076340FFF70CFF10BDFFF778FE2C
:1007E00010BD30B40C465C4004D50124E4076340DE
:1007F00030BC6DE630BCFCE670B50124E407614016
:100800000D465D4002D4FFF763FE70BD6340FFF705
:10081000F0FE70BDFF0700000000F0FF0000F07F59
:100820000000E0FF0000F87FF0B5F94D0C091E094B
:100830002C402E402F468BB0A7437DD0B543FCD033
:10084000002E7AD0002CFCD00D465D40ED0F2543E4
:10085000AC1BFF25AD0464190894C502440DC90200
:100860002143500DDC0204430120C007014304432F
:10087000D2020191200C110C00958C4601042346F4
:100880008B430A9161460904E24D8A430991010AAA
:100890007D4449198039097805464D4301266D1874
:1008A000F605751B6943C90C640B891C4C4364181D
:1008B000B5012C1B250C2E04B4434C434D43210C95
:1008C000691889090591009DE90701D00121C9072F
:1008D00004912C4601996708CD072F434C08059DCC
:1008E000E10B4D432D0C29466646754302950D4696
:1008F00045432E46029D7D1BB44100950D465D4348
:1009000001942C0C2F040D465543AE462D0C3D434F
:10091000029503947546049C2D04641B049406D22E
:10092000029C039D641C002675410395029401AC52
:1009300070CC009F7D1B01E03EE162E1B4410904FF
:100940000095079101940599A4086143090C0C4690
:100950004443650BE7040C4666467443A646640BA5
:100960003C43039502947446049DE4042C1B0494B8
:1009700006D2029C039D641C0026754103950294D7
:1009800001AC70CC009F7D1BB44101940C465C43CC
:100990000095650FE7000C465443A646640F3C43A0
:1009A000039502947446049DE4002C1B049406D223
:1009B000029C039D641C002675410395029401ACC2
:1009C00070CC009F7D1BB441AE09AF06049DC900E9
:1009D000AD092F43049DA406AD060495079D34433D
:1009E00069180791059DE10B4D432D0C294666467C
:1009F000754302950D4645432E46029D7D1BB4412D
:100A000000950D465D4301942C0C2F040D46554373
:100A1000AE462D0C3D43029503947546049C2D046F
:100A2000641B049406D2029C039D641C002675413D
:100A30000395029401AC70CC009F7D1BB4410194DE
:100A40008C050694079C890A611800950791019C02
:100A50000599A4086143090C0D464543680BEF0452
:100A60000D46644665436C0B3C43049FED047D1BBF
:100A7000AC4602D20025641C6841009E019D371BD4
:100A800085410846584301950C46460FC50054431E
:100A9000600F28436546E4002C1B02D20025401C51
:100AA0006E41019D3F1AB5412846BD098006284385
:100AB0008446A009BF064E020699A406761807438D
:100AC000079D002068410A99079019430020099B5F
:100AD00000906046FF1913434041E20F64003A431F
:100AE000A4460446D71A8C41A04203D901200090A5
:100AF00020463A46C70F941840416246D20F22431F
:100B0000644664000494009CBE466400D71AA44660
:100B1000044602978C417746002F01D1A04204D9A8
:100B20006046401C8446029A2046C40FA64694188C
:100B30004041049A0546D20F224364466400D31A0A
:100B40008D417146002901D1A84202D928461A4692
:100B5000641C10430122002800D0164361020020CB
:100B6000079B891904465C410223002C02DB4918CB
:100B700013466441089DCE0A2D145D194B05670587
:100B8000E10A2C050D1908993E43C9076940002B5D
:100B900008D0934006D30022761C5141002B01D18E
:100BA000760876001C4A002D43DB154241D0AA434B
:100BB0003FD030460BB0F0BD06180D464D41174CE6
:100BC0007642AC411AD395181C465C41134A6D42DB
:100BD000A24113D3012252054C00D4420AD15C0039
:100BE000D4420BD04B4002D592021143E2E74900B8
:100BF0004908DFE75940C90FC90718E00020084934
:100C0000D8E7054801420DD10342F7D0F2E70000D2
:100C10000000FF07A87500000000F07F0000E0FF63
:100C20000000F87F114859400143C01241400020A4
:100C3000C0E70123089A9B069A4205DC032252076B
:100C40008918C90FC907B5E7052252078918074A4D
:100C50001143D2125140ADE770B515461C4602460D
:100C60000B4628462146FFF7DFFD70BDFFFFFF7FE3
:100C7000F0B58B4C0F09254689B0BD437BD01D09CB
:100C80002646AE43FAD00E465E402740F60F3E435E
:100C9000254071D024012142FBD0FF24AD19A404CA
:100CA0002D1B039501252D05DB02DB0AC9022B4311
:100CB000C90A29431E010901040F130F050121432D
:100CC0001701880B820391432D098C46A90B1E4303
:100CD0008A039543B30B9A0396433F09BA0B9403D7
:100CE000A74302962E467E430497B6464E19D7195F
:100CF0000C460196544305977E43371B7646BF1B2F
:100D00003601B646BE0B361900967646BC04371936
:100D1000009C01D3641C00946400002F01D00126C4
:100D20003443029E049F754366467E4304967600D4
:100D300034196E0034190094029C019E1C196643FC
:100D4000751BAE46069465464519059C05956C4392
:100D5000594375460891691A0191049E0146514311
:100D6000A41B0491611A009C0791E10605D061095A
:100D70000122114302E072E06EE06109089D002744
:100D80002C0A2D066918049D7C412A0A2D06691833
:100D9000019D6241AC0DAD026D185441079A910D51
:100DA000920255196141029A644658435443069B86
:100DB000059A5A43121A131B9A0E9B015B187A412B
:100DC000010B0005C3185141220A200644195A415B
:100DD0009A4200D2491C01204002814203D31523CC
:100DE0000226F64302E014230326F6432020C51A08
:100DF000A9401746AF40DA400A4320460399D8403D
:100E00000914731819055118039A3843D207514031
:100E1000AC4009D00122944006D30022401C51412D
:100E2000002C01D1400840001E4A934212D30122F7
:100E300003989206904207DB0520400709181A48DC
:100E40000143C012414004E0032040070818C10FCD
:100E5000C907002009B0F0BD0020F107FAE7051826
:100E60000C464C4111486D42A04115D394181A46C6
:100E70005A410E48644290410ED301204A00400579
:100E8000824209D35A00824206D35940C90F084A08
:100E9000C90700201143DDE700200649DAE700001A
:100EA0000000FF07FE070000FFFFFF7F0000E0FFDC
:100EB0000000F07F0000F87F70B505464800440D43
:100EC000124B0020002C0AD0634008D09A4206DA68
:100ED0006642B24203DD12054019514170BD002C3B
:100EE00008D0002B09D0C90FC907002AF6DB084A31
:100EF000114370BDC90FC90770BD28460A031043CE
:100F000002D00020034970BD284670BDFF070000D5
:100F10000000F07F0000F87F0121C905012341187E
:100F200042001B06D3185B0E0AD0C1100722D2065E
:100F3000891840075242D14201D5520089187047A2
:100F4000090208D50146002A03D0C10FC9070020B5
:100F5000704710467047420202D000200249704795
:100F6000072109050143F4E70000F87FF0B5FF25EC
:100F70002D04C609C209FF2704462E400137CB09BC
:100F80003E4348402A402B400746002A6BD0002BA6
:100F900069D0AA4267D0AB4265D0002800DA324659
:100FA0000125ED0529432C4309022002090AD21A22
:100FB0004B0C7F24E31A434C000A7C44E35C7D2401
:100FC0002404121914145B00A218884201D3521C85
:100FD00000E0400049420C465C4324115C43DB01C5
:100FE0006415E318040A5C43C502200D0C46444313
:100FF0006419250A5D432303EC0C0D466543000389
:101000000019EB184C42A34201D35B18401CD405D5
:101010002018002B07D05B00C91804D3401C0029FE
:1010200001D1400840003F2189048A4209D3002AA7
:1010300008DC1106090F04D0032149074018C00F2E
:10104000C007F0BD01224100120689187F22520616
:101050009142F6D205214907C84201D59010F0BD52
:10106000FF20C005F0BD002F00DA32461648AA4224
:1010700007D2AB4205D21902090E17D0F80FC007EC
:10108000F0BDFF2563002D06AB42F9D84900A94207
:10109000F6D8AB4201D1A942F2D0A94201D1002138
:1010A00001E061004908D0050843F0BD1102090EB6
:1010B000FBD0FF200243D005F0BD0A460146104692
:1010C00054E70000FE6E00000000C07F0102C21560
:1010D00004D00123DB071943002A0ADB9E239A1A56
:1010E00002D40846D0407047FF22410012069142C8
:1010F00001D900207047C017C04370471F22030C5E
:1011000002D10F2200041CD0030E01D10002083AC4
:10111000030F01D10001121F830F01D18000921E25
:10112000002801DB4000521ED2055118021251184E
:101130001922904004D3491C002801D149084900D4
:1011400008467047C10FC90700D0404201229207EC
:101150001143D3E701218907D0E7000010B5FF2331
:101160001B0644009C421DD84C009C421AD80346E2
:10117000124A0B4307D4401A02D3EFF3008010BD8C
:10118000EFF3008010BD081A06D2EFF300800121B2
:101190009043C907084302E0EFF30080904380F3D7
:1011A000008810BD0D231B041A4204D011460020F4
:1011B00000F006F810BD00F01BF810BD0000009014
:1011C000C80212D54803400F002804D0C803C0430A
:1011D000012188407047EFF30080000100090321DE
:1011E0000907084380F3008870470020704700001B
:1011F00010B5024800F02BF810BD00000000C07FC1
:10120000754600F053F8AE46050069465346C008DF
:10121000C000854618B020B5FEF7A8FF60BC0027C7
:101220004908B6460026C0C5C0C5C0C5C0C5C0C5B2
:10123000C0C5C0C5C0C5403D49008D46704710B50A
:101240000446C046C0462046FEF77FFF10BD10B5DD
:101250000C461107090F092904D00A290AD00829C8
:101260000CD104E011460820FFF7AAFF06E0510662
:1012700006D501E0510601D50120C007214610BD69
:10128000D10607D501010909CC084907000E00065F
:10129000044309E0410F20024907000A0143200EE0
:1012A00000061D22D14101430846E7E70048704788
:1012B000B007002001491820ABBEFEE7260002005F
:1012C0007047000010B5024802F047F910BD000059
:1012D000D000002070B50A4802F058F8094803F021
:1012E000D5FA02220849064802F0A6FA074D002462
:1012F000284604F099FB641CE4B2642CF8D370BD5A
:10130000D00000202C02002044000020CDCCCC3D99
:1013100010B50146406A826B50231A420AD1816B94
:1013200001225202114381630168CA681205920FBB
:1013300005D020E0006B026B0846904710BD827E0E
:10134000002A18D10A68120715D58A6853070122A6
:10135000002B09DB4B680C24A3434B60816B130209
:1013600099431143816306E0816B20231943816314
:10137000C16B1143C16302F0EDF810BD10B5406AB6
:10138000816B402211438163C16B04221143C1630D
:1013900002F0E2F810BD10B5406A02F0DCF810BDB2
:1013A000F8B5044600200090206881688907890FFD
:1013B000012905D10168C90731D1C16809042ED4BA
:1013C0008168184A10261140012500291AD1816828
:1013D00029438160154814490068FEF78BFF00E03F
:1013E000401E00900028FBD102F084FE074611E069
:1013F00002F080FEC01B02280CD920680068C043A0
:10140000C00707D0A06B3043A063E06B2843E063C4
:101410000120F8BD20680068C043C007E8D1002063
:10142000F8BD00001700008040420F000C000020B3
:10143000F8B51B491B4F044688420ADA0025A8006C
:101440003958204604F0A2FF11D36D1CDC2DF6DBC9
:1014500024E01349154E49426018134988420DD2C1
:10146000DC25A8003958204604F090FF02D22C4613
:10147000DC3C13E06D1CB542F3DB0FE00C4DB0001B
:101480003958204604F082FF05D20A204643AF2097
:101490008001341A02E0761CAE42F0DB2046F8BD33
:1014A00000007A4400660008A2153300C40400005E
:1014B0000F060000F8B5374C7F27FF053448E76179
:1014C000A06101F0B9FEFFF73DFE2146283108601A
:1014D00001F0DAFEFFF736FE214628310646486065
:1014E00008460068FFF718FD2B4A2C4BFFF7C0FB9E
:1014F0000B22D243FFF7E0FC294A2A4BFFF794F96D
:10150000294A2A4BFFF790F9294A2A4BFFF75CF941
:10151000FEF7A0FF0546A0602946384604F0F0FF1C
:1015200000902549284604F05BFF0099FFF71EFD57
:10153000A16904F055FF20623046FFF7EDFC164A22
:10154000164BFFF795FB0B22D243FFF7B5FC144A6D
:10155000144BFFF769F9144A144BFFF765F9144A65
:10156000144BFFF731F9FEF775FF0546E060294699
:10157000384604F0C5FF06460F49284604F030FF00
:101580003146FFF7F3FCE16904F02AFF6062F8BD21
:10159000B936803F300000206666666666660A409F
:1015A0003333333333331B40C1CAA145B6F3034051
:1015B000771B8AF150CACD3F00803B45FFB585B00F
:1015C00008461E460F9F0E9C079904F099FFE060A5
:1015D000009032680146104604F002FF2060059832
:1015E0003D464000010E0120C007454000291BD0A8
:1015F0007F20C0050599FFF7B9FC0290216A079882
:1016000004F07EFF029904F0EBFE01460122B0686F
:10161000D207504004F0E4FEA0612846009904F08F
:1016200037FF03D2284609E00020E6E73946E068A4
:1016300004F02EFF01D2384600E0E068716804F043
:10164000CFFE059904F0CCFE616804F059FEFF213D
:10165000C9056060C84201D3002106E0109904F07A
:1016600017FF01D2109900E061686160206804F002
:1016700047FEA16904F044FE60620798206209B049
:10168000F0BD0000F1B51F4C0121C90509276068B4
:101690008E13FF06884204DAA2688A4201DA002229
:1016A00019E04000000E09D001223146384602F010
:1016B0001AFD6168009804F017FF6060A568680073
:1016C000000E0CD02168009804F01AFE0E4920602C
:1016D000884205DA01223146384602F004FDF8BDA1
:1016E00009490A4A494241189142D8D308498842D7
:1016F000F5DB7F21C905284604F002FFA060002029
:101700002060F8BD10000020CDCC4C3ECDCC4C006C
:101710009A99993EF8B5334E8446F078002835D032
:10172000314D01272846C28830482B7D00240168AE
:10173000002B42D07378002B29D0642A26D8054686
:10174000604604F0DDFDB90703C504F0A1FE1DD21B
:10175000254D687D002807D00122D102244802F0DF
:10176000C2FC2C706C7507E001210022C9022048E0
:1017700002F0B9FC2C706F751F481E490160F470AF
:101780001F492C751D48486018480460F8BD687DE5
:10179000002807D00122D102154802F0A4FC2C70C9
:1017A0006C7507E001210022C902114802F09BFC80
:1017B0002C706F75F4702C75F8BD642AFCD8054642
:1017C000604604F09DFD7F21C90528608842F3DD55
:1017D00074700C48F47007700B4807700B48077062
:1017E0002C60F8BD5807002080070020C8000020AA
:1017F00000040048CDCCCC3D140000200000D841AE
:10180000300700209E0000209D0000209C0000204A
:1018100070B50D4C0546A07E002807D0FFF79AFC56
:10182000294604F06DFEFFF751FCA076064C2034EB
:10183000A07F002807D0FFF78DFC294604F060FE4A
:10184000FFF744FCA07770BD20030020F0B52948C5
:10185000294A007A0C2358432549841827480E78D2
:10186000012543780022002E14D0254802268788BF
:10187000865FB7420DD047888780A6600678002E25
:1018800000D002701F48002B057002D01F4E1E486A
:1018900030600A704878002814D01D4802270426BA
:1018A000C75F865FB7420CD0468066600678002E20
:1018B00000D002701348002B057002D0134E12485E
:1018C00030604A708878002810D01248C0C80838A4
:1018D000B74208D046600B48E6600570002B02D086
:1018E0000A4B0948186005488A708270F0BD0000F4
:1018F0009C000020A4070020A40600205807002018
:1019000080070020B0000020CDCCCC3D140000208A
:101910006407002098070020F1B5704E82B0B06ACD
:1019200000904000010E6E483F25877F00242D0661
:10193000002901D0002F01D0B47014E0B1680298E2
:1019400004F0DEFC2946B06088420DDB009804F00C
:10195000D7FDB062B1784000C943B170000E02D12A
:10196000604901200870B4605C48C06A0090400083
:10197000010E5D48867E01D0002E02D0574844708B
:1019800019E05648C168029804F0BAFC5349C8608F
:101990002946884210DB009804F0B2FD4F494F4AB7
:1019A000C86249784000C9435170000E02D14F49C6
:1019B000012008704948C4604848006B009040000E
:1019C000000E03D0002F01D1002E02D04348C47076
:1019D00019E042480169029804F092FC3F4908610D
:1019E0002946884210DB009804F08AFD3B493B4AB7
:1019F0000863C9784000C943D170000E02D13C4948
:101A000001200870354804613448406A0090400065
:101A1000000E03D0002F01D1002E1DD02F480470DE
:101A200044612E4F786B00904000010E31480678DB
:101A30004AD0002E2CD0B969029804F061FC2946E6
:101A4000B861884227DB009804F05AFD7863387942
:101A5000C0433871BC611EE0204E0298716904F0E9
:101A60004FFC294670618842DBDB009804F048FD9A
:101A7000706231784000C9433170000E06D11C49B4
:101A80000120087019490870164908707461C8E788
:101A9000BC617C633C713846BF6B7900090E19D07C
:101AA000002E13D00646C169029804F029FC29468D
:101AB000F061884207DB384604F022FDB06370799C
:101AC000C0437071F461FEBD3C71C3E7C4618463BF
:101AD0004471FEBD4471C461FEBD00006000002081
:101AE000400300209C000020200300209D000020D7
:101AF0009E000020A407002010B5064C216904F0C8
:101B0000FFFB7F21C9052061884202DB0020E080C5
:101B1000206110BD80070020F8B52F4A00255178BC
:101B20002E4C002955D02E4B2E4E5B78012B01D127
:101B3000022901D0D6804AE0216A4B001B0E3FD11A
:101B400013795B1CDBB21371112B01D906231371BE
:101B5000DFB23B0004F07EFB120A0C0E10121416CA
:101B6000181A1C1F2225282B2E303234D68027E04D
:101B7000012324E0032322E0072320E00F231EE0BB
:101B80001F231CE03F231AE07E2318E0FC2316E00D
:101B9000FF23F93313E03F231B0110E03F235B01D8
:101BA0000DE03F239B010AE00E4B7E3B07E00D4B0F
:101BB000FC3B04E00C4B02E00C4B00E00C4BD380F0
:101BC00004F09EFB3F2109062062884200DB25626B
:101BD000F8BDD580FBE70000A407002060000020CE
:101BE00058070020FF0F0000070E00000F0C000038
:101BF0001F08000010B5024801F06EFE10BD000085
:101C00001001002010B5024801F066FE10BD000072
:101C1000BC02002010B50446006805494018142194
:101C2000FEF768FB800020640248E06310BD0000FE
:101C3000F8FFFDBF0000024030B5056C0124AC4048
:101C4000C56B6C60046863604368102B036803D045
:101C500099600068C26030BD9A600068C16030BDA4
:101C6000F0B5244800224178234800293ED001469F
:101C7000098983884C1EA6B2002B31D01D4D0478F3
:101C800002460327D288ED78002C07D0012C09D01A
:101C9000022C16D0032C00D10381F0BD8B420ED351
:101CA0000124047082818A4202D9914201D2491CE6
:101CB0000181002DF1D1018999420FD2F0BD02249A
:101CC000047082818A4203D2914202D9068100E0E7
:101CD0000181002DF2D101899942EFD80770F0BD42
:101CE000002901D00681F0BD0281F0BD0281828110
:101CF0000270F0BD5807002080070020F8B5F748B3
:101D00000C26F74D865FF64F6435002E01DB30461A
:101D100004E030466330632809D270427D21C90057
:101D2000FEF7F2FA0A21FEF7EFFACCB204E07019DE
:101D3000B84201D80A2443E0230004F08BFA0A06D3
:101D40001B1D2426282A31383A41AE4201DD0F22DC
:101D500027E000220F21104604F0ACFA00220E21E9
:101D6000012004F0A7FADD480C26865F002E2EDB4A
:101D7000304636E0002214E00D220F21002004F04E
:101D800099FA0622EBE7092214E0022212E00B2264
:101D900000E00F220F21002004F08CFA0C22DEE775
:101DA00001220F21002004F085FA0A22D7E70F2232
:101DB00000E00B220F21002004F07CFA0E22CEE777
:101DC00000220F21104604F075FA0422C7E73046BE
:101DD0006330632801D20A244DE07019B84207D855
:101DE00070426421FEF790FA0A21FEF78DFACCB218
:101DF000230004F02FFA0A061A1C2325272930375E
:101E00003940632E01DD0F2226E000220F2102203F
:101E100004F050FA00220E21032004F04BFAAF4EDA
:101E20000C20305E00282DDA34E0002214E00D2270
:101E30000F21022004F03EFA0622ECE7092214E00A
:101E4000022212E00B2200E00F220F21022004F0F8
:101E500031FA0C22DFE701220F21022004F02AFAD6
:101E60000A22D8E70F2200E00B220F21022004F003
:101E700021FA0E22CFE700220F21022004F01AFAE5
:101E80000422C8E70A21FEF73FFA0A21FEF73CFACE
:101E9000CCB208E001466331632902D34119B9424B
:101EA00001D84042EEE7230004F0D4F90A060818EE
:101EB0001F2123252C2E30370F2200E000220F2176
:101EC000042004F0F7F90A220E21052004F0F2F9AB
:101ED00082490C20085E002826DA2AE00D220F2114
:101EE000042004F0E7F90622EEE709220FE00222BF
:101EF0000DE00B2200E00F220F21042004F0DAF99C
:101F00000C22E1E70122DAE70F2200E00B220F2189
:101F1000042004F0CFF90E22D6E700220F2104207E
:101F200004F0C8F90422CFE70A21FEF7EDF9CCB29C
:101F300008E001466331632902D34119B94201D84F
:101F40004042F1E7230004F085F90A06083B4244C9
:101F500046484F51535A0F2200E000220F2106201D
:101F600004F0A8F90A220E21072004F0A3F95D4825
:101F7000407800284AD00022F021104604F09AF957
:101F800000227021012004F095F90022F0210220A6
:101F900004F090F900227021032004F08BF9002254
:101FA000F021042004F086F900227021052004F0BD
:101FB00081F90022F021062004F07CF900229CE146
:101FC0000D220F21062004F075F90622CBE7092225
:101FD0000FE002220DE00B2200E00F220F2106206D
:101FE00004F068F90C22BEE70122B7E70F2200E0F7
:101FF0000B220F21062004F05DF90E22B3E7002228
:102000000F21062004F056F90422ACE733480E26CF
:10201000865F002E02D020DB304623E00022F02134
:10202000104604F047F920227021012004F042F903
:102030000022F021022004F03DF92022702103202B
:1020400004F038F90022F021042004F033F92022B2
:102050007021052004F02EF967E1304663306328D3
:1020600009D270427D21C900FEF74EF90A21FEF720
:102070004BF9CCB204E07019B84201D80A244AE006
:10208000230004F0E7F80A061B1D24262831383FF8
:102090004148AE4201DDF0222EE00022F021104640
:1020A00004F008F900227021012004F003F90B4824
:1020B0000E26865F002E35DB30463DE000221BE019
:1020C000D022F021002004F0F5F83022EBE7902236
:1020D0001BE0202219E0B02207E000006407002086
:1020E0008303000060000020F022F021002004F0B3
:1020F000E1F86022D7E71022F021002004F0DAF89E
:102100005022D0E7F02200E0B022F021002004F0BD
:10211000D1F87022C7E70022F021104604F0CAF877
:102120002022C0E730466330632801D20A244DE004
:102130007019B84207D870426421FEF7E5F80A2109
:10214000FEF7E2F8CCB2230004F084F80A061A1C69
:102150002325272930373940632E01DDF02226E080
:102160000022F021022004F0A5F8002270210320B3
:1021700004F0A0F8FA4E0E20305E00282DDA34E08C
:10218000002214E0D022F021022004F093F8302243
:10219000ECE7902214E0202212E0B02200E0F022CE
:1021A000F021022004F086F86022DFE71022F021FF
:1021B000022004F07FF85022D8E7F02200E0B0229D
:1021C000F021022004F076F87022CFE70022F021FF
:1021D000022004F06FF82022C8E70A21FEF794F8E5
:1021E0000A21FEF791F8CCB208E001466331632979
:1021F00002D34119B94201D84042EEE7230004F06E
:1022000029F80A0608171E2022242B2D2F36F0222B
:1022100000E00022F021042004F04CF8502270214C
:10222000052004F047F80E20305E002826DA2AE068
:10223000D022F021042004F03DF83022EFE7902274
:102240000FE020220DE0B02200E0F022F021042077
:1022500004F030F86022E2E71022DBE7F02200E031
:10226000B022F021042004F025F87022D7E70022E4
:10227000F021042004F01EF82022D0E70A21FEF706
:1022800043F8CCB208E001466331632902D3411917
:10229000B94201D84042F1E7230003F0DBFF0A0610
:1022A000080F16181F21282A2C46F02200E00022D1
:1022B000F021062003F0FEFF50221EE0D022F02184
:1022C000062003F0F7FF302217E0902200E02022E2
:1022D000F021062003F0EEFF70220EE0B02200E0B5
:1022E000F022F021062003F0E5FF602205E0102235
:1022F000DEE7F022ECE7B022EAE77021072003F0E6
:10230000D9FF984E3089A84259D97D21C900FDF7DF
:10231000F1FF0A21FDF7EEFF0B0003F09BFF0A50CF
:102320000D141B1D24262D2F31490022F0210620DB
:1023300003F0C0FF2022E0E700220F21122003F06B
:10234000B9FF0A221EE00D220F21122003F0B2FF76
:10235000062217E0092200E002220F21122003F0DA
:10236000A9FF0E220EE00B2200E00F220F21122007
:1023700003F0A0FF0C2205E00122DEE70F22ECE7CC
:102380000B22EAE70E21112003F094FF3089632825
:102390005AD96421FDF7AEFF0A21FDF7ABFF0B0010
:1023A00003F058FF0A520F161D1F26282F31334BFA
:1023B00000220F21122003F07DFF0422E2E70F220A
:1023C000BBE700220F210B2003F074FF0A221EE05E
:1023D0000D220F210B2003F06DFF062217E00922CA
:1023E00000E002220F210B2003F064FF0E220EE01A
:1023F0000B2200E00F220F210B2003F05BFF0C22C9
:1024000005E00122DEE70F22ECE70B22EAE70E21CE
:102410000C2003F04FFF3089092855D90A21FDF718
:1024200069FF0A21FDF766FF0B0003F013FF0A4D59
:102430000F161D1F26282F31334600220F210B2097
:1024400003F038FF0422E2E70F22BBE700220F214E
:102450000D2003F02FFF0A221EE00D220F2110464F
:1024600003F028FF062217E0092200E002220F21D4
:102470000D2003F01FFF0E220EE00B2200E00F22C2
:102480000F210D2003F016FF0C2205E00122DEE7EC
:102490000F22ECE70B22EAE70E21084603F00AFFC1
:1024A00030890A21FDF726FF0B0003F0D3FE0A0F47
:1024B00011444B4D4F515F61636A00220F210D2083
:1024C00003F0F8FE0422E7E70F22C0E70F2200E046
:1024D00000220F21084603F0EDFE0A220E211020F3
:1024E00003F0E8FE204CA078002851D00022F02113
:1024F000122003F0DFFE00227021112003F0DAFE2B
:102500000022F0210B2003F0D5FE002270210C20C8
:1025100003F0D0FE0022F0210D2003F0CBFE0022BC
:1025200070210E2003F0C6FE0022F0210F2003F0E0
:10253000C1FE002253E10F210D22084603F0BAFE2E
:102540000622CBE7092216E0022214E00B2200E06B
:102550000F220F21084603F0ADFE0C22BEE700005B
:102560006407002080070020600000200122B0E7FF
:102570000F2200E00B220F21084603F09BFE0E22E3
:10258000ACE70F210022084603F094FE0422A5E7E1
:102590007089002811D0A84272D97D21C900FDF7A9
:1025A000A9FE0A21FDF7A6FE0B0003F053FE0A69FF
:1025B000252C33353C3E454749610022F02112204D
:1025C00003F078FE20227021112003F073FE002218
:1025D000F0210B2003F06EFE202270210C2003F06E
:1025E00069FE0022F0210D2003F064FE20227021FC
:1025F0000E2003F05FFEFBE00022F021122003F02A
:1026000059FE50221EE0D022F021122003F052FE8B
:10261000302217E0902200E02022F021122003F067
:1026200049FE70220EE0B02200E0F022F0211220DC
:1026300003F040FE602205E01022DEE7F022ECE726
:10264000B022EAE77021112003F034FE708963287C
:102650005BD96421FDF74EFE0A21FDF74BFE0B000E
:1026600003F0F8FD0A5310171E2027293032344C8E
:102670000022F021122003F01DFE2022E2E7FFE7F6
:10268000F022BAE70022F0210B2003F013FE5022C3
:102690001EE0D022F0210B2003F00CFE302217E0C8
:1026A000902200E02022F0210B2003F003FE702294
:1026B0000EE0B02200E0F022F0210B2003F0FAFD42
:1026C000602205E01022DEE7F022ECE7B022EAE724
:1026D00070210C2003F0EEFD7089092855D90A21DC
:1026E000FDF708FE0A21FDF705FE0B0003F0B2FD21
:1026F0000A4D0F161D1F26282F3133460022F021C8
:102700000B2003F0D7FD2022E2E7F022BBE70022F6
:10271000F0210D2003F0CEFD50221EE0D022F0214A
:102720000D2003F0C7FD302217E0902200E02022A8
:10273000F0210D2003F0BEFD70220EE0B02200E07B
:10274000F022F0210D2003F0B5FD602205E01022FB
:10275000DEE7F022ECE7B022EAE770210E2003F07A
:10276000A9FD70890A21FDF7C5FD0B0003F072FD7C
:102770000A0F11181F21282A313335400022F02179
:102780000D2003F097FD2022E7E7F022C0E7F022BA
:1027900000E00022F0210F2003F08CFD50221EE00B
:1027A000D022F0210F2003F085FD302217E0902287
:1027B00000E02022F0210F2003F07CFD70220EE0CB
:1027C000B02200E0F022F0210F2003F073FD602220
:1027D00005E01022DEE7F022ECE7B022EAE7702104
:1027E000102003F067FDF84D286800283FD106E06F
:1027F0000022F0210F2003F05DFD2022EFE7F349D6
:102800008978032933D000220F211A2003F052FDCA
:1028100000220721192003F04DFD00220F2118206E
:1028200003F048FD00220721172003F043FD00229A
:102830000F21162003F03EFD00220721152003F092
:1028400039FD00220F21142003F034FD002207215E
:10285000132003F02FFD00220121082003F02AFDA0
:1028600000228021132003F025FD002289E1E17878
:10287000E1263601002924D000220F211A2003F07E
:1028800019FD00220721192003F014FD00220F2159
:10289000182003F00FFD00220721172003F00AFD86
:1028A00000220F21162003F005FD0022072115202C
:1028B00003F000FD00220F21142003F0FBFC002296
:1028C0004DE1002806D04B27A868FF00B04220D376
:1028D000BF4921E000220F211A2003F0EBFC022265
:1028E0000721192003F0E6FC00220F21182003F035
:1028F000E1FC02220721172003F0DCFC00220F215B
:10290000162003F0D7FC02220721152003F0D2FC89
:102910003DE13B280CD93946FDF7ECFCC0B2030081
:1029200003F098FC0A080A19202224262D2F31389A
:1029300000282FD00F2200E000220F211A2003F0E0
:10294000B9FC05220721192003F0B4FCA868B042A5
:1029500027D3314628E00D220F211A2003F0AAFCCC
:102960000322EFE709220FE002220DE00B2200E034
:102970000F220F211A2003F09DFC0622E2E701221C
:10298000DBE70F2200E00B220F211A2003F092FC5C
:102990000722D7E700220F211A2003F08BFC022226
:1029A000D0E73B280ED93C21FDF7A4FC0A21FDF716
:1029B000A1FC0B0003F04EFC0A080A2027292B2D4E
:1029C0003436383F002836D00F2200E000220F2195
:1029D000182003F06FFC05220721172003F06AFC82
:1029E000A868B0422ED33146FDF784FC084639462C
:1029F000FDF780FCC0B230E00D220F21182003F05B
:102A000059FC0322E8E709220FE002220DE00B2225
:102A100000E00F220F21182003F04CFC0622DBE718
:102A20000122D4E70F2200E00B220F21182003F02F
:102A300041FC0722D0E700220F21182003F03AFCC6
:102A40000222C9E73B2801D8002845D03C21FDF7E8
:102A500051FC08460A21FDF74DFC030003F0FAFB88
:102A60000A06081D2426282A3133353C0F2200E0AF
:102A700000220F21162003F01DFC0522072115203E
:102A800003F018FCA868314688422CD3FDF732FCCD
:102A900008463C21FDF72EFC2DE00D220F211620CB
:102AA00003F008FC0322E9E709220FE002220DE00F
:102AB0000B2200E00F220F21162003F0FBFB062261
:102AC000DCE70122D5E70F2200E00B220F211620C0
:102AD00003F0F0FB0722D1E700220F21162003F0BC
:102AE000E9FB0222CAE73B2801D800284FD03C214D
:102AF000FDF700FC08460A21FDF7FCFB0B0003F084
:102B0000A9FB0A06080F16181F21282A2C460F2297
:102B100000E000220F21142003F0CCFB05221EE070
:102B20000D220F21142003F0C5FB032217E0092218
:102B300000E002220F21142003F0BCFB07220EE06C
:102B40000B2200E00F220F21142003F0B3FB06221A
:102B500005E00122DEE70F22ECE70B22EAE707217E
:102B6000132003F0A7FB01221146082003F0A2FB6B
:102B700080221146132003F09DFBA868B0420DD2BD
:102B8000042204210A2003F095FB00220CE000221D
:102B90000F21142003F08EFB0222E0E70022042123
:102BA0000A2003F087FB082208210A2003F082FB99
:102BB0000848007E00280FD008221146104603F076
:102BC00079FB00220EE00000980700205807002043
:102BD000A08C00006407002008210022084603F0B2
:102BE00069FB80228021072003F064FB012211464B
:102BF000052003F05FFB80221146052003F05AFBFD
:102C0000C048C1490068884201DA012200E0002280
:102C10000121072003F04EFB02221146082003F099
:102C200049FB01221146032003F044FB0122114617
:102C30000A2003F03FFB022211460A2003F03AFB70
:102C4000012211460C2003F035FB802211460E2094
:102C500003F030FBAD4DA879C00701D0102200E091
:102C6000002210211A2003F025FBA879800701D546
:102C7000082200E000220821172003F01BFBA8799E
:102C8000400701D5082200E000220821132003F0AC
:102C900011FBA879000701D5102200E000221021C5
:102CA000132003F007FBA879C00601D5202200E01D
:102CB00000222021132003F0FDFAA879800601D517
:102CC000402200E000224021132003F0F3FAA8790B
:102CD000400601D5802200E000228021142003F06C
:102CE000E9FAA879000601D5802200E000228021BF
:102CF000162003F0DFFAE888C00501D5802200E045
:102D000000228021182003F0D5FAE888800501D53B
:102D1000802200E0002280211A2003F0CBFAE8880C
:102D2000400501D5402200E0002240211A2003F096
:102D3000C1FAE888000501D5202200E00022202108
:102D40001A2003F0B7FA687800280FD028780028F6
:102D500009D0207900285CD00022F021192003F04E
:102D6000A9FA002280E02078002814D00022F02167
:102D7000192003F09FFA00227021182003F09AFA1C
:102D80000022F021172003F095FA0022702116206E
:102D900003F090FA79E07022F021192003F08AFA0A
:102DA00030227021182003F085FA0022F02117202C
:102DB00003F080FA20227021162003F07BFA287A93
:102DC000030003F047FA0A8D8F0C91939597999B16
:102DD0009D1FF021152003F06DFA50225BE0D022F8
:102DE000F021152003F066FA302254E0F02115207E
:102DF00003F060FA70224EE0F021152003F05AFA39
:102E0000602248E00022F021152003F053FA20222E
:102E100041E0A878030003F01DFA0A06080F16180F
:102E20001F214F515355F02200E00022F0211920BC
:102E300003F040FA502217E0D022F021192003F0CD
:102E400039FA302210E0902200E02022F0211920EF
:102E500003F030FA702207E0B02200E0F022F02107
:102E6000192003F027FA60227021182003F022FABB
:102E70000022F021172003F01DFA202270211620D5
:102E800003F018FA607900281ED00022F0211520E6
:102E900003F010FA00227021142003F00BFA1C4DED
:102EA00000246006295D000E012203F0CDF8641CA9
:102EB000E4B21B2CF5D3F8BD1022B7E7F022C5E72A
:102EC000B022C3E77022B8E7E878030003F0C2F944
:102ED0000A080A070C0E10121416180692E77EE76D
:102EE000F02276E7002274E790227FE720227DE738
:102EF000B02281E7F0227FE710226AE7F02275E72F
:102F0000B02273E7500000200000FA44A40700201C
:102F100088060020F1B5514C2189E06801F0DEF807
:102F20002746002601252037002802D1787800287E
:102F300003D03878012806D026E0E169009803F034
:102F4000DFF9E0613D702189E06801F0C7F80128F0
:102F50000CD14348E16909184248814203D24048F4
:102F60004149404208603E707E70E6613F48E16939
:102F700009183F48814207D27878002804D10120FF
:102F80003C49800708607D70A18D206B01F0A6F898
:102F9000324F4037002802D1787900280AD038799A
:102FA000012859D1A18D206B01F098F832490128F0
:102FB00007D034E0216C009803F0A2F920643D7141
:102FC000F0E72748226C12182648824224D22B4868
:102FD0004278012A0CD04A88002A03D1284A9288D4
:102FE000002A05D04570284B0E70264A5A6002E030
:102FF00002220A70C570254A1B4B1570244A1570B1
:10300000244A1570244A1660244A1660244A166021
:10301000134A52421A6086703E717E7126641348CC
:10302000226C12181248824216D27879002813D1E5
:10303000087D00280BD1022008701048C5700D755E
:1030400012488D75057012480570124805700448C5
:103050000549404208607D71F8BD00002003002052
:10306000333333C23333F30114000020FFFF3FC07A
:10307000FFFF7F0018000020800700205807002075
:103080006407002000002041300700209E0000203F
:103090009D0000209C000020900000208C0000205B
:1030A0008800002001210D4809030180491041805A
:1030B0000921C9060122920241600281C1602821D2
:1030C0000174D20082845200C284054A0123DB03CA
:1030D00082628385026320300175704720030020DF
:1030E0000008004870B50B4C3C21208B484314214C
:1030F000FDF700F9FEF72EF8002560612583A08F0B
:103100003C2148431421FDF7F5F8FEF723F8A063AE
:10311000A58770BD2003002010B50120000300F03A
:10312000FFFE0120400300F0FBFE10BD10B5044877
:1031300001F0ACFB0021024801F03AFD10BD000097
:103140005401002072B6FEE706490020C861064817
:1031500001690422114301610169402211430161A7
:10316000704700000003002000200240064A0021B2
:10317000D16106490A6902231A430A614861086954
:1031800040221043086170470003002000200240E5
:1031900010B5054B0022DA61044A13690124234368
:1031A0001361018010BD00000003002000200240D8
:1031B00010B50B4A0020D168CB060A4904D5C8696E
:1031C00002231843C8611020D3685B0705D5CB697B
:1031D00001242343CB6104210843D06010BD0000CB
:1031E000002002400003002070B5054600F082FF79
:1031F0000646104C0AE0681C08D0002D04D000F0F0
:1032000079FF801BA84201D9032070BDE068C00788
:10321000F1D1E068800601D52020E060E068C006BA
:1032200002D4E068400703D5FFF7C2FF012070BD5C
:10323000002070BD0020024070B51049104B0C8872
:1032400014390A6800209500521C5C510A60642AF7
:1032500001D100220A6000218A009A58491C1018E6
:10326000C9B26429F8D30749C968002903D0642189
:10327000FDF74AF870BD186870BD000044000020DA
:1032800068030020E804002070B51049104B4C88FA
:1032900014394A6800209500521C5C514A60642A27
:1032A00001D100224A6000218A009A58491C101856
:1032B000C9B26429F8D30749C968002903D0642139
:1032C000FDF722F870BD186870BD000044000020B2
:1032D000F80400207806002078B500220E4B4C1E22
:1032E00015E0551CA5420ADCD5182E886D462E80A7
:1032F0002D7885546D466D788618757005E0D51863
:103300002E886D462E802D788554921C92B28A426A
:10331000E7D3012078BD000000900008F3B585B028
:103320000D4600F031FC00200121174F0190039160
:1033300000900297694601A800F08EFB002818D182
:1033400000246E1E1AE0601CB042059805DC0019CE
:10335000407801020598005D02E0015DFF20000257
:10336000081882B20023E119012000F0CFFB0028E9
:1033700002D0002007B0F0BDA41CA4B2AC42E2D33E
:1033800000F0BAFB0120F5E700900008F8B505460B
:1033900004462035287D0026012808D00120287504
:1033A000206881688907890F012908D101E002207E
:1033B000F8BD0168C9073CD1C168090439D4A16BC3
:1033C000FF220132914302221143A163C1688907A0
:1033D000890F0091C16889088900C16020688168EF
:1033E00092071143816000F085FE074612E000F06D
:1033F00081FEC01B02280DD920688068002809DAE8
:10340000A06B0221884310210843A0630020287587
:103410000120F8BD206880680028E8DB2068C168CA
:10342000009A1143C160A06B80088000401CA0631B
:1034300004E0A06B20210843A0630126002028752A
:103440003046F8BDF8B50025044620340095227DAD
:10345000012A39D00122227503689E68760767D455
:10346000384F4E68BE424DD09E6A0F78BA40164320
:103470009E620123C26A1B079A421FD0012A1DD0F7
:10348000022A1BD0032A19D0042A17D0052A15D0E6
:10349000062A13D0072A11D002688B68566976076E
:1034A000760FB3420AD05369DB08DB005361006832
:1034B00042690B7A5B075B0F1A4342610A68102A64
:1034C00004D0112A02D038E00220F8BD1E488368DB
:1034D000102A07D001229205134383600868102840
:1034E00003D02AE00122D205F6E7194817490068FF
:1034F000FCF700FF0A21484300E0401E009000282E
:10350000FBD11AE0986A0E78B2409043986209683D
:10351000102901D0112910D10B488268102904D03C
:10352000012189058A43826007E00121C905F9E785
:10353000816B2022114381630125002020752846DC
:10354000F8BD0000011000000027014040420F00BC
:103550000C000020704770477047F8B504460068BB
:1035600005684668690701D5710703D429072ED578
:1035700031072CD5A16BC90604D4A16B01225202DC
:103580001143A163C1680C270905890F002919D1CE
:10359000A17E002916D1290714D581684A07012187
:1035A000002A08DB4268BA434260A06B0A029043DB
:1035B0000843A06306E0A06B20221043A063E06BE9
:1035C0000843E0632046FFF7C5FF20680760280630
:1035D0000CD530060AD5A06B012109040843A0636D
:1035E000204600F0D7F8216880200860E80614D54E
:1035F000F00612D5A06A1025012803D02068C06803
:10360000C00708D0E06B02210843E0632068056032
:103610002046FFF7A1FF20680560F8BDF8B5002639
:103620000446002805D0A06B25462035002802D08E
:1036300007E00120F8BD0020E0632875204600F077
:10364000ABF8A06B1022C006002870DB20688168F0
:1036500049076CD4A16B1301994302231943A16359
:1036600081688907890F012905D10168C9070FD130
:10367000C16809040CD4C16818239943A36819438D
:10368000C160206801696368890089081943016184
:103690002068C1683D4B1940C160207E617E800377
:1036A000C9030843A17E4B031843A36A012B02D030
:1036B00001231B0300E000231843E3681843236938
:1036C000022B09D0002318432B79E57E5B001843B9
:1036D0000123012D02D00AE00423F4E7002927D0BA
:1036E000A16B20252943A163E16B1943E163E169E3
:1036F0000D46FF3DC23D02D0256A2943084321689B
:10370000CD680543CD600125E16A2D07A94213D09C
:10371000012911D002290FD003290DD004290BD083
:10372000052909D0062907D0072905D010E028E08F
:10373000012109040843DAE721684D69ED08ED002D
:103740004D6121684D69A78D7F077F0F3D434D6116
:103750002168C9680E4D2940814207D10020E063ED
:10376000A06B80088000401CA06308E0A06B0221D1
:1037700088431043A063E06B1843E06301263046A2
:10378000F8BDA06B1043A063F8E700001902FEFF2C
:10379000E7FF3F837047000070B586B005461421EF
:1037A0006846FCF7A5FD20492868884239D11F49A1
:1037B0008A69401502438A618A69024005924A6912
:1037C000000202434A614969002601400591062032
:1037D000009003200190092069460296C00600F07F
:1037E000ABFB1348134C41C480202660606040004E
:1037F000A0608000E06020202061000260610D4830
:10380000083C00F0B7F8002801D0FFF79BFC2C63C0
:10381000002211460C20656200F0CCFC0C2000F068
:10382000BDFC06B070BD0000002401400010024045
:103830000800024010010020F7B50446006800258A
:10384000806840073DD426462036307D01280AD0C6
:1038500001273775607E012807D02046FDF7A0FDBF
:10386000050002D02EE00220FEBDA06B16490840E4
:10387000FF2101310843A0630020E0633075216B14
:1038800012488862216B1248C862216B1148086394
:1038900021681C20086020684168102211434160A3
:1038A0002068C1683943C1602168206B4031029BA8
:1038B000019A00F089F82068816804221143816030
:1038C00000E002252846FEBDFEF1FFFF11130008AF
:1038D000971300087D130008F0B4C16B0D680168F0
:1038E0000C680422066C1346B3402B420DD06307CC
:1038F0000BD50B689B0602D40B6893430B60016CDD
:103900008A40C16B4A60C16A19E00227B74002468B
:103910002F4001232032002F15D0A70713D50C68A4
:10392000A40604D40C680A25AC430C605370036CE5
:1039300002219940C36B596000211170816A0029EE
:1039400016D0F0BC08470827B7402F4210D02407F4
:103950000ED50C680E25AC430C60046C1946A140D2
:10396000C46B61608363537000211170016BE6E7E3
:10397000F0BC704770B5040021D0022120462030F1
:1039800005464170226811680E48A36801406068CE
:1039900026691843E3683343184363691843A369EE
:1039A0001843E3691843084310602046FEF732F9D4
:1039B0000021A163012068702970084670BD0120B4
:1039C00070BD00000FC0FFFFF8B504468C462030E4
:1039D00001780025012909D00126067041780027C9
:1039E000012905D0077002252846F8BD0220F8BD40
:1039F00002214170A76320680168490849000160FD
:103A000061462046FEF718F9E06A00282068016840
:103A100002D00E22114306E00A2211430160206801
:103A2000016804229143016020680168314301600C
:103A3000DAE7000070B5044600F05CFB0546601C48
:103A400002D004480078241800F054FB401BA04228
:103A5000FAD370BD00000020F8B5054623480F4694
:103A6000017E012601290BD0012101762868204C16
:103A7000012807D02046FFF7B7FB002813D030E01D
:103A80000220F8BD2046FFF7AFFB002829D1FFF741
:103A90005BFB2046FFF7A8FB064616480169042297
:103AA000914301611DE00020C04338606C6812E062
:103AB0002046FFF75BFB0E48FFF796FB06460D48D6
:103AC000026902218A430261002E01D03C6008E0B5
:103AD000012080022418A868810268680818A042A2
:103AE000E6D80248002101763046F8BD00030020E8
:103AF00050C30000002002400348016980221143A6
:103B0000016100207047000000200240F0B51FB4A2
:103B100007461A480024017E15461E46012907D093
:103B2000012101761648FFF75FFB002803D020E053
:103B3000022005B0F0BD012F02D0022F00D00427D3
:103B4000220128463146FCF723FB81B2019862002E
:103B50001018FFF71DFB0A48FFF746FB09490A69E1
:103B6000520852000A61002803D1641CE4B2BC422E
:103B7000E6D3024900220A76DBE7000000030020BA
:103B800050C3000000200240064900200A691206C6
:103B900007D5054A4A60054A4A600969090600D501
:103BA000012070470020024023016745AB89EFCD1B
:103BB000F1B5D04801260188E1250098B6072D010E
:103BC000CD4C81427BD1CB48018B491C0183022122
:103BD0008176CA498978032902D0C84901228A70AE
:103BE000C4484188406800F079FAC54F002807D0E2
:103BF000C0484188406800F071FA01287ED05EE03C
:103C0000BE488078012802D0032830D057E0B94858
:103C1000007CFDF79FFAB749496902F039FC13D2DD
:103C20000420385E7D21C900884201DA401D09E088
:103C30000A21FCF769FB002902D07D20C000B88072
:103C4000B8880A30B8800BE0B8880A21143000B276
:103C5000B880FCF759FB002902D07D20C000A6E007
:103C60000421795EA748814271DCA74826E0A14F74
:103C7000387CFDF76FFA796902F00AFC27680BD2ED
:103C8000AF4201DA7F1D13E03C213846FCF73CFBD4
:103C900000296ED13C370BE0AF4201DA1E3707E056
:103CA0003C213846FCF730FB002962D1FF372D3725
:103CB00096482760874200DD2060954806608D4861
:103CC0000099828C8A4270D1818F0746491C818776
:103CD00002212037894AB9779278032A01D0874A8E
:103CE00091708448C18C806A00F0F8F900287DD07A
:103CF0008048C18C806A00F0F1F900E014E00128EE
:103D000053D17E48807802286FD003284DD1387D6A
:103D1000FDF720FA7749896B02F0BAFB276878D261
:103D2000AF4277DC7F1FDDE07448807801280FD038
:103D30000328C4D16F4F387CFDF70CFA796902F083
:103D4000A7FB27683FD2AF4233DC7F1F48E02EE05D
:103D50006848007CFDF7FEF96649496902F098FB66
:103D600014D20420385E7D21C900884202DA401F47
:103D70000AE024E00A21FCF7C7FA002902D07D20DE
:103D8000C000B880B8880A38B88009E0B8880A212D
:103D9000143800B2B880FCF7B7FA002900D05CE70D
:103DA0000420385E002801DD5FE76FE00020B88066
:103DB0005BE73C213846FCF7A7FA002901D02560D3
:103DC0007BE73C3F0CE0AF4202DC1E3F08E00DE029
:103DD0003C213846FCF798FA0029F0D1FF3F2D3FEF
:103DE0002760002FECDA002066E750E04348807837
:103DF000022810D0032849D1387DFDF7ABF93D49A1
:103E0000896B02F045FB27682DD2AF4221DA7F1D76
:103E100035E05BE052E0387DFDF79CF93549896B70
:103E200002F036FB3B48418806D20A3109B2418094
:103E30000A2906D164210AE01E3109B241801E29F7
:103E4000F8D034480222825E33498A4234DD418010
:103E500032E03C213846FCF757FA002901D02560B2
:103E600045E03C370BE0AF4201DA1E3707E03C216A
:103E70003846FCF749FA0029F1D1FF372D3723489E
:103E80002760874233DD206031E00660F8BD387D71
:103E9000FDF760F91749896B02F0FAFA1D4841886D
:103EA00001D20A3900E01E3941801A480221415EE0
:103EB000322901DA0021CAE71848E6E73C213846F2
:103EC000FCF722FA0029CAD13C3F0BE0AF4201DCEB
:103ED0001E3F07E03C213846FCF716FA0029BED108
:103EE000FF3F2D3F2760002F01DA0020CBE7084875
:103EF000CBE700002003002098070020580700208F
:103F000064070020AC0D00008C000020C0A8000059
:103F10009000002080070020DC05000088000020C1
:103F200010B504494A69024202D04861FFF740FED9
:103F300010BD000000040140F8B500230324012552
:103F4000BAE02E469E40B44632407CD00E79B60789
:103F5000B60F012E01D0022E17D186682746B6462D
:103F60005E00B74000967646BE43B646CF68009ED8
:103F7000B74076463743876046686746BE430F7949
:103F8000FF06FF0F9F40374347600E79F643B607A1
:103F90000ED0C6682746B4465E00B646B7406646B1
:103FA000BE43B4468F687646B74066463743C7601F
:103FB0000E79B607B60F022E14D1DE08B6003618F9
:103FC0000096366A5F07B446FE0E0F27B646B74026
:103FD0006646BE43B4460F697646B74066463743E9
:103FE000009E376206682746B4465E00B646B74074
:103FF0006646BE430F79B446BF07BF0F7646B7404B
:104000006646374307604E68B603B60F53D02D4F50
:10401000BE692E43BE61BE699F08F607F60F2A4EA1
:10402000BF00BE190096B6680F27B4469E07360F2C
:10403000B646B7406646BE430927FF06B446B842B7
:1040400002D1002710E036E0204FB84201D101270D
:104050000AE01F4FB84201D1022705E01D4FB842C8
:1040600001D1032700E005277646B740664637436F
:10407000009EB760184EB6684F689643FF0200D5A1
:104080001643154FBE60FE684F689643BF0200D5C9
:104090001643114FFE607E684F689643BF0300D5FC
:1040A00016430D4F7E603E684F689643FF0300D570
:1040B0001643094A16605B1C0A681646DE4000D0AB
:1040C0003FE7F8BD00100240000001400004004836
:1040D00000080048000C0048000401400069084046
:1040E00000D001207047002A01D0816170478162B1
:1040F0007047000001488068704700000000002001
:1041000002488168027889188160704700000020A9
:1041100010B506480168102211430160002000F02C
:1041200007F800F027F8002010BD00000020024032
:1041300070B504460D4D7D202978C000FCF7DAF8F3
:1041400001460B480068FCF7D5F800F0A9FA0028F2
:1041500009D1042C07D200222146401E00F02AF883
:1041600000206C6070BD012070BD000000000020C8
:104170000C00002008B508488169012211438161C3
:10418000816911400091C26901040A43C261C0699A
:104190000840009008BD000000100240002805DB28
:1041A000C106C90E0120884001490860704700001F
:1041B00000E100E010B502F05BF810BDF8B50F4665
:1041C000060059D03A4D2868C007C00FB84209D23E
:1041D000286840084000384328602868C007C00F9E
:1041E000B84249D13068334C81070CD5400704D51B
:1041F000606807210902084360606068F021884315
:10420000B168084360603078C00726D07068012824
:104210000ED0216802280ED0890700292CDA6168A7
:104220008908890001436160FFF764FF00900DE099
:1042300021688903F1E78901EFE7FFF75BFF009948
:10424000411A1D48814201D90320F8BD60680C2144
:104250000840716889008842EFD12868C007C00F04
:10426000B8420BD9286840084000384328602868C5
:10427000C007C00FB84201D00120F8BD3078400718
:1042800006D56068072109028843F1680843606029
:1042900000F018F86168094A0906090F515CC84026
:1042A000074908600020FFF743FF0020F8BD000029
:1042B000002002400010024088130000F065000852
:1042C0000C00002010B5104A51680C200B4603402A
:1042D0000E48042B17D0082B15D18B020C4C1B0F4A
:1042E000E45CD26A0A4B1207120F10339A5CC903BE
:1042F00005D500231946FBF75CFF214601E0204667
:10430000044901F08FFF10BD0010024000127A0036
:10431000D065000800093D00FEB5040070D020788B
:10432000DC4DC0074AD068680007800F012807D01D
:1043300068680007800F022809D16868C00306D5A5
:10434000286880033AD560680028E7D036E06168C5
:10435000012914D001208004002901D0052914D09E
:104360002A68012109048A432A6029688143296057
:104370006068002816D0FFF7BDFE06460EE02868EC
:104380000121090408432860F2E7296801432960F4
:10439000F5E7FFF7AFFE801B64286ED8286880031E
:1043A000F7D50BE0FFF7A6FE064604E0FFF7A2FEF6
:1043B000801B6428F1D828688003F7D42078012670
:1043C000800700283CDA68680007800F07D068681B
:1043D0000007800F022809D16868C00306D4286846
:1043E000800716D5E06801280AD112E0E0680028AD
:1043F000286816D030432860FFF77CFE074605E0AA
:1044000043E1FFF777FEC01B0228C6D82868800763
:10441000F7D52868F82188432169C9000843286036
:104420000EE0400840002860FFF764FE074604E005
:10443000FFF760FEC01B0228AFD828688007F7D4BA
:104440002078000722D5E0690028686A0ED0304342
:104450006862FFF74FFE074604E0FFF74BFEC01B04
:1044600002289AD8686A8007F7D50FE04008400014
:104470006862FFF73FFE074605E09DE0FFF73AFE62
:10448000C01B022889D8686A8007F7D420780427DF
:104490004007002860DA00200190E869C00008D4D5
:1044A000E969B8060143E961E96901400120009129
:1044B000019079480168C90511D40168821511433A
:1044C0000160FFF717FE009005E0FFF713FE00996B
:1044D000401A642870D870480068C005F5D5A068F7
:1044E00001280AD0002801D0052810D0286A4008E9
:1044F00040002862286AB84301E0286A30432862F5
:10450000A068002812D0FFF7F5FD00900AE0286AA5
:1045100038432862F1E7FFF7EDFD0099411A5F4843
:10452000814249D8286A8007F5D50DE0FFF7E2FD02
:10453000009006E0FFF7DEFD0099411A57488142DE
:104540003AD8286A8007F5D40198002804D0E96990
:10455000012000078143E9612078C00635D56069F4
:1045600001280CD0401D686B23D038436863686B0A
:10457000400840006863FFF7BDFD064622E0686B17
:1045800038436863686B30436863FFF7B3FD0646E2
:1045900004E0FFF7AFFD801B02285BD8686B800743
:1045A000F7D5686BF8218843A169C900084368639F
:1045B0000BE0B8436863F4E74CE0FFF79BFD801B1A
:1045C000022847D8686B8007F7D4206A00285ED09D
:1045D00069680907890F022942D001263606022898
:1045E000286805D0B0432860FFF784FD044633E017
:1045F000B0432860FFF77EFD074604E0FFF77AFD31
:10460000C01B022826D828688001F7D4E86AE16A2E
:10461000000900010843E862616AA06A084369680A
:104620003D221204914308436860286830432860A3
:10463000FFF760FD044604E0FFF75CFD001B022865
:1046400008D828688001F7D521E0FFF753FD001B4B
:10465000022801D90320FEBD28688001F5D416E0A8
:104660000128F8D06868E96A01221204636A0240EE
:104670009A420AD10907E26A090F914205D10F2136
:1046800089040840A16A884201D00120FEBD0020B3
:10469000FEBD0000001002400070004088130000C2
:1046A000094910B5401E884201D9012010BD074CB0
:1046B00060610321081F01F0DBFD0020A0610720DD
:1046C0002061002010BD0000FFFFFF0000E000E0BF
:1046D0007047704730B5034620331A7F012A26D031
:1046E00001221A770325CA682D02AA438D68002487
:1046F0002A430125AD02AA434D6800682A430125DB
:10470000ED02AA430D682A4301252D03AA430D6932
:104710002A4301256D03AA434D69C9692A4301252E
:10472000AD03AA430A4342641C77002030BD022037
:1047300030BD0000F0B502462032137F012B1ED0A1
:10474000012515770223537706687468B3687027CC
:10475000BC430F682743776000680A4CA04205D02D
:10476000094CA04202D0094CA04204D180244968DF
:10477000A34319438160557700201077F0BD0220D4
:10478000F0BD0000002C014000040040004001404A
:1047900070B5040005D025462035687F002802D07A
:1047A00006E0012070BD00202877204600F014F8B4
:1047B00002206877211D206801F076FA012040343C
:1047C000A071A877E87720706070A070E070207109
:1047D00060716877002070BDF8B50546254900680E
:1047E000234B8A15984206D1C8691043C861C8692D
:1047F00010400090F8BD204B984210D18A690120EA
:10480000000402438A618969002201400091114637
:104810001420FFF7CFFC1420FFF7C0FCF8BD174BA6
:104820009842FBD18B690120800403438B61896925
:10483000144C014000911248206010206060234613
:1048400000208021083307C3C9008E00E661616142
:10485000A0612046FFF78EF8002801D0FEF772FC19
:1048600009480168314301606C622C626562F8BDE1
:10487000002000400010024000400140004801407C
:104880001C000240BC020020000001400146203113
:104890004A7F012A01D00120704702224A7702682C
:1048A000D36801210B43D3600068094A904205D0C8
:1048B000084A904202D0084A904204D182685207C6
:1048C000520F062A02D002680A4302600020704795
:1048D000002C01400004004000400140F8B50546AE
:1048E00004462035287F0026012817D0012028778C
:1048F00002206877226890687727FF23B8431B025D
:10490000984390600868502838D00EDC20284FD09B
:1049100006DC00284CD010281ED149E00220F8BD4A
:10492000302845D0402817D13AE060282ED0702892
:1049300019D001221203801A0FD090420CD1CB68FB
:104940004A688968206801F000FA206881680122BD
:1049500092031143816000E0012601206877002066
:1049600028773046F8BDCB684A688968206801F02E
:10497000ECF92168886838438860EEE7CA684968BE
:10498000206801F0F1FA5021206806E0CA68496801
:10499000206801F023FB6021206801F0E1F9DCE7E9
:1049A000CA684968206801F0DFFA40212068F4E70E
:1049B000226801461046F0E710B5054A01689142A9
:1049C00004D1007F012801D101F032F910BD0000AF
:1049D000002C0140F8B50446002026462036009001
:1049E000307F0D4601280ED001203077002A0CD0F0
:1049F000042A19D0082A2AD00C2A4ED00090002070
:104A000030770098F8BD0220F8BDEB6806CD083D70
:104A1000206801F0BBFA206882690C218A43826118
:104A200020688169AA680FE0EB6806CD083D206820
:104A300001F0E7FA206881690322920291438161C3
:104A400020688169AA68120211438161D7E788CD85
:104A5000287921688446086AFF220132904308625F
:104A6000C8690A6A800880003843F027B84367465F
:104A70003F073F0E07430520400282430A200340C0
:104A800018021043CF6108622068C1690C2291436B
:104A9000C1612068C1692A682CE02B6820689E46A5
:104AA0006F682B7B016ABC460122120391430162AD
:104AB000C169026A03273F02B94367463F020F43B9
:104AC0000F2109038F431907090C052339435B03A1
:104AD0009A4373460A273B401B031343C161036299
:104AE0002068C269032189028A43C2612068C169C2
:104AF000AA6812021143C16181E770B5040005D0B4
:104B000025462035687F002802D006E0012070BDD0
:104B100000202877204600F015F802206877211D34
:104B2000206801F0C1F801204034A071A877E8772F
:104B300020706070A070E070207160716877002054
:104B400070BD000010B586B0044614216846FBF71E
:104B5000CFFB15492068884223D114488269C114CB
:104B60000A43826182690A400592426989010A43C7
:104B700042614069084005904812009000200221DF
:104B8000029003900191049109206946C006FFF745
:104B9000D3F9002211460E20FFF70CFB0E20FFF781
:104BA000FDFA06B010BD0000002C014000100240CC
:104BB00070B503460446002520334030002908D054
:104BC000042909D008290AD046784279012E0BD150
:104BD00008E09E7F8278F9E7DE7FC278F6E7067804
:104BE0000279F3E7012A01D0012070BD02220029D9
:104BF00009D004290ED0082912D0427042710C2924
:104C00002ED001252AE09A7782702068C36813436A
:104C1000C3600CE0DA77C2702068C268042304E045
:104C2000027002712068C26808231A43C260012220
:104C3000206801F07DF80C4A20680121904205D0DF
:104C40000A4A904202D00A4A904204D1826852072E
:104C5000520F062A02D002680A430260284670BD3D
:104C60002068C2681023E0E7002C014000040040E7
:104C70000040014070B50446006801690025C94341
:104C80008907002915DBC168C943890711D4E91ECA
:104C9000016101202077206880698007204602D0CA
:104CA000FFF78AFE04E000F0E3F8204600F080F908
:104CB000257720680169C943490717D4C168C943EA
:104CC000490713D40421C9430161022020772068D9
:104CD00080698005800F204602D0FFF76DFE04E05A
:104CE00000F0C6F8204600F063F9257720680169D6
:104CF000C943090716D4C168C943090712D408215A
:104D0000C9430161042020772068C06980072046DC
:104D100002D0FFF751FE04E000F0AAF8204600F0B0
:104D200047F9257720680169C943C90617D4C168C6
:104D3000C943C90613D41021C94301610820207753
:104D40002068C0698005800F204602D0FFF734FE3E
:104D500004E000F08DF8204600F02AF9257720685D
:104D60000169C943C90708D1C168C943C90704D14A
:104D7000891E0161204600F071F920680169C9436C
:104D8000090609D4C168C943090605D48021C9436D
:104D900001612046FFF79CFC20680169C943490670
:104DA00009D4C168C943490605D44021C9430161FA
:104DB000204600F054F920680169C943890609D4E6
:104DC000C168C943890605D42021C9430161204631
:104DD000FFF77FFC70BD0000F0B587B004461421DA
:104DE0006846FBF785FA1E4B226800241D491813FC
:104DF00002251D4E9A421ED14B69421013434B614E
:104E00004B69134005934A6902434A614969012786
:104E100001400591C020009009200294049701955B
:104E200003946946C006FFF787F80095029404973B
:104E3000019503940EE00D4B9A420FD14A6902434B
:104E40004A614969029401405815059101950495FC
:104E50000394009069463046FFF76EF807B0F0BD46
:104E600000040040001002400004004800480140D7
:104E70007047F8B5064604462036307F00270D46B9
:104E800001280ED001203077002A0CD0042A1BD034
:104E9000082A2FD00C2A3ED0012700203077384630
:104EA000F8BD0220F8BD206800F062FF206881692B
:104EB0000822114381612068826904218A4382614A
:104EC000206881692A6912E0206800F095FF206857
:104ED00082690121C9020A43826120688169012235
:104EE000920291438161206881692A69120211430B
:104EF0008161D2E7206800F0BFFF2068C169082205
:104F00001143C1612068C26904218A43C2612068DB
:104F1000C1692A6912E0206800F0F0FF2068C169C9
:104F20000122D2021143C1612068C26901218902B4
:104F30008A43C2612068C1692A6912021143C161B2
:104F4000ABE770B5040005D025462035687F002802
:104F500002D006E0012070BD00202877204600F036
:104F600015F802206877211D206800F09DFE0120C1
:104F70004034A071A877E87720706070A070E0706E
:104F8000207160716877002070BD000008B500686E
:104F90000549884207D10548C26902210A43C26116
:104FA000C0690840009008BD0004004000100240A5
:104FB0007047000030B504460222203000290AD094
:104FC00004290DD02046403008290ED04378012B0B
:104FD00010D0012030BD837F012BFAD182770AE007
:104FE000C37F012BF5D1C27705E00378012BF0D107
:104FF000027000E042700122206800F099FE124920
:105000002068124B884207D0984205D0104A90423F
:1050100002D0104A904204D1426C0125ED032A438C
:10502000426420680122884204D00B49884201D0A2
:10503000984204D181684907490F062902D00168C6
:1050400011430160002030BD002C014000400140B0
:105050000044014000480140000400407047704790
:1050600010B504210148FFF7A5FF10BD9C010020E9
:10507000FEE70000F1B540217C48FFF72FF801273B
:10508000BF07002501267A4C002802D1E0780028CD
:1050900003D02078012806D066E0A168009801F0CE
:1050A0002FF9A060267040217048FFF717F80128FB
:1050B00035D17048A16809186F4881422CD26F48D9
:1050C0000178002928D14178012902D0002910D087
:1050D0001EE045700570057200F016FC684885708A
:1050E000684805606848056068480560684805606C
:1050F0000EE046700570067200F006FC604886708F
:105100006048056060480560604805606048076069
:1051100058486049404208602570E570A5605E48C7
:10512000A16809185D4881421ED2E07800281BD191
:1051300052480178002908D04670057006728570C3
:10514000C57000F0E1FB524808E002214170067092
:105150008670C670067200F0D7FB51484D49076053
:10516000444840420860E67080214048FEF7B6FFA0
:10517000002802D12079002803D06078012806D0C9
:1051800024E0E168009801F0BBF8E06066708021DF
:105190003648FEF7A3FF01280CD13648E16809180C
:1051A0003548814203D233483A494042086065702D
:1051B0002571E5603848E16809183848814205D210
:1051C0002079002802D1374807602671FF2101317C
:1051D0002648FEF783FF002802D1607900280AD014
:1051E000A078012841D1FF2101312048FEF776FF48
:1051F000012807D02DE02169009801F081F8206195
:10520000A670F0E71B48216909181B4881421DD28E
:105210001B48817803290CD0032181701948224949
:10522000016019480560194805602048067020484B
:1052300007E085701F488576203085771148056026
:105240001D48144906700B4840420860A5706571FE
:1052500025611148216909181048814205D26079F9
:10526000002802D10F4807606671F8BD00040048AD
:105270001C000020333333C23333F301A407002072
:1052800058070020900000208C000020880000209B
:105290008400002014000020FFFF3FC0FFFF7F00BC
:1052A00094000020180000200000C0409C00002056
:1052B0009D000020200300209E0000206420401E4E
:1052C0000006000EFBD1704710B53C22FF210020E4
:1052D00000F0BAFE10BD10B500213C22084600F0D7
:1052E000B3FE10BD10B5284C012220212046FEF748
:1052F000FAFE012208212046FEF7F5FE01220920D0
:10530000D103C006FEF7EFFEFFF7D8FF00222021F1
:105310002046FEF7E8FEFFF7D1FF002000F036FF41
:10532000012000F0F5FE032000F0F2FE042000F062
:10533000EFFE052000F0ECFE082000F0E9FE18204A
:1053400000F0E6FE292000F0E3FE802000F0E0FE01
:10535000402000F0DDFEE32000F0DAFE01222021F3
:105360002046FEF7C0FE00210848FFF723FE07494C
:10537000C82009684863FFF7A7FF7D20C000FEF73B
:1053800059FBFFF7A8FF10BD000400489C01002056
:1053900010B50C480188491C01804188491C418096
:1053A0008188491C8180C188491CC1800189491CB0
:1053B00001814189491C41818189491C818100F019
:1053C0007DFB10BDB80000203EB500211C480091B7
:1053D00001910291416081600124184A04610260D8
:1053E000C16004224261017641768176C1769101E5
:1053F000C16189000162014620310C718462FEF7AF
:105400000DF9002801D0FDF79DFE01200003019059
:1054100007200290009469460948FEF713F8002817
:1054200001D0FDF78FFE0220009069460448FEF788
:1054300009F8002801D0FDF785FE3EBD002401409B
:10544000D000002008B50C48416901221143416198
:10545000406910400022009011460920FEF7AAFE84
:105460000920FEF79BFE002211460A20FEF7A2FE4D
:105470000A20FEF793FE08BD00100240F0B587B089
:1054800014216846FAF734FF494842690121C904EA
:105490000A43426142690A4005924269C9000A43CF
:1054A000426142690A400592426949110A434261D8
:1054B00042690A400592426949000A4342614069D3
:1054C000CD1108400590002229463A48FEF70BFE10
:1054D000AF10092000223946C006FEF704FE012263
:1054E0000920D103C006FEF7FEFD01222821314824
:1054F000FEF7F9FD1124A800240400266A4651C2D3
:1055000069462D48FEF718FD0320800300900196A0
:10551000694602962848FEF70FFD00950125029680
:105520006946244803960195FEF706FD8720800111
:1055300000900196694602961E48FEF7FDFC092080
:1055400002966946C006009703960195FEF7F4FCA3
:105550000320800200900920019669460296C00649
:10556000FEF7EAFC28036A4651C209206946C006D4
:10557000FEF7E2FCE8030090032409200195694648
:1055800002950394C006FEF7D7FC282000900195F1
:105590006946029503940748FEF7CEFC00221146A7
:1055A0000720FEF707FE0720FEF7F8FD07B0F0BD65
:1055B00000100240000400480008004810B50A48E6
:1055C000084901600B2141600021FF228160903277
:1055D0000161C2608161FFF7DBF8002801D0FDF7AF
:1055E000B1FD10BD00200040E401002010B586B0E0
:1055F00000240094174801940294039404941449DD
:10560000059401602F218460416004614461124966
:105610008461C160FFF7BCF8002801D0FDF792FD5E
:1056200001200003009069460A48FFF757F9002857
:1056300001D0FDF787FD202004A911C105480839D4
:10564000FFF778F8002801D0FDF77CFD06B010BD0B
:10565000004001402C020020E703000010B590B08C
:105660001C2108A8FAF744FE20216846FAF740FEFC
:105670001F492048002412C004608460C4603B219C
:10568000046141600838FFF783F8002801D0FDF776
:1056900059FD1848FFF755FC002801D0FDF752FDD1
:1056A00060200D94099408900A940B940C940022A5
:1056B00008A90E940F48FFF7DCFB002801D0FDF786
:1056C00041FD01200094400302940590019403944D
:1056D0000494694607940748FEF7FCFF002801D0B0
:1056E000FDF730FD0348FFF777FB10B010BD000059
:1056F000004801407402002010B586B000240594D3
:10570000184804940094019402941549039401608C
:105710001549846041600461446114498461C16039
:10572000FFF7EBF9002801D0FDF70CFD049404A964
:105730000C480594FEF7FEFF002801D0FDF702FD9E
:1057400001200190009402940022694603940548C8
:10575000FFF740F9002801D0FDF7F4FC06B010BDBA
:10576000002C014054010020BF120000FFFF000088
:1057700010B58AB0002407941C2168460894FAF7F3
:10578000B7FD21481F490160772184604160FF21F6
:10579000046190318461C160FFF7D3FB002801D020
:1057A000FDF7D0FC079407A917480894FEF7C2FF3D
:1057B000002801D0FDF7C6FC6020009001940294FF
:1057C0000022694604941048FFF753FB002801D0DB
:1057D000FDF7B8FC042269460B48FFF74AFB002896
:1057E00001D0FDF7AFFC0C2269460748FFF741FBEB
:1057F000002801D0FDF7A6FC0348FFF7EDFA0AB038
:1058000010BD0000000400409C010020F1B5284BB1
:10581000284859780026284C056884B0002944D0CF
:10582000264A2046406A97884100002F2DD0DB7819
:10583000002B11D0090E0AD07F21C90500F060FEAF
:105840006062FF21C905C84229D3666227E0606A09
:10585000F7E7286405B0F0BDD088FBF77BFC054670
:105860003846FBF777FC01461548134B0190029030
:105870000C3B2A4600940498FBF7A0FE606AFBF7F5
:1058800025FC0C4909680864E4E7090E0BD07F2168
:10589000C90500F035FE60620A498842D5DB606ABE
:1058A000FBF714FCD5E7606AF6E700206662D0E7F4
:1058B000580700209C0100203007002080070020AE
:1058C0000000C8430000A04110B50C210448FFF7B8
:1058D00071FB0122D1020348FEF705FC10BD000058
:1058E0009C01002000040048044803490160044969
:1058F00041600021816070476F12833B24070020C4
:10590000A69BC43BFEE70000F8B580212048FDF7C8
:10591000E3FC1F4C1F4D207801261F4FAA2804D1FD
:1059200020466030007FC52816D000F043F8287A62
:105930000C2148430019194A01895180184A81886D
:105940009180C168174801601748067017480670B3
:10595000174806703E7015E0287A0C21484300195C
:105960000E4A018951800E4A81889180C1680D4894
:1059700001600D4806700D4806700D4806703878B5
:10598000002803D00020387000F02EF8F8BD000089
:10599000A4060020A4070020B000002080070020FB
:1059A00064070020980700209E0000209D00002032
:1059B0009C00002030B50B49AA2008700020FF246D
:1059C0007334034664250C2242435218401C9560F0
:1059D000C0B25460D3600928F5D90248C5216030AF
:1059E000017730BDA406002010B580210148FDF7E5
:1059F00095FC10BDA406002070B5094C0025217847
:105A000000290BD0616800F07BFC3F210906606033
:105A1000884202DBFFF7E8FF257070BD656070BD4E
:105A2000B00000207047000070B50F4D296900F0EC
:105A300067FC2861FBF73EFD286AFBF7F9FC0B4C7D
:105A40006081686AFBF7F4FC00B220817F2229693B
:105A5000D205914207DB064A296A914200DA608941
:105A6000E0800020286170BD300000206407002025
:105A700000000C457047000010B5074801688160C0
:105A80000648418841810648C18881818188C18159
:105A9000FCF734F910BD00009807002080070020B3
:105AA0006407002010B5FEF72BFB034800780028A0
:105AB00001D0FFF76DFC10BD5807002070B5284CD1
:105AC00000252088022800D3258060880A2810D36A
:105AD000244E3046FFF7CEFA3046FDF71BFA30462B
