:020000040800F2
:1000000000050020CD000008851A00082917000807
:1000100000000000000000000000000000000000E0
:10002000000000000000000000000000C31B0008EA
:100030000000000000000000C11B0008C51B0008F4
:10004000DF00000800000000DF000008DF000008FB
:10005000DF000008E5040008DF000008DF000008FA
:1000600000000000DF000008DF000008DF000008DB
:10007000DF000008711C0008811C0008000000005F
:10008000911C0008DF00000800000000DF000008ED
:10009000DF000008DF000008DF000008DF000008C4
:1000A000DF000008DF000008DF000008DF000008B4
:1000B000DF0000080448854600F002FA00480047C7
:1000C000D5210008C046C0460005002004488047EE
:1000D00004480047FEE7FEE7FEE7FEE7FEE7FEE72F
:1000E000151C0008B500000830B50B46014600207D
:1000F0002022012409E00D46D5409D4205D31D462E
:100100009540491B2546954040191546521E002D25
:10011000F1DC30BD70B500242546002801DA012449
:100120004042002901DA01254942FFF7DDFFAC42D8
:1001300000D04042002C00D0494270BDF8B50024E8
:100140002546002904DA0E46012400214042B1412F
:10015000002B04DA1E46002352420125B34100F071
:100160002DF98C4617461E46AC4203D0002540426E
:100170008D41AC46002C02D0002657429E4161467C
:100180003A46334601B0F0BDF0B51FB486B000204A
:100190000090019002900698069980B2049007980A
:1001A000090C02040014114307900027089D0998C8
:1001B00006913E463C4603900398A9B20204000C07
:1001C000039004982D0C154348430021224600F06B
:1001D00025F9C719714110340E46402CECDB384626
:1001E000029A00F01BF9009A019B80180090594177
:1001F00002980191103002904028CCDB00980BB09F
:10020000F0BD10B5202A04DB0846203AD04000217A
:1002100010BD0B46D340D0402024A21A9140084381
:10022000194610BDD2B201E00270401C491EFBD23B
:1002300070470022F6E710B513460A4604461946F1
:10024000FFF7F0FF204610BDF8B502464A40D40F34
:1002500042004B0052085B089A4202D2024608460E
:1002600011464A0023D0C30D4A00DDB2120EAD1A6A
:10027000202D35DA49020126490AF6058A19002C93
:1002800000D0524220214F1B1146B9402A4110187C
:10029000C20D9A4221D0002C17D0012D08DCDA05BE
:1002A000801AD20F8019D207DBB200F0CFF8F8BD68
:1002B000DA05801A012340001B06C01880185A4234
:1002C0008018CA0F1043490007E04908C2071143CC
:1002D000DA05801A80194008801800F0AFF8F8BDE0
:1002E00061000122511A001BF7E70122D207514099
:1002F000AAE70122D2075040A6E7024670B54A405D
:10030000D30FDB0740002DD04A002AD0010E140E77
:10031000000212020919400A520A8418E501044633
:100320005443000A120A2E045043A4194219200C07
:10033000C543AA18120C0125AD03521C5219120410
:100340007F39240400D0521C104301D44000491EC0
:10035000C2B20C06C0092018401C4008802A02D0F6
:1003600003E0002070BD40084000002900DA0020B2
:10037000184370BDC217C10F504010B54018CA07CE
:100380009623002100F062F810BDC20F4100400228
:100390000123400ADB05D207090EC0187F2901DAC4
:1003A00000207047962903DC9623591AC84001E0C3
:1003B00096398840002AF4D040427047F0B51FB407
:1003C0000646002082B005464024019100901BE0C3
:1003D000019922460F463046FFF713FF049A059B0A
:1003E000801A994110D310461946224600F016F89B
:1003F000361A8F410197224601200021009F00F00C
:100400000DF838184D4100902046641E0028DFDCAE
:10041000019B00982946324607B0F0BD10B5202A4E
:1004200004DB0146203A9140002010BD914020237A
:100430009C1A0346E3401943904010BD002904DA9A
:10044000401C490001D140084000704770B40024AE
:10045000050C05D11024000402D1002921D011245B
:10046000050E01D100020834050F01D10001241D41
:10047000850F01D18000A41C002801DB4000641C12
:10048000002908D020252E1B0D46F540A14000D0A4
:1004900001212943084301061B1B000ADB1D02D56D
:1004A000002070BC7047DB05181880180029F8DAA6
:1004B000401C4900F5D170BC400840007047000066
:1004C000064C0125064E05E0E36807CC2B430C3CA7
:1004D00098471034B442F7D3FFF7F0FD74220008B8
:1004E0009422000810B5012000F092F8022000F0DC
:1004F0008FF810BD704731B500F046F9009C0546F5
:10050000601C00D0641C00F03FF9401BA042FAD3ED
:1005100038BD0000F8B5012841D1384F02213846D6
:1005200000F026F90026364D364C002809D002216D
:10053000384600F01DF9012831D1687800282FD005
:1005400055E02878002852D12869401C28610228EB
:100550000AD900F019F987B2A869391A2A48FFF7B1
:10056000C3FDAF612E6168617D206969C000814271
:10057000208801D9503000E00A30208081B2234821
:100580000088814202D90120A87000E0AE700520E9
:1005900068702AE0FF205F30814200D22080F8BDE1
:1005A0006868401C686002280AD900F0EDF887B23C
:1005B000E868391A1448FFF797FDEF606E60A8608D
:1005C0007D20A968C0008142208801D9503800E010
:1005D0000A38208081B20D480088814202D901206A
:1005E000A87000E0AE70052028709620E870218881
:1005F000E120C0008142D1D8CCE7000000040048CF
:100600002000002000000020C0D401004C00002089
:1006100010B504494A69024202D04861FFF77AFFE7
:1006200010BD000000040140F8B500238DE0012456
:100630009C40A44622407DD04C68022C01D0122C54
:100640000CD1DC08A40027183C6A5D07ED0E0F26CC
:10065000AE40B4430E69AE4026433E6205685E007C
:100660000324B4400F79A543BF07BF0FB7402F4302
:1006700007604D68012D05D0022D03D0112D01D04A
:10068000122D0ED18568CF68A543B7402F438760F0
:1006900047686546AF430D79ED06ED0F9D403D433C
:1006A0004560C568A5438C68B4402C43C4604C6861
:1006B000E40049D5284CA56901263543A561A46904
:1006C0009D0834400094254CAD002F19BC689D074F
:1006D0002E0F0F25B540AC430925ED06A84201D1E8
:1006E00000250FE01E4DA84201D101250AE01D4D55
:1006F000A84201D1022505E01B4DA84201D10325E6
:1007000000E00525B5402543BD60184C25684E68BE
:100710009543F60300D51543256065684E689543FB
:10072000B60300D515436560A5684E689543F6028B
:1007300002D500E008E01543A560E5684E689543E2
:10074000B60200D51543E5605B1C0A681446DC4020
:1007500000D06CE7F8BD000000100240000001402E
:100760000004004800080048000C00480004014054
:100770000069084000D001207047002A01D0816143
:1007800070478162704700000148006870470000B0
:100790006800002002480168491C016070470000A1
:1007A0006800002010B5064801681022114301605E
:1007B000002000F007F800F017F8002010BD00003E
:1007C0000020024010B5044600F0C6F87D21C900A3
:1007D000FFF78AFC00F0ACFA00222146501E00F020
:1007E00021F8002010BD000008B5084881690122E9
:1007F00011438161816911400091C26901040A437A
:10080000C261C0690840009008BD000000100240AD
:10081000C106C90E012088400149086070470000E8
:1008200000E100E010B501F02FF910BDF8B5054664
:1008300044480E460068C007C00FB0420AD2414883
:10084000016849084900314301600068C007C00FD2
:10085000B0425CD128783C4C800705D56068F02117
:100860008843A968084360602878C0073FD068685B
:10087000012813D02168022813D08907002946DAFD
:1008800061688908890001436160FFF77DFF69683D
:10089000074601290DD0022917D024E021688903D9
:1008A000ECE78901EAE7FFF76FFFC11B27488142A8
:1008B00017D860680007800F0128F4D117E0FFF710
:1008C00063FFC11B214881420BD860680007800F7D
:1008D0000228F4D10BE0FFF757FFC11B1B488142F0
:1008E00001D90320F8BD60680007800FF3D11548D7
:1008F0000168C907C90FB1420BD90168490849000D
:10090000314301600068C007C00FB04201D0012030
:10091000F8BD2878400706D560680721090288439A
:10092000E9680843606000F01DF86168084A09063C
:10093000090F515CC840074908600020FFF742FFDB
:100940000020F8BD00200240001002408813000083
:10095000642200086C000020014800687047000015
:100960006C00002010B512A30FCB88B06C460FC4EA
:1009700013A30FCB0FC416494A680C20134603403B
:100980001448042B0FD0082B0DD193021B0F6C467B
:10099000E45CC96A04AB0907090F595CD20304D5AA
:1009A000FFF7A2FB604308B010BD0B486043FAE7B5
:1009B00002030405060708090A0B0C0D0E0F1010A0
:1009C0000102030405060708090A0B0C0D0E0F109F
:1009D0000010024000127A0000093D00FEB50446F6
:1009E0000078D04DC00747D068680007800F012805
:1009F00007D068680007800F022809D16868C00323
:100A000006D52868800337D5606800287ED033E09B
:100A1000012062680004012A11D08100002A01D05F
:100A2000052A10D02A6882432A60286888432860F3
:100A30006068002814D0FFF7A7FE06460CE029687E
:100A400001432960F4E72A680A432A60F7E7FFF7C1
:100A50009BFE801B64286FD828688003F7D50BE0C5
:100A6000FFF792FE064604E0FFF78EFE801B642827
:100A7000F1D828688003F7D4207801268007002861
:100A80003BDA68680007800F07D068680007800FAE
:100A9000022809D16868C00306D42868800715D5E4
:100AA000E068012832D111E0E0680028286815D0FC
:100AB00030432860FFF768FE074604E0FFF764FE56
:100AC000C01B0228C7D828688007F7D52868F821F6
:100AD00088432169C900084328600EE040084000AF
:100AE0002860FFF751FE074604E0FFF74DFEC01BEC
:100AF0000228B0D828688007F7D42078000724D5CA
:100B0000E0690028686A10D0304300E008E16862BC
:100B1000FFF73AFE074604E0FFF736FEC01B022847
:100B200099D8686A8007F7D50FE0400840006862EE
:100B3000FFF72AFE074605E09DE0FFF725FEC01BF4
:100B4000022888D8686A8007F7D4207804274007ED
:100B5000002860DA00200190E869C00008D4E96943
:100B6000B8060143E961E969014001200091019063
:100B70006D480168C90511D40168821511430160EF
:100B8000FFF702FE009005E0FFF7FEFD0099401A16
:100B9000642870D864480068C005F5D5A0680128AD
:100BA0000AD0002801D0052810D0286A400840004B
:100BB0002862286AB84301E0286A30432862A068A6
:100BC000002812D0FFF7E0FD00900AE0286A3843C1
:100BD0002862F1E7FFF7D8FD0099411A5348814296
:100BE00049D8286A8007F5D50DE0FFF7CDFD0090C4
:100BF00006E0FFF7C9FD0099411A4C4881423AD8F6
:100C0000286A8007F5D40198002804D0E9690120FA
:100C100000078143E9612078C00635D56069012865
:100C20000CD0401D686B23D038436863686B400864
:100C300040006863FFF7A8FD064622E0686B384372
:100C40006863686B30436863FFF79EFD064604E007
:100C5000FFF79AFD801B02285BD8686B8007F7D5E9
:100C6000686BF8218843A169C900084368630BE0F9
:100C7000B8436863F4E74CE0FFF786FD801B022869
:100C800047D8686B8007F7D4206A002846D0696887
:100C90000907890F022943D0012636060228286851
:100CA00005D0B0432860FFF76FFD044633E0B04342
:100CB0002860FFF769FD074604E0FFF765FDC01BEC
:100CC000022826D828688001F7D4E86AE16A00097A
:100CD00000010843E862616AA06A084369683D222E
:100CE0001204914308436860286830432860FFF786
:100CF0004BFD044604E0FFF747FD001B022808D81F
:100D000028688001F7D509E0FFF73EFD001B0228A7
:100D100001D90320FEBD28688001F5D40020FEBD66
:100D20000120FEBD0010024000700040881300004A
:100D3000094910B5401E884201D9012010BD074C59
:100D400060610321081F00F09FFE0020A0610720C2
:100D50002061002010BD0000FFFFFF0000E000E068
:100D60007047704770B5034620331A7F012A27D099
:100D700001241C7702225A770326CA683602B2433E
:100D80008E6800253243A602B2434E6800683243A3
:100D9000E602B2430E6832432603B2430E69324381
:100DA0006603B2434E6989693243A603B2430A43DC
:100DB000E603B2430A4342645C771D77002070BDAE
:100DC000022070BD70B502462032137F012B1BD06C
:100DD0000123137702245477046865687026B543AD
:100DE0006560046865680E68354365600468A568D9
:100DF0008026B543A5600068846849680C43846018
:100E000053770020107770BD022070BD70B50400CC
:100E100005D025462035687F002802D006E0012055
:100E200070BD00202877204600F00AF8022068777D
:100E3000211D206800F034FF01206877002070BD7C
:100E400010B586B0044614216846FFF7F2F9214B2D
:100E50002268214802219A4228D18369C21413438F
:100E6000836183691340059343690A041343436113
:100E700040690191104005904802009000200290C6
:100E80000390049109206946C006FFF7CDFB0022BC
:100E900011460D20FFF7C6FC0D20FFF7B9FC00221C
:100EA00011460E20FFF7BEFC0E200EE00B4B9A42BF
:100EB0000DD1C2690A43C261C06900220840059091
:100EC00011461020FFF7AEFC1020FFF7A1FC06B082
:100ED00010BD0000002C0140001002400004004042
:100EE0000268D36801210B43D360006802680A439B
:100EF000026000207047F8B5054604462035287F7B
:100F0000012817D001272F77022068772268906880
:100F10007726FF23B0431B0298439060086850284F
:100F200037D00EDC202857D006DC00284ED0102801
:100F300040D14EE00220F8BD302850D0402839D1B1
:100F40003CE060282DD0702817D001221203801AAF
:100F50000ED090422ED1CB684A688968206800F094
:100F6000EEFE20688168012292031143816021E036
:100F700020688168C908C900F8E7CB684A688968B1
:100F8000206800F0DCFE21688868B0433043886048
:100F900010E0CA684968206800F0E0FF502120682E
:100FA00006E0CA684968206801F012F860212068EC
:100FB00000F0D0FE6F7700202877F8BDCA68496836
:100FC000206800F0CBFF40212068F1E70021206875
:100FD000EEE710212068EBE720212068E8E73021C8
:100FE0002068E5E7F8B53C4C01202178002700296E
:100FF00006D03A4909680A6802430A602770678088
:1010000002216181617800295FD001202070677022
:101010000821324800F064FB0546A0616088322256
:1010200000233946FFF7B0F8421979410B462C48A6
:101030000021FFF783F82B4A616220621278032AAD
:1010400013D0E081208C85B2E5812581268AC72EC8
:1010500020D9B5421DD905213046FFF745F8301A91
:10106000A91B884215DAE68114E0E28A002AE9D158
:101070001D4A3D4613883A461E1A8D41E2DA5D0844
:10108000EE17C01A9141281A8E41DBDA23626262A0
:10109000D8E7A581E089FF218731A081884201D965
:1010A0000121E18020820D48E76101684F620068FC
:1010B000016A0E4A114207D1016A9210114203D10E
:1010C0000168490849000160F8BD6780A761607048
:1010D0002770E061F8BD0000400000207C00002087
:1010E00080C3C9012200002000000020111100006F
:1010F000F8B5064604462036307F0D4601283DD01F
:101100000120307702207077002A39D0042A46D097
:10111000082A57D02B68297B20689E468C466B682E
:10112000016A0122120391430162C169026A032725
:101130003F02B9431B020B430F2109038B43614656
:101140000907090C194305235B039A4373460A27D1
:101150003B401B031343C16103622068C169032242
:1011600092029143C1612068C169AA6812021143C9
:10117000C1610120707700203077F8BD0220F8BDF2
:10118000EB6806CD083D206800F0FAFE2068826911
:101190000C218A43826120688169AA680FE0EB68AC
:1011A00006CD083D206800F026FF206882690321F3
:1011B00089028A43826120688169AA681202114308
:1011C0008161D6E788CD287921688446086AFF22A4
:1011D000013290430862C8690A6A80088000384377
:1011E000F027B84367463F073F0E074305204002FC
:1011F00082430A20034018021043CF61086220682E
:10120000C1690C229143C1612068C1692A68AEE7B7
:1012100070B5040005D025462035687F002802D02F
:1012200006E0012070BD00202877204600F00AF873
:1012300002206877211D206800F032FD01206877C8
:10124000002070BD704710B502680446002906D022
:10125000042907D0082914D00C2907D114E0D0683C
:10126000022301E0D06804231843D06001222068E3
:1012700000F05AFD2068016801221143016000203E
:1012800010BDD0680823EFE7D0681023ECE770B5F5
:101290000446006801690025C9438907002915DB58
:1012A000C168C943890711D4E91E01610120207773
:1012B000206880698007204602D0FFF793FE04E093
:1012C00000F0BEF8204600F03FF92577206801695C
:1012D000C943490717D4C168C943490713D4042136
:1012E000C943016102202077206880698005800F52
:1012F000204602D0FFF776FE04E000F0A1F8204679
:1013000000F022F9257720680169C943090716D43E
:10131000C168C943090712D40821C94301610420E7
:1013200020772068C0698007204602D0FFF75AFE68
:1013300004E000F085F8204600F006F925772068E3
:101340000169C943C90617D4C168C943C90613D482
:101350001021C9430161082020772068C0698005F9
:10136000800F204602D0FFF73DFE04E000F068F851
:10137000204600F0E9F8257720680169C943C907CC
:1013800008D1C168C943C90704D1891E016120463B
:1013900000F004F920680169C943090609D4C1684D
:1013A000C943090605D48021C94301612046FFF7DE
:1013B000D7FC20680169C943490609D4C168C943FB
:1013C000490605D44021C9430161204600F0ABF92C
:1013D00020680169C943890609D4C168C9438906DF
:1013E00005D42021C94301612046FFF7BAFC70BD36
:1013F00010B586B0044614216846FEF71AFF0E4960
:101400002068884215D10D484269012149040A43E8
:101410004261406908400590481200900020022176
:10142000029003900191049109206946C006FFF7DC
:10143000FBF806B010BD0000002C01400010024077
:101440007047F8B5064604462036307F0D46012821
:101450000DD001203077022070770427002A08D0B1
:10146000042A16D0082A2AD00C2A4DD137E00220AF
:10147000F8BD206800F076FC2068816908221143DD
:10148000816120688169B9438161206881692A6925
:1014900012E0206800F0AAFC206882690121C902DC
:1014A0000A4382612068816901229202914381612D
:1014B000206881692A6912021143816124E0206851
:1014C00000F0D4FC2068C26908210A43C261206888
:1014D000C169B943C1612068C1692A6912E0206805
:1014E00000F006FD2068C1690122D2021143C161EA
:1014F0002068C269012189028A43C2612068C169EA
:101500002A6912021143C1610120707700203077EF
:10151000F8BD70B5040005D025462035687F002849
:1015200002D006E0012070BD00202877204600F0A0
:101530000AF802206877211D206800F0B1FB012025
:101540006877002070BD70477047000010B50446F2
:101550000068012200F0E8FB0C482168814208D0B5
:101560000B48814205D00B48814202D00A48814293
:1015700004D1486C0122D2031043486420680168FA
:10158000012211430160002010BD0000002C014029
:10159000004001400044014000480140F8B50068A7
:1015A0004249434C884205D1E169002902D0618853
:1015B000491C61803F49884276D141483E4B0188B1
:1015C0003B481E783D4A0325C8278089012E02D05A
:1015D000002E03D009E0814202D803E0814201D20B
:1015E000108002E011801D70E782A08A0025401C57
:1015F00080B2A08209281ED9608A3249401C6082CC
:101600000888002801D0401E08802F49087800284B
:1016100001D0401E08702D480188002904D0491EC1
:101620000904090C018005D1092000224021C006CF
:10163000FFF7A3F8A582608AC10717D11921FEF729
:1016400053FD002912D100F091FA214908780028B1
:1016500001D0401E08701F490878002801D0401EA4
:101660000870E08A002801D0401EE0821A480088F5
:10167000002806D0608A322801D9A58001E0012027
:10168000A080608A64280FD914490878002801D006
:10169000401E08706089002804D0401E0004000C21
:1016A000608100D1A5816582F8BD0000002C014059
:1016B0004000002000040040220000200200002022
:1016C0000000002018000020230000201A00002045
:1016D000200000202100002016000020090000202A
:1016E00010B5034620331C7F0022012C0AD00124B0
:1016F0001C77002908D0042909D008290AD00C2910
:101700000DD10AE0022010BD0068426B07E00068BE
:10171000826B04E00068C26B01E00068026C00208C
:101720001877104610BD7047FEE70000F8B5042199
:10173000144800F039F8012812D1134B09201F7802
:1017400000210122114E124CC0060A25002F08D09C
:1017500019703170628001224021FFF70EF8E58098
:10176000F8BD1A700B4F02233B700F230A4F1B0367
:101770003B603270094A1180094A1180094A618030
:101780001180E8E700040048080000202200002043
:1017900014000020090000200C000020040000209C
:1017A0000600002044000020F8B50E460746FEF76C
:1017B000DFFF002807D0134C04212046FEF7D8FF96
:1017C000012819D01CE0104CA088002801D000206E
:1017D000F8BDFEF7D9FF0546A0682188281A88427F
:1017E0000ED331463846FEF7C3FF002808D19620B5
:1017F000A560A0800120F8BD04212046FEF7B8FFB7
:101800000220F8BD0004004814000020F0B587B0A5
:1018100014216846FEF70DFD38484269012189050B
:101820000A43426142690A400592426949110A43EA
:10183000426142690A400592426949000A43426195
:101840004069212408400590A40109200022214676
:10185000C006FEF792FF002229492A48FEF78DFFB5
:10186000012229492748FEF788FF01220920D103D8
:10187000C006FEF782FF00940124022700260920FB
:101880006946C006029703960194FEF7CDFE1F48F5
:10189000032501906946029600951A48FEF7C4FE9A
:1018A000042000906946019602941648FEF7BCFE9B
:1018B00013486A46039591C269461248FEF7B4FE82
:1018C0001148009001946946039502940D48FEF773
:1018D000ABFEE00300900920019469460395029451
:1018E000C006FEF7A1FE002211460520FEF79AFF72
:1018F0000520FEF78DFF07B0F0BD0000001002408C
:10190000980800000004004860F00000000011107A
:1019100010B598B00024129413941494159416944E
:101920001C2168461794FEF784FC0E940F941094C3
:101930001C2107A81194FEF77CFC3648344901604D
:101940000721846041600461C7214461C160802136
:101950008161FFF75BFA002801D0FEF7CBFD012083
:101960000003129012A92B48FFF7C5FA002801D0F6
:10197000FEF7C0FD2748FFF7CCFD002801D0FEF799
:10198000B9FD2448FFF744FC002801D0FEF7B2FD62
:10199000169416A91F481794FFF714FA002801D0CF
:1019A000FEF7A8FD60200594019400900294039432
:1019B00004940022694606941648FFF742FD002869
:1019C00001D0FEF797FD01200F900E94109408228D
:1019D0000EA911940F48FFF78BFB002801D0FEF7EA
:1019E00089FD01200794400308940C9009940A94FF
:1019F0000B9407A90D940748FFF7B4F9002801D00C
:101A0000FEF778FD0348FFF7F3FC18B010BD0000A7
:101A1000002C01407C00002010B586B0002400940A
:101A200016480194029403940494134905940160A8
:101A30001F2184604160046111498461C160FFF726
:101A4000E5F9002801D0FEF755FD012000030090C4
:101A500069460A48FFF74FFA002801D0FEF74AFD11
:101A6000049404A905480594FFF7ACF9002801D0B7
:101A7000FEF740FD06B010BD00040040BC00002091
:101A8000E7030000704700008307FF22DB0E9A4047
:101A90008907090E994000280BDA0007000F083863
:101AA000830808489B001818C36993430B43C3611C
:101AB0007047830804489B001B181868904308432C
:101AC0001860704700ED00E000E400E0F8B51A4847
:101AD0001A4900880988441A194841686518456000
:101AE00081688460611A0846FEF744FC154EB168AF
:101AF000FEF703FC07462846FEF73CFC7168FEF73C
:101B0000FCFB05462046FEF735FC3168FEF7F5FB89
:101B10002946FEF799FB3946FEF796FBFEF735FCA2
:101B20000949162801DA162002E0421E8A4201D233
:101B3000034948800020F8BD000000204C00002030
:101B40000800002070000020C30900000448034979
:101B5000016004494160044981607047295C0F3D80
:101B600070000020DA032D3AFAEDEB3970B5114D13
:101B700001212A780920104CC902C006002A13D07E
:101B80000122FEF7FAFD0D4869780088002903D08C
:101B9000002808D02D2004E0002804D0FFF796FF8D
:101BA00068882168486370BD236800225A63FEF785
:101BB000E4FD70BD080000207C0000200000002033
:101BC0007047704710B5FEF7E5FD10BD30B591B018
:101BD00030216846FEF72DFB002401200090019083
:101BE0000E94000409900F94C0000D9402250A90F1
:101BF0000C9408950B946846FEF7F0FE07200C90B5
:101C00000E9401210D950F940CA8FEF70FFE11B054
:101C100030BD000013480168012211430160416892
:101C2000114A114041600168104A11400160016889
:101C3000012292049143016041683F2212049143C2
:101C40004160C16A09090901C162016BFF221432B6
:101C500091430163416B4908490041630021816060
:101C600070470000001002400CB8FF08FFFFF6FEAE
:101C700010B50248FFF70BFB10BD00007C000020F0
:101C800010B50248FFF703FB10BD00007C000020E8
:101C900010B50248FFF7FBFA10BD0000BC000020A1
:101CA000F0B502681A4B1B4C984201D0A04203D1F8
:101CB0007025AA434D682A43174D184E184F984275
:101CC0000AD0A04208D0174CA04205D0A84203D0A9
:101CD000B04201D0B84205D1144603221202944307
:101CE000CA6822438024A2434C69224302608A6866
:101CF000C2620A688262984205D0A84203D0B0420C
:101D000001D0B84201D10969016301214161F0BDEF
:101D1000002C01400004004000400140004401400C
:101D2000004801400020004010B50123046A8B40A8
:101D30009C430462036A8A401343036210BD30B5BA
:101D40008468FF252D021B021343AC430B4323433E
:101D5000836030BD826870239A430A4307210A4397
:101D600082607047F0B5026A520852000262056A4A
:101D7000436882697024A24392080C68920014435D
:101D8000022295438A68164E2A43144DA84207D072
:101D9000B04205D0134FB84202D0134FB84206D11B
:101DA0000827BA43CF681743042297433A46A8420C
:101DB00007D0B04205D00B4DA84202D00A4DA84230
:101DC00006D103252D02AB434D691D438B692B437F
:101DD00043608461496841630262F0BD002C0140A8
:101DE00000400140004401400048014070B5026AD3
:101DF00010239A430262056A4268836973242402AD
:101E0000A3430C6824021C4320239D438B681B01C1
:101E10002B43124DA84208D11D46CB688026B543FE
:101E20001B012B434025AB4308E00D4DA84205D0D4
:101E30000C4DA84202D00C4DA84208D10325AD029A
:101E4000AA434D69AD0015438A6992002A43426056
:101E5000846149688163036270BD0000002C014009
:101E600000400140004401400048014070B5026A52
:101E7000FF2301339A430262056A4368C2697024F2
:101E8000A24392080C689200144301225202954327
:101E90008A6812022A43124DA84208D11546CA6820
:101EA000C614B54312022A430515AA4308E00D4D96
:101EB000A84205D00C4DA84202D00C4DA84208D132
:101EC00003252D03AB434D692D011D438B691B0178
:101ED0002B434360C4614968C163026270BD000066
:101EE000002C0140004001400044014000480140F6
:101EF00030B5026A01231B039A430262046A4268F6
:101F0000C36973252D02AB430D682D021D430123C8
:101F10005B039C438B681B0323430C4CA04208D0FB
:101F20000B4CA04205D00B4CA04202D00A4CA04260
:101F300005D10124A403A2434C69A40122434260B9
:101F4000C56149680164036230BD0000002C014096
:101F500000400140004401400048014030B5036AA0
:101F6000046A6408640004628469F025AC431201C9
:101F700022430A24A3430B438261036230BD000065
:101F800070B5046A6408640004628469056A0D4ED1
:101F9000B04205D00C4EB04202D00C4EB04202D13D
:101FA000A408A40000E001221443F02294431A077D
:101FB000120E0A2322439D43194029438261016284
:101FC00070BD0000002C01400004004000400140B2
:101FD00030B5036A1024A34303628469036A0F25A2
:101FE0002D031203AC432243A024A3430901194348
:101FF0008261016230BD70B5046A1025AC43046291
:102000008569046A03263602B54312022A430F2566
:102010002D031B071B0CAA431343A0220901944361
:10202000114021438361016270BD30B47446641E67
:102030002578641CAB4200D21D46635D5B00E3184B
:1020400030BC184702E008C8121F08C1002AFAD1A4
:1020500070477047002001E001C1121F002AFBD128
:1020600070470000F8B54D484D4902884D48002A98
:1020700003D00022FEF781FBF8BD4B4A13784B4A90
:10208000002B16880DD04A4B1F78032F09D0494BDF
:10209000012F1C8894801346DB8804D0002F30D099
:1020A00007E0568007E09C4201D9548001E053804C
:1020B00093809388D380404B1B78002B00D05680B0
:1020C00057883E4A9742D7D2002401260546F60398
:1020D000002233492846FEF750FB002238492846A3
:1020E000FEF74BFB092000223146C006FEF745FBF8
:1020F000002C09D0012C0AD0022C1BD0032C0BD1B0
:102100001BE09C42D3D2D0E70122D10201E00122A0
:1021100008212846FEF731FB0A213846FDF7FAFF71
:1021200007460B00FFF781FF0A0C0F1D2023263006
:1021300035142C1401221021EBE701228021E8E75D
:10214000012211031EE001221E491BE0FEF715FBD0
:102150000120FEF7D0F9002F8ED0641C042CB7DBD1
:10216000F8BD012218490DE0012218490AE00122B8
:10217000174907E0092001223146C006FEF7FDFAA3
:10218000012231462846E1E7012209203146C006F6
:10219000DCE70C4901224039F4E70000440000204C
:1021A00098080000000400480800002000000020FB
:1021B000220000204C000020230000200F270000F8
:1021C00060F0000060D000002020000020800000AF
:1021D00040C00000FEF7E6FAFFF7F8FCFFF716FB39
:1021E000FFF796FBFFF718FC0E48FEF779FE0E4846
:1021F000FEF776FE00210B48FFF7A8F908210948F1
:10220000FFF721F800F014F8092001224021C00650
:10221000FEF7B3FA05490A200880FFF723FFFFF70E
:1022200085FAFAE77C000020BC0000201A0000209C
:1022300000B508490020488008704870E121064A2E
:10224000C900118005490880FFF780FC044903207C
:10225000087000BD08000020000000204C00002095
:102260002200002000000000000000000102030422
:1022700006070809942200080000002070000000F2
:10228000442000080423000870000020900400008F
:1022900054200008000000000000000000000000C2
:1022A0000000000000000000C80000000000000066
:1022B000000000000000000000000000000000001E
:1022C000000000000000000000000000000000000E
:1022D00000000000000000000000000000000000FE
:1022E00000000000000000000000000000000000EE
:1022F00000000000000000000000000000000000DE
:0423000000127A004D
:04000005080000B53A
:00000001FF
