:1000000002018C02000E1200DE80FE02000F32326E
:1000100032323202001032323232320200113232C7
:1000200032323202001232323232320200163232B0
:03003300020017B1
:03003B00020018A8
:030043000200199F
:10004B0002001A90F766EFF0EEA3F02290F765E04E
:04005B004480F022CB
:1000630002001E90F7697455F02290F768EFF022B2
:03007B0002001F61
:0300830002002058
:03008B000200214F
:0300930002002246
:03009B000200263A
:0300A30002002731
:0300AB0002002828
:0300B3000200291F
:0300CB0002002A06
:0300D30002002EFA
:1000DB0002002F120066E4FB7D02FF1202267FDF77
:1000EB007E2E12004E7F0712006D90F000E4F0435D
:1000FB009A01A3F0439A02A3F0439A04A3F0439A04
:10010B0008A3F0439A1090F760741FF090F011E47D
:10011B00F043A102A3F043A104A3F043A108A3F071
:10012B0043A110A3F043A120A3F043A14090F010F2
:10013B00F043A10190F007F0439A8090F76174FFB0
:10014B00F0A3F090F75EF0A3F090F7127403F09029
:10015B00F711F090F713F090F00C740FF090F7404C
:10016B00E4F0A3F090F74474FFF0A3F090F748F09D
:10017B00A3F090F74CF0A3F090F750F0A3F002002F
:10018B005778FFE4F6D8FD9000007F007E04E4F082
:10019B00A3DFFCDEFA7581070201E1020006E4939E
:1001AB00A3F8E493A34003F68001F208DFF480295F
:1001BB00E493A3F85407240CC8C333C4540F44204E
:1001CB00C8834004F456800146F6DFE4800B01023D
:1001DB00040810204080900242E47E019360BCA38F
:1001EB00FF543F30E509541FFEE493A360010ECF8B
:1001FB0054C025E060A840B8E493A3FAE493A3F8B5
:10020B00E493A3C8C582C8CAC583CAF0A3C8C58274
:10021B00C8CAC583CADFE9DEE780BE90F765E05444
:10022B0080F0E0FEEDC43354E04FFFAD03EDC4545A
:10023B00F04FFFEE4FF0225200001F065B4F666D32
:0D024B007D077F6F777C585E7971000000A1
:00000001FF
