:020000040800F2
:1000000000080020590100081D2C0008FB280008EA
:1000100000000000000000000000000000000000E0
:100020000000000000000000000000009F2C0008FD
:1000300000000000000000009D2C0008ED2C0008CE
:100040006B010008000000006B0100086B01000854
:100050006B010008791300086B0100086B010008B0
:10006000000000006B0100086B0100086B01000834
:100070006B010008412E0008512E0008000000000E
:100080006B010008852E0008000000006B010008CD
:100090006B0100086B0100086B0100086B01000890
:1000A0006B0100086B0100086B0100086B01000880
:1000B0006B01000800F002F800F03EF80CA030C818
:1000C000083824182D18A246671EAB4654465D46D4
:1000D000AC4201D100F030F87E460F3E0FCCB64660
:1000E0000126334200D0FB1AA246AB4633431847E1
:1000F000D8350000F8350000103A02D378C878C12E
:10010000FAD8520701D330C830C101D504680C6059
:10011000704700000023002400250026103A01D378
:1001200078C1FBD8520700D330C100D50B607047AF
:100130001FB51FBD10B510BD00F0AAFD1146FFF799
:10014000F7FF03F009F900F0C2FD03B4FFF7F2FF77
:1001500003BC00F0F7FD0000074880470748004750
:10016000FEE7FEE7FEE7FEE7FEE7FEE70448054997
:10017000054A064B704700000B2E0008B50000082A
:1001800000020020000800200004002000040020DD
:1001900010B5202A04DB0846203AD040002110BDCB
:1001A0000B462024D340D040A21A91400843194660
:1001B00010BDFEB5054610460C46184373D0AE463A
:1001C0008C460020AD1A01469C4167D36646002745
:1001D00001243D46B61A9D4102D313463A462124D6
:1001E000654676462F04360C3E432D0CB61A9D41CB
:1001F00004D3150C1B042B431204103465467646B9
:100200002F06360A3E432D0AB61A9D4104D3150E19
:100210001B022B4312020834654676462F07360927
:100220003E432D09B61A9D4104D3150F1B012B43E4
:100230001201241D65467646AF07B6083E43AD0859
:10024000B61A9D4104D3950F9B002B439200A41C2A
:1002500065467646EF0776083E436D08B61A9D411F
:100260001AD392185B41641C16E000187646654666
:100270004941B71A9D410191009009D36046B11AD6
:1002800098418E468446009801990025401C69419A
:10029000DD0752082A435B08641EE6D572466346B2
:1002A00003B0F0BDFFE700200146C046C0462A4625
:1002B0002346F5E701E004C0091F0429FBD28B07A0
:1002C00001D50280801CC90700D002707047002948
:1002D0000BD0C30702D00270401C491E022904D370
:1002E000830702D50280801C891EE3E70022EEE727
:1002F0000022DFE7002203098B422CD3030A8B4242
:1003000011D300239C464EE003460B433CD400220D
:1003100043088B4231D303098B421CD3030A8B421F
:1003200001D394463FE0C3098B4201D3CB01C01AED
:10033000524183098B4201D38B01C01A52414309B8
:100340008B4201D34B01C01A524103098B4201D3A6
:100350000B01C01A5241C3088B4201D3CB00C01A13
:10036000524183088B4201D38B00C01A524143088B
:100370008B4201D34B00C01A5241411A00D20146B0
:100380005241104670475DE0CA0F00D04942031049
:1003900000D34042534000229C4603098B422DD398
:1003A000030A8B4212D3FC22890112BA030A8B4240
:1003B0000CD3890192118B4208D3890192118B428F
:1003C00004D389013AD0921100E08909C3098B4214
:1003D00001D3CB01C01A524183098B4201D38B0157
:1003E000C01A524143098B4201D34B01C01A5241FA
:1003F00003098B4201D30B01C01A5241C3088B423F
:1004000001D3CB00C01A524183088B4201D38B0029
:10041000C01A5241D9D243088B4201D34B00C01AB3
:100420005241411A00D20146634652415B101046C8
:1004300001D34042002B00D54942704763465B1010
:1004400000D3404201B50020C046C04602BD7047FF
:10045000704770470246C80FC00781434B0030B554
:100460004B405B009B0D20D01923DB06C9180123EC
:100470001B05994220DB0324A40704251346AB4047
:100480000BD3002B04D1EB0613409B00E34204D4B2
:1004900001246407002312195941FF231B059942C7
:1004A0000BD2C9000143500F09E0CB0204D5014330
:1004B0000803024305D0054830BDFF21C9050843A4
:1004C00030BD084607210905884330BD0000C07FC4
:1004D000F0B5F94D0C091E092C402E402F468BB06B
:1004E000A7437DD0B543FCD0002E7AD0002CFCD0A1
:1004F0000D465D40ED0F2543AC1BFF25AD0464198F
:100500000894C502440DC9022143500DDC02044386
:100510000120C00701430443D2020191200C110CB9
:1005200000958C46010423468B430A9161460904D9
:10053000E24D8A430991010A7D44491980390978BD
:1005400005464D4301266D18F605751B6943C90C18
:10055000640B891C4C436418B5012C1B250C2E041C
:10056000B4434C434D43210C691889090591009D02
:10057000E90701D00121C90704912C4601996708B8
:10058000CD072F434C08059DE10B4D432D0C29460B
:100590006646754302950D4645432E46029D7D1BDA
:1005A000B44100950D465D4301942C0C2F040D467B
:1005B0005543AE462D0C3D43029503947546049C6D
:1005C0002D04641B049406D2029C039D641C002627
:1005D00075410395029401AC70CC009F7D1B01E036
:1005E0003EE162E1B4410904009507910194059947
:1005F000A4086143090C0C464443650BE7040C4610
:1006000066467443A646640B3C43039502947446C5
:10061000049DE4042C1B049406D2029C039D641CDC
:10062000002675410395029401AC70CC009F7D1BA0
:10063000B44101940C465C430095650FE7000C46FD
:100640005443A646640F3C43039502947446049DAC
:10065000E4002C1B049406D2029C039D641C00261B
:1006600075410395029401AC70CC009F7D1BB44191
:10067000AE09AF06049DC900AD092F43049DA40631
:10068000AD060495079D344369180791059DE10B5C
:100690004D432D0C29466646754302950D4645434C
:1006A0002E46029D7D1BB44100950D465D4301948D
:1006B0002C0C2F040D465543AE462D0C3D430295A0
:1006C00003947546049C2D04641B049406D2029C7A
:1006D000039D641C002675410395029401AC70CC07
:1006E000009F7D1BB44101948C050694079C890AE8
:1006F000611800950791019C0599A4086143090CB4
:100700000D464543680BEF040D46644665436C0B8C
:100710003C43049FED047D1BAC4602D20025641CC3
:100720006841009E019D371B85410846584301954D
:100730000C46460FC5005443600F28436546E4004D
:100740002C1B02D20025401C6E41019D3F1AB54171
:100750002846BD09800628438446A009BF064E02EC
:100760000699A40676180743079D002068410A9958
:10077000079019430020099B00906046FF1913431E
:100780004041E20F64003A43A4460446D71A8C4124
:10079000A04203D90120009020463A46C70F941882
:1007A00040416246D20F2243644664000494009C98
:1007B000BE466400D71AA446044602978C41774689
:1007C000002F01D1A04204D96046401C8446029A01
:1007D0002046C40FA64694184041049A0546D20FFD
:1007E000224364466400D31A8D417146002901D129
:1007F000A84202D928461A46641C10430122002848
:1008000000D0164361020020079B891904465C4111
:100810000223002C02DB491813466441089DCE0ACE
:100820002D145D194B056705E10A2C050D19089972
:100830003E43C9076940002B08D0934006D30022ED
:10084000761C5141002B01D1760876001C4A002D00
:1008500043DB154241D0AA433FD030460BB0F0BD38
:1008600006180D464D41174C7642AC411AD39518E7
:100870001C465C41134A6D42A24113D3012252052A
:100880004C00D4420AD15C00D4420BD04B4002D57C
:1008900092021143E2E749004908DFE75940C90FD6
:1008A000C90718E000200849D8E7054801420DD1E2
:1008B0000342F7D0F2E700000000FF07CC30000051
:1008C0000000F07F0000E0FF0000F87F1148594071
:1008D0000143C01241400020C0E70123089A9B0653
:1008E0009A4205DC032252078918C90FC907B5E7E8
:1008F000052252078918074A1143D2125140ADE729
:1009000070B515461C4602460B4628462146FFF7A1
:10091000DFFD70BDFFFFFF7F0121C90501234118E5
:1009200042001B06D3185B0E0AD0C1100722D20664
:10093000891840075242D14201D5520089187047A8
:10094000090208D50146002A03D0C10FC9070020BB
:10095000704710467047420202D00020024970479B
:10096000072109050143F4E70000F87FF0B5FF25F2
:100970002D04C609C209FF2704462E400137CB09C2
:100980003E4348402A402B400746002A6BD0002BAC
:1009900069D0AA4267D0AB4265D0002800DA32465F
:1009A0000125ED0529432C4309022002090AD21A28
:1009B0004B0C7F24E31A434C000A7C44E35C7D2407
:1009C0002404121914145B00A218884201D3521C8B
:1009D00000E0400049420C465C4324115C43DB01CB
:1009E0006415E318040A5C43C502200D0C46444319
:1009F0006419250A5D432303EC0C0D46654300038F
:100A00000019EB184C42A34201D35B18401CD405DB
:100A10002018002B07D05B00C91804D3401C002904
:100A200001D1400840003F2189048A4209D3002AAD
:100A300008DC1106090F04D0032149074018C00F34
:100A4000C007F0BD01224100120689187F2252061C
:100A50009142F6D205214907C84201D59010F0BD58
:100A6000FF20C005F0BD002F00DA32461648AA422A
:100A700007D2AB4205D21902090E17D0F80FC007F2
:100A8000F0BDFF2563002D06AB42F9D84900A9420D
:100A9000F6D8AB4201D1A942F2D0A94201D100213E
:100AA00001E061004908D0050843F0BD1102090EBC
:100AB000FBD0FF200243D005F0BD0A460146104698
:100AC00054E70000CA2C00000000C07F10B50146AA
:100AD0009E240002CA15A307002A02D01843002A48
:100AE00004DBA21A002A0CDDD04010BD1206120E43
:100AF00001D140004008A21A03D4D040404200284F
:100B0000F3DDFF2248001206904201D9002010BDFB
:100B1000C817C043584010BD0102C21504D00123BC
:100B2000DB071943002A0ADB9E239A1A02D40846DF
:100B3000D0407047FF2241001206914201D90020A7
:100B40007047C017C04370471F22030C02D10F2209
:100B500000041CD0030E01D10002083A030F01D19A
:100B60000001121F830F01D18000921E002801DBBB
:100B70004000521ED20551180212511819229040FD
:100B800004D3491C002801D1490849000846704790
:100B9000C10FC90700D04042012292071143D3E799
:100BA00001218907D0E7000010B5FF22C30D1340D3
:100BB00009D05A4007D0914205DA5C42A14202DDD9
:100BC000C905081810BDC40FE407002B06D0002A81
:100BD00006D0002902DBFF20C0050443204610BDDB
:100BE0004102FCD0004810BD0000C07F10B5FF23BB
:100BF0001B0644009C421DD84C009C421AD8034658
:100C0000124A0B4307D4401A02D3EFF3008010BD01
:100C1000EFF3008010BD081A06D2EFF30080012127
:100C20009043C907084302E0EFF30080904380F34C
:100C3000008810BD0D231B041A4204D01146002069
:100C400000F006F810BD00F01BF810BD0000009089
:100C5000C80212D54803400F002804D0C803C0437F
:100C6000012188407047EFF3008000010009032153
:100C70000907084380F30088704700207047000090
:100C800010B5024800F02BF810BD00000000C07F36
:100C9000754600F053F8AE46050069465346C00855
:100CA000C000854618B020B5FFF760FA60BC002789
:100CB0004908B6460026C0C5C0C5C0C5C0C5C0C528
:100CC000C0C5C0C5C0C5403D49008D46704710B580
:100CD0000446C046C0462046FFF737FA10BD10B59F
:100CE0000C461107090F092904D00A290AD008293E
:100CF0000CD104E011460820FFF7AAFF06E05106D8
:100D000006D501E0510601D50120C007214610BDDE
:100D1000D10607D501010909CC084907000E0006D4
:100D2000044309E0410F20024907000A0143200E55
:100D300000061D22D14101430846E7E700487047FD
:100D4000A001002001491820ABBEFEE726000200EA
:100D50007047FFB585B008461F460E9C079902F004
:100D6000E3FBE06001460090386802F04DFB206034
:100D700005980121C9070F9E109D4000000E4E40AE
:100D80004D40002804D07F20C0050599FFF7EEFDF7
:100D90000290216A079802F0C7FB029902F034FB27
:100DA00001460122B868D207504002F02DFBA06135
:100DB0003046009902F080FB01D2304607E0E0683F
:100DC0000F9902F079FB01D20F9800E0E068796892
:100DD00002F01AFB059902F017FB616802F0CEFAE7
:100DE00001466060284602F067FB01D2294607E011
:100DF0006068109902F060FB01D2109900E0616810
:100E00006160206802F0BAFAA16902F0B7FA606284
:100E10000798206209B0F0BDF8B51F4C07460121C4
:100E200009266068C905F606884204DAA2688A4283
:100E300001DA002219E04000000E09D00122402111
:100E4000304600F05CFD3846616802F061FB60608E
:100E5000A5686800000E0CD03846216802F08EFAB2
:100E60000E492060884205DA01224021304600F018
:100E700046FDF8BD09490A4A494241189142D8D372
:100E800008498842F5DB7F21C905284602F04CFB62
:100E9000A06000202060F8BD10000020CDCC4C3EAA
:100EA000CDCC4C009A99993E10B50C490C4C897FD9
:100EB000002903D10B494978002903D00020A06004
:100EC000607010BDA16802F059FA0749A06088421D
:100ED000F7DD01206070A16010BD0000300100202E
:100EE0001C0000207C0000200000964370B5114CCF
:100EF0000546A07F00281BD0FFF752FE294602F0CE
:100F000013FBFFF709FE0006000EA07710D10A4878
:100F10000A4A01884180518000210174084901205A
:100F2000087008484078002802D008490648086040
:100F300070BD0000300100208C0100204000002026
:100F4000380000207C000020CDCCCC3D14000020D7
:100F5000F1B5164E0025B078154C002822D0154862
:100F60000427C75F19204001874219DC6168009897
:100F700002F004FA10496060884202DD7570B570B5
:100F80006560DC2F0EDC2168009802F0F7F97F2104
:100F9000C9052060884202DD7570B5702560F8BD16
:100FA0002560EDE725606560F8BD00007C0000204D
:100FB000740000208C0100200000F04170B5104941
:100FC000002549780F4C002903D00F49897F00295B
:100FD00001D0656006E0616802F0D0F90B496060FD
:100FE000884201DCA57070BD0849C9434018084912
:100FF000884202D80120A07070BD656070BD0000FD
:101000007C0000201C00002030010020CDCC4C3F93
:101010003233330010B5064CE16802F0AFF97F219E
:10102000C905E060884202DB0020A080E06010BDBE
:101030008C010020F8B500241A4E01270546FF0256
:101040002846A040000610D5002C06D0012C06D062
:10105000022C06D0032C1FD105E001220FE0012253
:1010600010E0012211E0012212E0002C06D0012C38
:1010700007D0022C08D0032C0ED108E000228021DA
:1010800007E00022102104E00022082101E00022F4
:101090003946304600F033FC641CE4B2042CCFD354
:1010A000F8BD00000004004810B50B4C0022802160
:1010B000204600F024FC00221021204600F01FFCF6
:1010C00000220821204600F01AFC01210022C9025A
:1010D000204600F014FC10BD00040048F8B532486A
:1010E000324C81780420205E314D002915D0062134
:1010F000615E81420ADD00290CDD7F21C905E868B7
:1011000002F012FAE860FFF7E1FCE0800620205EC2
:10111000002815DC0020E86044E01021234A6156D5
:1011200002260327965F00290BD0012913D002293C
:101130002DD0032904D13046FFF72AFDE860E68070
:10114000F8BDB04219DA01212174FFF721FDE860F2
:10115000FFF7BCFCE0800620205EB04207DA1549AC
:10116000E86802F00BF9E860FFF7B0FCE0800620C9
:10117000205EB042E4DB2774F8BDB042FCDD022102
:101180002174FFF705FDE860FFF7A0FCE080062072
:10119000205EB042EFDD0749E86802F0C5F9E8607B
:1011A000FFF794FCE080F8BD7C0000208C0100205B
:1011B0001C000020CDCCCC3EF8B52E4C0546E07886
:1011C00026462D4F103601280CD002281DD00328AA
:1011D0002DD0042843D0052803D1FFF765FF002058
:1011E000E070F8BDBD420ADD7D21C9002846FFF749
:1011F0008BF8C0B2305C02F019F8802028E00020A3
:1012000026E00020FFF716FFF8BD632DF7DD64210F
:101210002846FFF779F8C0B2BD4203DD0A21FFF787
:1012200069F80846305C02F001F8402010E0092D12
:10123000E5DD0A212846FFF767F8C0B2632D03DD1C
:101240000A21FFF757F80846305C01F0EFFF202035
:10125000FFF7F0FE6078A1780843D2D1F8BD0A21EB
:101260002846FFF751F8C8B2305C01F0DFFF1020CC
:10127000EEE700001C000020E7030000F8B5214D58
:1012800007462989E86800F035FB2C460126203402
:10129000002802D1607900280AD02079012829D1BC
:1012A0002989E86800F026FB0128286A07D018E0A1
:1012B0003846296A02F062F828622671F0E712497E
:1012C000124A41180020914208D211494A78002A56
:1012D00011D08E700C490F4A494211602071607123
:1012E00028620D4940180D49884203D260790028D0
:1012F00000D16671F8BD4E700A4A094951600A4929
:101300000874E7E730010020333333C23333F3018D
:101310007C00002014000020FFFF3FC0FFFF7F0083
:101320000000C841640100208C0100200748012111
:101330000180022141800649042241600281C1608E
:101340000449016128210175704700003001002027
:1013500000040048C800002010B5064C3C21A08BBA
:1013600048431421FEF7C6FFFFF71AFCA0610020D6
:10137000A08310BD3001002010B5012000F0DCF981
:1013800010BD000010B5044800F098FE0821024886
:1013900001F05CF810BD00008000002072B6FEE78E
:1013A00006490020C8610648016904221143016111
:1013B00001694022114301617047000010010020C3
:1013C00000200240064A0021D16106490A69022331
:1013D0001A430A6148610869402210430861704756
:1013E000100100200020024010B5054B0022DA61F8
:1013F000044A1369012423431361018010BD0000D6
:10140000100100200020024010B50B4A0020D168D6
:10141000CB060A4904D5C86902231843C8611020C5
:10142000D3685B0705D5CB6901242343CB61042135
:101430000843D06010BD00000020024010010020D1
:1014400070B5054600F062FA0646104C0AE0681CCA
:1014500008D0002D04D000F059FA801BA84201D911
:10146000032070BDE068C007F1D1E068800601D5B7
:101470002020E060E068C00602D4E068400703D5A1
:10148000FFF7C2FF012070BD002070BD00200240A8
:1014900078B500220E4B4C1E15E0551CA5420ADC07
:1014A000D5182E886D462E802D7885546D466D7822
:1014B0008618757005E0D5182E886D462E802D781B
:1014C0008554921C92B28A42E7D3012078BD000075
:1014D00000700008F3B585B00D4600F0CBF8002091
:1014E0000121174F0190039100900297694601A8CE
:1014F00000F028F8002818D100246E1E1AE0601CA5
:10150000B042059805DC0019407801020598005D9D
:1015100002E0015DFF200002081882B20023E119F9
:10152000012000F069F8002802D0002007B0F0BDCB
:10153000A41CA4B2AC42E2D300F054F80120F5E7B9
:1015400000700008F8B5054623480F46017E0126C5
:1015500001290BD0012101762868204C012807D0F1
:101560002046FFF76DFF002813D030E00220F8BDC1
:101570002046FFF765FF002829D1FFF711FF20461D
:10158000FFF75EFF06461648016904229143016198
:101590001DE00020C04338606C6812E02046FFF771
:1015A00011FF0E48FFF74CFF06460D480269022165
:1015B0008A430261002E01D03C6008E001208002D5
:1015C0002418A868810268680818A042E6D8024872
:1015D000002101763046F8BD1001002050C3000004
:1015E000002002400348016980221143016100206C
:1015F0007047000000200240F0B51FB407461A48AB
:101600000024017E15461E46012907D001210176DE
:101610001648FFF715FF002803D020E0022005B090
:10162000F0BD012F02D0022F00D00427220128464E
:101630003146FEF7ADFD81B2019862001018FFF748
:10164000D3FE0A48FFF7FCFE09490A695208520016
:101650000A61002803D1641CE4B2BC42E6D302490B
:1016600000220A76DBE700001001002050C30000D2
:1016700000200240064900200A69120607D5054AE3
:101680004A60054A4A600969090600D50120704789
:101690000020024023016745AB89EFCDF8B5234C0C
:1016A00005462088A84240D1206900F007FD218826
:1016B0000027E07F33E0A94231D1206900F026FD08
:1016C000E777A08B401CA08319484078002801D000
:1016D000042000E00220A0776188606800F00AF929
:1016E000AF26F600134D012806D06188606800F02F
:1016F00001F9002809D014E02888FF21801B00B2DE
:1017000091312880884208DD0BE02888E12180198A
:1017100000B2C9002880884203DD298001E0022848
:10172000C9D9206900F0F2FCE777F8BD300100204C
:101730007C0000208C01002010B504494A69024257
:1017400002D04861FFF7AAFF10BD0000000401406D
:10175000F8B5002303240125BAE02E469E40B44686
:1017600032407CD00E79B607B60F012E01D0022E82
:1017700017D186682746B6465E00B7400096764683
:10178000BE43B646CF68009EB74076463743876073
:1017900046686746BE430F79FF06FF0F9F403743F9
:1017A00047600E79F643B6070ED0C6682746B446A2
:1017B0005E00B646B7406646BE43B4468F6876467E
:1017C000B74066463743C7600E79B607B60F022E9C
:1017D00014D1DE08B60036180096366A5F07B446A4
:1017E000FE0E0F27B646B7406646BE43B4460F69A5
:1017F0007646B74066463743009E376206682746FE
:10180000B4465E00B646B7406646BE430F79B4465E
:10181000BF07BF0F7646B7406646374307604E683E
:10182000B603B60F53D02D4FBE692E43BE61BE69BD
:101830009F08F607F60F2A4EBF00BE190096B6683D
:101840000F27B4469E07360FB646B7406646BE43DE
:101850000927FF06B446B84202D1002710E036E05F
:10186000204FB84201D101270AE01F4FB84201D1F1
:10187000022705E01D4FB84201D1032700E00527EC
:101880007646B74066463743009EB760184E3668C6
:101890004F689643FF0300D51643154F3E607E68A0
:1018A0004F689643BF0300D51643114F7E60BE6854
:1018B0004F689643FF0200D516430D4FBE60FE6889
:1018C0004F689643BF0200D51643094AD6605B1C99
:1018D0000A681646DE4000D03FE7F8BD001002401F
:1018E000000001400004004800080048000C0048C7
:1018F000000401400069084000D001207047002A20
:1019000001D08161704781627047000001488068A2
:1019100070470000000000200248816802788918A2
:10192000816070470000002010B506480168102251
:1019300011430160002000F007F800F027F80020B4
:1019400010BD00000020024070B504460D4D7D2002
:101950002978C000FEF7CEFC01460B480068FEF770
:10196000C9FC00F0BFFA002809D1042C07D20022DC
:101970002146401E00F02AF800206C6070BD012056
:1019800070BD0000000000200C00002008B50848D1
:101990008169012211438161816911400091C2690D
:1019A00001040A43C261C0690840009008BD0000FC
:1019B00000100240002805DBC106C90E0120884046
:1019C000014908607047000000E100E010B501F037
:1019D000A1FC10BDF8B50F46060059D03A4D286855
:1019E000C007C00FB84209D22868400840003843F9
:1019F00028602868C007C00FB84249D13068334C0E
:101A000081070CD5400704D5606807210902084307
:101A100060606068F0218843B16808436060307896
:101A2000C00726D0706801280ED0216802280ED089
:101A3000890700292CDA61688908890001436160FF
:101A4000FFF764FF00900DE021688903F1E7890149
:101A5000EFE7FFF75BFF0099411A1D48814201D96A
:101A60000320F8BD60680C21084071688900884235
:101A7000EFD12868C007C00FB8420BD928684008CA
:101A80004000384328602868C007C00FB84201D022
:101A90000120F8BD3078400706D5606807210902AB
:101AA0008843F1680843606000F018F86168094AEB
:101AB0000906090F515CC840074908600020FFF77C
:101AC00043FF0020F8BD000000200240001002404B
:101AD00088130000F83500080C00002010B514A38E
:101AE0000FCB88B06C460FC415A30FCB0FC4184A98
:101AF00051680C200B4603401648042B16D0082BC7
:101B000014D18B021B0F6C46E45CD26A04AB120743
:101B1000120F9A5CC90305D500231946FEF749FB4D
:101B2000214601E020460C4901F0CEFB08B010BD73
:101B300002030405060708090A0B0C0D0E0F10100E
:101B40000102030405060708090A0B0C0D0E0F100D
:101B50000010024000127A0000093D00FEB50400AA
:101B600070D02078DC4DC0074AD068680007800F2D
:101B7000012807D068680007800F022809D168682B
:101B8000C00306D5286880033AD560680028E7D0EE
:101B900036E06168012914D001208004002901D0B9
:101BA000052914D02A68012109048A432A6029687A
:101BB000814329606068002816D0FFF7A7FE06461B
:101BC0000EE028680121090408432860F2E729682B
:101BD00001432960F5E7FFF799FE801B64286ED862
:101BE00028688003F7D50BE0FFF790FE064604E077
:101BF000FFF78CFE801B6428F1D828688003F7D497
:101C000020780126800700283CDA68680007800FEA
:101C100007D068680007800F022809D16868C003F0
:101C200006D42868800716D5E06801280AD112E09A
:101C3000E0680028286816D030432860FFF766FE69
:101C4000074605E043E1FFF761FEC01B0228C6D846
:101C500028688007F7D52868F82188432169C900DA
:101C6000084328600EE0400840002860FFF74EFE61
:101C7000074604E0FFF74AFEC01B0228AFD82868D9
:101C80008007F7D42078000722D5E0690028686A29
:101C90000ED030436862FFF739FE074604E0FFF7D5
:101CA00035FEC01B02289AD8686A8007F7D50FE076
:101CB000400840006862FFF729FE074605E09DE006
:101CC000FFF724FEC01B022889D8686A8007F7D472
:101CD000207804274007002860DA00200190E86996
:101CE000C00008D4E969B8060143E961E969014027
:101CF00001200091019079480168C90511D401685B
:101D0000821511430160FFF701FE009005E0FFF727
:101D1000FDFD0099401A642870D870480068C0051D
:101D2000F5D5A06801280AD0002801D0052810D0D8
:101D3000286A400840002862286AB84301E0286AFF
:101D400030432862A068002812D0FFF7DFFD009022
:101D50000AE0286A38432862F1E7FFF7D7FD0099C7
:101D6000411A5F48814249D8286A8007F5D50DE0BD
:101D7000FFF7CCFD009006E0FFF7C8FD0099411A7F
:101D8000574881423AD8286A8007F5D4019800283C
:101D900004D0E969012000078143E9612078C00689
:101DA00035D5606901280CD0401D686B23D03843BD
:101DB0006863686B400840006863FFF7A7FD06464C
:101DC00022E0686B38436863686B30436863FFF7F1
:101DD0009DFD064604E0FFF799FD801B02285BD8B5
:101DE000686B8007F7D5686BF8218843A169C90043
:101DF000084368630BE0B8436863F4E74CE0FFF71F
:101E000085FD801B022847D8686B8007F7D4206ABD
:101E100000285ED069680907890F022942D001268F
:101E200036060228286805D0B0432860FFF76EFD0B
:101E3000044633E0B0432860FFF768FD074604E03E
:101E4000FFF764FDC01B022826D828688001F7D45C
:101E5000E86AE16A000900010843E862616AA06A71
:101E6000084369683D22120491430843686028686A
:101E700030432860FFF74AFD044604E0FFF746FDC3
:101E8000001B022808D828688001F7D521E0FFF759
:101E90003DFD001B022801D90320FEBD28688001FA
:101EA000F5D416E00128F8D06868E96A0122120426
:101EB000636A02409A420AD10907E26A090F914215
:101EC00005D10F2189040840A16A884201D0012070
:101ED000FEBD0020FEBD000000100240007000406A
:101EE00088130000094910B5401E884201D901201D
:101EF00010BD074C60610321081F01F00BFA0020A0
:101F0000A06107202061002010BD0000FFFFFF003E
:101F100000E000E07047704730B5034620331A7F79
:101F2000012A26D001221A770325CA682D02AA4366
:101F30008D6800242A430125AD02AA434D6800683C
:101F40002A430125ED02AA430D682A4301252D03EA
:101F5000AA430D692A4301256D03AA434D69C96946
:101F60002A430125AD03AA430A4342641C7700209B
:101F700030BD022030BD0000F0B502462032137F94
:101F8000012B1ED00125157702235377066874684C
:101F9000B3687027BC430F682743776000680A4C1A
:101FA000A04205D0094CA04202D0094CA04204D165
:101FB00080244968A3431943816055770020107736
:101FC000F0BD0220F0BD0000002C014000040040E4
:101FD0000040014070B5040005D025462035687FDB
:101FE000002802D006E0012070BD0020287720469E
:101FF00000F014F802206877211D206800F04AFFE5
:1020000001204034A071A877E87720706070A0703C
:10201000E070207160716877002070BD10B586B0E7
:10202000044614216846FEF763F9214A21682148D5
:10203000914229D18269C1140A43826182690A40AE
:102040000592426989010A4342614069084005904E
:10205000C811009000200221029003900191049188
:1020600009206946C006FFF773FB002211460D20C8
:10207000FFF7ACFC0D20FFF79DFC002211460E205F
:10208000FFF7A4FC0E200FE00B4A91420ED1C2696B
:1020900010210A43C261C069002208400590022154
:1020A0001120FFF793FC1120FFF784FC06B010BD50
:1020B000002C014000100240001000400146203179
:1020C0004A7F012A01D00120704702224A77026824
:1020D000D36801210B43D3600068094A904205D0C0
:1020E000084A904202D0084A904204D182685207BE
:1020F000520F062A02D002680A430260002070478D
:10210000002C014000040040004001400168CA6802
:1021100052085200CA6001680A6A084B1A4207D185
:102120000A6A9B101A4203D10A68520852000A60D8
:10213000012120304177002070470000111100007C
:10214000F8B5054604462035287F0026012817D01B
:102150000120287702206877226890687727FF237C
:10216000B8431B02984390600868502838D00EDCB2
:1021700020284FD006DC00284CD010281ED149E082
:102180000220F8BD302845D0402817D13AE0602819
:102190002ED0702819D001221203801A0FD090423D
:1021A0000CD1CB684A688968206800F0C4FE2068BA
:1021B0008168012292031143816000E00126012021
:1021C0006877002028773046F8BDCB684A68896870
:1021D000206800F0B0FE2168886838438860EEE728
:1021E000CA684968206800F0B5FF5021206806E001
:1021F000CA684968206800F0E7FF6021206800F0A5
:10220000A5FEDCE7CA684968206800F0A3FF40210A
:102210002068F4E7226801461046F0E770B5284CC4
:10222000207800283FD160780025012600283BD087
:10223000267065700821234800F048FBE16864229D
:102240004118A1606088504340186061FEF7A8FC07
:10225000FEF762FB00221C4BFEF73AF902460B46E2
:1022600000201A49FEF734F9FEF7F4F81849206106
:1022700001F0CAF8691EFEF797FCFEF74DFC154900
:10228000A061888065600F48CD6001684D6200687C
:10229000016A114A114206D1016A9210114202D11B
:1022A0000168B143016070BD6580A560667008215A
:1022B000044800F00BFBE0602570666070BD000014
:1022C000480000208000002080842E410000F03F64
:1022D000000070428C01002011110000F8B5044686
:1022E0000020264620360090307F0D4601280ED073
:1022F00001203077002A0CD0042A19D0082A2AD0CD
:102300000C2A4ED00090002030770098F8BD0220B3
:10231000F8BDEB6806CD083D206800F02DFF206871
:1023200082690C218A43826120688169AA680FE072
:10233000EB6806CD083D206800F059FF20688169F0
:10234000032292029143816120688169AA68120286
:1023500011438161D7E788CD287921688446086ACE
:10236000FF22013290430862C8690A6A800880002F
:102370003843F027B84367463F073F0E0743052021
:10238000400282430A20034018021043CF610862D2
:102390002068C1690C229143C1612068C1692A6823
:1023A0002CE02B6820689E466F682B7B016ABC4638
:1023B0000122120391430162C169026A03273F02AD
:1023C000B94367463F020F430F2109038F431907A3
:1023D000090C052339435B039A4373460A273B40A4
:1023E0001B031343C16103622068C2690321890290
:1023F0008A43C2612068C169AA6812021143C1619F
:1024000081E770B5040005D025462035687F002897
:1024100002D006E0012070BD00202877204600F0A1
:1024200014F802206877211D206800F033FD012098
:102430004034A071A877E87720706070A070E070D9
:10244000207160716877002070BD704770B50346D9
:102450000446002520334030002908D0042909D043
:1024600008290AD046784279012E0BD108E09E7FD8
:102470008278F9E7DE7FC278F6E706780279F3E73B
:10248000012A01D0012070BD0222002909D00429AF
:102490000ED0082912D0427042710C292ED001258D
:1024A0002AE09A7782702068C3681343C3600CE007
:1024B000DA77C2702068C268042304E002700271F7
:1024C0002068C26808231A43C2600122206800F015
:1024D00025FD0C4A20680121904205D00A4A90420D
:1024E00002D00A4A904204D182685207520F062A4B
:1024F00002D002680A430260284670BD2068C268A4
:102500001023E0E7002C014000040040004001409F
:1025100070B50446006801690025C9438907002990
:1025200015DBC168C943890711D4E91E0161012087
:102530002077206880698007204602D0FFF76EFE72
:1025400004E000F0BFF8204600F04AF92577206843
:102550000169C943490717D4C168C943490713D45E
:102560000421C94301610220207720688069800529
:10257000800F204602D0FFF751FE04E000F0A2F8E1
:10258000204600F02DF9257720680169C943090725
:1025900016D4C168C943090712D40821C94301618F
:1025A000042020772068C0698007204602D0FFF70A
:1025B00035FE04E000F086F8204600F011F925779A
:1025C00020680169C943C90617D4C168C943C9064F
:1025D00013D41021C9430161082020772068C06905
:1025E0008005800F204602D0FFF718FE04E000F0BF
:1025F00069F8204600F0F4F8257720680169C9439E
:10260000C90708D1C168C943C90704D1891E01613E
:10261000204600F03BF920680169C943090609D446
:10262000C168C943090605D48021C9430161204618
:10263000FFF770FC20680169C943490609D4C168E5
:10264000C943490605D44021C9430161204600F031
:1026500053F920680169C943890609D4C168C9438F
:10266000890605D42021C94301612046FFF753FCA8
:1026700070BD000010B586B0044614216846FDF711
:1026800037FE0E492068884215D10D484269012164
:1026900049040A434261406908400590481200908D
:1026A00000200221029003900191049109206946C3
:1026B000C006FFF74DF806B010BD0000002C014029
:1026C000001002407047F8B5064604462036307FB9
:1026D00000270D4601280ED001203077002A0CD0AB
:1026E000042A1BD0082A2FD00C2A3ED00127002014
:1026F00030773846F8BD0220F8BD206800F02EFC87
:10270000206881690822114381612068826904215F
:102710008A438261206881692A6912E0206800F09A
:1027200061FC206882690121C9020A438261206834
:1027300081690122920291438161206881692A693D
:10274000120211438161D2E7206800F08BFC2068FF
:10275000C16908221143C1612068C26904218A430A
:10276000C2612068C1692A6912E0206800F0BCFCDF
:102770002068C1690122D2021143C1612068C26987
:10278000012189028A43C2612068C1692A69120253
:102790001143C161ABE770B5040005D02546203573
:1027A000687F002802D006E0012070BD0020287755
:1027B000204600F014F802206877211D206800F000
:1027C00069FB01204034A071A877E8772070607021
:1027D000A070E070207160716877002070BD704754
:1027E0007047000030B504460222203000290AD08C
:1027F00004290DD02046403008290ED04378012B03
:1028000010D0012030BD837F012BFAD182770AE0FE
:10281000C37F012BF5D1C27705E00378012BF0D1FE
:10282000027000E042700122206800F077FB12493C
:102830002068124B884207D0984205D0104A904237
:1028400002D0104A904204D1426C0125ED032A4384
:10285000426420680122884204D00B49884201D09A
:10286000984204D181684907490F062902D00168BE
:1028700011430160002030BD002C014000400140A8
:102880000044014000480140000400400A4A016839
:102890001268914203D1094AD17F491CD17700685F
:1028A0000749884207D107480068002803D0064935
:1028B0000888401C08807047C800002030010020B4
:1028C000002C01404C0000204A000020024600205D
:1028D000002908D0042909D008290AD00C2901D1DF
:1028E0001068006C70471068406B70471068806B10
:1028F00070471068C06B70477047FEE710B50E4810
:102900000188491C01804188491C41808188491CFB
:102910008180C188491CC1800189491C018141898C
:10292000491C41818189491C8181C189491CC1811E
:1029300000F0E8F910BD000064000020F0B587B099
:1029400014216846FDF7D4FC2C4842690121890511
:102950000A43426142690A400592426949110A43A9
:10296000426142690A400592426949000A43426154
:102970004069234C08400927FF06059000222146A4
:102980003846FEF7BCFF1F4E002231461E48FEF7B8
:10299000B6FF00940024012501950294694638464B
:1029A0000394FEF7D5FE11200004019000956946BE
:1029B00002951548FEF7CCFE02206A4631C26946F0
:1029C0001148FEF7C5FE0420009001946946029468
:1029D0000D48FEF7BDFE029469460B48009601952E
:1029E0000394FEF7B5FE002201210520FEF7EEFF5D
:1029F0000520FEF7DFFF07B0F0BD00000010024029
:102A000040880000F8F800000004004810B59AB0B3
:102A10000024139414941594169417941C2108A858
:102A20001894FDF765FC0F941094119420216846CA
:102A30001294FDF75DFC354833490160172184602D
:102A4000416004614461C7218461C160FFF7C2FA3B
:102A5000002801D0FEF7A2FC01200003139013A967
:102A60002A48FFF76DFB002801D0FEF797FC2748A6
:102A7000FFF791FE002801D0FEF790FC2348FFF7F6
:102A8000C0FC002801D0FEF789FC179417A91F4845
:102A90001894FFF771FA002801D0FEF77FFC602040
:102AA0000D94099408900A940B940C94002208A9A0
:102AB0000E941648FFF707FE002801D0FEF76EFCC3
:102AC000012010900F94119408220FA912940F481E
:102AD000FFF704FC002801D0FEF760FC0120009401
:102AE000400302940590019403940494694607946A
:102AF0000648FFF711FA002801D0FEF74FFC034803
:102B0000FFF7B8FD1AB010BD002C01408000002076
:102B100010B50A4808490160FF21E03141600021F9
:102B200081606321C16080218161FFF753FA002831
:102B300001D0FEF733FC10BD00100040C80000209B
:102B4000F1B5224A0121537809200026C902C006A6
:102B50001F4D204C84B0002B31D09278002A0ED02B
:102B6000606A4100090E04D07F21C90500F0DCFC39
:102B70006062FDF7D1FF2968486305B0F0BD01220E
:102B8000FEF7BDFE144F0420385EFEF701F80390F7
:102B90000220385EFDF7FCFF014610480D4B019006
:102BA00002900C3B0094039A0498FEF7D2F8FF21A0
:102BB000606AC905C84200D36662606AD9E700222C
:102BC000FEF79DFE00206662D5E700007C00002035
:102BD00080000020640100208C01002000001643CA
:102BE00010B500210548FFF7FDFD01210920002255
:102BF000C902C006FEF783FE10BD00008000002061
:102C00000448034901600449416000218160704724
:102C10000BD7233D5801002090C2753DFEE7000010
:102C200070B506211048FEF733FC0F4C0F4E20788C
:102C3000234601220E4D083BAA2802D12079FF2805
:102C400006D000F017F860883080AA771A7005E087
:102C500060883080AA771878002803D00020187088
:102C600000F014F870BD0000400000208C0100202E
:102C7000300100200448AA210170FF2191314180D8
:102C8000FF210171704700004000002010B50621AF
:102C90000148FEF71FFC10BD400000207047704740
:102CA00070B50E4D2878012817D1E8780D4C401CDE
:102CB000E8700B4841780020205E002903D00A49C3
:102CC000897F002901D0E08001E0FEF707FA0620A5
:102CD000205EFEF771FA0020287070BD1C000020F5
:102CE0007C0000208C0100203001002010B5FEF790
:102CF00013FE03480078002801D0FFF7FFFD10BD48
:102D00007C00002070B5254D00242888002800D0C4
:102D10002C806888022803D32149012008706C8028
:102D2000A8880A2803D31F48FEF7A8FAAC80E888D1
:102D3000142803D31C4800F074FAEC802889322848
:102D400007D31A4E3046FFF7FBFE3046FEF764F815
:102D50002C816889642807D3154E3046FEF7F8F8B1
:102D60003046FEF7A1F86C81A889FF21F531884231
:102D700008D33F2636063046FEF7B8F83046FEF751
:102D800049F9AC81E8897D21C900884204D37F20BC
:102D9000C005FEF7E1FAEC8170BD00006400002080
:102DA0001C0000200AD7233C0AD7A33CCDCC4C3DC5
:102DB000CDCCCC3D30B591B030216846FDF798FAC6
:102DC00000240120009001900E94000409900F94BB
:102DD00000010D9402250A900C9408950B94684606
:102DE000FEF7BCFE002801D072B6FEE707200C906B
:102DF0000E9401210D950F940CA8FEF7EBFD002811
:102E000001D072B6FEE711B030BD704710B5094C65
:102E100000202070FEF78AFAFFF702FFFFF7E0FEBE
:102E2000FEF7B0FAFFF7ECFE044903480860012002
:102E3000207010BD7C000020CDCCCC3D14000020C3
:102E400010B50248FFF764FB10BD000080000020B1
:102E500010B50248FFF75CFB10BD000080000020A9
:102E600006480178002908D0054909680A68012345
:102E70001A430A6000210170418070474800002019
:102E80008000002010B50248FFF742FB10BD000093
:102E9000C8000020F0B502681A4B1B4C984201D0C4
:102EA000A04203D17025AA434D682A43174D184EFE
:102EB000184F98420AD0A04208D0174CA04205D023
:102EC000A84203D0B04201D0B84205D11446032233
:102ED00012029443CA6822438024A2434C692243CD
:102EE00002608A68C2620A688262984205D0A8427B
:102EF00003D0B04201D0B84201D109690163012178
:102F00004161F0BD002C0140000400400040014040
:102F100000440140004801400020004010B5CB06AD
:102F2000DB0E0121046A99408C430462016A9A40D5
:102F30001143016210BD30B58468FF252D021B02CC
:102F40001343AC430B432343836030BD826870233B
:102F50009A430A4307210A4382607047F0B5026A28
:102F6000520852000262056A436882697024A243D3
:102F700092080C6892001443022295438A68164E08
:102F80002A43144DA84207D0B04205D0134FB8428F
:102F900002D0134FB84206D10827BA43CF6817436F
:102FA000042297433A46A84207D0B04205D00B4DC1
:102FB000A84202D00A4DA84206D103252D02AB43F8
:102FC0004D691D438B692B434360846149684163AC
:102FD0000262F0BD002C014000400140004401406D
:102FE0000048014070B5026A10239A430262056AE4
:102FF0004268836973242402A3430C6824021C439F
:1030000020239D438B681B012B43124DA84208D1FE
:103010001D46CB688026B5431B012B434025AB439F
:1030200008E00D4DA84205D00C4DA84202D00C4D31
:10303000A84208D10325AD02AA434D69AD0015434E
:103040008A6992002A43426084614968816303620D
:1030500070BD0000002C01400040014000440140D0
:103060000048014070B5026AFF2301339A430262AF
:10307000056A4368C2697024A24392080C689200F2
:1030800014430122520295438A6812022A43124DC8
:10309000A84208D11546CA68C614B54312022A438D
:1030A0000515AA4308E00D4DA84205D00C4DA842D5
:1030B00002D00C4DA84208D103252D03AB434D6926
:1030C0002D011D438B691B012B434360C46149687B
:1030D000C163026270BD0000002C0140004001404D
:1030E000004401400048014030B5026A01231B033F
:1030F0009A430262046A4268C36973252D02AB4396
:103100000D682D021D4301235B039C438B681B0349
:1031100023430C4CA04208D00B4CA04205D00B4CD2
:10312000A04202D00A4CA04205D10124A403A2432C
:103130004C69A40122434260C5614968016403628D
:1031400030BD0000002C014000400140004401401F
:103150000048014030B5036A046A640864000462F0
:103160008469F025AC43120122430A24A3430B4394
:103170008261036230BD000070B5046A64086400B7
:1031800004628469056A0D4EB04205D00C4EB0420F
:1031900002D00C4EB04202D1A408A40000E00122EB
:1031A0001443F02294431A07120E0A2322439D432C
:1031B000194029438261016270BD0000002C01406A
:1031C000000400400040014030B5036A1024A343CE
:1031D00003628469036A0F252D031203AC43224363
:1031E000A024A343090119438261016230BD70B577
:1031F000046A1025AC4304628569046A032636021A
:10320000B54312022A430F252D031B071B0CAA43AB
:103210001343A022090194431140214383610162B9
:1032200070BD10B5FDF7CAFE10BD0000F8B5092647
:103230000024F606012705467F032846A040000625
:1032400017D5230000F058F8070507090D0F1113D3
:103250002600002216E0002217E0002220E0194894
:1032600016E000221FE0002221E0002223E00022DD
:1032700024E0230000F040F807050813161A1E2169
:103280000E0001224021EAE701220121C903304654
:10329000FEF735FB641CE4B2072CCED3F8BD012247
:1032A0003946DCE7012201218903D8E70122012107
:1032B000C903D4E701222021D1E70122012109031A
:1032C000CDE7000000040048F8B5040C8BB2264698
:1032D00082B25E430D0C1046370C584336048019F9
:1032E0000021794116466E43370C36048019794126
:1032F00026466E438919F8BD30B47446641E25789D
:10330000641CAB4200D21D46635D5B00E31830BC19
:10331000184700008307FF22DB0E9A408907090E39
:103320009940002808DB830809489B001B1818688F
:1033300090430843186070470007000F083883085F
:1033400004489B001B18D86990430843D861704714
:1033500000E400E000ED00E0FEF7E6FAFFF72AFDEA
:10336000FFF7ECFAFFF752FBFFF7D2FBFFF74EFD3A
:10337000FFF796FCFFF774FDFAE7000070B5012532
:103380000400ED074C4020D4441A01D2001B091957
:10339000C60D4B00F2B2FF2A29D01B0E2CD0000222
:1033A0000C02D31A2C43DC402843051910D2280AFA
:1033B00002D3401C6D0611D0761EF6058019FF2A37
:1033C00000DA70BDC00DC00570BD694000F0B2F8F4
:1033D00001200543C541521C761CE8E764089C4067
:1033E000C90161408900E7D10124A043E4E71B0E35
:1033F000440200D0034870BD002AFCD1C00FC007B2
:1034000070BD00BF0000C07F70B5420064414B003A
:103410005C41120E39D01B0E38D0FF2A3CD0FF2B56
:103420003AD040024902400A490A060045184E4374
:10343000000A090AD2184843ED017F3A0104731AC1
:103440004019190C4318990F04D001215B08490752
:103450005B1A521CD80904D3401CF50301D19D0608
:1034600007D0FF2A08D2D50506D0E407204340192B
:1034700070BD0125A843F4E7002A01DCE00770BD18
:103480002402FF202043C00570BD1B0EFF2A03D07D
:10349000FF2B01D0E00770BDFF2645003606B54280
:1034A00006D84D00B54203D8D218FF2A00D0E7E76E
:1034B000004870BD0000C07F01230A00DB05024305
:1034C0000DD4DA4203D49A4207D481427047D942DC
:1034D00014D4D84212D48142704789427047DA42EC
:1034E00003D59A42F9D5884270475B004A00DA4218
:1034F00004D24200DA4201D288427047484041403B
:1035000010B5024A4840FDF771FB10BD09001604D2
:1035100070B50125ED07684004004C4002D56940B4
:1035200000F008F8FFF730FF70B501250400ED0743
:103530004C4022D4441A02D26C40001B0919C60D1B
:103540004B00F2B2FF2A4BD01B0E50D000020C02EF
:10355000D31A2C43DC40A843051B05D5AD0019D375
:103560006D08761E521E37D0F605280A01D2801942
:1035700070BD70416D0603D070BD6940FFF704FF58
:103580009C4009026140490001D0401E70BD0124E9
:10359000A04370BD6D081DD001202B0C01D12D045E
:1035A00010302B0E01D12D0208302B0F01D12D012F
:1035B000001DAB0F01D1AD00801CEB0F01D16D00E0
:1035C000401C6D00361A121A680AF5054019012AC6
:1035D00002DB70BD002070BDC036300AC00770BD70
:1035E0001B0E440201D1FF2B00D1024870BD002AFE
:1035F000F0D070BD0000C07F00000000000000009F
:10360000010203040607080980807F7E7D7C7B7AA7
:103610007978777676757473727171706F6E6E6D7E
:103620006C6C6B6A6A696868676666656464636324
:1036300062616160605F5F5E5E5D5D5C5C5B5B5AAA
:103640005A59595858575756565555555454535317
:1036500052525251515050504F4F4F4E4E4D4D4D72
:103660004C4C4C4B4B4B4A4A4A49494948484847BD
:1036700047474746464645454544444444434343FB
:103680004342424242414141818283848586878808
:10369000898B8C8D8E8F919293959697999A9C9DFC
:1036A0009FA0A2A3A5A7A8AAACAEB0B2B3B5B7B964
:1036B000BCBEC0C2C5C7C9CCCED1D4D7D9DCDFE22D
:1036C000E6E9ECF0F3F7FAFEE83600080000002027
:1036D00080000000F8000008683700088000002023
:1036E0008007000014010008010000000400000031
:1036F0000000000000127A0000000000000000003E
:1037000000000000000000000000000000000000B9
:1037100000000000FC60DAF266B6BEE0FEF60000D3
:103720000000000000000000000000000000000099
:103730000001000001000000000000000000000087
:103740000000000000000000000000000000000079
:103750000000000000000000000000000000000069
:08376000000000000000000061
:04000005080000B53A
:00000001FF
