:020000040800F2
:10000000700E002059010008F52400087B2000082C
:1000100000000000000000000000000000000000E0
:10002000000000000000000000000000F9240008AB
:100030000000000000000000F7240008FD24000874
:100040006B010008000000006B0100086B01000854
:100050006B0100086B0100086B0100086B010008D0
:10006000000000006B010008350700084507000884
:100070006B0100086B0100086B0100080000000024
:100080006B010008A9260008000000006B010008B1
:10009000352600086B0100086B0100086B010008A1
:1000A0006B0100086B0100086B010008992D000826
:1000B0006B01000800F002F800F03EF80CA030C818
:1000C000083824182D18A246671EAB4654465D46D4
:1000D000AC4201D100F030F87E460F3E0FCCB64660
:1000E0000126334200D0FB1AA246AB4633431847E1
:1000F000FC2F00001C300000103A02D378C878C1F1
:10010000FAD8520701D330C830C101D504680C6059
:10011000704700000023002400250026103A01D378
:1001200078C1FBD8520700D330C100D50B607047AF
:100130001FB51FBD10B510BD00F081FA1146FFF7C5
:10014000F7FF02F06BFE00F099FA03B4FFF7F2FF3D
:1001500003BC00F09FFA00000748804707480047AB
:10016000FEE7FEE7FEE7FEE7FEE7FEE70448054997
:10017000054A064B70470000E5250008B500000859
:1001800070080020700E0020700A0020700A002005
:10019000FEB5054610460C46184373D0AE468C4655
:1001A0000020AD1A01469C4167D366460027012412
:1001B0003D46B61A9D4102D313463A462124654670
:1001C00076462F04360C3E432D0CB61A9D4104D3BF
:1001D000150C1B042B4312041034654676462F067B
:1001E000360A3E432D0AB61A9D4104D3150E1B0252
:1001F0002B4312020834654676462F0736093E43E4
:100200002D09B61A9D4104D3150F1B012B43120172
:10021000241D65467646AF07B6083E43AD08B61ABC
:100220009D4104D3950F9B002B439200A41C65466F
:100230007646EF0776083E436D08B61A9D411AD3FD
:1002400092185B41641C16E00018764665464941E9
:10025000B71A9D410191009009D36046B11A9841A7
:100260008E468446009801990025401C6941DD07AF
:1002700052082A435B08641EE6D57246634603B003
:10028000F0BDFFE700200146C046C0462A4623468F
:10029000F5E701E004C0091F0429FBD28B0701D553
:1002A0000280801CC90700D00270704700290BD063
:1002B000C30702D00270401C491E022904D38307E1
:1002C00002D50280801C891EE3E70022EEE70022AF
:1002D000DFE7002203098B422CD3030A8B4211D3A0
:1002E00000239C464EE003460B433CD400224308C7
:1002F0008B4231D303098B421CD3030A8B4201D3B7
:1003000094463FE0C3098B4201D3CB01C01A52414E
:1003100083098B4201D38B01C01A524143098B429E
:1003200001D34B01C01A524103098B4201D30B0187
:10033000C01A5241C3088B4201D3CB00C01A5241AC
:1003400083088B4201D38B00C01A524143088B4271
:1003500001D34B00C01A5241411A00D2014652410A
:10036000104670475DE0CA0F00D04942031000D329
:100370004042534000229C4603098B422DD3030A7E
:100380008B4212D3FC22890112BA030A8B420CD38E
:10039000890192118B4208D3890192118B4204D3B7
:1003A00089013AD0921100E08909C3098B4201D337
:1003B000CB01C01A524183098B4201D38B01C01A71
:1003C000524143098B4201D34B01C01A52410309E8
:1003D0008B4201D30B01C01A5241C3088B4201D397
:1003E000CB00C01A524183088B4201D38B00C01A44
:1003F0005241D9D243088B4201D34B00C01A52411B
:10040000411A00D20146634652415B10104601D3A7
:100410004042002B00D54942704763465B1000D331
:10042000404201B50020C046C04602BD704770473B
:1004300070470000F0B5FF252D04C609C209FF274B
:1004400004462E400137CB093E4348402A402B400A
:100450000746002A6BD0002B69D0AA4267D0AB4276
:1004600065D0002800DA32460125ED0529432C43EA
:1004700009022002090AD21A4B0C7F24E31A434CCA
:10048000000A7C44E35C7D242404121914145B00EC
:10049000A218884201D3521C00E0400049420C4699
:1004A0005C4324115C43DB016415E318040A5C43DC
:1004B000C502200D0C4644436419250A5D432303FD
:1004C000EC0C0D46654300030019EB184C42A342A7
:1004D00001D35B18401CD4052018002B07D05B000B
:1004E000C91804D3401C002901D1400840003F2115
:1004F00089048A4209D3002A08DC1106090F04D0B6
:10050000032149074018C00FC007F0BD0122410078
:10051000120689187F2252069142F6D20521490718
:10052000C84201D59010F0BDFF20C005F0BD002FDE
:1005300000DA32461648AA4207D2AB4205D2190267
:10054000090E17D0F80FC007F0BDFF2563002D0678
:10055000AB42F9D84900A942F6D8AB4201D1A94231
:10056000F2D0A94201D1002101E061004908D00583
:100570000843F0BD1102090EFBD0FF200243D00555
:10058000F0BD0A460146104654E70000262C000044
:100590000000C07F10B501469E240002CA15A307C3
:1005A000002A02D01843002A04DBA21A002A0CDD1C
:1005B000D04010BD1206120E01D140004008A21A10
:1005C00003D4D04040420028F3DDFF224800120649
:1005D000904201D9002010BDC817C043584010BD3B
:1005E0001F22030C02D10F2200041CD0030E01D1E4
:1005F0000002083A030F01D10001121F830F01D13D
:100600008000921E002801DB4000521ED2055118C6
:10061000021251181922904004D3491C002801D11C
:100620004908490008467047C10FC90700D0404239
:10063000012292071143D3E701218907D0E77546CC
:1006400000F024F8AE46050069465346C008C000D5
:10065000854618B020B5FFF789FD60BC0027490822
:10066000B6460026C0C5C0C5C0C5C0C5C0C5C0C54A
:10067000C0C5C0C5403D49008D46704710B5044611
:10068000C046C0462046FFF760FD10BD00487047D9
:100690000C08002001491820ABBEFEE7260002002E
:1006A00070470000F1B51F4C0121C905092760689A
:1006B0000E12FF06884204DAA2688A4201DA00229A
:1006C00019E04000000E09D001223146384600F002
:1006D000F7F96168009802F059FC6060A56868004D
:1006E000000E0CD02168009802F0B2FB0E49206089
:1006F000884205DA01223146384600F0E1F9F8BDBA
:1007000009490A4A494241189142D8D308498842C6
:10071000F5DB7F21C905284602F044FCA0600020DB
:100720002060F8BD30000020CDCC4C3ECDCC4C003C
:100730009A99993E10B5024800F078F810BD000073
:10074000FC01002010B5024800F070F810BD000058
:100750004002002010B504460068054940181421E5
:10076000FFF7B7FD800020640248E06310BD000081
:10077000F8FFFDBF0000024010B50021014801F064
:100780007DF910BD6C01002010B5044800F0E6FDB5
:100790000021024800F006FF10BD00009400002078
:1007A00072B6FEE730B5014620314B780022022BAD
:1007B00004D0042383630A70012030BD03681C68E1
:1007C0000E25AC431C6003681C68640864001C6050
:1007D0000123056C1C46C06BAC4044604B700A7032
:1007E000002030BD70B50024014620314A78022A2D
:1007F00003D004218163012416E0026813680E25EA
:10080000AB431360026813685B085B00136001224E
:10081000056C1346AB40C56B6B604A7000220A70D2
:10082000416B002900D08847204670BDF0B4C16BF1
:100830000D6801680C680422066C1346B3402B4215
:100840000DD063070BD50B689B0602D40B6893434E
:100850000B60016C8A40C16B4A60C16A19E00227D3
:10086000B74002462F4001232032002F15D0A707A2
:1008700013D50C68A40604D40C680A25AC430C609C
:100880005370036C02219940C36B596000211170B1
:10089000816A002916D0F0BC08470827B7402F42CC
:1008A00010D024070ED50C680E25AC430C60046CE8
:1008B0001946A140C46B61608363537000211170BD
:1008C000016BE6E7F0BC704770B5040021D002214F
:1008D0002046203005464170226811680E48A36802
:1008E0000140606826691843E3683343184363692D
:1008F0001843A3691843E36918430843106020466E
:10090000FFF728FF0021A1630120687029700846C5
:1009100070BD012070BD00000FC0FFFFF8B50023BF
:1009200003240125BAE02E469E40B44632407CD0D6
:100930000E79B607B60F012E01D0022E17D18668A8
:100940002746B6465E00B74000967646BE43B6469A
:10095000CF68009EB7407646374387604668674653
:10096000BE430F79FF06FF0F9F40374347600E7964
:10097000F643B6070ED0C6682746B4465E00B646B4
:10098000B7406646BE43B4468F687646B740664673
:100990003743C7600E79B607B60F022E14D1DE08B2
:1009A000B60036180096366A5F07B446FE0E0F276B
:1009B000B646B7406646BE43B4460F697646B74072
:1009C00066463743009E376206682746B4465E0097
:1009D000B646B7406646BE430F79B446BF07BF0F61
:1009E0007646B7406646374307604E68B603B60F93
:1009F00053D02D4FBE692E43BE61BE699F08F607D6
:100A0000F60F2A4EBF00BE190096B6680F27B446EF
:100A10009E07360FB646B7406646BE430927FF0617
:100A2000B446B84202D1002710E036E0204FB84269
:100A300001D101270AE01F4FB84201D1022705E08A
:100A40001D4FB84201D1032700E005277646B74085
:100A500066463743009EB760184EB6684F689643A7
:100A6000FF0200D51643154FBE60FE684F689643DF
:100A7000BF0200D51643114FFE607E684F68964353
:100A8000BF0300D516430D4F7E603E684F68964306
:100A9000FF0300D51643094A16605B1C0A68164618
:100AA000DE4000D03FE7F8BD0010024000000140EA
:100AB0000004004800080048000C00480004014001
:100AC000002A01D0816170478162704701488068C7
:100AD00070470000000000200248816802788918F1
:100AE000816070470000002010B5064801681022A0
:100AF00011430160002000F007F800F027F8002003
:100B000010BD00000020024070B504460D4D7D2050
:100B10002978C000FFF7DDFB01460B480068FFF7AE
:100B2000D8FB00F02DFB002809D1042C07D20022AD
:100B30002146401E00F02AF800206C6070BD0120A4
:100B400070BD0000000000200C00002008B508481F
:100B50008169012211438161816911400091C2695B
:100B600001040A43C261C0690840009008BD00004A
:100B700000100240002805DBC106C90E0120884094
:100B8000014908607047000000E100E010B502F084
:100B900023F910BDF8B505460068354CC00352D5A1
:100BA000E0690026C00007D4E16920040143E16147
:100BB000E1690140012600912E480168C90510D461
:100BC0000168821511430160FFF780FF074604E0CA
:100BD000FFF77CFFC01B642824D826480068C005A6
:100BE000F6D5206A03273F02384020D06968394093
:100BF00081421CD0206A226AB843012109040A43B9
:100C00002262226A8A4322622062C0070FD0FFF765
:100C10005DFF009008E0FFF759FF0099411A164860
:100C2000814201D90320F8BD206A8007F3D5206AEC
:100C30006968B84308432062002E04D0E1690120AE
:100C400000078143E1612878C00705D0206BA968BF
:100C500080088000084320632878800605D5206B33
:100C600010218843E968084320630020F8BD000094
:100C7000001002400070004088130000F8B50F46D5
:100C8000060059D03A4D2868C007C00FB84209D2B3
:100C9000286840084000384328602868C007C00F13
:100CA000B84249D13068334C81070CD5400704D590
:100CB000606807210902084360606068F02188438A
:100CC000B168084360603078C00726D0706801289A
:100CD0000ED0216802280ED0890700292CDA61681D
:100CE0008908890001436160FFF7F0FE00900DE084
:100CF00021688903F1E78901EFE7FFF7E7FE009933
:100D0000411A1D48814201D90320F8BD60680C21B9
:100D10000840716889008842EFD12868C007C00F79
:100D2000B8420BD92868400840003843286028683A
:100D3000C007C00FB84201D00120F8BD307840078D
:100D400006D56068072109028843F168084360609E
:100D500000F028F86168094A0906090F515CC8408B
:100D6000074908600020FFF7CFFE0020F8BD000013
:100D70000020024000100240881300009430000858
:100D80000C0000200448054900684968044A4905E8
:100D9000490F515CC84070470C0000200010024011
:100DA000A430000810B5104A51680C200B460340CF
:100DB0000E48042B17D0082B15D18B020C4C1B0F9F
:100DC000E45CD26A0A4B1207120F10339A5CC90313
:100DD00005D500231946FFF7DBF9214601E020463F
:100DE000044901F0E1FF10BD0010024000127A003A
:100DF0007430000800093D00FEB5040070D0207872
:100E0000DC4DC0074AD068680007800F012807D072
:100E100068680007800F022809D16868C00306D5FA
:100E2000286880033AD560680028E7D036E061681A
:100E3000012914D001208004002901D0052914D0F3
:100E40002A68012109048A432A60296881432960AC
:100E50006068002816D0FFF739FE06460EE02868C5
:100E60000121090408432860F2E729680143296049
:100E7000F5E7FFF72BFE801B64286ED828688003F7
:100E8000F7D50BE0FFF722FE064604E0FFF71EFE53
:100E9000801B6428F1D828688003F7D420780126C5
:100EA000800700283CDA68680007800F07D0686870
:100EB0000007800F022809D16868C00306D428689B
:100EC000800716D5E06801280AD112E0E068002802
:100ED000286816D030432860FFF7F8FD074605E084
:100EE00043E1FFF7F3FDC01B0228C6D8286880073E
:100EF000F7D52868F82188432169C900084328608C
:100F00000EE0400840002860FFF7E0FD074604E0DF
:100F1000FFF7DCFDC01B0228AFD828688007F7D494
:100F20002078000722D5E0690028686A0ED0304397
:100F30006862FFF7CBFD074604E0FFF7C7FDC01B63
:100F400002289AD8686A8007F7D50FE04008400069
:100F50006862FFF7BBFD074605E09DE0FFF7B6FDC1
:100F6000C01B022889D8686A8007F7D42078042734
:100F70004007002860DA00200190E869C00008D42A
:100F8000E969B8060143E961E9690140012000917E
:100F9000019079480168C90511D40168821511438F
:100FA0000160FFF793FD009005E0FFF78FFD0099CA
:100FB000401A642870D870480068C005F5D5A0684C
:100FC00001280AD0002801D0052810D0286A40083E
:100FD00040002862286AB84301E0286A304328624A
:100FE000A068002812D0FFF771FD00900AE0286A7F
:100FF00038432862F1E7FFF769FD0099411A5F481D
:10100000814249D8286A8007F5D50DE0FFF75EFDDB
:10101000009006E0FFF75AFD0099411A57488142B7
:101020003AD8286A8007F5D40198002804D0E969E5
:10103000012000078143E9612078C00635D5606949
:1010400001280CD0401D686B23D038436863686B5F
:10105000400840006863FFF739FD064622E0686BF0
:1010600038436863686B30436863FFF72FFD0646BB
:1010700004E0FFF72BFD801B02285BD8686B80071C
:10108000F7D5686BF8218843A169C90008436863F4
:101090000BE0B8436863F4E74CE0FFF717FD801BF3
:1010A000022847D8686B8007F7D4206A00285ED0F2
:1010B00069680907890F022942D0012636060228ED
:1010C000286805D0B0432860FFF700FD044633E0F0
:1010D000B0432860FFF7FAFC074604E0FFF7F6FC90
:1010E000C01B022826D828688001F7D4E86AE16A84
:1010F000000900010843E862616AA06A0843696860
:101100003D221204914308436860286830432860F8
:10111000FFF7DCFC044604E0FFF7D8FC001B0228C4
:1011200008D828688001F7D521E0FFF7CFFC001B25
:10113000022801D90320FEBD28688001F5D416E0FD
:101140000128F8D06868E96A01221204636A024043
:101150009A420AD10907E26A090F914205D10F218B
:1011600089040840A16A884201D00120FEBD002008
:10117000FEBD000000100240007000408813000017
:10118000094910B5401E884201D9012010BD074C05
:1011900060610321081F01F01FFE0020A0610720ED
:1011A0002061002010BD0000FFFFFF0000E000E014
:1011B0007047704730B5034620331A7F012A26D086
:1011C00001221A770325CA682D02AA438D680024DC
:1011D0002A430125AD02AA434D6800682A43012530
:1011E000ED02AA430D682A4301252D03AA430D6988
:1011F0002A4301256D03AA434D69C9692A43012584
:10120000AD03AA430A4342641C77002030BD02208C
:1012100030BD0000F0B502462032137F012B1ED0F6
:10122000012515770223537706687468B368702721
:10123000BC430F682743776000680A4CA04205D082
:10124000094CA04202D0094CA04204D18024496834
:10125000A34319438160557700201077F0BD022029
:10126000F0BD0000002C014000040040004001409F
:1012700070B5040005D025462035687F002802D0CF
:1012800006E0012070BD00202877204600F014F809
:1012900002206877211D206801F00EFA01204034F9
:1012A000A071A877E87720706070A070E07020715E
:1012B00060716877002070BD10B586B004461421B7
:1012C0006846FFF704F8204A21682048914210D16F
:1012D000C26910210A43C261C0690022084005901A
:1012E00011461120FFF752FC1120FFF743FC06B016
:1012F00010BD174A914208D18269012149040A436D
:101300008261806908400590F1E7124A9142EED16E
:101310008269012189040A43826182690A40059237
:1013200042690A43426140690840059048120090B2
:101330000221002001910290049103906946064821
:10134000FFF7ECFAD3E70000001000400010024065
:10135000004401400048014000040048014620319B
:101360004A7F012A01D00120704702224A77026891
:10137000D36801210B43D3600068094A904205D02D
:10138000084A904202D0084A904204D1826852072B
:10139000520F062A02D002680A43026000207047FA
:1013A000002C0140000400400040014010B5054AF7
:1013B0000168914204D1007F012801D101F042F976
:1013C00010BD000000040040F8B504460020264689
:1013D00020360090307F0D4601280ED00120307756
:1013E000002A0CD0042A19D0082A2AD00C2A4ED060
:1013F0000090002030770098F8BD0220F8BDEB681F
:1014000006CD083D206801F0A5FA206882690C210C
:101410008A43826120688169AA680FE0EB6806CD83
:10142000083D206801F0BEFA20688169032292021B
:101430009143816120688169AA6812021143816128
:10144000D7E788CD287921688446086AFF220132CF
:1014500090430862C8690A6A800880003843F02710
:10146000B84367463F073F0E0743052040028243CB
:101470000A20034018021043CF6108622068C16946
:101480000C229143C1612068C1692A682CE02B6855
:1014900020689E466F682B7B016ABC4601221203BE
:1014A00091430162C169026A03273F02B94367465B
:1014B0003F020F430F2109038F431907090C05232E
:1014C00039435B039A4373460A273B401B0313438C
:1014D000C16103622068C269032189028A43C26133
:1014E0002068C169AA6812021143C16181E770B521
:1014F000040005D025462035687F002802D006E08C
:10150000012070BD00202877204600F015F8022049
:101510006877211D206801F0CFF801204034A071C8
:10152000A877E87720706070A070E070207160711B
:101530006877002070BD000010B586B00446142105
:101540006846FEF7C4FE15492068884224D1144835
:101550008269012109040A43826182690A40059275
:10156000426949000A4342614069084005900C20E5
:101570000090022001900020029003900490092026
:101580006946C006FFF7CAF9002202211420FFF7BE
:10159000FDFA1420FFF7EEFA06B010BD004001403E
:1015A0000010024070B50346044600252033403049
:1015B000002908D0042909D008290AD046784279A0
:1015C000012E0BD108E09E7F8278F9E7DE7FC2789A
:1015D000F6E706780279F3E7012A01D0012070BD11
:1015E0000222002909D004290ED0082912D0427005
:1015F00042710C292ED001252AE09A77827020684A
:10160000C3681343C3600CE0DA77C2702068C26815
:10161000042304E0027002712068C26808231A43A0
:10162000C2600122206801F08BF80C4A2068012179
:10163000904205D00A4A904202D00A4A904204D110
:1016400082685207520F062A02D002680A430260DB
:10165000284670BD2068C2681023E0E7002C0140D6
:10166000000400400040014070B504460068016974
:101670000025C9438907002915DBC168C9438907CB
:1016800011D4E91E0161012020772068806980075C
:10169000204602D0FFF78AFE04E000F0E9F8204679
:1016A00000F0CEF9257720680169C943490717D4AE
:1016B000C168C943490713D40421C9430161022009
:1016C0002077206880698005800F204602D0FFF7D0
:1016D0006DFE04E000F0CCF8204600F0B1F925776B
:1016E00020680169C943090716D4C168C9430907BD
:1016F00012D40821C9430161042020772068C06901
:101700008007204602D0FFF751FE04E000F0B0F859
:10171000204600F095F9257720680169C943C9067C
:1017200017D4C168C943C90613D41021C943016144
:10173000082020772068C0698005800F204602D0ED
:10174000FFF734FE04E000F093F8204600F078F94B
:10175000257720680169C943C90708D1C168C94311
:10176000C90704D1891E0161204600F09BFA206858
:101770000169C943090609D4C168C943090605D4EA
:101780008021C94301612046FFF712FD20680169ED
:10179000C943490609D4C168C943490605D4402153
:1017A000C9430161204600F0A9FA20680169C943D4
:1017B000890609D4C168C943890605D42021C943D3
:1017C00001612046FFF7F5FC70BD000070B586B0E2
:1017D000044614216846FEF77AFD204E0123256851
:1017E000092000221E495B040224C006B5420CD128
:1017F0004D691D434D614969029219400591C1141B
:1018000001940494039200910FE0164EB54211D159
:101810004D691D434D614969029219400591C021EE
:10182000009101210194039204916946FFF776F833
:1018300006B070BD0C488542FAD14B690120800486
:1018400003434B6149690292014005918012009067
:1018500001940494039269460448E7E7002C014090
:101860000010024000040040004401400004004811
:101870007047F8B5064604462036307F00270D46EF
:1018800001280ED001203077002A0CD0042A1BD06A
:10189000082A2FD00C2A3ED0012700203077384666
:1018A000F8BD0220F8BD206800F058FF206881696B
:1018B0000822114381612068826904218A43826180
:1018C000206881692A6912E0206800F08BFF206897
:1018D00082690121C9020A4382612068816901226B
:1018E000920291438161206881692A691202114341
:1018F0008161D2E7206800F0B5FF2068C169082245
:101900001143C1612068C26904218A43C261206811
:10191000C1692A6912E0206800F0E6FF2068C16909
:101920000122D2021143C1612068C26901218902EA
:101930008A43C2612068C1692A6912021143C161E8
:10194000ABE770B5040005D025462035687F002838
:1019500002D006E0012070BD00202877204600F06C
:1019600015F802206877211D206800F0A5FE0120EF
:101970004034A071A877E87720706070A070E070A4
:10198000207160716877002070BD0000F8B50546D1
:10199000264A0168264891423CD18269C1140A4313
:1019A00082618069244C084000902248102600275C
:1019B000C1C480202060400060608000A0602020C2
:1019C000E060C00120611C480C3CFEF77DFF002850
:1019D00001D0FEF7E5FE6C6265621648164C2830B1
:1019E0004434C1C480202060400060608000A0605A
:1019F0002020E060C001206120460C380C3CFEF73E
:101A000063FF002801D0FEF7CBFE2C63AC636C6350
:101A10006562F8BD094A9142FBD1C26902210A43BD
:101A2000C261C06908400090F8BD0000002C014070
:101A3000001002401C000240FC0100200004004095
:101A400010B50C480022C2700B484168006800299C
:101A500008D0042909D00368082909D01A6400F0C5
:101A6000ABF810BD03685A63F9E703689A63F6E7B9
:101A7000DA63F4E7420000200C03002030B504468E
:101A80000222203000290AD004290DD020464030FF
:101A900008290ED04378012B10D0012030BD837F60
:101AA000012BFAD182770AE0C37F012BF5D1C277EF
:101AB00005E00378012BF0D1027000E042700122B2
:101AC000206800F03DFE12492068124B884207D082
:101AD000984205D0104A904202D0104A904204D158
:101AE000426C0125ED032A434264206801228842AA
:101AF00004D00B49884201D0984204D1816849073B
:101B0000490F062902D0016811430160002030BD51
:101B1000002C0140004001400044014000480140C9
:101B20000004004070B504460D460068002200F035
:101B300007FE1D491B4B20688A10984208D01B4B9A
:101B4000984205D01A4B984202D01A4B98420AD1BB
:101B5000036A0B4207D1036A134204D1436C012686
:101B6000F603B34343642068036A0B4206D1016A5B
:101B7000114203D101684908490001602046203024
:101B80000121002D07D0042D07D04034082D06D0A8
:101B90006170002070BD8177FBE7C177F9E72170A4
:101BA000F7E70000002C0140111100000040014047
:101BB0000044014000480140F8B500260D460446A7
:101BC000002907D0042D0DD0082D13D00C2D19D0CD
:101BD000012655E02068C168012252029143C1608C
:101BE000606A16E02068C168012292029143C160D8
:101BF000A06A0EE02068C1680122D2029143C16050
:101C0000E06A06E02068C168012212039143C160C6
:101C1000206BFEF7E7FD00222946206800F090FDCA
:101C20001C491B4B20688A10984208D01A4B9842D6
:101C300005D01A4B984202D0194B98420AD1036A38
:101C40000B4207D1036A134204D1436C0127FF03FF
:101C5000BB4343642068036A0B4206D1016A114208
:101C600003D1016849084900016021460120203163
:101C7000002D07D0042D07D04034082D06D0607009
:101C80003046F8BD8877FBE7C877F9E72070F7E7BB
:101C9000002C0140111100000040014000440140AF
:101CA0000048014070B5124900680968884213D1A4
:101CB000104C114D207800280FD000212846FFF746
:101CC00031FF2968002048636178491CC9B26170FE
:101CD0000A2901D32070607070BD00210648FFF70B
:101CE000CDFE29684F2048630120207070BD0000A0
:101CF000DC00002046000020940000207047704760
:101D000070470000F8B502680446D069116893680E
:101D10009E4D06462E4025468035002E71D09C4FA4
:101D2000DE07F60F0F4037437ED0C70706D0CF053A
:101D300004D5012717626A683A436A60820708D5AA
:101D4000DA0706D0276802223A626A6804273A4313
:101D50006A60420708D5DA0706D0236804221A62AF
:101D60006A6802231A436A60020709D520220A40E2
:101D7000324305D0236808221A626B6813436B60F4
:101D8000020509D54A0107D501222368D2021A6249
:101D90006B68202213436B606A68002A39D0800682
:101DA00006D5880604D5A16E002901D020468847B3
:101DB000686821688968490602D4282108422DD024
:101DC000204600F0DBFE21688868400622D5EFF34C
:101DD0001080012282F310888A6840239A438A6027
:101DE00080F31088606F002814D06A494163606FE7
:101DF000FEF7F8FC00280CD0606F416B08E000E0B3
:101E000012E0830610D58B060ED5A16EA3E0204606
:101E10008847F8BD2046FFF773FFF8BD2046FFF75F
:101E20006FFF00206860F8BD236E012B7ED1C306D2
:101E30007CD5CB067AD5102313622268906826469B
:101E400040064036002848DA616F086840680004A0
:101E5000000CE8D0378B8742E5D970838869202849
:101E600034D0EFF31080012181F3108811681F0135
:101E7000B943116080F31088EFF31080012181F3E2
:101E8000108821688A68520852008A6080F310889E
:101E9000EFF31080012181F3108821688A684027C0
:101EA000BA438A6080F310882020286000202066D2
:101EB000EFF31080012181F3108821680A689A43AA
:101EC0000A6080F31088606FFEF76CFC0220606689
:101ED000308B718B401A81B234E0308B718B401A99
:101EE00081B2708B00289ED000299CD0EFF3108027
:101EF000012686F310881668FF272137BE43166037
:101F000080F31088EFF31080012282F3108822689A
:101F1000966876087600966080F310882020286006
:101F200000202066A066EFF3108000E00EE00122A2
:101F300082F31088226815689D43156080F310882D
:101F4000022060662046FFF7DAFEF8BD030606D5DC
:101F50000B0604D5E16E002900D058E7F8BD400615
:101F6000FCD54806FAD52046EFF31081012383F310
:101F70001088146840239C43146081F3108820214A
:101F8000C1670021C16600F077F8F8BD0F080000B6
:101F900020010004692B000810B5040003D0E06F95
:101FA000002802D007E0012010BD00217820015553
:101FB000204600F027F82420E067206801684908DF
:101FC00049000160204600F009FE0128ECD0606A5B
:101FD000002802D0204600F0FFFC20684168012262
:101FE000D202914341602068816808229143816058
:101FF00020680168012211430160204600F052FD73
:1020000010BD000010B586B0044614216846FEF7E6
:102010005EF917492068884227D116488269012154
:1020200089030A43826182690A4005924269C900B4
:102030000A43426140690840059003204002009035
:1020400002200190002002900320039001200490C0
:1020500009206946C006FEF761FC002201211B2011
:10206000FEF794FD1B20FEF785FD06B010BD0000B5
:1020700000380140001002407047FEE710B50E48DE
:102080000188491C01804188491C41808188491C84
:102090008180C188491CC1800189491C0181418915
:1020A000491C41818189491C8181C189491CC181A7
:1020B00000F030FA10BD00002000002008B50C48E8
:1020C00041690122114341614069104000220090A2
:1020D00011460A20FEF75AFD0A20FEF74BFD0022AA
:1020E00011460B20FEF752FD0B20FEF743FD08BD05
:1020F00000100240F0B587B014216846FEF7E7F8FB
:102100002C484269012189050A43426142690A401B
:102110000592426949110A43426142690A400592A7
:10212000426949000A434261406909270840FF06A5
:102130000590012230213846FEF7C2FC0126F60345
:10214000002231463846FEF7BBFC002218211A480F
:10215000FEF7B6FC30200090012503200390019586
:10216000029569463846FEF7D9FB05200003002496
:1021700000900194694602940F48FEF7CFFB2803B4
:1021800000900194694602943846FEF7C7FB02941A
:1021900069463846009601950394FEF7BFFB182068
:1021A000009002946946019503940348FEF7B6FB3C
:1021B00007B0F0BD001002400004004810B586B022
:1021C000002405941D4804940094019402941A4933
:1021D000039401600B218460416004614461C72164
:1021E0008461C160FFF783F9002801D0FEF7D8FAB7
:1021F000049404A911480594FFF70CF8002801D0B5
:10220000FEF7CEFA01200190009402940022694664
:1022100003940A48FFF7D8F8002801D0FEF7C0FA67
:10222000042269460548FFF7CFF8002801D0FEF7E1
:10223000B7FA06B010BD00000040014024010020A4
:1022400010B590B01C2108A8FEF741F8202168467F
:10225000FEF73DF821482049016000240B218460ED
:10226000416004614461C7218461C160FFF700F8E7
:10227000002801D0FEF794FA1848FFF762FB002807
:1022800001D0FEF78DFA60200890022009940A9090
:102290000B940C940D94002208A90E940F48FFF79C
:1022A000E8FA002801D0FEF77BFA012000944003F1
:1022B0000294059001940394049469460794074896
:1022C000FEF778FF002801D0FEF76AFA0348FFF70F
:1022D0007DFA10B010BD0000004401406C010020E8
:1022E0001FB50024164800940194029413490394E6
:1022F0000160144984604160046144611249846151
:10230000C160FEF7B5FF002801D0FEF749FA0C487E
:10231000FFF7EDF8002801D0FEF742FA0120019006
:10232000009402940022694603940548FFF74CF894
:10233000002801D0FEF734FA1FBD0000004801401C
:10234000B4010020BF120000FFFF000010B592B0E2
:1023500000240F941C2168461094FDF7B8FF20213B
:1023600007A8FDF7B4FF2549254812C00460846022
:10237000C4603B21046141600838FFF7E2FA00289D
:1023800001D0FEF70DFA0F940FA91D481094FEF727
:1023900041FF002801D0FEF703FA602000902720BB
:1023A00006940190029403940494059400226946D3
:1023B0001348FFF75EFA002801D0FEF7F1F90C226E
:1023C00069460F48FFF755FA002801D0FEF7E8F9F3
:1023D00001200794400309940C9008940A940B94EC
:1023E00007A90E940648FEF7E5FE002801D0FEF787
:1023F000D7F90348FFF7EAF912B010BD002C0140ED
:102400004C00002010B58AB0002407941C216846B7
:102410000894FDF75CFF1C481A490160072184609D
:10242000416004619D218461C160FFF78AFA002840
:1024300001D0FEF7B5F9079407A913480894FEF7F1
:10244000E9FE002801D0FEF7ABF96020009001946E
:1024500002940022694604940B48FFF70AFA002808
:1024600001D0FEF79DF9042269460748FFF701FAFB
:10247000002801D0FEF794F90348FFF7A7F90AB046
:1024800010BD0000000400409400002010B5094871
:10249000074901602F2141600021074A8160C26025
:1024A0008161FEF7E5FE002801D0FEF779F910BD45
:1024B00000100040DC0000205702000010B50C485E
:1024C0000A4901604B214902416000218160C160DD
:1024D00001618161C1610C22016242614162FFF7C9
:1024E0005BFD002801D0FEF75BF910BD003801400C
:1024F00084020020FEE770477047000010B5FEF729
:10250000EBFA03480078002801D0FFF7B7FD10BDB3
:102510004800002070B5154C00252088022800D303
:10252000258060880A2800D36580A088142800D3FD
:10253000A580E088322803D30D48FEF7B3F8E58084
:102540002089642800D3258160890A2800D3658109
:10255000A089FF21F531884200D3A581E0897D2142
:10256000C900884200D3E58170BD00002000002032
:10257000CDCC4C3D70B594B030216846FDF7A7FE38
:10258000002401250E94280413940F9409900D94AF
:102590001094009500010C941294022601950A9063
:1025A000119408960B946846FEF726FC002801D08B
:1025B00072B6FEE707200C900E9401210D960F9441
:1025C0000CA8FEF75BFB002801D072B6FEE710A84E
:1025D00010951294FEF7DEFA002801D072B6FEE7DD
:1025E00014B070BD7047000070B50E4C0020207014
:1025F000FEF7C2F80925ED06002240212846FEF725
:102600005FFA002280212846FEF75AFAFEF7BCF84E
:102610000548FEF7A3FE0649044808600120207023
:1026200070BD000048000020DC000020CDCCCC3D77
:102630003400002010B50248FFF716F810BD000066
:102640002401002070B511480068456B104C65608E
:10265000A068854201D9281A02E00E49081A4019DB
:102660002060FDF7E9FF01460B48FDF7E3FEA5609A
:102670000A49E06000F032FC0949FDF7DBFEFDF796
:1026800089FF084948800020086170BD940000203F
:1026900010000020FFFF000000401C4600007042B8
:1026A0000000A040F407002010B50248FEF7DCFF50
:1026B00010BD0000DC000020F0B502681A4B1B4C76
:1026C000984201D0A04203D17025AA434D682A4305
:1026D000174D184E184F98420AD0A04208D0174CF8
:1026E000A04205D0A84203D0B04201D0B84205D1E3
:1026F0001446032212029443CA6822438024A24350
:102700004C69224302608A68C2620A688262984207
:1027100005D0A84203D0B04201D0B84201D1096926
:10272000016301214161F0BD002C01400004004023
:1027300000400140004401400048014000200040AA
:1027400010B5CB06DB0E0121046A99408C4304626C
:10275000016A9A401143016210BD0000F0B5026A9F
:10276000520852000262056A436882697024A243DB
:1027700092080C6892001443022295438A68164E10
:102780002A43144DA84207D0B04205D0134FB84297
:1027900002D0134FB84206D10827BA43CF68174377
:1027A000042297433A46A84207D0B04205D00B4DC9
:1027B000A84202D00A4DA84206D103252D02AB4300
:1027C0004D691D438B692B434360846149684163B4
:1027D0000262F0BD002C0140004001400044014075
:1027E0000048014070B5026A10239A430262056AEC
:1027F0004268836973242402A3430C6824021C43A7
:1028000020239D438B681B012B43124DA84208D106
:102810001D46CB688026B5431B012B434025AB43A7
:1028200008E00D4DA84205D00C4DA84202D00C4D39
:10283000A84208D10325AD02AA434D69AD00154356
:102840008A6992002A434260846149688163036215
:1028500070BD0000002C01400040014000440140D8
:102860000048014070B5026AFF2301339A430262B7
:10287000056A4368C2697024A24392080C689200FA
:1028800014430122520295438A6812022A43124DD0
:10289000A84208D11546CA68C614B54312022A4395
:1028A0000515AA4308E00D4DA84205D00C4DA842DD
:1028B00002D00C4DA84208D103252D03AB434D692E
:1028C0002D011D438B691B012B434360C461496883
:1028D000C163026270BD0000002C01400040014055
:1028E000004401400048014030B5026A01231B0347
:1028F0009A430262046A4268C36973252D02AB439E
:102900000D682D021D4301235B039C438B681B0351
:1029100023430C4CA04208D00B4CA04205D00B4CDA
:10292000A04202D00A4CA04205D10124A403A24334
:102930004C69A40122434260C56149680164036295
:1029400030BD0000002C0140004001400044014027
:102950000048014070B5046A640864000462846938
:10296000056A0D4EB04205D00C4EB04202D00C4E5E
:10297000B04202D1A408A40000E001221443F022D6
:1029800094431A07120E0A2322439D4319402943F8
:102990008261016270BD0000002C01400004004013
:1029A0000040014070B5046A1025AC43046285699B
:1029B000046A03263602B54312022A430F252D036B
:1029C0001B071B0CAA431343A02209019443114087
:1029D00021438361016270BD10B5818CC90707D0A6
:1029E00001684A6801235B049A43836A1A434A6078
:1029F000818C890707D501684A6801231B049A4323
:102A0000C36A1A434A60818C490707D501684A683E
:102A100001239B049A43036B1A434A60818C090784
:102A200007D501684A680123DB039A43436B1A43C5
:102A30004A60818CC90607D50268916801231B038F
:102A40009943836B19439160818C890607D501688E
:102A50008A6801235B039A43C36B1A438A60818CA3
:102A6000490612D503685A6801210905046C8A4396
:102A700022435A60026C8A4207D1026851680323DC
:102A80005B059943436C19435160818C090607D556
:102A900001684A680123DB04806C9A4302434A6060
:102AA00010BD0000FEB507460025803704467D6056
:102AB000FEF70CF801902068006826460007603693
:102AC000002819DA274800900121002249052046F4
:102AD000019B00F01BF900280ED0EFF310800121BC
:102AE00081F3108821680A6880239A430A6080F382
:102AF00010882020E06729E020680068400728D57A
:102B0000184800900121002289052046019B00F011
:102B1000FDF800281DD0EFF31080012181F310880B
:102B200021680A68FF2321339A430A6080F31088E2
:102B3000EFF31080012181F3108821688A68520820
:102B400052008A6080F31088202038603576032098
:102B5000FEBD2020E067386025666566357600207A
:102B6000FEBD0000FFFFFF0110B5406A00220146D4
:102B700040314A834A82FFF7C3F810BD10B5EFF326
:102B80001081012282F3108802681368FF24213427
:102B9000A343136081F31088EFF31081012282F3C5
:102BA0001088026893685B085B00936081F310886B
:102BB000016E01290BD1EFF31081012282F31088FD
:102BC000026813681024A343136081F31088202245
:102BD00080210A5000210166816610BD70B504464F
:102BE00080682169E2690843616900251143226810
:102BF000084311683F4B1940014311602168486840
:102C0000032212039043E26810434860A169206ADE
:102C1000084321688A680B231B029A4302438A6097
:102C200035492068884210D13448006B8007800FF6
:102C30000ED0012805D0022805D003280AD1022190
:102C400009E0042107E0082105E02D49884201D16F
:102C5000002100E010210120E369C003294A2A4E27
:102C6000834222D1002906D0022907D0042907D0A7
:102C7000082935D108E0FEF785F803E0104603E0A7
:102C8000FEF790F8002830D0616840004A088018AC
:102C9000FDF71FFB01461039B14221D81A49491CE2
:102CA00001400007400F08431DE0002906D002291B
:102CB00007D0042907D0082912D108E0FEF762F8EE
:102CC00003E0104603E0FEF76DF800280DD06168C0
:102CD0004A081018FDF7FDFA01461039B14201D932
:102CE000012502E080B22168C8600020A066E0668D
:102CF000284670BDF369FFFF003801400010024014
:102D00000044004000127A00EFFF0000FFB50646C5
:102D100081B080360546044660350A9F2EE0781C57
:102D20002CD0FDF7D3FE0499401AB84214D8002FD6
:102D300012D020680168490720D5C169C943090735
:102D40000CD4082707622046FFF718FF77600020A1
:102D50002876012005B0F0BD0320FBE7C069C04321
:102D600000050BD401202168C00208622046FFF74D
:102D700005FF2020706000202876EDE72068C169FB
:102D80000298884305D0002103988142C7D00020D3
:102D9000E0E70121F8E7000010B50248FEF7B2FFB6
:102DA00010BD000084020020F8B5040C8BB226464A
:102DB00082B25E430D0C1046370C5843360480191E
:102DC0000021794116466E43370C3604801979414B
:102DD00026466E438919F8BD8307FF22DB0E9A4011
:102DE0008907090E9940002808DB830809489B00E1
:102DF0001B18186890430843186070470007000FBD
:102E00000838830804489B001B18D869904308437E
:102E1000D861704700E400E000ED00E0FDF764FEDB
:102E2000FFF7A8FBFFF766F9FFF748F9FFF78EFAFF
:102E3000FFF7E8FAFFF7C2F9FFF702FAFFF73EFBE8
:102E4000FFF74EFAFFF722FBFFF7CEFBFEE700008D
:102E500070B501250400ED074C4020D4441A01D27E
:102E6000001B0919C60D4B00F2B2FF2A29D01B0E18
:102E70002CD000020C02D31A2C43DC402843051945
:102E800010D2280A02D3401C6D0611D0761EF6051A
:102E90008019FF2A00DA70BDC00DC00570BD694001
:102EA00000F086F801200543C541521C761CE8E776
:102EB00064089C40C90161408900E7D10124A04316
:102EC000E4E71B0E440200D0034870BD002AFCD189
:102ED000C00FC00770BD00BF0000C07F70B54200CA
:102EE00064414B005C41120E39D01B0E38D0FF2AD2
:102EF0003CD0FF2B3AD040024902400A490A060062
:102F000045184E43000A090AD2184843ED017F3A9A
:102F10000104731A4019190C4318990F04D00121A8
:102F20005B0849075B1A521CD80904D3401CF503FF
:102F300001D19D0607D0FF2A08D2D50506D0E407A7
:102F40002043401970BD0125A843F4E7002A01DCA5
:102F5000E00770BD2402FF202043C00570BD1B0E9A
:102F6000FF2A03D0FF2B01D0E00770BDFF264500EC
:102F70003606B54206D84D00B54203D8D218FF2A0E
:102F800000D0E7E7004870BD0000C07F70B50125A4
:102F9000ED07684004004C4002D5694000F008F895
:102FA000FFF75CFF70B501250400ED074C4022D40B
:102FB000441A02D26C40001B0919C60D4B00F2B234
:102FC000FF2A4BD01B0E50D000020C02D31A2C4308
:102FD000DC40A843051B05D5AD0019D36D08761E4E
:102FE000521E37D0F605280A01D2801970BD7041F3
:102FF0006D0603D070BD6940FFF730FF9C400902A9
:103000006140490001D0401E70BD0124A04370BD45
:103010006D081DD001202B0C01D12D0410302B0E7A
:1030200001D12D0208302B0F01D12D01001DAB0F56
:1030300001D1AD00801CEB0F01D16D00401C6D0073
:10304000361A121A680AF5054019012A02DB70BD0A
:10305000002070BDC036300AC00770BD1B0E440290
:1030600001D1FF2B00D1024870BD002AF0D070BD05
:103070000000C07F02030405060708090A0B0C0DB7
:103080000E0F10100102030405060708090A0B0CB5
:103090000D0E0F10000000000000000001020304EC
:1030A00006070809000000000102030481828384EE
:1030B00085868788898B8C8D8E8F91929395969734
:1030C000999A9C9D9FA0A2A3A5A7A8AAACAEB0B2B6
:1030D000B3B5B7B9BCBEC0C2C5C7C9CCCED1D4D7B1
:1030E000D9DCDFE2E6E9ECF0F3F7FAFE0C31000898
:1030F000000000204C000000F800000858310008D3
:103100004C000020240E0000140100080100000003
:10311000040000000000000000127A00000000001F
:10312000000000000000000000000000000000009F
:10313000000000000000000000000000000000008F
:10314000000000000000000001000000000000007E
:08315000000000000000000077
:04000005080000B53A
:00000001FF
